{"abi":[{"inputs":[],"stateMutability":"nonpayable","type":"constructor","name":"constructor"},{"anonymous":false,"inputs":[{"indexed":false,"internalType":"address","name":"previousAdmin","type":"address"},{"indexed":false,"internalType":"address","name":"newAdmin","type":"address"}],"name":"AdminChanged","type":"event"},{"anonymous":false,"inputs":[{"indexed":true,"internalType":"address","name":"beacon","type":"address"}],"name":"BeaconUpgraded","type":"event"},{"anonymous":false,"inputs":[{"indexed":true,"internalType":"address","name":"provider","type":"address"},{"indexed":false,"internalType":"int128","name":"amount","type":"int128"},{"indexed":false,"internalType":"uint256","name":"end","type":"uint256"},{"indexed":false,"internalType":"uint256","name":"ts","type":"uint256"}],"name":"LockupCreated","type":"event"},{"anonymous":false,"inputs":[{"indexed":true,"internalType":"address","name":"provider","type":"address"},{"indexed":false,"internalType":"int128","name":"oldAmount","type":"int128"},{"indexed":false,"internalType":"uint256","name":"oldEnd","type":"uint256"},{"indexed":false,"internalType":"int128","name":"amount","type":"int128"},{"indexed":false,"internalType":"uint256","name":"end","type":"uint256"},{"indexed":false,"internalType":"uint256","name":"ts","type":"uint256"}],"name":"LockupUpdated","type":"event"},{"anonymous":false,"inputs":[{"indexed":true,"internalType":"address","name":"previousOwner","type":"address"},{"indexed":true,"internalType":"address","name":"newOwner","type":"address"}],"name":"OwnershipTransferred","type":"event"},{"anonymous":false,"inputs":[{"indexed":true,"internalType":"address","name":"implementation","type":"address"}],"name":"Upgraded","type":"event"},{"anonymous":false,"inputs":[{"indexed":true,"internalType":"address","name":"provider","type":"address"},{"indexed":false,"internalType":"uint256","name":"value","type":"uint256"},{"indexed":false,"internalType":"uint256","name":"ts","type":"uint256"}],"name":"Withdraw","type":"event"},{"inputs":[],"name":"MAX_LOCK_TIME","outputs":[{"internalType":"uint256","name":"","type":"uint256"}],"stateMutability":"view","type":"function"},{"inputs":[{"internalType":"address","name":"_account","type":"address"}],"name":"balanceOf","outputs":[{"internalType":"uint256","name":"","type":"uint256"}],"stateMutability":"view","type":"function"},{"inputs":[{"internalType":"address","name":"_account","type":"address"},{"internalType":"uint256","name":"_blockNumber","type":"uint256"}],"name":"balanceOfAt","outputs":[{"internalType":"uint256","name":"","type":"uint256"}],"stateMutability":"view","type":"function"},{"inputs":[],"name":"checkpoint","outputs":[],"stateMutability":"nonpayable","type":"function"},{"inputs":[{"internalType":"address","name":"_account","type":"address"},{"internalType":"uint32","name":"_pos","type":"uint32"}],"name":"checkpoints","outputs":[{"components":[{"internalType":"int128","name":"bias","type":"int128"},{"internalType":"int128","name":"slope","type":"int128"},{"internalType":"uint256","name":"ts","type":"uint256"},{"internalType":"uint256","name":"blk","type":"uint256"}],"internalType":"struct VoteLockerCurve.Checkpoint","name":"","type":"tuple"}],"stateMutability":"view","type":"function"},{"inputs":[],"name":"decimals","outputs":[{"internalType":"uint8","name":"","type":"uint8"}],"stateMutability":"view","type":"function"},{"inputs":[{"internalType":"address","name":"_account","type":"address"}],"name":"delegates","outputs":[{"internalType":"address","name":"","type":"address"}],"stateMutability":"view","type":"function"},{"inputs":[{"internalType":"address","name":"_account","type":"address"}],"name":"getLastCheckpoint","outputs":[{"components":[{"internalType":"int128","name":"bias","type":"int128"},{"internalType":"int128","name":"slope","type":"int128"},{"internalType":"uint256","name":"ts","type":"uint256"},{"internalType":"uint256","name":"blk","type":"uint256"}],"internalType":"struct VoteLockerCurve.Checkpoint","name":"","type":"tuple"}],"stateMutability":"view","type":"function"},{"inputs":[],"name":"getLastGlobalCheckpoint","outputs":[{"components":[{"internalType":"int128","name":"bias","type":"int128"},{"internalType":"int128","name":"slope","type":"int128"},{"internalType":"uint256","name":"ts","type":"uint256"},{"internalType":"uint256","name":"blk","type":"uint256"}],"internalType":"struct VoteLockerCurve.Checkpoint","name":"","type":"tuple"}],"stateMutability":"view","type":"function"},{"inputs":[{"internalType":"address","name":"_account","type":"address"}],"name":"getLockup","outputs":[{"components":[{"internalType":"int128","name":"amount","type":"int128"},{"internalType":"uint256","name":"end","type":"uint256"}],"internalType":"struct VoteLockerCurve.Lockup","name":"","type":"tuple"}],"stateMutability":"view","type":"function"},{"inputs":[{"internalType":"uint256","name":"_blockNumber","type":"uint256"}],"name":"getPastTotalSupply","outputs":[{"internalType":"uint256","name":"","type":"uint256"}],"stateMutability":"view","type":"function"},{"inputs":[{"internalType":"address","name":"_account","type":"address"},{"internalType":"uint256","name":"_blockNumber","type":"uint256"}],"name":"getPastVotes","outputs":[{"internalType":"uint256","name":"","type":"uint256"}],"stateMutability":"view","type":"function"},{"inputs":[{"internalType":"address","name":"_account","type":"address"}],"name":"getVotes","outputs":[{"internalType":"uint256","name":"","type":"uint256"}],"stateMutability":"view","type":"function"},{"inputs":[{"internalType":"uint32","name":"pos","type":"uint32"}],"name":"globalCheckpoints","outputs":[{"components":[{"internalType":"int128","name":"bias","type":"int128"},{"internalType":"int128","name":"slope","type":"int128"},{"internalType":"uint256","name":"ts","type":"uint256"},{"internalType":"uint256","name":"blk","type":"uint256"}],"internalType":"struct VoteLockerCurve.Checkpoint","name":"","type":"tuple"}],"stateMutability":"view","type":"function"},{"inputs":[],"name":"globalEpoch","outputs":[{"internalType":"uint256","name":"","type":"uint256"}],"stateMutability":"view","type":"function"},{"inputs":[{"internalType":"address","name":"_stakingToken","type":"address"}],"name":"initialize","outputs":[],"stateMutability":"nonpayable","type":"function"},{"inputs":[{"internalType":"uint256","name":"_amount","type":"uint256"},{"internalType":"uint256","name":"_end","type":"uint256"}],"name":"lockup","outputs":[],"stateMutability":"nonpayable","type":"function"},{"inputs":[{"internalType":"address","name":"","type":"address"}],"name":"lockups","outputs":[{"internalType":"int128","name":"amount","type":"int128"},{"internalType":"uint256","name":"end","type":"uint256"}],"stateMutability":"view","type":"function"},{"inputs":[],"name":"name","outputs":[{"internalType":"string","name":"","type":"string"}],"stateMutability":"view","type":"function"},{"inputs":[{"internalType":"address","name":"_account","type":"address"}],"name":"numCheckpoints","outputs":[{"internalType":"uint256","name":"","type":"uint256"}],"stateMutability":"view","type":"function"},{"inputs":[],"name":"numGlobalCheckpoints","outputs":[{"internalType":"uint256","name":"","type":"uint256"}],"stateMutability":"view","type":"function"},{"inputs":[],"name":"owner","outputs":[{"internalType":"address","name":"","type":"address"}],"stateMutability":"view","type":"function"},{"inputs":[],"name":"proxiableUUID","outputs":[{"internalType":"bytes32","name":"","type":"bytes32"}],"stateMutability":"view","type":"function"},{"inputs":[],"name":"renounceOwnership","outputs":[],"stateMutability":"nonpayable","type":"function"},{"inputs":[{"internalType":"address","name":"_stakingToken","type":"address"}],"name":"setStakingToken","outputs":[],"stateMutability":"nonpayable","type":"function"},{"inputs":[{"internalType":"uint256","name":"","type":"uint256"}],"name":"slopeChanges","outputs":[{"internalType":"int128","name":"","type":"int128"}],"stateMutability":"view","type":"function"},{"inputs":[],"name":"symbol","outputs":[{"internalType":"string","name":"","type":"string"}],"stateMutability":"view","type":"function"},{"inputs":[],"name":"totalSupply","outputs":[{"internalType":"uint256","name":"","type":"uint256"}],"stateMutability":"view","type":"function"},{"inputs":[{"internalType":"uint256","name":"_blockNumber","type":"uint256"}],"name":"totalSupplyAt","outputs":[{"internalType":"uint256","name":"","type":"uint256"}],"stateMutability":"view","type":"function"},{"inputs":[{"internalType":"address","name":"newOwner","type":"address"}],"name":"transferOwnership","outputs":[],"stateMutability":"nonpayable","type":"function"},{"inputs":[{"internalType":"address","name":"newImplementation","type":"address"}],"name":"upgradeTo","outputs":[],"stateMutability":"nonpayable","type":"function"},{"inputs":[{"internalType":"address","name":"newImplementation","type":"address"},{"internalType":"bytes","name":"data","type":"bytes"}],"name":"upgradeToAndCall","outputs":[],"stateMutability":"payable","type":"function"},{"inputs":[{"internalType":"address","name":"","type":"address"}],"name":"userEpoch","outputs":[{"internalType":"uint256","name":"","type":"uint256"}],"stateMutability":"view","type":"function"},{"inputs":[],"name":"withdraw","outputs":[],"stateMutability":"nonpayable","type":"function"}],"bytecode":"60a0604052306080523480156200001557600080fd5b50600062000024600162000057565b905080156200003d576000805461ff0019166101001790555b801562000050576000805461ff00191690555b5062000178565b60008054610100900460ff1615620000f0578160ff1660011480156200009057506200008e306200016960201b62001d4e1760201c565b155b620000e85760405162461bcd60e51b815260206004820152602e60248201526000805160206200393383398151915260448201526d191e481a5b9a5d1a585b1a5e995960921b60648201526084015b60405180910390fd5b506000919050565b60005460ff8084169116106200014f5760405162461bcd60e51b815260206004820152602e60248201526000805160206200393383398151915260448201526d191e481a5b9a5d1a585b1a5e995960921b6064820152608401620000df565b506000805460ff191660ff92909216919091179055600190565b6001600160a01b03163b151590565b608051613783620001b060003960008181610b2e01528181610b6e015281816111a0015281816111e0015261127301526137836000f3fe6080604052600436106101f95760003560e01c8063715018a61161010d578063c2c4c5c1116100a0578063cb03623a1161006f578063cb03623a1461064f578063f1127ed81461067c578063f2fde38b1461069c578063f52a36f7146106bc578063fa78668f146106ff57600080fd5b8063c2c4c5c1146105b0578063c4d66de8146105c5578063c5e687d4146105e5578063c7b6d432146105fa57600080fd5b806395d89b41116100dc57806395d89b411461053b578063981b24d0146105505780639ab24eb014610570578063a8bb66961461059057600080fd5b8063715018a6146104d35780638da5cb5b146104e85780638e539e8c1461050657806395b3aa191461052657600080fd5b80634ee2cd7e11610190578063587cde1e1161015f578063587cde1e146103a157806367afd1cc146103da5780636909221d1461045d5780636fcfff451461047d57806370a08231146104b357600080fd5b80634ee2cd7e146103435780634f1ef2861461036357806352d1902d146103765780635719098b1461038b57600080fd5b8063313ce567116101cc578063313ce567146102cc5780633659cfe6146102ee5780633a46b1a81461030e5780633ccfd60b1461032e57600080fd5b806306fdde03146101fe57806311cde2201461022957806318160ddd146102875780631e9b12ef146102aa575b600080fd5b34801561020a57600080fd5b50610213610717565b6040516102209190612fb5565b60405180910390f35b34801561023557600080fd5b50610249610244366004612fff565b6107a9565b604051610220919060006080820190508251600f0b82526020830151600f0b6020830152604083015160408301526060830151606083015292915050565b34801561029357600080fd5b5061029c610838565b604051908152602001610220565b3480156102b657600080fd5b506102ca6102c5366004612fff565b6108bc565b005b3480156102d857600080fd5b5060cb5460405160ff9091168152602001610220565b3480156102fa57600080fd5b506102ca610309366004612fff565b610b23565b34801561031a57600080fd5b5061029c61032936600461301a565b610c03565b34801561033a57600080fd5b506102ca610c18565b34801561034f57600080fd5b5061029c61035e36600461301a565b610d9c565b6102ca6103713660046130b3565b611195565b34801561038257600080fd5b5061029c611266565b34801561039757600080fd5b5061029c60cf5481565b3480156103ad57600080fd5b506103c26103bc366004612fff565b50600090565b6040516001600160a01b039091168152602001610220565b3480156103e657600080fd5b5061043f6103f5366004612fff565b6040805180820190915260008082526020820152506001600160a01b0316600090815260d0602090815260409182902082518084019093528054600f0b8352600101549082015290565b604080518251600f0b81526020928301519281019290925201610220565b34801561046957600080fd5b50610249610478366004613158565b611319565b34801561048957600080fd5b5061029c610498366004612fff565b6001600160a01b0316600090815260cc602052604090205490565b3480156104bf57600080fd5b5061029c6104ce366004612fff565b61133a565b3480156104df57600080fd5b506102ca61142d565b3480156104f457600080fd5b506033546001600160a01b03166103c2565b34801561051257600080fd5b5061029c610521366004613173565b611463565b34801561053257600080fd5b5061024961146e565b34801561054757600080fd5b506102136114e6565b34801561055c57600080fd5b5061029c61056b366004613173565b6114f5565b34801561057c57600080fd5b5061029c61058b366004612fff565b61179a565b34801561059c57600080fd5b506102ca6105ab36600461318c565b6117a5565b3480156105bc57600080fd5b506102ca611b0d565b3480156105d157600080fd5b506102ca6105e0366004612fff565b611b18565b3480156105f157600080fd5b5060ce5461029c565b34801561060657600080fd5b50610635610615366004612fff565b60d06020526000908152604090208054600190910154600f9190910b9082565b60408051600f9390930b8352602083019190915201610220565b34801561065b57600080fd5b5061029c61066a366004612fff565b60cd6020526000908152604090205481565b34801561068857600080fd5b506102496106973660046131ae565b611c2b565b3480156106a857600080fd5b506102ca6106b7366004612fff565b611cb6565b3480156106c857600080fd5b506106ec6106d7366004613173565b60d160205260009081526040902054600f0b81565b604051600f9190910b8152602001610220565b34801561070b57600080fd5b5061029c630784ce0081565b606060c98054610726906131e1565b80601f0160208091040260200160405190810160405280929190818152602001828054610752906131e1565b801561079f5780601f106107745761010080835404028352916020019161079f565b820191906000526020600020905b81548152906001019060200180831161078257829003601f168201915b5050505050905090565b6107b1612ecb565b6001600160a01b038216600090815260cc6020526040902080546107d790600190613232565b815481106107e7576107e7613249565b60009182526020918290206040805160808101825260039093029091018054600f81810b8552600160801b909104900b93830193909352600183015490820152600290910154606082015292915050565b60ce546000906108485750600090565b600060ce60cf548154811061085f5761085f613249565b60009182526020918290206040805160808101825260039093029091018054600f81810b8552600160801b909104900b93830193909352600183015490820152600290910154606082015290506108b68142611d5d565b91505090565b6033546001600160a01b031633146108ef5760405162461bcd60e51b81526004016108e69061325f565b60405180910390fd5b60d280546001600160a01b0319166001600160a01b038316908117909155604080518082018252600d81526c159bdd1948115cd8dc9bddd959609a1b602082015281516306fdde0360e01b815291519092916306fdde039160048083019260009291908290030181865afa15801561096b573d6000803e3d6000fd5b505050506040513d6000823e601f3d908101601f191682016040526109939190810190613294565b6040516020016109a4929190613302565b60405160208183030381529060405260c990805190602001906109c8929190612ef9565b5060405180604001604052806002815260200161766560f01b81525060d260009054906101000a90046001600160a01b03166001600160a01b03166395d89b416040518163ffffffff1660e01b8152600401600060405180830381865afa158015610a37573d6000803e3d6000fd5b505050506040513d6000823e601f3d908101601f19168201604052610a5f9190810190613294565b604051602001610a7092919061333e565b60405160208183030381529060405260ca9080519060200190610a94929190612ef9565b5060d260009054906101000a90046001600160a01b03166001600160a01b031663313ce5676040518163ffffffff1660e01b8152600401602060405180830381865afa158015610ae8573d6000803e3d6000fd5b505050506040513d601f19601f82011682018060405250810190610b0c919061336d565b60cb805460ff191660ff9290921691909117905550565b306001600160a01b037f0000000000000000000000000000000000000000000000000000000000000000161415610b6c5760405162461bcd60e51b81526004016108e690613390565b7f00000000000000000000000000000000000000000000000000000000000000006001600160a01b0316610bb5600080516020613707833981519152546001600160a01b031690565b6001600160a01b031614610bdb5760405162461bcd60e51b81526004016108e6906133dc565b610be481611e3b565b60408051600080825260208201909252610c0091839190611e65565b50565b6000610c0f8383610d9c565b90505b92915050565b60408051808201825233600081815260d060208181529482208054600f0b85529290915283526001015491810182905290421015610c915760405162461bcd60e51b8152602060048201526016602482015275131bd8dadd5c081b5d5cdd08189948195e1c1a5c995960521b60448201526064016108e6565b60008160000151600f0b13610cdf5760405162461bcd60e51b81526020600482015260146024820152734c6f636b757020686173206e6f20746f6b656e7360601b60448201526064016108e6565b6040805180820182526000808252602080830182815233835260d0909152928120825181546001600160801b0319166001600160801b0390911617815592516001909301929092558251909190610d3890600f0b611fd5565b60d254909150610d52906001600160a01b0316338361202b565b610d5d33848461208e565b6040805182815242602082015233917ff279e6a1f5e320cca91135676d9cb6e44ca8a08c0b88342bcdb1144f6511b568910160405180910390a2505050565b600043821115610dee5760405162461bcd60e51b815260206004820152601d60248201527f426c6f636b206e756d62657220697320696e207468652066757475726500000060448201526064016108e6565b6001600160a01b038316600090815260cc602090815260408083208054825181850281018501909352808352610ea593859084015b82821015610e8157600084815260209081902060408051608081018252600386029092018054600f81810b8552600160801b909104900b83850152600180820154928401929092526002015460608301529083529092019101610e23565b5050506001600160a01b038716600090815260cd60205260409020548691506123ce565b905080610eb6576000915050610c12565b6001600160a01b038416600090815260cc60205260408120805483908110610ee057610ee0613249565b600091825260208083206040805160808101825260039094029091018054600f81810b8652600160801b909104900b8484015260018101548483015260020154606084015260ce8054825181850281018501909352808352939550610fb4939192909190859084015b82821015610fa757600084815260209081902060408051608081018252600386029092018054600f81810b8552600160801b909104900b83850152600180820154928401929092526002015460608301529083529092019101610f49565b505050508660cf546123ce565b9050600060ce8281548110610fcb57610fcb613249565b600091825260208083206040805160808101825260039094029091018054600f81810b8652600160801b909104900b9284019290925260018201549083015260020154606082015260cf5490925081908410156110bd57600060ce611031866001613428565b8154811061104157611041613249565b60009182526020918290206040805160808101825260039093029091018054600f81810b8552600160801b909104900b93830193909352600183015490820152600290910154606080830182905286015191925061109f9190613232565b9250836040015181604001516110b59190613232565b9150506110e1565b60608301516110cc9043613232565b91508260400151426110de9190613232565b90505b6040830151821561111e578284606001518a6110fd9190613232565b6111079084613440565b6111119190613475565b61111b9082613428565b90505b6111368660400151826111319190613232565b612468565b86602001516111459190613489565b8651879061115490839061351e565b600f90810b90915287516000910b12905061118557855161117790600f0b611fd5565b975050505050505050610c12565b6000975050505050505050610c12565b306001600160a01b037f00000000000000000000000000000000000000000000000000000000000000001614156111de5760405162461bcd60e51b81526004016108e690613390565b7f00000000000000000000000000000000000000000000000000000000000000006001600160a01b0316611227600080516020613707833981519152546001600160a01b031690565b6001600160a01b03161461124d5760405162461bcd60e51b81526004016108e6906133dc565b61125682611e3b565b61126282826001611e65565b5050565b6000306001600160a01b037f000000000000000000000000000000000000000000000000000000000000000016146113065760405162461bcd60e51b815260206004820152603860248201527f555550535570677261646561626c653a206d757374206e6f742062652063616c60448201527f6c6564207468726f7567682064656c656761746563616c6c000000000000000060648201526084016108e6565b5060008051602061370783398151915290565b611321612ecb565b60ce8263ffffffff16815481106107e7576107e7613249565b6001600160a01b038116600090815260cd6020526040812054806113615750600092915050565b6001600160a01b038316600090815260cc6020526040812080548390811061138b5761138b613249565b60009182526020918290206040805160808101825260039093029091018054600f81810b8552600160801b909104900b938301939093526001830154908201819052600290920154606082015291506113e8906111319042613232565b81602001516113f79190613489565b8151829061140690839061351e565b600f0b90525080516114259061141d9060006124e5565b600f0b611fd5565b949350505050565b6033546001600160a01b031633146114575760405162461bcd60e51b81526004016108e69061325f565b6114616000612502565b565b6000610c12826114f5565b611476612ecb565b60ce805461148690600190613232565b8154811061149657611496613249565b60009182526020918290206040805160808101825260039093029091018054600f81810b8552600160801b909104900b938301939093526001830154908201526002909101546060820152919050565b606060ca8054610726906131e1565b6000438211156115475760405162461bcd60e51b815260206004820152601d60248201527f426c6f636b206e756d62657220697320696e207468652066757475726500000060448201526064016108e6565b60006115d960ce805480602002602001604051908101604052809291908181526020016000905b828210156115cc57600084815260209081902060408051608081018252600386029092018054600f81810b8552600160801b909104900b8385015260018082015492840192909252600201546060830152908352909201910161156e565b505050508460cf546123ce565b9050600060ce82815481106115f0576115f0613249565b60009182526020918290206040805160808101825260039093029091018054600f81810b8552600160801b909104900b9383019390935260018301549082015260029091015460608201819052909150841015611651575060009392505050565b600060cf5483101561172957600060ce61166c856001613428565b8154811061167c5761167c613249565b60009182526020918290206040805160808101825260039093029091018054600f81810b8552600160801b909104900b9383019390935260018301549082015260029091015460608083018290528501519192501461172357826060015181606001516116e99190613232565b836040015182604001516116fd9190613232565b606085015161170c9089613232565b6117169190613440565b6117209190613475565b91505b50611778565b438260600151146117785760608201516117439043613232565b60408301516117529042613232565b60608401516117619088613232565b61176b9190613440565b6117759190613475565b90505b6117918282846040015161178c9190613428565b611d5d565b95945050505050565b6000610c128261133a565b6117ae81612554565b33600090815260d0602090815260409182902082518084019093528054600f0b835260010154908201529091504282116118475760405162461bcd60e51b815260206004820152603460248201527f456e64206d7573742062652067726561746572207468616e2074686520637572604482015273072656e7420626c6f636b2074696d657374616d760641b60648201526084016108e6565b6000816020015111801561185e5750806020015182105b156118c85760405162461bcd60e51b815260206004820152603460248201527f456e64206d7573742062652067726561746572207468616e206f7220657175616044820152731b081d1bc81d1a194818dd5c9c995b9d08195b9960621b60648201526084016108e6565b630784ce006118d74284613232565b11156119345760405162461bcd60e51b815260206004820152602660248201527f456e64206d757374206265206265666f7265206d6178696d756d206c6f636b75604482015265702074696d6560d01b60648201526084016108e6565b600061193f84612468565b90508160000151600f0b81600f0b12156119ba5760405162461bcd60e51b815260206004820152603660248201527f416d6f756e74206d7573742062652067726561746572207468616e206f7220656044820152751c5d585b081d1bc818dd5c9c995b9d08185b5bdd5b9d60521b60648201526084016108e6565b81516000906119cd9061141d908461351e565b604080518082018252600f85900b8152602080820188815233600090815260d0909252929020815181546001600160801b0319166001600160801b0390911617815591516001909201919091559091508115611a3b5760d254611a3b906001600160a01b031633308561256e565b602084015115611aad57835160208086015183518483015160408051600f96870b815294850193909352930b90820152606081019190915242608082015233907f268a3d7ea661e9e2bd617021c94b431919691c0d21aa2eb3ea2b9644a5383d129060a00160405180910390a2611afa565b805160208083015160408051600f9490940b845291830152429082015233907f7006565168b74edd823b144526503320d833b826edea3f82059ca1806a954fc39060600160405180910390a25b611b0533858361208e565b505050505050565b6114616000806125ac565b6000611b246001612981565b90508015611b3c576000805461ff0019166101001790555b611b44612a0e565b611b4c612a3d565b611b55826108bc565b6040805160808101825260008082526020820181815242938301938452436060840190815260ce80546001810182559352925190516001600160801b03908116600160801b0291161760039091027fd36cd1c74ef8d7326d8021b776c18fb5a5724b7f7bc93c2f42e43e10ef27d12a81019190915591517fd36cd1c74ef8d7326d8021b776c18fb5a5724b7f7bc93c2f42e43e10ef27d12b830155517fd36cd1c74ef8d7326d8021b776c18fb5a5724b7f7bc93c2f42e43e10ef27d12c909101558015611262576000805461ff00191690555050565b611c33612ecb565b6001600160a01b038316600090815260cc60205260409020805463ffffffff8416908110611c6357611c63613249565b60009182526020918290206040805160808101825260039093029091018054600f81810b8552600160801b909104900b938301939093526001830154908201526002909101546060820152905092915050565b6033546001600160a01b03163314611ce05760405162461bcd60e51b81526004016108e69061325f565b6001600160a01b038116611d455760405162461bcd60e51b815260206004820152602660248201527f4f776e61626c653a206e6577206f776e657220697320746865207a65726f206160448201526564647265737360d01b60648201526084016108e6565b610c0081612502565b6001600160a01b03163b151590565b6000808390506000611d728260400151612554565b905060005b60ff811015611e2857611d8d62093a8083613428565b9150600085831115611da157859250611db5565b50600082815260d16020526040902054600f0b5b611dc88460400151846111319190613232565b8460200151611dd79190613489565b8451611de3919061351e565b600f0b845282861415611df65750611e28565b808460200151611e06919061356e565b600f0b6020850152506040830182905280611e20816135bd565b915050611d77565b5061179161141d836000015160006124e5565b6033546001600160a01b03163314610c005760405162461bcd60e51b81526004016108e69061325f565b7f4910fdfa16fed3260ed0e7147f7cc6da11a60208b5b9406d12a635614ffd91435460ff1615611e9d57611e9883612a64565b505050565b826001600160a01b03166352d1902d6040518163ffffffff1660e01b8152600401602060405180830381865afa925050508015611ef7575060408051601f3d908101601f19168201909252611ef4918101906135d8565b60015b611f5a5760405162461bcd60e51b815260206004820152602e60248201527f45524331393637557067726164653a206e657720696d706c656d656e7461746960448201526d6f6e206973206e6f74205555505360901b60648201526084016108e6565b6000805160206137078339815191528114611fc95760405162461bcd60e51b815260206004820152602960248201527f45524331393637557067726164653a20756e737570706f727465642070726f786044820152681a58589b195555525160ba1b60648201526084016108e6565b50611e98838383612b00565b6000808212156120275760405162461bcd60e51b815260206004820181905260248201527f53616665436173743a2076616c7565206d75737420626520706f73697469766560448201526064016108e6565b5090565b6040516001600160a01b038316602482015260448101829052611e9890849063a9059cbb60e01b906064015b60408051601f198184030181529190526020810180516001600160e01b03166001600160e01b031990931692909217909152612b25565b612096612ecb565b61209e612ecb565b6000804286602001511180156120bb575060008660000151600f0b135b1561210c576120cd630784ce00612468565b86516120d991906135f1565b600f0b6020808601919091528601516120f790611131904290613232565b84602001516121069190613489565b600f0b84525b428560200151118015612126575060008560000151600f0b135b1561217757612138630784ce00612468565b855161214491906135f1565b600f0b60208085019190915285015161216290611131904290613232565b83602001516121719190613489565b600f0b83525b6001600160a01b038716600090815260cd6020526040902054806121fb576001600160a01b038816600090815260cc60209081526040808320805460018181018355918552938390208951938a01516001600160801b03908116600160801b0294169390931760039094029092019283558701519082015560608601516002909101555b426040850152436060850152612212816001613428565b6001600160a01b038916600090815260cd602090815260408083209390935560cc815282822080546001818101835591845282842089518a8501516001600160801b03908116600160801b029116176003909202019081558885015191810191909155606088015160029091015589810151825260d181529190205490870151600f9190910b9350156122d2578660200151866020015114156122b7578291506122d2565b602080870151600090815260d19091526040902054600f0b91505b6122fc856020015185602001516122e9919061351e565b865186516122f7919061351e565b6125ac565b4287602001511115612369576020850151612317908461356e565b925086602001518660200151141561233b576020840151612338908461351e565b92505b602087810151600090815260d19091526040902080546001600160801b0319166001600160801b0385161790555b42866020015111156123c4578660200151866020015111156123c4576020840151612394908361351e565b602087810151600090815260d19091526040902080546001600160801b0319166001600160801b03831617905591505b5050505050505050565b60008082815b608081101561245b578183106123e95761245b565b600060026123f78486613428565b612402906001613428565b61240c9190613475565b90508688828151811061242157612421613249565b6020026020010151606001511161243a57809350612448565b612445600182613232565b92505b5080612453816135bd565b9150506123d4565b50909150505b9392505050565b600060016001607f1b03198212801590612489575060016001607f1b038213155b6120275760405162461bcd60e51b815260206004820152602760248201527f53616665436173743a2076616c756520646f65736e27742066697420696e20316044820152663238206269747360c81b60648201526084016108e6565b600081600f0b83600f0b12156124fb5781610c0f565b5090919050565b603380546001600160a01b038381166001600160a01b0319831681179093556040519116919082907f8be0079c531659141344cd1fd0a4f28419497f9722a3daafe3b4186f6b6457e090600090a35050565b600062093a806125648184613475565b610c129190613440565b6040516001600160a01b03808516602483015283166044820152606481018290526125a69085906323b872dd60e01b90608401612057565b50505050565b6125b4612ecb565b60cf54156126235760ce60cf54815481106125d1576125d1613249565b60009182526020918290206040805160808101825260039093029091018054600f81810b8552600160801b909104900b9383019390935260018301549082015260029091015460608201529050612647565b50604080516080810182526000808252602082015242918101919091524360608201525b604080516080810182526000808252602082018190528383018051938301939093526060808501519083015291519091904211156126bc57604083015161268e9042613232565b606084015161269d9043613232565b6126af90670de0b6b3a7640000613440565b6126b99190613475565b90505b604083015160006126cc82612554565b905060005b60ff8110156123c4576126e762093a8083613428565b91506000428311156126fb5742925061270f565b50600082815260d16020526040902054600f0b5b600061271e6111318686613232565b886020015161272d9190613489565b9050612749818960000151612742919061351e565b60006124e5565b600f0b885260208801516127629061274290849061356e565b600f0b602089015260408089018590528701519394508493670de0b6b3a76400009061278e9086613232565b6127989088613440565b6127a29190613475565b87606001516127b19190613428565b606089015260cf8054600191906000906127cc908490613428565b9091555050428414156128c25743606089015260208801516127f390612742908c9061356e565b600f0b6020890152875161280c90612742908b9061356e565b600f0b8852505060ce8054600181018255600091909152865160208801516001600160801b03908116600160801b0291161760039091027fd36cd1c74ef8d7326d8021b776c18fb5a5724b7f7bc93c2f42e43e10ef27d12a81019190915560408701517fd36cd1c74ef8d7326d8021b776c18fb5a5724b7f7bc93c2f42e43e10ef27d12b82015560608701517fd36cd1c74ef8d7326d8021b776c18fb5a5724b7f7bc93c2f42e43e10ef27d12c909101556123c4565b60ce8054600181018255600091909152885160208a01516001600160801b03908116600160801b0291161760039091027fd36cd1c74ef8d7326d8021b776c18fb5a5724b7f7bc93c2f42e43e10ef27d12a81019190915560408901517fd36cd1c74ef8d7326d8021b776c18fb5a5724b7f7bc93c2f42e43e10ef27d12b82015560608901517fd36cd1c74ef8d7326d8021b776c18fb5a5724b7f7bc93c2f42e43e10ef27d12c9091015550508080612979906135bd565b9150506126d1565b60008054610100900460ff16156129c8578160ff1660011480156129a45750303b155b6129c05760405162461bcd60e51b81526004016108e69061362f565b506000919050565b60005460ff8084169116106129ef5760405162461bcd60e51b81526004016108e69061362f565b506000805460ff191660ff92909216919091179055600190565b919050565b600054610100900460ff16612a355760405162461bcd60e51b81526004016108e69061367d565b611461612bf7565b600054610100900460ff166114615760405162461bcd60e51b81526004016108e69061367d565b6001600160a01b0381163b612ad15760405162461bcd60e51b815260206004820152602d60248201527f455243313936373a206e657720696d706c656d656e746174696f6e206973206e60448201526c1bdd08184818dbdb9d1c9858dd609a1b60648201526084016108e6565b60008051602061370783398151915280546001600160a01b0319166001600160a01b0392909216919091179055565b612b0983612c27565b600082511180612b165750805b15611e98576125a68383612c67565b6000612b7a826040518060400160405280602081526020017f5361666545524332303a206c6f772d6c6576656c2063616c6c206661696c6564815250856001600160a01b0316612d529092919063ffffffff16565b805190915015611e985780806020019051810190612b9891906136c8565b611e985760405162461bcd60e51b815260206004820152602a60248201527f5361666545524332303a204552433230206f7065726174696f6e20646964206e6044820152691bdd081cdd58d8d9595960b21b60648201526084016108e6565b600054610100900460ff16612c1e5760405162461bcd60e51b81526004016108e69061367d565b61146133612502565b612c3081612a64565b6040516001600160a01b038216907fbc7cd75a20ee27fd9adebab32041f755214dbc6bffa90cc0225b39da2e5c2d3b90600090a250565b60606001600160a01b0383163b612ccf5760405162461bcd60e51b815260206004820152602660248201527f416464726573733a2064656c65676174652063616c6c20746f206e6f6e2d636f6044820152651b9d1c9858dd60d21b60648201526084016108e6565b600080846001600160a01b031684604051612cea91906136ea565b600060405180830381855af49150503d8060008114612d25576040519150601f19603f3d011682016040523d82523d6000602084013e612d2a565b606091505b5091509150611791828260405180606001604052806027815260200161372760279139612d61565b60606114258484600085612d9a565b60608315612d70575081612461565b825115612d805782518084602001fd5b8160405162461bcd60e51b81526004016108e69190612fb5565b606082471015612dfb5760405162461bcd60e51b815260206004820152602660248201527f416464726573733a20696e73756666696369656e742062616c616e636520666f6044820152651c8818d85b1b60d21b60648201526084016108e6565b6001600160a01b0385163b612e525760405162461bcd60e51b815260206004820152601d60248201527f416464726573733a2063616c6c20746f206e6f6e2d636f6e747261637400000060448201526064016108e6565b600080866001600160a01b03168587604051612e6e91906136ea565b60006040518083038185875af1925050503d8060008114612eab576040519150601f19603f3d011682016040523d82523d6000602084013e612eb0565b606091505b5091509150612ec0828286612d61565b979650505050505050565b60405180608001604052806000600f0b81526020016000600f0b815260200160008152602001600081525090565b828054612f05906131e1565b90600052602060002090601f016020900481019282612f275760008555612f6d565b82601f10612f4057805160ff1916838001178555612f6d565b82800160010185558215612f6d579182015b82811115612f6d578251825591602001919060010190612f52565b506120279291505b808211156120275760008155600101612f75565b60005b83811015612fa4578181015183820152602001612f8c565b838111156125a65750506000910152565b6020815260008251806020840152612fd4816040850160208701612f89565b601f01601f19169190910160400192915050565b80356001600160a01b0381168114612a0957600080fd5b60006020828403121561301157600080fd5b610c0f82612fe8565b6000806040838503121561302d57600080fd5b61303683612fe8565b946020939093013593505050565b634e487b7160e01b600052604160045260246000fd5b604051601f8201601f1916810167ffffffffffffffff8111828210171561308357613083613044565b604052919050565b600067ffffffffffffffff8211156130a5576130a5613044565b50601f01601f191660200190565b600080604083850312156130c657600080fd5b6130cf83612fe8565b9150602083013567ffffffffffffffff8111156130eb57600080fd5b8301601f810185136130fc57600080fd5b803561310f61310a8261308b565b61305a565b81815286602083850101111561312457600080fd5b816020840160208301376000602083830101528093505050509250929050565b803563ffffffff81168114612a0957600080fd5b60006020828403121561316a57600080fd5b610c0f82613144565b60006020828403121561318557600080fd5b5035919050565b6000806040838503121561319f57600080fd5b50508035926020909101359150565b600080604083850312156131c157600080fd5b6131ca83612fe8565b91506131d860208401613144565b90509250929050565b600181811c908216806131f557607f821691505b6020821081141561321657634e487b7160e01b600052602260045260246000fd5b50919050565b634e487b7160e01b600052601160045260246000fd5b6000828210156132445761324461321c565b500390565b634e487b7160e01b600052603260045260246000fd5b6020808252818101527f4f776e61626c653a2063616c6c6572206973206e6f7420746865206f776e6572604082015260600190565b6000602082840312156132a657600080fd5b815167ffffffffffffffff8111156132bd57600080fd5b8201601f810184136132ce57600080fd5b80516132dc61310a8261308b565b8181528560208385010111156132f157600080fd5b611791826020830160208601612f89565b60008351613314818460208801612f89565b600160fd1b9083019081528351613332816001840160208801612f89565b01600101949350505050565b60008351613350818460208801612f89565b835190830190613364818360208801612f89565b01949350505050565b60006020828403121561337f57600080fd5b815160ff8116811461246157600080fd5b6020808252602c908201527f46756e6374696f6e206d7573742062652063616c6c6564207468726f7567682060408201526b19195b1959d85d1958d85b1b60a21b606082015260800190565b6020808252602c908201527f46756e6374696f6e206d7573742062652063616c6c6564207468726f7567682060408201526b6163746976652070726f787960a01b606082015260800190565b6000821982111561343b5761343b61321c565b500190565b600081600019048311821515161561345a5761345a61321c565b500290565b634e487b7160e01b600052601260045260246000fd5b6000826134845761348461345f565b500490565b600081600f0b83600f0b60016001607f1b036000821360008413838304851182821616156134b9576134b961321c565b60016001607f1b031960008512828116878305871216156134dc576134dc61321c565b600087129250858205871284841616156134f8576134f861321c565b8585058712818416161561350e5761350e61321c565b5050509290910295945050505050565b600081600f0b83600f0b600081128160016001607f1b0319018312811516156135495761354961321c565b8160016001607f1b030183138116156135645761356461321c565b5090039392505050565b600081600f0b83600f0b600082128260016001607f1b03038213811516156135985761359861321c565b8260016001607f1b03190382128116156135b4576135b461321c565b50019392505050565b60006000198214156135d1576135d161321c565b5060010190565b6000602082840312156135ea57600080fd5b5051919050565b600081600f0b83600f0b806136085761360861345f565b60016001607f1b03198214600019821416156136265761362661321c565b90059392505050565b6020808252602e908201527f496e697469616c697a61626c653a20636f6e747261637420697320616c72656160408201526d191e481a5b9a5d1a585b1a5e995960921b606082015260800190565b6020808252602b908201527f496e697469616c697a61626c653a20636f6e7472616374206973206e6f74206960408201526a6e697469616c697a696e6760a81b606082015260800190565b6000602082840312156136da57600080fd5b8151801515811461246157600080fd5b600082516136fc818460208701612f89565b919091019291505056fe360894a13ba1a3210667c828492db98dca3e2076cc3735a920a3ca505d382bbc416464726573733a206c6f772d6c6576656c2064656c65676174652063616c6c206661696c6564a264697066735822122022b1fe3b3fd6c020ebc3acb16c71dc43076501cece086e04de04ab1a486d728664736f6c634300080b0033496e697469616c697a61626c653a20636f6e747261637420697320616c726561","bytecodeSha1":"da39a3ee5e6b4b0d3255bfef95601890afd80709","compiler":{"evm_version":"istanbul","optimizer":{"enabled":true,"runs":200},"version":"0.8.11+commit.d7f03943"},"contractName":"VoteLockerCurve","language":"Solidity","natspec":{"kind":"dev","methods":{"MAX_LOCK_TIME()":{"notice":"Maximum lock time"},"balanceOf(address)":{"details":"See {ERC20-balanceOf}."},"balanceOfAt(address,uint256)":{"details":"Gets a users votingWeight at a given blockNumber","params":{"_account":"User for which to return the balance","_blockNumber":"Block at which to calculate balance"},"returns":{"_0":"uint256 Balance of user voting power."}},"checkpoint()":{"details":"Public function to trigger global checkpoint."},"checkpoints(address,uint32)":{"details":"Get the `pos`-th checkpoint for `_account`.","returns":{"_0":"Checkpoint memory"}},"constructor":{"custom:oz-upgrades-unsafe-allow":"constructor"},"decimals()":{"details":"Returns the number of decimals used to get its user representation. For example, if `decimals` equals `2`, a balance of `505` tokens should be displayed to a user as `5.05` (`505 / 10 ** 2`). Tokens usually opt for a value of 18, imitating the relationship between Ether and Wei. This is the value {ERC20} uses, unless this function is overridden;","returns":{"_0":"uint8 Token decimals"}},"delegates(address)":{"details":"Get the address `_account` is currently delegating to."},"getLastCheckpoint(address)":{"details":"Get last checkpoint for `_account`.","returns":{"_0":"Checkpoint memory"}},"getLastGlobalCheckpoint()":{"details":"Get the last global checkpoint.","returns":{"_0":"Checkpoint memory"}},"getLockup(address)":{"details":"Gets the current lockup for `_account`"},"getPastTotalSupply(uint256)":{"details":"Retrieve the `totalSupply` at the end of `blockNumber`. This method is required for compatibility with the OpenZeppelin governance ERC20Votes. Requirements: - `_blockNumber` must have been already mined","params":{"_blockNumber":"Block at which to calculate total supply"},"returns":{"_0":"uint256 Total supply at the given block"}},"getPastVotes(address,uint256)":{"details":"Retrieve the number of votes for `_account` at the end of `_blockNumber`. This method is required for compatibility with the OpenZeppelin governance ERC20Votes. Requirements: - `blockNumber` must have been already mined"},"getVotes(address)":{"details":"Gets the current votes balance for `_account` This method is required for compatibility with the OpenZeppelin governance ERC20Votes.","params":{"_account":"Account to get the votes balance for"},"returns":{"_0":"uint256 Current votes balance for `_account`"}},"globalCheckpoints(uint32)":{"details":"Get the `pos`-th global checkpoint.","returns":{"_0":"Checkpoint memory"}},"globalEpoch()":{"notice":"globalEpoch important for fetching previous block combined voting power"},"lockup(uint256,uint256)":{"details":"Deposits staking token and mints new veTokens according to the lockup length","params":{"_amount":"Amount of staking token to deposit","_end":"Lockup end time"}},"lockups(address)":{"notice":"Lockup mapping for each user"},"name()":{"details":"Returns the name of the token.","returns":{"_0":"string memory Token name"}},"numCheckpoints(address)":{"details":"Get the number of checkpoints for `_account`.","returns":{"_0":"uint32"}},"numGlobalCheckpoints()":{"details":"Get number of global checkpoints.","returns":{"_0":"uint256"}},"owner()":{"details":"Returns the address of the current owner."},"proxiableUUID()":{"details":"Implementation of the ERC1822 {proxiableUUID} function. This returns the storage slot used by the implementation. It is used to validate that the this implementation remains valid after an upgrade. IMPORTANT: A proxy pointing at a proxiable contract should not be considered proxiable itself, because this risks bricking a proxy that upgrades to it, by delegating to itself until out of gas. Thus it is critical that this function revert if invoked through a proxy. This is guaranteed by the `notDelegated` modifier."},"renounceOwnership()":{"details":"Leaves the contract without owner. It will not be possible to call `onlyOwner` functions anymore. Can only be called by the current owner. NOTE: Renouncing ownership will leave the contract without an owner, thereby removing any functionality that is only available to the owner."},"setStakingToken(address)":{"notice":"Sets the staking token","params":{"_stakingToken":"Token that is locked up in return for vote escrowed token"}},"symbol()":{"details":"Returns the symbol of the token, usually a shorter version of the name.","returns":{"_0":"string memory Token symbol"}},"totalSupply()":{"details":"See {ERC20-totalSupply}."},"totalSupplyAt(uint256)":{"details":"Calculates total supply of votingWeight at a given blockNumber","params":{"_blockNumber":"Block number at which to calculate total supply"},"returns":{"_0":"totalSupply of voting token weight at the given blockNumber"}},"transferOwnership(address)":{"details":"Transfers ownership of the contract to a new account (`newOwner`). Can only be called by the current owner."},"upgradeTo(address)":{"details":"Upgrade the implementation of the proxy to `newImplementation`. Calls {_authorizeUpgrade}. Emits an {Upgraded} event."},"upgradeToAndCall(address,bytes)":{"details":"Upgrade the implementation of the proxy to `newImplementation`, and subsequently execute the function call encoded in `data`. Calls {_authorizeUpgrade}. Emits an {Upgraded} event."},"userEpoch(address)":{"notice":"userEpoch important for fetching previous block per user voting power"},"withdraw()":{"details":"Withdraw all tokens from an expired lockup."}},"version":1},"opcodes":"PUSH1 0x80 PUSH1 0x40 MSTORE PUSH1 0x4 CALLDATASIZE LT PUSH2 0x1F9 JUMPI PUSH1 0x0 CALLDATALOAD PUSH1 0xE0 SHR DUP1 PUSH4 0x715018A6 GT PUSH2 0x10D JUMPI DUP1 PUSH4 0xC2C4C5C1 GT PUSH2 0xA0 JUMPI DUP1 PUSH4 0xCB03623A GT PUSH2 0x6F JUMPI DUP1 PUSH4 0xCB03623A EQ PUSH2 0x64F JUMPI DUP1 PUSH4 0xF1127ED8 EQ PUSH2 0x67C JUMPI DUP1 PUSH4 0xF2FDE38B EQ PUSH2 0x69C JUMPI DUP1 PUSH4 0xF52A36F7 EQ PUSH2 0x6BC JUMPI DUP1 PUSH4 0xFA78668F EQ PUSH2 0x6FF JUMPI PUSH1 0x0 DUP1 REVERT JUMPDEST DUP1 PUSH4 0xC2C4C5C1 EQ PUSH2 0x5B0 JUMPI DUP1 PUSH4 0xC4D66DE8 EQ PUSH2 0x5C5 JUMPI DUP1 PUSH4 0xC5E687D4 EQ PUSH2 0x5E5 JUMPI DUP1 PUSH4 0xC7B6D432 EQ PUSH2 0x5FA JUMPI PUSH1 0x0 DUP1 REVERT JUMPDEST DUP1 PUSH4 0x95D89B41 GT PUSH2 0xDC JUMPI DUP1 PUSH4 0x95D89B41 EQ PUSH2 0x53B JUMPI DUP1 PUSH4 0x981B24D0 EQ PUSH2 0x550 JUMPI DUP1 PUSH4 0x9AB24EB0 EQ PUSH2 0x570 JUMPI DUP1 PUSH4 0xA8BB6696 EQ PUSH2 0x590 JUMPI PUSH1 0x0 DUP1 REVERT JUMPDEST DUP1 PUSH4 0x715018A6 EQ PUSH2 0x4D3 JUMPI DUP1 PUSH4 0x8DA5CB5B EQ PUSH2 0x4E8 JUMPI DUP1 PUSH4 0x8E539E8C EQ PUSH2 0x506 JUMPI DUP1 PUSH4 0x95B3AA19 EQ PUSH2 0x526 JUMPI PUSH1 0x0 DUP1 REVERT JUMPDEST DUP1 PUSH4 0x4EE2CD7E GT PUSH2 0x190 JUMPI DUP1 PUSH4 0x587CDE1E GT PUSH2 0x15F JUMPI DUP1 PUSH4 0x587CDE1E EQ PUSH2 0x3A1 JUMPI DUP1 PUSH4 0x67AFD1CC EQ PUSH2 0x3DA JUMPI DUP1 PUSH4 0x6909221D EQ PUSH2 0x45D JUMPI DUP1 PUSH4 0x6FCFFF45 EQ PUSH2 0x47D JUMPI DUP1 PUSH4 0x70A08231 EQ PUSH2 0x4B3 JUMPI PUSH1 0x0 DUP1 REVERT JUMPDEST DUP1 PUSH4 0x4EE2CD7E EQ PUSH2 0x343 JUMPI DUP1 PUSH4 0x4F1EF286 EQ PUSH2 0x363 JUMPI DUP1 PUSH4 0x52D1902D EQ PUSH2 0x376 JUMPI DUP1 PUSH4 0x5719098B EQ PUSH2 0x38B JUMPI PUSH1 0x0 DUP1 REVERT JUMPDEST DUP1 PUSH4 0x313CE567 GT PUSH2 0x1CC JUMPI DUP1 PUSH4 0x313CE567 EQ PUSH2 0x2CC JUMPI DUP1 PUSH4 0x3659CFE6 EQ PUSH2 0x2EE JUMPI DUP1 PUSH4 0x3A46B1A8 EQ PUSH2 0x30E JUMPI DUP1 PUSH4 0x3CCFD60B EQ PUSH2 0x32E JUMPI PUSH1 0x0 DUP1 REVERT JUMPDEST DUP1 PUSH4 0x6FDDE03 EQ PUSH2 0x1FE JUMPI DUP1 PUSH4 0x11CDE220 EQ PUSH2 0x229 JUMPI DUP1 PUSH4 0x18160DDD EQ PUSH2 0x287 JUMPI DUP1 PUSH4 0x1E9B12EF EQ PUSH2 0x2AA JUMPI JUMPDEST PUSH1 0x0 DUP1 REVERT JUMPDEST CALLVALUE DUP1 ISZERO PUSH2 0x20A JUMPI PUSH1 0x0 DUP1 REVERT JUMPDEST POP PUSH2 0x213 PUSH2 0x717 JUMP JUMPDEST PUSH1 0x40 MLOAD PUSH2 0x220 SWAP2 SWAP1 PUSH2 0x2FB5 JUMP JUMPDEST PUSH1 0x40 MLOAD DUP1 SWAP2 SUB SWAP1 RETURN JUMPDEST CALLVALUE DUP1 ISZERO PUSH2 0x235 JUMPI PUSH1 0x0 DUP1 REVERT JUMPDEST POP PUSH2 0x249 PUSH2 0x244 CALLDATASIZE PUSH1 0x4 PUSH2 0x2FFF JUMP JUMPDEST PUSH2 0x7A9 JUMP JUMPDEST PUSH1 0x40 MLOAD PUSH2 0x220 SWAP2 SWAP1 PUSH1 0x0 PUSH1 0x80 DUP3 ADD SWAP1 POP DUP3 MLOAD PUSH1 0xF SIGNEXTEND DUP3 MSTORE PUSH1 0x20 DUP4 ADD MLOAD PUSH1 0xF SIGNEXTEND PUSH1 0x20 DUP4 ADD MSTORE PUSH1 0x40 DUP4 ADD MLOAD PUSH1 0x40 DUP4 ADD MSTORE PUSH1 0x60 DUP4 ADD MLOAD PUSH1 0x60 DUP4 ADD MSTORE SWAP3 SWAP2 POP POP JUMP JUMPDEST CALLVALUE DUP1 ISZERO PUSH2 0x293 JUMPI PUSH1 0x0 DUP1 REVERT JUMPDEST POP PUSH2 0x29C PUSH2 0x838 JUMP JUMPDEST PUSH1 0x40 MLOAD SWAP1 DUP2 MSTORE PUSH1 0x20 ADD PUSH2 0x220 JUMP JUMPDEST CALLVALUE DUP1 ISZERO PUSH2 0x2B6 JUMPI PUSH1 0x0 DUP1 REVERT JUMPDEST POP PUSH2 0x2CA PUSH2 0x2C5 CALLDATASIZE PUSH1 0x4 PUSH2 0x2FFF JUMP JUMPDEST PUSH2 0x8BC JUMP JUMPDEST STOP JUMPDEST CALLVALUE DUP1 ISZERO PUSH2 0x2D8 JUMPI PUSH1 0x0 DUP1 REVERT JUMPDEST POP PUSH1 0xCB SLOAD PUSH1 0x40 MLOAD PUSH1 0xFF SWAP1 SWAP2 AND DUP2 MSTORE PUSH1 0x20 ADD PUSH2 0x220 JUMP JUMPDEST CALLVALUE DUP1 ISZERO PUSH2 0x2FA JUMPI PUSH1 0x0 DUP1 REVERT JUMPDEST POP PUSH2 0x2CA PUSH2 0x309 CALLDATASIZE PUSH1 0x4 PUSH2 0x2FFF JUMP JUMPDEST PUSH2 0xB23 JUMP JUMPDEST CALLVALUE DUP1 ISZERO PUSH2 0x31A JUMPI PUSH1 0x0 DUP1 REVERT JUMPDEST POP PUSH2 0x29C PUSH2 0x329 CALLDATASIZE PUSH1 0x4 PUSH2 0x301A JUMP JUMPDEST PUSH2 0xC03 JUMP JUMPDEST CALLVALUE DUP1 ISZERO PUSH2 0x33A JUMPI PUSH1 0x0 DUP1 REVERT JUMPDEST POP PUSH2 0x2CA PUSH2 0xC18 JUMP JUMPDEST CALLVALUE DUP1 ISZERO PUSH2 0x34F JUMPI PUSH1 0x0 DUP1 REVERT JUMPDEST POP PUSH2 0x29C PUSH2 0x35E CALLDATASIZE PUSH1 0x4 PUSH2 0x301A JUMP JUMPDEST PUSH2 0xD9C JUMP JUMPDEST PUSH2 0x2CA PUSH2 0x371 CALLDATASIZE PUSH1 0x4 PUSH2 0x30B3 JUMP JUMPDEST PUSH2 0x1195 JUMP JUMPDEST CALLVALUE DUP1 ISZERO PUSH2 0x382 JUMPI PUSH1 0x0 DUP1 REVERT JUMPDEST POP PUSH2 0x29C PUSH2 0x1266 JUMP JUMPDEST CALLVALUE DUP1 ISZERO PUSH2 0x397 JUMPI PUSH1 0x0 DUP1 REVERT JUMPDEST POP PUSH2 0x29C PUSH1 0xCF SLOAD DUP2 JUMP JUMPDEST CALLVALUE DUP1 ISZERO PUSH2 0x3AD JUMPI PUSH1 0x0 DUP1 REVERT JUMPDEST POP PUSH2 0x3C2 PUSH2 0x3BC CALLDATASIZE PUSH1 0x4 PUSH2 0x2FFF JUMP JUMPDEST POP PUSH1 0x0 SWAP1 JUMP JUMPDEST PUSH1 0x40 MLOAD PUSH1 0x1 PUSH1 0x1 PUSH1 0xA0 SHL SUB SWAP1 SWAP2 AND DUP2 MSTORE PUSH1 0x20 ADD PUSH2 0x220 JUMP JUMPDEST CALLVALUE DUP1 ISZERO PUSH2 0x3E6 JUMPI PUSH1 0x0 DUP1 REVERT JUMPDEST POP PUSH2 0x43F PUSH2 0x3F5 CALLDATASIZE PUSH1 0x4 PUSH2 0x2FFF JUMP JUMPDEST PUSH1 0x40 DUP1 MLOAD DUP1 DUP3 ADD SWAP1 SWAP2 MSTORE PUSH1 0x0 DUP1 DUP3 MSTORE PUSH1 0x20 DUP3 ADD MSTORE POP PUSH1 0x1 PUSH1 0x1 PUSH1 0xA0 SHL SUB AND PUSH1 0x0 SWAP1 DUP2 MSTORE PUSH1 0xD0 PUSH1 0x20 SWAP1 DUP2 MSTORE PUSH1 0x40 SWAP2 DUP3 SWAP1 KECCAK256 DUP3 MLOAD DUP1 DUP5 ADD SWAP1 SWAP4 MSTORE DUP1 SLOAD PUSH1 0xF SIGNEXTEND DUP4 MSTORE PUSH1 0x1 ADD SLOAD SWAP1 DUP3 ADD MSTORE SWAP1 JUMP JUMPDEST PUSH1 0x40 DUP1 MLOAD DUP3 MLOAD PUSH1 0xF SIGNEXTEND DUP2 MSTORE PUSH1 0x20 SWAP3 DUP4 ADD MLOAD SWAP3 DUP2 ADD SWAP3 SWAP1 SWAP3 MSTORE ADD PUSH2 0x220 JUMP JUMPDEST CALLVALUE DUP1 ISZERO PUSH2 0x469 JUMPI PUSH1 0x0 DUP1 REVERT JUMPDEST POP PUSH2 0x249 PUSH2 0x478 CALLDATASIZE PUSH1 0x4 PUSH2 0x3158 JUMP JUMPDEST PUSH2 0x1319 JUMP JUMPDEST CALLVALUE DUP1 ISZERO PUSH2 0x489 JUMPI PUSH1 0x0 DUP1 REVERT JUMPDEST POP PUSH2 0x29C PUSH2 0x498 CALLDATASIZE PUSH1 0x4 PUSH2 0x2FFF JUMP JUMPDEST PUSH1 0x1 PUSH1 0x1 PUSH1 0xA0 SHL SUB AND PUSH1 0x0 SWAP1 DUP2 MSTORE PUSH1 0xCC PUSH1 0x20 MSTORE PUSH1 0x40 SWAP1 KECCAK256 SLOAD SWAP1 JUMP JUMPDEST CALLVALUE DUP1 ISZERO PUSH2 0x4BF JUMPI PUSH1 0x0 DUP1 REVERT JUMPDEST POP PUSH2 0x29C PUSH2 0x4CE CALLDATASIZE PUSH1 0x4 PUSH2 0x2FFF JUMP JUMPDEST PUSH2 0x133A JUMP JUMPDEST CALLVALUE DUP1 ISZERO PUSH2 0x4DF JUMPI PUSH1 0x0 DUP1 REVERT JUMPDEST POP PUSH2 0x2CA PUSH2 0x142D JUMP JUMPDEST CALLVALUE DUP1 ISZERO PUSH2 0x4F4 JUMPI PUSH1 0x0 DUP1 REVERT JUMPDEST POP PUSH1 0x33 SLOAD PUSH1 0x1 PUSH1 0x1 PUSH1 0xA0 SHL SUB AND PUSH2 0x3C2 JUMP JUMPDEST CALLVALUE DUP1 ISZERO PUSH2 0x512 JUMPI PUSH1 0x0 DUP1 REVERT JUMPDEST POP PUSH2 0x29C PUSH2 0x521 CALLDATASIZE PUSH1 0x4 PUSH2 0x3173 JUMP JUMPDEST PUSH2 0x1463 JUMP JUMPDEST CALLVALUE DUP1 ISZERO PUSH2 0x532 JUMPI PUSH1 0x0 DUP1 REVERT JUMPDEST POP PUSH2 0x249 PUSH2 0x146E JUMP JUMPDEST CALLVALUE DUP1 ISZERO PUSH2 0x547 JUMPI PUSH1 0x0 DUP1 REVERT JUMPDEST POP PUSH2 0x213 PUSH2 0x14E6 JUMP JUMPDEST CALLVALUE DUP1 ISZERO PUSH2 0x55C JUMPI PUSH1 0x0 DUP1 REVERT JUMPDEST POP PUSH2 0x29C PUSH2 0x56B CALLDATASIZE PUSH1 0x4 PUSH2 0x3173 JUMP JUMPDEST PUSH2 0x14F5 JUMP JUMPDEST CALLVALUE DUP1 ISZERO PUSH2 0x57C JUMPI PUSH1 0x0 DUP1 REVERT JUMPDEST POP PUSH2 0x29C PUSH2 0x58B CALLDATASIZE PUSH1 0x4 PUSH2 0x2FFF JUMP JUMPDEST PUSH2 0x179A JUMP JUMPDEST CALLVALUE DUP1 ISZERO PUSH2 0x59C JUMPI PUSH1 0x0 DUP1 REVERT JUMPDEST POP PUSH2 0x2CA PUSH2 0x5AB CALLDATASIZE PUSH1 0x4 PUSH2 0x318C JUMP JUMPDEST PUSH2 0x17A5 JUMP JUMPDEST CALLVALUE DUP1 ISZERO PUSH2 0x5BC JUMPI PUSH1 0x0 DUP1 REVERT JUMPDEST POP PUSH2 0x2CA PUSH2 0x1B0D JUMP JUMPDEST CALLVALUE DUP1 ISZERO PUSH2 0x5D1 JUMPI PUSH1 0x0 DUP1 REVERT JUMPDEST POP PUSH2 0x2CA PUSH2 0x5E0 CALLDATASIZE PUSH1 0x4 PUSH2 0x2FFF JUMP JUMPDEST PUSH2 0x1B18 JUMP JUMPDEST CALLVALUE DUP1 ISZERO PUSH2 0x5F1 JUMPI PUSH1 0x0 DUP1 REVERT JUMPDEST POP PUSH1 0xCE SLOAD PUSH2 0x29C JUMP JUMPDEST CALLVALUE DUP1 ISZERO PUSH2 0x606 JUMPI PUSH1 0x0 DUP1 REVERT JUMPDEST POP PUSH2 0x635 PUSH2 0x615 CALLDATASIZE PUSH1 0x4 PUSH2 0x2FFF JUMP JUMPDEST PUSH1 0xD0 PUSH1 0x20 MSTORE PUSH1 0x0 SWAP1 DUP2 MSTORE PUSH1 0x40 SWAP1 KECCAK256 DUP1 SLOAD PUSH1 0x1 SWAP1 SWAP2 ADD SLOAD PUSH1 0xF SWAP2 SWAP1 SWAP2 SIGNEXTEND SWAP1 DUP3 JUMP JUMPDEST PUSH1 0x40 DUP1 MLOAD PUSH1 0xF SWAP4 SWAP1 SWAP4 SIGNEXTEND DUP4 MSTORE PUSH1 0x20 DUP4 ADD SWAP2 SWAP1 SWAP2 MSTORE ADD PUSH2 0x220 JUMP JUMPDEST CALLVALUE DUP1 ISZERO PUSH2 0x65B JUMPI PUSH1 0x0 DUP1 REVERT JUMPDEST POP PUSH2 0x29C PUSH2 0x66A CALLDATASIZE PUSH1 0x4 PUSH2 0x2FFF JUMP JUMPDEST PUSH1 0xCD PUSH1 0x20 MSTORE PUSH1 0x0 SWAP1 DUP2 MSTORE PUSH1 0x40 SWAP1 KECCAK256 SLOAD DUP2 JUMP JUMPDEST CALLVALUE DUP1 ISZERO PUSH2 0x688 JUMPI PUSH1 0x0 DUP1 REVERT JUMPDEST POP PUSH2 0x249 PUSH2 0x697 CALLDATASIZE PUSH1 0x4 PUSH2 0x31AE JUMP JUMPDEST PUSH2 0x1C2B JUMP JUMPDEST CALLVALUE DUP1 ISZERO PUSH2 0x6A8 JUMPI PUSH1 0x0 DUP1 REVERT JUMPDEST POP PUSH2 0x2CA PUSH2 0x6B7 CALLDATASIZE PUSH1 0x4 PUSH2 0x2FFF JUMP JUMPDEST PUSH2 0x1CB6 JUMP JUMPDEST CALLVALUE DUP1 ISZERO PUSH2 0x6C8 JUMPI PUSH1 0x0 DUP1 REVERT JUMPDEST POP PUSH2 0x6EC PUSH2 0x6D7 CALLDATASIZE PUSH1 0x4 PUSH2 0x3173 JUMP JUMPDEST PUSH1 0xD1 PUSH1 0x20 MSTORE PUSH1 0x0 SWAP1 DUP2 MSTORE PUSH1 0x40 SWAP1 KECCAK256 SLOAD PUSH1 0xF SIGNEXTEND DUP2 JUMP JUMPDEST PUSH1 0x40 MLOAD PUSH1 0xF SWAP2 SWAP1 SWAP2 SIGNEXTEND DUP2 MSTORE PUSH1 0x20 ADD PUSH2 0x220 JUMP JUMPDEST CALLVALUE DUP1 ISZERO PUSH2 0x70B JUMPI PUSH1 0x0 DUP1 REVERT JUMPDEST POP PUSH2 0x29C PUSH4 0x784CE00 DUP2 JUMP JUMPDEST PUSH1 0x60 PUSH1 0xC9 DUP1 SLOAD PUSH2 0x726 SWAP1 PUSH2 0x31E1 JUMP JUMPDEST DUP1 PUSH1 0x1F ADD PUSH1 0x20 DUP1 SWAP2 DIV MUL PUSH1 0x20 ADD PUSH1 0x40 MLOAD SWAP1 DUP2 ADD PUSH1 0x40 MSTORE DUP1 SWAP3 SWAP2 SWAP1 DUP2 DUP2 MSTORE PUSH1 0x20 ADD DUP3 DUP1 SLOAD PUSH2 0x752 SWAP1 PUSH2 0x31E1 JUMP JUMPDEST DUP1 ISZERO PUSH2 0x79F JUMPI DUP1 PUSH1 0x1F LT PUSH2 0x774 JUMPI PUSH2 0x100 DUP1 DUP4 SLOAD DIV MUL DUP4 MSTORE SWAP2 PUSH1 0x20 ADD SWAP2 PUSH2 0x79F JUMP JUMPDEST DUP3 ADD SWAP2 SWAP1 PUSH1 0x0 MSTORE PUSH1 0x20 PUSH1 0x0 KECCAK256 SWAP1 JUMPDEST DUP2 SLOAD DUP2 MSTORE SWAP1 PUSH1 0x1 ADD SWAP1 PUSH1 0x20 ADD DUP1 DUP4 GT PUSH2 0x782 JUMPI DUP3 SWAP1 SUB PUSH1 0x1F AND DUP3 ADD SWAP2 JUMPDEST POP POP POP POP POP SWAP1 POP SWAP1 JUMP JUMPDEST PUSH2 0x7B1 PUSH2 0x2ECB JUMP JUMPDEST PUSH1 0x1 PUSH1 0x1 PUSH1 0xA0 SHL SUB DUP3 AND PUSH1 0x0 SWAP1 DUP2 MSTORE PUSH1 0xCC PUSH1 0x20 MSTORE PUSH1 0x40 SWAP1 KECCAK256 DUP1 SLOAD PUSH2 0x7D7 SWAP1 PUSH1 0x1 SWAP1 PUSH2 0x3232 JUMP JUMPDEST DUP2 SLOAD DUP2 LT PUSH2 0x7E7 JUMPI PUSH2 0x7E7 PUSH2 0x3249 JUMP JUMPDEST PUSH1 0x0 SWAP2 DUP3 MSTORE PUSH1 0x20 SWAP2 DUP3 SWAP1 KECCAK256 PUSH1 0x40 DUP1 MLOAD PUSH1 0x80 DUP2 ADD DUP3 MSTORE PUSH1 0x3 SWAP1 SWAP4 MUL SWAP1 SWAP2 ADD DUP1 SLOAD PUSH1 0xF DUP2 DUP2 SIGNEXTEND DUP6 MSTORE PUSH1 0x1 PUSH1 0x80 SHL SWAP1 SWAP2 DIV SWAP1 SIGNEXTEND SWAP4 DUP4 ADD SWAP4 SWAP1 SWAP4 MSTORE PUSH1 0x1 DUP4 ADD SLOAD SWAP1 DUP3 ADD MSTORE PUSH1 0x2 SWAP1 SWAP2 ADD SLOAD PUSH1 0x60 DUP3 ADD MSTORE SWAP3 SWAP2 POP POP JUMP JUMPDEST PUSH1 0xCE SLOAD PUSH1 0x0 SWAP1 PUSH2 0x848 JUMPI POP PUSH1 0x0 SWAP1 JUMP JUMPDEST PUSH1 0x0 PUSH1 0xCE PUSH1 0xCF SLOAD DUP2 SLOAD DUP2 LT PUSH2 0x85F JUMPI PUSH2 0x85F PUSH2 0x3249 JUMP JUMPDEST PUSH1 0x0 SWAP2 DUP3 MSTORE PUSH1 0x20 SWAP2 DUP3 SWAP1 KECCAK256 PUSH1 0x40 DUP1 MLOAD PUSH1 0x80 DUP2 ADD DUP3 MSTORE PUSH1 0x3 SWAP1 SWAP4 MUL SWAP1 SWAP2 ADD DUP1 SLOAD PUSH1 0xF DUP2 DUP2 SIGNEXTEND DUP6 MSTORE PUSH1 0x1 PUSH1 0x80 SHL SWAP1 SWAP2 DIV SWAP1 SIGNEXTEND SWAP4 DUP4 ADD SWAP4 SWAP1 SWAP4 MSTORE PUSH1 0x1 DUP4 ADD SLOAD SWAP1 DUP3 ADD MSTORE PUSH1 0x2 SWAP1 SWAP2 ADD SLOAD PUSH1 0x60 DUP3 ADD MSTORE SWAP1 POP PUSH2 0x8B6 DUP2 TIMESTAMP PUSH2 0x1D5D JUMP JUMPDEST SWAP2 POP POP SWAP1 JUMP JUMPDEST PUSH1 0x33 SLOAD PUSH1 0x1 PUSH1 0x1 PUSH1 0xA0 SHL SUB AND CALLER EQ PUSH2 0x8EF JUMPI PUSH1 0x40 MLOAD PUSH3 0x461BCD PUSH1 0xE5 SHL DUP2 MSTORE PUSH1 0x4 ADD PUSH2 0x8E6 SWAP1 PUSH2 0x325F JUMP JUMPDEST PUSH1 0x40 MLOAD DUP1 SWAP2 SUB SWAP1 REVERT JUMPDEST PUSH1 0xD2 DUP1 SLOAD PUSH1 0x1 PUSH1 0x1 PUSH1 0xA0 SHL SUB NOT AND PUSH1 0x1 PUSH1 0x1 PUSH1 0xA0 SHL SUB DUP4 AND SWAP1 DUP2 OR SWAP1 SWAP2 SSTORE PUSH1 0x40 DUP1 MLOAD DUP1 DUP3 ADD DUP3 MSTORE PUSH1 0xD DUP2 MSTORE PUSH13 0x159BDD1948115CD8DC9BDDD959 PUSH1 0x9A SHL PUSH1 0x20 DUP3 ADD MSTORE DUP2 MLOAD PUSH4 0x6FDDE03 PUSH1 0xE0 SHL DUP2 MSTORE SWAP2 MLOAD SWAP1 SWAP3 SWAP2 PUSH4 0x6FDDE03 SWAP2 PUSH1 0x4 DUP1 DUP4 ADD SWAP3 PUSH1 0x0 SWAP3 SWAP2 SWAP1 DUP3 SWAP1 SUB ADD DUP2 DUP7 GAS STATICCALL ISZERO DUP1 ISZERO PUSH2 0x96B JUMPI RETURNDATASIZE PUSH1 0x0 DUP1 RETURNDATACOPY RETURNDATASIZE PUSH1 0x0 REVERT JUMPDEST POP POP POP POP PUSH1 0x40 MLOAD RETURNDATASIZE PUSH1 0x0 DUP3 RETURNDATACOPY PUSH1 0x1F RETURNDATASIZE SWAP1 DUP2 ADD PUSH1 0x1F NOT AND DUP3 ADD PUSH1 0x40 MSTORE PUSH2 0x993 SWAP2 SWAP1 DUP2 ADD SWAP1 PUSH2 0x3294 JUMP JUMPDEST PUSH1 0x40 MLOAD PUSH1 0x20 ADD PUSH2 0x9A4 SWAP3 SWAP2 SWAP1 PUSH2 0x3302 JUMP JUMPDEST PUSH1 0x40 MLOAD PUSH1 0x20 DUP2 DUP4 SUB SUB DUP2 MSTORE SWAP1 PUSH1 0x40 MSTORE PUSH1 0xC9 SWAP1 DUP1 MLOAD SWAP1 PUSH1 0x20 ADD SWAP1 PUSH2 0x9C8 SWAP3 SWAP2 SWAP1 PUSH2 0x2EF9 JUMP JUMPDEST POP PUSH1 0x40 MLOAD DUP1 PUSH1 0x40 ADD PUSH1 0x40 MSTORE DUP1 PUSH1 0x2 DUP2 MSTORE PUSH1 0x20 ADD PUSH2 0x7665 PUSH1 0xF0 SHL DUP2 MSTORE POP PUSH1 0xD2 PUSH1 0x0 SWAP1 SLOAD SWAP1 PUSH2 0x100 EXP SWAP1 DIV PUSH1 0x1 PUSH1 0x1 PUSH1 0xA0 SHL SUB AND PUSH1 0x1 PUSH1 0x1 PUSH1 0xA0 SHL SUB AND PUSH4 0x95D89B41 PUSH1 0x40 MLOAD DUP2 PUSH4 0xFFFFFFFF AND PUSH1 0xE0 SHL DUP2 MSTORE PUSH1 0x4 ADD PUSH1 0x0 PUSH1 0x40 MLOAD DUP1 DUP4 SUB DUP2 DUP7 GAS STATICCALL ISZERO DUP1 ISZERO PUSH2 0xA37 JUMPI RETURNDATASIZE PUSH1 0x0 DUP1 RETURNDATACOPY RETURNDATASIZE PUSH1 0x0 REVERT JUMPDEST POP POP POP POP PUSH1 0x40 MLOAD RETURNDATASIZE PUSH1 0x0 DUP3 RETURNDATACOPY PUSH1 0x1F RETURNDATASIZE SWAP1 DUP2 ADD PUSH1 0x1F NOT AND DUP3 ADD PUSH1 0x40 MSTORE PUSH2 0xA5F SWAP2 SWAP1 DUP2 ADD SWAP1 PUSH2 0x3294 JUMP JUMPDEST PUSH1 0x40 MLOAD PUSH1 0x20 ADD PUSH2 0xA70 SWAP3 SWAP2 SWAP1 PUSH2 0x333E JUMP JUMPDEST PUSH1 0x40 MLOAD PUSH1 0x20 DUP2 DUP4 SUB SUB DUP2 MSTORE SWAP1 PUSH1 0x40 MSTORE PUSH1 0xCA SWAP1 DUP1 MLOAD SWAP1 PUSH1 0x20 ADD SWAP1 PUSH2 0xA94 SWAP3 SWAP2 SWAP1 PUSH2 0x2EF9 JUMP JUMPDEST POP PUSH1 0xD2 PUSH1 0x0 SWAP1 SLOAD SWAP1 PUSH2 0x100 EXP SWAP1 DIV PUSH1 0x1 PUSH1 0x1 PUSH1 0xA0 SHL SUB AND PUSH1 0x1 PUSH1 0x1 PUSH1 0xA0 SHL SUB AND PUSH4 0x313CE567 PUSH1 0x40 MLOAD DUP2 PUSH4 0xFFFFFFFF AND PUSH1 0xE0 SHL DUP2 MSTORE PUSH1 0x4 ADD PUSH1 0x20 PUSH1 0x40 MLOAD DUP1 DUP4 SUB DUP2 DUP7 GAS STATICCALL ISZERO DUP1 ISZERO PUSH2 0xAE8 JUMPI RETURNDATASIZE PUSH1 0x0 DUP1 RETURNDATACOPY RETURNDATASIZE PUSH1 0x0 REVERT JUMPDEST POP POP POP POP PUSH1 0x40 MLOAD RETURNDATASIZE PUSH1 0x1F NOT PUSH1 0x1F DUP3 ADD AND DUP3 ADD DUP1 PUSH1 0x40 MSTORE POP DUP2 ADD SWAP1 PUSH2 0xB0C SWAP2 SWAP1 PUSH2 0x336D JUMP JUMPDEST PUSH1 0xCB DUP1 SLOAD PUSH1 0xFF NOT AND PUSH1 0xFF SWAP3 SWAP1 SWAP3 AND SWAP2 SWAP1 SWAP2 OR SWAP1 SSTORE POP JUMP JUMPDEST ADDRESS PUSH1 0x1 PUSH1 0x1 PUSH1 0xA0 SHL SUB PUSH32 0x0 AND EQ ISZERO PUSH2 0xB6C JUMPI PUSH1 0x40 MLOAD PUSH3 0x461BCD PUSH1 0xE5 SHL DUP2 MSTORE PUSH1 0x4 ADD PUSH2 0x8E6 SWAP1 PUSH2 0x3390 JUMP JUMPDEST PUSH32 0x0 PUSH1 0x1 PUSH1 0x1 PUSH1 0xA0 SHL SUB AND PUSH2 0xBB5 PUSH1 0x0 DUP1 MLOAD PUSH1 0x20 PUSH2 0x3707 DUP4 CODECOPY DUP2 MLOAD SWAP2 MSTORE SLOAD PUSH1 0x1 PUSH1 0x1 PUSH1 0xA0 SHL SUB AND SWAP1 JUMP JUMPDEST PUSH1 0x1 PUSH1 0x1 PUSH1 0xA0 SHL SUB AND EQ PUSH2 0xBDB JUMPI PUSH1 0x40 MLOAD PUSH3 0x461BCD PUSH1 0xE5 SHL DUP2 MSTORE PUSH1 0x4 ADD PUSH2 0x8E6 SWAP1 PUSH2 0x33DC JUMP JUMPDEST PUSH2 0xBE4 DUP2 PUSH2 0x1E3B JUMP JUMPDEST PUSH1 0x40 DUP1 MLOAD PUSH1 0x0 DUP1 DUP3 MSTORE PUSH1 0x20 DUP3 ADD SWAP1 SWAP3 MSTORE PUSH2 0xC00 SWAP2 DUP4 SWAP2 SWAP1 PUSH2 0x1E65 JUMP JUMPDEST POP JUMP JUMPDEST PUSH1 0x0 PUSH2 0xC0F DUP4 DUP4 PUSH2 0xD9C JUMP JUMPDEST SWAP1 POP JUMPDEST SWAP3 SWAP2 POP POP JUMP JUMPDEST PUSH1 0x40 DUP1 MLOAD DUP1 DUP3 ADD DUP3 MSTORE CALLER PUSH1 0x0 DUP2 DUP2 MSTORE PUSH1 0xD0 PUSH1 0x20 DUP2 DUP2 MSTORE SWAP5 DUP3 KECCAK256 DUP1 SLOAD PUSH1 0xF SIGNEXTEND DUP6 MSTORE SWAP3 SWAP1 SWAP2 MSTORE DUP4 MSTORE PUSH1 0x1 ADD SLOAD SWAP2 DUP2 ADD DUP3 SWAP1 MSTORE SWAP1 TIMESTAMP LT ISZERO PUSH2 0xC91 JUMPI PUSH1 0x40 MLOAD PUSH3 0x461BCD PUSH1 0xE5 SHL DUP2 MSTORE PUSH1 0x20 PUSH1 0x4 DUP3 ADD MSTORE PUSH1 0x16 PUSH1 0x24 DUP3 ADD MSTORE PUSH22 0x131BD8DADD5C081B5D5CDD08189948195E1C1A5C9959 PUSH1 0x52 SHL PUSH1 0x44 DUP3 ADD MSTORE PUSH1 0x64 ADD PUSH2 0x8E6 JUMP JUMPDEST PUSH1 0x0 DUP2 PUSH1 0x0 ADD MLOAD PUSH1 0xF SIGNEXTEND SGT PUSH2 0xCDF JUMPI PUSH1 0x40 MLOAD PUSH3 0x461BCD PUSH1 0xE5 SHL DUP2 MSTORE PUSH1 0x20 PUSH1 0x4 DUP3 ADD MSTORE PUSH1 0x14 PUSH1 0x24 DUP3 ADD MSTORE PUSH20 0x4C6F636B757020686173206E6F20746F6B656E73 PUSH1 0x60 SHL PUSH1 0x44 DUP3 ADD MSTORE PUSH1 0x64 ADD PUSH2 0x8E6 JUMP JUMPDEST PUSH1 0x40 DUP1 MLOAD DUP1 DUP3 ADD DUP3 MSTORE PUSH1 0x0 DUP1 DUP3 MSTORE PUSH1 0x20 DUP1 DUP4 ADD DUP3 DUP2 MSTORE CALLER DUP4 MSTORE PUSH1 0xD0 SWAP1 SWAP2 MSTORE SWAP3 DUP2 KECCAK256 DUP3 MLOAD DUP2 SLOAD PUSH1 0x1 PUSH1 0x1 PUSH1 0x80 SHL SUB NOT AND PUSH1 0x1 PUSH1 0x1 PUSH1 0x80 SHL SUB SWAP1 SWAP2 AND OR DUP2 SSTORE SWAP3 MLOAD PUSH1 0x1 SWAP1 SWAP4 ADD SWAP3 SWAP1 SWAP3 SSTORE DUP3 MLOAD SWAP1 SWAP2 SWAP1 PUSH2 0xD38 SWAP1 PUSH1 0xF SIGNEXTEND PUSH2 0x1FD5 JUMP JUMPDEST PUSH1 0xD2 SLOAD SWAP1 SWAP2 POP PUSH2 0xD52 SWAP1 PUSH1 0x1 PUSH1 0x1 PUSH1 0xA0 SHL SUB AND CALLER DUP4 PUSH2 0x202B JUMP JUMPDEST PUSH2 0xD5D CALLER DUP5 DUP5 PUSH2 0x208E JUMP JUMPDEST PUSH1 0x40 DUP1 MLOAD DUP3 DUP2 MSTORE TIMESTAMP PUSH1 0x20 DUP3 ADD MSTORE CALLER SWAP2 PUSH32 0xF279E6A1F5E320CCA91135676D9CB6E44CA8A08C0B88342BCDB1144F6511B568 SWAP2 ADD PUSH1 0x40 MLOAD DUP1 SWAP2 SUB SWAP1 LOG2 POP POP POP JUMP JUMPDEST PUSH1 0x0 NUMBER DUP3 GT ISZERO PUSH2 0xDEE JUMPI PUSH1 0x40 MLOAD PUSH3 0x461BCD PUSH1 0xE5 SHL DUP2 MSTORE PUSH1 0x20 PUSH1 0x4 DUP3 ADD MSTORE PUSH1 0x1D PUSH1 0x24 DUP3 ADD MSTORE PUSH32 0x426C6F636B206E756D62657220697320696E2074686520667574757265000000 PUSH1 0x44 DUP3 ADD MSTORE PUSH1 0x64 ADD PUSH2 0x8E6 JUMP JUMPDEST PUSH1 0x1 PUSH1 0x1 PUSH1 0xA0 SHL SUB DUP4 AND PUSH1 0x0 SWAP1 DUP2 MSTORE PUSH1 0xCC PUSH1 0x20 SWAP1 DUP2 MSTORE PUSH1 0x40 DUP1 DUP4 KECCAK256 DUP1 SLOAD DUP3 MLOAD DUP2 DUP6 MUL DUP2 ADD DUP6 ADD SWAP1 SWAP4 MSTORE DUP1 DUP4 MSTORE PUSH2 0xEA5 SWAP4 DUP6 SWAP1 DUP5 ADD JUMPDEST DUP3 DUP3 LT ISZERO PUSH2 0xE81 JUMPI PUSH1 0x0 DUP5 DUP2 MSTORE PUSH1 0x20 SWAP1 DUP2 SWAP1 KECCAK256 PUSH1 0x40 DUP1 MLOAD PUSH1 0x80 DUP2 ADD DUP3 MSTORE PUSH1 0x3 DUP7 MUL SWAP1 SWAP3 ADD DUP1 SLOAD PUSH1 0xF DUP2 DUP2 SIGNEXTEND DUP6 MSTORE PUSH1 0x1 PUSH1 0x80 SHL SWAP1 SWAP2 DIV SWAP1 SIGNEXTEND DUP4 DUP6 ADD MSTORE PUSH1 0x1 DUP1 DUP3 ADD SLOAD SWAP3 DUP5 ADD SWAP3 SWAP1 SWAP3 MSTORE PUSH1 0x2 ADD SLOAD PUSH1 0x60 DUP4 ADD MSTORE SWAP1 DUP4 MSTORE SWAP1 SWAP3 ADD SWAP2 ADD PUSH2 0xE23 JUMP JUMPDEST POP POP POP PUSH1 0x1 PUSH1 0x1 PUSH1 0xA0 SHL SUB DUP8 AND PUSH1 0x0 SWAP1 DUP2 MSTORE PUSH1 0xCD PUSH1 0x20 MSTORE PUSH1 0x40 SWAP1 KECCAK256 SLOAD DUP7 SWAP2 POP PUSH2 0x23CE JUMP JUMPDEST SWAP1 POP DUP1 PUSH2 0xEB6 JUMPI PUSH1 0x0 SWAP2 POP POP PUSH2 0xC12 JUMP JUMPDEST PUSH1 0x1 PUSH1 0x1 PUSH1 0xA0 SHL SUB DUP5 AND PUSH1 0x0 SWAP1 DUP2 MSTORE PUSH1 0xCC PUSH1 0x20 MSTORE PUSH1 0x40 DUP2 KECCAK256 DUP1 SLOAD DUP4 SWAP1 DUP2 LT PUSH2 0xEE0 JUMPI PUSH2 0xEE0 PUSH2 0x3249 JUMP JUMPDEST PUSH1 0x0 SWAP2 DUP3 MSTORE PUSH1 0x20 DUP1 DUP4 KECCAK256 PUSH1 0x40 DUP1 MLOAD PUSH1 0x80 DUP2 ADD DUP3 MSTORE PUSH1 0x3 SWAP1 SWAP5 MUL SWAP1 SWAP2 ADD DUP1 SLOAD PUSH1 0xF DUP2 DUP2 SIGNEXTEND DUP7 MSTORE PUSH1 0x1 PUSH1 0x80 SHL SWAP1 SWAP2 DIV SWAP1 SIGNEXTEND DUP5 DUP5 ADD MSTORE PUSH1 0x1 DUP2 ADD SLOAD DUP5 DUP4 ADD MSTORE PUSH1 0x2 ADD SLOAD PUSH1 0x60 DUP5 ADD MSTORE PUSH1 0xCE DUP1 SLOAD DUP3 MLOAD DUP2 DUP6 MUL DUP2 ADD DUP6 ADD SWAP1 SWAP4 MSTORE DUP1 DUP4 MSTORE SWAP4 SWAP6 POP PUSH2 0xFB4 SWAP4 SWAP2 SWAP3 SWAP1 SWAP2 SWAP1 DUP6 SWAP1 DUP5 ADD JUMPDEST DUP3 DUP3 LT ISZERO PUSH2 0xFA7 JUMPI PUSH1 0x0 DUP5 DUP2 MSTORE PUSH1 0x20 SWAP1 DUP2 SWAP1 KECCAK256 PUSH1 0x40 DUP1 MLOAD PUSH1 0x80 DUP2 ADD DUP3 MSTORE PUSH1 0x3 DUP7 MUL SWAP1 SWAP3 ADD DUP1 SLOAD PUSH1 0xF DUP2 DUP2 SIGNEXTEND DUP6 MSTORE PUSH1 0x1 PUSH1 0x80 SHL SWAP1 SWAP2 DIV SWAP1 SIGNEXTEND DUP4 DUP6 ADD MSTORE PUSH1 0x1 DUP1 DUP3 ADD SLOAD SWAP3 DUP5 ADD SWAP3 SWAP1 SWAP3 MSTORE PUSH1 0x2 ADD SLOAD PUSH1 0x60 DUP4 ADD MSTORE SWAP1 DUP4 MSTORE SWAP1 SWAP3 ADD SWAP2 ADD PUSH2 0xF49 JUMP JUMPDEST POP POP POP POP DUP7 PUSH1 0xCF SLOAD PUSH2 0x23CE JUMP JUMPDEST SWAP1 POP PUSH1 0x0 PUSH1 0xCE DUP3 DUP2 SLOAD DUP2 LT PUSH2 0xFCB JUMPI PUSH2 0xFCB PUSH2 0x3249 JUMP JUMPDEST PUSH1 0x0 SWAP2 DUP3 MSTORE PUSH1 0x20 DUP1 DUP4 KECCAK256 PUSH1 0x40 DUP1 MLOAD PUSH1 0x80 DUP2 ADD DUP3 MSTORE PUSH1 0x3 SWAP1 SWAP5 MUL SWAP1 SWAP2 ADD DUP1 SLOAD PUSH1 0xF DUP2 DUP2 SIGNEXTEND DUP7 MSTORE PUSH1 0x1 PUSH1 0x80 SHL SWAP1 SWAP2 DIV SWAP1 SIGNEXTEND SWAP3 DUP5 ADD SWAP3 SWAP1 SWAP3 MSTORE PUSH1 0x1 DUP3 ADD SLOAD SWAP1 DUP4 ADD MSTORE PUSH1 0x2 ADD SLOAD PUSH1 0x60 DUP3 ADD MSTORE PUSH1 0xCF SLOAD SWAP1 SWAP3 POP DUP2 SWAP1 DUP5 LT ISZERO PUSH2 0x10BD JUMPI PUSH1 0x0 PUSH1 0xCE PUSH2 0x1031 DUP7 PUSH1 0x1 PUSH2 0x3428 JUMP JUMPDEST DUP2 SLOAD DUP2 LT PUSH2 0x1041 JUMPI PUSH2 0x1041 PUSH2 0x3249 JUMP JUMPDEST PUSH1 0x0 SWAP2 DUP3 MSTORE PUSH1 0x20 SWAP2 DUP3 SWAP1 KECCAK256 PUSH1 0x40 DUP1 MLOAD PUSH1 0x80 DUP2 ADD DUP3 MSTORE PUSH1 0x3 SWAP1 SWAP4 MUL SWAP1 SWAP2 ADD DUP1 SLOAD PUSH1 0xF DUP2 DUP2 SIGNEXTEND DUP6 MSTORE PUSH1 0x1 PUSH1 0x80 SHL SWAP1 SWAP2 DIV SWAP1 SIGNEXTEND SWAP4 DUP4 ADD SWAP4 SWAP1 SWAP4 MSTORE PUSH1 0x1 DUP4 ADD SLOAD SWAP1 DUP3 ADD MSTORE PUSH1 0x2 SWAP1 SWAP2 ADD SLOAD PUSH1 0x60 DUP1 DUP4 ADD DUP3 SWAP1 MSTORE DUP7 ADD MLOAD SWAP2 SWAP3 POP PUSH2 0x109F SWAP2 SWAP1 PUSH2 0x3232 JUMP JUMPDEST SWAP3 POP DUP4 PUSH1 0x40 ADD MLOAD DUP2 PUSH1 0x40 ADD MLOAD PUSH2 0x10B5 SWAP2 SWAP1 PUSH2 0x3232 JUMP JUMPDEST SWAP2 POP POP PUSH2 0x10E1 JUMP JUMPDEST PUSH1 0x60 DUP4 ADD MLOAD PUSH2 0x10CC SWAP1 NUMBER PUSH2 0x3232 JUMP JUMPDEST SWAP2 POP DUP3 PUSH1 0x40 ADD MLOAD TIMESTAMP PUSH2 0x10DE SWAP2 SWAP1 PUSH2 0x3232 JUMP JUMPDEST SWAP1 POP JUMPDEST PUSH1 0x40 DUP4 ADD MLOAD DUP3 ISZERO PUSH2 0x111E JUMPI DUP3 DUP5 PUSH1 0x60 ADD MLOAD DUP11 PUSH2 0x10FD SWAP2 SWAP1 PUSH2 0x3232 JUMP JUMPDEST PUSH2 0x1107 SWAP1 DUP5 PUSH2 0x3440 JUMP JUMPDEST PUSH2 0x1111 SWAP2 SWAP1 PUSH2 0x3475 JUMP JUMPDEST PUSH2 0x111B SWAP1 DUP3 PUSH2 0x3428 JUMP JUMPDEST SWAP1 POP JUMPDEST PUSH2 0x1136 DUP7 PUSH1 0x40 ADD MLOAD DUP3 PUSH2 0x1131 SWAP2 SWAP1 PUSH2 0x3232 JUMP JUMPDEST PUSH2 0x2468 JUMP JUMPDEST DUP7 PUSH1 0x20 ADD MLOAD PUSH2 0x1145 SWAP2 SWAP1 PUSH2 0x3489 JUMP JUMPDEST DUP7 MLOAD DUP8 SWAP1 PUSH2 0x1154 SWAP1 DUP4 SWAP1 PUSH2 0x351E JUMP JUMPDEST PUSH1 0xF SWAP1 DUP2 SIGNEXTEND SWAP1 SWAP2 MSTORE DUP8 MLOAD PUSH1 0x0 SWAP2 SIGNEXTEND SLT SWAP1 POP PUSH2 0x1185 JUMPI DUP6 MLOAD PUSH2 0x1177 SWAP1 PUSH1 0xF SIGNEXTEND PUSH2 0x1FD5 JUMP JUMPDEST SWAP8 POP POP POP POP POP POP POP POP PUSH2 0xC12 JUMP JUMPDEST PUSH1 0x0 SWAP8 POP POP POP POP POP POP POP POP PUSH2 0xC12 JUMP JUMPDEST ADDRESS PUSH1 0x1 PUSH1 0x1 PUSH1 0xA0 SHL SUB PUSH32 0x0 AND EQ ISZERO PUSH2 0x11DE JUMPI PUSH1 0x40 MLOAD PUSH3 0x461BCD PUSH1 0xE5 SHL DUP2 MSTORE PUSH1 0x4 ADD PUSH2 0x8E6 SWAP1 PUSH2 0x3390 JUMP JUMPDEST PUSH32 0x0 PUSH1 0x1 PUSH1 0x1 PUSH1 0xA0 SHL SUB AND PUSH2 0x1227 PUSH1 0x0 DUP1 MLOAD PUSH1 0x20 PUSH2 0x3707 DUP4 CODECOPY DUP2 MLOAD SWAP2 MSTORE SLOAD PUSH1 0x1 PUSH1 0x1 PUSH1 0xA0 SHL SUB AND SWAP1 JUMP JUMPDEST PUSH1 0x1 PUSH1 0x1 PUSH1 0xA0 SHL SUB AND EQ PUSH2 0x124D JUMPI PUSH1 0x40 MLOAD PUSH3 0x461BCD PUSH1 0xE5 SHL DUP2 MSTORE PUSH1 0x4 ADD PUSH2 0x8E6 SWAP1 PUSH2 0x33DC JUMP JUMPDEST PUSH2 0x1256 DUP3 PUSH2 0x1E3B JUMP JUMPDEST PUSH2 0x1262 DUP3 DUP3 PUSH1 0x1 PUSH2 0x1E65 JUMP JUMPDEST POP POP JUMP JUMPDEST PUSH1 0x0 ADDRESS PUSH1 0x1 PUSH1 0x1 PUSH1 0xA0 SHL SUB PUSH32 0x0 AND EQ PUSH2 0x1306 JUMPI PUSH1 0x40 MLOAD PUSH3 0x461BCD PUSH1 0xE5 SHL DUP2 MSTORE PUSH1 0x20 PUSH1 0x4 DUP3 ADD MSTORE PUSH1 0x38 PUSH1 0x24 DUP3 ADD MSTORE PUSH32 0x555550535570677261646561626C653A206D757374206E6F742062652063616C PUSH1 0x44 DUP3 ADD MSTORE PUSH32 0x6C6564207468726F7567682064656C656761746563616C6C0000000000000000 PUSH1 0x64 DUP3 ADD MSTORE PUSH1 0x84 ADD PUSH2 0x8E6 JUMP JUMPDEST POP PUSH1 0x0 DUP1 MLOAD PUSH1 0x20 PUSH2 0x3707 DUP4 CODECOPY DUP2 MLOAD SWAP2 MSTORE SWAP1 JUMP JUMPDEST PUSH2 0x1321 PUSH2 0x2ECB JUMP JUMPDEST PUSH1 0xCE DUP3 PUSH4 0xFFFFFFFF AND DUP2 SLOAD DUP2 LT PUSH2 0x7E7 JUMPI PUSH2 0x7E7 PUSH2 0x3249 JUMP JUMPDEST PUSH1 0x1 PUSH1 0x1 PUSH1 0xA0 SHL SUB DUP2 AND PUSH1 0x0 SWAP1 DUP2 MSTORE PUSH1 0xCD PUSH1 0x20 MSTORE PUSH1 0x40 DUP2 KECCAK256 SLOAD DUP1 PUSH2 0x1361 JUMPI POP PUSH1 0x0 SWAP3 SWAP2 POP POP JUMP JUMPDEST PUSH1 0x1 PUSH1 0x1 PUSH1 0xA0 SHL SUB DUP4 AND PUSH1 0x0 SWAP1 DUP2 MSTORE PUSH1 0xCC PUSH1 0x20 MSTORE PUSH1 0x40 DUP2 KECCAK256 DUP1 SLOAD DUP4 SWAP1 DUP2 LT PUSH2 0x138B JUMPI PUSH2 0x138B PUSH2 0x3249 JUMP JUMPDEST PUSH1 0x0 SWAP2 DUP3 MSTORE PUSH1 0x20 SWAP2 DUP3 SWAP1 KECCAK256 PUSH1 0x40 DUP1 MLOAD PUSH1 0x80 DUP2 ADD DUP3 MSTORE PUSH1 0x3 SWAP1 SWAP4 MUL SWAP1 SWAP2 ADD DUP1 SLOAD PUSH1 0xF DUP2 DUP2 SIGNEXTEND DUP6 MSTORE PUSH1 0x1 PUSH1 0x80 SHL SWAP1 SWAP2 DIV SWAP1 SIGNEXTEND SWAP4 DUP4 ADD SWAP4 SWAP1 SWAP4 MSTORE PUSH1 0x1 DUP4 ADD SLOAD SWAP1 DUP3 ADD DUP2 SWAP1 MSTORE PUSH1 0x2 SWAP1 SWAP3 ADD SLOAD PUSH1 0x60 DUP3 ADD MSTORE SWAP2 POP PUSH2 0x13E8 SWAP1 PUSH2 0x1131 SWAP1 TIMESTAMP PUSH2 0x3232 JUMP JUMPDEST DUP2 PUSH1 0x20 ADD MLOAD PUSH2 0x13F7 SWAP2 SWAP1 PUSH2 0x3489 JUMP JUMPDEST DUP2 MLOAD DUP3 SWAP1 PUSH2 0x1406 SWAP1 DUP4 SWAP1 PUSH2 0x351E JUMP JUMPDEST PUSH1 0xF SIGNEXTEND SWAP1 MSTORE POP DUP1 MLOAD PUSH2 0x1425 SWAP1 PUSH2 0x141D SWAP1 PUSH1 0x0 PUSH2 0x24E5 JUMP JUMPDEST PUSH1 0xF SIGNEXTEND PUSH2 0x1FD5 JUMP JUMPDEST SWAP5 SWAP4 POP POP POP POP JUMP JUMPDEST PUSH1 0x33 SLOAD PUSH1 0x1 PUSH1 0x1 PUSH1 0xA0 SHL SUB AND CALLER EQ PUSH2 0x1457 JUMPI PUSH1 0x40 MLOAD PUSH3 0x461BCD PUSH1 0xE5 SHL DUP2 MSTORE PUSH1 0x4 ADD PUSH2 0x8E6 SWAP1 PUSH2 0x325F JUMP JUMPDEST PUSH2 0x1461 PUSH1 0x0 PUSH2 0x2502 JUMP JUMPDEST JUMP JUMPDEST PUSH1 0x0 PUSH2 0xC12 DUP3 PUSH2 0x14F5 JUMP JUMPDEST PUSH2 0x1476 PUSH2 0x2ECB JUMP JUMPDEST PUSH1 0xCE DUP1 SLOAD PUSH2 0x1486 SWAP1 PUSH1 0x1 SWAP1 PUSH2 0x3232 JUMP JUMPDEST DUP2 SLOAD DUP2 LT PUSH2 0x1496 JUMPI PUSH2 0x1496 PUSH2 0x3249 JUMP JUMPDEST PUSH1 0x0 SWAP2 DUP3 MSTORE PUSH1 0x20 SWAP2 DUP3 SWAP1 KECCAK256 PUSH1 0x40 DUP1 MLOAD PUSH1 0x80 DUP2 ADD DUP3 MSTORE PUSH1 0x3 SWAP1 SWAP4 MUL SWAP1 SWAP2 ADD DUP1 SLOAD PUSH1 0xF DUP2 DUP2 SIGNEXTEND DUP6 MSTORE PUSH1 0x1 PUSH1 0x80 SHL SWAP1 SWAP2 DIV SWAP1 SIGNEXTEND SWAP4 DUP4 ADD SWAP4 SWAP1 SWAP4 MSTORE PUSH1 0x1 DUP4 ADD SLOAD SWAP1 DUP3 ADD MSTORE PUSH1 0x2 SWAP1 SWAP2 ADD SLOAD PUSH1 0x60 DUP3 ADD MSTORE SWAP2 SWAP1 POP JUMP JUMPDEST PUSH1 0x60 PUSH1 0xCA DUP1 SLOAD PUSH2 0x726 SWAP1 PUSH2 0x31E1 JUMP JUMPDEST PUSH1 0x0 NUMBER DUP3 GT ISZERO PUSH2 0x1547 JUMPI PUSH1 0x40 MLOAD PUSH3 0x461BCD PUSH1 0xE5 SHL DUP2 MSTORE PUSH1 0x20 PUSH1 0x4 DUP3 ADD MSTORE PUSH1 0x1D PUSH1 0x24 DUP3 ADD MSTORE PUSH32 0x426C6F636B206E756D62657220697320696E2074686520667574757265000000 PUSH1 0x44 DUP3 ADD MSTORE PUSH1 0x64 ADD PUSH2 0x8E6 JUMP JUMPDEST PUSH1 0x0 PUSH2 0x15D9 PUSH1 0xCE DUP1 SLOAD DUP1 PUSH1 0x20 MUL PUSH1 0x20 ADD PUSH1 0x40 MLOAD SWAP1 DUP2 ADD PUSH1 0x40 MSTORE DUP1 SWAP3 SWAP2 SWAP1 DUP2 DUP2 MSTORE PUSH1 0x20 ADD PUSH1 0x0 SWAP1 JUMPDEST DUP3 DUP3 LT ISZERO PUSH2 0x15CC JUMPI PUSH1 0x0 DUP5 DUP2 MSTORE PUSH1 0x20 SWAP1 DUP2 SWAP1 KECCAK256 PUSH1 0x40 DUP1 MLOAD PUSH1 0x80 DUP2 ADD DUP3 MSTORE PUSH1 0x3 DUP7 MUL SWAP1 SWAP3 ADD DUP1 SLOAD PUSH1 0xF DUP2 DUP2 SIGNEXTEND DUP6 MSTORE PUSH1 0x1 PUSH1 0x80 SHL SWAP1 SWAP2 DIV SWAP1 SIGNEXTEND DUP4 DUP6 ADD MSTORE PUSH1 0x1 DUP1 DUP3 ADD SLOAD SWAP3 DUP5 ADD SWAP3 SWAP1 SWAP3 MSTORE PUSH1 0x2 ADD SLOAD PUSH1 0x60 DUP4 ADD MSTORE SWAP1 DUP4 MSTORE SWAP1 SWAP3 ADD SWAP2 ADD PUSH2 0x156E JUMP JUMPDEST POP POP POP POP DUP5 PUSH1 0xCF SLOAD PUSH2 0x23CE JUMP JUMPDEST SWAP1 POP PUSH1 0x0 PUSH1 0xCE DUP3 DUP2 SLOAD DUP2 LT PUSH2 0x15F0 JUMPI PUSH2 0x15F0 PUSH2 0x3249 JUMP JUMPDEST PUSH1 0x0 SWAP2 DUP3 MSTORE PUSH1 0x20 SWAP2 DUP3 SWAP1 KECCAK256 PUSH1 0x40 DUP1 MLOAD PUSH1 0x80 DUP2 ADD DUP3 MSTORE PUSH1 0x3 SWAP1 SWAP4 MUL SWAP1 SWAP2 ADD DUP1 SLOAD PUSH1 0xF DUP2 DUP2 SIGNEXTEND DUP6 MSTORE PUSH1 0x1 PUSH1 0x80 SHL SWAP1 SWAP2 DIV SWAP1 SIGNEXTEND SWAP4 DUP4 ADD SWAP4 SWAP1 SWAP4 MSTORE PUSH1 0x1 DUP4 ADD SLOAD SWAP1 DUP3 ADD MSTORE PUSH1 0x2 SWAP1 SWAP2 ADD SLOAD PUSH1 0x60 DUP3 ADD DUP2 SWAP1 MSTORE SWAP1 SWAP2 POP DUP5 LT ISZERO PUSH2 0x1651 JUMPI POP PUSH1 0x0 SWAP4 SWAP3 POP POP POP JUMP JUMPDEST PUSH1 0x0 PUSH1 0xCF SLOAD DUP4 LT ISZERO PUSH2 0x1729 JUMPI PUSH1 0x0 PUSH1 0xCE PUSH2 0x166C DUP6 PUSH1 0x1 PUSH2 0x3428 JUMP JUMPDEST DUP2 SLOAD DUP2 LT PUSH2 0x167C JUMPI PUSH2 0x167C PUSH2 0x3249 JUMP JUMPDEST PUSH1 0x0 SWAP2 DUP3 MSTORE PUSH1 0x20 SWAP2 DUP3 SWAP1 KECCAK256 PUSH1 0x40 DUP1 MLOAD PUSH1 0x80 DUP2 ADD DUP3 MSTORE PUSH1 0x3 SWAP1 SWAP4 MUL SWAP1 SWAP2 ADD DUP1 SLOAD PUSH1 0xF DUP2 DUP2 SIGNEXTEND DUP6 MSTORE PUSH1 0x1 PUSH1 0x80 SHL SWAP1 SWAP2 DIV SWAP1 SIGNEXTEND SWAP4 DUP4 ADD SWAP4 SWAP1 SWAP4 MSTORE PUSH1 0x1 DUP4 ADD SLOAD SWAP1 DUP3 ADD MSTORE PUSH1 0x2 SWAP1 SWAP2 ADD SLOAD PUSH1 0x60 DUP1 DUP4 ADD DUP3 SWAP1 MSTORE DUP6 ADD MLOAD SWAP2 SWAP3 POP EQ PUSH2 0x1723 JUMPI DUP3 PUSH1 0x60 ADD MLOAD DUP2 PUSH1 0x60 ADD MLOAD PUSH2 0x16E9 SWAP2 SWAP1 PUSH2 0x3232 JUMP JUMPDEST DUP4 PUSH1 0x40 ADD MLOAD DUP3 PUSH1 0x40 ADD MLOAD PUSH2 0x16FD SWAP2 SWAP1 PUSH2 0x3232 JUMP JUMPDEST PUSH1 0x60 DUP6 ADD MLOAD PUSH2 0x170C SWAP1 DUP10 PUSH2 0x3232 JUMP JUMPDEST PUSH2 0x1716 SWAP2 SWAP1 PUSH2 0x3440 JUMP JUMPDEST PUSH2 0x1720 SWAP2 SWAP1 PUSH2 0x3475 JUMP JUMPDEST SWAP2 POP JUMPDEST POP PUSH2 0x1778 JUMP JUMPDEST NUMBER DUP3 PUSH1 0x60 ADD MLOAD EQ PUSH2 0x1778 JUMPI PUSH1 0x60 DUP3 ADD MLOAD PUSH2 0x1743 SWAP1 NUMBER PUSH2 0x3232 JUMP JUMPDEST PUSH1 0x40 DUP4 ADD MLOAD PUSH2 0x1752 SWAP1 TIMESTAMP PUSH2 0x3232 JUMP JUMPDEST PUSH1 0x60 DUP5 ADD MLOAD PUSH2 0x1761 SWAP1 DUP9 PUSH2 0x3232 JUMP JUMPDEST PUSH2 0x176B SWAP2 SWAP1 PUSH2 0x3440 JUMP JUMPDEST PUSH2 0x1775 SWAP2 SWAP1 PUSH2 0x3475 JUMP JUMPDEST SWAP1 POP JUMPDEST PUSH2 0x1791 DUP3 DUP3 DUP5 PUSH1 0x40 ADD MLOAD PUSH2 0x178C SWAP2 SWAP1 PUSH2 0x3428 JUMP JUMPDEST PUSH2 0x1D5D JUMP JUMPDEST SWAP6 SWAP5 POP POP POP POP POP JUMP JUMPDEST PUSH1 0x0 PUSH2 0xC12 DUP3 PUSH2 0x133A JUMP JUMPDEST PUSH2 0x17AE DUP2 PUSH2 0x2554 JUMP JUMPDEST CALLER PUSH1 0x0 SWAP1 DUP2 MSTORE PUSH1 0xD0 PUSH1 0x20 SWAP1 DUP2 MSTORE PUSH1 0x40 SWAP2 DUP3 SWAP1 KECCAK256 DUP3 MLOAD DUP1 DUP5 ADD SWAP1 SWAP4 MSTORE DUP1 SLOAD PUSH1 0xF SIGNEXTEND DUP4 MSTORE PUSH1 0x1 ADD SLOAD SWAP1 DUP3 ADD MSTORE SWAP1 SWAP2 POP TIMESTAMP DUP3 GT PUSH2 0x1847 JUMPI PUSH1 0x40 MLOAD PUSH3 0x461BCD PUSH1 0xE5 SHL DUP2 MSTORE PUSH1 0x20 PUSH1 0x4 DUP3 ADD MSTORE PUSH1 0x34 PUSH1 0x24 DUP3 ADD MSTORE PUSH32 0x456E64206D7573742062652067726561746572207468616E2074686520637572 PUSH1 0x44 DUP3 ADD MSTORE PUSH20 0x72656E7420626C6F636B2074696D657374616D7 PUSH1 0x64 SHL PUSH1 0x64 DUP3 ADD MSTORE PUSH1 0x84 ADD PUSH2 0x8E6 JUMP JUMPDEST PUSH1 0x0 DUP2 PUSH1 0x20 ADD MLOAD GT DUP1 ISZERO PUSH2 0x185E JUMPI POP DUP1 PUSH1 0x20 ADD MLOAD DUP3 LT JUMPDEST ISZERO PUSH2 0x18C8 JUMPI PUSH1 0x40 MLOAD PUSH3 0x461BCD PUSH1 0xE5 SHL DUP2 MSTORE PUSH1 0x20 PUSH1 0x4 DUP3 ADD MSTORE PUSH1 0x34 PUSH1 0x24 DUP3 ADD MSTORE PUSH32 0x456E64206D7573742062652067726561746572207468616E206F722065717561 PUSH1 0x44 DUP3 ADD MSTORE PUSH20 0x1B081D1BC81D1A194818DD5C9C995B9D08195B99 PUSH1 0x62 SHL PUSH1 0x64 DUP3 ADD MSTORE PUSH1 0x84 ADD PUSH2 0x8E6 JUMP JUMPDEST PUSH4 0x784CE00 PUSH2 0x18D7 TIMESTAMP DUP5 PUSH2 0x3232 JUMP JUMPDEST GT ISZERO PUSH2 0x1934 JUMPI PUSH1 0x40 MLOAD PUSH3 0x461BCD PUSH1 0xE5 SHL DUP2 MSTORE PUSH1 0x20 PUSH1 0x4 DUP3 ADD MSTORE PUSH1 0x26 PUSH1 0x24 DUP3 ADD MSTORE PUSH32 0x456E64206D757374206265206265666F7265206D6178696D756D206C6F636B75 PUSH1 0x44 DUP3 ADD MSTORE PUSH6 0x702074696D65 PUSH1 0xD0 SHL PUSH1 0x64 DUP3 ADD MSTORE PUSH1 0x84 ADD PUSH2 0x8E6 JUMP JUMPDEST PUSH1 0x0 PUSH2 0x193F DUP5 PUSH2 0x2468 JUMP JUMPDEST SWAP1 POP DUP2 PUSH1 0x0 ADD MLOAD PUSH1 0xF SIGNEXTEND DUP2 PUSH1 0xF SIGNEXTEND SLT ISZERO PUSH2 0x19BA JUMPI PUSH1 0x40 MLOAD PUSH3 0x461BCD PUSH1 0xE5 SHL DUP2 MSTORE PUSH1 0x20 PUSH1 0x4 DUP3 ADD MSTORE PUSH1 0x36 PUSH1 0x24 DUP3 ADD MSTORE PUSH32 0x416D6F756E74206D7573742062652067726561746572207468616E206F722065 PUSH1 0x44 DUP3 ADD MSTORE PUSH22 0x1C5D585B081D1BC818DD5C9C995B9D08185B5BDD5B9D PUSH1 0x52 SHL PUSH1 0x64 DUP3 ADD MSTORE PUSH1 0x84 ADD PUSH2 0x8E6 JUMP JUMPDEST DUP2 MLOAD PUSH1 0x0 SWAP1 PUSH2 0x19CD SWAP1 PUSH2 0x141D SWAP1 DUP5 PUSH2 0x351E JUMP JUMPDEST PUSH1 0x40 DUP1 MLOAD DUP1 DUP3 ADD DUP3 MSTORE PUSH1 0xF DUP6 SWAP1 SIGNEXTEND DUP2 MSTORE PUSH1 0x20 DUP1 DUP3 ADD DUP9 DUP2 MSTORE CALLER PUSH1 0x0 SWAP1 DUP2 MSTORE PUSH1 0xD0 SWAP1 SWAP3 MSTORE SWAP3 SWAP1 KECCAK256 DUP2 MLOAD DUP2 SLOAD PUSH1 0x1 PUSH1 0x1 PUSH1 0x80 SHL SUB NOT AND PUSH1 0x1 PUSH1 0x1 PUSH1 0x80 SHL SUB SWAP1 SWAP2 AND OR DUP2 SSTORE SWAP2 MLOAD PUSH1 0x1 SWAP1 SWAP3 ADD SWAP2 SWAP1 SWAP2 SSTORE SWAP1 SWAP2 POP DUP2 ISZERO PUSH2 0x1A3B JUMPI PUSH1 0xD2 SLOAD PUSH2 0x1A3B SWAP1 PUSH1 0x1 PUSH1 0x1 PUSH1 0xA0 SHL SUB AND CALLER ADDRESS DUP6 PUSH2 0x256E JUMP JUMPDEST PUSH1 0x20 DUP5 ADD MLOAD ISZERO PUSH2 0x1AAD JUMPI DUP4 MLOAD PUSH1 0x20 DUP1 DUP7 ADD MLOAD DUP4 MLOAD DUP5 DUP4 ADD MLOAD PUSH1 0x40 DUP1 MLOAD PUSH1 0xF SWAP7 DUP8 SIGNEXTEND DUP2 MSTORE SWAP5 DUP6 ADD SWAP4 SWAP1 SWAP4 MSTORE SWAP4 SIGNEXTEND SWAP1 DUP3 ADD MSTORE PUSH1 0x60 DUP2 ADD SWAP2 SWAP1 SWAP2 MSTORE TIMESTAMP PUSH1 0x80 DUP3 ADD MSTORE CALLER SWAP1 PUSH32 0x268A3D7EA661E9E2BD617021C94B431919691C0D21AA2EB3EA2B9644A5383D12 SWAP1 PUSH1 0xA0 ADD PUSH1 0x40 MLOAD DUP1 SWAP2 SUB SWAP1 LOG2 PUSH2 0x1AFA JUMP JUMPDEST DUP1 MLOAD PUSH1 0x20 DUP1 DUP4 ADD MLOAD PUSH1 0x40 DUP1 MLOAD PUSH1 0xF SWAP5 SWAP1 SWAP5 SIGNEXTEND DUP5 MSTORE SWAP2 DUP4 ADD MSTORE TIMESTAMP SWAP1 DUP3 ADD MSTORE CALLER SWAP1 PUSH32 0x7006565168B74EDD823B144526503320D833B826EDEA3F82059CA1806A954FC3 SWAP1 PUSH1 0x60 ADD PUSH1 0x40 MLOAD DUP1 SWAP2 SUB SWAP1 LOG2 JUMPDEST PUSH2 0x1B05 CALLER DUP6 DUP4 PUSH2 0x208E JUMP JUMPDEST POP POP POP POP POP POP JUMP JUMPDEST PUSH2 0x1461 PUSH1 0x0 DUP1 PUSH2 0x25AC JUMP JUMPDEST PUSH1 0x0 PUSH2 0x1B24 PUSH1 0x1 PUSH2 0x2981 JUMP JUMPDEST SWAP1 POP DUP1 ISZERO PUSH2 0x1B3C JUMPI PUSH1 0x0 DUP1 SLOAD PUSH2 0xFF00 NOT AND PUSH2 0x100 OR SWAP1 SSTORE JUMPDEST PUSH2 0x1B44 PUSH2 0x2A0E JUMP JUMPDEST PUSH2 0x1B4C PUSH2 0x2A3D JUMP JUMPDEST PUSH2 0x1B55 DUP3 PUSH2 0x8BC JUMP JUMPDEST PUSH1 0x40 DUP1 MLOAD PUSH1 0x80 DUP2 ADD DUP3 MSTORE PUSH1 0x0 DUP1 DUP3 MSTORE PUSH1 0x20 DUP3 ADD DUP2 DUP2 MSTORE TIMESTAMP SWAP4 DUP4 ADD SWAP4 DUP5 MSTORE NUMBER PUSH1 0x60 DUP5 ADD SWAP1 DUP2 MSTORE PUSH1 0xCE DUP1 SLOAD PUSH1 0x1 DUP2 ADD DUP3 SSTORE SWAP4 MSTORE SWAP3 MLOAD SWAP1 MLOAD PUSH1 0x1 PUSH1 0x1 PUSH1 0x80 SHL SUB SWAP1 DUP2 AND PUSH1 0x1 PUSH1 0x80 SHL MUL SWAP2 AND OR PUSH1 0x3 SWAP1 SWAP2 MUL PUSH32 0xD36CD1C74EF8D7326D8021B776C18FB5A5724B7F7BC93C2F42E43E10EF27D12A DUP2 ADD SWAP2 SWAP1 SWAP2 SSTORE SWAP2 MLOAD PUSH32 0xD36CD1C74EF8D7326D8021B776C18FB5A5724B7F7BC93C2F42E43E10EF27D12B DUP4 ADD SSTORE MLOAD PUSH32 0xD36CD1C74EF8D7326D8021B776C18FB5A5724B7F7BC93C2F42E43E10EF27D12C SWAP1 SWAP2 ADD SSTORE DUP1 ISZERO PUSH2 0x1262 JUMPI PUSH1 0x0 DUP1 SLOAD PUSH2 0xFF00 NOT AND SWAP1 SSTORE POP POP JUMP JUMPDEST PUSH2 0x1C33 PUSH2 0x2ECB JUMP JUMPDEST PUSH1 0x1 PUSH1 0x1 PUSH1 0xA0 SHL SUB DUP4 AND PUSH1 0x0 SWAP1 DUP2 MSTORE PUSH1 0xCC PUSH1 0x20 MSTORE PUSH1 0x40 SWAP1 KECCAK256 DUP1 SLOAD PUSH4 0xFFFFFFFF DUP5 AND SWAP1 DUP2 LT PUSH2 0x1C63 JUMPI PUSH2 0x1C63 PUSH2 0x3249 JUMP JUMPDEST PUSH1 0x0 SWAP2 DUP3 MSTORE PUSH1 0x20 SWAP2 DUP3 SWAP1 KECCAK256 PUSH1 0x40 DUP1 MLOAD PUSH1 0x80 DUP2 ADD DUP3 MSTORE PUSH1 0x3 SWAP1 SWAP4 MUL SWAP1 SWAP2 ADD DUP1 SLOAD PUSH1 0xF DUP2 DUP2 SIGNEXTEND DUP6 MSTORE PUSH1 0x1 PUSH1 0x80 SHL SWAP1 SWAP2 DIV SWAP1 SIGNEXTEND SWAP4 DUP4 ADD SWAP4 SWAP1 SWAP4 MSTORE PUSH1 0x1 DUP4 ADD SLOAD SWAP1 DUP3 ADD MSTORE PUSH1 0x2 SWAP1 SWAP2 ADD SLOAD PUSH1 0x60 DUP3 ADD MSTORE SWAP1 POP SWAP3 SWAP2 POP POP JUMP JUMPDEST PUSH1 0x33 SLOAD PUSH1 0x1 PUSH1 0x1 PUSH1 0xA0 SHL SUB AND CALLER EQ PUSH2 0x1CE0 JUMPI PUSH1 0x40 MLOAD PUSH3 0x461BCD PUSH1 0xE5 SHL DUP2 MSTORE PUSH1 0x4 ADD PUSH2 0x8E6 SWAP1 PUSH2 0x325F JUMP JUMPDEST PUSH1 0x1 PUSH1 0x1 PUSH1 0xA0 SHL SUB DUP2 AND PUSH2 0x1D45 JUMPI PUSH1 0x40 MLOAD PUSH3 0x461BCD PUSH1 0xE5 SHL DUP2 MSTORE PUSH1 0x20 PUSH1 0x4 DUP3 ADD MSTORE PUSH1 0x26 PUSH1 0x24 DUP3 ADD MSTORE PUSH32 0x4F776E61626C653A206E6577206F776E657220697320746865207A65726F2061 PUSH1 0x44 DUP3 ADD MSTORE PUSH6 0x646472657373 PUSH1 0xD0 SHL PUSH1 0x64 DUP3 ADD MSTORE PUSH1 0x84 ADD PUSH2 0x8E6 JUMP JUMPDEST PUSH2 0xC00 DUP2 PUSH2 0x2502 JUMP JUMPDEST PUSH1 0x1 PUSH1 0x1 PUSH1 0xA0 SHL SUB AND EXTCODESIZE ISZERO ISZERO SWAP1 JUMP JUMPDEST PUSH1 0x0 DUP1 DUP4 SWAP1 POP PUSH1 0x0 PUSH2 0x1D72 DUP3 PUSH1 0x40 ADD MLOAD PUSH2 0x2554 JUMP JUMPDEST SWAP1 POP PUSH1 0x0 JUMPDEST PUSH1 0xFF DUP2 LT ISZERO PUSH2 0x1E28 JUMPI PUSH2 0x1D8D PUSH3 0x93A80 DUP4 PUSH2 0x3428 JUMP JUMPDEST SWAP2 POP PUSH1 0x0 DUP6 DUP4 GT ISZERO PUSH2 0x1DA1 JUMPI DUP6 SWAP3 POP PUSH2 0x1DB5 JUMP JUMPDEST POP PUSH1 0x0 DUP3 DUP2 MSTORE PUSH1 0xD1 PUSH1 0x20 MSTORE PUSH1 0x40 SWAP1 KECCAK256 SLOAD PUSH1 0xF SIGNEXTEND JUMPDEST PUSH2 0x1DC8 DUP5 PUSH1 0x40 ADD MLOAD DUP5 PUSH2 0x1131 SWAP2 SWAP1 PUSH2 0x3232 JUMP JUMPDEST DUP5 PUSH1 0x20 ADD MLOAD PUSH2 0x1DD7 SWAP2 SWAP1 PUSH2 0x3489 JUMP JUMPDEST DUP5 MLOAD PUSH2 0x1DE3 SWAP2 SWAP1 PUSH2 0x351E JUMP JUMPDEST PUSH1 0xF SIGNEXTEND DUP5 MSTORE DUP3 DUP7 EQ ISZERO PUSH2 0x1DF6 JUMPI POP PUSH2 0x1E28 JUMP JUMPDEST DUP1 DUP5 PUSH1 0x20 ADD MLOAD PUSH2 0x1E06 SWAP2 SWAP1 PUSH2 0x356E JUMP JUMPDEST PUSH1 0xF SIGNEXTEND PUSH1 0x20 DUP6 ADD MSTORE POP PUSH1 0x40 DUP4 ADD DUP3 SWAP1 MSTORE DUP1 PUSH2 0x1E20 DUP2 PUSH2 0x35BD JUMP JUMPDEST SWAP2 POP POP PUSH2 0x1D77 JUMP JUMPDEST POP PUSH2 0x1791 PUSH2 0x141D DUP4 PUSH1 0x0 ADD MLOAD PUSH1 0x0 PUSH2 0x24E5 JUMP JUMPDEST PUSH1 0x33 SLOAD PUSH1 0x1 PUSH1 0x1 PUSH1 0xA0 SHL SUB AND CALLER EQ PUSH2 0xC00 JUMPI PUSH1 0x40 MLOAD PUSH3 0x461BCD PUSH1 0xE5 SHL DUP2 MSTORE PUSH1 0x4 ADD PUSH2 0x8E6 SWAP1 PUSH2 0x325F JUMP JUMPDEST PUSH32 0x4910FDFA16FED3260ED0E7147F7CC6DA11A60208B5B9406D12A635614FFD9143 SLOAD PUSH1 0xFF AND ISZERO PUSH2 0x1E9D JUMPI PUSH2 0x1E98 DUP4 PUSH2 0x2A64 JUMP JUMPDEST POP POP POP JUMP JUMPDEST DUP3 PUSH1 0x1 PUSH1 0x1 PUSH1 0xA0 SHL SUB AND PUSH4 0x52D1902D PUSH1 0x40 MLOAD DUP2 PUSH4 0xFFFFFFFF AND PUSH1 0xE0 SHL DUP2 MSTORE PUSH1 0x4 ADD PUSH1 0x20 PUSH1 0x40 MLOAD DUP1 DUP4 SUB DUP2 DUP7 GAS STATICCALL SWAP3 POP POP POP DUP1 ISZERO PUSH2 0x1EF7 JUMPI POP PUSH1 0x40 DUP1 MLOAD PUSH1 0x1F RETURNDATASIZE SWAP1 DUP2 ADD PUSH1 0x1F NOT AND DUP3 ADD SWAP1 SWAP3 MSTORE PUSH2 0x1EF4 SWAP2 DUP2 ADD SWAP1 PUSH2 0x35D8 JUMP JUMPDEST PUSH1 0x1 JUMPDEST PUSH2 0x1F5A JUMPI PUSH1 0x40 MLOAD PUSH3 0x461BCD PUSH1 0xE5 SHL DUP2 MSTORE PUSH1 0x20 PUSH1 0x4 DUP3 ADD MSTORE PUSH1 0x2E PUSH1 0x24 DUP3 ADD MSTORE PUSH32 0x45524331393637557067726164653A206E657720696D706C656D656E74617469 PUSH1 0x44 DUP3 ADD MSTORE PUSH14 0x6F6E206973206E6F742055555053 PUSH1 0x90 SHL PUSH1 0x64 DUP3 ADD MSTORE PUSH1 0x84 ADD PUSH2 0x8E6 JUMP JUMPDEST PUSH1 0x0 DUP1 MLOAD PUSH1 0x20 PUSH2 0x3707 DUP4 CODECOPY DUP2 MLOAD SWAP2 MSTORE DUP2 EQ PUSH2 0x1FC9 JUMPI PUSH1 0x40 MLOAD PUSH3 0x461BCD PUSH1 0xE5 SHL DUP2 MSTORE PUSH1 0x20 PUSH1 0x4 DUP3 ADD MSTORE PUSH1 0x29 PUSH1 0x24 DUP3 ADD MSTORE PUSH32 0x45524331393637557067726164653A20756E737570706F727465642070726F78 PUSH1 0x44 DUP3 ADD MSTORE PUSH9 0x1A58589B1955555251 PUSH1 0xBA SHL PUSH1 0x64 DUP3 ADD MSTORE PUSH1 0x84 ADD PUSH2 0x8E6 JUMP JUMPDEST POP PUSH2 0x1E98 DUP4 DUP4 DUP4 PUSH2 0x2B00 JUMP JUMPDEST PUSH1 0x0 DUP1 DUP3 SLT ISZERO PUSH2 0x2027 JUMPI PUSH1 0x40 MLOAD PUSH3 0x461BCD PUSH1 0xE5 SHL DUP2 MSTORE PUSH1 0x20 PUSH1 0x4 DUP3 ADD DUP2 SWAP1 MSTORE PUSH1 0x24 DUP3 ADD MSTORE PUSH32 0x53616665436173743A2076616C7565206D75737420626520706F736974697665 PUSH1 0x44 DUP3 ADD MSTORE PUSH1 0x64 ADD PUSH2 0x8E6 JUMP JUMPDEST POP SWAP1 JUMP JUMPDEST PUSH1 0x40 MLOAD PUSH1 0x1 PUSH1 0x1 PUSH1 0xA0 SHL SUB DUP4 AND PUSH1 0x24 DUP3 ADD MSTORE PUSH1 0x44 DUP2 ADD DUP3 SWAP1 MSTORE PUSH2 0x1E98 SWAP1 DUP5 SWAP1 PUSH4 0xA9059CBB PUSH1 0xE0 SHL SWAP1 PUSH1 0x64 ADD JUMPDEST PUSH1 0x40 DUP1 MLOAD PUSH1 0x1F NOT DUP2 DUP5 SUB ADD DUP2 MSTORE SWAP2 SWAP1 MSTORE PUSH1 0x20 DUP2 ADD DUP1 MLOAD PUSH1 0x1 PUSH1 0x1 PUSH1 0xE0 SHL SUB AND PUSH1 0x1 PUSH1 0x1 PUSH1 0xE0 SHL SUB NOT SWAP1 SWAP4 AND SWAP3 SWAP1 SWAP3 OR SWAP1 SWAP2 MSTORE PUSH2 0x2B25 JUMP JUMPDEST PUSH2 0x2096 PUSH2 0x2ECB JUMP JUMPDEST PUSH2 0x209E PUSH2 0x2ECB JUMP JUMPDEST PUSH1 0x0 DUP1 TIMESTAMP DUP7 PUSH1 0x20 ADD MLOAD GT DUP1 ISZERO PUSH2 0x20BB JUMPI POP PUSH1 0x0 DUP7 PUSH1 0x0 ADD MLOAD PUSH1 0xF SIGNEXTEND SGT JUMPDEST ISZERO PUSH2 0x210C JUMPI PUSH2 0x20CD PUSH4 0x784CE00 PUSH2 0x2468 JUMP JUMPDEST DUP7 MLOAD PUSH2 0x20D9 SWAP2 SWAP1 PUSH2 0x35F1 JUMP JUMPDEST PUSH1 0xF SIGNEXTEND PUSH1 0x20 DUP1 DUP7 ADD SWAP2 SWAP1 SWAP2 MSTORE DUP7 ADD MLOAD PUSH2 0x20F7 SWAP1 PUSH2 0x1131 SWAP1 TIMESTAMP SWAP1 PUSH2 0x3232 JUMP JUMPDEST DUP5 PUSH1 0x20 ADD MLOAD PUSH2 0x2106 SWAP2 SWAP1 PUSH2 0x3489 JUMP JUMPDEST PUSH1 0xF SIGNEXTEND DUP5 MSTORE JUMPDEST TIMESTAMP DUP6 PUSH1 0x20 ADD MLOAD GT DUP1 ISZERO PUSH2 0x2126 JUMPI POP PUSH1 0x0 DUP6 PUSH1 0x0 ADD MLOAD PUSH1 0xF SIGNEXTEND SGT JUMPDEST ISZERO PUSH2 0x2177 JUMPI PUSH2 0x2138 PUSH4 0x784CE00 PUSH2 0x2468 JUMP JUMPDEST DUP6 MLOAD PUSH2 0x2144 SWAP2 SWAP1 PUSH2 0x35F1 JUMP JUMPDEST PUSH1 0xF SIGNEXTEND PUSH1 0x20 DUP1 DUP6 ADD SWAP2 SWAP1 SWAP2 MSTORE DUP6 ADD MLOAD PUSH2 0x2162 SWAP1 PUSH2 0x1131 SWAP1 TIMESTAMP SWAP1 PUSH2 0x3232 JUMP JUMPDEST DUP4 PUSH1 0x20 ADD MLOAD PUSH2 0x2171 SWAP2 SWAP1 PUSH2 0x3489 JUMP JUMPDEST PUSH1 0xF SIGNEXTEND DUP4 MSTORE JUMPDEST PUSH1 0x1 PUSH1 0x1 PUSH1 0xA0 SHL SUB DUP8 AND PUSH1 0x0 SWAP1 DUP2 MSTORE PUSH1 0xCD PUSH1 0x20 MSTORE PUSH1 0x40 SWAP1 KECCAK256 SLOAD DUP1 PUSH2 0x21FB JUMPI PUSH1 0x1 PUSH1 0x1 PUSH1 0xA0 SHL SUB DUP9 AND PUSH1 0x0 SWAP1 DUP2 MSTORE PUSH1 0xCC PUSH1 0x20 SWAP1 DUP2 MSTORE PUSH1 0x40 DUP1 DUP4 KECCAK256 DUP1 SLOAD PUSH1 0x1 DUP2 DUP2 ADD DUP4 SSTORE SWAP2 DUP6 MSTORE SWAP4 DUP4 SWAP1 KECCAK256 DUP10 MLOAD SWAP4 DUP11 ADD MLOAD PUSH1 0x1 PUSH1 0x1 PUSH1 0x80 SHL SUB SWAP1 DUP2 AND PUSH1 0x1 PUSH1 0x80 SHL MUL SWAP5 AND SWAP4 SWAP1 SWAP4 OR PUSH1 0x3 SWAP1 SWAP5 MUL SWAP1 SWAP3 ADD SWAP3 DUP4 SSTORE DUP8 ADD MLOAD SWAP1 DUP3 ADD SSTORE PUSH1 0x60 DUP7 ADD MLOAD PUSH1 0x2 SWAP1 SWAP2 ADD SSTORE JUMPDEST TIMESTAMP PUSH1 0x40 DUP6 ADD MSTORE NUMBER PUSH1 0x60 DUP6 ADD MSTORE PUSH2 0x2212 DUP2 PUSH1 0x1 PUSH2 0x3428 JUMP JUMPDEST PUSH1 0x1 PUSH1 0x1 PUSH1 0xA0 SHL SUB DUP10 AND PUSH1 0x0 SWAP1 DUP2 MSTORE PUSH1 0xCD PUSH1 0x20 SWAP1 DUP2 MSTORE PUSH1 0x40 DUP1 DUP4 KECCAK256 SWAP4 SWAP1 SWAP4 SSTORE PUSH1 0xCC DUP2 MSTORE DUP3 DUP3 KECCAK256 DUP1 SLOAD PUSH1 0x1 DUP2 DUP2 ADD DUP4 SSTORE SWAP2 DUP5 MSTORE DUP3 DUP5 KECCAK256 DUP10 MLOAD DUP11 DUP6 ADD MLOAD PUSH1 0x1 PUSH1 0x1 PUSH1 0x80 SHL SUB SWAP1 DUP2 AND PUSH1 0x1 PUSH1 0x80 SHL MUL SWAP2 AND OR PUSH1 0x3 SWAP1 SWAP3 MUL ADD SWAP1 DUP2 SSTORE DUP9 DUP6 ADD MLOAD SWAP2 DUP2 ADD SWAP2 SWAP1 SWAP2 SSTORE PUSH1 0x60 DUP9 ADD MLOAD PUSH1 0x2 SWAP1 SWAP2 ADD SSTORE DUP10 DUP2 ADD MLOAD DUP3 MSTORE PUSH1 0xD1 DUP2 MSTORE SWAP2 SWAP1 KECCAK256 SLOAD SWAP1 DUP8 ADD MLOAD PUSH1 0xF SWAP2 SWAP1 SWAP2 SIGNEXTEND SWAP4 POP ISZERO PUSH2 0x22D2 JUMPI DUP7 PUSH1 0x20 ADD MLOAD DUP7 PUSH1 0x20 ADD MLOAD EQ ISZERO PUSH2 0x22B7 JUMPI DUP3 SWAP2 POP PUSH2 0x22D2 JUMP JUMPDEST PUSH1 0x20 DUP1 DUP8 ADD MLOAD PUSH1 0x0 SWAP1 DUP2 MSTORE PUSH1 0xD1 SWAP1 SWAP2 MSTORE PUSH1 0x40 SWAP1 KECCAK256 SLOAD PUSH1 0xF SIGNEXTEND SWAP2 POP JUMPDEST PUSH2 0x22FC DUP6 PUSH1 0x20 ADD MLOAD DUP6 PUSH1 0x20 ADD MLOAD PUSH2 0x22E9 SWAP2 SWAP1 PUSH2 0x351E JUMP JUMPDEST DUP7 MLOAD DUP7 MLOAD PUSH2 0x22F7 SWAP2 SWAP1 PUSH2 0x351E JUMP JUMPDEST PUSH2 0x25AC JUMP JUMPDEST TIMESTAMP DUP8 PUSH1 0x20 ADD MLOAD GT ISZERO PUSH2 0x2369 JUMPI PUSH1 0x20 DUP6 ADD MLOAD PUSH2 0x2317 SWAP1 DUP5 PUSH2 0x356E JUMP JUMPDEST SWAP3 POP DUP7 PUSH1 0x20 ADD MLOAD DUP7 PUSH1 0x20 ADD MLOAD EQ ISZERO PUSH2 0x233B JUMPI PUSH1 0x20 DUP5 ADD MLOAD PUSH2 0x2338 SWAP1 DUP5 PUSH2 0x351E JUMP JUMPDEST SWAP3 POP JUMPDEST PUSH1 0x20 DUP8 DUP2 ADD MLOAD PUSH1 0x0 SWAP1 DUP2 MSTORE PUSH1 0xD1 SWAP1 SWAP2 MSTORE PUSH1 0x40 SWAP1 KECCAK256 DUP1 SLOAD PUSH1 0x1 PUSH1 0x1 PUSH1 0x80 SHL SUB NOT AND PUSH1 0x1 PUSH1 0x1 PUSH1 0x80 SHL SUB DUP6 AND OR SWAP1 SSTORE JUMPDEST TIMESTAMP DUP7 PUSH1 0x20 ADD MLOAD GT ISZERO PUSH2 0x23C4 JUMPI DUP7 PUSH1 0x20 ADD MLOAD DUP7 PUSH1 0x20 ADD MLOAD GT ISZERO PUSH2 0x23C4 JUMPI PUSH1 0x20 DUP5 ADD MLOAD PUSH2 0x2394 SWAP1 DUP4 PUSH2 0x351E JUMP JUMPDEST PUSH1 0x20 DUP8 DUP2 ADD MLOAD PUSH1 0x0 SWAP1 DUP2 MSTORE PUSH1 0xD1 SWAP1 SWAP2 MSTORE PUSH1 0x40 SWAP1 KECCAK256 DUP1 SLOAD PUSH1 0x1 PUSH1 0x1 PUSH1 0x80 SHL SUB NOT AND PUSH1 0x1 PUSH1 0x1 PUSH1 0x80 SHL SUB DUP4 AND OR SWAP1 SSTORE SWAP2 POP JUMPDEST POP POP POP POP POP POP POP POP JUMP JUMPDEST PUSH1 0x0 DUP1 DUP3 DUP2 JUMPDEST PUSH1 0x80 DUP2 LT ISZERO PUSH2 0x245B JUMPI DUP2 DUP4 LT PUSH2 0x23E9 JUMPI PUSH2 0x245B JUMP JUMPDEST PUSH1 0x0 PUSH1 0x2 PUSH2 0x23F7 DUP5 DUP7 PUSH2 0x3428 JUMP JUMPDEST PUSH2 0x2402 SWAP1 PUSH1 0x1 PUSH2 0x3428 JUMP JUMPDEST PUSH2 0x240C SWAP2 SWAP1 PUSH2 0x3475 JUMP JUMPDEST SWAP1 POP DUP7 DUP9 DUP3 DUP2 MLOAD DUP2 LT PUSH2 0x2421 JUMPI PUSH2 0x2421 PUSH2 0x3249 JUMP JUMPDEST PUSH1 0x20 MUL PUSH1 0x20 ADD ADD MLOAD PUSH1 0x60 ADD MLOAD GT PUSH2 0x243A JUMPI DUP1 SWAP4 POP PUSH2 0x2448 JUMP JUMPDEST PUSH2 0x2445 PUSH1 0x1 DUP3 PUSH2 0x3232 JUMP JUMPDEST SWAP3 POP JUMPDEST POP DUP1 PUSH2 0x2453 DUP2 PUSH2 0x35BD JUMP JUMPDEST SWAP2 POP POP PUSH2 0x23D4 JUMP JUMPDEST POP SWAP1 SWAP2 POP POP JUMPDEST SWAP4 SWAP3 POP POP POP JUMP JUMPDEST PUSH1 0x0 PUSH1 0x1 PUSH1 0x1 PUSH1 0x7F SHL SUB NOT DUP3 SLT DUP1 ISZERO SWAP1 PUSH2 0x2489 JUMPI POP PUSH1 0x1 PUSH1 0x1 PUSH1 0x7F SHL SUB DUP3 SGT ISZERO JUMPDEST PUSH2 0x2027 JUMPI PUSH1 0x40 MLOAD PUSH3 0x461BCD PUSH1 0xE5 SHL DUP2 MSTORE PUSH1 0x20 PUSH1 0x4 DUP3 ADD MSTORE PUSH1 0x27 PUSH1 0x24 DUP3 ADD MSTORE PUSH32 0x53616665436173743A2076616C756520646F65736E27742066697420696E2031 PUSH1 0x44 DUP3 ADD MSTORE PUSH7 0x32382062697473 PUSH1 0xC8 SHL PUSH1 0x64 DUP3 ADD MSTORE PUSH1 0x84 ADD PUSH2 0x8E6 JUMP JUMPDEST PUSH1 0x0 DUP2 PUSH1 0xF SIGNEXTEND DUP4 PUSH1 0xF SIGNEXTEND SLT ISZERO PUSH2 0x24FB JUMPI DUP2 PUSH2 0xC0F JUMP JUMPDEST POP SWAP1 SWAP2 SWAP1 POP JUMP JUMPDEST PUSH1 0x33 DUP1 SLOAD PUSH1 0x1 PUSH1 0x1 PUSH1 0xA0 SHL SUB DUP4 DUP2 AND PUSH1 0x1 PUSH1 0x1 PUSH1 0xA0 SHL SUB NOT DUP4 AND DUP2 OR SWAP1 SWAP4 SSTORE PUSH1 0x40 MLOAD SWAP2 AND SWAP2 SWAP1 DUP3 SWAP1 PUSH32 0x8BE0079C531659141344CD1FD0A4F28419497F9722A3DAAFE3B4186F6B6457E0 SWAP1 PUSH1 0x0 SWAP1 LOG3 POP POP JUMP JUMPDEST PUSH1 0x0 PUSH3 0x93A80 PUSH2 0x2564 DUP2 DUP5 PUSH2 0x3475 JUMP JUMPDEST PUSH2 0xC12 SWAP2 SWAP1 PUSH2 0x3440 JUMP JUMPDEST PUSH1 0x40 MLOAD PUSH1 0x1 PUSH1 0x1 PUSH1 0xA0 SHL SUB DUP1 DUP6 AND PUSH1 0x24 DUP4 ADD MSTORE DUP4 AND PUSH1 0x44 DUP3 ADD MSTORE PUSH1 0x64 DUP2 ADD DUP3 SWAP1 MSTORE PUSH2 0x25A6 SWAP1 DUP6 SWAP1 PUSH4 0x23B872DD PUSH1 0xE0 SHL SWAP1 PUSH1 0x84 ADD PUSH2 0x2057 JUMP JUMPDEST POP POP POP POP JUMP JUMPDEST PUSH2 0x25B4 PUSH2 0x2ECB JUMP JUMPDEST PUSH1 0xCF SLOAD ISZERO PUSH2 0x2623 JUMPI PUSH1 0xCE PUSH1 0xCF SLOAD DUP2 SLOAD DUP2 LT PUSH2 0x25D1 JUMPI PUSH2 0x25D1 PUSH2 0x3249 JUMP JUMPDEST PUSH1 0x0 SWAP2 DUP3 MSTORE PUSH1 0x20 SWAP2 DUP3 SWAP1 KECCAK256 PUSH1 0x40 DUP1 MLOAD PUSH1 0x80 DUP2 ADD DUP3 MSTORE PUSH1 0x3 SWAP1 SWAP4 MUL SWAP1 SWAP2 ADD DUP1 SLOAD PUSH1 0xF DUP2 DUP2 SIGNEXTEND DUP6 MSTORE PUSH1 0x1 PUSH1 0x80 SHL SWAP1 SWAP2 DIV SWAP1 SIGNEXTEND SWAP4 DUP4 ADD SWAP4 SWAP1 SWAP4 MSTORE PUSH1 0x1 DUP4 ADD SLOAD SWAP1 DUP3 ADD MSTORE PUSH1 0x2 SWAP1 SWAP2 ADD SLOAD PUSH1 0x60 DUP3 ADD MSTORE SWAP1 POP PUSH2 0x2647 JUMP JUMPDEST POP PUSH1 0x40 DUP1 MLOAD PUSH1 0x80 DUP2 ADD DUP3 MSTORE PUSH1 0x0 DUP1 DUP3 MSTORE PUSH1 0x20 DUP3 ADD MSTORE TIMESTAMP SWAP2 DUP2 ADD SWAP2 SWAP1 SWAP2 MSTORE NUMBER PUSH1 0x60 DUP3 ADD MSTORE JUMPDEST PUSH1 0x40 DUP1 MLOAD PUSH1 0x80 DUP2 ADD DUP3 MSTORE PUSH1 0x0 DUP1 DUP3 MSTORE PUSH1 0x20 DUP3 ADD DUP2 SWAP1 MSTORE DUP4 DUP4 ADD DUP1 MLOAD SWAP4 DUP4 ADD SWAP4 SWAP1 SWAP4 MSTORE PUSH1 0x60 DUP1 DUP6 ADD MLOAD SWAP1 DUP4 ADD MSTORE SWAP2 MLOAD SWAP1 SWAP2 SWAP1 TIMESTAMP GT ISZERO PUSH2 0x26BC JUMPI PUSH1 0x40 DUP4 ADD MLOAD PUSH2 0x268E SWAP1 TIMESTAMP PUSH2 0x3232 JUMP JUMPDEST PUSH1 0x60 DUP5 ADD MLOAD PUSH2 0x269D SWAP1 NUMBER PUSH2 0x3232 JUMP JUMPDEST PUSH2 0x26AF SWAP1 PUSH8 0xDE0B6B3A7640000 PUSH2 0x3440 JUMP JUMPDEST PUSH2 0x26B9 SWAP2 SWAP1 PUSH2 0x3475 JUMP JUMPDEST SWAP1 POP JUMPDEST PUSH1 0x40 DUP4 ADD MLOAD PUSH1 0x0 PUSH2 0x26CC DUP3 PUSH2 0x2554 JUMP JUMPDEST SWAP1 POP PUSH1 0x0 JUMPDEST PUSH1 0xFF DUP2 LT ISZERO PUSH2 0x23C4 JUMPI PUSH2 0x26E7 PUSH3 0x93A80 DUP4 PUSH2 0x3428 JUMP JUMPDEST SWAP2 POP PUSH1 0x0 TIMESTAMP DUP4 GT ISZERO PUSH2 0x26FB JUMPI TIMESTAMP SWAP3 POP PUSH2 0x270F JUMP JUMPDEST POP PUSH1 0x0 DUP3 DUP2 MSTORE PUSH1 0xD1 PUSH1 0x20 MSTORE PUSH1 0x40 SWAP1 KECCAK256 SLOAD PUSH1 0xF SIGNEXTEND JUMPDEST PUSH1 0x0 PUSH2 0x271E PUSH2 0x1131 DUP7 DUP7 PUSH2 0x3232 JUMP JUMPDEST DUP9 PUSH1 0x20 ADD MLOAD PUSH2 0x272D SWAP2 SWAP1 PUSH2 0x3489 JUMP JUMPDEST SWAP1 POP PUSH2 0x2749 DUP2 DUP10 PUSH1 0x0 ADD MLOAD PUSH2 0x2742 SWAP2 SWAP1 PUSH2 0x351E JUMP JUMPDEST PUSH1 0x0 PUSH2 0x24E5 JUMP JUMPDEST PUSH1 0xF SIGNEXTEND DUP9 MSTORE PUSH1 0x20 DUP9 ADD MLOAD PUSH2 0x2762 SWAP1 PUSH2 0x2742 SWAP1 DUP5 SWAP1 PUSH2 0x356E JUMP JUMPDEST PUSH1 0xF SIGNEXTEND PUSH1 0x20 DUP10 ADD MSTORE PUSH1 0x40 DUP1 DUP10 ADD DUP6 SWAP1 MSTORE DUP8 ADD MLOAD SWAP4 SWAP5 POP DUP5 SWAP4 PUSH8 0xDE0B6B3A7640000 SWAP1 PUSH2 0x278E SWAP1 DUP7 PUSH2 0x3232 JUMP JUMPDEST PUSH2 0x2798 SWAP1 DUP9 PUSH2 0x3440 JUMP JUMPDEST PUSH2 0x27A2 SWAP2 SWAP1 PUSH2 0x3475 JUMP JUMPDEST DUP8 PUSH1 0x60 ADD MLOAD PUSH2 0x27B1 SWAP2 SWAP1 PUSH2 0x3428 JUMP JUMPDEST PUSH1 0x60 DUP10 ADD MSTORE PUSH1 0xCF DUP1 SLOAD PUSH1 0x1 SWAP2 SWAP1 PUSH1 0x0 SWAP1 PUSH2 0x27CC SWAP1 DUP5 SWAP1 PUSH2 0x3428 JUMP JUMPDEST SWAP1 SWAP2 SSTORE POP POP TIMESTAMP DUP5 EQ ISZERO PUSH2 0x28C2 JUMPI NUMBER PUSH1 0x60 DUP10 ADD MSTORE PUSH1 0x20 DUP9 ADD MLOAD PUSH2 0x27F3 SWAP1 PUSH2 0x2742 SWAP1 DUP13 SWAP1 PUSH2 0x356E JUMP JUMPDEST PUSH1 0xF SIGNEXTEND PUSH1 0x20 DUP10 ADD MSTORE DUP8 MLOAD PUSH2 0x280C SWAP1 PUSH2 0x2742 SWAP1 DUP12 SWAP1 PUSH2 0x356E JUMP JUMPDEST PUSH1 0xF SIGNEXTEND DUP9 MSTORE POP POP PUSH1 0xCE DUP1 SLOAD PUSH1 0x1 DUP2 ADD DUP3 SSTORE PUSH1 0x0 SWAP2 SWAP1 SWAP2 MSTORE DUP7 MLOAD PUSH1 0x20 DUP9 ADD MLOAD PUSH1 0x1 PUSH1 0x1 PUSH1 0x80 SHL SUB SWAP1 DUP2 AND PUSH1 0x1 PUSH1 0x80 SHL MUL SWAP2 AND OR PUSH1 0x3 SWAP1 SWAP2 MUL PUSH32 0xD36CD1C74EF8D7326D8021B776C18FB5A5724B7F7BC93C2F42E43E10EF27D12A DUP2 ADD SWAP2 SWAP1 SWAP2 SSTORE PUSH1 0x40 DUP8 ADD MLOAD PUSH32 0xD36CD1C74EF8D7326D8021B776C18FB5A5724B7F7BC93C2F42E43E10EF27D12B DUP3 ADD SSTORE PUSH1 0x60 DUP8 ADD MLOAD PUSH32 0xD36CD1C74EF8D7326D8021B776C18FB5A5724B7F7BC93C2F42E43E10EF27D12C SWAP1 SWAP2 ADD SSTORE PUSH2 0x23C4 JUMP JUMPDEST PUSH1 0xCE DUP1 SLOAD PUSH1 0x1 DUP2 ADD DUP3 SSTORE PUSH1 0x0 SWAP2 SWAP1 SWAP2 MSTORE DUP9 MLOAD PUSH1 0x20 DUP11 ADD MLOAD PUSH1 0x1 PUSH1 0x1 PUSH1 0x80 SHL SUB SWAP1 DUP2 AND PUSH1 0x1 PUSH1 0x80 SHL MUL SWAP2 AND OR PUSH1 0x3 SWAP1 SWAP2 MUL PUSH32 0xD36CD1C74EF8D7326D8021B776C18FB5A5724B7F7BC93C2F42E43E10EF27D12A DUP2 ADD SWAP2 SWAP1 SWAP2 SSTORE PUSH1 0x40 DUP10 ADD MLOAD PUSH32 0xD36CD1C74EF8D7326D8021B776C18FB5A5724B7F7BC93C2F42E43E10EF27D12B DUP3 ADD SSTORE PUSH1 0x60 DUP10 ADD MLOAD PUSH32 0xD36CD1C74EF8D7326D8021B776C18FB5A5724B7F7BC93C2F42E43E10EF27D12C SWAP1 SWAP2 ADD SSTORE POP POP DUP1 DUP1 PUSH2 0x2979 SWAP1 PUSH2 0x35BD JUMP JUMPDEST SWAP2 POP POP PUSH2 0x26D1 JUMP JUMPDEST PUSH1 0x0 DUP1 SLOAD PUSH2 0x100 SWAP1 DIV PUSH1 0xFF AND ISZERO PUSH2 0x29C8 JUMPI DUP2 PUSH1 0xFF AND PUSH1 0x1 EQ DUP1 ISZERO PUSH2 0x29A4 JUMPI POP ADDRESS EXTCODESIZE ISZERO JUMPDEST PUSH2 0x29C0 JUMPI PUSH1 0x40 MLOAD PUSH3 0x461BCD PUSH1 0xE5 SHL DUP2 MSTORE PUSH1 0x4 ADD PUSH2 0x8E6 SWAP1 PUSH2 0x362F JUMP JUMPDEST POP PUSH1 0x0 SWAP2 SWAP1 POP JUMP JUMPDEST PUSH1 0x0 SLOAD PUSH1 0xFF DUP1 DUP5 AND SWAP2 AND LT PUSH2 0x29EF JUMPI PUSH1 0x40 MLOAD PUSH3 0x461BCD PUSH1 0xE5 SHL DUP2 MSTORE PUSH1 0x4 ADD PUSH2 0x8E6 SWAP1 PUSH2 0x362F JUMP JUMPDEST POP PUSH1 0x0 DUP1 SLOAD PUSH1 0xFF NOT AND PUSH1 0xFF SWAP3 SWAP1 SWAP3 AND SWAP2 SWAP1 SWAP2 OR SWAP1 SSTORE PUSH1 0x1 SWAP1 JUMP JUMPDEST SWAP2 SWAP1 POP JUMP JUMPDEST PUSH1 0x0 SLOAD PUSH2 0x100 SWAP1 DIV PUSH1 0xFF AND PUSH2 0x2A35 JUMPI PUSH1 0x40 MLOAD PUSH3 0x461BCD PUSH1 0xE5 SHL DUP2 MSTORE PUSH1 0x4 ADD PUSH2 0x8E6 SWAP1 PUSH2 0x367D JUMP JUMPDEST PUSH2 0x1461 PUSH2 0x2BF7 JUMP JUMPDEST PUSH1 0x0 SLOAD PUSH2 0x100 SWAP1 DIV PUSH1 0xFF AND PUSH2 0x1461 JUMPI PUSH1 0x40 MLOAD PUSH3 0x461BCD PUSH1 0xE5 SHL DUP2 MSTORE PUSH1 0x4 ADD PUSH2 0x8E6 SWAP1 PUSH2 0x367D JUMP JUMPDEST PUSH1 0x1 PUSH1 0x1 PUSH1 0xA0 SHL SUB DUP2 AND EXTCODESIZE PUSH2 0x2AD1 JUMPI PUSH1 0x40 MLOAD PUSH3 0x461BCD PUSH1 0xE5 SHL DUP2 MSTORE PUSH1 0x20 PUSH1 0x4 DUP3 ADD MSTORE PUSH1 0x2D PUSH1 0x24 DUP3 ADD MSTORE PUSH32 0x455243313936373A206E657720696D706C656D656E746174696F6E206973206E PUSH1 0x44 DUP3 ADD MSTORE PUSH13 0x1BDD08184818DBDB9D1C9858DD PUSH1 0x9A SHL PUSH1 0x64 DUP3 ADD MSTORE PUSH1 0x84 ADD PUSH2 0x8E6 JUMP JUMPDEST PUSH1 0x0 DUP1 MLOAD PUSH1 0x20 PUSH2 0x3707 DUP4 CODECOPY DUP2 MLOAD SWAP2 MSTORE DUP1 SLOAD PUSH1 0x1 PUSH1 0x1 PUSH1 0xA0 SHL SUB NOT AND PUSH1 0x1 PUSH1 0x1 PUSH1 0xA0 SHL SUB SWAP3 SWAP1 SWAP3 AND SWAP2 SWAP1 SWAP2 OR SWAP1 SSTORE JUMP JUMPDEST PUSH2 0x2B09 DUP4 PUSH2 0x2C27 JUMP JUMPDEST PUSH1 0x0 DUP3 MLOAD GT DUP1 PUSH2 0x2B16 JUMPI POP DUP1 JUMPDEST ISZERO PUSH2 0x1E98 JUMPI PUSH2 0x25A6 DUP4 DUP4 PUSH2 0x2C67 JUMP JUMPDEST PUSH1 0x0 PUSH2 0x2B7A DUP3 PUSH1 0x40 MLOAD DUP1 PUSH1 0x40 ADD PUSH1 0x40 MSTORE DUP1 PUSH1 0x20 DUP2 MSTORE PUSH1 0x20 ADD PUSH32 0x5361666545524332303A206C6F772D6C6576656C2063616C6C206661696C6564 DUP2 MSTORE POP DUP6 PUSH1 0x1 PUSH1 0x1 PUSH1 0xA0 SHL SUB AND PUSH2 0x2D52 SWAP1 SWAP3 SWAP2 SWAP1 PUSH4 0xFFFFFFFF AND JUMP JUMPDEST DUP1 MLOAD SWAP1 SWAP2 POP ISZERO PUSH2 0x1E98 JUMPI DUP1 DUP1 PUSH1 0x20 ADD SWAP1 MLOAD DUP2 ADD SWAP1 PUSH2 0x2B98 SWAP2 SWAP1 PUSH2 0x36C8 JUMP JUMPDEST PUSH2 0x1E98 JUMPI PUSH1 0x40 MLOAD PUSH3 0x461BCD PUSH1 0xE5 SHL DUP2 MSTORE PUSH1 0x20 PUSH1 0x4 DUP3 ADD MSTORE PUSH1 0x2A PUSH1 0x24 DUP3 ADD MSTORE PUSH32 0x5361666545524332303A204552433230206F7065726174696F6E20646964206E PUSH1 0x44 DUP3 ADD MSTORE PUSH10 0x1BDD081CDD58D8D95959 PUSH1 0xB2 SHL PUSH1 0x64 DUP3 ADD MSTORE PUSH1 0x84 ADD PUSH2 0x8E6 JUMP JUMPDEST PUSH1 0x0 SLOAD PUSH2 0x100 SWAP1 DIV PUSH1 0xFF AND PUSH2 0x2C1E JUMPI PUSH1 0x40 MLOAD PUSH3 0x461BCD PUSH1 0xE5 SHL DUP2 MSTORE PUSH1 0x4 ADD PUSH2 0x8E6 SWAP1 PUSH2 0x367D JUMP JUMPDEST PUSH2 0x1461 CALLER PUSH2 0x2502 JUMP JUMPDEST PUSH2 0x2C30 DUP2 PUSH2 0x2A64 JUMP JUMPDEST PUSH1 0x40 MLOAD PUSH1 0x1 PUSH1 0x1 PUSH1 0xA0 SHL SUB DUP3 AND SWAP1 PUSH32 0xBC7CD75A20EE27FD9ADEBAB32041F755214DBC6BFFA90CC0225B39DA2E5C2D3B SWAP1 PUSH1 0x0 SWAP1 LOG2 POP JUMP JUMPDEST PUSH1 0x60 PUSH1 0x1 PUSH1 0x1 PUSH1 0xA0 SHL SUB DUP4 AND EXTCODESIZE PUSH2 0x2CCF JUMPI PUSH1 0x40 MLOAD PUSH3 0x461BCD PUSH1 0xE5 SHL DUP2 MSTORE PUSH1 0x20 PUSH1 0x4 DUP3 ADD MSTORE PUSH1 0x26 PUSH1 0x24 DUP3 ADD MSTORE PUSH32 0x416464726573733A2064656C65676174652063616C6C20746F206E6F6E2D636F PUSH1 0x44 DUP3 ADD MSTORE PUSH6 0x1B9D1C9858DD PUSH1 0xD2 SHL PUSH1 0x64 DUP3 ADD MSTORE PUSH1 0x84 ADD PUSH2 0x8E6 JUMP JUMPDEST PUSH1 0x0 DUP1 DUP5 PUSH1 0x1 PUSH1 0x1 PUSH1 0xA0 SHL SUB AND DUP5 PUSH1 0x40 MLOAD PUSH2 0x2CEA SWAP2 SWAP1 PUSH2 0x36EA JUMP JUMPDEST PUSH1 0x0 PUSH1 0x40 MLOAD DUP1 DUP4 SUB DUP2 DUP6 GAS DELEGATECALL SWAP2 POP POP RETURNDATASIZE DUP1 PUSH1 0x0 DUP2 EQ PUSH2 0x2D25 JUMPI PUSH1 0x40 MLOAD SWAP2 POP PUSH1 0x1F NOT PUSH1 0x3F RETURNDATASIZE ADD AND DUP3 ADD PUSH1 0x40 MSTORE RETURNDATASIZE DUP3 MSTORE RETURNDATASIZE PUSH1 0x0 PUSH1 0x20 DUP5 ADD RETURNDATACOPY PUSH2 0x2D2A JUMP JUMPDEST PUSH1 0x60 SWAP2 POP JUMPDEST POP SWAP2 POP SWAP2 POP PUSH2 0x1791 DUP3 DUP3 PUSH1 0x40 MLOAD DUP1 PUSH1 0x60 ADD PUSH1 0x40 MSTORE DUP1 PUSH1 0x27 DUP2 MSTORE PUSH1 0x20 ADD PUSH2 0x3727 PUSH1 0x27 SWAP2 CODECOPY PUSH2 0x2D61 JUMP JUMPDEST PUSH1 0x60 PUSH2 0x1425 DUP5 DUP5 PUSH1 0x0 DUP6 PUSH2 0x2D9A JUMP JUMPDEST PUSH1 0x60 DUP4 ISZERO PUSH2 0x2D70 JUMPI POP DUP2 PUSH2 0x2461 JUMP JUMPDEST DUP3 MLOAD ISZERO PUSH2 0x2D80 JUMPI DUP3 MLOAD DUP1 DUP5 PUSH1 0x20 ADD REVERT JUMPDEST DUP2 PUSH1 0x40 MLOAD PUSH3 0x461BCD PUSH1 0xE5 SHL DUP2 MSTORE PUSH1 0x4 ADD PUSH2 0x8E6 SWAP2 SWAP1 PUSH2 0x2FB5 JUMP JUMPDEST PUSH1 0x60 DUP3 SELFBALANCE LT ISZERO PUSH2 0x2DFB JUMPI PUSH1 0x40 MLOAD PUSH3 0x461BCD PUSH1 0xE5 SHL DUP2 MSTORE PUSH1 0x20 PUSH1 0x4 DUP3 ADD MSTORE PUSH1 0x26 PUSH1 0x24 DUP3 ADD MSTORE PUSH32 0x416464726573733A20696E73756666696369656E742062616C616E636520666F PUSH1 0x44 DUP3 ADD MSTORE PUSH6 0x1C8818D85B1B PUSH1 0xD2 SHL PUSH1 0x64 DUP3 ADD MSTORE PUSH1 0x84 ADD PUSH2 0x8E6 JUMP JUMPDEST PUSH1 0x1 PUSH1 0x1 PUSH1 0xA0 SHL SUB DUP6 AND EXTCODESIZE PUSH2 0x2E52 JUMPI PUSH1 0x40 MLOAD PUSH3 0x461BCD PUSH1 0xE5 SHL DUP2 MSTORE PUSH1 0x20 PUSH1 0x4 DUP3 ADD MSTORE PUSH1 0x1D PUSH1 0x24 DUP3 ADD MSTORE PUSH32 0x416464726573733A2063616C6C20746F206E6F6E2D636F6E7472616374000000 PUSH1 0x44 DUP3 ADD MSTORE PUSH1 0x64 ADD PUSH2 0x8E6 JUMP JUMPDEST PUSH1 0x0 DUP1 DUP7 PUSH1 0x1 PUSH1 0x1 PUSH1 0xA0 SHL SUB AND DUP6 DUP8 PUSH1 0x40 MLOAD PUSH2 0x2E6E SWAP2 SWAP1 PUSH2 0x36EA JUMP JUMPDEST PUSH1 0x0 PUSH1 0x40 MLOAD DUP1 DUP4 SUB DUP2 DUP6 DUP8 GAS CALL SWAP3 POP POP POP RETURNDATASIZE DUP1 PUSH1 0x0 DUP2 EQ PUSH2 0x2EAB JUMPI PUSH1 0x40 MLOAD SWAP2 POP PUSH1 0x1F NOT PUSH1 0x3F RETURNDATASIZE ADD AND DUP3 ADD PUSH1 0x40 MSTORE RETURNDATASIZE DUP3 MSTORE RETURNDATASIZE PUSH1 0x0 PUSH1 0x20 DUP5 ADD RETURNDATACOPY PUSH2 0x2EB0 JUMP JUMPDEST PUSH1 0x60 SWAP2 POP JUMPDEST POP SWAP2 POP SWAP2 POP PUSH2 0x2EC0 DUP3 DUP3 DUP7 PUSH2 0x2D61 JUMP JUMPDEST SWAP8 SWAP7 POP POP POP POP POP POP POP JUMP JUMPDEST PUSH1 0x40 MLOAD DUP1 PUSH1 0x80 ADD PUSH1 0x40 MSTORE DUP1 PUSH1 0x0 PUSH1 0xF SIGNEXTEND DUP2 MSTORE PUSH1 0x20 ADD PUSH1 0x0 PUSH1 0xF SIGNEXTEND DUP2 MSTORE PUSH1 0x20 ADD PUSH1 0x0 DUP2 MSTORE PUSH1 0x20 ADD PUSH1 0x0 DUP2 MSTORE POP SWAP1 JUMP JUMPDEST DUP3 DUP1 SLOAD PUSH2 0x2F05 SWAP1 PUSH2 0x31E1 JUMP JUMPDEST SWAP1 PUSH1 0x0 MSTORE PUSH1 0x20 PUSH1 0x0 KECCAK256 SWAP1 PUSH1 0x1F ADD PUSH1 0x20 SWAP1 DIV DUP2 ADD SWAP3 DUP3 PUSH2 0x2F27 JUMPI PUSH1 0x0 DUP6 SSTORE PUSH2 0x2F6D JUMP JUMPDEST DUP3 PUSH1 0x1F LT PUSH2 0x2F40 JUMPI DUP1 MLOAD PUSH1 0xFF NOT AND DUP4 DUP1 ADD OR DUP6 SSTORE PUSH2 0x2F6D JUMP JUMPDEST DUP3 DUP1 ADD PUSH1 0x1 ADD DUP6 SSTORE DUP3 ISZERO PUSH2 0x2F6D JUMPI SWAP2 DUP3 ADD JUMPDEST DUP3 DUP2 GT ISZERO PUSH2 0x2F6D JUMPI DUP3 MLOAD DUP3 SSTORE SWAP2 PUSH1 0x20 ADD SWAP2 SWAP1 PUSH1 0x1 ADD SWAP1 PUSH2 0x2F52 JUMP JUMPDEST POP PUSH2 0x2027 SWAP3 SWAP2 POP JUMPDEST DUP1 DUP3 GT ISZERO PUSH2 0x2027 JUMPI PUSH1 0x0 DUP2 SSTORE PUSH1 0x1 ADD PUSH2 0x2F75 JUMP JUMPDEST PUSH1 0x0 JUMPDEST DUP4 DUP2 LT ISZERO PUSH2 0x2FA4 JUMPI DUP2 DUP2 ADD MLOAD DUP4 DUP3 ADD MSTORE PUSH1 0x20 ADD PUSH2 0x2F8C JUMP JUMPDEST DUP4 DUP2 GT ISZERO PUSH2 0x25A6 JUMPI POP POP PUSH1 0x0 SWAP2 ADD MSTORE JUMP JUMPDEST PUSH1 0x20 DUP2 MSTORE PUSH1 0x0 DUP3 MLOAD DUP1 PUSH1 0x20 DUP5 ADD MSTORE PUSH2 0x2FD4 DUP2 PUSH1 0x40 DUP6 ADD PUSH1 0x20 DUP8 ADD PUSH2 0x2F89 JUMP JUMPDEST PUSH1 0x1F ADD PUSH1 0x1F NOT AND SWAP2 SWAP1 SWAP2 ADD PUSH1 0x40 ADD SWAP3 SWAP2 POP POP JUMP JUMPDEST DUP1 CALLDATALOAD PUSH1 0x1 PUSH1 0x1 PUSH1 0xA0 SHL SUB DUP2 AND DUP2 EQ PUSH2 0x2A09 JUMPI PUSH1 0x0 DUP1 REVERT JUMPDEST PUSH1 0x0 PUSH1 0x20 DUP3 DUP5 SUB SLT ISZERO PUSH2 0x3011 JUMPI PUSH1 0x0 DUP1 REVERT JUMPDEST PUSH2 0xC0F DUP3 PUSH2 0x2FE8 JUMP JUMPDEST PUSH1 0x0 DUP1 PUSH1 0x40 DUP4 DUP6 SUB SLT ISZERO PUSH2 0x302D JUMPI PUSH1 0x0 DUP1 REVERT JUMPDEST PUSH2 0x3036 DUP4 PUSH2 0x2FE8 JUMP JUMPDEST SWAP5 PUSH1 0x20 SWAP4 SWAP1 SWAP4 ADD CALLDATALOAD SWAP4 POP POP POP JUMP JUMPDEST PUSH4 0x4E487B71 PUSH1 0xE0 SHL PUSH1 0x0 MSTORE PUSH1 0x41 PUSH1 0x4 MSTORE PUSH1 0x24 PUSH1 0x0 REVERT JUMPDEST PUSH1 0x40 MLOAD PUSH1 0x1F DUP3 ADD PUSH1 0x1F NOT AND DUP2 ADD PUSH8 0xFFFFFFFFFFFFFFFF DUP2 GT DUP3 DUP3 LT OR ISZERO PUSH2 0x3083 JUMPI PUSH2 0x3083 PUSH2 0x3044 JUMP JUMPDEST PUSH1 0x40 MSTORE SWAP2 SWAP1 POP JUMP JUMPDEST PUSH1 0x0 PUSH8 0xFFFFFFFFFFFFFFFF DUP3 GT ISZERO PUSH2 0x30A5 JUMPI PUSH2 0x30A5 PUSH2 0x3044 JUMP JUMPDEST POP PUSH1 0x1F ADD PUSH1 0x1F NOT AND PUSH1 0x20 ADD SWAP1 JUMP JUMPDEST PUSH1 0x0 DUP1 PUSH1 0x40 DUP4 DUP6 SUB SLT ISZERO PUSH2 0x30C6 JUMPI PUSH1 0x0 DUP1 REVERT JUMPDEST PUSH2 0x30CF DUP4 PUSH2 0x2FE8 JUMP JUMPDEST SWAP2 POP PUSH1 0x20 DUP4 ADD CALLDATALOAD PUSH8 0xFFFFFFFFFFFFFFFF DUP2 GT ISZERO PUSH2 0x30EB JUMPI PUSH1 0x0 DUP1 REVERT JUMPDEST DUP4 ADD PUSH1 0x1F DUP2 ADD DUP6 SGT PUSH2 0x30FC JUMPI PUSH1 0x0 DUP1 REVERT JUMPDEST DUP1 CALLDATALOAD PUSH2 0x310F PUSH2 0x310A DUP3 PUSH2 0x308B JUMP JUMPDEST PUSH2 0x305A JUMP JUMPDEST DUP2 DUP2 MSTORE DUP7 PUSH1 0x20 DUP4 DUP6 ADD ADD GT ISZERO PUSH2 0x3124 JUMPI PUSH1 0x0 DUP1 REVERT JUMPDEST DUP2 PUSH1 0x20 DUP5 ADD PUSH1 0x20 DUP4 ADD CALLDATACOPY PUSH1 0x0 PUSH1 0x20 DUP4 DUP4 ADD ADD MSTORE DUP1 SWAP4 POP POP POP POP SWAP3 POP SWAP3 SWAP1 POP JUMP JUMPDEST DUP1 CALLDATALOAD PUSH4 0xFFFFFFFF DUP2 AND DUP2 EQ PUSH2 0x2A09 JUMPI PUSH1 0x0 DUP1 REVERT JUMPDEST PUSH1 0x0 PUSH1 0x20 DUP3 DUP5 SUB SLT ISZERO PUSH2 0x316A JUMPI PUSH1 0x0 DUP1 REVERT JUMPDEST PUSH2 0xC0F DUP3 PUSH2 0x3144 JUMP JUMPDEST PUSH1 0x0 PUSH1 0x20 DUP3 DUP5 SUB SLT ISZERO PUSH2 0x3185 JUMPI PUSH1 0x0 DUP1 REVERT JUMPDEST POP CALLDATALOAD SWAP2 SWAP1 POP JUMP JUMPDEST PUSH1 0x0 DUP1 PUSH1 0x40 DUP4 DUP6 SUB SLT ISZERO PUSH2 0x319F JUMPI PUSH1 0x0 DUP1 REVERT JUMPDEST POP POP DUP1 CALLDATALOAD SWAP3 PUSH1 0x20 SWAP1 SWAP2 ADD CALLDATALOAD SWAP2 POP JUMP JUMPDEST PUSH1 0x0 DUP1 PUSH1 0x40 DUP4 DUP6 SUB SLT ISZERO PUSH2 0x31C1 JUMPI PUSH1 0x0 DUP1 REVERT JUMPDEST PUSH2 0x31CA DUP4 PUSH2 0x2FE8 JUMP JUMPDEST SWAP2 POP PUSH2 0x31D8 PUSH1 0x20 DUP5 ADD PUSH2 0x3144 JUMP JUMPDEST SWAP1 POP SWAP3 POP SWAP3 SWAP1 POP JUMP JUMPDEST PUSH1 0x1 DUP2 DUP2 SHR SWAP1 DUP3 AND DUP1 PUSH2 0x31F5 JUMPI PUSH1 0x7F DUP3 AND SWAP2 POP JUMPDEST PUSH1 0x20 DUP3 LT DUP2 EQ ISZERO PUSH2 0x3216 JUMPI PUSH4 0x4E487B71 PUSH1 0xE0 SHL PUSH1 0x0 MSTORE PUSH1 0x22 PUSH1 0x4 MSTORE PUSH1 0x24 PUSH1 0x0 REVERT JUMPDEST POP SWAP2 SWAP1 POP JUMP JUMPDEST PUSH4 0x4E487B71 PUSH1 0xE0 SHL PUSH1 0x0 MSTORE PUSH1 0x11 PUSH1 0x4 MSTORE PUSH1 0x24 PUSH1 0x0 REVERT JUMPDEST PUSH1 0x0 DUP3 DUP3 LT ISZERO PUSH2 0x3244 JUMPI PUSH2 0x3244 PUSH2 0x321C JUMP JUMPDEST POP SUB SWAP1 JUMP JUMPDEST PUSH4 0x4E487B71 PUSH1 0xE0 SHL PUSH1 0x0 MSTORE PUSH1 0x32 PUSH1 0x4 MSTORE PUSH1 0x24 PUSH1 0x0 REVERT JUMPDEST PUSH1 0x20 DUP1 DUP3 MSTORE DUP2 DUP2 ADD MSTORE PUSH32 0x4F776E61626C653A2063616C6C6572206973206E6F7420746865206F776E6572 PUSH1 0x40 DUP3 ADD MSTORE PUSH1 0x60 ADD SWAP1 JUMP JUMPDEST PUSH1 0x0 PUSH1 0x20 DUP3 DUP5 SUB SLT ISZERO PUSH2 0x32A6 JUMPI PUSH1 0x0 DUP1 REVERT JUMPDEST DUP2 MLOAD PUSH8 0xFFFFFFFFFFFFFFFF DUP2 GT ISZERO PUSH2 0x32BD JUMPI PUSH1 0x0 DUP1 REVERT JUMPDEST DUP3 ADD PUSH1 0x1F DUP2 ADD DUP5 SGT PUSH2 0x32CE JUMPI PUSH1 0x0 DUP1 REVERT JUMPDEST DUP1 MLOAD PUSH2 0x32DC PUSH2 0x310A DUP3 PUSH2 0x308B JUMP JUMPDEST DUP2 DUP2 MSTORE DUP6 PUSH1 0x20 DUP4 DUP6 ADD ADD GT ISZERO PUSH2 0x32F1 JUMPI PUSH1 0x0 DUP1 REVERT JUMPDEST PUSH2 0x1791 DUP3 PUSH1 0x20 DUP4 ADD PUSH1 0x20 DUP7 ADD PUSH2 0x2F89 JUMP JUMPDEST PUSH1 0x0 DUP4 MLOAD PUSH2 0x3314 DUP2 DUP5 PUSH1 0x20 DUP9 ADD PUSH2 0x2F89 JUMP JUMPDEST PUSH1 0x1 PUSH1 0xFD SHL SWAP1 DUP4 ADD SWAP1 DUP2 MSTORE DUP4 MLOAD PUSH2 0x3332 DUP2 PUSH1 0x1 DUP5 ADD PUSH1 0x20 DUP9 ADD PUSH2 0x2F89 JUMP JUMPDEST ADD PUSH1 0x1 ADD SWAP5 SWAP4 POP POP POP POP JUMP JUMPDEST PUSH1 0x0 DUP4 MLOAD PUSH2 0x3350 DUP2 DUP5 PUSH1 0x20 DUP9 ADD PUSH2 0x2F89 JUMP JUMPDEST DUP4 MLOAD SWAP1 DUP4 ADD SWAP1 PUSH2 0x3364 DUP2 DUP4 PUSH1 0x20 DUP9 ADD PUSH2 0x2F89 JUMP JUMPDEST ADD SWAP5 SWAP4 POP POP POP POP JUMP JUMPDEST PUSH1 0x0 PUSH1 0x20 DUP3 DUP5 SUB SLT ISZERO PUSH2 0x337F JUMPI PUSH1 0x0 DUP1 REVERT JUMPDEST DUP2 MLOAD PUSH1 0xFF DUP2 AND DUP2 EQ PUSH2 0x2461 JUMPI PUSH1 0x0 DUP1 REVERT JUMPDEST PUSH1 0x20 DUP1 DUP3 MSTORE PUSH1 0x2C SWAP1 DUP3 ADD MSTORE PUSH32 0x46756E6374696F6E206D7573742062652063616C6C6564207468726F75676820 PUSH1 0x40 DUP3 ADD MSTORE PUSH12 0x19195B1959D85D1958D85B1B PUSH1 0xA2 SHL PUSH1 0x60 DUP3 ADD MSTORE PUSH1 0x80 ADD SWAP1 JUMP JUMPDEST PUSH1 0x20 DUP1 DUP3 MSTORE PUSH1 0x2C SWAP1 DUP3 ADD MSTORE PUSH32 0x46756E6374696F6E206D7573742062652063616C6C6564207468726F75676820 PUSH1 0x40 DUP3 ADD MSTORE PUSH12 0x6163746976652070726F7879 PUSH1 0xA0 SHL PUSH1 0x60 DUP3 ADD MSTORE PUSH1 0x80 ADD SWAP1 JUMP JUMPDEST PUSH1 0x0 DUP3 NOT DUP3 GT ISZERO PUSH2 0x343B JUMPI PUSH2 0x343B PUSH2 0x321C JUMP JUMPDEST POP ADD SWAP1 JUMP JUMPDEST PUSH1 0x0 DUP2 PUSH1 0x0 NOT DIV DUP4 GT DUP3 ISZERO ISZERO AND ISZERO PUSH2 0x345A JUMPI PUSH2 0x345A PUSH2 0x321C JUMP JUMPDEST POP MUL SWAP1 JUMP JUMPDEST PUSH4 0x4E487B71 PUSH1 0xE0 SHL PUSH1 0x0 MSTORE PUSH1 0x12 PUSH1 0x4 MSTORE PUSH1 0x24 PUSH1 0x0 REVERT JUMPDEST PUSH1 0x0 DUP3 PUSH2 0x3484 JUMPI PUSH2 0x3484 PUSH2 0x345F JUMP JUMPDEST POP DIV SWAP1 JUMP JUMPDEST PUSH1 0x0 DUP2 PUSH1 0xF SIGNEXTEND DUP4 PUSH1 0xF SIGNEXTEND PUSH1 0x1 PUSH1 0x1 PUSH1 0x7F SHL SUB PUSH1 0x0 DUP3 SGT PUSH1 0x0 DUP5 SGT DUP4 DUP4 DIV DUP6 GT DUP3 DUP3 AND AND ISZERO PUSH2 0x34B9 JUMPI PUSH2 0x34B9 PUSH2 0x321C JUMP JUMPDEST PUSH1 0x1 PUSH1 0x1 PUSH1 0x7F SHL SUB NOT PUSH1 0x0 DUP6 SLT DUP3 DUP2 AND DUP8 DUP4 SDIV DUP8 SLT AND ISZERO PUSH2 0x34DC JUMPI PUSH2 0x34DC PUSH2 0x321C JUMP JUMPDEST PUSH1 0x0 DUP8 SLT SWAP3 POP DUP6 DUP3 SDIV DUP8 SLT DUP5 DUP5 AND AND ISZERO PUSH2 0x34F8 JUMPI PUSH2 0x34F8 PUSH2 0x321C JUMP JUMPDEST DUP6 DUP6 SDIV DUP8 SLT DUP2 DUP5 AND AND ISZERO PUSH2 0x350E JUMPI PUSH2 0x350E PUSH2 0x321C JUMP JUMPDEST POP POP POP SWAP3 SWAP1 SWAP2 MUL SWAP6 SWAP5 POP POP POP POP POP JUMP JUMPDEST PUSH1 0x0 DUP2 PUSH1 0xF SIGNEXTEND DUP4 PUSH1 0xF SIGNEXTEND PUSH1 0x0 DUP2 SLT DUP2 PUSH1 0x1 PUSH1 0x1 PUSH1 0x7F SHL SUB NOT ADD DUP4 SLT DUP2 ISZERO AND ISZERO PUSH2 0x3549 JUMPI PUSH2 0x3549 PUSH2 0x321C JUMP JUMPDEST DUP2 PUSH1 0x1 PUSH1 0x1 PUSH1 0x7F SHL SUB ADD DUP4 SGT DUP2 AND ISZERO PUSH2 0x3564 JUMPI PUSH2 0x3564 PUSH2 0x321C JUMP JUMPDEST POP SWAP1 SUB SWAP4 SWAP3 POP POP POP JUMP JUMPDEST PUSH1 0x0 DUP2 PUSH1 0xF SIGNEXTEND DUP4 PUSH1 0xF SIGNEXTEND PUSH1 0x0 DUP3 SLT DUP3 PUSH1 0x1 PUSH1 0x1 PUSH1 0x7F SHL SUB SUB DUP3 SGT DUP2 ISZERO AND ISZERO PUSH2 0x3598 JUMPI PUSH2 0x3598 PUSH2 0x321C JUMP JUMPDEST DUP3 PUSH1 0x1 PUSH1 0x1 PUSH1 0x7F SHL SUB NOT SUB DUP3 SLT DUP2 AND ISZERO PUSH2 0x35B4 JUMPI PUSH2 0x35B4 PUSH2 0x321C JUMP JUMPDEST POP ADD SWAP4 SWAP3 POP POP POP JUMP JUMPDEST PUSH1 0x0 PUSH1 0x0 NOT DUP3 EQ ISZERO PUSH2 0x35D1 JUMPI PUSH2 0x35D1 PUSH2 0x321C JUMP JUMPDEST POP PUSH1 0x1 ADD SWAP1 JUMP JUMPDEST PUSH1 0x0 PUSH1 0x20 DUP3 DUP5 SUB SLT ISZERO PUSH2 0x35EA JUMPI PUSH1 0x0 DUP1 REVERT JUMPDEST POP MLOAD SWAP2 SWAP1 POP JUMP JUMPDEST PUSH1 0x0 DUP2 PUSH1 0xF SIGNEXTEND DUP4 PUSH1 0xF SIGNEXTEND DUP1 PUSH2 0x3608 JUMPI PUSH2 0x3608 PUSH2 0x345F JUMP JUMPDEST PUSH1 0x1 PUSH1 0x1 PUSH1 0x7F SHL SUB NOT DUP3 EQ PUSH1 0x0 NOT DUP3 EQ AND ISZERO PUSH2 0x3626 JUMPI PUSH2 0x3626 PUSH2 0x321C JUMP JUMPDEST SWAP1 SDIV SWAP4 SWAP3 POP POP POP JUMP JUMPDEST PUSH1 0x20 DUP1 DUP3 MSTORE PUSH1 0x2E SWAP1 DUP3 ADD MSTORE PUSH32 0x496E697469616C697A61626C653A20636F6E747261637420697320616C726561 PUSH1 0x40 DUP3 ADD MSTORE PUSH14 0x191E481A5B9A5D1A585B1A5E9959 PUSH1 0x92 SHL PUSH1 0x60 DUP3 ADD MSTORE PUSH1 0x80 ADD SWAP1 JUMP JUMPDEST PUSH1 0x20 DUP1 DUP3 MSTORE PUSH1 0x2B SWAP1 DUP3 ADD MSTORE PUSH32 0x496E697469616C697A61626C653A20636F6E7472616374206973206E6F742069 PUSH1 0x40 DUP3 ADD MSTORE PUSH11 0x6E697469616C697A696E67 PUSH1 0xA8 SHL PUSH1 0x60 DUP3 ADD MSTORE PUSH1 0x80 ADD SWAP1 JUMP JUMPDEST PUSH1 0x0 PUSH1 0x20 DUP3 DUP5 SUB SLT ISZERO PUSH2 0x36DA JUMPI PUSH1 0x0 DUP1 REVERT JUMPDEST DUP2 MLOAD DUP1 ISZERO ISZERO DUP2 EQ PUSH2 0x2461 JUMPI PUSH1 0x0 DUP1 REVERT JUMPDEST PUSH1 0x0 DUP3 MLOAD PUSH2 0x36FC DUP2 DUP5 PUSH1 0x20 DUP8 ADD PUSH2 0x2F89 JUMP JUMPDEST SWAP2 SWAP1 SWAP2 ADD SWAP3 SWAP2 POP POP JUMP INVALID CALLDATASIZE ADDMOD SWAP5 LOG1 EXTCODESIZE LOG1 LOG3 0x21 MOD PUSH8 0xC828492DB98DCA3E KECCAK256 PUSH23 0xCC3735A920A3CA505D382BBC416464726573733A206C6F PUSH24 0x2D6C6576656C2064656C65676174652063616C6C20666169 PUSH13 0x6564A264697066735822122022 0xB1 INVALID EXTCODESIZE EXTCODEHASH 0xD6 0xC0 KECCAK256 0xEB 0xC3 0xAC 0xB1 PUSH13 0x71DC43076501CECE086E04DE04 0xAB BYTE BASEFEE PUSH14 0x728664736F6C634300080B003300 ","sha1":"138a59dc95c6cce4f111476e9c9a9b582e56c6e7","source":"// SPDX-License-Identifier: MIT\n\n// Inspired by the Curve.fi VotingEscrow contract and the mStable Solidity fork.\n//    - Adds compatability with the OpenZeppelin governance stack (4.5.0)\n//    - Removes the separate lockup amount and lockup duration extension functions info\n//      favour of a single function for create or update.\n//    - Adds an deprecate mechanism for removing all voting power and allowing users too\n//      withdraw lockups\n//\n// References:\n//   - https://github.com/curvefi/curve-dao-contracts/blob/master/contracts/VotingEscrow.vy\n//   - https://github.com/mstable/mStable-contracts/blob/master/contracts/governance/IncentivisedVotingLockup.sol\n\npragma solidity ^0.8.4;\n\nimport \"OpenZeppelin/openzeppelin-contracts@02fcc75bb7f35376c22def91b0fb9bc7a50b9458/contracts/token/ERC20/ERC20.sol\";\nimport \"OpenZeppelin/openzeppelin-contracts@02fcc75bb7f35376c22def91b0fb9bc7a50b9458/contracts/utils/math/SafeCast.sol\";\nimport \"OpenZeppelin/openzeppelin-contracts@02fcc75bb7f35376c22def91b0fb9bc7a50b9458/contracts/token/ERC20/utils/SafeERC20.sol\";\nimport \"OpenZeppelin/openzeppelin-contracts@02fcc75bb7f35376c22def91b0fb9bc7a50b9458/contracts/utils/Strings.sol\";\nimport \"OpenZeppelin/openzeppelin-contracts-upgradeable@a16f26a063cd018c4c986832c3df332a131f53b9/contracts/access/OwnableUpgradeable.sol\";\nimport \"OpenZeppelin/openzeppelin-contracts-upgradeable@a16f26a063cd018c4c986832c3df332a131f53b9/contracts/proxy/utils/Initializable.sol\";\nimport \"OpenZeppelin/openzeppelin-contracts-upgradeable@a16f26a063cd018c4c986832c3df332a131f53b9/contracts/proxy/utils/UUPSUpgradeable.sol\";\n\ncontract VoteLockerCurve is Initializable, OwnableUpgradeable, UUPSUpgradeable {\n    using SafeERC20 for ERC20;\n\n    ///@notice Emitted when a lockup is created\n    event LockupCreated(\n        address indexed provider,\n        int128 amount,\n        uint256 end,\n        uint256 ts\n    );\n    ///@notice Emitted when an existing lockup is changed\n    event LockupUpdated(\n        address indexed provider,\n        int128 oldAmount,\n        uint256 oldEnd,\n        int128 amount,\n        uint256 end,\n        uint256 ts\n    );\n    ///@notice Emitted when a user withdraws from an expired lockup\n    event Withdraw(address indexed provider, uint256 value, uint256 ts);\n\n    ///@notice ERC20 parameters\n    string private _name;\n    string private _symbol;\n    uint8 private _decimals;\n\n    ///@notice Definition of a week\n    uint256 private constant WEEK = 7 days;\n    ///@notice Maximum lock time\n    uint256 public constant MAX_LOCK_TIME = 4 * 365 * 86400; // 4 years\n\n    /*\n     * Voting power of locked tokens decreases over time in linear fashion. And can be represented\n     * by the initial (at the lock time) voting power (bias) and decrease rate (slope), at some point in time\n     * (block number / timestamp). Structure holding that information is called a Checkpoint (user\n     * checkpoint more accurately - represented by Alice/Bob function below).\n     *\n     * When trying to determine the voting power of all accounts at some point in time (e.g. when fetching\n     * total supply) it wouldn't be gas cost effective to loop over all accounts and fetch their voting\n     * power. For that reason we maintain a combined voting power of all users (represented by the Global\n     * function below). The function is represented by a combination of a Checkpoint structure and multiple slope\n     * changes. Slope changes mark when a voting power of one or more users reaches zero since that\n     * is the moment when combined function slope becomes less steep.\n     *\n     * Each time a global checkpoint is created it takes into account the previous global checkpoint, all\n     * slope changes that happened since then and (user) the change that triggered the global checkpoint creation.\n     * This way a Checkpoint structure (bias + slope + time) correctly represents the state of the global\n     * voting power amount at the time of its creation. A collection of future slope changes compliments that\n     * Checkpoint and defines a global voting power function.\n\n      Alice:\n      ~~~~~~~\n      ^\n      |     *\n      |     |  \\ - normal slope\n      |     |    \\ - normal slope\n      +-+---+---+--+--+-> t\n\n      Bob:\n      ~~~~~~~\n      ^\n      |         *\n      |         |  \\ - normal slope\n      |         |    \\ - normal slope\n      +-+---+---+--+--+-> t\n\n      Global: (Bob & Alice combined):\n      ~~~~~~~\n      ^\n      |         *\n      |     *   | ＼ - steeper slope (Alice + Bob slope)\n      |     |  \\|  \\ - normal slope (Bob slope)\n      |     |   |    \\ - normal slope\n      +-+---+---+--+--+-> t\n    */\n\n    ///@notice Per user Checkpoints defining voting power of each user\n    mapping(address => Checkpoint[]) private _userCheckpoints;\n    ///@notice userEpoch important for fetching previous block per user voting power\n    mapping(address => uint256) public userEpoch;\n\n    /* @notice Global Checkpoints part of the equation to define combined voting\n     * power of all users.\n     */\n    Checkpoint[] private _globalCheckpoints;\n    ///@notice globalEpoch important for fetching previous block combined voting power\n    uint256 public globalEpoch;\n\n    ///@notice Lockup mapping for each user\n    mapping(address => Lockup) public lockups;\n\n    /* @notice slopeChanges part of the equation to define combined voting power of\n     * all users. Slope changes always complement only the latest global Checkpoint and are\n     * not used when fetching combined voting power of previous blocks.\n     */\n    mapping(uint256 => int128) public slopeChanges;\n\n    ///@notice Token that is locked up in return for vote escrowed token\n    ERC20 stakingToken;\n\n    ///@notice Checkpoint structure representing linear voting power decay\n    struct Checkpoint {\n        int128 bias;\n        int128 slope;\n        uint256 ts;\n        uint256 blk;\n    }\n\n    ///@notice Stores token lockup details\n    struct Lockup {\n        int128 amount;\n        uint256 end;\n    }\n\n    ///@custom:oz-upgrades-unsafe-allow constructor\n    constructor() initializer {}\n\n    function initialize(address _stakingToken) public initializer {\n        __Ownable_init();\n        __UUPSUpgradeable_init();\n\n        setStakingToken(_stakingToken);\n\n        // Push an initial global checkpoint\n        _globalCheckpoints.push(\n            Checkpoint({\n                bias: 0,\n                slope: 0,\n                ts: block.timestamp,\n                blk: block.number\n            })\n        );\n    }\n\n    /**\n     * @notice Sets the staking token\n     * @param _stakingToken Token that is locked up in return for vote escrowed token\n     */\n    function setStakingToken(address _stakingToken) public onlyOwner {\n        stakingToken = ERC20(_stakingToken);\n        // Derive the name and symbol from the staking token\n        _name = string(\n            bytes.concat(bytes(\"Vote Escrowed\"), \" \", bytes(stakingToken.name()))\n        );\n        _symbol = string(\n            bytes.concat(bytes(\"ve\"), bytes(stakingToken.symbol()))\n        );\n        // Use the same decimals as the staking token\n        _decimals = stakingToken.decimals();\n    }\n\n    /**\n     * @dev Returns the name of the token.\n     * @return string memory Token name\n     */\n    function name() public view virtual returns (string memory) {\n        return _name;\n    }\n\n    /**\n     * @dev Returns the symbol of the token, usually a shorter version of the\n     * name.\n     * @return string memory Token symbol\n     */\n    function symbol() public view virtual returns (string memory) {\n        return _symbol;\n    }\n\n    /**\n     * @dev Returns the number of decimals used to get its user representation.\n     * For example, if `decimals` equals `2`, a balance of `505` tokens should\n     * be displayed to a user as `5.05` (`505 / 10 ** 2`).\n     *\n     * Tokens usually opt for a value of 18, imitating the relationship between\n     * Ether and Wei. This is the value {ERC20} uses, unless this function is\n     * overridden;\n     * @return uint8 Token decimals\n     */\n    function decimals() public view virtual returns (uint8) {\n        return _decimals;\n    }\n\n    /**\n     * @dev See {ERC20-balanceOf}.\n     */\n    function balanceOf(address _account) public view returns (uint256) {\n        uint256 currentUserEpoch = userEpoch[_account];\n        if (currentUserEpoch == 0) {\n            return 0;\n        }\n        Checkpoint memory lastCheckpoint = _userCheckpoints[_account][\n            currentUserEpoch\n        ];\n        // Calculate the bias based on the last bias and the slope over the difference\n        // in time between the last checkpint timestamp and the current block timestamp;\n        lastCheckpoint.bias -= (lastCheckpoint.slope *\n            SafeCast.toInt128(int256(block.timestamp - lastCheckpoint.ts)));\n        return SafeCast.toUint256(max(lastCheckpoint.bias, 0));\n    }\n\n    /**\n     * @dev See {ERC20-totalSupply}.\n     */\n    function totalSupply() public view returns (uint256) {\n        if (_globalCheckpoints.length == 0) {\n            return 0;\n        }\n        Checkpoint memory lastCheckpoint = _globalCheckpoints[globalEpoch];\n        return _supplyAt(lastCheckpoint, block.timestamp);\n    }\n\n    /**\n     * @dev Get the `pos`-th checkpoint for `_account`.\n     * @return Checkpoint memory\n     */\n    function checkpoints(address _account, uint32 _pos)\n        public\n        view\n        virtual\n        returns (Checkpoint memory)\n    {\n        return _userCheckpoints[_account][_pos];\n    }\n\n    /**\n     * @dev Get the number of checkpoints for `_account`.\n     * @return uint32\n     */\n    function numCheckpoints(address _account)\n        public\n        view\n        virtual\n        returns (uint256)\n    {\n        return _userCheckpoints[_account].length;\n    }\n\n    /**\n     * @dev Get last checkpoint for `_account`.\n     * @return Checkpoint memory\n     */\n    function getLastCheckpoint(address _account)\n        public\n        view\n        returns (Checkpoint memory)\n    {\n        return\n            _userCheckpoints[_account][_userCheckpoints[_account].length - 1];\n    }\n\n    /**\n     * @dev Get the `pos`-th global checkpoint.\n     * @return Checkpoint memory\n     */\n    function globalCheckpoints(uint32 pos)\n        public\n        view\n        returns (Checkpoint memory)\n    {\n        return _globalCheckpoints[pos];\n    }\n\n    /**\n     * @dev Get number of global checkpoints.\n     * @return uint256\n     */\n    function numGlobalCheckpoints() public view returns (uint256) {\n        return _globalCheckpoints.length;\n    }\n\n    /**\n     * @dev Get the last global checkpoint.\n     * @return Checkpoint memory\n     */\n    function getLastGlobalCheckpoint() public view returns (Checkpoint memory) {\n        return _globalCheckpoints[_globalCheckpoints.length - 1];\n    }\n\n    /**\n     * @dev Gets the current votes balance for `_account`\n     * This method is required for compatibility with the OpenZeppelin governance ERC20Votes.\n     * @param _account Account to get the votes balance for\n     * @return uint256 Current votes balance for `_account`\n     */\n    function getVotes(address _account) public view returns (uint256) {\n        return balanceOf(_account);\n    }\n\n    /**\n     * @dev Gets the current lockup for `_account`\n     */\n    function getLockup(address _account) public view returns (Lockup memory) {\n        return lockups[_account];\n    }\n\n    /**\n     * @dev Get the address `_account` is currently delegating to.\n     */\n    function delegates(address _account)\n        public\n        view\n        virtual\n        returns (address)\n    {}\n\n    /**\n     * @dev Deposits staking token and mints new veTokens according to the lockup length\n     * @param _amount Amount of staking token to deposit\n     * @param _end Lockup end time\n     */\n    function lockup(uint256 _amount, uint256 _end) public virtual {\n        // end is rounded down to week time resolution\n        _end = _floorToWeek(_end);\n\n        Lockup memory oldLockup = lockups[msg.sender];\n\n        require(\n            _end > block.timestamp,\n            \"End must be greater than the current block timestamp\"\n        );\n        if (oldLockup.end > 0 && _end < oldLockup.end) {\n            revert(\"End must be greater than or equal to the current end\");\n        }\n        // This is not an extension of an existing lockup, validate end\n        require(\n            _end - block.timestamp <= MAX_LOCK_TIME,\n            \"End must be before maximum lockup time\"\n        );\n        int128 amount = SafeCast.toInt128(int256(_amount));\n        // Amount extensions\n        require(\n            amount >= oldLockup.amount,\n            \"Amount must be greater than or equal to current amount\"\n        );\n\n        // oldLockup.amount is 0 if no lockup, or something if this is an increase in locked\n        // amount\n        uint256 amountDelta = SafeCast.toUint256(amount - oldLockup.amount);\n\n        // Old lockup amount will be 0 if no existing lockup, if this is an increase of the\n        // lockup amount, then _amount can be 0\n        Lockup memory newLockup = Lockup({amount: amount, end: _end});\n\n        lockups[msg.sender] = newLockup;\n\n        if (amountDelta > 0) {\n            // Transfer the amount delta\n            stakingToken.safeTransferFrom(\n                msg.sender,\n                address(this),\n                amountDelta\n            );\n        }\n\n        if (oldLockup.end > 0) {\n            // This is an extension of an existing lockup\n            emit LockupUpdated(\n                msg.sender,\n                oldLockup.amount,\n                oldLockup.end,\n                newLockup.amount,\n                newLockup.end,\n                block.timestamp\n            );\n        } else {\n            emit LockupCreated(\n                msg.sender,\n                newLockup.amount,\n                newLockup.end,\n                block.timestamp\n            );\n        }\n\n        _writeUserCheckpoint(msg.sender, oldLockup, newLockup);\n    }\n\n    /**\n     * @dev Withdraw all tokens from an expired lockup.\n     */\n    function withdraw() public {\n        Lockup memory oldLockup = Lockup({\n            end: lockups[msg.sender].end,\n            amount: lockups[msg.sender].amount\n        });\n        require(\n            block.timestamp >= oldLockup.end,\n            \"Lockup must be expired\"\n        );\n\n        require(oldLockup.amount > 0, \"Lockup has no tokens\");\n\n        Lockup memory newLockup = Lockup({end: 0, amount: 0});\n        lockups[msg.sender] = newLockup;\n\n        uint256 amount = SafeCast.toUint256(oldLockup.amount);\n\n        stakingToken.safeTransfer(msg.sender, amount);\n\n        _writeUserCheckpoint(msg.sender, oldLockup, newLockup);\n\n        emit Withdraw(msg.sender, amount, block.timestamp);\n    }\n\n    /**\n     * @dev Public function to trigger global checkpoint.\n     */\n    function checkpoint() external {\n        _writeGlobalCheckpoint(0, 0);\n    }\n\n    /**\n     * @dev Write user checkpoint. User checkpoints are used to calculate the\n     * users vote balance for current and historical blocks.\n     * @param _oldLockup Users lockup prior to the change that triggered the checkpoint\n     * @param _newLockup Users new lockup\n     */\n    function _writeUserCheckpoint(\n        address _account,\n        Lockup memory _oldLockup,\n        Lockup memory _newLockup\n    ) private {\n        Checkpoint memory oldCheckpoint;\n        Checkpoint memory newCheckpoint;\n\n        int128 oldSlopeDelta = 0;\n        int128 newSlopeDelta = 0;\n\n        if (_oldLockup.end > block.timestamp && _oldLockup.amount > 0) {\n            // Old checkpoint still active, calculates its slope and bias\n            oldCheckpoint.slope =\n                _oldLockup.amount /\n                SafeCast.toInt128(int256(MAX_LOCK_TIME));\n            oldCheckpoint.bias =\n                oldCheckpoint.slope *\n                SafeCast.toInt128(int256(_oldLockup.end - block.timestamp));\n        }\n        if (_newLockup.end > block.timestamp && _newLockup.amount > 0) {\n            // New lockup also active, calculate its slope and bias\n            newCheckpoint.slope =\n                _newLockup.amount /\n                SafeCast.toInt128(int256(MAX_LOCK_TIME));\n            newCheckpoint.bias =\n                newCheckpoint.slope *\n                SafeCast.toInt128(int256(_newLockup.end - block.timestamp));\n        }\n\n        uint256 userCurrentEpoch = userEpoch[_account];\n        if (userCurrentEpoch == 0) {\n            // First user epoch, push first checkpoint\n            _userCheckpoints[_account].push(oldCheckpoint);\n        }\n\n        newCheckpoint.ts = block.timestamp;\n        newCheckpoint.blk = block.number;\n        userEpoch[_account] = userCurrentEpoch + 1;\n        // Push second checkpoint\n        _userCheckpoints[_account].push(newCheckpoint);\n\n        oldSlopeDelta = slopeChanges[_oldLockup.end];\n        if (_newLockup.end != 0) {\n            if (_newLockup.end == _oldLockup.end) {\n                // Lockup dates are the same end time, slope delta is the same\n                newSlopeDelta = oldSlopeDelta;\n            } else {\n                newSlopeDelta = slopeChanges[_newLockup.end];\n            }\n        }\n\n        _writeGlobalCheckpoint(\n            newCheckpoint.slope - oldCheckpoint.slope,\n            newCheckpoint.bias - oldCheckpoint.bias\n        );\n\n        /* Schedule the slope changes. There is a possible code simplification where\n         * we always undo the old checkpoint slope change and always apply the new\n         * checkpoint slope change. In the interest of gas optimization the code is\n         * slightly more complicated.\n         */\n\n        // old lockup still active and needs slope change adjustment.\n        if (_oldLockup.end > block.timestamp) {\n            // this is an adjustment of the slope: oldSlopeDelta was <something> - oldCheckpoint.slope,\n            // so we cancel/undo that\n            oldSlopeDelta = oldSlopeDelta + oldCheckpoint.slope;\n            // gas optimize it so another storage access for _newLockup is not required\n            if (_newLockup.end == _oldLockup.end) {\n                // It was a new deposit, not extension\n                oldSlopeDelta = oldSlopeDelta - newCheckpoint.slope;\n            }\n            slopeChanges[_oldLockup.end] = oldSlopeDelta;\n        }\n        if (_newLockup.end > block.timestamp) {\n            // (second part of gas optimization) it was an extension\n            if (_newLockup.end > _oldLockup.end) {\n                newSlopeDelta = newSlopeDelta - newCheckpoint.slope;\n                slopeChanges[_newLockup.end] = newSlopeDelta;\n            }\n        }\n    }\n\n    /**\n     * @dev Write a global checkpoints. Global checkpoints are used to calculate the\n     * total supply for current and historical blocks.\n     * @param userSlopeDelta Change in slope that triggered this checkpoint\n     * @param userBiasDelta Change in bias that triggered this checkpoint\n     */\n    function _writeGlobalCheckpoint(int128 userSlopeDelta, int128 userBiasDelta)\n        private\n    {\n        Checkpoint memory lastCheckpoint;\n        if (globalEpoch > 0) {\n            lastCheckpoint = _globalCheckpoints[globalEpoch];\n        } else {\n            lastCheckpoint = Checkpoint({\n                bias: 0,\n                slope: 0,\n                ts: block.timestamp,\n                blk: block.number\n            });\n        }\n\n        Checkpoint memory initialLastCheckpoint = Checkpoint({\n            bias: 0,\n            slope: 0,\n            ts: lastCheckpoint.ts,\n            blk: lastCheckpoint.blk\n        });\n\n        uint256 blockSlope = 0; // dblock/dt\n        if (block.timestamp > lastCheckpoint.ts) {\n            // Scaled up\n            blockSlope =\n                ((block.number - lastCheckpoint.blk) * 1e18) /\n                (block.timestamp - lastCheckpoint.ts);\n        }\n\n        uint256 lastCheckpointTimestamp = lastCheckpoint.ts;\n        uint256 iterativeTime = _floorToWeek(lastCheckpointTimestamp);\n\n        /* Iterate from last global checkpoint in one week interval steps until present\n         * time is reached. Fill in the missing global checkpoints using slopeChanges - which\n         * always pertain only to the latest global checkpoint.\n         */\n        for (uint256 i = 0; i < 255; i++) {\n            // 5 years\n            iterativeTime = iterativeTime + WEEK;\n\n            int128 slopeDelta = 0;\n            if (iterativeTime > block.timestamp) {\n                // Current epoch\n                iterativeTime = block.timestamp;\n            } else {\n                slopeDelta = slopeChanges[iterativeTime];\n            }\n\n            // Calculate the change in bias for the current epoch\n            int128 biasDelta = lastCheckpoint.slope *\n                SafeCast.toInt128(\n                    int256((iterativeTime - lastCheckpointTimestamp))\n                );\n\n            // The bias can be below 0\n            lastCheckpoint.bias = max(lastCheckpoint.bias - biasDelta, 0);\n            // The slope should never be below 0 but added for safety\n            lastCheckpoint.slope = max(lastCheckpoint.slope + slopeDelta, 0);\n            lastCheckpoint.ts = iterativeTime;\n            lastCheckpointTimestamp = iterativeTime;\n            lastCheckpoint.blk =\n                initialLastCheckpoint.blk +\n                ((blockSlope * (iterativeTime - initialLastCheckpoint.ts)) /\n                    1e18); // Scale back down\n\n            globalEpoch += 1;\n\n            if (iterativeTime == block.timestamp) {\n                lastCheckpoint.blk = block.number;\n                // Adjust the last checkpoint for any delta from the user\n                lastCheckpoint.slope = max(\n                    lastCheckpoint.slope + userSlopeDelta,\n                    0\n                );\n                lastCheckpoint.bias = max(\n                    lastCheckpoint.bias + userBiasDelta,\n                    0\n                );\n                _globalCheckpoints.push(lastCheckpoint);\n                break;\n            } else {\n                _globalCheckpoints.push(lastCheckpoint);\n            }\n        }\n    }\n\n    /**\n     * @dev Binary search (bisection) to find epoch closest to block.\n     * @param _block Find the most recent point history before this block\n     * @param _maxEpoch Maximum epoch\n     * @return uint256 The most recent epoch before the block\n     */\n    function _findEpoch(\n        Checkpoint[] memory _checkpoints,\n        uint256 _block,\n        uint256 _maxEpoch\n    ) internal pure returns (uint256) {\n        uint256 minEpoch = 0;\n        uint256 maxEpoch = _maxEpoch;\n        for (uint256 i = 0; i < 128; i++) {\n            if (minEpoch >= maxEpoch) break;\n            uint256 mid = (minEpoch + maxEpoch + 1) / 2;\n            if (_checkpoints[mid].blk <= _block) {\n                minEpoch = mid;\n            } else {\n                maxEpoch = mid - 1;\n            }\n        }\n        return minEpoch;\n    }\n\n    /**\n     * @dev Retrieve the number of votes for `_account` at the end of `_blockNumber`.\n     *\n     * This method is required for compatibility with the OpenZeppelin governance ERC20Votes.\n     *\n     * Requirements:\n     *\n     * - `blockNumber` must have been already mined\n     */\n    function getPastVotes(address _account, uint256 _blockNumber)\n        public\n        view\n        returns (uint256)\n    {\n        return balanceOfAt(_account, _blockNumber);\n    }\n\n    /**\n     * @dev Gets a users votingWeight at a given blockNumber\n     * @param _account User for which to return the balance\n     * @param _blockNumber Block at which to calculate balance\n     * @return uint256 Balance of user voting power.\n     */\n    function balanceOfAt(address _account, uint256 _blockNumber)\n        public\n        view\n        returns (uint256)\n    {\n        require(_blockNumber <= block.number, \"Block number is in the future\");\n\n        // Get most recent user Checkpoint to block\n        uint256 recentUserEpoch = _findEpoch(\n            _userCheckpoints[_account],\n            _blockNumber,\n            userEpoch[_account] // Max epoch\n        );\n        if (recentUserEpoch == 0) {\n            return 0;\n        }\n        Checkpoint memory userPoint = _userCheckpoints[_account][\n            recentUserEpoch\n        ];\n\n        // Get most recent global Checkpoint to block\n        uint256 recentGlobalEpoch = _findEpoch(\n            _globalCheckpoints,\n            _blockNumber,\n            globalEpoch // Max epoch\n        );\n        Checkpoint memory checkpoint0 = _globalCheckpoints[recentGlobalEpoch];\n\n        // Calculate delta (block & time) between checkpoint and target block\n        // Allowing us to calculate the average seconds per block between\n        // the two points\n        uint256 dBlock = 0;\n        uint256 dTime = 0;\n        if (recentGlobalEpoch < globalEpoch) {\n            Checkpoint memory checkpoint1 = _globalCheckpoints[\n                recentGlobalEpoch + 1\n            ];\n            dBlock = checkpoint1.blk - checkpoint0.blk;\n            dTime = checkpoint1.ts - checkpoint0.ts;\n        } else {\n            dBlock = block.number - checkpoint0.blk;\n            dTime = block.timestamp - checkpoint0.ts;\n        }\n\n        // (Deterministically) Estimate the time at which block _blockNumber was mined\n        uint256 blockTime = checkpoint0.ts;\n        if (dBlock != 0) {\n            blockTime += (dTime * (_blockNumber - checkpoint0.blk)) / dBlock;\n        }\n\n        // Current Bias = most recent bias - (slope * time since update)\n        userPoint.bias -= (userPoint.slope *\n            SafeCast.toInt128(int256(blockTime - userPoint.ts)));\n        if (userPoint.bias >= 0) {\n            return SafeCast.toUint256(userPoint.bias);\n        } else {\n            return 0;\n        }\n    }\n\n    /**\n     * @dev Retrieve the `totalSupply` at the end of `blockNumber`.\n     *\n     * This method is required for compatibility with the OpenZeppelin governance ERC20Votes.\n     *\n     * Requirements:\n     *\n     * - `_blockNumber` must have been already mined\n     *\n     * @param _blockNumber Block at which to calculate total supply\n     * @return uint256 Total supply at the given block\n     */\n    function getPastTotalSupply(uint256 _blockNumber)\n        public\n        view\n        returns (uint256)\n    {\n        return totalSupplyAt(_blockNumber);\n    }\n\n    /**\n     * @dev Calculates total supply of votingWeight at a given blockNumber\n     * @param _blockNumber Block number at which to calculate total supply\n     * @return totalSupply of voting token weight at the given blockNumber\n     */\n    function totalSupplyAt(uint256 _blockNumber) public view returns (uint256) {\n        require(_blockNumber <= block.number, \"Block number is in the future\");\n\n        // Get most recent global Checkpoint to block\n        uint256 recentGlobalEpoch = _findEpoch(\n            _globalCheckpoints,\n            _blockNumber,\n            globalEpoch\n        );\n\n        Checkpoint memory checkpoint0 = _globalCheckpoints[recentGlobalEpoch];\n\n        if (checkpoint0.blk > _blockNumber) {\n            return 0;\n        }\n\n        uint256 dTime = 0;\n        if (recentGlobalEpoch < globalEpoch) {\n            Checkpoint memory checkpoint1 = _globalCheckpoints[\n                recentGlobalEpoch + 1\n            ];\n            if (checkpoint0.blk != checkpoint1.blk) {\n                /* to estimate how much time has passed since the last checkpoint get the number\n                 * of blocks since the last checkpoint. And multiply that by the average time per\n                 * block of the 2 neighboring checkpoints of said _blockNumber\n                 */\n                dTime =\n                    ((_blockNumber - checkpoint0.blk) *\n                        (checkpoint1.ts - checkpoint0.ts)) /\n                    (checkpoint1.blk - checkpoint0.blk);\n            }\n        } else if (checkpoint0.blk != block.number) {\n            /* to estimate how much time has passed since the last checkpoint get the number\n             * of blocks since the last checkpoint. And multiply that by the average time per\n             * block since the last checkpoint and present blockchain state.\n             */\n            dTime =\n                ((_blockNumber - checkpoint0.blk) *\n                    (block.timestamp - checkpoint0.ts)) /\n                (block.number - checkpoint0.blk);\n        }\n        // if code doesn't enter any of the above if conditions latest _blockNumber was passed\n        // to the function and dTime is correctly set to 0\n\n        // Now dTime contains info on how far are we beyond point\n        return _supplyAt(checkpoint0, checkpoint0.ts + dTime);\n    }\n\n    /**\n     * @dev Calculates total supply of votingWeight at a given time _t\n     * @param _checkpoint Most recent point before time _t\n     * @param _time Time at which to calculate supply\n     * @return totalSupply at given time\n     */\n    function _supplyAt(Checkpoint memory _checkpoint, uint256 _time)\n        internal\n        view\n        returns (uint256)\n    {\n        Checkpoint memory lastCheckpoint = _checkpoint;\n\n        // Floor the timestamp to weekly interval\n        uint256 iterativeTime = _floorToWeek(lastCheckpoint.ts);\n        // Iterate through all weeks between _checkpoint & _time to account for slope changes\n        for (uint256 i = 0; i < 255; i++) {\n            iterativeTime = iterativeTime + WEEK;\n            int128 dSlope = 0;\n            // If week end is after timestamp, then truncate & leave dSlope to 0\n            if (iterativeTime > _time) {\n                iterativeTime = _time;\n            }\n            // else get most recent slope change\n            else {\n                dSlope = slopeChanges[iterativeTime];\n            }\n\n            lastCheckpoint.bias =\n                lastCheckpoint.bias -\n                (lastCheckpoint.slope *\n                    SafeCast.toInt128(\n                        int256(iterativeTime - lastCheckpoint.ts)\n                    ));\n\n            if (iterativeTime == _time) {\n                break;\n            }\n\n            lastCheckpoint.slope = lastCheckpoint.slope + dSlope;\n            lastCheckpoint.ts = iterativeTime;\n        }\n\n        return SafeCast.toUint256(max(lastCheckpoint.bias, 0));\n    }\n\n    /**\n     * @dev Floors a timestamp to the nearest weekly increment\n     * @param _t Timestamp to floor\n     * @return Timestamp floored to nearest weekly increment\n     */\n    function _floorToWeek(uint256 _t) internal pure returns (uint256) {\n        return (_t / WEEK) * WEEK;\n    }\n\n    /**\n     * @dev Returns the largest of two numbers.\n     * @param _a First number\n     * @param _b Second number\n     * @return Largest of _a and _b\n     */\n    function max(uint256 _a, uint256 _b) internal pure returns (uint256) {\n        return _a >= _b ? _a : _b;\n    }\n\n    /**\n     * @dev Returns the smallest of two numbers.\n     * @param _a First number\n     * @param _b Second number\n     * @return Smallest of _a and _b\n     */\n    function max(int128 _a, int128 _b) internal pure returns (int128) {\n        return _a >= _b ? _a : _b;\n    }\n\n    function _authorizeUpgrade(address newImplementation)\n        internal\n        override\n        onlyOwner\n    {}\n}\n","sourcePath":"contracts/VoteLockerCurve.sol","type":"contract","deployment":{"address":"0xab2916819462f0Be4f209Be5a491AFAf1Bd56263","chainid":"1","blockHeight":14611496}}