{"abi":[{"inputs":[{"internalType":"address","name":"ogv_","type":"address"}],"stateMutability":"nonpayable","type":"constructor","name":"constructor"},{"anonymous":false,"inputs":[{"indexed":true,"internalType":"address","name":"previousGovernor","type":"address"},{"indexed":true,"internalType":"address","name":"newGovernor","type":"address"}],"name":"GovernorshipTransferred","type":"event"},{"anonymous":false,"inputs":[],"name":"InflationChanged","type":"event"},{"anonymous":false,"inputs":[{"indexed":true,"internalType":"address","name":"previousGovernor","type":"address"},{"indexed":true,"internalType":"address","name":"newGovernor","type":"address"}],"name":"PendingGovernorshipTransfer","type":"event"},{"anonymous":false,"inputs":[{"indexed":false,"internalType":"address","name":"target","type":"address"},{"indexed":false,"internalType":"address","name":"previousTarget","type":"address"}],"name":"RewardsTargetChange","type":"event"},{"inputs":[],"name":"claimGovernance","outputs":[],"stateMutability":"nonpayable","type":"function"},{"inputs":[],"name":"collectRewards","outputs":[{"internalType":"uint256","name":"","type":"uint256"}],"stateMutability":"nonpayable","type":"function"},{"inputs":[],"name":"governor","outputs":[{"internalType":"address","name":"","type":"address"}],"stateMutability":"view","type":"function"},{"inputs":[{"internalType":"uint256","name":"","type":"uint256"}],"name":"inflationSlopes","outputs":[{"internalType":"uint64","name":"start","type":"uint64"},{"internalType":"uint64","name":"end","type":"uint64"},{"internalType":"uint128","name":"ratePerDay","type":"uint128"}],"stateMutability":"view","type":"function"},{"inputs":[],"name":"isGovernor","outputs":[{"internalType":"bool","name":"","type":"bool"}],"stateMutability":"view","type":"function"},{"inputs":[],"name":"lastRewardTime","outputs":[{"internalType":"uint256","name":"","type":"uint256"}],"stateMutability":"view","type":"function"},{"inputs":[],"name":"ogv","outputs":[{"internalType":"address","name":"","type":"address"}],"stateMutability":"view","type":"function"},{"inputs":[],"name":"previewRewards","outputs":[{"internalType":"uint256","name":"","type":"uint256"}],"stateMutability":"view","type":"function"},{"inputs":[],"name":"rewardsTarget","outputs":[{"internalType":"address","name":"","type":"address"}],"stateMutability":"view","type":"function"},{"inputs":[{"components":[{"internalType":"uint64","name":"start","type":"uint64"},{"internalType":"uint64","name":"end","type":"uint64"},{"internalType":"uint128","name":"ratePerDay","type":"uint128"}],"internalType":"struct RewardsSource.Slope[]","name":"slopes","type":"tuple[]"}],"name":"setInflation","outputs":[],"stateMutability":"nonpayable","type":"function"},{"inputs":[{"internalType":"address","name":"rewardsTarget_","type":"address"}],"name":"setRewardsTarget","outputs":[],"stateMutability":"nonpayable","type":"function"},{"inputs":[{"internalType":"address","name":"_newGovernor","type":"address"}],"name":"transferGovernance","outputs":[],"stateMutability":"nonpayable","type":"function"}],"bytecode":"60a0604052600060025534801561001557600080fd5b5060405161120a38038061120a833981016040819052610034916100fc565b61004a336000805160206111ea83398151915255565b6000805160206111ea833981519152546040516001600160a01b03909116906000907fc7c0c772add429241571afb3805861fb3cfa2af374534088b76cdb4325a87e9a908290a36001600160a01b0381166100eb5760405162461bcd60e51b815260206004820152601860248201527f526577617264733a204f4756206d757374206265207365740000000000000000604482015260640160405180910390fd5b6001600160a01b031660805261012c565b60006020828403121561010e57600080fd5b81516001600160a01b038116811461012557600080fd5b9392505050565b6080516110886101626000396000818160e301528181610788015281816107ff015281816108a30152610a6401526110886000f3fe608060405234801561001057600080fd5b50600436106100b45760003560e01c80638248784411610071578063824878441461014b5780639231cf741461015e578063afeec72514610167578063c7af3352146101a9578063d38bfff4146101c1578063e0d801dd146101d457600080fd5b80630c340a24146100b9578063142561cf146100de5780635b433e44146101055780635d36b1901461011a5780636411466f1461012257806370bb45b314610135575b600080fd5b6100c16101dc565b6040516001600160a01b0390911681526020015b60405180910390f35b6100c17f000000000000000000000000000000000000000000000000000000000000000081565b610118610113366004610dc9565b6101f9565b005b610118610553565b610118610130366004610ec0565b6105f9565b61013d61067c565b6040519081526020016100d5565b6000546100c1906001600160a01b031681565b61013d60015481565b61017a610175366004610ef0565b610926565b604080516001600160401b0394851681529390921660208401526001600160801b0316908201526060016100d5565b6101b161096b565b60405190151581526020016100d5565b6101186101cf366004610ec0565b61099c565b61013d610a40565b60006101f46000805160206110338339815191525490565b905090565b61020161096b565b6102265760405162461bcd60e51b815260040161021d90610f09565b60405180910390fd5b805160308111156102795760405162461bcd60e51b815260206004820152601860248201527f526577617264733a20546f6f206d616e7920736c6f7065730000000000000000604482015260640161021d565b61028560036000610d0d565b600060028190558161029657505050565b6001600160401b03836102aa600185610f56565b815181106102ba576102ba610f6d565b6020908102919091018101516001600160401b0390921691015260005b82811015610517576a0422ca8b0a00a4250000008482815181106102fd576102fd610f6d565b6020026020010151604001516001600160801b031611156103605760405162461bcd60e51b815260206004820152601c60248201527f526577617264733a205261746550657244617920746f6f206869676800000000604482015260640161021d565b8184828151811061037357610373610f6d565b6020026020010151600001516001600160401b0316116103e05760405162461bcd60e51b815260206004820152602260248201527f526577617264733a2053746172742074696d6573206d75737420696e63726561604482015261736560f01b606482015260840161021d565b6103eb600184610f56565b81101561047a57836103fe826001610f83565b8151811061040e5761040e610f6d565b60200260200101516000015184828151811061042c5761042c610f6d565b6020026020010151602001906001600160401b031690816001600160401b03168152505083818151811061046257610462610f6d565b6020026020010151600001516001600160401b031691505b600384828151811061048e5761048e610f6d565b6020908102919091018101518254600181018455600093845292829020815193018054928201516040909201516001600160801b03908116600160801b026001600160401b03938416600160401b026fffffffffffffffffffffffffffffffff19909516939095169290921792909217169190911790558061050f81610f9b565b9150506102d7565b5060015461052457426001555b6040517fd88a1160be003434a4b1ed90b7a2ee9b7448b98e9d115e04f98515c84db0d5ce90600090a150505b50565b7f44c4d30b2eaad5130ad70c3ba6972730566f3e6359ab83e800d905c61b1c51db546001600160a01b0316336001600160a01b0316146105ee5760405162461bcd60e51b815260206004820152603060248201527f4f6e6c79207468652070656e64696e6720476f7665726e6f722063616e20636f60448201526f6d706c6574652074686520636c61696d60801b606482015260840161021d565b6105f733610ae7565b565b61060161096b565b61061d5760405162461bcd60e51b815260040161021d90610f09565b600080546001600160a01b038381166001600160a01b03198316811790935560408051938452911660208301819052917f41ad0a33748dcbf4495041d0518e1204c1d5f0d65e7dccb51877235361e75f4a910160405180910390a15050565b600080546001600160a01b031633146106d75760405162461bcd60e51b815260206004820152601a60248201527f526577617264733a204e6f742072657761726473546172676574000000000000604482015260640161021d565b6000600154116107295760405162461bcd60e51b815260206004820152601f60248201527f526577617264733a206c61737452657761726454696d65206973207a65726f00604482015260640161021d565b60015442116107385750600090565b600080610743610ba8565b91509150806000146107555760028190555b4260015581156107e7576000546040516340c10f1960e01b81526001600160a01b039182166004820152602481018490527f0000000000000000000000000000000000000000000000000000000000000000909116906340c10f1990604401600060405180830381600087803b1580156107ce57600080fd5b505af11580156107e2573d6000803e3d6000fd5b505050505b6040516370a0823160e01b81523060048201526000907f00000000000000000000000000000000000000000000000000000000000000006001600160a01b0316906370a0823190602401602060405180830381865afa15801561084e573d6000803e3d6000fd5b505050506040513d601f19601f820116820180604052508101906108729190610fb6565b905080156109145760005460405163a9059cbb60e01b81526001600160a01b039182166004820152602481018390527f00000000000000000000000000000000000000000000000000000000000000009091169063a9059cbb906044016020604051808303816000875af11580156108ee573d6000803e3d6000fd5b505050506040513d601f19601f820116820180604052508101906109129190610fcf565b505b61091e8184610f83565b935050505090565b6003818154811061093657600080fd5b6000918252602090912001546001600160401b038082169250600160401b82041690600160801b90046001600160801b031683565b60006109836000805160206110338339815191525490565b6001600160a01b0316336001600160a01b031614905090565b6109a461096b565b6109c05760405162461bcd60e51b815260040161021d90610f09565b6109e8817f44c4d30b2eaad5130ad70c3ba6972730566f3e6359ab83e800d905c61b1c51db55565b806001600160a01b0316610a086000805160206110338339815191525490565b6001600160a01b03167fa39cc5eb22d0f34d8beaefee8a3f17cc229c1a1d1ef87a5ad47313487b1c4f0d60405160405180910390a350565b600080610a4b610ba8565b506040516370a0823160e01b81523060048201529091507f00000000000000000000000000000000000000000000000000000000000000006001600160a01b0316906370a0823190602401602060405180830381865afa158015610ab3573d6000803e3d6000fd5b505050506040513d601f19601f82011682018060405250810190610ad79190610fb6565b610ae19082610f83565b92915050565b6001600160a01b038116610b3d5760405162461bcd60e51b815260206004820152601a60248201527f4e657720476f7665726e6f722069732061646472657373283029000000000000604482015260640161021d565b806001600160a01b0316610b5d6000805160206110338339815191525490565b6001600160a01b03167fc7c0c772add429241571afb3805861fb3cfa2af374534088b76cdb4325a87e9a60405160405180910390a36105508160008051602061103383398151915255565b6001546000908190428110610bc257506000928392509050565b600354610bd457506000928392509050565b6002546000908190805b600354811015610d0157600060038281548110610bfd57610bfd610f6d565b60009182526020918290206040805160608101825292909101546001600160401b03808216808552600160401b8304909116948401859052600160801b9091046001600160801b03169183019190915290925090874283811015610c65575050505050610d01565b83821015610c71578391505b82811115610c7c5750815b6000610c888383610f56565b90506201518086604001516001600160801b031682610ca79190610ff1565b610cb19190611010565b610cbb908b610f83565b99508787118015610ccc5750600081115b15610cd5578698505b83821015610ce857505050505050610d01565b5050505050508080610cf990610f9b565b915050610bde565b50919590945092505050565b508054600082559060005260206000209081019061055091905b80821115610d3b5760008155600101610d27565b5090565b634e487b7160e01b600052604160045260246000fd5b604051606081016001600160401b0381118282101715610d7757610d77610d3f565b60405290565b604051601f8201601f191681016001600160401b0381118282101715610da557610da5610d3f565b604052919050565b80356001600160401b0381168114610dc457600080fd5b919050565b60006020808385031215610ddc57600080fd5b82356001600160401b0380821115610df357600080fd5b818501915085601f830112610e0757600080fd5b813581811115610e1957610e19610d3f565b610e27848260051b01610d7d565b81815284810192506060918202840185019188831115610e4657600080fd5b938501935b82851015610eb45780858a031215610e635760008081fd5b610e6b610d55565b610e7486610dad565b8152610e81878701610dad565b878201526040808701356001600160801b0381168114610ea15760008081fd5b9082015284529384019392850192610e4b565b50979650505050505050565b600060208284031215610ed257600080fd5b81356001600160a01b0381168114610ee957600080fd5b9392505050565b600060208284031215610f0257600080fd5b5035919050565b6020808252601a908201527f43616c6c6572206973206e6f742074686520476f7665726e6f72000000000000604082015260600190565b634e487b7160e01b600052601160045260246000fd5b600082821015610f6857610f68610f40565b500390565b634e487b7160e01b600052603260045260246000fd5b60008219821115610f9657610f96610f40565b500190565b6000600019821415610faf57610faf610f40565b5060010190565b600060208284031215610fc857600080fd5b5051919050565b600060208284031215610fe157600080fd5b81518015158114610ee957600080fd5b600081600019048311821515161561100b5761100b610f40565b500290565b60008261102d57634e487b7160e01b600052601260045260246000fd5b50049056fe7bea13895fa79d2831e0a9e28edede30099005a50d652d8957cf8a607ee6ca4aa2646970667358221220ae8e14f4841cf100032ac9a494dfdcd28ef00692c0121f6aac20e92f8a285b2664736f6c634300080a00337bea13895fa79d2831e0a9e28edede30099005a50d652d8957cf8a607ee6ca4a","bytecodeSha1":"da39a3ee5e6b4b0d3255bfef95601890afd80709","compiler":{"evm_version":"istanbul","optimizer":{"enabled":true,"runs":200},"version":"0.8.10+commit.fc410830"},"contractName":"RewardsSource","language":"Solidity","natspec":{"author":"Daniel Von Fange","kind":"dev","methods":{"claimGovernance()":{"details":"Claim Governance of the contract to a new account (`newGovernor`). Can only be called by the new Governor."},"collectRewards()":{"notice":"Collect rewards. Can only be called by the contract that will receive the rewards.","returns":{"_0":"rewards OGV collected"}},"governor()":{"details":"Returns the address of the current Governor."},"isGovernor()":{"details":"Returns true if the caller is the current Governor."},"previewRewards()":{"notice":"Preview the amount of rewards that would be returned if rewards were collected now.","returns":{"_0":"rewards OGV that would be collected"}},"setInflation((uint64,uint64,uint128)[])":{"notice":"Set inflation schedule. Inflation slopes use start times and ratePerDay. End times are overwritten to be either the start of the next slope, or in the case of the last slope, a max int64. The rate of the last slope then becomes the inflation rate held into the future. The first slope start time may be defined into the future. In this case there will be no inflation until that first start time is reached.","params":{"slopes":"inflation slope configuration"}},"setRewardsTarget(address)":{"notice":"Set the address of the contract than can collect rewards","params":{"rewardsTarget_":"contract address that can collect rewards"}},"transferGovernance(address)":{"details":"Transfers Governance of the contract to a new account (`newGovernor`). Can only be called by the current Governor. Must be claimed for this to complete","params":{"_newGovernor":"Address of the new Governor"}}},"title":"OGV Inflation and Rewards","version":1},"opcodes":"PUSH1 0x80 PUSH1 0x40 MSTORE CALLVALUE DUP1 ISZERO PUSH2 0x10 JUMPI PUSH1 0x0 DUP1 REVERT JUMPDEST POP PUSH1 0x4 CALLDATASIZE LT PUSH2 0xB4 JUMPI PUSH1 0x0 CALLDATALOAD PUSH1 0xE0 SHR DUP1 PUSH4 0x82487844 GT PUSH2 0x71 JUMPI DUP1 PUSH4 0x82487844 EQ PUSH2 0x14B JUMPI DUP1 PUSH4 0x9231CF74 EQ PUSH2 0x15E JUMPI DUP1 PUSH4 0xAFEEC725 EQ PUSH2 0x167 JUMPI DUP1 PUSH4 0xC7AF3352 EQ PUSH2 0x1A9 JUMPI DUP1 PUSH4 0xD38BFFF4 EQ PUSH2 0x1C1 JUMPI DUP1 PUSH4 0xE0D801DD EQ PUSH2 0x1D4 JUMPI PUSH1 0x0 DUP1 REVERT JUMPDEST DUP1 PUSH4 0xC340A24 EQ PUSH2 0xB9 JUMPI DUP1 PUSH4 0x142561CF EQ PUSH2 0xDE JUMPI DUP1 PUSH4 0x5B433E44 EQ PUSH2 0x105 JUMPI DUP1 PUSH4 0x5D36B190 EQ PUSH2 0x11A JUMPI DUP1 PUSH4 0x6411466F EQ PUSH2 0x122 JUMPI DUP1 PUSH4 0x70BB45B3 EQ PUSH2 0x135 JUMPI JUMPDEST PUSH1 0x0 DUP1 REVERT JUMPDEST PUSH2 0xC1 PUSH2 0x1DC JUMP JUMPDEST PUSH1 0x40 MLOAD PUSH1 0x1 PUSH1 0x1 PUSH1 0xA0 SHL SUB SWAP1 SWAP2 AND DUP2 MSTORE PUSH1 0x20 ADD JUMPDEST PUSH1 0x40 MLOAD DUP1 SWAP2 SUB SWAP1 RETURN JUMPDEST PUSH2 0xC1 PUSH32 0x0 DUP2 JUMP JUMPDEST PUSH2 0x118 PUSH2 0x113 CALLDATASIZE PUSH1 0x4 PUSH2 0xDC9 JUMP JUMPDEST PUSH2 0x1F9 JUMP JUMPDEST STOP JUMPDEST PUSH2 0x118 PUSH2 0x553 JUMP JUMPDEST PUSH2 0x118 PUSH2 0x130 CALLDATASIZE PUSH1 0x4 PUSH2 0xEC0 JUMP JUMPDEST PUSH2 0x5F9 JUMP JUMPDEST PUSH2 0x13D PUSH2 0x67C JUMP JUMPDEST PUSH1 0x40 MLOAD SWAP1 DUP2 MSTORE PUSH1 0x20 ADD PUSH2 0xD5 JUMP JUMPDEST PUSH1 0x0 SLOAD PUSH2 0xC1 SWAP1 PUSH1 0x1 PUSH1 0x1 PUSH1 0xA0 SHL SUB AND DUP2 JUMP JUMPDEST PUSH2 0x13D PUSH1 0x1 SLOAD DUP2 JUMP JUMPDEST PUSH2 0x17A PUSH2 0x175 CALLDATASIZE PUSH1 0x4 PUSH2 0xEF0 JUMP JUMPDEST PUSH2 0x926 JUMP JUMPDEST PUSH1 0x40 DUP1 MLOAD PUSH1 0x1 PUSH1 0x1 PUSH1 0x40 SHL SUB SWAP5 DUP6 AND DUP2 MSTORE SWAP4 SWAP1 SWAP3 AND PUSH1 0x20 DUP5 ADD MSTORE PUSH1 0x1 PUSH1 0x1 PUSH1 0x80 SHL SUB AND SWAP1 DUP3 ADD MSTORE PUSH1 0x60 ADD PUSH2 0xD5 JUMP JUMPDEST PUSH2 0x1B1 PUSH2 0x96B JUMP JUMPDEST PUSH1 0x40 MLOAD SWAP1 ISZERO ISZERO DUP2 MSTORE PUSH1 0x20 ADD PUSH2 0xD5 JUMP JUMPDEST PUSH2 0x118 PUSH2 0x1CF CALLDATASIZE PUSH1 0x4 PUSH2 0xEC0 JUMP JUMPDEST PUSH2 0x99C JUMP JUMPDEST PUSH2 0x13D PUSH2 0xA40 JUMP JUMPDEST PUSH1 0x0 PUSH2 0x1F4 PUSH1 0x0 DUP1 MLOAD PUSH1 0x20 PUSH2 0x1033 DUP4 CODECOPY DUP2 MLOAD SWAP2 MSTORE SLOAD SWAP1 JUMP JUMPDEST SWAP1 POP SWAP1 JUMP JUMPDEST PUSH2 0x201 PUSH2 0x96B JUMP JUMPDEST PUSH2 0x226 JUMPI PUSH1 0x40 MLOAD PUSH3 0x461BCD PUSH1 0xE5 SHL DUP2 MSTORE PUSH1 0x4 ADD PUSH2 0x21D SWAP1 PUSH2 0xF09 JUMP JUMPDEST PUSH1 0x40 MLOAD DUP1 SWAP2 SUB SWAP1 REVERT JUMPDEST DUP1 MLOAD PUSH1 0x30 DUP2 GT ISZERO PUSH2 0x279 JUMPI PUSH1 0x40 MLOAD PUSH3 0x461BCD PUSH1 0xE5 SHL DUP2 MSTORE PUSH1 0x20 PUSH1 0x4 DUP3 ADD MSTORE PUSH1 0x18 PUSH1 0x24 DUP3 ADD MSTORE PUSH32 0x526577617264733A20546F6F206D616E7920736C6F7065730000000000000000 PUSH1 0x44 DUP3 ADD MSTORE PUSH1 0x64 ADD PUSH2 0x21D JUMP JUMPDEST PUSH2 0x285 PUSH1 0x3 PUSH1 0x0 PUSH2 0xD0D JUMP JUMPDEST PUSH1 0x0 PUSH1 0x2 DUP2 SWAP1 SSTORE DUP2 PUSH2 0x296 JUMPI POP POP POP JUMP JUMPDEST PUSH1 0x1 PUSH1 0x1 PUSH1 0x40 SHL SUB DUP4 PUSH2 0x2AA PUSH1 0x1 DUP6 PUSH2 0xF56 JUMP JUMPDEST DUP2 MLOAD DUP2 LT PUSH2 0x2BA JUMPI PUSH2 0x2BA PUSH2 0xF6D JUMP JUMPDEST PUSH1 0x20 SWAP1 DUP2 MUL SWAP2 SWAP1 SWAP2 ADD DUP2 ADD MLOAD PUSH1 0x1 PUSH1 0x1 PUSH1 0x40 SHL SUB SWAP1 SWAP3 AND SWAP2 ADD MSTORE PUSH1 0x0 JUMPDEST DUP3 DUP2 LT ISZERO PUSH2 0x517 JUMPI PUSH11 0x422CA8B0A00A425000000 DUP5 DUP3 DUP2 MLOAD DUP2 LT PUSH2 0x2FD JUMPI PUSH2 0x2FD PUSH2 0xF6D JUMP JUMPDEST PUSH1 0x20 MUL PUSH1 0x20 ADD ADD MLOAD PUSH1 0x40 ADD MLOAD PUSH1 0x1 PUSH1 0x1 PUSH1 0x80 SHL SUB AND GT ISZERO PUSH2 0x360 JUMPI PUSH1 0x40 MLOAD PUSH3 0x461BCD PUSH1 0xE5 SHL DUP2 MSTORE PUSH1 0x20 PUSH1 0x4 DUP3 ADD MSTORE PUSH1 0x1C PUSH1 0x24 DUP3 ADD MSTORE PUSH32 0x526577617264733A205261746550657244617920746F6F206869676800000000 PUSH1 0x44 DUP3 ADD MSTORE PUSH1 0x64 ADD PUSH2 0x21D JUMP JUMPDEST DUP2 DUP5 DUP3 DUP2 MLOAD DUP2 LT PUSH2 0x373 JUMPI PUSH2 0x373 PUSH2 0xF6D JUMP JUMPDEST PUSH1 0x20 MUL PUSH1 0x20 ADD ADD MLOAD PUSH1 0x0 ADD MLOAD PUSH1 0x1 PUSH1 0x1 PUSH1 0x40 SHL SUB AND GT PUSH2 0x3E0 JUMPI PUSH1 0x40 MLOAD PUSH3 0x461BCD PUSH1 0xE5 SHL DUP2 MSTORE PUSH1 0x20 PUSH1 0x4 DUP3 ADD MSTORE PUSH1 0x22 PUSH1 0x24 DUP3 ADD MSTORE PUSH32 0x526577617264733A2053746172742074696D6573206D75737420696E63726561 PUSH1 0x44 DUP3 ADD MSTORE PUSH2 0x7365 PUSH1 0xF0 SHL PUSH1 0x64 DUP3 ADD MSTORE PUSH1 0x84 ADD PUSH2 0x21D JUMP JUMPDEST PUSH2 0x3EB PUSH1 0x1 DUP5 PUSH2 0xF56 JUMP JUMPDEST DUP2 LT ISZERO PUSH2 0x47A JUMPI DUP4 PUSH2 0x3FE DUP3 PUSH1 0x1 PUSH2 0xF83 JUMP JUMPDEST DUP2 MLOAD DUP2 LT PUSH2 0x40E JUMPI PUSH2 0x40E PUSH2 0xF6D JUMP JUMPDEST PUSH1 0x20 MUL PUSH1 0x20 ADD ADD MLOAD PUSH1 0x0 ADD MLOAD DUP5 DUP3 DUP2 MLOAD DUP2 LT PUSH2 0x42C JUMPI PUSH2 0x42C PUSH2 0xF6D JUMP JUMPDEST PUSH1 0x20 MUL PUSH1 0x20 ADD ADD MLOAD PUSH1 0x20 ADD SWAP1 PUSH1 0x1 PUSH1 0x1 PUSH1 0x40 SHL SUB AND SWAP1 DUP2 PUSH1 0x1 PUSH1 0x1 PUSH1 0x40 SHL SUB AND DUP2 MSTORE POP POP DUP4 DUP2 DUP2 MLOAD DUP2 LT PUSH2 0x462 JUMPI PUSH2 0x462 PUSH2 0xF6D JUMP JUMPDEST PUSH1 0x20 MUL PUSH1 0x20 ADD ADD MLOAD PUSH1 0x0 ADD MLOAD PUSH1 0x1 PUSH1 0x1 PUSH1 0x40 SHL SUB AND SWAP2 POP JUMPDEST PUSH1 0x3 DUP5 DUP3 DUP2 MLOAD DUP2 LT PUSH2 0x48E JUMPI PUSH2 0x48E PUSH2 0xF6D JUMP JUMPDEST PUSH1 0x20 SWAP1 DUP2 MUL SWAP2 SWAP1 SWAP2 ADD DUP2 ADD MLOAD DUP3 SLOAD PUSH1 0x1 DUP2 ADD DUP5 SSTORE PUSH1 0x0 SWAP4 DUP5 MSTORE SWAP3 DUP3 SWAP1 KECCAK256 DUP2 MLOAD SWAP4 ADD DUP1 SLOAD SWAP3 DUP3 ADD MLOAD PUSH1 0x40 SWAP1 SWAP3 ADD MLOAD PUSH1 0x1 PUSH1 0x1 PUSH1 0x80 SHL SUB SWAP1 DUP2 AND PUSH1 0x1 PUSH1 0x80 SHL MUL PUSH1 0x1 PUSH1 0x1 PUSH1 0x40 SHL SUB SWAP4 DUP5 AND PUSH1 0x1 PUSH1 0x40 SHL MUL PUSH16 0xFFFFFFFFFFFFFFFFFFFFFFFFFFFFFFFF NOT SWAP1 SWAP6 AND SWAP4 SWAP1 SWAP6 AND SWAP3 SWAP1 SWAP3 OR SWAP3 SWAP1 SWAP3 OR AND SWAP2 SWAP1 SWAP2 OR SWAP1 SSTORE DUP1 PUSH2 0x50F DUP2 PUSH2 0xF9B JUMP JUMPDEST SWAP2 POP POP PUSH2 0x2D7 JUMP JUMPDEST POP PUSH1 0x1 SLOAD PUSH2 0x524 JUMPI TIMESTAMP PUSH1 0x1 SSTORE JUMPDEST PUSH1 0x40 MLOAD PUSH32 0xD88A1160BE003434A4B1ED90B7A2EE9B7448B98E9D115E04F98515C84DB0D5CE SWAP1 PUSH1 0x0 SWAP1 LOG1 POP POP JUMPDEST POP JUMP JUMPDEST PUSH32 0x44C4D30B2EAAD5130AD70C3BA6972730566F3E6359AB83E800D905C61B1C51DB SLOAD PUSH1 0x1 PUSH1 0x1 PUSH1 0xA0 SHL SUB AND CALLER PUSH1 0x1 PUSH1 0x1 PUSH1 0xA0 SHL SUB AND EQ PUSH2 0x5EE JUMPI PUSH1 0x40 MLOAD PUSH3 0x461BCD PUSH1 0xE5 SHL DUP2 MSTORE PUSH1 0x20 PUSH1 0x4 DUP3 ADD MSTORE PUSH1 0x30 PUSH1 0x24 DUP3 ADD MSTORE PUSH32 0x4F6E6C79207468652070656E64696E6720476F7665726E6F722063616E20636F PUSH1 0x44 DUP3 ADD MSTORE PUSH16 0x6D706C6574652074686520636C61696D PUSH1 0x80 SHL PUSH1 0x64 DUP3 ADD MSTORE PUSH1 0x84 ADD PUSH2 0x21D JUMP JUMPDEST PUSH2 0x5F7 CALLER PUSH2 0xAE7 JUMP JUMPDEST JUMP JUMPDEST PUSH2 0x601 PUSH2 0x96B JUMP JUMPDEST PUSH2 0x61D JUMPI PUSH1 0x40 MLOAD PUSH3 0x461BCD PUSH1 0xE5 SHL DUP2 MSTORE PUSH1 0x4 ADD PUSH2 0x21D SWAP1 PUSH2 0xF09 JUMP JUMPDEST PUSH1 0x0 DUP1 SLOAD PUSH1 0x1 PUSH1 0x1 PUSH1 0xA0 SHL SUB DUP4 DUP2 AND PUSH1 0x1 PUSH1 0x1 PUSH1 0xA0 SHL SUB NOT DUP4 AND DUP2 OR SWAP1 SWAP4 SSTORE PUSH1 0x40 DUP1 MLOAD SWAP4 DUP5 MSTORE SWAP2 AND PUSH1 0x20 DUP4 ADD DUP2 SWAP1 MSTORE SWAP2 PUSH32 0x41AD0A33748DCBF4495041D0518E1204C1D5F0D65E7DCCB51877235361E75F4A SWAP2 ADD PUSH1 0x40 MLOAD DUP1 SWAP2 SUB SWAP1 LOG1 POP POP JUMP JUMPDEST PUSH1 0x0 DUP1 SLOAD PUSH1 0x1 PUSH1 0x1 PUSH1 0xA0 SHL SUB AND CALLER EQ PUSH2 0x6D7 JUMPI PUSH1 0x40 MLOAD PUSH3 0x461BCD PUSH1 0xE5 SHL DUP2 MSTORE PUSH1 0x20 PUSH1 0x4 DUP3 ADD MSTORE PUSH1 0x1A PUSH1 0x24 DUP3 ADD MSTORE PUSH32 0x526577617264733A204E6F742072657761726473546172676574000000000000 PUSH1 0x44 DUP3 ADD MSTORE PUSH1 0x64 ADD PUSH2 0x21D JUMP JUMPDEST PUSH1 0x0 PUSH1 0x1 SLOAD GT PUSH2 0x729 JUMPI PUSH1 0x40 MLOAD PUSH3 0x461BCD PUSH1 0xE5 SHL DUP2 MSTORE PUSH1 0x20 PUSH1 0x4 DUP3 ADD MSTORE PUSH1 0x1F PUSH1 0x24 DUP3 ADD MSTORE PUSH32 0x526577617264733A206C61737452657761726454696D65206973207A65726F00 PUSH1 0x44 DUP3 ADD MSTORE PUSH1 0x64 ADD PUSH2 0x21D JUMP JUMPDEST PUSH1 0x1 SLOAD TIMESTAMP GT PUSH2 0x738 JUMPI POP PUSH1 0x0 SWAP1 JUMP JUMPDEST PUSH1 0x0 DUP1 PUSH2 0x743 PUSH2 0xBA8 JUMP JUMPDEST SWAP2 POP SWAP2 POP DUP1 PUSH1 0x0 EQ PUSH2 0x755 JUMPI PUSH1 0x2 DUP2 SWAP1 SSTORE JUMPDEST TIMESTAMP PUSH1 0x1 SSTORE DUP2 ISZERO PUSH2 0x7E7 JUMPI PUSH1 0x0 SLOAD PUSH1 0x40 MLOAD PUSH4 0x40C10F19 PUSH1 0xE0 SHL DUP2 MSTORE PUSH1 0x1 PUSH1 0x1 PUSH1 0xA0 SHL SUB SWAP2 DUP3 AND PUSH1 0x4 DUP3 ADD MSTORE PUSH1 0x24 DUP2 ADD DUP5 SWAP1 MSTORE PUSH32 0x0 SWAP1 SWAP2 AND SWAP1 PUSH4 0x40C10F19 SWAP1 PUSH1 0x44 ADD PUSH1 0x0 PUSH1 0x40 MLOAD DUP1 DUP4 SUB DUP2 PUSH1 0x0 DUP8 DUP1 EXTCODESIZE ISZERO DUP1 ISZERO PUSH2 0x7CE JUMPI PUSH1 0x0 DUP1 REVERT JUMPDEST POP GAS CALL ISZERO DUP1 ISZERO PUSH2 0x7E2 JUMPI RETURNDATASIZE PUSH1 0x0 DUP1 RETURNDATACOPY RETURNDATASIZE PUSH1 0x0 REVERT JUMPDEST POP POP POP POP JUMPDEST PUSH1 0x40 MLOAD PUSH4 0x70A08231 PUSH1 0xE0 SHL DUP2 MSTORE ADDRESS PUSH1 0x4 DUP3 ADD MSTORE PUSH1 0x0 SWAP1 PUSH32 0x0 PUSH1 0x1 PUSH1 0x1 PUSH1 0xA0 SHL SUB AND SWAP1 PUSH4 0x70A08231 SWAP1 PUSH1 0x24 ADD PUSH1 0x20 PUSH1 0x40 MLOAD DUP1 DUP4 SUB DUP2 DUP7 GAS STATICCALL ISZERO DUP1 ISZERO PUSH2 0x84E JUMPI RETURNDATASIZE PUSH1 0x0 DUP1 RETURNDATACOPY RETURNDATASIZE PUSH1 0x0 REVERT JUMPDEST POP POP POP POP PUSH1 0x40 MLOAD RETURNDATASIZE PUSH1 0x1F NOT PUSH1 0x1F DUP3 ADD AND DUP3 ADD DUP1 PUSH1 0x40 MSTORE POP DUP2 ADD SWAP1 PUSH2 0x872 SWAP2 SWAP1 PUSH2 0xFB6 JUMP JUMPDEST SWAP1 POP DUP1 ISZERO PUSH2 0x914 JUMPI PUSH1 0x0 SLOAD PUSH1 0x40 MLOAD PUSH4 0xA9059CBB PUSH1 0xE0 SHL DUP2 MSTORE PUSH1 0x1 PUSH1 0x1 PUSH1 0xA0 SHL SUB SWAP2 DUP3 AND PUSH1 0x4 DUP3 ADD MSTORE PUSH1 0x24 DUP2 ADD DUP4 SWAP1 MSTORE PUSH32 0x0 SWAP1 SWAP2 AND SWAP1 PUSH4 0xA9059CBB SWAP1 PUSH1 0x44 ADD PUSH1 0x20 PUSH1 0x40 MLOAD DUP1 DUP4 SUB DUP2 PUSH1 0x0 DUP8 GAS CALL ISZERO DUP1 ISZERO PUSH2 0x8EE JUMPI RETURNDATASIZE PUSH1 0x0 DUP1 RETURNDATACOPY RETURNDATASIZE PUSH1 0x0 REVERT JUMPDEST POP POP POP POP PUSH1 0x40 MLOAD RETURNDATASIZE PUSH1 0x1F NOT PUSH1 0x1F DUP3 ADD AND DUP3 ADD DUP1 PUSH1 0x40 MSTORE POP DUP2 ADD SWAP1 PUSH2 0x912 SWAP2 SWAP1 PUSH2 0xFCF JUMP JUMPDEST POP JUMPDEST PUSH2 0x91E DUP2 DUP5 PUSH2 0xF83 JUMP JUMPDEST SWAP4 POP POP POP POP SWAP1 JUMP JUMPDEST PUSH1 0x3 DUP2 DUP2 SLOAD DUP2 LT PUSH2 0x936 JUMPI PUSH1 0x0 DUP1 REVERT JUMPDEST PUSH1 0x0 SWAP2 DUP3 MSTORE PUSH1 0x20 SWAP1 SWAP2 KECCAK256 ADD SLOAD PUSH1 0x1 PUSH1 0x1 PUSH1 0x40 SHL SUB DUP1 DUP3 AND SWAP3 POP PUSH1 0x1 PUSH1 0x40 SHL DUP3 DIV AND SWAP1 PUSH1 0x1 PUSH1 0x80 SHL SWAP1 DIV PUSH1 0x1 PUSH1 0x1 PUSH1 0x80 SHL SUB AND DUP4 JUMP JUMPDEST PUSH1 0x0 PUSH2 0x983 PUSH1 0x0 DUP1 MLOAD PUSH1 0x20 PUSH2 0x1033 DUP4 CODECOPY DUP2 MLOAD SWAP2 MSTORE SLOAD SWAP1 JUMP JUMPDEST PUSH1 0x1 PUSH1 0x1 PUSH1 0xA0 SHL SUB AND CALLER PUSH1 0x1 PUSH1 0x1 PUSH1 0xA0 SHL SUB AND EQ SWAP1 POP SWAP1 JUMP JUMPDEST PUSH2 0x9A4 PUSH2 0x96B JUMP JUMPDEST PUSH2 0x9C0 JUMPI PUSH1 0x40 MLOAD PUSH3 0x461BCD PUSH1 0xE5 SHL DUP2 MSTORE PUSH1 0x4 ADD PUSH2 0x21D SWAP1 PUSH2 0xF09 JUMP JUMPDEST PUSH2 0x9E8 DUP2 PUSH32 0x44C4D30B2EAAD5130AD70C3BA6972730566F3E6359AB83E800D905C61B1C51DB SSTORE JUMP JUMPDEST DUP1 PUSH1 0x1 PUSH1 0x1 PUSH1 0xA0 SHL SUB AND PUSH2 0xA08 PUSH1 0x0 DUP1 MLOAD PUSH1 0x20 PUSH2 0x1033 DUP4 CODECOPY DUP2 MLOAD SWAP2 MSTORE SLOAD SWAP1 JUMP JUMPDEST PUSH1 0x1 PUSH1 0x1 PUSH1 0xA0 SHL SUB AND PUSH32 0xA39CC5EB22D0F34D8BEAEFEE8A3F17CC229C1A1D1EF87A5AD47313487B1C4F0D PUSH1 0x40 MLOAD PUSH1 0x40 MLOAD DUP1 SWAP2 SUB SWAP1 LOG3 POP JUMP JUMPDEST PUSH1 0x0 DUP1 PUSH2 0xA4B PUSH2 0xBA8 JUMP JUMPDEST POP PUSH1 0x40 MLOAD PUSH4 0x70A08231 PUSH1 0xE0 SHL DUP2 MSTORE ADDRESS PUSH1 0x4 DUP3 ADD MSTORE SWAP1 SWAP2 POP PUSH32 0x0 PUSH1 0x1 PUSH1 0x1 PUSH1 0xA0 SHL SUB AND SWAP1 PUSH4 0x70A08231 SWAP1 PUSH1 0x24 ADD PUSH1 0x20 PUSH1 0x40 MLOAD DUP1 DUP4 SUB DUP2 DUP7 GAS STATICCALL ISZERO DUP1 ISZERO PUSH2 0xAB3 JUMPI RETURNDATASIZE PUSH1 0x0 DUP1 RETURNDATACOPY RETURNDATASIZE PUSH1 0x0 REVERT JUMPDEST POP POP POP POP PUSH1 0x40 MLOAD RETURNDATASIZE PUSH1 0x1F NOT PUSH1 0x1F DUP3 ADD AND DUP3 ADD DUP1 PUSH1 0x40 MSTORE POP DUP2 ADD SWAP1 PUSH2 0xAD7 SWAP2 SWAP1 PUSH2 0xFB6 JUMP JUMPDEST PUSH2 0xAE1 SWAP1 DUP3 PUSH2 0xF83 JUMP JUMPDEST SWAP3 SWAP2 POP POP JUMP JUMPDEST PUSH1 0x1 PUSH1 0x1 PUSH1 0xA0 SHL SUB DUP2 AND PUSH2 0xB3D JUMPI PUSH1 0x40 MLOAD PUSH3 0x461BCD PUSH1 0xE5 SHL DUP2 MSTORE PUSH1 0x20 PUSH1 0x4 DUP3 ADD MSTORE PUSH1 0x1A PUSH1 0x24 DUP3 ADD MSTORE PUSH32 0x4E657720476F7665726E6F722069732061646472657373283029000000000000 PUSH1 0x44 DUP3 ADD MSTORE PUSH1 0x64 ADD PUSH2 0x21D JUMP JUMPDEST DUP1 PUSH1 0x1 PUSH1 0x1 PUSH1 0xA0 SHL SUB AND PUSH2 0xB5D PUSH1 0x0 DUP1 MLOAD PUSH1 0x20 PUSH2 0x1033 DUP4 CODECOPY DUP2 MLOAD SWAP2 MSTORE SLOAD SWAP1 JUMP JUMPDEST PUSH1 0x1 PUSH1 0x1 PUSH1 0xA0 SHL SUB AND PUSH32 0xC7C0C772ADD429241571AFB3805861FB3CFA2AF374534088B76CDB4325A87E9A PUSH1 0x40 MLOAD PUSH1 0x40 MLOAD DUP1 SWAP2 SUB SWAP1 LOG3 PUSH2 0x550 DUP2 PUSH1 0x0 DUP1 MLOAD PUSH1 0x20 PUSH2 0x1033 DUP4 CODECOPY DUP2 MLOAD SWAP2 MSTORE SSTORE JUMP JUMPDEST PUSH1 0x1 SLOAD PUSH1 0x0 SWAP1 DUP2 SWAP1 TIMESTAMP DUP2 LT PUSH2 0xBC2 JUMPI POP PUSH1 0x0 SWAP3 DUP4 SWAP3 POP SWAP1 POP JUMP JUMPDEST PUSH1 0x3 SLOAD PUSH2 0xBD4 JUMPI POP PUSH1 0x0 SWAP3 DUP4 SWAP3 POP SWAP1 POP JUMP JUMPDEST PUSH1 0x2 SLOAD PUSH1 0x0 SWAP1 DUP2 SWAP1 DUP1 JUMPDEST PUSH1 0x3 SLOAD DUP2 LT ISZERO PUSH2 0xD01 JUMPI PUSH1 0x0 PUSH1 0x3 DUP3 DUP2 SLOAD DUP2 LT PUSH2 0xBFD JUMPI PUSH2 0xBFD PUSH2 0xF6D JUMP JUMPDEST PUSH1 0x0 SWAP2 DUP3 MSTORE PUSH1 0x20 SWAP2 DUP3 SWAP1 KECCAK256 PUSH1 0x40 DUP1 MLOAD PUSH1 0x60 DUP2 ADD DUP3 MSTORE SWAP3 SWAP1 SWAP2 ADD SLOAD PUSH1 0x1 PUSH1 0x1 PUSH1 0x40 SHL SUB DUP1 DUP3 AND DUP1 DUP6 MSTORE PUSH1 0x1 PUSH1 0x40 SHL DUP4 DIV SWAP1 SWAP2 AND SWAP5 DUP5 ADD DUP6 SWAP1 MSTORE PUSH1 0x1 PUSH1 0x80 SHL SWAP1 SWAP2 DIV PUSH1 0x1 PUSH1 0x1 PUSH1 0x80 SHL SUB AND SWAP2 DUP4 ADD SWAP2 SWAP1 SWAP2 MSTORE SWAP1 SWAP3 POP SWAP1 DUP8 TIMESTAMP DUP4 DUP2 LT ISZERO PUSH2 0xC65 JUMPI POP POP POP POP POP PUSH2 0xD01 JUMP JUMPDEST DUP4 DUP3 LT ISZERO PUSH2 0xC71 JUMPI DUP4 SWAP2 POP JUMPDEST DUP3 DUP2 GT ISZERO PUSH2 0xC7C JUMPI POP DUP2 JUMPDEST PUSH1 0x0 PUSH2 0xC88 DUP4 DUP4 PUSH2 0xF56 JUMP JUMPDEST SWAP1 POP PUSH3 0x15180 DUP7 PUSH1 0x40 ADD MLOAD PUSH1 0x1 PUSH1 0x1 PUSH1 0x80 SHL SUB AND DUP3 PUSH2 0xCA7 SWAP2 SWAP1 PUSH2 0xFF1 JUMP JUMPDEST PUSH2 0xCB1 SWAP2 SWAP1 PUSH2 0x1010 JUMP JUMPDEST PUSH2 0xCBB SWAP1 DUP12 PUSH2 0xF83 JUMP JUMPDEST SWAP10 POP DUP8 DUP8 GT DUP1 ISZERO PUSH2 0xCCC JUMPI POP PUSH1 0x0 DUP2 GT JUMPDEST ISZERO PUSH2 0xCD5 JUMPI DUP7 SWAP9 POP JUMPDEST DUP4 DUP3 LT ISZERO PUSH2 0xCE8 JUMPI POP POP POP POP POP POP PUSH2 0xD01 JUMP JUMPDEST POP POP POP POP POP POP DUP1 DUP1 PUSH2 0xCF9 SWAP1 PUSH2 0xF9B JUMP JUMPDEST SWAP2 POP POP PUSH2 0xBDE JUMP JUMPDEST POP SWAP2 SWAP6 SWAP1 SWAP5 POP SWAP3 POP POP POP JUMP JUMPDEST POP DUP1 SLOAD PUSH1 0x0 DUP3 SSTORE SWAP1 PUSH1 0x0 MSTORE PUSH1 0x20 PUSH1 0x0 KECCAK256 SWAP1 DUP2 ADD SWAP1 PUSH2 0x550 SWAP2 SWAP1 JUMPDEST DUP1 DUP3 GT ISZERO PUSH2 0xD3B JUMPI PUSH1 0x0 DUP2 SSTORE PUSH1 0x1 ADD PUSH2 0xD27 JUMP JUMPDEST POP SWAP1 JUMP JUMPDEST PUSH4 0x4E487B71 PUSH1 0xE0 SHL PUSH1 0x0 MSTORE PUSH1 0x41 PUSH1 0x4 MSTORE PUSH1 0x24 PUSH1 0x0 REVERT JUMPDEST PUSH1 0x40 MLOAD PUSH1 0x60 DUP2 ADD PUSH1 0x1 PUSH1 0x1 PUSH1 0x40 SHL SUB DUP2 GT DUP3 DUP3 LT OR ISZERO PUSH2 0xD77 JUMPI PUSH2 0xD77 PUSH2 0xD3F JUMP JUMPDEST PUSH1 0x40 MSTORE SWAP1 JUMP JUMPDEST PUSH1 0x40 MLOAD PUSH1 0x1F DUP3 ADD PUSH1 0x1F NOT AND DUP2 ADD PUSH1 0x1 PUSH1 0x1 PUSH1 0x40 SHL SUB DUP2 GT DUP3 DUP3 LT OR ISZERO PUSH2 0xDA5 JUMPI PUSH2 0xDA5 PUSH2 0xD3F JUMP JUMPDEST PUSH1 0x40 MSTORE SWAP2 SWAP1 POP JUMP JUMPDEST DUP1 CALLDATALOAD PUSH1 0x1 PUSH1 0x1 PUSH1 0x40 SHL SUB DUP2 AND DUP2 EQ PUSH2 0xDC4 JUMPI PUSH1 0x0 DUP1 REVERT JUMPDEST SWAP2 SWAP1 POP JUMP JUMPDEST PUSH1 0x0 PUSH1 0x20 DUP1 DUP4 DUP6 SUB SLT ISZERO PUSH2 0xDDC JUMPI PUSH1 0x0 DUP1 REVERT JUMPDEST DUP3 CALLDATALOAD PUSH1 0x1 PUSH1 0x1 PUSH1 0x40 SHL SUB DUP1 DUP3 GT ISZERO PUSH2 0xDF3 JUMPI PUSH1 0x0 DUP1 REVERT JUMPDEST DUP2 DUP6 ADD SWAP2 POP DUP6 PUSH1 0x1F DUP4 ADD SLT PUSH2 0xE07 JUMPI PUSH1 0x0 DUP1 REVERT JUMPDEST DUP2 CALLDATALOAD DUP2 DUP2 GT ISZERO PUSH2 0xE19 JUMPI PUSH2 0xE19 PUSH2 0xD3F JUMP JUMPDEST PUSH2 0xE27 DUP5 DUP3 PUSH1 0x5 SHL ADD PUSH2 0xD7D JUMP JUMPDEST DUP2 DUP2 MSTORE DUP5 DUP2 ADD SWAP3 POP PUSH1 0x60 SWAP2 DUP3 MUL DUP5 ADD DUP6 ADD SWAP2 DUP9 DUP4 GT ISZERO PUSH2 0xE46 JUMPI PUSH1 0x0 DUP1 REVERT JUMPDEST SWAP4 DUP6 ADD SWAP4 JUMPDEST DUP3 DUP6 LT ISZERO PUSH2 0xEB4 JUMPI DUP1 DUP6 DUP11 SUB SLT ISZERO PUSH2 0xE63 JUMPI PUSH1 0x0 DUP1 DUP2 REVERT JUMPDEST PUSH2 0xE6B PUSH2 0xD55 JUMP JUMPDEST PUSH2 0xE74 DUP7 PUSH2 0xDAD JUMP JUMPDEST DUP2 MSTORE PUSH2 0xE81 DUP8 DUP8 ADD PUSH2 0xDAD JUMP JUMPDEST DUP8 DUP3 ADD MSTORE PUSH1 0x40 DUP1 DUP8 ADD CALLDATALOAD PUSH1 0x1 PUSH1 0x1 PUSH1 0x80 SHL SUB DUP2 AND DUP2 EQ PUSH2 0xEA1 JUMPI PUSH1 0x0 DUP1 DUP2 REVERT JUMPDEST SWAP1 DUP3 ADD MSTORE DUP5 MSTORE SWAP4 DUP5 ADD SWAP4 SWAP3 DUP6 ADD SWAP3 PUSH2 0xE4B JUMP JUMPDEST POP SWAP8 SWAP7 POP POP POP POP POP POP POP JUMP JUMPDEST PUSH1 0x0 PUSH1 0x20 DUP3 DUP5 SUB SLT ISZERO PUSH2 0xED2 JUMPI PUSH1 0x0 DUP1 REVERT JUMPDEST DUP2 CALLDATALOAD PUSH1 0x1 PUSH1 0x1 PUSH1 0xA0 SHL SUB DUP2 AND DUP2 EQ PUSH2 0xEE9 JUMPI PUSH1 0x0 DUP1 REVERT JUMPDEST SWAP4 SWAP3 POP POP POP JUMP JUMPDEST PUSH1 0x0 PUSH1 0x20 DUP3 DUP5 SUB SLT ISZERO PUSH2 0xF02 JUMPI PUSH1 0x0 DUP1 REVERT JUMPDEST POP CALLDATALOAD SWAP2 SWAP1 POP JUMP JUMPDEST PUSH1 0x20 DUP1 DUP3 MSTORE PUSH1 0x1A SWAP1 DUP3 ADD MSTORE PUSH32 0x43616C6C6572206973206E6F742074686520476F7665726E6F72000000000000 PUSH1 0x40 DUP3 ADD MSTORE PUSH1 0x60 ADD SWAP1 JUMP JUMPDEST PUSH4 0x4E487B71 PUSH1 0xE0 SHL PUSH1 0x0 MSTORE PUSH1 0x11 PUSH1 0x4 MSTORE PUSH1 0x24 PUSH1 0x0 REVERT JUMPDEST PUSH1 0x0 DUP3 DUP3 LT ISZERO PUSH2 0xF68 JUMPI PUSH2 0xF68 PUSH2 0xF40 JUMP JUMPDEST POP SUB SWAP1 JUMP JUMPDEST PUSH4 0x4E487B71 PUSH1 0xE0 SHL PUSH1 0x0 MSTORE PUSH1 0x32 PUSH1 0x4 MSTORE PUSH1 0x24 PUSH1 0x0 REVERT JUMPDEST PUSH1 0x0 DUP3 NOT DUP3 GT ISZERO PUSH2 0xF96 JUMPI PUSH2 0xF96 PUSH2 0xF40 JUMP JUMPDEST POP ADD SWAP1 JUMP JUMPDEST PUSH1 0x0 PUSH1 0x0 NOT DUP3 EQ ISZERO PUSH2 0xFAF JUMPI PUSH2 0xFAF PUSH2 0xF40 JUMP JUMPDEST POP PUSH1 0x1 ADD SWAP1 JUMP JUMPDEST PUSH1 0x0 PUSH1 0x20 DUP3 DUP5 SUB SLT ISZERO PUSH2 0xFC8 JUMPI PUSH1 0x0 DUP1 REVERT JUMPDEST POP MLOAD SWAP2 SWAP1 POP JUMP JUMPDEST PUSH1 0x0 PUSH1 0x20 DUP3 DUP5 SUB SLT ISZERO PUSH2 0xFE1 JUMPI PUSH1 0x0 DUP1 REVERT JUMPDEST DUP2 MLOAD DUP1 ISZERO ISZERO DUP2 EQ PUSH2 0xEE9 JUMPI PUSH1 0x0 DUP1 REVERT JUMPDEST PUSH1 0x0 DUP2 PUSH1 0x0 NOT DIV DUP4 GT DUP3 ISZERO ISZERO AND ISZERO PUSH2 0x100B JUMPI PUSH2 0x100B PUSH2 0xF40 JUMP JUMPDEST POP MUL SWAP1 JUMP JUMPDEST PUSH1 0x0 DUP3 PUSH2 0x102D JUMPI PUSH4 0x4E487B71 PUSH1 0xE0 SHL PUSH1 0x0 MSTORE PUSH1 0x12 PUSH1 0x4 MSTORE PUSH1 0x24 PUSH1 0x0 REVERT JUMPDEST POP DIV SWAP1 JUMP INVALID PUSH28 0xEA13895FA79D2831E0A9E28EDEDE30099005A50D652D8957CF8A607E 0xE6 0xCA 0x4A LOG2 PUSH5 0x6970667358 0x22 SLT KECCAK256 0xAE DUP15 EQ DELEGATECALL DUP5 SHR CALL STOP SUB 0x2A 0xC9 LOG4 SWAP5 0xDF 0xDC 0xD2 DUP15 CREATE MOD SWAP3 0xC0 SLT 0x1F PUSH11 0xAC20E92F8A285B2664736F PUSH13 0x634300080A0033000000000000 ","sha1":"9aa77f7137602c08584a4d3652e88605d168574c","source":"// SPDX-License-Identifier: MIT\npragma solidity 0.8.10;\nimport {Governable} from \"./Governable.sol\";\n\ninterface Mintable {\n    function mint(address to, uint256 amount) external;\n    function balanceOf(address owner) external view returns (uint256);\n    function transfer(address to, uint256 amount) external returns (bool);\n}\n\n/// @title OGV Inflation and Rewards\n/// @author Daniel Von Fange\ncontract RewardsSource is Governable {\n    address public immutable ogv;\n    address public rewardsTarget; // Contract that receives rewards\n    uint256 public lastRewardTime; // Start of the time to calculate rewards over\n    uint256 private currentSlopeIndex = 0; // Allows us to start with the correct slope\n\n    struct Slope {\n        uint64 start; // uint64 = billions and billions of years\n        uint64 end; // Internal use only. By duplicating the start of the next slope, we can save a slot read\n        uint128 ratePerDay;\n    }\n    Slope[] public inflationSlopes;\n\n    uint256 constant MAX_KNEES = 48;\n    uint256 constant MAX_INFLATION_PER_DAY = (5 * 1e6 * 1e18);\n\n    event InflationChanged();\n    event RewardsTargetChange(address target, address previousTarget);\n\n    constructor(address ogv_) {\n        require(ogv_ != address(0), \"Rewards: OGV must be set\");\n        ogv = ogv_;\n    }\n\n    /// @notice Collect rewards.\n    ///\n    /// Can only be called by the contract that will receive the rewards.\n    ///\n    /// @return rewards OGV collected\n    function collectRewards() external returns (uint256) {\n        require(msg.sender == rewardsTarget, \"Rewards: Not rewardsTarget\");\n        require(lastRewardTime > 0, \"Rewards: lastRewardTime is zero\"); // Ensures initialization\n        if (block.timestamp <= lastRewardTime) {\n            return 0;\n        }\n        (uint256 inflation, uint256 _nextSlopeIndex) = _calculateInflation();\n        if (_nextSlopeIndex != 0) {\n            currentSlopeIndex = _nextSlopeIndex;\n        }\n        lastRewardTime = block.timestamp;\n\n        if (inflation > 0) {\n            // Mint the inflation\n            Mintable(ogv).mint(rewardsTarget, inflation);\n        }\n\n        // OGV Balance of this contract\n        uint256 balance = Mintable(ogv).balanceOf(address(this));\n        if (balance > 0) {\n            // Transfer the balance\n            Mintable(ogv).transfer(rewardsTarget, balance);\n        }\n\n        return inflation + balance;\n    }\n\n    /// @notice Preview the amount of rewards that would be returned if rewards\n    /// were collected now.\n    ///\n    /// @return rewards OGV that would be collected\n    function previewRewards() external view returns (uint256) {\n        (uint256 rewards, ) = _calculateInflation();\n\n        // When previewing rewards, check contract's own OGV balance,\n        // and if present, send that along as part of the rewards\n        rewards += Mintable(ogv).balanceOf(address(this));\n\n        return rewards;\n    }\n\n    /// @dev Determine the amount of inflation / rewards that will have accrued\n    /// between the lastRewardTime and now.\n    ///\n    /// @return total OGV rewards accrued in the time period\n    /// @return slopeIndex a value to be cached, if non-zero, to speed up\n    ///   computing rewards in the future.\n    function _calculateInflation() internal view returns (uint256, uint256) {\n        uint256 last = lastRewardTime;\n        if (last >= block.timestamp) {\n            return (0, 0); // A zero slopeIndex here results in no change to stored state\n        }\n        if (inflationSlopes.length == 0) {\n            return (0, 0); // Save a slot read by returning a zero constant\n        }\n        uint256 total = 0;\n        uint256 nextSlopeIndex = 0; // Zero means no change\n        uint256 _currentSlopeIndex = currentSlopeIndex;\n        uint256 i;\n        for (i = _currentSlopeIndex; i < inflationSlopes.length; i++) {\n            Slope memory slope = inflationSlopes[i];\n            uint256 slopeStart = slope.start;\n            uint256 slopeEnd = slope.end;\n            uint256 rangeStart = last;\n            uint256 rangeEnd = block.timestamp;\n            if (rangeEnd < slopeStart) {\n                break; // No current or future slope could match\n            }\n            if (rangeStart < slopeStart) {\n                rangeStart = slopeStart; // trim to slope edge\n            }\n            if (rangeEnd > slopeEnd) {\n                rangeEnd = slopeEnd; // trim to slope edge\n            }\n            uint256 duration = rangeEnd - rangeStart;\n            total += (duration * slope.ratePerDay) / 1 days;\n            if (i > _currentSlopeIndex && duration > 0) {\n                nextSlopeIndex = i; // We have moved into a new slope\n            }\n            if (rangeEnd < slopeEnd) {\n                break; // No future slope could match\n            }\n        }\n\n        return (total, nextSlopeIndex);\n    }\n\n    /// @notice Set inflation schedule.\n    ///\n    /// Inflation slopes use start times and ratePerDay. End times are\n    /// overwritten to be either the start of the next slope, or in the case of\n    /// the last slope, a max int64. The rate of the last slope then becomes\n    /// the inflation rate held into the future.\n    ///\n    /// The first slope start time may be defined into the future. In this case\n    /// there will be no inflation until that first start time is reached.\n    ///\n    /// @param slopes inflation slope configuration\n    function setInflation(Slope[] memory slopes) external onlyGovernor {\n        // slope ends intentionally are overwritten\n        uint256 length = slopes.length;\n        require(length <= MAX_KNEES, \"Rewards: Too many slopes\");\n        delete inflationSlopes; // Delete all before rebuilding\n        currentSlopeIndex = 0; // Reset\n        uint256 minSlopeStart = 0;\n        if (length == 0) {\n            return;\n        }\n        slopes[length - 1].end = type(uint64).max;\n        for (uint256 i = 0; i < length; i++) {\n            require(\n                slopes[i].ratePerDay <= MAX_INFLATION_PER_DAY,\n                \"Rewards: RatePerDay too high\"\n            );\n            require(\n                slopes[i].start > minSlopeStart,\n                \"Rewards: Start times must increase\"\n            );\n            if (i < length - 1) {\n                slopes[i].end = slopes[i + 1].start;\n                minSlopeStart = slopes[i].start;\n            }\n            inflationSlopes.push(slopes[i]);\n        }\n        // No rewards can accrue before first setInflation\n        if (lastRewardTime == 0) {\n            lastRewardTime = block.timestamp;\n        }\n        emit InflationChanged();\n    }\n\n    /// @notice Set the address of the contract than can collect rewards\n    /// @param rewardsTarget_ contract address that can collect rewards\n    function setRewardsTarget(address rewardsTarget_) external onlyGovernor {\n        address previousTarget = rewardsTarget;\n        rewardsTarget = rewardsTarget_; // Okay to be zero, just disables collecting rewards\n        emit RewardsTargetChange(rewardsTarget_, previousTarget);\n    }\n}\n","sourcePath":"contracts/RewardsSource.sol","type":"contract","deployment":{"address":"0xE82191eF8996852a802aaE509993770480F9CA2C","chainid":"1","blockHeight":15572531}}