{"abi":[{"inputs":[{"internalType":"address","name":"ogv_","type":"address"},{"internalType":"uint256","name":"epoch_","type":"uint256"},{"internalType":"uint256","name":"minStakeDuration_","type":"uint256"},{"internalType":"address","name":"rewardsSource_","type":"address"}],"stateMutability":"nonpayable","type":"constructor","name":"constructor"},{"inputs":[{"internalType":"uint256","name":"x","type":"uint256"}],"name":"PRBMathUD60x18__Exp2InputTooBig","type":"error"},{"inputs":[{"internalType":"uint256","name":"x","type":"uint256"}],"name":"PRBMathUD60x18__LogInputTooSmall","type":"error"},{"inputs":[{"internalType":"uint256","name":"prod1","type":"uint256"}],"name":"PRBMath__MulDivFixedPointOverflow","type":"error"},{"anonymous":false,"inputs":[{"indexed":true,"internalType":"address","name":"owner","type":"address"},{"indexed":true,"internalType":"address","name":"spender","type":"address"},{"indexed":false,"internalType":"uint256","name":"value","type":"uint256"}],"name":"Approval","type":"event"},{"anonymous":false,"inputs":[{"indexed":true,"internalType":"address","name":"delegator","type":"address"},{"indexed":true,"internalType":"address","name":"fromDelegate","type":"address"},{"indexed":true,"internalType":"address","name":"toDelegate","type":"address"}],"name":"DelegateChanged","type":"event"},{"anonymous":false,"inputs":[{"indexed":true,"internalType":"address","name":"delegate","type":"address"},{"indexed":false,"internalType":"uint256","name":"previousBalance","type":"uint256"},{"indexed":false,"internalType":"uint256","name":"newBalance","type":"uint256"}],"name":"DelegateVotesChanged","type":"event"},{"anonymous":false,"inputs":[{"indexed":true,"internalType":"address","name":"user","type":"address"},{"indexed":false,"internalType":"uint256","name":"amount","type":"uint256"}],"name":"Reward","type":"event"},{"anonymous":false,"inputs":[{"indexed":true,"internalType":"address","name":"user","type":"address"},{"indexed":false,"internalType":"uint256","name":"lockupId","type":"uint256"},{"indexed":false,"internalType":"uint256","name":"amount","type":"uint256"},{"indexed":false,"internalType":"uint256","name":"end","type":"uint256"},{"indexed":false,"internalType":"uint256","name":"points","type":"uint256"}],"name":"Stake","type":"event"},{"anonymous":false,"inputs":[{"indexed":true,"internalType":"address","name":"from","type":"address"},{"indexed":true,"internalType":"address","name":"to","type":"address"},{"indexed":false,"internalType":"uint256","name":"value","type":"uint256"}],"name":"Transfer","type":"event"},{"anonymous":false,"inputs":[{"indexed":true,"internalType":"address","name":"user","type":"address"},{"indexed":false,"internalType":"uint256","name":"lockupId","type":"uint256"},{"indexed":false,"internalType":"uint256","name":"amount","type":"uint256"},{"indexed":false,"internalType":"uint256","name":"end","type":"uint256"},{"indexed":false,"internalType":"uint256","name":"points","type":"uint256"}],"name":"Unstake","type":"event"},{"inputs":[],"name":"DOMAIN_SEPARATOR","outputs":[{"internalType":"bytes32","name":"","type":"bytes32"}],"stateMutability":"view","type":"function"},{"inputs":[],"name":"accRewardPerShare","outputs":[{"internalType":"uint256","name":"","type":"uint256"}],"stateMutability":"view","type":"function"},{"inputs":[{"internalType":"address","name":"owner","type":"address"},{"internalType":"address","name":"spender","type":"address"}],"name":"allowance","outputs":[{"internalType":"uint256","name":"","type":"uint256"}],"stateMutability":"view","type":"function"},{"inputs":[{"internalType":"address","name":"spender","type":"address"},{"internalType":"uint256","name":"amount","type":"uint256"}],"name":"approve","outputs":[{"internalType":"bool","name":"","type":"bool"}],"stateMutability":"nonpayable","type":"function"},{"inputs":[{"internalType":"address","name":"account","type":"address"}],"name":"balanceOf","outputs":[{"internalType":"uint256","name":"","type":"uint256"}],"stateMutability":"view","type":"function"},{"inputs":[{"internalType":"address","name":"account","type":"address"},{"internalType":"uint32","name":"pos","type":"uint32"}],"name":"checkpoints","outputs":[{"components":[{"internalType":"uint32","name":"fromBlock","type":"uint32"},{"internalType":"uint224","name":"votes","type":"uint224"}],"internalType":"struct ERC20Votes.Checkpoint","name":"","type":"tuple"}],"stateMutability":"view","type":"function"},{"inputs":[],"name":"collectRewards","outputs":[],"stateMutability":"nonpayable","type":"function"},{"inputs":[],"name":"decimals","outputs":[{"internalType":"uint8","name":"","type":"uint8"}],"stateMutability":"view","type":"function"},{"inputs":[{"internalType":"address","name":"spender","type":"address"},{"internalType":"uint256","name":"subtractedValue","type":"uint256"}],"name":"decreaseAllowance","outputs":[{"internalType":"bool","name":"","type":"bool"}],"stateMutability":"nonpayable","type":"function"},{"inputs":[{"internalType":"address","name":"delegatee","type":"address"}],"name":"delegate","outputs":[],"stateMutability":"nonpayable","type":"function"},{"inputs":[{"internalType":"address","name":"delegatee","type":"address"},{"internalType":"uint256","name":"nonce","type":"uint256"},{"internalType":"uint256","name":"expiry","type":"uint256"},{"internalType":"uint8","name":"v","type":"uint8"},{"internalType":"bytes32","name":"r","type":"bytes32"},{"internalType":"bytes32","name":"s","type":"bytes32"}],"name":"delegateBySig","outputs":[],"stateMutability":"nonpayable","type":"function"},{"inputs":[{"internalType":"address","name":"account","type":"address"}],"name":"delegates","outputs":[{"internalType":"address","name":"","type":"address"}],"stateMutability":"view","type":"function"},{"inputs":[],"name":"epoch","outputs":[{"internalType":"uint256","name":"","type":"uint256"}],"stateMutability":"view","type":"function"},{"inputs":[{"internalType":"uint256","name":"lockupId","type":"uint256"},{"internalType":"uint256","name":"duration","type":"uint256"}],"name":"extend","outputs":[],"stateMutability":"nonpayable","type":"function"},{"inputs":[{"internalType":"uint256","name":"blockNumber","type":"uint256"}],"name":"getPastTotalSupply","outputs":[{"internalType":"uint256","name":"","type":"uint256"}],"stateMutability":"view","type":"function"},{"inputs":[{"internalType":"address","name":"account","type":"address"},{"internalType":"uint256","name":"blockNumber","type":"uint256"}],"name":"getPastVotes","outputs":[{"internalType":"uint256","name":"","type":"uint256"}],"stateMutability":"view","type":"function"},{"inputs":[{"internalType":"address","name":"account","type":"address"}],"name":"getVotes","outputs":[{"internalType":"uint256","name":"","type":"uint256"}],"stateMutability":"view","type":"function"},{"inputs":[{"internalType":"address","name":"","type":"address"}],"name":"hasDelegationSet","outputs":[{"internalType":"bool","name":"","type":"bool"}],"stateMutability":"view","type":"function"},{"inputs":[{"internalType":"address","name":"spender","type":"address"},{"internalType":"uint256","name":"addedValue","type":"uint256"}],"name":"increaseAllowance","outputs":[{"internalType":"bool","name":"","type":"bool"}],"stateMutability":"nonpayable","type":"function"},{"inputs":[{"internalType":"address","name":"","type":"address"},{"internalType":"uint256","name":"","type":"uint256"}],"name":"lockups","outputs":[{"internalType":"uint128","name":"amount","type":"uint128"},{"internalType":"uint128","name":"end","type":"uint128"},{"internalType":"uint256","name":"points","type":"uint256"}],"stateMutability":"view","type":"function"},{"inputs":[],"name":"minStakeDuration","outputs":[{"internalType":"uint256","name":"","type":"uint256"}],"stateMutability":"view","type":"function"},{"inputs":[],"name":"name","outputs":[{"internalType":"string","name":"","type":"string"}],"stateMutability":"pure","type":"function"},{"inputs":[{"internalType":"address","name":"owner","type":"address"}],"name":"nonces","outputs":[{"internalType":"uint256","name":"","type":"uint256"}],"stateMutability":"view","type":"function"},{"inputs":[{"internalType":"address","name":"account","type":"address"}],"name":"numCheckpoints","outputs":[{"internalType":"uint32","name":"","type":"uint32"}],"stateMutability":"view","type":"function"},{"inputs":[],"name":"ogv","outputs":[{"internalType":"contract ERC20","name":"","type":"address"}],"stateMutability":"view","type":"function"},{"inputs":[{"internalType":"address","name":"owner","type":"address"},{"internalType":"address","name":"spender","type":"address"},{"internalType":"uint256","name":"value","type":"uint256"},{"internalType":"uint256","name":"deadline","type":"uint256"},{"internalType":"uint8","name":"v","type":"uint8"},{"internalType":"bytes32","name":"r","type":"bytes32"},{"internalType":"bytes32","name":"s","type":"bytes32"}],"name":"permit","outputs":[],"stateMutability":"nonpayable","type":"function"},{"inputs":[{"internalType":"uint256","name":"amount","type":"uint256"},{"internalType":"uint256","name":"duration","type":"uint256"}],"name":"previewPoints","outputs":[{"internalType":"uint256","name":"","type":"uint256"},{"internalType":"uint256","name":"","type":"uint256"}],"stateMutability":"view","type":"function"},{"inputs":[{"internalType":"address","name":"user","type":"address"}],"name":"previewRewards","outputs":[{"internalType":"uint256","name":"","type":"uint256"}],"stateMutability":"view","type":"function"},{"inputs":[{"internalType":"address","name":"","type":"address"}],"name":"rewardDebtPerShare","outputs":[{"internalType":"uint256","name":"","type":"uint256"}],"stateMutability":"view","type":"function"},{"inputs":[],"name":"rewardsSource","outputs":[{"internalType":"contract RewardsSource","name":"","type":"address"}],"stateMutability":"view","type":"function"},{"inputs":[{"internalType":"uint256","name":"amount","type":"uint256"},{"internalType":"uint256","name":"duration","type":"uint256"},{"internalType":"address","name":"to","type":"address"}],"name":"stake","outputs":[],"stateMutability":"nonpayable","type":"function"},{"inputs":[{"internalType":"uint256","name":"amount","type":"uint256"},{"internalType":"uint256","name":"duration","type":"uint256"}],"name":"stake","outputs":[],"stateMutability":"nonpayable","type":"function"},{"inputs":[],"name":"symbol","outputs":[{"internalType":"string","name":"","type":"string"}],"stateMutability":"pure","type":"function"},{"inputs":[],"name":"totalSupply","outputs":[{"internalType":"uint256","name":"","type":"uint256"}],"stateMutability":"view","type":"function"},{"inputs":[{"internalType":"address","name":"","type":"address"},{"internalType":"uint256","name":"","type":"uint256"}],"name":"transfer","outputs":[{"internalType":"bool","name":"","type":"bool"}],"stateMutability":"nonpayable","type":"function"},{"inputs":[{"internalType":"address","name":"","type":"address"},{"internalType":"address","name":"","type":"address"},{"internalType":"uint256","name":"","type":"uint256"}],"name":"transferFrom","outputs":[{"internalType":"bool","name":"","type":"bool"}],"stateMutability":"nonpayable","type":"function"},{"inputs":[{"internalType":"uint256","name":"lockupId","type":"uint256"}],"name":"unstake","outputs":[],"stateMutability":"nonpayable","type":"function"}],"bytecode":"6101c06040523480156200001257600080fd5b50604051620039f4380380620039f4833981016040819052620000359162000239565b604051806040016040528060058152602001643b32a7a3ab60d91b81525080604051806040016040528060018152602001603160f81b81525060405180602001604052806000815250604051806020016040528060008152508160039080519060200190620000a692919062000176565b508051620000bc90600490602084019062000176565b5050825160208085019190912083518483012060e08290526101008190524660a0818152604080517f8b73c3c69bb8fe3d512ecc4cf759cc79239f7b179b0ffacaa9a75d522b39400f81880181905281830187905260608201869052608082019490945230818401528151808203909301835260c0019052805194019390932091935091906080523060c05261012052505050506001600160a01b0394851661018052506101409290925261016052166101a052620002c1565b828054620001849062000284565b90600052602060002090601f016020900481019282620001a85760008555620001f3565b82601f10620001c357805160ff1916838001178555620001f3565b82800160010185558215620001f3579182015b82811115620001f3578251825591602001919060010190620001d6565b506200020192915062000205565b5090565b5b8082111562000201576000815560010162000206565b80516001600160a01b03811681146200023457600080fd5b919050565b600080600080608085870312156200025057600080fd5b6200025b856200021c565b9350602085015192506040850151915062000279606086016200021c565b905092959194509250565b600181811c908216806200029957607f821691505b60208210811415620002bb57634e487b7160e01b600052602260045260246000fd5b50919050565b60805160a05160c05160e05161010051610120516101405161016051610180516101a05161366a6200038a600039600081816105db0152818161136d015261164201526000818161029101528181610812015281816115cb015281816116e9015281816118460152611ddb0152600081816103b5015261098a01526000818161048101528181610a3901528181610a600152610aa2015260006119a5015260006119f4015260006119cf01526000611928015260006119520152600061197c015261366a6000f3fe608060405234801561001057600080fd5b50600436106102275760003560e01c806370bb45b311610130578063a457c2d7116100b8578063d505accf1161007c578063d505accf14610560578063dd62ed3e14610573578063f1127ed814610586578063f166e920146105c3578063f7240d2f146105d657600080fd5b8063a457c2d7146104e0578063a9059cbb146104f3578063c3cda52014610501578063c89258db14610514578063c93d0b1e1461052757600080fd5b80638e539e8c116100ff5780638e539e8c14610469578063900cf0cf1461047c578063939d6237146104a357806395d89b41146104ac5780639ab24eb0146104cd57600080fd5b806370bb45b3146104285780637628a37d146104305780637b0472f0146104435780637ecebe001461045657600080fd5b806339509351116101b3578063587cde1e11610182578063587cde1e1461038a5780635c19a95c1461039d5780635fec5c64146103b05780636fcfff45146103d757806370a08231146103ff57600080fd5b8063395093511461031c5780633a46b1a81461032f5780634423bf57146103425780634fd0e6481461036257600080fd5b806318160ddd116101fa57806318160ddd146102cb57806323b872dd146102dd5780632e17de78146102f0578063313ce567146103055780633644e5151461031457600080fd5b80630348dbf11461022c57806306fdde0314610264578063095ea7b314610279578063142561cf1461028c575b600080fd5b61024f61023a366004613297565b600d6020526000908152604090205460ff1681565b60405190151581526020015b60405180910390f35b61026c6105fd565b60405161025b91906132b2565b61024f610287366004613307565b61061d565b6102b37f000000000000000000000000000000000000000000000000000000000000000081565b6040516001600160a01b03909116815260200161025b565b6002545b60405190815260200161025b565b61024f6102eb366004613331565b610637565b6103036102fe36600461336d565b610687565b005b6040516012815260200161025b565b6102cf6108da565b61024f61032a366004613307565b6108e9565b6102cf61033d366004613307565b61090b565b6102cf610350366004613297565b600b6020526000908152604090205481565b610375610370366004613386565b610985565b6040805192835260208301919091520161025b565b6102b3610398366004613297565b610b26565b6103036103ab366004613297565b610b44565b6102cf7f000000000000000000000000000000000000000000000000000000000000000081565b6103ea6103e5366004613297565b610b51565b60405163ffffffff909116815260200161025b565b6102cf61040d366004613297565b6001600160a01b031660009081526020819052604090205490565b610303610b73565b61030361043e3660046133a8565b610b7e565b610303610451366004613386565b610b8e565b6102cf610464366004613297565b610b9d565b6102cf61047736600461336d565b610bbb565b6102cf7f000000000000000000000000000000000000000000000000000000000000000081565b6102cf600c5481565b6040805180820190915260058152643b32a7a3ab60d91b602082015261026c565b6102cf6104db366004613297565b610c17565b61024f6104ee366004613307565b610c9d565b61024f6102eb366004613307565b61030361050f3660046133ee565b610d23565b610303610522366004613386565b610e77565b61053a610535366004613307565b6110c6565b604080516001600160801b0394851681529390921660208401529082015260600161025b565b61030361056e366004613446565b611117565b6102cf6105813660046134b0565b611299565b6105996105943660046134e3565b6112c4565b60408051825163ffffffff1681526020928301516001600160e01b0316928101929092520161025b565b6102cf6105d1366004613297565b611347565b6102b37f000000000000000000000000000000000000000000000000000000000000000081565b606060405180606001604052806024815260200161361160249139905090565b60003361062b81858561147c565b60019150505b92915050565b60405162461bcd60e51b815260206004820152601b60248201527f5374616b696e673a205472616e73666572732064697361626c6564000000000060448201526000906064015b60405180910390fd5b336000908152600a602052604081208054839081106106a8576106a8613523565b600091825260209182902060408051606081018252600290930290910180546001600160801b03808216808652600160801b90920416948401859052600190910154918301829052919350909190428211156107515760405162461bcd60e51b815260206004820152602260248201527f5374616b696e673a20456e64206f66206c6f636b7570206e6f74207265616368604482015261195960f21b606482015260840161067e565b816107ac5760405162461bcd60e51b815260206004820152602560248201527f5374616b696e673a20416c726561647920756e7374616b65642074686973206c60448201526406f636b75760dc1b606482015260840161067e565b6107b5336115a0565b336000908152600a602052604090208054869081106107d6576107d6613523565b600091825260208220600290910201818155600101556107f633826118fd565b60405163a9059cbb60e01b8152336004820152602481018490527f00000000000000000000000000000000000000000000000000000000000000006001600160a01b03169063a9059cbb906044016020604051808303816000875af1158015610863573d6000803e3d6000fd5b505050506040513d601f19601f820116820180604052508101906108879190613539565b5060408051868152602081018590529081018390526060810182905233907f05b744e3e9358bc00ba3cc0c6606a4d6536134dba00b2d2ee4b5de169acd6427906080015b60405180910390a25050505050565b60006108e461191b565b905090565b60003361062b8185856108fc8383611299565b6109069190613571565b61147c565b600043821061095c5760405162461bcd60e51b815260206004820152601f60248201527f4552433230566f7465733a20626c6f636b206e6f7420796574206d696e656400604482015260640161067e565b6001600160a01b038316600090815260086020526040902061097e9083611a42565b9392505050565b6000807f00000000000000000000000000000000000000000000000000000000000000008310156109ed5760405162461bcd60e51b815260206004820152601260248201527114dd185ada5b99ce88151bdbc81cda1bdc9d60721b604482015260640161067e565b6307861f80831115610a355760405162461bcd60e51b81526020600482015260116024820152705374616b696e673a20546f6f206c6f6e6760781b604482015260640161067e565b60007f00000000000000000000000000000000000000000000000000000000000000004211610a84577f0000000000000000000000000000000000000000000000000000000000000000610a86565b425b90506000610a948583613571565b905060006301e13380610ac77f000000000000000000000000000000000000000000000000000000000000000084613589565b610ad990670de0b6b3a76400006135a0565b610ae391906135bf565b90506000610af96718fae27693b4000083611afe565b9050670de0b6b3a7640000610b0e828a6135a0565b610b1891906135bf565b989297509195505050505050565b6001600160a01b039081166000908152600760205260409020541690565b610b4e3382611b3d565b50565b6001600160a01b03811660009081526008602052604081205461063190611b6a565b610b7c336115a0565b565b610b89838383611bd3565b505050565b610b99828233611bd3565b5050565b6001600160a01b038116600090815260056020526040812054610631565b6000438210610c0c5760405162461bcd60e51b815260206004820152601f60248201527f4552433230566f7465733a20626c6f636b206e6f7420796574206d696e656400604482015260640161067e565b610631600983611a42565b6001600160a01b0381166000908152600860205260408120548015610c8a576001600160a01b0383166000908152600860205260409020610c59600183613589565b81548110610c6957610c69613523565b600091825260209091200154600160201b90046001600160e01b0316610c8d565b60005b6001600160e01b03169392505050565b60003381610cab8286611299565b905083811015610d0b5760405162461bcd60e51b815260206004820152602560248201527f45524332303a2064656372656173656420616c6c6f77616e63652062656c6f77604482015264207a65726f60d81b606482015260840161067e565b610d18828686840361147c565b506001949350505050565b83421115610d735760405162461bcd60e51b815260206004820152601d60248201527f4552433230566f7465733a207369676e61747572652065787069726564000000604482015260640161067e565b604080517fe48329057bfd03d55e49b547132e39cffd9c1820ad7b9d4c5307691425d15adf60208201526001600160a01b038816918101919091526060810186905260808101859052600090610ded90610de59060a00160405160208183030381529060405280519060200120611f03565b858585611f51565b9050610e16816001600160a01b0316600090815260056020526040902080546001810190915590565b8614610e645760405162461bcd60e51b815260206004820152601960248201527f4552433230566f7465733a20696e76616c6964206e6f6e636500000000000000604482015260640161067e565b610e6e8188611b3d565b50505050505050565b610e80336115a0565b336000908152600a60205260408120805484908110610ea157610ea1613523565b6000918252602080832060408051606081018252600290940290910180546001600160801b03808216808752600160801b90920416938501849052600190910154918401829052929450919290919080610efb8588610985565b91509150838111610f595760405162461bcd60e51b815260206004820152602260248201527f5374616b696e673a204e6577206c6f636b7570206d757374206265206c6f6e6760448201526132b960f11b606482015260840161067e565b6001600160801b0381166020808801919091526040808801849052336000908152600a909252902080548791908a908110610f9657610f96613523565b60009182526020918290208351928401516001600160801b03908116600160801b029316929092176002909102909101908155604090910151600190910155610fe833610fe38585613589565b611f79565b336000908152600d602052604090205460ff161580156110195750600061100e33610b26565b6001600160a01b0316145b15611028576110283333611b3d565b60408051898152602081018790529081018590526060810184905233907f05b744e3e9358bc00ba3cc0c6606a4d6536134dba00b2d2ee4b5de169acd64279060800160405180910390a260408051898152602081018790529081018290526060810183905233907f2720efa4b2dd4f3f8a347da3cbd290a522e9432da9072c5b8e6300496fdde2829060800160405180910390a25050505050505050565b600a60205281600052604060002081815481106110e257600080fd5b6000918252602090912060029091020180546001909101546001600160801b038083169450600160801b909204909116915083565b834211156111675760405162461bcd60e51b815260206004820152601d60248201527f45524332305065726d69743a206578706972656420646561646c696e65000000604482015260640161067e565b60007f6e71edae12b1b97f4d1f60370fef10105fa2faae0126114a169c64845d6126c98888886111b48c6001600160a01b0316600090815260056020526040902080546001810190915590565b6040805160208101969096526001600160a01b0394851690860152929091166060840152608083015260a082015260c0810186905260e001604051602081830303815290604052805190602001209050600061120f82611f03565b9050600061121f82878787611f51565b9050896001600160a01b0316816001600160a01b0316146112825760405162461bcd60e51b815260206004820152601e60248201527f45524332305065726d69743a20696e76616c6964207369676e61747572650000604482015260640161067e565b61128d8a8a8a61147c565b50505050505050505050565b6001600160a01b03918216600090815260016020908152604080832093909416825291909152205490565b60408051808201909152600080825260208201526001600160a01b0383166000908152600860205260409020805463ffffffff841690811061130857611308613523565b60009182526020918290206040805180820190915291015463ffffffff81168252600160201b90046001600160e01b0316918101919091529392505050565b60008061135360025490565b9050806113635750600092915050565b6000600c549050817f00000000000000000000000000000000000000000000000000000000000000006001600160a01b031663e0d801dd6040518163ffffffff1660e01b8152600401602060405180830381865afa1580156113c9573d6000803e3d6000fd5b505050506040513d601f19601f820116820180604052508101906113ed91906135e1565b6113fc9064e8d4a510006135a0565b61140691906135bf565b6114109082613571565b6001600160a01b0385166000908152600b6020526040812054919250906114379083613589565b905064e8d4a510008161145f876001600160a01b031660009081526020819052604090205490565b61146991906135a0565b61147391906135bf565b95945050505050565b6001600160a01b0383166114de5760405162461bcd60e51b8152602060048201526024808201527f45524332303a20617070726f76652066726f6d20746865207a65726f206164646044820152637265737360e01b606482015260840161067e565b6001600160a01b03821661153f5760405162461bcd60e51b815260206004820152602260248201527f45524332303a20617070726f766520746f20746865207a65726f206164647265604482015261737360f01b606482015260840161067e565b6001600160a01b0383811660008181526001602090815260408083209487168084529482529182902085905590518481527f8c5be1e5ebec7d5bd14f71427d1e84f3dd0314c0f7b2291e5b200ac8c7c3b925910160405180910390a3505050565b60006115ab60025490565b90508015611793576040516370a0823160e01b81523060048201526000907f00000000000000000000000000000000000000000000000000000000000000006001600160a01b0316906370a0823190602401602060405180830381865afa15801561161a573d6000803e3d6000fd5b505050506040513d601f19601f8201168201806040525081019061163e91906135e1565b90507f00000000000000000000000000000000000000000000000000000000000000006001600160a01b03166370bb45b36040518163ffffffff1660e01b81526004016020604051808303816000875af19250505080156116bc575060408051601f3d908101601f191682019092526116b9918101906135e1565b60015b6116c5576116c7565b505b6040516370a0823160e01b815230600482015260009082906001600160a01b037f000000000000000000000000000000000000000000000000000000000000000016906370a0823190602401602060405180830381865afa158015611730573d6000803e3d6000fd5b505050506040513d601f19601f8201168201806040525081019061175491906135e1565b61175e9190613589565b9050826117708264e8d4a510006135a0565b61177a91906135bf565b600c600082825461178b9190613571565b909155505050505b6001600160a01b0382166000908152600b6020526040812054600c546117b99190613589565b9050600064e8d4a51000826117e3866001600160a01b031660009081526020819052604090205490565b6117ed91906135a0565b6117f791906135bf565b600c546001600160a01b0386166000908152600b60205260409020559050806118205750505050565b60405163a9059cbb60e01b81526001600160a01b038581166004830152602482018390527f0000000000000000000000000000000000000000000000000000000000000000169063a9059cbb906044016020604051808303816000875af115801561188f573d6000803e3d6000fd5b505050506040513d601f19601f820116820180604052508101906118b39190613539565b50836001600160a01b03167f619caafabdd75649b302ba8419e48cccf64f37f1983ac4727cfb38b57703ffc9826040516118ef91815260200190565b60405180910390a250505050565b6119078282612003565b611915600961215883612164565b50505050565b6000306001600160a01b037f00000000000000000000000000000000000000000000000000000000000000001614801561197457507f000000000000000000000000000000000000000000000000000000000000000046145b1561199e57507f000000000000000000000000000000000000000000000000000000000000000090565b50604080517f00000000000000000000000000000000000000000000000000000000000000006020808301919091527f0000000000000000000000000000000000000000000000000000000000000000828401527f000000000000000000000000000000000000000000000000000000000000000060608301524660808301523060a0808401919091528351808403909101815260c0909201909252805191012090565b8154600090815b81811015611aa6576000611a5d82846122db565b905084868281548110611a7257611a72613523565b60009182526020909120015463ffffffff161115611a9257809250611aa0565b611a9d816001613571565b91505b50611a49565b8115611ae95784611ab8600184613589565b81548110611ac857611ac8613523565b600091825260209091200154600160201b90046001600160e01b0316611aec565b60005b6001600160e01b031695945050505050565b600082611b23578115611b12576000611b1c565b670de0b6b3a76400005b9050610631565b61097e611b38611b32856122f6565b846123a6565b6123b2565b6001600160a01b0382166000908152600d60205260409020805460ff19166001179055610b9982826123f8565b600063ffffffff821115611bcf5760405162461bcd60e51b815260206004820152602660248201527f53616665436173743a2076616c756520646f65736e27742066697420696e203360448201526532206269747360d01b606482015260840161067e565b5090565b6001600160a01b038116611c295760405162461bcd60e51b815260206004820152601c60248201527f5374616b696e673a20546f20746865207a65726f206164647265737300000000604482015260640161067e565b6001600160801b03831115611c745760405162461bcd60e51b81526020600482015260116024820152700a6e8c2d6d2dcce7440a8dede40daeac6d607b1b604482015260640161067e565b60008311611cba5760405162461bcd60e51b81526020600482015260136024820152720a6e8c2d6d2dcce74409cdee840cadcdeeaced606b1b604482015260640161067e565b600080611cc78585610985565b90925090506001600160c01b03611cdd60025490565b611ce79084613571565b1115611d355760405162461bcd60e51b815260206004820152601c60248201527f5374616b696e673a204d617820706f696e747320657863656564656400000000604482015260640161067e565b611d3e836115a0565b6001600160a01b0383166000908152600a6020908152604080832081516060810183526001600160801b03808b16825286811682860190815293820188815283546001818101865594885295909620915193518116600160801b0293169290921760029093029091019182559151910155611db98383611f79565b6040516323b872dd60e01b8152336004820152306024820152604481018690527f00000000000000000000000000000000000000000000000000000000000000006001600160a01b0316906323b872dd906064016020604051808303816000875af1158015611e2c573d6000803e3d6000fd5b505050506040513d601f19601f82011682018060405250810190611e509190613539565b506001600160a01b0383166000908152600d602052604090205460ff16158015611e8b57506000611e8084610b26565b6001600160a01b0316145b15611e9a57611e9a8384611b3d565b6001600160a01b0383166000818152600a60205260409020547f2720efa4b2dd4f3f8a347da3cbd290a522e9432da9072c5b8e6300496fdde28290611ee190600190613589565b60408051918252602082018990528101849052606081018590526080016108cb565b6000610631611f1061191b565b8360405161190160f01b6020820152602281018390526042810182905260009060620160405160208183030381529060405280519060200120905092915050565b6000806000611f628787878761248e565b91509150611f6f8161257b565b5095945050505050565b611f838282612736565b6002546001600160e01b031015611ff55760405162461bcd60e51b815260206004820152603060248201527f4552433230566f7465733a20746f74616c20737570706c79207269736b73206f60448201526f766572666c6f77696e6720766f74657360801b606482015260840161067e565b611915600961281d83612164565b6001600160a01b0382166120635760405162461bcd60e51b815260206004820152602160248201527f45524332303a206275726e2066726f6d20746865207a65726f206164647265736044820152607360f81b606482015260840161067e565b6001600160a01b038216600090815260208190526040902054818110156120d75760405162461bcd60e51b815260206004820152602260248201527f45524332303a206275726e20616d6f756e7420657863656564732062616c616e604482015261636560f01b606482015260840161067e565b6001600160a01b0383166000908152602081905260408120838303905560028054849290612106908490613589565b90915550506040518281526000906001600160a01b038516907fddf252ad1be2c89b69c2b068fc378daa952ba7f163c4a11628f55a4df523b3ef9060200160405180910390a3610b8983600084612829565b600061097e8284613589565b8254600090819080156121ae578561217d600183613589565b8154811061218d5761218d613523565b600091825260209091200154600160201b90046001600160e01b03166121b1565b60005b6001600160e01b031692506121ca83858763ffffffff16565b9150600081118015612208575043866121e4600184613589565b815481106121f4576121f4613523565b60009182526020909120015463ffffffff16145b156122685761221682612844565b86612222600184613589565b8154811061223257612232613523565b9060005260206000200160000160046101000a8154816001600160e01b0302191690836001600160e01b031602179055506122d2565b85604051806040016040528061227d43611b6a565b63ffffffff16815260200161229185612844565b6001600160e01b039081169091528254600181018455600093845260209384902083519490930151909116600160201b0263ffffffff909316929092179101555b50935093915050565b60006122ea60028484186135bf565b61097e90848416613571565b6000670de0b6b3a764000082101561232457604051633621413760e21b81526004810183905260240161067e565b6000612339670de0b6b3a764000084046128ad565b670de0b6b3a7640000808202935090915083821c9081141561235c575050919050565b6706f05b59d3b200005b801561239e57670de0b6b3a7640000828002049150671bc16d674ec800008210612396579283019260019190911c905b60011c612366565b505050919050565b600061097e8383612995565b6000680a688906bd8b00000082106123e057604051634a4f26f160e01b81526004810183905260240161067e565b670de0b6b3a7640000604083901b0461097e81612a57565b600061240383610b26565b90506000612426846001600160a01b031660009081526020819052604090205490565b6001600160a01b0385811660008181526007602052604080822080546001600160a01b031916898616908117909155905194955093928616927f3134e8a2e6d97e929a7e54011ea5485d7d196dd5f0ba4d4ef95803e8e3fc257f9190a4611915828483613152565b6000807f7fffffffffffffffffffffffffffffff5d576e7357a4501ddfe92f46681b20a08311156124c55750600090506003612572565b8460ff16601b141580156124dd57508460ff16601c14155b156124ee5750600090506004612572565b6040805160008082526020820180845289905260ff881692820192909252606081018690526080810185905260019060a0016020604051602081039080840390855afa158015612542573d6000803e3d6000fd5b5050604051601f1901519150506001600160a01b03811661256b57600060019250925050612572565b9150600090505b94509492505050565b600081600481111561258f5761258f6135fa565b14156125985750565b60018160048111156125ac576125ac6135fa565b14156125fa5760405162461bcd60e51b815260206004820152601860248201527f45434453413a20696e76616c6964207369676e61747572650000000000000000604482015260640161067e565b600281600481111561260e5761260e6135fa565b141561265c5760405162461bcd60e51b815260206004820152601f60248201527f45434453413a20696e76616c6964207369676e6174757265206c656e67746800604482015260640161067e565b6003816004811115612670576126706135fa565b14156126c95760405162461bcd60e51b815260206004820152602260248201527f45434453413a20696e76616c6964207369676e6174757265202773272076616c604482015261756560f01b606482015260840161067e565b60048160048111156126dd576126dd6135fa565b1415610b4e5760405162461bcd60e51b815260206004820152602260248201527f45434453413a20696e76616c6964207369676e6174757265202776272076616c604482015261756560f01b606482015260840161067e565b6001600160a01b03821661278c5760405162461bcd60e51b815260206004820152601f60248201527f45524332303a206d696e7420746f20746865207a65726f206164647265737300604482015260640161067e565b806002600082825461279e9190613571565b90915550506001600160a01b038216600090815260208190526040812080548392906127cb908490613571565b90915550506040518181526001600160a01b038316906000907fddf252ad1be2c89b69c2b068fc378daa952ba7f163c4a11628f55a4df523b3ef9060200160405180910390a3610b9960008383612829565b600061097e8284613571565b610b8961283584610b26565b61283e84610b26565b83613152565b60006001600160e01b03821115611bcf5760405162461bcd60e51b815260206004820152602760248201527f53616665436173743a2076616c756520646f65736e27742066697420696e20326044820152663234206269747360c81b606482015260840161067e565b6000600160801b82106128cd57608091821c916128ca9082613571565b90505b6801000000000000000082106128f057604091821c916128ed9082613571565b90505b600160201b821061290e57602091821c9161290b9082613571565b90505b62010000821061292b57601091821c916129289082613571565b90505b610100821061294757600891821c916129449082613571565b90505b6010821061296257600491821c9161295f9082613571565b90505b6004821061297d57600291821c9161297a9082613571565b90505b6002821061299057610631600182613571565b919050565b60008080600019848609848602925082811083820303915050670de0b6b3a764000081106129d95760405163698d9a0160e11b81526004810182905260240161067e565b600080670de0b6b3a76400008688099150506706f05b59d3b1ffff811182612a135780670de0b6b3a7640000850401945050505050610631565b620400008285030493909111909103600160ee1b02919091177faccb18165bd6fe31ae1cf318dc5b51eee0e1ba569b88cd74c1773b91fac106690201905092915050565b600160bf1b678000000000000000821615612a7b5768016a09e667f3bcc9090260401c5b674000000000000000821615612a9a576801306fe0a31b7152df0260401c5b672000000000000000821615612ab9576801172b83c7d517adce0260401c5b671000000000000000821615612ad85768010b5586cf9890f62a0260401c5b670800000000000000821615612af7576801059b0d31585743ae0260401c5b670400000000000000821615612b1657680102c9a3e778060ee70260401c5b670200000000000000821615612b355768010163da9fb33356d80260401c5b670100000000000000821615612b5457680100b1afa5abcbed610260401c5b6680000000000000821615612b725768010058c86da1c09ea20260401c5b6640000000000000821615612b90576801002c605e2e8cec500260401c5b6620000000000000821615612bae57680100162f3904051fa10260401c5b6610000000000000821615612bcc576801000b175effdc76ba0260401c5b6608000000000000821615612bea57680100058ba01fb9f96d0260401c5b6604000000000000821615612c085768010002c5cc37da94920260401c5b6602000000000000821615612c26576801000162e525ee05470260401c5b6601000000000000821615612c445768010000b17255775c040260401c5b65800000000000821615612c61576801000058b91b5bc9ae0260401c5b65400000000000821615612c7e57680100002c5c89d5ec6d0260401c5b65200000000000821615612c9b5768010000162e43f4f8310260401c5b65100000000000821615612cb857680100000b1721bcfc9a0260401c5b65080000000000821615612cd55768010000058b90cf1e6e0260401c5b65040000000000821615612cf2576801000002c5c863b73f0260401c5b65020000000000821615612d0f57680100000162e430e5a20260401c5b65010000000000821615612d2c576801000000b1721835510260401c5b648000000000821615612d4857680100000058b90c0b490260401c5b644000000000821615612d645768010000002c5c8601cc0260401c5b642000000000821615612d80576801000000162e42fff00260401c5b641000000000821615612d9c5768010000000b17217fbb0260401c5b640800000000821615612db8576801000000058b90bfce0260401c5b640400000000821615612dd457680100000002c5c85fe30260401c5b640200000000821615612df05768010000000162e42ff10260401c5b600160201b821615612e0b57680100000000b17217f80260401c5b6380000000821615612e265768010000000058b90bfc0260401c5b6340000000821615612e41576801000000002c5c85fe0260401c5b6320000000821615612e5c57680100000000162e42ff0260401c5b6310000000821615612e77576801000000000b17217f0260401c5b6308000000821615612e9257680100000000058b90c00260401c5b6304000000821615612ead5768010000000002c5c8600260401c5b6302000000821615612ec8576801000000000162e4300260401c5b6301000000821615612ee35768010000000000b172180260401c5b62800000821615612efd576801000000000058b90c0260401c5b62400000821615612f1757680100000000002c5c860260401c5b62200000821615612f315768010000000000162e430260401c5b62100000821615612f4b57680100000000000b17210260401c5b62080000821615612f655768010000000000058b910260401c5b62040000821615612f7f576801000000000002c5c80260401c5b62020000821615612f9957680100000000000162e40260401c5b62010000821615612fb3576801000000000000b1720260401c5b618000821615612fcc57680100000000000058b90260401c5b614000821615612fe55768010000000000002c5d0260401c5b612000821615612ffe576801000000000000162e0260401c5b6110008216156130175768010000000000000b170260401c5b610800821615613030576801000000000000058c0260401c5b61040082161561304957680100000000000002c60260401c5b61020082161561306257680100000000000001630260401c5b61010082161561307b57680100000000000000b10260401c5b608082161561309357680100000000000000590260401c5b60408216156130ab576801000000000000002c0260401c5b60208216156130c357680100000000000000160260401c5b60108216156130db576801000000000000000b0260401c5b60088216156130f357680100000000000000060260401c5b600482161561310b57680100000000000000030260401c5b600282161561312357680100000000000000010260401c5b600182161561313b57680100000000000000010260401c5b670de0b6b3a76400000260409190911c60bf031c90565b816001600160a01b0316836001600160a01b0316141580156131745750600081115b15610b89576001600160a01b03831615613202576001600160a01b038316600090815260086020526040812081906131af9061215885612164565b91509150846001600160a01b03167fdec2bacdd2f05b59de34da9b523dff8be42e5e38e818c82fdb0bae774387a72483836040516131f7929190918252602082015260400190565b60405180910390a250505b6001600160a01b03821615610b89576001600160a01b038216600090815260086020526040812081906132389061281d85612164565b91509150836001600160a01b03167fdec2bacdd2f05b59de34da9b523dff8be42e5e38e818c82fdb0bae774387a72483836040516108cb929190918252602082015260400190565b80356001600160a01b038116811461299057600080fd5b6000602082840312156132a957600080fd5b61097e82613280565b600060208083528351808285015260005b818110156132df578581018301518582016040015282016132c3565b818111156132f1576000604083870101525b50601f01601f1916929092016040019392505050565b6000806040838503121561331a57600080fd5b61332383613280565b946020939093013593505050565b60008060006060848603121561334657600080fd5b61334f84613280565b925061335d60208501613280565b9150604084013590509250925092565b60006020828403121561337f57600080fd5b5035919050565b6000806040838503121561339957600080fd5b50508035926020909101359150565b6000806000606084860312156133bd57600080fd5b83359250602084013591506133d460408501613280565b90509250925092565b803560ff8116811461299057600080fd5b60008060008060008060c0878903121561340757600080fd5b61341087613280565b9550602087013594506040870135935061342c606088016133dd565b92506080870135915060a087013590509295509295509295565b600080600080600080600060e0888a03121561346157600080fd5b61346a88613280565b965061347860208901613280565b95506040880135945060608801359350613494608089016133dd565b925060a0880135915060c0880135905092959891949750929550565b600080604083850312156134c357600080fd5b6134cc83613280565b91506134da60208401613280565b90509250929050565b600080604083850312156134f657600080fd5b6134ff83613280565b9150602083013563ffffffff8116811461351857600080fd5b809150509250929050565b634e487b7160e01b600052603260045260246000fd5b60006020828403121561354b57600080fd5b8151801515811461097e57600080fd5b634e487b7160e01b600052601160045260246000fd5b600082198211156135845761358461355b565b500190565b60008282101561359b5761359b61355b565b500390565b60008160001904831182151516156135ba576135ba61355b565b500290565b6000826135dc57634e487b7160e01b600052601260045260246000fd5b500490565b6000602082840312156135f357600080fd5b5051919050565b634e487b7160e01b600052602160045260246000fdfe566f746520457363726f776564204f726967696e204465466920476f7665726e616e6365a264697066735822122052e0036d25753bd4e3f0803f1b01360a091a09793150fd8dabb2ce5802dbbf7b64736f6c634300080a0033","bytecodeSha1":"b48172d98761c880b84733812d76aac02cb2ce23","compiler":{"evm_version":"istanbul","optimizer":{"enabled":true,"runs":200},"version":"0.8.10+commit.fc410830"},"contractName":"OgvStaking","language":"Solidity","natspec":{"author":"Daniel Von Fange","errors":{"PRBMathUD60x18__Exp2InputTooBig(uint256)":[{"notice":"Emitted when the input is greater than 192."}],"PRBMathUD60x18__LogInputTooSmall(uint256)":[{"notice":"Emitted when the input is less than 1."}],"PRBMath__MulDivFixedPointOverflow(uint256)":[{"notice":"Emitted when the result overflows uint256."}]},"kind":"dev","methods":{"DOMAIN_SEPARATOR()":{"details":"See {IERC20Permit-DOMAIN_SEPARATOR}."},"allowance(address,address)":{"details":"See {IERC20-allowance}."},"approve(address,uint256)":{"details":"See {IERC20-approve}. NOTE: If `amount` is the maximum `uint256`, the allowance is not updated on `transferFrom`. This is semantically equivalent to an infinite approval. Requirements: - `spender` cannot be the zero address."},"balanceOf(address)":{"details":"See {IERC20-balanceOf}."},"checkpoints(address,uint32)":{"details":"Get the `pos`-th checkpoint for `account`."},"collectRewards()":{"notice":"Collect all earned OGV rewards."},"decimals()":{"details":"Returns the number of decimals used to get its user representation. For example, if `decimals` equals `2`, a balance of `505` tokens should be displayed to a user as `5.05` (`505 / 10 ** 2`). Tokens usually opt for a value of 18, imitating the relationship between Ether and Wei. This is the value {ERC20} uses, unless this function is overridden; NOTE: This information is only used for _display_ purposes: it in no way affects any of the arithmetic of the contract, including {IERC20-balanceOf} and {IERC20-transfer}."},"decreaseAllowance(address,uint256)":{"details":"Atomically decreases the allowance granted to `spender` by the caller. This is an alternative to {approve} that can be used as a mitigation for problems described in {IERC20-approve}. Emits an {Approval} event indicating the updated allowance. Requirements: - `spender` cannot be the zero address. - `spender` must have allowance for the caller of at least `subtractedValue`."},"delegate(address)":{"details":"Delegate votes from the sender to `delegatee`."},"delegateBySig(address,uint256,uint256,uint8,bytes32,bytes32)":{"details":"Delegates votes from signer to `delegatee`"},"delegates(address)":{"details":"Get the address `account` is currently delegating to."},"extend(uint256,uint256)":{"notice":"Extend a stake lockup for additional points. The stake end time is computed from the current time + duration, just like it is for new stakes. So a new stake for seven days duration and an old stake extended with a seven days duration would have the same end. If an extend is made before the start of staking, the start time for the new stake is shifted forwards to the start of staking, which also shifts forward the end date.","params":{"duration":"number of seconds from now to stake for","lockupId":"the id of the old lockup to extend"}},"getPastTotalSupply(uint256)":{"details":"Retrieve the `totalSupply` at the end of `blockNumber`. Note, this value is the sum of all balances. It is but NOT the sum of all the delegated votes! Requirements: - `blockNumber` must have been already mined"},"getPastVotes(address,uint256)":{"details":"Retrieve the number of votes for `account` at the end of `blockNumber`. Requirements: - `blockNumber` must have been already mined"},"getVotes(address)":{"details":"Gets the current votes balance for `account`"},"increaseAllowance(address,uint256)":{"details":"Atomically increases the allowance granted to `spender` by the caller. This is an alternative to {approve} that can be used as a mitigation for problems described in {IERC20-approve}. Emits an {Approval} event indicating the updated allowance. Requirements: - `spender` cannot be the zero address."},"name()":{"details":"Returns the name of the token."},"nonces(address)":{"details":"See {IERC20Permit-nonces}."},"numCheckpoints(address)":{"details":"Get number of checkpoints for `account`."},"permit(address,address,uint256,uint256,uint8,bytes32,bytes32)":{"details":"See {IERC20Permit-permit}."},"previewPoints(uint256,uint256)":{"notice":"Preview the number of points that would be returned for the given amount and duration.","params":{"amount":"OGV to be staked","duration":"number of seconds to stake for"},"returns":{"_0":"points staking points that would be returned","_1":"end staking period end date"}},"previewRewards(address)":{"notice":"Shows the amount of OGV a user would receive if they collected rewards at this time.","params":{"user":"to preview rewards for"},"returns":{"_0":"OGV rewards amount"}},"stake(uint256,uint256)":{"notice":"Stake OGV If staking before the start of staking (epoch), then the lockup start and end dates are shifted forward so that the lockup starts at the epoch. Any rewards previously earned will be paid out.Stake OGV for myself.","params":{"amount":"OGV to lockup in the stake","duration":"in seconds for the stake"}},"stake(uint256,uint256,address)":{"notice":"Stake OGV to an address that may not be the same as the sender of the funds. This can be used to give staked funds to someone else. If staking before the start of staking (epoch), then the lockup start and end dates are shifted forward so that the lockup starts at the epoch. Any rewards previously earned will be paid out.","params":{"amount":"OGV to lockup in the stake","duration":"in seconds for the stake","to":"address to receive ownership of the stake"}},"symbol()":{"details":"Returns the symbol of the token, usually a shorter version of the name."},"totalSupply()":{"details":"See {IERC20-totalSupply}."},"unstake(uint256)":{"notice":"Collect staked OGV for a lockup and any earned rewards.","params":{"lockupId":"the id of the lockup to unstake"}}},"notice":"Provides staking, vote power history, vote delegation, and rewards distribution. The balance received for staking (and thus the voting power and rewards distribution) goes up exponentially by the end of the staked period.","title":"OGV Staking","version":1},"opcodes":"PUSH1 0x80 PUSH1 0x40 MSTORE CALLVALUE DUP1 ISZERO PUSH2 0x10 JUMPI PUSH1 0x0 DUP1 REVERT JUMPDEST POP PUSH1 0x4 CALLDATASIZE LT PUSH2 0x227 JUMPI PUSH1 0x0 CALLDATALOAD PUSH1 0xE0 SHR DUP1 PUSH4 0x70BB45B3 GT PUSH2 0x130 JUMPI DUP1 PUSH4 0xA457C2D7 GT PUSH2 0xB8 JUMPI DUP1 PUSH4 0xD505ACCF GT PUSH2 0x7C JUMPI DUP1 PUSH4 0xD505ACCF EQ PUSH2 0x560 JUMPI DUP1 PUSH4 0xDD62ED3E EQ PUSH2 0x573 JUMPI DUP1 PUSH4 0xF1127ED8 EQ PUSH2 0x586 JUMPI DUP1 PUSH4 0xF166E920 EQ PUSH2 0x5C3 JUMPI DUP1 PUSH4 0xF7240D2F EQ PUSH2 0x5D6 JUMPI PUSH1 0x0 DUP1 REVERT JUMPDEST DUP1 PUSH4 0xA457C2D7 EQ PUSH2 0x4E0 JUMPI DUP1 PUSH4 0xA9059CBB EQ PUSH2 0x4F3 JUMPI DUP1 PUSH4 0xC3CDA520 EQ PUSH2 0x501 JUMPI DUP1 PUSH4 0xC89258DB EQ PUSH2 0x514 JUMPI DUP1 PUSH4 0xC93D0B1E EQ PUSH2 0x527 JUMPI PUSH1 0x0 DUP1 REVERT JUMPDEST DUP1 PUSH4 0x8E539E8C GT PUSH2 0xFF JUMPI DUP1 PUSH4 0x8E539E8C EQ PUSH2 0x469 JUMPI DUP1 PUSH4 0x900CF0CF EQ PUSH2 0x47C JUMPI DUP1 PUSH4 0x939D6237 EQ PUSH2 0x4A3 JUMPI DUP1 PUSH4 0x95D89B41 EQ PUSH2 0x4AC JUMPI DUP1 PUSH4 0x9AB24EB0 EQ PUSH2 0x4CD JUMPI PUSH1 0x0 DUP1 REVERT JUMPDEST DUP1 PUSH4 0x70BB45B3 EQ PUSH2 0x428 JUMPI DUP1 PUSH4 0x7628A37D EQ PUSH2 0x430 JUMPI DUP1 PUSH4 0x7B0472F0 EQ PUSH2 0x443 JUMPI DUP1 PUSH4 0x7ECEBE00 EQ PUSH2 0x456 JUMPI PUSH1 0x0 DUP1 REVERT JUMPDEST DUP1 PUSH4 0x39509351 GT PUSH2 0x1B3 JUMPI DUP1 PUSH4 0x587CDE1E GT PUSH2 0x182 JUMPI DUP1 PUSH4 0x587CDE1E EQ PUSH2 0x38A JUMPI DUP1 PUSH4 0x5C19A95C EQ PUSH2 0x39D JUMPI DUP1 PUSH4 0x5FEC5C64 EQ PUSH2 0x3B0 JUMPI DUP1 PUSH4 0x6FCFFF45 EQ PUSH2 0x3D7 JUMPI DUP1 PUSH4 0x70A08231 EQ PUSH2 0x3FF JUMPI PUSH1 0x0 DUP1 REVERT JUMPDEST DUP1 PUSH4 0x39509351 EQ PUSH2 0x31C JUMPI DUP1 PUSH4 0x3A46B1A8 EQ PUSH2 0x32F JUMPI DUP1 PUSH4 0x4423BF57 EQ PUSH2 0x342 JUMPI DUP1 PUSH4 0x4FD0E648 EQ PUSH2 0x362 JUMPI PUSH1 0x0 DUP1 REVERT JUMPDEST DUP1 PUSH4 0x18160DDD GT PUSH2 0x1FA JUMPI DUP1 PUSH4 0x18160DDD EQ PUSH2 0x2CB JUMPI DUP1 PUSH4 0x23B872DD EQ PUSH2 0x2DD JUMPI DUP1 PUSH4 0x2E17DE78 EQ PUSH2 0x2F0 JUMPI DUP1 PUSH4 0x313CE567 EQ PUSH2 0x305 JUMPI DUP1 PUSH4 0x3644E515 EQ PUSH2 0x314 JUMPI PUSH1 0x0 DUP1 REVERT JUMPDEST DUP1 PUSH4 0x348DBF1 EQ PUSH2 0x22C JUMPI DUP1 PUSH4 0x6FDDE03 EQ PUSH2 0x264 JUMPI DUP1 PUSH4 0x95EA7B3 EQ PUSH2 0x279 JUMPI DUP1 PUSH4 0x142561CF EQ PUSH2 0x28C JUMPI JUMPDEST PUSH1 0x0 DUP1 REVERT JUMPDEST PUSH2 0x24F PUSH2 0x23A CALLDATASIZE PUSH1 0x4 PUSH2 0x3297 JUMP JUMPDEST PUSH1 0xD PUSH1 0x20 MSTORE PUSH1 0x0 SWAP1 DUP2 MSTORE PUSH1 0x40 SWAP1 KECCAK256 SLOAD PUSH1 0xFF AND DUP2 JUMP JUMPDEST PUSH1 0x40 MLOAD SWAP1 ISZERO ISZERO DUP2 MSTORE PUSH1 0x20 ADD JUMPDEST PUSH1 0x40 MLOAD DUP1 SWAP2 SUB SWAP1 RETURN JUMPDEST PUSH2 0x26C PUSH2 0x5FD JUMP JUMPDEST PUSH1 0x40 MLOAD PUSH2 0x25B SWAP2 SWAP1 PUSH2 0x32B2 JUMP JUMPDEST PUSH2 0x24F PUSH2 0x287 CALLDATASIZE PUSH1 0x4 PUSH2 0x3307 JUMP JUMPDEST PUSH2 0x61D JUMP JUMPDEST PUSH2 0x2B3 PUSH32 0x0 DUP2 JUMP JUMPDEST PUSH1 0x40 MLOAD PUSH1 0x1 PUSH1 0x1 PUSH1 0xA0 SHL SUB SWAP1 SWAP2 AND DUP2 MSTORE PUSH1 0x20 ADD PUSH2 0x25B JUMP JUMPDEST PUSH1 0x2 SLOAD JUMPDEST PUSH1 0x40 MLOAD SWAP1 DUP2 MSTORE PUSH1 0x20 ADD PUSH2 0x25B JUMP JUMPDEST PUSH2 0x24F PUSH2 0x2EB CALLDATASIZE PUSH1 0x4 PUSH2 0x3331 JUMP JUMPDEST PUSH2 0x637 JUMP JUMPDEST PUSH2 0x303 PUSH2 0x2FE CALLDATASIZE PUSH1 0x4 PUSH2 0x336D JUMP JUMPDEST PUSH2 0x687 JUMP JUMPDEST STOP JUMPDEST PUSH1 0x40 MLOAD PUSH1 0x12 DUP2 MSTORE PUSH1 0x20 ADD PUSH2 0x25B JUMP JUMPDEST PUSH2 0x2CF PUSH2 0x8DA JUMP JUMPDEST PUSH2 0x24F PUSH2 0x32A CALLDATASIZE PUSH1 0x4 PUSH2 0x3307 JUMP JUMPDEST PUSH2 0x8E9 JUMP JUMPDEST PUSH2 0x2CF PUSH2 0x33D CALLDATASIZE PUSH1 0x4 PUSH2 0x3307 JUMP JUMPDEST PUSH2 0x90B JUMP JUMPDEST PUSH2 0x2CF PUSH2 0x350 CALLDATASIZE PUSH1 0x4 PUSH2 0x3297 JUMP JUMPDEST PUSH1 0xB PUSH1 0x20 MSTORE PUSH1 0x0 SWAP1 DUP2 MSTORE PUSH1 0x40 SWAP1 KECCAK256 SLOAD DUP2 JUMP JUMPDEST PUSH2 0x375 PUSH2 0x370 CALLDATASIZE PUSH1 0x4 PUSH2 0x3386 JUMP JUMPDEST PUSH2 0x985 JUMP JUMPDEST PUSH1 0x40 DUP1 MLOAD SWAP3 DUP4 MSTORE PUSH1 0x20 DUP4 ADD SWAP2 SWAP1 SWAP2 MSTORE ADD PUSH2 0x25B JUMP JUMPDEST PUSH2 0x2B3 PUSH2 0x398 CALLDATASIZE PUSH1 0x4 PUSH2 0x3297 JUMP JUMPDEST PUSH2 0xB26 JUMP JUMPDEST PUSH2 0x303 PUSH2 0x3AB CALLDATASIZE PUSH1 0x4 PUSH2 0x3297 JUMP JUMPDEST PUSH2 0xB44 JUMP JUMPDEST PUSH2 0x2CF PUSH32 0x0 DUP2 JUMP JUMPDEST PUSH2 0x3EA PUSH2 0x3E5 CALLDATASIZE PUSH1 0x4 PUSH2 0x3297 JUMP JUMPDEST PUSH2 0xB51 JUMP JUMPDEST PUSH1 0x40 MLOAD PUSH4 0xFFFFFFFF SWAP1 SWAP2 AND DUP2 MSTORE PUSH1 0x20 ADD PUSH2 0x25B JUMP JUMPDEST PUSH2 0x2CF PUSH2 0x40D CALLDATASIZE PUSH1 0x4 PUSH2 0x3297 JUMP JUMPDEST PUSH1 0x1 PUSH1 0x1 PUSH1 0xA0 SHL SUB AND PUSH1 0x0 SWAP1 DUP2 MSTORE PUSH1 0x20 DUP2 SWAP1 MSTORE PUSH1 0x40 SWAP1 KECCAK256 SLOAD SWAP1 JUMP JUMPDEST PUSH2 0x303 PUSH2 0xB73 JUMP JUMPDEST PUSH2 0x303 PUSH2 0x43E CALLDATASIZE PUSH1 0x4 PUSH2 0x33A8 JUMP JUMPDEST PUSH2 0xB7E JUMP JUMPDEST PUSH2 0x303 PUSH2 0x451 CALLDATASIZE PUSH1 0x4 PUSH2 0x3386 JUMP JUMPDEST PUSH2 0xB8E JUMP JUMPDEST PUSH2 0x2CF PUSH2 0x464 CALLDATASIZE PUSH1 0x4 PUSH2 0x3297 JUMP JUMPDEST PUSH2 0xB9D JUMP JUMPDEST PUSH2 0x2CF PUSH2 0x477 CALLDATASIZE PUSH1 0x4 PUSH2 0x336D JUMP JUMPDEST PUSH2 0xBBB JUMP JUMPDEST PUSH2 0x2CF PUSH32 0x0 DUP2 JUMP JUMPDEST PUSH2 0x2CF PUSH1 0xC SLOAD DUP2 JUMP JUMPDEST PUSH1 0x40 DUP1 MLOAD DUP1 DUP3 ADD SWAP1 SWAP2 MSTORE PUSH1 0x5 DUP2 MSTORE PUSH5 0x3B32A7A3AB PUSH1 0xD9 SHL PUSH1 0x20 DUP3 ADD MSTORE PUSH2 0x26C JUMP JUMPDEST PUSH2 0x2CF PUSH2 0x4DB CALLDATASIZE PUSH1 0x4 PUSH2 0x3297 JUMP JUMPDEST PUSH2 0xC17 JUMP JUMPDEST PUSH2 0x24F PUSH2 0x4EE CALLDATASIZE PUSH1 0x4 PUSH2 0x3307 JUMP JUMPDEST PUSH2 0xC9D JUMP JUMPDEST PUSH2 0x24F PUSH2 0x2EB CALLDATASIZE PUSH1 0x4 PUSH2 0x3307 JUMP JUMPDEST PUSH2 0x303 PUSH2 0x50F CALLDATASIZE PUSH1 0x4 PUSH2 0x33EE JUMP JUMPDEST PUSH2 0xD23 JUMP JUMPDEST PUSH2 0x303 PUSH2 0x522 CALLDATASIZE PUSH1 0x4 PUSH2 0x3386 JUMP JUMPDEST PUSH2 0xE77 JUMP JUMPDEST PUSH2 0x53A PUSH2 0x535 CALLDATASIZE PUSH1 0x4 PUSH2 0x3307 JUMP JUMPDEST PUSH2 0x10C6 JUMP JUMPDEST PUSH1 0x40 DUP1 MLOAD PUSH1 0x1 PUSH1 0x1 PUSH1 0x80 SHL SUB SWAP5 DUP6 AND DUP2 MSTORE SWAP4 SWAP1 SWAP3 AND PUSH1 0x20 DUP5 ADD MSTORE SWAP1 DUP3 ADD MSTORE PUSH1 0x60 ADD PUSH2 0x25B JUMP JUMPDEST PUSH2 0x303 PUSH2 0x56E CALLDATASIZE PUSH1 0x4 PUSH2 0x3446 JUMP JUMPDEST PUSH2 0x1117 JUMP JUMPDEST PUSH2 0x2CF PUSH2 0x581 CALLDATASIZE PUSH1 0x4 PUSH2 0x34B0 JUMP JUMPDEST PUSH2 0x1299 JUMP JUMPDEST PUSH2 0x599 PUSH2 0x594 CALLDATASIZE PUSH1 0x4 PUSH2 0x34E3 JUMP JUMPDEST PUSH2 0x12C4 JUMP JUMPDEST PUSH1 0x40 DUP1 MLOAD DUP3 MLOAD PUSH4 0xFFFFFFFF AND DUP2 MSTORE PUSH1 0x20 SWAP3 DUP4 ADD MLOAD PUSH1 0x1 PUSH1 0x1 PUSH1 0xE0 SHL SUB AND SWAP3 DUP2 ADD SWAP3 SWAP1 SWAP3 MSTORE ADD PUSH2 0x25B JUMP JUMPDEST PUSH2 0x2CF PUSH2 0x5D1 CALLDATASIZE PUSH1 0x4 PUSH2 0x3297 JUMP JUMPDEST PUSH2 0x1347 JUMP JUMPDEST PUSH2 0x2B3 PUSH32 0x0 DUP2 JUMP JUMPDEST PUSH1 0x60 PUSH1 0x40 MLOAD DUP1 PUSH1 0x60 ADD PUSH1 0x40 MSTORE DUP1 PUSH1 0x24 DUP2 MSTORE PUSH1 0x20 ADD PUSH2 0x3611 PUSH1 0x24 SWAP2 CODECOPY SWAP1 POP SWAP1 JUMP JUMPDEST PUSH1 0x0 CALLER PUSH2 0x62B DUP2 DUP6 DUP6 PUSH2 0x147C JUMP JUMPDEST PUSH1 0x1 SWAP2 POP POP JUMPDEST SWAP3 SWAP2 POP POP JUMP JUMPDEST PUSH1 0x40 MLOAD PUSH3 0x461BCD PUSH1 0xE5 SHL DUP2 MSTORE PUSH1 0x20 PUSH1 0x4 DUP3 ADD MSTORE PUSH1 0x1B PUSH1 0x24 DUP3 ADD MSTORE PUSH32 0x5374616B696E673A205472616E73666572732064697361626C65640000000000 PUSH1 0x44 DUP3 ADD MSTORE PUSH1 0x0 SWAP1 PUSH1 0x64 ADD JUMPDEST PUSH1 0x40 MLOAD DUP1 SWAP2 SUB SWAP1 REVERT JUMPDEST CALLER PUSH1 0x0 SWAP1 DUP2 MSTORE PUSH1 0xA PUSH1 0x20 MSTORE PUSH1 0x40 DUP2 KECCAK256 DUP1 SLOAD DUP4 SWAP1 DUP2 LT PUSH2 0x6A8 JUMPI PUSH2 0x6A8 PUSH2 0x3523 JUMP JUMPDEST PUSH1 0x0 SWAP2 DUP3 MSTORE PUSH1 0x20 SWAP2 DUP3 SWAP1 KECCAK256 PUSH1 0x40 DUP1 MLOAD PUSH1 0x60 DUP2 ADD DUP3 MSTORE PUSH1 0x2 SWAP1 SWAP4 MUL SWAP1 SWAP2 ADD DUP1 SLOAD PUSH1 0x1 PUSH1 0x1 PUSH1 0x80 SHL SUB DUP1 DUP3 AND DUP1 DUP7 MSTORE PUSH1 0x1 PUSH1 0x80 SHL SWAP1 SWAP3 DIV AND SWAP5 DUP5 ADD DUP6 SWAP1 MSTORE PUSH1 0x1 SWAP1 SWAP2 ADD SLOAD SWAP2 DUP4 ADD DUP3 SWAP1 MSTORE SWAP2 SWAP4 POP SWAP1 SWAP2 SWAP1 TIMESTAMP DUP3 GT ISZERO PUSH2 0x751 JUMPI PUSH1 0x40 MLOAD PUSH3 0x461BCD PUSH1 0xE5 SHL DUP2 MSTORE PUSH1 0x20 PUSH1 0x4 DUP3 ADD MSTORE PUSH1 0x22 PUSH1 0x24 DUP3 ADD MSTORE PUSH32 0x5374616B696E673A20456E64206F66206C6F636B7570206E6F74207265616368 PUSH1 0x44 DUP3 ADD MSTORE PUSH2 0x1959 PUSH1 0xF2 SHL PUSH1 0x64 DUP3 ADD MSTORE PUSH1 0x84 ADD PUSH2 0x67E JUMP JUMPDEST DUP2 PUSH2 0x7AC JUMPI PUSH1 0x40 MLOAD PUSH3 0x461BCD PUSH1 0xE5 SHL DUP2 MSTORE PUSH1 0x20 PUSH1 0x4 DUP3 ADD MSTORE PUSH1 0x25 PUSH1 0x24 DUP3 ADD MSTORE PUSH32 0x5374616B696E673A20416C726561647920756E7374616B65642074686973206C PUSH1 0x44 DUP3 ADD MSTORE PUSH5 0x6F636B757 PUSH1 0xDC SHL PUSH1 0x64 DUP3 ADD MSTORE PUSH1 0x84 ADD PUSH2 0x67E JUMP JUMPDEST PUSH2 0x7B5 CALLER PUSH2 0x15A0 JUMP JUMPDEST CALLER PUSH1 0x0 SWAP1 DUP2 MSTORE PUSH1 0xA PUSH1 0x20 MSTORE PUSH1 0x40 SWAP1 KECCAK256 DUP1 SLOAD DUP7 SWAP1 DUP2 LT PUSH2 0x7D6 JUMPI PUSH2 0x7D6 PUSH2 0x3523 JUMP JUMPDEST PUSH1 0x0 SWAP2 DUP3 MSTORE PUSH1 0x20 DUP3 KECCAK256 PUSH1 0x2 SWAP1 SWAP2 MUL ADD DUP2 DUP2 SSTORE PUSH1 0x1 ADD SSTORE PUSH2 0x7F6 CALLER DUP3 PUSH2 0x18FD JUMP JUMPDEST PUSH1 0x40 MLOAD PUSH4 0xA9059CBB PUSH1 0xE0 SHL DUP2 MSTORE CALLER PUSH1 0x4 DUP3 ADD MSTORE PUSH1 0x24 DUP2 ADD DUP5 SWAP1 MSTORE PUSH32 0x0 PUSH1 0x1 PUSH1 0x1 PUSH1 0xA0 SHL SUB AND SWAP1 PUSH4 0xA9059CBB SWAP1 PUSH1 0x44 ADD PUSH1 0x20 PUSH1 0x40 MLOAD DUP1 DUP4 SUB DUP2 PUSH1 0x0 DUP8 GAS CALL ISZERO DUP1 ISZERO PUSH2 0x863 JUMPI RETURNDATASIZE PUSH1 0x0 DUP1 RETURNDATACOPY RETURNDATASIZE PUSH1 0x0 REVERT JUMPDEST POP POP POP POP PUSH1 0x40 MLOAD RETURNDATASIZE PUSH1 0x1F NOT PUSH1 0x1F DUP3 ADD AND DUP3 ADD DUP1 PUSH1 0x40 MSTORE POP DUP2 ADD SWAP1 PUSH2 0x887 SWAP2 SWAP1 PUSH2 0x3539 JUMP JUMPDEST POP PUSH1 0x40 DUP1 MLOAD DUP7 DUP2 MSTORE PUSH1 0x20 DUP2 ADD DUP6 SWAP1 MSTORE SWAP1 DUP2 ADD DUP4 SWAP1 MSTORE PUSH1 0x60 DUP2 ADD DUP3 SWAP1 MSTORE CALLER SWAP1 PUSH32 0x5B744E3E9358BC00BA3CC0C6606A4D6536134DBA00B2D2EE4B5DE169ACD6427 SWAP1 PUSH1 0x80 ADD JUMPDEST PUSH1 0x40 MLOAD DUP1 SWAP2 SUB SWAP1 LOG2 POP POP POP POP POP JUMP JUMPDEST PUSH1 0x0 PUSH2 0x8E4 PUSH2 0x191B JUMP JUMPDEST SWAP1 POP SWAP1 JUMP JUMPDEST PUSH1 0x0 CALLER PUSH2 0x62B DUP2 DUP6 DUP6 PUSH2 0x8FC DUP4 DUP4 PUSH2 0x1299 JUMP JUMPDEST PUSH2 0x906 SWAP2 SWAP1 PUSH2 0x3571 JUMP JUMPDEST PUSH2 0x147C JUMP JUMPDEST PUSH1 0x0 NUMBER DUP3 LT PUSH2 0x95C JUMPI PUSH1 0x40 MLOAD PUSH3 0x461BCD PUSH1 0xE5 SHL DUP2 MSTORE PUSH1 0x20 PUSH1 0x4 DUP3 ADD MSTORE PUSH1 0x1F PUSH1 0x24 DUP3 ADD MSTORE PUSH32 0x4552433230566F7465733A20626C6F636B206E6F7420796574206D696E656400 PUSH1 0x44 DUP3 ADD MSTORE PUSH1 0x64 ADD PUSH2 0x67E JUMP JUMPDEST PUSH1 0x1 PUSH1 0x1 PUSH1 0xA0 SHL SUB DUP4 AND PUSH1 0x0 SWAP1 DUP2 MSTORE PUSH1 0x8 PUSH1 0x20 MSTORE PUSH1 0x40 SWAP1 KECCAK256 PUSH2 0x97E SWAP1 DUP4 PUSH2 0x1A42 JUMP JUMPDEST SWAP4 SWAP3 POP POP POP JUMP JUMPDEST PUSH1 0x0 DUP1 PUSH32 0x0 DUP4 LT ISZERO PUSH2 0x9ED JUMPI PUSH1 0x40 MLOAD PUSH3 0x461BCD PUSH1 0xE5 SHL DUP2 MSTORE PUSH1 0x20 PUSH1 0x4 DUP3 ADD MSTORE PUSH1 0x12 PUSH1 0x24 DUP3 ADD MSTORE PUSH18 0x14DD185ADA5B99CE88151BDBC81CDA1BDC9D PUSH1 0x72 SHL PUSH1 0x44 DUP3 ADD MSTORE PUSH1 0x64 ADD PUSH2 0x67E JUMP JUMPDEST PUSH4 0x7861F80 DUP4 GT ISZERO PUSH2 0xA35 JUMPI PUSH1 0x40 MLOAD PUSH3 0x461BCD PUSH1 0xE5 SHL DUP2 MSTORE PUSH1 0x20 PUSH1 0x4 DUP3 ADD MSTORE PUSH1 0x11 PUSH1 0x24 DUP3 ADD MSTORE PUSH17 0x5374616B696E673A20546F6F206C6F6E67 PUSH1 0x78 SHL PUSH1 0x44 DUP3 ADD MSTORE PUSH1 0x64 ADD PUSH2 0x67E JUMP JUMPDEST PUSH1 0x0 PUSH32 0x0 TIMESTAMP GT PUSH2 0xA84 JUMPI PUSH32 0x0 PUSH2 0xA86 JUMP JUMPDEST TIMESTAMP JUMPDEST SWAP1 POP PUSH1 0x0 PUSH2 0xA94 DUP6 DUP4 PUSH2 0x3571 JUMP JUMPDEST SWAP1 POP PUSH1 0x0 PUSH4 0x1E13380 PUSH2 0xAC7 PUSH32 0x0 DUP5 PUSH2 0x3589 JUMP JUMPDEST PUSH2 0xAD9 SWAP1 PUSH8 0xDE0B6B3A7640000 PUSH2 0x35A0 JUMP JUMPDEST PUSH2 0xAE3 SWAP2 SWAP1 PUSH2 0x35BF JUMP JUMPDEST SWAP1 POP PUSH1 0x0 PUSH2 0xAF9 PUSH8 0x18FAE27693B40000 DUP4 PUSH2 0x1AFE JUMP JUMPDEST SWAP1 POP PUSH8 0xDE0B6B3A7640000 PUSH2 0xB0E DUP3 DUP11 PUSH2 0x35A0 JUMP JUMPDEST PUSH2 0xB18 SWAP2 SWAP1 PUSH2 0x35BF JUMP JUMPDEST SWAP9 SWAP3 SWAP8 POP SWAP2 SWAP6 POP POP POP POP POP POP JUMP JUMPDEST PUSH1 0x1 PUSH1 0x1 PUSH1 0xA0 SHL SUB SWAP1 DUP2 AND PUSH1 0x0 SWAP1 DUP2 MSTORE PUSH1 0x7 PUSH1 0x20 MSTORE PUSH1 0x40 SWAP1 KECCAK256 SLOAD AND SWAP1 JUMP JUMPDEST PUSH2 0xB4E CALLER DUP3 PUSH2 0x1B3D JUMP JUMPDEST POP JUMP JUMPDEST PUSH1 0x1 PUSH1 0x1 PUSH1 0xA0 SHL SUB DUP2 AND PUSH1 0x0 SWAP1 DUP2 MSTORE PUSH1 0x8 PUSH1 0x20 MSTORE PUSH1 0x40 DUP2 KECCAK256 SLOAD PUSH2 0x631 SWAP1 PUSH2 0x1B6A JUMP JUMPDEST PUSH2 0xB7C CALLER PUSH2 0x15A0 JUMP JUMPDEST JUMP JUMPDEST PUSH2 0xB89 DUP4 DUP4 DUP4 PUSH2 0x1BD3 JUMP JUMPDEST POP POP POP JUMP JUMPDEST PUSH2 0xB99 DUP3 DUP3 CALLER PUSH2 0x1BD3 JUMP JUMPDEST POP POP JUMP JUMPDEST PUSH1 0x1 PUSH1 0x1 PUSH1 0xA0 SHL SUB DUP2 AND PUSH1 0x0 SWAP1 DUP2 MSTORE PUSH1 0x5 PUSH1 0x20 MSTORE PUSH1 0x40 DUP2 KECCAK256 SLOAD PUSH2 0x631 JUMP JUMPDEST PUSH1 0x0 NUMBER DUP3 LT PUSH2 0xC0C JUMPI PUSH1 0x40 MLOAD PUSH3 0x461BCD PUSH1 0xE5 SHL DUP2 MSTORE PUSH1 0x20 PUSH1 0x4 DUP3 ADD MSTORE PUSH1 0x1F PUSH1 0x24 DUP3 ADD MSTORE PUSH32 0x4552433230566F7465733A20626C6F636B206E6F7420796574206D696E656400 PUSH1 0x44 DUP3 ADD MSTORE PUSH1 0x64 ADD PUSH2 0x67E JUMP JUMPDEST PUSH2 0x631 PUSH1 0x9 DUP4 PUSH2 0x1A42 JUMP JUMPDEST PUSH1 0x1 PUSH1 0x1 PUSH1 0xA0 SHL SUB DUP2 AND PUSH1 0x0 SWAP1 DUP2 MSTORE PUSH1 0x8 PUSH1 0x20 MSTORE PUSH1 0x40 DUP2 KECCAK256 SLOAD DUP1 ISZERO PUSH2 0xC8A JUMPI PUSH1 0x1 PUSH1 0x1 PUSH1 0xA0 SHL SUB DUP4 AND PUSH1 0x0 SWAP1 DUP2 MSTORE PUSH1 0x8 PUSH1 0x20 MSTORE PUSH1 0x40 SWAP1 KECCAK256 PUSH2 0xC59 PUSH1 0x1 DUP4 PUSH2 0x3589 JUMP JUMPDEST DUP2 SLOAD DUP2 LT PUSH2 0xC69 JUMPI PUSH2 0xC69 PUSH2 0x3523 JUMP JUMPDEST PUSH1 0x0 SWAP2 DUP3 MSTORE PUSH1 0x20 SWAP1 SWAP2 KECCAK256 ADD SLOAD PUSH1 0x1 PUSH1 0x20 SHL SWAP1 DIV PUSH1 0x1 PUSH1 0x1 PUSH1 0xE0 SHL SUB AND PUSH2 0xC8D JUMP JUMPDEST PUSH1 0x0 JUMPDEST PUSH1 0x1 PUSH1 0x1 PUSH1 0xE0 SHL SUB AND SWAP4 SWAP3 POP POP POP JUMP JUMPDEST PUSH1 0x0 CALLER DUP2 PUSH2 0xCAB DUP3 DUP7 PUSH2 0x1299 JUMP JUMPDEST SWAP1 POP DUP4 DUP2 LT ISZERO PUSH2 0xD0B JUMPI PUSH1 0x40 MLOAD PUSH3 0x461BCD PUSH1 0xE5 SHL DUP2 MSTORE PUSH1 0x20 PUSH1 0x4 DUP3 ADD MSTORE PUSH1 0x25 PUSH1 0x24 DUP3 ADD MSTORE PUSH32 0x45524332303A2064656372656173656420616C6C6F77616E63652062656C6F77 PUSH1 0x44 DUP3 ADD MSTORE PUSH5 0x207A65726F PUSH1 0xD8 SHL PUSH1 0x64 DUP3 ADD MSTORE PUSH1 0x84 ADD PUSH2 0x67E JUMP JUMPDEST PUSH2 0xD18 DUP3 DUP7 DUP7 DUP5 SUB PUSH2 0x147C JUMP JUMPDEST POP PUSH1 0x1 SWAP5 SWAP4 POP POP POP POP JUMP JUMPDEST DUP4 TIMESTAMP GT ISZERO PUSH2 0xD73 JUMPI PUSH1 0x40 MLOAD PUSH3 0x461BCD PUSH1 0xE5 SHL DUP2 MSTORE PUSH1 0x20 PUSH1 0x4 DUP3 ADD MSTORE PUSH1 0x1D PUSH1 0x24 DUP3 ADD MSTORE PUSH32 0x4552433230566F7465733A207369676E61747572652065787069726564000000 PUSH1 0x44 DUP3 ADD MSTORE PUSH1 0x64 ADD PUSH2 0x67E JUMP JUMPDEST PUSH1 0x40 DUP1 MLOAD PUSH32 0xE48329057BFD03D55E49B547132E39CFFD9C1820AD7B9D4C5307691425D15ADF PUSH1 0x20 DUP3 ADD MSTORE PUSH1 0x1 PUSH1 0x1 PUSH1 0xA0 SHL SUB DUP9 AND SWAP2 DUP2 ADD SWAP2 SWAP1 SWAP2 MSTORE PUSH1 0x60 DUP2 ADD DUP7 SWAP1 MSTORE PUSH1 0x80 DUP2 ADD DUP6 SWAP1 MSTORE PUSH1 0x0 SWAP1 PUSH2 0xDED SWAP1 PUSH2 0xDE5 SWAP1 PUSH1 0xA0 ADD PUSH1 0x40 MLOAD PUSH1 0x20 DUP2 DUP4 SUB SUB DUP2 MSTORE SWAP1 PUSH1 0x40 MSTORE DUP1 MLOAD SWAP1 PUSH1 0x20 ADD KECCAK256 PUSH2 0x1F03 JUMP JUMPDEST DUP6 DUP6 DUP6 PUSH2 0x1F51 JUMP JUMPDEST SWAP1 POP PUSH2 0xE16 DUP2 PUSH1 0x1 PUSH1 0x1 PUSH1 0xA0 SHL SUB AND PUSH1 0x0 SWAP1 DUP2 MSTORE PUSH1 0x5 PUSH1 0x20 MSTORE PUSH1 0x40 SWAP1 KECCAK256 DUP1 SLOAD PUSH1 0x1 DUP2 ADD SWAP1 SWAP2 SSTORE SWAP1 JUMP JUMPDEST DUP7 EQ PUSH2 0xE64 JUMPI PUSH1 0x40 MLOAD PUSH3 0x461BCD PUSH1 0xE5 SHL DUP2 MSTORE PUSH1 0x20 PUSH1 0x4 DUP3 ADD MSTORE PUSH1 0x19 PUSH1 0x24 DUP3 ADD MSTORE PUSH32 0x4552433230566F7465733A20696E76616C6964206E6F6E636500000000000000 PUSH1 0x44 DUP3 ADD MSTORE PUSH1 0x64 ADD PUSH2 0x67E JUMP JUMPDEST PUSH2 0xE6E DUP2 DUP9 PUSH2 0x1B3D JUMP JUMPDEST POP POP POP POP POP POP POP JUMP JUMPDEST PUSH2 0xE80 CALLER PUSH2 0x15A0 JUMP JUMPDEST CALLER PUSH1 0x0 SWAP1 DUP2 MSTORE PUSH1 0xA PUSH1 0x20 MSTORE PUSH1 0x40 DUP2 KECCAK256 DUP1 SLOAD DUP5 SWAP1 DUP2 LT PUSH2 0xEA1 JUMPI PUSH2 0xEA1 PUSH2 0x3523 JUMP JUMPDEST PUSH1 0x0 SWAP2 DUP3 MSTORE PUSH1 0x20 DUP1 DUP4 KECCAK256 PUSH1 0x40 DUP1 MLOAD PUSH1 0x60 DUP2 ADD DUP3 MSTORE PUSH1 0x2 SWAP1 SWAP5 MUL SWAP1 SWAP2 ADD DUP1 SLOAD PUSH1 0x1 PUSH1 0x1 PUSH1 0x80 SHL SUB DUP1 DUP3 AND DUP1 DUP8 MSTORE PUSH1 0x1 PUSH1 0x80 SHL SWAP1 SWAP3 DIV AND SWAP4 DUP6 ADD DUP5 SWAP1 MSTORE PUSH1 0x1 SWAP1 SWAP2 ADD SLOAD SWAP2 DUP5 ADD DUP3 SWAP1 MSTORE SWAP3 SWAP5 POP SWAP2 SWAP3 SWAP1 SWAP2 SWAP1 DUP1 PUSH2 0xEFB DUP6 DUP9 PUSH2 0x985 JUMP JUMPDEST SWAP2 POP SWAP2 POP DUP4 DUP2 GT PUSH2 0xF59 JUMPI PUSH1 0x40 MLOAD PUSH3 0x461BCD PUSH1 0xE5 SHL DUP2 MSTORE PUSH1 0x20 PUSH1 0x4 DUP3 ADD MSTORE PUSH1 0x22 PUSH1 0x24 DUP3 ADD MSTORE PUSH32 0x5374616B696E673A204E6577206C6F636B7570206D757374206265206C6F6E67 PUSH1 0x44 DUP3 ADD MSTORE PUSH2 0x32B9 PUSH1 0xF1 SHL PUSH1 0x64 DUP3 ADD MSTORE PUSH1 0x84 ADD PUSH2 0x67E JUMP JUMPDEST PUSH1 0x1 PUSH1 0x1 PUSH1 0x80 SHL SUB DUP2 AND PUSH1 0x20 DUP1 DUP9 ADD SWAP2 SWAP1 SWAP2 MSTORE PUSH1 0x40 DUP1 DUP9 ADD DUP5 SWAP1 MSTORE CALLER PUSH1 0x0 SWAP1 DUP2 MSTORE PUSH1 0xA SWAP1 SWAP3 MSTORE SWAP1 KECCAK256 DUP1 SLOAD DUP8 SWAP2 SWAP1 DUP11 SWAP1 DUP2 LT PUSH2 0xF96 JUMPI PUSH2 0xF96 PUSH2 0x3523 JUMP JUMPDEST PUSH1 0x0 SWAP2 DUP3 MSTORE PUSH1 0x20 SWAP2 DUP3 SWAP1 KECCAK256 DUP4 MLOAD SWAP3 DUP5 ADD MLOAD PUSH1 0x1 PUSH1 0x1 PUSH1 0x80 SHL SUB SWAP1 DUP2 AND PUSH1 0x1 PUSH1 0x80 SHL MUL SWAP4 AND SWAP3 SWAP1 SWAP3 OR PUSH1 0x2 SWAP1 SWAP2 MUL SWAP1 SWAP2 ADD SWAP1 DUP2 SSTORE PUSH1 0x40 SWAP1 SWAP2 ADD MLOAD PUSH1 0x1 SWAP1 SWAP2 ADD SSTORE PUSH2 0xFE8 CALLER PUSH2 0xFE3 DUP6 DUP6 PUSH2 0x3589 JUMP JUMPDEST PUSH2 0x1F79 JUMP JUMPDEST CALLER PUSH1 0x0 SWAP1 DUP2 MSTORE PUSH1 0xD PUSH1 0x20 MSTORE PUSH1 0x40 SWAP1 KECCAK256 SLOAD PUSH1 0xFF AND ISZERO DUP1 ISZERO PUSH2 0x1019 JUMPI POP PUSH1 0x0 PUSH2 0x100E CALLER PUSH2 0xB26 JUMP JUMPDEST PUSH1 0x1 PUSH1 0x1 PUSH1 0xA0 SHL SUB AND EQ JUMPDEST ISZERO PUSH2 0x1028 JUMPI PUSH2 0x1028 CALLER CALLER PUSH2 0x1B3D JUMP JUMPDEST PUSH1 0x40 DUP1 MLOAD DUP10 DUP2 MSTORE PUSH1 0x20 DUP2 ADD DUP8 SWAP1 MSTORE SWAP1 DUP2 ADD DUP6 SWAP1 MSTORE PUSH1 0x60 DUP2 ADD DUP5 SWAP1 MSTORE CALLER SWAP1 PUSH32 0x5B744E3E9358BC00BA3CC0C6606A4D6536134DBA00B2D2EE4B5DE169ACD6427 SWAP1 PUSH1 0x80 ADD PUSH1 0x40 MLOAD DUP1 SWAP2 SUB SWAP1 LOG2 PUSH1 0x40 DUP1 MLOAD DUP10 DUP2 MSTORE PUSH1 0x20 DUP2 ADD DUP8 SWAP1 MSTORE SWAP1 DUP2 ADD DUP3 SWAP1 MSTORE PUSH1 0x60 DUP2 ADD DUP4 SWAP1 MSTORE CALLER SWAP1 PUSH32 0x2720EFA4B2DD4F3F8A347DA3CBD290A522E9432DA9072C5B8E6300496FDDE282 SWAP1 PUSH1 0x80 ADD PUSH1 0x40 MLOAD DUP1 SWAP2 SUB SWAP1 LOG2 POP POP POP POP POP POP POP POP JUMP JUMPDEST PUSH1 0xA PUSH1 0x20 MSTORE DUP2 PUSH1 0x0 MSTORE PUSH1 0x40 PUSH1 0x0 KECCAK256 DUP2 DUP2 SLOAD DUP2 LT PUSH2 0x10E2 JUMPI PUSH1 0x0 DUP1 REVERT JUMPDEST PUSH1 0x0 SWAP2 DUP3 MSTORE PUSH1 0x20 SWAP1 SWAP2 KECCAK256 PUSH1 0x2 SWAP1 SWAP2 MUL ADD DUP1 SLOAD PUSH1 0x1 SWAP1 SWAP2 ADD SLOAD PUSH1 0x1 PUSH1 0x1 PUSH1 0x80 SHL SUB DUP1 DUP4 AND SWAP5 POP PUSH1 0x1 PUSH1 0x80 SHL SWAP1 SWAP3 DIV SWAP1 SWAP2 AND SWAP2 POP DUP4 JUMP JUMPDEST DUP4 TIMESTAMP GT ISZERO PUSH2 0x1167 JUMPI PUSH1 0x40 MLOAD PUSH3 0x461BCD PUSH1 0xE5 SHL DUP2 MSTORE PUSH1 0x20 PUSH1 0x4 DUP3 ADD MSTORE PUSH1 0x1D PUSH1 0x24 DUP3 ADD MSTORE PUSH32 0x45524332305065726D69743A206578706972656420646561646C696E65000000 PUSH1 0x44 DUP3 ADD MSTORE PUSH1 0x64 ADD PUSH2 0x67E JUMP JUMPDEST PUSH1 0x0 PUSH32 0x6E71EDAE12B1B97F4D1F60370FEF10105FA2FAAE0126114A169C64845D6126C9 DUP9 DUP9 DUP9 PUSH2 0x11B4 DUP13 PUSH1 0x1 PUSH1 0x1 PUSH1 0xA0 SHL SUB AND PUSH1 0x0 SWAP1 DUP2 MSTORE PUSH1 0x5 PUSH1 0x20 MSTORE PUSH1 0x40 SWAP1 KECCAK256 DUP1 SLOAD PUSH1 0x1 DUP2 ADD SWAP1 SWAP2 SSTORE SWAP1 JUMP JUMPDEST PUSH1 0x40 DUP1 MLOAD PUSH1 0x20 DUP2 ADD SWAP7 SWAP1 SWAP7 MSTORE PUSH1 0x1 PUSH1 0x1 PUSH1 0xA0 SHL SUB SWAP5 DUP6 AND SWAP1 DUP7 ADD MSTORE SWAP3 SWAP1 SWAP2 AND PUSH1 0x60 DUP5 ADD MSTORE PUSH1 0x80 DUP4 ADD MSTORE PUSH1 0xA0 DUP3 ADD MSTORE PUSH1 0xC0 DUP2 ADD DUP7 SWAP1 MSTORE PUSH1 0xE0 ADD PUSH1 0x40 MLOAD PUSH1 0x20 DUP2 DUP4 SUB SUB DUP2 MSTORE SWAP1 PUSH1 0x40 MSTORE DUP1 MLOAD SWAP1 PUSH1 0x20 ADD KECCAK256 SWAP1 POP PUSH1 0x0 PUSH2 0x120F DUP3 PUSH2 0x1F03 JUMP JUMPDEST SWAP1 POP PUSH1 0x0 PUSH2 0x121F DUP3 DUP8 DUP8 DUP8 PUSH2 0x1F51 JUMP JUMPDEST SWAP1 POP DUP10 PUSH1 0x1 PUSH1 0x1 PUSH1 0xA0 SHL SUB AND DUP2 PUSH1 0x1 PUSH1 0x1 PUSH1 0xA0 SHL SUB AND EQ PUSH2 0x1282 JUMPI PUSH1 0x40 MLOAD PUSH3 0x461BCD PUSH1 0xE5 SHL DUP2 MSTORE PUSH1 0x20 PUSH1 0x4 DUP3 ADD MSTORE PUSH1 0x1E PUSH1 0x24 DUP3 ADD MSTORE PUSH32 0x45524332305065726D69743A20696E76616C6964207369676E61747572650000 PUSH1 0x44 DUP3 ADD MSTORE PUSH1 0x64 ADD PUSH2 0x67E JUMP JUMPDEST PUSH2 0x128D DUP11 DUP11 DUP11 PUSH2 0x147C JUMP JUMPDEST POP POP POP POP POP POP POP POP POP POP JUMP JUMPDEST PUSH1 0x1 PUSH1 0x1 PUSH1 0xA0 SHL SUB SWAP2 DUP3 AND PUSH1 0x0 SWAP1 DUP2 MSTORE PUSH1 0x1 PUSH1 0x20 SWAP1 DUP2 MSTORE PUSH1 0x40 DUP1 DUP4 KECCAK256 SWAP4 SWAP1 SWAP5 AND DUP3 MSTORE SWAP2 SWAP1 SWAP2 MSTORE KECCAK256 SLOAD SWAP1 JUMP JUMPDEST PUSH1 0x40 DUP1 MLOAD DUP1 DUP3 ADD SWAP1 SWAP2 MSTORE PUSH1 0x0 DUP1 DUP3 MSTORE PUSH1 0x20 DUP3 ADD MSTORE PUSH1 0x1 PUSH1 0x1 PUSH1 0xA0 SHL SUB DUP4 AND PUSH1 0x0 SWAP1 DUP2 MSTORE PUSH1 0x8 PUSH1 0x20 MSTORE PUSH1 0x40 SWAP1 KECCAK256 DUP1 SLOAD PUSH4 0xFFFFFFFF DUP5 AND SWAP1 DUP2 LT PUSH2 0x1308 JUMPI PUSH2 0x1308 PUSH2 0x3523 JUMP JUMPDEST PUSH1 0x0 SWAP2 DUP3 MSTORE PUSH1 0x20 SWAP2 DUP3 SWAP1 KECCAK256 PUSH1 0x40 DUP1 MLOAD DUP1 DUP3 ADD SWAP1 SWAP2 MSTORE SWAP2 ADD SLOAD PUSH4 0xFFFFFFFF DUP2 AND DUP3 MSTORE PUSH1 0x1 PUSH1 0x20 SHL SWAP1 DIV PUSH1 0x1 PUSH1 0x1 PUSH1 0xE0 SHL SUB AND SWAP2 DUP2 ADD SWAP2 SWAP1 SWAP2 MSTORE SWAP4 SWAP3 POP POP POP JUMP JUMPDEST PUSH1 0x0 DUP1 PUSH2 0x1353 PUSH1 0x2 SLOAD SWAP1 JUMP JUMPDEST SWAP1 POP DUP1 PUSH2 0x1363 JUMPI POP PUSH1 0x0 SWAP3 SWAP2 POP POP JUMP JUMPDEST PUSH1 0x0 PUSH1 0xC SLOAD SWAP1 POP DUP2 PUSH32 0x0 PUSH1 0x1 PUSH1 0x1 PUSH1 0xA0 SHL SUB AND PUSH4 0xE0D801DD PUSH1 0x40 MLOAD DUP2 PUSH4 0xFFFFFFFF AND PUSH1 0xE0 SHL DUP2 MSTORE PUSH1 0x4 ADD PUSH1 0x20 PUSH1 0x40 MLOAD DUP1 DUP4 SUB DUP2 DUP7 GAS STATICCALL ISZERO DUP1 ISZERO PUSH2 0x13C9 JUMPI RETURNDATASIZE PUSH1 0x0 DUP1 RETURNDATACOPY RETURNDATASIZE PUSH1 0x0 REVERT JUMPDEST POP POP POP POP PUSH1 0x40 MLOAD RETURNDATASIZE PUSH1 0x1F NOT PUSH1 0x1F DUP3 ADD AND DUP3 ADD DUP1 PUSH1 0x40 MSTORE POP DUP2 ADD SWAP1 PUSH2 0x13ED SWAP2 SWAP1 PUSH2 0x35E1 JUMP JUMPDEST PUSH2 0x13FC SWAP1 PUSH5 0xE8D4A51000 PUSH2 0x35A0 JUMP JUMPDEST PUSH2 0x1406 SWAP2 SWAP1 PUSH2 0x35BF JUMP JUMPDEST PUSH2 0x1410 SWAP1 DUP3 PUSH2 0x3571 JUMP JUMPDEST PUSH1 0x1 PUSH1 0x1 PUSH1 0xA0 SHL SUB DUP6 AND PUSH1 0x0 SWAP1 DUP2 MSTORE PUSH1 0xB PUSH1 0x20 MSTORE PUSH1 0x40 DUP2 KECCAK256 SLOAD SWAP2 SWAP3 POP SWAP1 PUSH2 0x1437 SWAP1 DUP4 PUSH2 0x3589 JUMP JUMPDEST SWAP1 POP PUSH5 0xE8D4A51000 DUP2 PUSH2 0x145F DUP8 PUSH1 0x1 PUSH1 0x1 PUSH1 0xA0 SHL SUB AND PUSH1 0x0 SWAP1 DUP2 MSTORE PUSH1 0x20 DUP2 SWAP1 MSTORE PUSH1 0x40 SWAP1 KECCAK256 SLOAD SWAP1 JUMP JUMPDEST PUSH2 0x1469 SWAP2 SWAP1 PUSH2 0x35A0 JUMP JUMPDEST PUSH2 0x1473 SWAP2 SWAP1 PUSH2 0x35BF JUMP JUMPDEST SWAP6 SWAP5 POP POP POP POP POP JUMP JUMPDEST PUSH1 0x1 PUSH1 0x1 PUSH1 0xA0 SHL SUB DUP4 AND PUSH2 0x14DE JUMPI PUSH1 0x40 MLOAD PUSH3 0x461BCD PUSH1 0xE5 SHL DUP2 MSTORE PUSH1 0x20 PUSH1 0x4 DUP3 ADD MSTORE PUSH1 0x24 DUP1 DUP3 ADD MSTORE PUSH32 0x45524332303A20617070726F76652066726F6D20746865207A65726F20616464 PUSH1 0x44 DUP3 ADD MSTORE PUSH4 0x72657373 PUSH1 0xE0 SHL PUSH1 0x64 DUP3 ADD MSTORE PUSH1 0x84 ADD PUSH2 0x67E JUMP JUMPDEST PUSH1 0x1 PUSH1 0x1 PUSH1 0xA0 SHL SUB DUP3 AND PUSH2 0x153F JUMPI PUSH1 0x40 MLOAD PUSH3 0x461BCD PUSH1 0xE5 SHL DUP2 MSTORE PUSH1 0x20 PUSH1 0x4 DUP3 ADD MSTORE PUSH1 0x22 PUSH1 0x24 DUP3 ADD MSTORE PUSH32 0x45524332303A20617070726F766520746F20746865207A65726F206164647265 PUSH1 0x44 DUP3 ADD MSTORE PUSH2 0x7373 PUSH1 0xF0 SHL PUSH1 0x64 DUP3 ADD MSTORE PUSH1 0x84 ADD PUSH2 0x67E JUMP JUMPDEST PUSH1 0x1 PUSH1 0x1 PUSH1 0xA0 SHL SUB DUP4 DUP2 AND PUSH1 0x0 DUP2 DUP2 MSTORE PUSH1 0x1 PUSH1 0x20 SWAP1 DUP2 MSTORE PUSH1 0x40 DUP1 DUP4 KECCAK256 SWAP5 DUP8 AND DUP1 DUP5 MSTORE SWAP5 DUP3 MSTORE SWAP2 DUP3 SWAP1 KECCAK256 DUP6 SWAP1 SSTORE SWAP1 MLOAD DUP5 DUP2 MSTORE PUSH32 0x8C5BE1E5EBEC7D5BD14F71427D1E84F3DD0314C0F7B2291E5B200AC8C7C3B925 SWAP2 ADD PUSH1 0x40 MLOAD DUP1 SWAP2 SUB SWAP1 LOG3 POP POP POP JUMP JUMPDEST PUSH1 0x0 PUSH2 0x15AB PUSH1 0x2 SLOAD SWAP1 JUMP JUMPDEST SWAP1 POP DUP1 ISZERO PUSH2 0x1793 JUMPI PUSH1 0x40 MLOAD PUSH4 0x70A08231 PUSH1 0xE0 SHL DUP2 MSTORE ADDRESS PUSH1 0x4 DUP3 ADD MSTORE PUSH1 0x0 SWAP1 PUSH32 0x0 PUSH1 0x1 PUSH1 0x1 PUSH1 0xA0 SHL SUB AND SWAP1 PUSH4 0x70A08231 SWAP1 PUSH1 0x24 ADD PUSH1 0x20 PUSH1 0x40 MLOAD DUP1 DUP4 SUB DUP2 DUP7 GAS STATICCALL ISZERO DUP1 ISZERO PUSH2 0x161A JUMPI RETURNDATASIZE PUSH1 0x0 DUP1 RETURNDATACOPY RETURNDATASIZE PUSH1 0x0 REVERT JUMPDEST POP POP POP POP PUSH1 0x40 MLOAD RETURNDATASIZE PUSH1 0x1F NOT PUSH1 0x1F DUP3 ADD AND DUP3 ADD DUP1 PUSH1 0x40 MSTORE POP DUP2 ADD SWAP1 PUSH2 0x163E SWAP2 SWAP1 PUSH2 0x35E1 JUMP JUMPDEST SWAP1 POP PUSH32 0x0 PUSH1 0x1 PUSH1 0x1 PUSH1 0xA0 SHL SUB AND PUSH4 0x70BB45B3 PUSH1 0x40 MLOAD DUP2 PUSH4 0xFFFFFFFF AND PUSH1 0xE0 SHL DUP2 MSTORE PUSH1 0x4 ADD PUSH1 0x20 PUSH1 0x40 MLOAD DUP1 DUP4 SUB DUP2 PUSH1 0x0 DUP8 GAS CALL SWAP3 POP POP POP DUP1 ISZERO PUSH2 0x16BC JUMPI POP PUSH1 0x40 DUP1 MLOAD PUSH1 0x1F RETURNDATASIZE SWAP1 DUP2 ADD PUSH1 0x1F NOT AND DUP3 ADD SWAP1 SWAP3 MSTORE PUSH2 0x16B9 SWAP2 DUP2 ADD SWAP1 PUSH2 0x35E1 JUMP JUMPDEST PUSH1 0x1 JUMPDEST PUSH2 0x16C5 JUMPI PUSH2 0x16C7 JUMP JUMPDEST POP JUMPDEST PUSH1 0x40 MLOAD PUSH4 0x70A08231 PUSH1 0xE0 SHL DUP2 MSTORE ADDRESS PUSH1 0x4 DUP3 ADD MSTORE PUSH1 0x0 SWAP1 DUP3 SWAP1 PUSH1 0x1 PUSH1 0x1 PUSH1 0xA0 SHL SUB PUSH32 0x0 AND SWAP1 PUSH4 0x70A08231 SWAP1 PUSH1 0x24 ADD PUSH1 0x20 PUSH1 0x40 MLOAD DUP1 DUP4 SUB DUP2 DUP7 GAS STATICCALL ISZERO DUP1 ISZERO PUSH2 0x1730 JUMPI RETURNDATASIZE PUSH1 0x0 DUP1 RETURNDATACOPY RETURNDATASIZE PUSH1 0x0 REVERT JUMPDEST POP POP POP POP PUSH1 0x40 MLOAD RETURNDATASIZE PUSH1 0x1F NOT PUSH1 0x1F DUP3 ADD AND DUP3 ADD DUP1 PUSH1 0x40 MSTORE POP DUP2 ADD SWAP1 PUSH2 0x1754 SWAP2 SWAP1 PUSH2 0x35E1 JUMP JUMPDEST PUSH2 0x175E SWAP2 SWAP1 PUSH2 0x3589 JUMP JUMPDEST SWAP1 POP DUP3 PUSH2 0x1770 DUP3 PUSH5 0xE8D4A51000 PUSH2 0x35A0 JUMP JUMPDEST PUSH2 0x177A SWAP2 SWAP1 PUSH2 0x35BF JUMP JUMPDEST PUSH1 0xC PUSH1 0x0 DUP3 DUP3 SLOAD PUSH2 0x178B SWAP2 SWAP1 PUSH2 0x3571 JUMP JUMPDEST SWAP1 SWAP2 SSTORE POP POP POP POP JUMPDEST PUSH1 0x1 PUSH1 0x1 PUSH1 0xA0 SHL SUB DUP3 AND PUSH1 0x0 SWAP1 DUP2 MSTORE PUSH1 0xB PUSH1 0x20 MSTORE PUSH1 0x40 DUP2 KECCAK256 SLOAD PUSH1 0xC SLOAD PUSH2 0x17B9 SWAP2 SWAP1 PUSH2 0x3589 JUMP JUMPDEST SWAP1 POP PUSH1 0x0 PUSH5 0xE8D4A51000 DUP3 PUSH2 0x17E3 DUP7 PUSH1 0x1 PUSH1 0x1 PUSH1 0xA0 SHL SUB AND PUSH1 0x0 SWAP1 DUP2 MSTORE PUSH1 0x20 DUP2 SWAP1 MSTORE PUSH1 0x40 SWAP1 KECCAK256 SLOAD SWAP1 JUMP JUMPDEST PUSH2 0x17ED SWAP2 SWAP1 PUSH2 0x35A0 JUMP JUMPDEST PUSH2 0x17F7 SWAP2 SWAP1 PUSH2 0x35BF JUMP JUMPDEST PUSH1 0xC SLOAD PUSH1 0x1 PUSH1 0x1 PUSH1 0xA0 SHL SUB DUP7 AND PUSH1 0x0 SWAP1 DUP2 MSTORE PUSH1 0xB PUSH1 0x20 MSTORE PUSH1 0x40 SWAP1 KECCAK256 SSTORE SWAP1 POP DUP1 PUSH2 0x1820 JUMPI POP POP POP POP JUMP JUMPDEST PUSH1 0x40 MLOAD PUSH4 0xA9059CBB PUSH1 0xE0 SHL DUP2 MSTORE PUSH1 0x1 PUSH1 0x1 PUSH1 0xA0 SHL SUB DUP6 DUP2 AND PUSH1 0x4 DUP4 ADD MSTORE PUSH1 0x24 DUP3 ADD DUP4 SWAP1 MSTORE PUSH32 0x0 AND SWAP1 PUSH4 0xA9059CBB SWAP1 PUSH1 0x44 ADD PUSH1 0x20 PUSH1 0x40 MLOAD DUP1 DUP4 SUB DUP2 PUSH1 0x0 DUP8 GAS CALL ISZERO DUP1 ISZERO PUSH2 0x188F JUMPI RETURNDATASIZE PUSH1 0x0 DUP1 RETURNDATACOPY RETURNDATASIZE PUSH1 0x0 REVERT JUMPDEST POP POP POP POP PUSH1 0x40 MLOAD RETURNDATASIZE PUSH1 0x1F NOT PUSH1 0x1F DUP3 ADD AND DUP3 ADD DUP1 PUSH1 0x40 MSTORE POP DUP2 ADD SWAP1 PUSH2 0x18B3 SWAP2 SWAP1 PUSH2 0x3539 JUMP JUMPDEST POP DUP4 PUSH1 0x1 PUSH1 0x1 PUSH1 0xA0 SHL SUB AND PUSH32 0x619CAAFABDD75649B302BA8419E48CCCF64F37F1983AC4727CFB38B57703FFC9 DUP3 PUSH1 0x40 MLOAD PUSH2 0x18EF SWAP2 DUP2 MSTORE PUSH1 0x20 ADD SWAP1 JUMP JUMPDEST PUSH1 0x40 MLOAD DUP1 SWAP2 SUB SWAP1 LOG2 POP POP POP POP JUMP JUMPDEST PUSH2 0x1907 DUP3 DUP3 PUSH2 0x2003 JUMP JUMPDEST PUSH2 0x1915 PUSH1 0x9 PUSH2 0x2158 DUP4 PUSH2 0x2164 JUMP JUMPDEST POP POP POP POP JUMP JUMPDEST PUSH1 0x0 ADDRESS PUSH1 0x1 PUSH1 0x1 PUSH1 0xA0 SHL SUB PUSH32 0x0 AND EQ DUP1 ISZERO PUSH2 0x1974 JUMPI POP PUSH32 0x0 CHAINID EQ JUMPDEST ISZERO PUSH2 0x199E JUMPI POP PUSH32 0x0 SWAP1 JUMP JUMPDEST POP PUSH1 0x40 DUP1 MLOAD PUSH32 0x0 PUSH1 0x20 DUP1 DUP4 ADD SWAP2 SWAP1 SWAP2 MSTORE PUSH32 0x0 DUP3 DUP5 ADD MSTORE PUSH32 0x0 PUSH1 0x60 DUP4 ADD MSTORE CHAINID PUSH1 0x80 DUP4 ADD MSTORE ADDRESS PUSH1 0xA0 DUP1 DUP5 ADD SWAP2 SWAP1 SWAP2 MSTORE DUP4 MLOAD DUP1 DUP5 SUB SWAP1 SWAP2 ADD DUP2 MSTORE PUSH1 0xC0 SWAP1 SWAP3 ADD SWAP1 SWAP3 MSTORE DUP1 MLOAD SWAP2 ADD KECCAK256 SWAP1 JUMP JUMPDEST DUP2 SLOAD PUSH1 0x0 SWAP1 DUP2 JUMPDEST DUP2 DUP2 LT ISZERO PUSH2 0x1AA6 JUMPI PUSH1 0x0 PUSH2 0x1A5D DUP3 DUP5 PUSH2 0x22DB JUMP JUMPDEST SWAP1 POP DUP5 DUP7 DUP3 DUP2 SLOAD DUP2 LT PUSH2 0x1A72 JUMPI PUSH2 0x1A72 PUSH2 0x3523 JUMP JUMPDEST PUSH1 0x0 SWAP2 DUP3 MSTORE PUSH1 0x20 SWAP1 SWAP2 KECCAK256 ADD SLOAD PUSH4 0xFFFFFFFF AND GT ISZERO PUSH2 0x1A92 JUMPI DUP1 SWAP3 POP PUSH2 0x1AA0 JUMP JUMPDEST PUSH2 0x1A9D DUP2 PUSH1 0x1 PUSH2 0x3571 JUMP JUMPDEST SWAP2 POP JUMPDEST POP PUSH2 0x1A49 JUMP JUMPDEST DUP2 ISZERO PUSH2 0x1AE9 JUMPI DUP5 PUSH2 0x1AB8 PUSH1 0x1 DUP5 PUSH2 0x3589 JUMP JUMPDEST DUP2 SLOAD DUP2 LT PUSH2 0x1AC8 JUMPI PUSH2 0x1AC8 PUSH2 0x3523 JUMP JUMPDEST PUSH1 0x0 SWAP2 DUP3 MSTORE PUSH1 0x20 SWAP1 SWAP2 KECCAK256 ADD SLOAD PUSH1 0x1 PUSH1 0x20 SHL SWAP1 DIV PUSH1 0x1 PUSH1 0x1 PUSH1 0xE0 SHL SUB AND PUSH2 0x1AEC JUMP JUMPDEST PUSH1 0x0 JUMPDEST PUSH1 0x1 PUSH1 0x1 PUSH1 0xE0 SHL SUB AND SWAP6 SWAP5 POP POP POP POP POP JUMP JUMPDEST PUSH1 0x0 DUP3 PUSH2 0x1B23 JUMPI DUP2 ISZERO PUSH2 0x1B12 JUMPI PUSH1 0x0 PUSH2 0x1B1C JUMP JUMPDEST PUSH8 0xDE0B6B3A7640000 JUMPDEST SWAP1 POP PUSH2 0x631 JUMP JUMPDEST PUSH2 0x97E PUSH2 0x1B38 PUSH2 0x1B32 DUP6 PUSH2 0x22F6 JUMP JUMPDEST DUP5 PUSH2 0x23A6 JUMP JUMPDEST PUSH2 0x23B2 JUMP JUMPDEST PUSH1 0x1 PUSH1 0x1 PUSH1 0xA0 SHL SUB DUP3 AND PUSH1 0x0 SWAP1 DUP2 MSTORE PUSH1 0xD PUSH1 0x20 MSTORE PUSH1 0x40 SWAP1 KECCAK256 DUP1 SLOAD PUSH1 0xFF NOT AND PUSH1 0x1 OR SWAP1 SSTORE PUSH2 0xB99 DUP3 DUP3 PUSH2 0x23F8 JUMP JUMPDEST PUSH1 0x0 PUSH4 0xFFFFFFFF DUP3 GT ISZERO PUSH2 0x1BCF JUMPI PUSH1 0x40 MLOAD PUSH3 0x461BCD PUSH1 0xE5 SHL DUP2 MSTORE PUSH1 0x20 PUSH1 0x4 DUP3 ADD MSTORE PUSH1 0x26 PUSH1 0x24 DUP3 ADD MSTORE PUSH32 0x53616665436173743A2076616C756520646F65736E27742066697420696E2033 PUSH1 0x44 DUP3 ADD MSTORE PUSH6 0x322062697473 PUSH1 0xD0 SHL PUSH1 0x64 DUP3 ADD MSTORE PUSH1 0x84 ADD PUSH2 0x67E JUMP JUMPDEST POP SWAP1 JUMP JUMPDEST PUSH1 0x1 PUSH1 0x1 PUSH1 0xA0 SHL SUB DUP2 AND PUSH2 0x1C29 JUMPI PUSH1 0x40 MLOAD PUSH3 0x461BCD PUSH1 0xE5 SHL DUP2 MSTORE PUSH1 0x20 PUSH1 0x4 DUP3 ADD MSTORE PUSH1 0x1C PUSH1 0x24 DUP3 ADD MSTORE PUSH32 0x5374616B696E673A20546F20746865207A65726F206164647265737300000000 PUSH1 0x44 DUP3 ADD MSTORE PUSH1 0x64 ADD PUSH2 0x67E JUMP JUMPDEST PUSH1 0x1 PUSH1 0x1 PUSH1 0x80 SHL SUB DUP4 GT ISZERO PUSH2 0x1C74 JUMPI PUSH1 0x40 MLOAD PUSH3 0x461BCD PUSH1 0xE5 SHL DUP2 MSTORE PUSH1 0x20 PUSH1 0x4 DUP3 ADD MSTORE PUSH1 0x11 PUSH1 0x24 DUP3 ADD MSTORE PUSH17 0xA6E8C2D6D2DCCE7440A8DEDE40DAEAC6D PUSH1 0x7B SHL PUSH1 0x44 DUP3 ADD MSTORE PUSH1 0x64 ADD PUSH2 0x67E JUMP JUMPDEST PUSH1 0x0 DUP4 GT PUSH2 0x1CBA JUMPI PUSH1 0x40 MLOAD PUSH3 0x461BCD PUSH1 0xE5 SHL DUP2 MSTORE PUSH1 0x20 PUSH1 0x4 DUP3 ADD MSTORE PUSH1 0x13 PUSH1 0x24 DUP3 ADD MSTORE PUSH19 0xA6E8C2D6D2DCCE74409CDEE840CADCDEEACED PUSH1 0x6B SHL PUSH1 0x44 DUP3 ADD MSTORE PUSH1 0x64 ADD PUSH2 0x67E JUMP JUMPDEST PUSH1 0x0 DUP1 PUSH2 0x1CC7 DUP6 DUP6 PUSH2 0x985 JUMP JUMPDEST SWAP1 SWAP3 POP SWAP1 POP PUSH1 0x1 PUSH1 0x1 PUSH1 0xC0 SHL SUB PUSH2 0x1CDD PUSH1 0x2 SLOAD SWAP1 JUMP JUMPDEST PUSH2 0x1CE7 SWAP1 DUP5 PUSH2 0x3571 JUMP JUMPDEST GT ISZERO PUSH2 0x1D35 JUMPI PUSH1 0x40 MLOAD PUSH3 0x461BCD PUSH1 0xE5 SHL DUP2 MSTORE PUSH1 0x20 PUSH1 0x4 DUP3 ADD MSTORE PUSH1 0x1C PUSH1 0x24 DUP3 ADD MSTORE PUSH32 0x5374616B696E673A204D617820706F696E747320657863656564656400000000 PUSH1 0x44 DUP3 ADD MSTORE PUSH1 0x64 ADD PUSH2 0x67E JUMP JUMPDEST PUSH2 0x1D3E DUP4 PUSH2 0x15A0 JUMP JUMPDEST PUSH1 0x1 PUSH1 0x1 PUSH1 0xA0 SHL SUB DUP4 AND PUSH1 0x0 SWAP1 DUP2 MSTORE PUSH1 0xA PUSH1 0x20 SWAP1 DUP2 MSTORE PUSH1 0x40 DUP1 DUP4 KECCAK256 DUP2 MLOAD PUSH1 0x60 DUP2 ADD DUP4 MSTORE PUSH1 0x1 PUSH1 0x1 PUSH1 0x80 SHL SUB DUP1 DUP12 AND DUP3 MSTORE DUP7 DUP2 AND DUP3 DUP7 ADD SWAP1 DUP2 MSTORE SWAP4 DUP3 ADD DUP9 DUP2 MSTORE DUP4 SLOAD PUSH1 0x1 DUP2 DUP2 ADD DUP7 SSTORE SWAP5 DUP9 MSTORE SWAP6 SWAP1 SWAP7 KECCAK256 SWAP2 MLOAD SWAP4 MLOAD DUP2 AND PUSH1 0x1 PUSH1 0x80 SHL MUL SWAP4 AND SWAP3 SWAP1 SWAP3 OR PUSH1 0x2 SWAP1 SWAP4 MUL SWAP1 SWAP2 ADD SWAP2 DUP3 SSTORE SWAP2 MLOAD SWAP2 ADD SSTORE PUSH2 0x1DB9 DUP4 DUP4 PUSH2 0x1F79 JUMP JUMPDEST PUSH1 0x40 MLOAD PUSH4 0x23B872DD PUSH1 0xE0 SHL DUP2 MSTORE CALLER PUSH1 0x4 DUP3 ADD MSTORE ADDRESS PUSH1 0x24 DUP3 ADD MSTORE PUSH1 0x44 DUP2 ADD DUP7 SWAP1 MSTORE PUSH32 0x0 PUSH1 0x1 PUSH1 0x1 PUSH1 0xA0 SHL SUB AND SWAP1 PUSH4 0x23B872DD SWAP1 PUSH1 0x64 ADD PUSH1 0x20 PUSH1 0x40 MLOAD DUP1 DUP4 SUB DUP2 PUSH1 0x0 DUP8 GAS CALL ISZERO DUP1 ISZERO PUSH2 0x1E2C JUMPI RETURNDATASIZE PUSH1 0x0 DUP1 RETURNDATACOPY RETURNDATASIZE PUSH1 0x0 REVERT JUMPDEST POP POP POP POP PUSH1 0x40 MLOAD RETURNDATASIZE PUSH1 0x1F NOT PUSH1 0x1F DUP3 ADD AND DUP3 ADD DUP1 PUSH1 0x40 MSTORE POP DUP2 ADD SWAP1 PUSH2 0x1E50 SWAP2 SWAP1 PUSH2 0x3539 JUMP JUMPDEST POP PUSH1 0x1 PUSH1 0x1 PUSH1 0xA0 SHL SUB DUP4 AND PUSH1 0x0 SWAP1 DUP2 MSTORE PUSH1 0xD PUSH1 0x20 MSTORE PUSH1 0x40 SWAP1 KECCAK256 SLOAD PUSH1 0xFF AND ISZERO DUP1 ISZERO PUSH2 0x1E8B JUMPI POP PUSH1 0x0 PUSH2 0x1E80 DUP5 PUSH2 0xB26 JUMP JUMPDEST PUSH1 0x1 PUSH1 0x1 PUSH1 0xA0 SHL SUB AND EQ JUMPDEST ISZERO PUSH2 0x1E9A JUMPI PUSH2 0x1E9A DUP4 DUP5 PUSH2 0x1B3D JUMP JUMPDEST PUSH1 0x1 PUSH1 0x1 PUSH1 0xA0 SHL SUB DUP4 AND PUSH1 0x0 DUP2 DUP2 MSTORE PUSH1 0xA PUSH1 0x20 MSTORE PUSH1 0x40 SWAP1 KECCAK256 SLOAD PUSH32 0x2720EFA4B2DD4F3F8A347DA3CBD290A522E9432DA9072C5B8E6300496FDDE282 SWAP1 PUSH2 0x1EE1 SWAP1 PUSH1 0x1 SWAP1 PUSH2 0x3589 JUMP JUMPDEST PUSH1 0x40 DUP1 MLOAD SWAP2 DUP3 MSTORE PUSH1 0x20 DUP3 ADD DUP10 SWAP1 MSTORE DUP2 ADD DUP5 SWAP1 MSTORE PUSH1 0x60 DUP2 ADD DUP6 SWAP1 MSTORE PUSH1 0x80 ADD PUSH2 0x8CB JUMP JUMPDEST PUSH1 0x0 PUSH2 0x631 PUSH2 0x1F10 PUSH2 0x191B JUMP JUMPDEST DUP4 PUSH1 0x40 MLOAD PUSH2 0x1901 PUSH1 0xF0 SHL PUSH1 0x20 DUP3 ADD MSTORE PUSH1 0x22 DUP2 ADD DUP4 SWAP1 MSTORE PUSH1 0x42 DUP2 ADD DUP3 SWAP1 MSTORE PUSH1 0x0 SWAP1 PUSH1 0x62 ADD PUSH1 0x40 MLOAD PUSH1 0x20 DUP2 DUP4 SUB SUB DUP2 MSTORE SWAP1 PUSH1 0x40 MSTORE DUP1 MLOAD SWAP1 PUSH1 0x20 ADD KECCAK256 SWAP1 POP SWAP3 SWAP2 POP POP JUMP JUMPDEST PUSH1 0x0 DUP1 PUSH1 0x0 PUSH2 0x1F62 DUP8 DUP8 DUP8 DUP8 PUSH2 0x248E JUMP JUMPDEST SWAP2 POP SWAP2 POP PUSH2 0x1F6F DUP2 PUSH2 0x257B JUMP JUMPDEST POP SWAP6 SWAP5 POP POP POP POP POP JUMP JUMPDEST PUSH2 0x1F83 DUP3 DUP3 PUSH2 0x2736 JUMP JUMPDEST PUSH1 0x2 SLOAD PUSH1 0x1 PUSH1 0x1 PUSH1 0xE0 SHL SUB LT ISZERO PUSH2 0x1FF5 JUMPI PUSH1 0x40 MLOAD PUSH3 0x461BCD PUSH1 0xE5 SHL DUP2 MSTORE PUSH1 0x20 PUSH1 0x4 DUP3 ADD MSTORE PUSH1 0x30 PUSH1 0x24 DUP3 ADD MSTORE PUSH32 0x4552433230566F7465733A20746F74616C20737570706C79207269736B73206F PUSH1 0x44 DUP3 ADD MSTORE PUSH16 0x766572666C6F77696E6720766F746573 PUSH1 0x80 SHL PUSH1 0x64 DUP3 ADD MSTORE PUSH1 0x84 ADD PUSH2 0x67E JUMP JUMPDEST PUSH2 0x1915 PUSH1 0x9 PUSH2 0x281D DUP4 PUSH2 0x2164 JUMP JUMPDEST PUSH1 0x1 PUSH1 0x1 PUSH1 0xA0 SHL SUB DUP3 AND PUSH2 0x2063 JUMPI PUSH1 0x40 MLOAD PUSH3 0x461BCD PUSH1 0xE5 SHL DUP2 MSTORE PUSH1 0x20 PUSH1 0x4 DUP3 ADD MSTORE PUSH1 0x21 PUSH1 0x24 DUP3 ADD MSTORE PUSH32 0x45524332303A206275726E2066726F6D20746865207A65726F20616464726573 PUSH1 0x44 DUP3 ADD MSTORE PUSH1 0x73 PUSH1 0xF8 SHL PUSH1 0x64 DUP3 ADD MSTORE PUSH1 0x84 ADD PUSH2 0x67E JUMP JUMPDEST PUSH1 0x1 PUSH1 0x1 PUSH1 0xA0 SHL SUB DUP3 AND PUSH1 0x0 SWAP1 DUP2 MSTORE PUSH1 0x20 DUP2 SWAP1 MSTORE PUSH1 0x40 SWAP1 KECCAK256 SLOAD DUP2 DUP2 LT ISZERO PUSH2 0x20D7 JUMPI PUSH1 0x40 MLOAD PUSH3 0x461BCD PUSH1 0xE5 SHL DUP2 MSTORE PUSH1 0x20 PUSH1 0x4 DUP3 ADD MSTORE PUSH1 0x22 PUSH1 0x24 DUP3 ADD MSTORE PUSH32 0x45524332303A206275726E20616D6F756E7420657863656564732062616C616E PUSH1 0x44 DUP3 ADD MSTORE PUSH2 0x6365 PUSH1 0xF0 SHL PUSH1 0x64 DUP3 ADD MSTORE PUSH1 0x84 ADD PUSH2 0x67E JUMP JUMPDEST PUSH1 0x1 PUSH1 0x1 PUSH1 0xA0 SHL SUB DUP4 AND PUSH1 0x0 SWAP1 DUP2 MSTORE PUSH1 0x20 DUP2 SWAP1 MSTORE PUSH1 0x40 DUP2 KECCAK256 DUP4 DUP4 SUB SWAP1 SSTORE PUSH1 0x2 DUP1 SLOAD DUP5 SWAP3 SWAP1 PUSH2 0x2106 SWAP1 DUP5 SWAP1 PUSH2 0x3589 JUMP JUMPDEST SWAP1 SWAP2 SSTORE POP POP PUSH1 0x40 MLOAD DUP3 DUP2 MSTORE PUSH1 0x0 SWAP1 PUSH1 0x1 PUSH1 0x1 PUSH1 0xA0 SHL SUB DUP6 AND SWAP1 PUSH32 0xDDF252AD1BE2C89B69C2B068FC378DAA952BA7F163C4A11628F55A4DF523B3EF SWAP1 PUSH1 0x20 ADD PUSH1 0x40 MLOAD DUP1 SWAP2 SUB SWAP1 LOG3 PUSH2 0xB89 DUP4 PUSH1 0x0 DUP5 PUSH2 0x2829 JUMP JUMPDEST PUSH1 0x0 PUSH2 0x97E DUP3 DUP5 PUSH2 0x3589 JUMP JUMPDEST DUP3 SLOAD PUSH1 0x0 SWAP1 DUP2 SWAP1 DUP1 ISZERO PUSH2 0x21AE JUMPI DUP6 PUSH2 0x217D PUSH1 0x1 DUP4 PUSH2 0x3589 JUMP JUMPDEST DUP2 SLOAD DUP2 LT PUSH2 0x218D JUMPI PUSH2 0x218D PUSH2 0x3523 JUMP JUMPDEST PUSH1 0x0 SWAP2 DUP3 MSTORE PUSH1 0x20 SWAP1 SWAP2 KECCAK256 ADD SLOAD PUSH1 0x1 PUSH1 0x20 SHL SWAP1 DIV PUSH1 0x1 PUSH1 0x1 PUSH1 0xE0 SHL SUB AND PUSH2 0x21B1 JUMP JUMPDEST PUSH1 0x0 JUMPDEST PUSH1 0x1 PUSH1 0x1 PUSH1 0xE0 SHL SUB AND SWAP3 POP PUSH2 0x21CA DUP4 DUP6 DUP8 PUSH4 0xFFFFFFFF AND JUMP JUMPDEST SWAP2 POP PUSH1 0x0 DUP2 GT DUP1 ISZERO PUSH2 0x2208 JUMPI POP NUMBER DUP7 PUSH2 0x21E4 PUSH1 0x1 DUP5 PUSH2 0x3589 JUMP JUMPDEST DUP2 SLOAD DUP2 LT PUSH2 0x21F4 JUMPI PUSH2 0x21F4 PUSH2 0x3523 JUMP JUMPDEST PUSH1 0x0 SWAP2 DUP3 MSTORE PUSH1 0x20 SWAP1 SWAP2 KECCAK256 ADD SLOAD PUSH4 0xFFFFFFFF AND EQ JUMPDEST ISZERO PUSH2 0x2268 JUMPI PUSH2 0x2216 DUP3 PUSH2 0x2844 JUMP JUMPDEST DUP7 PUSH2 0x2222 PUSH1 0x1 DUP5 PUSH2 0x3589 JUMP JUMPDEST DUP2 SLOAD DUP2 LT PUSH2 0x2232 JUMPI PUSH2 0x2232 PUSH2 0x3523 JUMP JUMPDEST SWAP1 PUSH1 0x0 MSTORE PUSH1 0x20 PUSH1 0x0 KECCAK256 ADD PUSH1 0x0 ADD PUSH1 0x4 PUSH2 0x100 EXP DUP2 SLOAD DUP2 PUSH1 0x1 PUSH1 0x1 PUSH1 0xE0 SHL SUB MUL NOT AND SWAP1 DUP4 PUSH1 0x1 PUSH1 0x1 PUSH1 0xE0 SHL SUB AND MUL OR SWAP1 SSTORE POP PUSH2 0x22D2 JUMP JUMPDEST DUP6 PUSH1 0x40 MLOAD DUP1 PUSH1 0x40 ADD PUSH1 0x40 MSTORE DUP1 PUSH2 0x227D NUMBER PUSH2 0x1B6A JUMP JUMPDEST PUSH4 0xFFFFFFFF AND DUP2 MSTORE PUSH1 0x20 ADD PUSH2 0x2291 DUP6 PUSH2 0x2844 JUMP JUMPDEST PUSH1 0x1 PUSH1 0x1 PUSH1 0xE0 SHL SUB SWAP1 DUP2 AND SWAP1 SWAP2 MSTORE DUP3 SLOAD PUSH1 0x1 DUP2 ADD DUP5 SSTORE PUSH1 0x0 SWAP4 DUP5 MSTORE PUSH1 0x20 SWAP4 DUP5 SWAP1 KECCAK256 DUP4 MLOAD SWAP5 SWAP1 SWAP4 ADD MLOAD SWAP1 SWAP2 AND PUSH1 0x1 PUSH1 0x20 SHL MUL PUSH4 0xFFFFFFFF SWAP1 SWAP4 AND SWAP3 SWAP1 SWAP3 OR SWAP2 ADD SSTORE JUMPDEST POP SWAP4 POP SWAP4 SWAP2 POP POP JUMP JUMPDEST PUSH1 0x0 PUSH2 0x22EA PUSH1 0x2 DUP5 DUP5 XOR PUSH2 0x35BF JUMP JUMPDEST PUSH2 0x97E SWAP1 DUP5 DUP5 AND PUSH2 0x3571 JUMP JUMPDEST PUSH1 0x0 PUSH8 0xDE0B6B3A7640000 DUP3 LT ISZERO PUSH2 0x2324 JUMPI PUSH1 0x40 MLOAD PUSH4 0x36214137 PUSH1 0xE2 SHL DUP2 MSTORE PUSH1 0x4 DUP2 ADD DUP4 SWAP1 MSTORE PUSH1 0x24 ADD PUSH2 0x67E JUMP JUMPDEST PUSH1 0x0 PUSH2 0x2339 PUSH8 0xDE0B6B3A7640000 DUP5 DIV PUSH2 0x28AD JUMP JUMPDEST PUSH8 0xDE0B6B3A7640000 DUP1 DUP3 MUL SWAP4 POP SWAP1 SWAP2 POP DUP4 DUP3 SHR SWAP1 DUP2 EQ ISZERO PUSH2 0x235C JUMPI POP POP SWAP2 SWAP1 POP JUMP JUMPDEST PUSH8 0x6F05B59D3B20000 JUMPDEST DUP1 ISZERO PUSH2 0x239E JUMPI PUSH8 0xDE0B6B3A7640000 DUP3 DUP1 MUL DIV SWAP2 POP PUSH8 0x1BC16D674EC80000 DUP3 LT PUSH2 0x2396 JUMPI SWAP3 DUP4 ADD SWAP3 PUSH1 0x1 SWAP2 SWAP1 SWAP2 SHR SWAP1 JUMPDEST PUSH1 0x1 SHR PUSH2 0x2366 JUMP JUMPDEST POP POP POP SWAP2 SWAP1 POP JUMP JUMPDEST PUSH1 0x0 PUSH2 0x97E DUP4 DUP4 PUSH2 0x2995 JUMP JUMPDEST PUSH1 0x0 PUSH9 0xA688906BD8B000000 DUP3 LT PUSH2 0x23E0 JUMPI PUSH1 0x40 MLOAD PUSH4 0x4A4F26F1 PUSH1 0xE0 SHL DUP2 MSTORE PUSH1 0x4 DUP2 ADD DUP4 SWAP1 MSTORE PUSH1 0x24 ADD PUSH2 0x67E JUMP JUMPDEST PUSH8 0xDE0B6B3A7640000 PUSH1 0x40 DUP4 SWAP1 SHL DIV PUSH2 0x97E DUP2 PUSH2 0x2A57 JUMP JUMPDEST PUSH1 0x0 PUSH2 0x2403 DUP4 PUSH2 0xB26 JUMP JUMPDEST SWAP1 POP PUSH1 0x0 PUSH2 0x2426 DUP5 PUSH1 0x1 PUSH1 0x1 PUSH1 0xA0 SHL SUB AND PUSH1 0x0 SWAP1 DUP2 MSTORE PUSH1 0x20 DUP2 SWAP1 MSTORE PUSH1 0x40 SWAP1 KECCAK256 SLOAD SWAP1 JUMP JUMPDEST PUSH1 0x1 PUSH1 0x1 PUSH1 0xA0 SHL SUB DUP6 DUP2 AND PUSH1 0x0 DUP2 DUP2 MSTORE PUSH1 0x7 PUSH1 0x20 MSTORE PUSH1 0x40 DUP1 DUP3 KECCAK256 DUP1 SLOAD PUSH1 0x1 PUSH1 0x1 PUSH1 0xA0 SHL SUB NOT AND DUP10 DUP7 AND SWAP1 DUP2 OR SWAP1 SWAP2 SSTORE SWAP1 MLOAD SWAP5 SWAP6 POP SWAP4 SWAP3 DUP7 AND SWAP3 PUSH32 0x3134E8A2E6D97E929A7E54011EA5485D7D196DD5F0BA4D4EF95803E8E3FC257F SWAP2 SWAP1 LOG4 PUSH2 0x1915 DUP3 DUP5 DUP4 PUSH2 0x3152 JUMP JUMPDEST PUSH1 0x0 DUP1 PUSH32 0x7FFFFFFFFFFFFFFFFFFFFFFFFFFFFFFF5D576E7357A4501DDFE92F46681B20A0 DUP4 GT ISZERO PUSH2 0x24C5 JUMPI POP PUSH1 0x0 SWAP1 POP PUSH1 0x3 PUSH2 0x2572 JUMP JUMPDEST DUP5 PUSH1 0xFF AND PUSH1 0x1B EQ ISZERO DUP1 ISZERO PUSH2 0x24DD JUMPI POP DUP5 PUSH1 0xFF AND PUSH1 0x1C EQ ISZERO JUMPDEST ISZERO PUSH2 0x24EE JUMPI POP PUSH1 0x0 SWAP1 POP PUSH1 0x4 PUSH2 0x2572 JUMP JUMPDEST PUSH1 0x40 DUP1 MLOAD PUSH1 0x0 DUP1 DUP3 MSTORE PUSH1 0x20 DUP3 ADD DUP1 DUP5 MSTORE DUP10 SWAP1 MSTORE PUSH1 0xFF DUP9 AND SWAP3 DUP3 ADD SWAP3 SWAP1 SWAP3 MSTORE PUSH1 0x60 DUP2 ADD DUP7 SWAP1 MSTORE PUSH1 0x80 DUP2 ADD DUP6 SWAP1 MSTORE PUSH1 0x1 SWAP1 PUSH1 0xA0 ADD PUSH1 0x20 PUSH1 0x40 MLOAD PUSH1 0x20 DUP2 SUB SWAP1 DUP1 DUP5 SUB SWAP1 DUP6 GAS STATICCALL ISZERO DUP1 ISZERO PUSH2 0x2542 JUMPI RETURNDATASIZE PUSH1 0x0 DUP1 RETURNDATACOPY RETURNDATASIZE PUSH1 0x0 REVERT JUMPDEST POP POP PUSH1 0x40 MLOAD PUSH1 0x1F NOT ADD MLOAD SWAP2 POP POP PUSH1 0x1 PUSH1 0x1 PUSH1 0xA0 SHL SUB DUP2 AND PUSH2 0x256B JUMPI PUSH1 0x0 PUSH1 0x1 SWAP3 POP SWAP3 POP POP PUSH2 0x2572 JUMP JUMPDEST SWAP2 POP PUSH1 0x0 SWAP1 POP JUMPDEST SWAP5 POP SWAP5 SWAP3 POP POP POP JUMP JUMPDEST PUSH1 0x0 DUP2 PUSH1 0x4 DUP2 GT ISZERO PUSH2 0x258F JUMPI PUSH2 0x258F PUSH2 0x35FA JUMP JUMPDEST EQ ISZERO PUSH2 0x2598 JUMPI POP JUMP JUMPDEST PUSH1 0x1 DUP2 PUSH1 0x4 DUP2 GT ISZERO PUSH2 0x25AC JUMPI PUSH2 0x25AC PUSH2 0x35FA JUMP JUMPDEST EQ ISZERO PUSH2 0x25FA JUMPI PUSH1 0x40 MLOAD PUSH3 0x461BCD PUSH1 0xE5 SHL DUP2 MSTORE PUSH1 0x20 PUSH1 0x4 DUP3 ADD MSTORE PUSH1 0x18 PUSH1 0x24 DUP3 ADD MSTORE PUSH32 0x45434453413A20696E76616C6964207369676E61747572650000000000000000 PUSH1 0x44 DUP3 ADD MSTORE PUSH1 0x64 ADD PUSH2 0x67E JUMP JUMPDEST PUSH1 0x2 DUP2 PUSH1 0x4 DUP2 GT ISZERO PUSH2 0x260E JUMPI PUSH2 0x260E PUSH2 0x35FA JUMP JUMPDEST EQ ISZERO PUSH2 0x265C JUMPI PUSH1 0x40 MLOAD PUSH3 0x461BCD PUSH1 0xE5 SHL DUP2 MSTORE PUSH1 0x20 PUSH1 0x4 DUP3 ADD MSTORE PUSH1 0x1F PUSH1 0x24 DUP3 ADD MSTORE PUSH32 0x45434453413A20696E76616C6964207369676E6174757265206C656E67746800 PUSH1 0x44 DUP3 ADD MSTORE PUSH1 0x64 ADD PUSH2 0x67E JUMP JUMPDEST PUSH1 0x3 DUP2 PUSH1 0x4 DUP2 GT ISZERO PUSH2 0x2670 JUMPI PUSH2 0x2670 PUSH2 0x35FA JUMP JUMPDEST EQ ISZERO PUSH2 0x26C9 JUMPI PUSH1 0x40 MLOAD PUSH3 0x461BCD PUSH1 0xE5 SHL DUP2 MSTORE PUSH1 0x20 PUSH1 0x4 DUP3 ADD MSTORE PUSH1 0x22 PUSH1 0x24 DUP3 ADD MSTORE PUSH32 0x45434453413A20696E76616C6964207369676E6174757265202773272076616C PUSH1 0x44 DUP3 ADD MSTORE PUSH2 0x7565 PUSH1 0xF0 SHL PUSH1 0x64 DUP3 ADD MSTORE PUSH1 0x84 ADD PUSH2 0x67E JUMP JUMPDEST PUSH1 0x4 DUP2 PUSH1 0x4 DUP2 GT ISZERO PUSH2 0x26DD JUMPI PUSH2 0x26DD PUSH2 0x35FA JUMP JUMPDEST EQ ISZERO PUSH2 0xB4E JUMPI PUSH1 0x40 MLOAD PUSH3 0x461BCD PUSH1 0xE5 SHL DUP2 MSTORE PUSH1 0x20 PUSH1 0x4 DUP3 ADD MSTORE PUSH1 0x22 PUSH1 0x24 DUP3 ADD MSTORE PUSH32 0x45434453413A20696E76616C6964207369676E6174757265202776272076616C PUSH1 0x44 DUP3 ADD MSTORE PUSH2 0x7565 PUSH1 0xF0 SHL PUSH1 0x64 DUP3 ADD MSTORE PUSH1 0x84 ADD PUSH2 0x67E JUMP JUMPDEST PUSH1 0x1 PUSH1 0x1 PUSH1 0xA0 SHL SUB DUP3 AND PUSH2 0x278C JUMPI PUSH1 0x40 MLOAD PUSH3 0x461BCD PUSH1 0xE5 SHL DUP2 MSTORE PUSH1 0x20 PUSH1 0x4 DUP3 ADD MSTORE PUSH1 0x1F PUSH1 0x24 DUP3 ADD MSTORE PUSH32 0x45524332303A206D696E7420746F20746865207A65726F206164647265737300 PUSH1 0x44 DUP3 ADD MSTORE PUSH1 0x64 ADD PUSH2 0x67E JUMP JUMPDEST DUP1 PUSH1 0x2 PUSH1 0x0 DUP3 DUP3 SLOAD PUSH2 0x279E SWAP2 SWAP1 PUSH2 0x3571 JUMP JUMPDEST SWAP1 SWAP2 SSTORE POP POP PUSH1 0x1 PUSH1 0x1 PUSH1 0xA0 SHL SUB DUP3 AND PUSH1 0x0 SWAP1 DUP2 MSTORE PUSH1 0x20 DUP2 SWAP1 MSTORE PUSH1 0x40 DUP2 KECCAK256 DUP1 SLOAD DUP4 SWAP3 SWAP1 PUSH2 0x27CB SWAP1 DUP5 SWAP1 PUSH2 0x3571 JUMP JUMPDEST SWAP1 SWAP2 SSTORE POP POP PUSH1 0x40 MLOAD DUP2 DUP2 MSTORE PUSH1 0x1 PUSH1 0x1 PUSH1 0xA0 SHL SUB DUP4 AND SWAP1 PUSH1 0x0 SWAP1 PUSH32 0xDDF252AD1BE2C89B69C2B068FC378DAA952BA7F163C4A11628F55A4DF523B3EF SWAP1 PUSH1 0x20 ADD PUSH1 0x40 MLOAD DUP1 SWAP2 SUB SWAP1 LOG3 PUSH2 0xB99 PUSH1 0x0 DUP4 DUP4 PUSH2 0x2829 JUMP JUMPDEST PUSH1 0x0 PUSH2 0x97E DUP3 DUP5 PUSH2 0x3571 JUMP JUMPDEST PUSH2 0xB89 PUSH2 0x2835 DUP5 PUSH2 0xB26 JUMP JUMPDEST PUSH2 0x283E DUP5 PUSH2 0xB26 JUMP JUMPDEST DUP4 PUSH2 0x3152 JUMP JUMPDEST PUSH1 0x0 PUSH1 0x1 PUSH1 0x1 PUSH1 0xE0 SHL SUB DUP3 GT ISZERO PUSH2 0x1BCF JUMPI PUSH1 0x40 MLOAD PUSH3 0x461BCD PUSH1 0xE5 SHL DUP2 MSTORE PUSH1 0x20 PUSH1 0x4 DUP3 ADD MSTORE PUSH1 0x27 PUSH1 0x24 DUP3 ADD MSTORE PUSH32 0x53616665436173743A2076616C756520646F65736E27742066697420696E2032 PUSH1 0x44 DUP3 ADD MSTORE PUSH7 0x32342062697473 PUSH1 0xC8 SHL PUSH1 0x64 DUP3 ADD MSTORE PUSH1 0x84 ADD PUSH2 0x67E JUMP JUMPDEST PUSH1 0x0 PUSH1 0x1 PUSH1 0x80 SHL DUP3 LT PUSH2 0x28CD JUMPI PUSH1 0x80 SWAP2 DUP3 SHR SWAP2 PUSH2 0x28CA SWAP1 DUP3 PUSH2 0x3571 JUMP JUMPDEST SWAP1 POP JUMPDEST PUSH9 0x10000000000000000 DUP3 LT PUSH2 0x28F0 JUMPI PUSH1 0x40 SWAP2 DUP3 SHR SWAP2 PUSH2 0x28ED SWAP1 DUP3 PUSH2 0x3571 JUMP JUMPDEST SWAP1 POP JUMPDEST PUSH1 0x1 PUSH1 0x20 SHL DUP3 LT PUSH2 0x290E JUMPI PUSH1 0x20 SWAP2 DUP3 SHR SWAP2 PUSH2 0x290B SWAP1 DUP3 PUSH2 0x3571 JUMP JUMPDEST SWAP1 POP JUMPDEST PUSH3 0x10000 DUP3 LT PUSH2 0x292B JUMPI PUSH1 0x10 SWAP2 DUP3 SHR SWAP2 PUSH2 0x2928 SWAP1 DUP3 PUSH2 0x3571 JUMP JUMPDEST SWAP1 POP JUMPDEST PUSH2 0x100 DUP3 LT PUSH2 0x2947 JUMPI PUSH1 0x8 SWAP2 DUP3 SHR SWAP2 PUSH2 0x2944 SWAP1 DUP3 PUSH2 0x3571 JUMP JUMPDEST SWAP1 POP JUMPDEST PUSH1 0x10 DUP3 LT PUSH2 0x2962 JUMPI PUSH1 0x4 SWAP2 DUP3 SHR SWAP2 PUSH2 0x295F SWAP1 DUP3 PUSH2 0x3571 JUMP JUMPDEST SWAP1 POP JUMPDEST PUSH1 0x4 DUP3 LT PUSH2 0x297D JUMPI PUSH1 0x2 SWAP2 DUP3 SHR SWAP2 PUSH2 0x297A SWAP1 DUP3 PUSH2 0x3571 JUMP JUMPDEST SWAP1 POP JUMPDEST PUSH1 0x2 DUP3 LT PUSH2 0x2990 JUMPI PUSH2 0x631 PUSH1 0x1 DUP3 PUSH2 0x3571 JUMP JUMPDEST SWAP2 SWAP1 POP JUMP JUMPDEST PUSH1 0x0 DUP1 DUP1 PUSH1 0x0 NOT DUP5 DUP7 MULMOD DUP5 DUP7 MUL SWAP3 POP DUP3 DUP2 LT DUP4 DUP3 SUB SUB SWAP2 POP POP PUSH8 0xDE0B6B3A7640000 DUP2 LT PUSH2 0x29D9 JUMPI PUSH1 0x40 MLOAD PUSH4 0x698D9A01 PUSH1 0xE1 SHL DUP2 MSTORE PUSH1 0x4 DUP2 ADD DUP3 SWAP1 MSTORE PUSH1 0x24 ADD PUSH2 0x67E JUMP JUMPDEST PUSH1 0x0 DUP1 PUSH8 0xDE0B6B3A7640000 DUP7 DUP9 MULMOD SWAP2 POP POP PUSH8 0x6F05B59D3B1FFFF DUP2 GT DUP3 PUSH2 0x2A13 JUMPI DUP1 PUSH8 0xDE0B6B3A7640000 DUP6 DIV ADD SWAP5 POP POP POP POP POP PUSH2 0x631 JUMP JUMPDEST PUSH3 0x40000 DUP3 DUP6 SUB DIV SWAP4 SWAP1 SWAP2 GT SWAP1 SWAP2 SUB PUSH1 0x1 PUSH1 0xEE SHL MUL SWAP2 SWAP1 SWAP2 OR PUSH32 0xACCB18165BD6FE31AE1CF318DC5B51EEE0E1BA569B88CD74C1773B91FAC10669 MUL ADD SWAP1 POP SWAP3 SWAP2 POP POP JUMP JUMPDEST PUSH1 0x1 PUSH1 0xBF SHL PUSH8 0x8000000000000000 DUP3 AND ISZERO PUSH2 0x2A7B JUMPI PUSH9 0x16A09E667F3BCC909 MUL PUSH1 0x40 SHR JUMPDEST PUSH8 0x4000000000000000 DUP3 AND ISZERO PUSH2 0x2A9A JUMPI PUSH9 0x1306FE0A31B7152DF MUL PUSH1 0x40 SHR JUMPDEST PUSH8 0x2000000000000000 DUP3 AND ISZERO PUSH2 0x2AB9 JUMPI PUSH9 0x1172B83C7D517ADCE MUL PUSH1 0x40 SHR JUMPDEST PUSH8 0x1000000000000000 DUP3 AND ISZERO PUSH2 0x2AD8 JUMPI PUSH9 0x10B5586CF9890F62A MUL PUSH1 0x40 SHR JUMPDEST PUSH8 0x800000000000000 DUP3 AND ISZERO PUSH2 0x2AF7 JUMPI PUSH9 0x1059B0D31585743AE MUL PUSH1 0x40 SHR JUMPDEST PUSH8 0x400000000000000 DUP3 AND ISZERO PUSH2 0x2B16 JUMPI PUSH9 0x102C9A3E778060EE7 MUL PUSH1 0x40 SHR JUMPDEST PUSH8 0x200000000000000 DUP3 AND ISZERO PUSH2 0x2B35 JUMPI PUSH9 0x10163DA9FB33356D8 MUL PUSH1 0x40 SHR JUMPDEST PUSH8 0x100000000000000 DUP3 AND ISZERO PUSH2 0x2B54 JUMPI PUSH9 0x100B1AFA5ABCBED61 MUL PUSH1 0x40 SHR JUMPDEST PUSH7 0x80000000000000 DUP3 AND ISZERO PUSH2 0x2B72 JUMPI PUSH9 0x10058C86DA1C09EA2 MUL PUSH1 0x40 SHR JUMPDEST PUSH7 0x40000000000000 DUP3 AND ISZERO PUSH2 0x2B90 JUMPI PUSH9 0x1002C605E2E8CEC50 MUL PUSH1 0x40 SHR JUMPDEST PUSH7 0x20000000000000 DUP3 AND ISZERO PUSH2 0x2BAE JUMPI PUSH9 0x100162F3904051FA1 MUL PUSH1 0x40 SHR JUMPDEST PUSH7 0x10000000000000 DUP3 AND ISZERO PUSH2 0x2BCC JUMPI PUSH9 0x1000B175EFFDC76BA MUL PUSH1 0x40 SHR JUMPDEST PUSH7 0x8000000000000 DUP3 AND ISZERO PUSH2 0x2BEA JUMPI PUSH9 0x100058BA01FB9F96D MUL PUSH1 0x40 SHR JUMPDEST PUSH7 0x4000000000000 DUP3 AND ISZERO PUSH2 0x2C08 JUMPI PUSH9 0x10002C5CC37DA9492 MUL PUSH1 0x40 SHR JUMPDEST PUSH7 0x2000000000000 DUP3 AND ISZERO PUSH2 0x2C26 JUMPI PUSH9 0x1000162E525EE0547 MUL PUSH1 0x40 SHR JUMPDEST PUSH7 0x1000000000000 DUP3 AND ISZERO PUSH2 0x2C44 JUMPI PUSH9 0x10000B17255775C04 MUL PUSH1 0x40 SHR JUMPDEST PUSH6 0x800000000000 DUP3 AND ISZERO PUSH2 0x2C61 JUMPI PUSH9 0x1000058B91B5BC9AE MUL PUSH1 0x40 SHR JUMPDEST PUSH6 0x400000000000 DUP3 AND ISZERO PUSH2 0x2C7E JUMPI PUSH9 0x100002C5C89D5EC6D MUL PUSH1 0x40 SHR JUMPDEST PUSH6 0x200000000000 DUP3 AND ISZERO PUSH2 0x2C9B JUMPI PUSH9 0x10000162E43F4F831 MUL PUSH1 0x40 SHR JUMPDEST PUSH6 0x100000000000 DUP3 AND ISZERO PUSH2 0x2CB8 JUMPI PUSH9 0x100000B1721BCFC9A MUL PUSH1 0x40 SHR JUMPDEST PUSH6 0x80000000000 DUP3 AND ISZERO PUSH2 0x2CD5 JUMPI PUSH9 0x10000058B90CF1E6E MUL PUSH1 0x40 SHR JUMPDEST PUSH6 0x40000000000 DUP3 AND ISZERO PUSH2 0x2CF2 JUMPI PUSH9 0x1000002C5C863B73F MUL PUSH1 0x40 SHR JUMPDEST PUSH6 0x20000000000 DUP3 AND ISZERO PUSH2 0x2D0F JUMPI PUSH9 0x100000162E430E5A2 MUL PUSH1 0x40 SHR JUMPDEST PUSH6 0x10000000000 DUP3 AND ISZERO PUSH2 0x2D2C JUMPI PUSH9 0x1000000B172183551 MUL PUSH1 0x40 SHR JUMPDEST PUSH5 0x8000000000 DUP3 AND ISZERO PUSH2 0x2D48 JUMPI PUSH9 0x100000058B90C0B49 MUL PUSH1 0x40 SHR JUMPDEST PUSH5 0x4000000000 DUP3 AND ISZERO PUSH2 0x2D64 JUMPI PUSH9 0x10000002C5C8601CC MUL PUSH1 0x40 SHR JUMPDEST PUSH5 0x2000000000 DUP3 AND ISZERO PUSH2 0x2D80 JUMPI PUSH9 0x1000000162E42FFF0 MUL PUSH1 0x40 SHR JUMPDEST PUSH5 0x1000000000 DUP3 AND ISZERO PUSH2 0x2D9C JUMPI PUSH9 0x10000000B17217FBB MUL PUSH1 0x40 SHR JUMPDEST PUSH5 0x800000000 DUP3 AND ISZERO PUSH2 0x2DB8 JUMPI PUSH9 0x1000000058B90BFCE MUL PUSH1 0x40 SHR JUMPDEST PUSH5 0x400000000 DUP3 AND ISZERO PUSH2 0x2DD4 JUMPI PUSH9 0x100000002C5C85FE3 MUL PUSH1 0x40 SHR JUMPDEST PUSH5 0x200000000 DUP3 AND ISZERO PUSH2 0x2DF0 JUMPI PUSH9 0x10000000162E42FF1 MUL PUSH1 0x40 SHR JUMPDEST PUSH1 0x1 PUSH1 0x20 SHL DUP3 AND ISZERO PUSH2 0x2E0B JUMPI PUSH9 0x100000000B17217F8 MUL PUSH1 0x40 SHR JUMPDEST PUSH4 0x80000000 DUP3 AND ISZERO PUSH2 0x2E26 JUMPI PUSH9 0x10000000058B90BFC MUL PUSH1 0x40 SHR JUMPDEST PUSH4 0x40000000 DUP3 AND ISZERO PUSH2 0x2E41 JUMPI PUSH9 0x1000000002C5C85FE MUL PUSH1 0x40 SHR JUMPDEST PUSH4 0x20000000 DUP3 AND ISZERO PUSH2 0x2E5C JUMPI PUSH9 0x100000000162E42FF MUL PUSH1 0x40 SHR JUMPDEST PUSH4 0x10000000 DUP3 AND ISZERO PUSH2 0x2E77 JUMPI PUSH9 0x1000000000B17217F MUL PUSH1 0x40 SHR JUMPDEST PUSH4 0x8000000 DUP3 AND ISZERO PUSH2 0x2E92 JUMPI PUSH9 0x100000000058B90C0 MUL PUSH1 0x40 SHR JUMPDEST PUSH4 0x4000000 DUP3 AND ISZERO PUSH2 0x2EAD JUMPI PUSH9 0x10000000002C5C860 MUL PUSH1 0x40 SHR JUMPDEST PUSH4 0x2000000 DUP3 AND ISZERO PUSH2 0x2EC8 JUMPI PUSH9 0x1000000000162E430 MUL PUSH1 0x40 SHR JUMPDEST PUSH4 0x1000000 DUP3 AND ISZERO PUSH2 0x2EE3 JUMPI PUSH9 0x10000000000B17218 MUL PUSH1 0x40 SHR JUMPDEST PUSH3 0x800000 DUP3 AND ISZERO PUSH2 0x2EFD JUMPI PUSH9 0x1000000000058B90C MUL PUSH1 0x40 SHR JUMPDEST PUSH3 0x400000 DUP3 AND ISZERO PUSH2 0x2F17 JUMPI PUSH9 0x100000000002C5C86 MUL PUSH1 0x40 SHR JUMPDEST PUSH3 0x200000 DUP3 AND ISZERO PUSH2 0x2F31 JUMPI PUSH9 0x10000000000162E43 MUL PUSH1 0x40 SHR JUMPDEST PUSH3 0x100000 DUP3 AND ISZERO PUSH2 0x2F4B JUMPI PUSH9 0x100000000000B1721 MUL PUSH1 0x40 SHR JUMPDEST PUSH3 0x80000 DUP3 AND ISZERO PUSH2 0x2F65 JUMPI PUSH9 0x10000000000058B91 MUL PUSH1 0x40 SHR JUMPDEST PUSH3 0x40000 DUP3 AND ISZERO PUSH2 0x2F7F JUMPI PUSH9 0x1000000000002C5C8 MUL PUSH1 0x40 SHR JUMPDEST PUSH3 0x20000 DUP3 AND ISZERO PUSH2 0x2F99 JUMPI PUSH9 0x100000000000162E4 MUL PUSH1 0x40 SHR JUMPDEST PUSH3 0x10000 DUP3 AND ISZERO PUSH2 0x2FB3 JUMPI PUSH9 0x1000000000000B172 MUL PUSH1 0x40 SHR JUMPDEST PUSH2 0x8000 DUP3 AND ISZERO PUSH2 0x2FCC JUMPI PUSH9 0x100000000000058B9 MUL PUSH1 0x40 SHR JUMPDEST PUSH2 0x4000 DUP3 AND ISZERO PUSH2 0x2FE5 JUMPI PUSH9 0x10000000000002C5D MUL PUSH1 0x40 SHR JUMPDEST PUSH2 0x2000 DUP3 AND ISZERO PUSH2 0x2FFE JUMPI PUSH9 0x1000000000000162E MUL PUSH1 0x40 SHR JUMPDEST PUSH2 0x1000 DUP3 AND ISZERO PUSH2 0x3017 JUMPI PUSH9 0x10000000000000B17 MUL PUSH1 0x40 SHR JUMPDEST PUSH2 0x800 DUP3 AND ISZERO PUSH2 0x3030 JUMPI PUSH9 0x1000000000000058C MUL PUSH1 0x40 SHR JUMPDEST PUSH2 0x400 DUP3 AND ISZERO PUSH2 0x3049 JUMPI PUSH9 0x100000000000002C6 MUL PUSH1 0x40 SHR JUMPDEST PUSH2 0x200 DUP3 AND ISZERO PUSH2 0x3062 JUMPI PUSH9 0x10000000000000163 MUL PUSH1 0x40 SHR JUMPDEST PUSH2 0x100 DUP3 AND ISZERO PUSH2 0x307B JUMPI PUSH9 0x100000000000000B1 MUL PUSH1 0x40 SHR JUMPDEST PUSH1 0x80 DUP3 AND ISZERO PUSH2 0x3093 JUMPI PUSH9 0x10000000000000059 MUL PUSH1 0x40 SHR JUMPDEST PUSH1 0x40 DUP3 AND ISZERO PUSH2 0x30AB JUMPI PUSH9 0x1000000000000002C MUL PUSH1 0x40 SHR JUMPDEST PUSH1 0x20 DUP3 AND ISZERO PUSH2 0x30C3 JUMPI PUSH9 0x10000000000000016 MUL PUSH1 0x40 SHR JUMPDEST PUSH1 0x10 DUP3 AND ISZERO PUSH2 0x30DB JUMPI PUSH9 0x1000000000000000B MUL PUSH1 0x40 SHR JUMPDEST PUSH1 0x8 DUP3 AND ISZERO PUSH2 0x30F3 JUMPI PUSH9 0x10000000000000006 MUL PUSH1 0x40 SHR JUMPDEST PUSH1 0x4 DUP3 AND ISZERO PUSH2 0x310B JUMPI PUSH9 0x10000000000000003 MUL PUSH1 0x40 SHR JUMPDEST PUSH1 0x2 DUP3 AND ISZERO PUSH2 0x3123 JUMPI PUSH9 0x10000000000000001 MUL PUSH1 0x40 SHR JUMPDEST PUSH1 0x1 DUP3 AND ISZERO PUSH2 0x313B JUMPI PUSH9 0x10000000000000001 MUL PUSH1 0x40 SHR JUMPDEST PUSH8 0xDE0B6B3A7640000 MUL PUSH1 0x40 SWAP2 SWAP1 SWAP2 SHR PUSH1 0xBF SUB SHR SWAP1 JUMP JUMPDEST DUP2 PUSH1 0x1 PUSH1 0x1 PUSH1 0xA0 SHL SUB AND DUP4 PUSH1 0x1 PUSH1 0x1 PUSH1 0xA0 SHL SUB AND EQ ISZERO DUP1 ISZERO PUSH2 0x3174 JUMPI POP PUSH1 0x0 DUP2 GT JUMPDEST ISZERO PUSH2 0xB89 JUMPI PUSH1 0x1 PUSH1 0x1 PUSH1 0xA0 SHL SUB DUP4 AND ISZERO PUSH2 0x3202 JUMPI PUSH1 0x1 PUSH1 0x1 PUSH1 0xA0 SHL SUB DUP4 AND PUSH1 0x0 SWAP1 DUP2 MSTORE PUSH1 0x8 PUSH1 0x20 MSTORE PUSH1 0x40 DUP2 KECCAK256 DUP2 SWAP1 PUSH2 0x31AF SWAP1 PUSH2 0x2158 DUP6 PUSH2 0x2164 JUMP JUMPDEST SWAP2 POP SWAP2 POP DUP5 PUSH1 0x1 PUSH1 0x1 PUSH1 0xA0 SHL SUB AND PUSH32 0xDEC2BACDD2F05B59DE34DA9B523DFF8BE42E5E38E818C82FDB0BAE774387A724 DUP4 DUP4 PUSH1 0x40 MLOAD PUSH2 0x31F7 SWAP3 SWAP2 SWAP1 SWAP2 DUP3 MSTORE PUSH1 0x20 DUP3 ADD MSTORE PUSH1 0x40 ADD SWAP1 JUMP JUMPDEST PUSH1 0x40 MLOAD DUP1 SWAP2 SUB SWAP1 LOG2 POP POP JUMPDEST PUSH1 0x1 PUSH1 0x1 PUSH1 0xA0 SHL SUB DUP3 AND ISZERO PUSH2 0xB89 JUMPI PUSH1 0x1 PUSH1 0x1 PUSH1 0xA0 SHL SUB DUP3 AND PUSH1 0x0 SWAP1 DUP2 MSTORE PUSH1 0x8 PUSH1 0x20 MSTORE PUSH1 0x40 DUP2 KECCAK256 DUP2 SWAP1 PUSH2 0x3238 SWAP1 PUSH2 0x281D DUP6 PUSH2 0x2164 JUMP JUMPDEST SWAP2 POP SWAP2 POP DUP4 PUSH1 0x1 PUSH1 0x1 PUSH1 0xA0 SHL SUB AND PUSH32 0xDEC2BACDD2F05B59DE34DA9B523DFF8BE42E5E38E818C82FDB0BAE774387A724 DUP4 DUP4 PUSH1 0x40 MLOAD PUSH2 0x8CB SWAP3 SWAP2 SWAP1 SWAP2 DUP3 MSTORE PUSH1 0x20 DUP3 ADD MSTORE PUSH1 0x40 ADD SWAP1 JUMP JUMPDEST DUP1 CALLDATALOAD PUSH1 0x1 PUSH1 0x1 PUSH1 0xA0 SHL SUB DUP2 AND DUP2 EQ PUSH2 0x2990 JUMPI PUSH1 0x0 DUP1 REVERT JUMPDEST PUSH1 0x0 PUSH1 0x20 DUP3 DUP5 SUB SLT ISZERO PUSH2 0x32A9 JUMPI PUSH1 0x0 DUP1 REVERT JUMPDEST PUSH2 0x97E DUP3 PUSH2 0x3280 JUMP JUMPDEST PUSH1 0x0 PUSH1 0x20 DUP1 DUP4 MSTORE DUP4 MLOAD DUP1 DUP3 DUP6 ADD MSTORE PUSH1 0x0 JUMPDEST DUP2 DUP2 LT ISZERO PUSH2 0x32DF JUMPI DUP6 DUP2 ADD DUP4 ADD MLOAD DUP6 DUP3 ADD PUSH1 0x40 ADD MSTORE DUP3 ADD PUSH2 0x32C3 JUMP JUMPDEST DUP2 DUP2 GT ISZERO PUSH2 0x32F1 JUMPI PUSH1 0x0 PUSH1 0x40 DUP4 DUP8 ADD ADD MSTORE JUMPDEST POP PUSH1 0x1F ADD PUSH1 0x1F NOT AND SWAP3 SWAP1 SWAP3 ADD PUSH1 0x40 ADD SWAP4 SWAP3 POP POP POP JUMP JUMPDEST PUSH1 0x0 DUP1 PUSH1 0x40 DUP4 DUP6 SUB SLT ISZERO PUSH2 0x331A JUMPI PUSH1 0x0 DUP1 REVERT JUMPDEST PUSH2 0x3323 DUP4 PUSH2 0x3280 JUMP JUMPDEST SWAP5 PUSH1 0x20 SWAP4 SWAP1 SWAP4 ADD CALLDATALOAD SWAP4 POP POP POP JUMP JUMPDEST PUSH1 0x0 DUP1 PUSH1 0x0 PUSH1 0x60 DUP5 DUP7 SUB SLT ISZERO PUSH2 0x3346 JUMPI PUSH1 0x0 DUP1 REVERT JUMPDEST PUSH2 0x334F DUP5 PUSH2 0x3280 JUMP JUMPDEST SWAP3 POP PUSH2 0x335D PUSH1 0x20 DUP6 ADD PUSH2 0x3280 JUMP JUMPDEST SWAP2 POP PUSH1 0x40 DUP5 ADD CALLDATALOAD SWAP1 POP SWAP3 POP SWAP3 POP SWAP3 JUMP JUMPDEST PUSH1 0x0 PUSH1 0x20 DUP3 DUP5 SUB SLT ISZERO PUSH2 0x337F JUMPI PUSH1 0x0 DUP1 REVERT JUMPDEST POP CALLDATALOAD SWAP2 SWAP1 POP JUMP JUMPDEST PUSH1 0x0 DUP1 PUSH1 0x40 DUP4 DUP6 SUB SLT ISZERO PUSH2 0x3399 JUMPI PUSH1 0x0 DUP1 REVERT JUMPDEST POP POP DUP1 CALLDATALOAD SWAP3 PUSH1 0x20 SWAP1 SWAP2 ADD CALLDATALOAD SWAP2 POP JUMP JUMPDEST PUSH1 0x0 DUP1 PUSH1 0x0 PUSH1 0x60 DUP5 DUP7 SUB SLT ISZERO PUSH2 0x33BD JUMPI PUSH1 0x0 DUP1 REVERT JUMPDEST DUP4 CALLDATALOAD SWAP3 POP PUSH1 0x20 DUP5 ADD CALLDATALOAD SWAP2 POP PUSH2 0x33D4 PUSH1 0x40 DUP6 ADD PUSH2 0x3280 JUMP JUMPDEST SWAP1 POP SWAP3 POP SWAP3 POP SWAP3 JUMP JUMPDEST DUP1 CALLDATALOAD PUSH1 0xFF DUP2 AND DUP2 EQ PUSH2 0x2990 JUMPI PUSH1 0x0 DUP1 REVERT JUMPDEST PUSH1 0x0 DUP1 PUSH1 0x0 DUP1 PUSH1 0x0 DUP1 PUSH1 0xC0 DUP8 DUP10 SUB SLT ISZERO PUSH2 0x3407 JUMPI PUSH1 0x0 DUP1 REVERT JUMPDEST PUSH2 0x3410 DUP8 PUSH2 0x3280 JUMP JUMPDEST SWAP6 POP PUSH1 0x20 DUP8 ADD CALLDATALOAD SWAP5 POP PUSH1 0x40 DUP8 ADD CALLDATALOAD SWAP4 POP PUSH2 0x342C PUSH1 0x60 DUP9 ADD PUSH2 0x33DD JUMP JUMPDEST SWAP3 POP PUSH1 0x80 DUP8 ADD CALLDATALOAD SWAP2 POP PUSH1 0xA0 DUP8 ADD CALLDATALOAD SWAP1 POP SWAP3 SWAP6 POP SWAP3 SWAP6 POP SWAP3 SWAP6 JUMP JUMPDEST PUSH1 0x0 DUP1 PUSH1 0x0 DUP1 PUSH1 0x0 DUP1 PUSH1 0x0 PUSH1 0xE0 DUP9 DUP11 SUB SLT ISZERO PUSH2 0x3461 JUMPI PUSH1 0x0 DUP1 REVERT JUMPDEST PUSH2 0x346A DUP9 PUSH2 0x3280 JUMP JUMPDEST SWAP7 POP PUSH2 0x3478 PUSH1 0x20 DUP10 ADD PUSH2 0x3280 JUMP JUMPDEST SWAP6 POP PUSH1 0x40 DUP9 ADD CALLDATALOAD SWAP5 POP PUSH1 0x60 DUP9 ADD CALLDATALOAD SWAP4 POP PUSH2 0x3494 PUSH1 0x80 DUP10 ADD PUSH2 0x33DD JUMP JUMPDEST SWAP3 POP PUSH1 0xA0 DUP9 ADD CALLDATALOAD SWAP2 POP PUSH1 0xC0 DUP9 ADD CALLDATALOAD SWAP1 POP SWAP3 SWAP6 SWAP9 SWAP2 SWAP5 SWAP8 POP SWAP3 SWAP6 POP JUMP JUMPDEST PUSH1 0x0 DUP1 PUSH1 0x40 DUP4 DUP6 SUB SLT ISZERO PUSH2 0x34C3 JUMPI PUSH1 0x0 DUP1 REVERT JUMPDEST PUSH2 0x34CC DUP4 PUSH2 0x3280 JUMP JUMPDEST SWAP2 POP PUSH2 0x34DA PUSH1 0x20 DUP5 ADD PUSH2 0x3280 JUMP JUMPDEST SWAP1 POP SWAP3 POP SWAP3 SWAP1 POP JUMP JUMPDEST PUSH1 0x0 DUP1 PUSH1 0x40 DUP4 DUP6 SUB SLT ISZERO PUSH2 0x34F6 JUMPI PUSH1 0x0 DUP1 REVERT JUMPDEST PUSH2 0x34FF DUP4 PUSH2 0x3280 JUMP JUMPDEST SWAP2 POP PUSH1 0x20 DUP4 ADD CALLDATALOAD PUSH4 0xFFFFFFFF DUP2 AND DUP2 EQ PUSH2 0x3518 JUMPI PUSH1 0x0 DUP1 REVERT JUMPDEST DUP1 SWAP2 POP POP SWAP3 POP SWAP3 SWAP1 POP JUMP JUMPDEST PUSH4 0x4E487B71 PUSH1 0xE0 SHL PUSH1 0x0 MSTORE PUSH1 0x32 PUSH1 0x4 MSTORE PUSH1 0x24 PUSH1 0x0 REVERT JUMPDEST PUSH1 0x0 PUSH1 0x20 DUP3 DUP5 SUB SLT ISZERO PUSH2 0x354B JUMPI PUSH1 0x0 DUP1 REVERT JUMPDEST DUP2 MLOAD DUP1 ISZERO ISZERO DUP2 EQ PUSH2 0x97E JUMPI PUSH1 0x0 DUP1 REVERT JUMPDEST PUSH4 0x4E487B71 PUSH1 0xE0 SHL PUSH1 0x0 MSTORE PUSH1 0x11 PUSH1 0x4 MSTORE PUSH1 0x24 PUSH1 0x0 REVERT JUMPDEST PUSH1 0x0 DUP3 NOT DUP3 GT ISZERO PUSH2 0x3584 JUMPI PUSH2 0x3584 PUSH2 0x355B JUMP JUMPDEST POP ADD SWAP1 JUMP JUMPDEST PUSH1 0x0 DUP3 DUP3 LT ISZERO PUSH2 0x359B JUMPI PUSH2 0x359B PUSH2 0x355B JUMP JUMPDEST POP SUB SWAP1 JUMP JUMPDEST PUSH1 0x0 DUP2 PUSH1 0x0 NOT DIV DUP4 GT DUP3 ISZERO ISZERO AND ISZERO PUSH2 0x35BA JUMPI PUSH2 0x35BA PUSH2 0x355B JUMP JUMPDEST POP MUL SWAP1 JUMP JUMPDEST PUSH1 0x0 DUP3 PUSH2 0x35DC JUMPI PUSH4 0x4E487B71 PUSH1 0xE0 SHL PUSH1 0x0 MSTORE PUSH1 0x12 PUSH1 0x4 MSTORE PUSH1 0x24 PUSH1 0x0 REVERT JUMPDEST POP DIV SWAP1 JUMP JUMPDEST PUSH1 0x0 PUSH1 0x20 DUP3 DUP5 SUB SLT ISZERO PUSH2 0x35F3 JUMPI PUSH1 0x0 DUP1 REVERT JUMPDEST POP MLOAD SWAP2 SWAP1 POP JUMP JUMPDEST PUSH4 0x4E487B71 PUSH1 0xE0 SHL PUSH1 0x0 MSTORE PUSH1 0x21 PUSH1 0x4 MSTORE PUSH1 0x24 PUSH1 0x0 REVERT INVALID JUMP PUSH16 0x746520457363726F776564204F726967 PUSH10 0x6E204465466920476F76 PUSH6 0x726E616E6365 LOG2 PUSH5 0x6970667358 0x22 SLT KECCAK256 MSTORE 0xE0 SUB PUSH14 0x25753BD4E3F0803F1B01360A091A MULMOD PUSH26 0x3150FD8DABB2CE5802DBBF7B64736F6C634300080A0033000000 ","sha1":"b66d6e875e1b9c1a5551d1d659b2c93f51d33151","source":"// SPDX-License-Identifier: MIT\npragma solidity 0.8.10;\nimport {ERC20Votes} from \"OpenZeppelin/openzeppelin-contracts@4.6.0/contracts/token/ERC20/extensions/ERC20Votes.sol\";\nimport {ERC20Permit} from \"OpenZeppelin/openzeppelin-contracts@4.6.0/contracts/token/ERC20/extensions/draft-ERC20Permit.sol\";\nimport {ERC20} from \"OpenZeppelin/openzeppelin-contracts@4.6.0/contracts/token/ERC20/ERC20.sol\";\nimport {PRBMathUD60x18} from \"paulrberg/prb-math@2.5.0/contracts/PRBMathUD60x18.sol\";\nimport {RewardsSource} from \"./RewardsSource.sol\";\n\n/// @title OGV Staking\n/// @author Daniel Von Fange\n/// @notice Provides staking, vote power history, vote delegation, and rewards\n/// distribution.\n///\n/// The balance received for staking (and thus the voting power and rewards\n/// distribution) goes up exponentially by the end of the staked period.\ncontract OgvStaking is ERC20Votes {\n    // 1. Core Storage\n    uint256 public immutable epoch; // timestamp\n    uint256 public immutable minStakeDuration; // in seconds\n\n    // 2. Staking and Lockup Storage\n    uint256 constant YEAR_BASE = 18e17;\n    struct Lockup {\n        uint128 amount;\n        uint128 end;\n        uint256 points;\n    }\n    mapping(address => Lockup[]) public lockups;\n\n    // 3. Reward Storage\n    ERC20 public immutable ogv; // Must not allow reentrancy\n    RewardsSource public immutable rewardsSource;\n    mapping(address => uint256) public rewardDebtPerShare;\n    uint256 public accRewardPerShare; // As of the start of the block\n\n    // Used to track any calls to `delegate()` method. When this isn't\n    // set to true, voting powers are delegated to the receiver of the stake\n    // when `stake()` or `extend()` method are called. \n    // For existing stakers with delegation set, This will remain `false` \n    // unless the user calls `delegate()` method.\n    mapping(address => bool) public hasDelegationSet;\n\n    // Events\n    event Stake(\n        address indexed user,\n        uint256 lockupId,\n        uint256 amount,\n        uint256 end,\n        uint256 points\n    );\n    event Unstake(\n        address indexed user,\n        uint256 lockupId,\n        uint256 amount,\n        uint256 end,\n        uint256 points\n    );\n    event Reward(address indexed user, uint256 amount);\n\n    // 1. Core Functions\n\n    constructor(\n        address ogv_,\n        uint256 epoch_,\n        uint256 minStakeDuration_,\n        address rewardsSource_\n    ) ERC20(\"\", \"\") ERC20Permit(\"veOGV\") {\n        ogv = ERC20(ogv_);\n        epoch = epoch_;\n        minStakeDuration = minStakeDuration_;\n        rewardsSource = RewardsSource(rewardsSource_);\n    }\n\n    function name() public pure override returns (string memory) {\n        return \"Vote Escrowed Origin DeFi Governance\";\n    }\n\n    function symbol() public pure override returns (string memory) {\n        return \"veOGV\";\n    }\n\n    function transfer(address, uint256) public override returns (bool) {\n        revert(\"Staking: Transfers disabled\");\n    }\n\n    function transferFrom(\n        address,\n        address,\n        uint256\n    ) public override returns (bool) {\n        revert(\"Staking: Transfers disabled\");\n    }\n\n    // 2. Staking and Lockup Functions\n\n    /// @notice Stake OGV to an address that may not be the same as the\n    /// sender of the funds. This can be used to give staked funds to someone\n    /// else.\n    ///\n    /// If staking before the start of staking (epoch), then the lockup start\n    /// and end dates are shifted forward so that the lockup starts at the\n    /// epoch.\n    ///\n    /// Any rewards previously earned will be paid out.\n    ///\n    /// @param amount OGV to lockup in the stake\n    /// @param duration in seconds for the stake\n    /// @param to address to receive ownership of the stake\n    function stake(\n        uint256 amount,\n        uint256 duration,\n        address to\n    ) external {\n        _stake(amount, duration, to);\n    }\n\n    /// @notice Stake OGV\n    ///\n    /// If staking before the start of staking (epoch), then the lockup start\n    /// and end dates are shifted forward so that the lockup starts at the\n    /// epoch.\n    ///\n    /// Any rewards previously earned will be paid out.\n    ///\n    /// @notice Stake OGV for myself.\n    /// @param amount OGV to lockup in the stake\n    /// @param duration in seconds for the stake\n    function stake(uint256 amount, uint256 duration) external {\n        _stake(amount, duration, msg.sender);\n    }\n\n    /// @dev Internal method used for public staking\n    /// @param amount OGV to lockup in the stake\n    /// @param duration in seconds for the stake\n    /// @param to address to receive ownership of the stake\n    function _stake(\n        uint256 amount,\n        uint256 duration,\n        address to\n    ) internal {\n        require(to != address(0), \"Staking: To the zero address\");\n        require(amount <= type(uint128).max, \"Staking: Too much\");\n        require(amount > 0, \"Staking: Not enough\");\n\n        // duration checked inside previewPoints\n        (uint256 points, uint256 end) = previewPoints(amount, duration);\n        require(\n            points + totalSupply() <= type(uint192).max,\n            \"Staking: Max points exceeded\"\n        );\n        _collectRewards(to);\n        lockups[to].push(\n            Lockup({\n                amount: uint128(amount), // max checked in require above\n                end: uint128(end),\n                points: points\n            })\n        );\n        _mint(to, points);\n        ogv.transferFrom(msg.sender, address(this), amount); // Important that it's sender\n\n        if (!hasDelegationSet[to] && delegates(to) == address(0)) {\n            // Delegate voting power to the receiver, if unregistered\n            _delegate(to, to);\n        }\n\n        emit Stake(to, lockups[to].length - 1, amount, end, points);\n    }\n\n    /// @notice Collect staked OGV for a lockup and any earned rewards.\n    /// @param lockupId the id of the lockup to unstake\n    function unstake(uint256 lockupId) external {\n        Lockup memory lockup = lockups[msg.sender][lockupId];\n        uint256 amount = lockup.amount;\n        uint256 end = lockup.end;\n        uint256 points = lockup.points;\n        require(block.timestamp >= end, \"Staking: End of lockup not reached\");\n        require(end != 0, \"Staking: Already unstaked this lockup\");\n        _collectRewards(msg.sender);\n        delete lockups[msg.sender][lockupId]; // Keeps empty in array, so indexes are stable\n        _burn(msg.sender, points);\n        ogv.transfer(msg.sender, amount);\n        emit Unstake(msg.sender, lockupId, amount, end, points);\n    }\n\n    /// @notice Extend a stake lockup for additional points.\n    ///\n    /// The stake end time is computed from the current time + duration, just\n    /// like it is for new stakes. So a new stake for seven days duration and\n    /// an old stake extended with a seven days duration would have the same\n    /// end.\n    ///\n    /// If an extend is made before the start of staking, the start time for\n    /// the new stake is shifted forwards to the start of staking, which also\n    /// shifts forward the end date.\n    ///\n    /// @param lockupId the id of the old lockup to extend\n    /// @param duration number of seconds from now to stake for\n    function extend(uint256 lockupId, uint256 duration) external {\n        // duration checked inside previewPoints\n        _collectRewards(msg.sender);\n        Lockup memory lockup = lockups[msg.sender][lockupId];\n        uint256 oldAmount = lockup.amount;\n        uint256 oldEnd = lockup.end;\n        uint256 oldPoints = lockup.points;\n        (uint256 newPoints, uint256 newEnd) = previewPoints(\n            oldAmount,\n            duration\n        );\n        require(newEnd > oldEnd, \"Staking: New lockup must be longer\");\n        lockup.end = uint128(newEnd);\n        lockup.points = newPoints;\n        lockups[msg.sender][lockupId] = lockup;\n        _mint(msg.sender, newPoints - oldPoints);\n        if (!hasDelegationSet[msg.sender] && delegates(msg.sender) == address(0)) {\n            // Delegate voting power to the receiver, if unregistered\n            _delegate(msg.sender, msg.sender);\n        }\n        emit Unstake(msg.sender, lockupId, oldAmount, oldEnd, oldPoints);\n        emit Stake(msg.sender, lockupId, oldAmount, newEnd, newPoints);\n    }\n\n    /// @notice Preview the number of points that would be returned for the\n    /// given amount and duration.\n    ///\n    /// @param amount OGV to be staked\n    /// @param duration number of seconds to stake for\n    /// @return points staking points that would be returned\n    /// @return end staking period end date\n    function previewPoints(uint256 amount, uint256 duration)\n        public\n        view\n        returns (uint256, uint256)\n    {\n        require(duration >= minStakeDuration, \"Staking: Too short\");\n        require(duration <= 1461 days, \"Staking: Too long\");\n        uint256 start = block.timestamp > epoch ? block.timestamp : epoch;\n        uint256 end = start + duration;\n        uint256 endYearpoc = ((end - epoch) * 1e18) / 365 days;\n        uint256 multiplier = PRBMathUD60x18.pow(YEAR_BASE, endYearpoc);\n        return ((amount * multiplier) / 1e18, end);\n    }\n\n    // 3. Reward functions\n\n    /// @notice Collect all earned OGV rewards.\n    function collectRewards() external {\n        _collectRewards(msg.sender);\n    }\n\n    /// @notice Shows the amount of OGV a user would receive if they collected\n    /// rewards at this time.\n    ///\n    /// @param user to preview rewards for\n    /// @return OGV rewards amount\n    function previewRewards(address user) external view returns (uint256) {\n        uint256 supply = totalSupply();\n        if (supply == 0) {\n            return 0; // No one has any points to even get rewards\n        }\n        uint256 _accRewardPerShare = accRewardPerShare;\n        _accRewardPerShare += (rewardsSource.previewRewards() * 1e12) / supply;\n        uint256 netRewardsPerShare = _accRewardPerShare -\n            rewardDebtPerShare[user];\n        return (balanceOf(user) * netRewardsPerShare) / 1e12;\n    }\n\n    /// @dev Internal function to handle rewards accounting.\n    ///\n    /// 1. Collect new rewards for everyone\n    /// 2. Calculate this user's rewards and accounting\n    /// 3. Distribute this user's rewards\n    ///\n    /// This function *must* be called before any user balance changes.\n    ///\n    /// This will always update the user's rewardDebtPerShare to match\n    /// accRewardPerShare, which is essential to the accounting.\n    ///\n    /// @param user to collect rewards for\n    function _collectRewards(address user) internal {\n        uint256 supply = totalSupply();\n        if (supply > 0) {\n            uint256 preBalance = ogv.balanceOf(address(this));\n            try rewardsSource.collectRewards() {} catch {\n                // Governance staking should continue, even if rewards fail\n            }\n            uint256 collected = ogv.balanceOf(address(this)) - preBalance;\n            accRewardPerShare += (collected * 1e12) / supply;\n        }\n        uint256 netRewardsPerShare = accRewardPerShare -\n            rewardDebtPerShare[user];\n        uint256 netRewards = (balanceOf(user) * netRewardsPerShare) / 1e12;\n        rewardDebtPerShare[user] = accRewardPerShare;\n        if (netRewards == 0) {\n            return;\n        }\n        ogv.transfer(user, netRewards);\n        emit Reward(user, netRewards);\n    }\n\n    /**\n     * @dev Change delegation for `delegator` to `delegatee`.\n     *\n     * Emits events {DelegateChanged} and {DelegateVotesChanged}.\n     */\n    function _delegate(address delegator, address delegatee) internal override {\n        hasDelegationSet[delegator] = true;\n        super._delegate(delegator, delegatee);\n    }\n}\n","sourcePath":"contracts/OgvStaking.sol","type":"contract","deployment":{"address":"0xFd8e7DAcC16c3807E66FEdD4F7c65f26B1fEE558","chainid":"1","blockHeight":18627533}}