{"abi":[{"inputs":[],"stateMutability":"nonpayable","type":"constructor","name":"constructor"},{"anonymous":false,"inputs":[{"indexed":false,"internalType":"address","name":"previousAdmin","type":"address"},{"indexed":false,"internalType":"address","name":"newAdmin","type":"address"}],"name":"AdminChanged","type":"event"},{"anonymous":false,"inputs":[{"indexed":true,"internalType":"address","name":"beacon","type":"address"}],"name":"BeaconUpgraded","type":"event"},{"anonymous":false,"inputs":[{"indexed":true,"internalType":"address","name":"provider","type":"address"},{"indexed":false,"internalType":"int128","name":"amount","type":"int128"},{"indexed":false,"internalType":"uint256","name":"end","type":"uint256"},{"indexed":false,"internalType":"uint256","name":"ts","type":"uint256"}],"name":"LockupCreated","type":"event"},{"anonymous":false,"inputs":[{"indexed":true,"internalType":"address","name":"provider","type":"address"},{"indexed":false,"internalType":"int128","name":"oldAmount","type":"int128"},{"indexed":false,"internalType":"uint256","name":"oldEnd","type":"uint256"},{"indexed":false,"internalType":"int128","name":"amount","type":"int128"},{"indexed":false,"internalType":"uint256","name":"end","type":"uint256"},{"indexed":false,"internalType":"uint256","name":"ts","type":"uint256"}],"name":"LockupUpdated","type":"event"},{"anonymous":false,"inputs":[{"indexed":true,"internalType":"address","name":"previousOwner","type":"address"},{"indexed":true,"internalType":"address","name":"newOwner","type":"address"}],"name":"OwnershipTransferred","type":"event"},{"anonymous":false,"inputs":[{"indexed":true,"internalType":"address","name":"implementation","type":"address"}],"name":"Upgraded","type":"event"},{"anonymous":false,"inputs":[{"indexed":true,"internalType":"address","name":"provider","type":"address"},{"indexed":false,"internalType":"uint256","name":"value","type":"uint256"},{"indexed":false,"internalType":"uint256","name":"ts","type":"uint256"}],"name":"Withdraw","type":"event"},{"inputs":[],"name":"MAX_LOCK_TIME","outputs":[{"internalType":"uint256","name":"","type":"uint256"}],"stateMutability":"view","type":"function"},{"inputs":[{"internalType":"address","name":"_account","type":"address"}],"name":"balanceOf","outputs":[{"internalType":"uint256","name":"","type":"uint256"}],"stateMutability":"view","type":"function"},{"inputs":[{"internalType":"address","name":"_account","type":"address"},{"internalType":"uint256","name":"_blockNumber","type":"uint256"}],"name":"balanceOfAt","outputs":[{"internalType":"uint256","name":"","type":"uint256"}],"stateMutability":"view","type":"function"},{"inputs":[],"name":"checkpoint","outputs":[],"stateMutability":"nonpayable","type":"function"},{"inputs":[{"internalType":"address","name":"_account","type":"address"},{"internalType":"uint32","name":"_pos","type":"uint32"}],"name":"checkpoints","outputs":[{"components":[{"internalType":"int128","name":"bias","type":"int128"},{"internalType":"int128","name":"slope","type":"int128"},{"internalType":"uint256","name":"ts","type":"uint256"},{"internalType":"uint256","name":"blk","type":"uint256"}],"internalType":"struct VoteLockerCurve.Checkpoint","name":"","type":"tuple"}],"stateMutability":"view","type":"function"},{"inputs":[],"name":"decimals","outputs":[{"internalType":"uint8","name":"","type":"uint8"}],"stateMutability":"view","type":"function"},{"inputs":[{"internalType":"address","name":"delegatee","type":"address"}],"name":"delegate","outputs":[],"stateMutability":"nonpayable","type":"function"},{"inputs":[{"internalType":"address","name":"delegatee","type":"address"},{"internalType":"uint256","name":"nonce","type":"uint256"},{"internalType":"uint256","name":"end","type":"uint256"},{"internalType":"uint8","name":"v","type":"uint8"},{"internalType":"bytes32","name":"r","type":"bytes32"},{"internalType":"bytes32","name":"s","type":"bytes32"}],"name":"delegateBySig","outputs":[],"stateMutability":"nonpayable","type":"function"},{"inputs":[{"internalType":"address","name":"_account","type":"address"}],"name":"delegates","outputs":[{"internalType":"address","name":"","type":"address"}],"stateMutability":"view","type":"function"},{"inputs":[{"internalType":"address","name":"_account","type":"address"}],"name":"getLastCheckpoint","outputs":[{"components":[{"internalType":"int128","name":"bias","type":"int128"},{"internalType":"int128","name":"slope","type":"int128"},{"internalType":"uint256","name":"ts","type":"uint256"},{"internalType":"uint256","name":"blk","type":"uint256"}],"internalType":"struct VoteLockerCurve.Checkpoint","name":"","type":"tuple"}],"stateMutability":"view","type":"function"},{"inputs":[],"name":"getLastGlobalCheckpoint","outputs":[{"components":[{"internalType":"int128","name":"bias","type":"int128"},{"internalType":"int128","name":"slope","type":"int128"},{"internalType":"uint256","name":"ts","type":"uint256"},{"internalType":"uint256","name":"blk","type":"uint256"}],"internalType":"struct VoteLockerCurve.Checkpoint","name":"","type":"tuple"}],"stateMutability":"view","type":"function"},{"inputs":[{"internalType":"address","name":"_account","type":"address"}],"name":"getLockup","outputs":[{"components":[{"internalType":"int128","name":"amount","type":"int128"},{"internalType":"uint256","name":"end","type":"uint256"}],"internalType":"struct VoteLockerCurve.Lockup","name":"","type":"tuple"}],"stateMutability":"view","type":"function"},{"inputs":[{"internalType":"uint256","name":"_blockNumber","type":"uint256"}],"name":"getPastTotalSupply","outputs":[{"internalType":"uint256","name":"","type":"uint256"}],"stateMutability":"view","type":"function"},{"inputs":[{"internalType":"address","name":"_account","type":"address"},{"internalType":"uint256","name":"_blockNumber","type":"uint256"}],"name":"getPastVotes","outputs":[{"internalType":"uint256","name":"","type":"uint256"}],"stateMutability":"view","type":"function"},{"inputs":[{"internalType":"address","name":"_account","type":"address"}],"name":"getVotes","outputs":[{"internalType":"uint256","name":"","type":"uint256"}],"stateMutability":"view","type":"function"},{"inputs":[{"internalType":"uint32","name":"pos","type":"uint32"}],"name":"globalCheckpoints","outputs":[{"components":[{"internalType":"int128","name":"bias","type":"int128"},{"internalType":"int128","name":"slope","type":"int128"},{"internalType":"uint256","name":"ts","type":"uint256"},{"internalType":"uint256","name":"blk","type":"uint256"}],"internalType":"struct VoteLockerCurve.Checkpoint","name":"","type":"tuple"}],"stateMutability":"view","type":"function"},{"inputs":[],"name":"globalEpoch","outputs":[{"internalType":"uint256","name":"","type":"uint256"}],"stateMutability":"view","type":"function"},{"inputs":[{"internalType":"address","name":"_stakingToken","type":"address"}],"name":"initialize","outputs":[],"stateMutability":"nonpayable","type":"function"},{"inputs":[{"internalType":"uint256","name":"_amount","type":"uint256"},{"internalType":"uint256","name":"_end","type":"uint256"}],"name":"lockup","outputs":[],"stateMutability":"nonpayable","type":"function"},{"inputs":[{"internalType":"address","name":"","type":"address"}],"name":"lockups","outputs":[{"internalType":"int128","name":"amount","type":"int128"},{"internalType":"uint256","name":"end","type":"uint256"}],"stateMutability":"view","type":"function"},{"inputs":[],"name":"name","outputs":[{"internalType":"string","name":"","type":"string"}],"stateMutability":"view","type":"function"},{"inputs":[{"internalType":"address","name":"_account","type":"address"}],"name":"numCheckpoints","outputs":[{"internalType":"uint256","name":"","type":"uint256"}],"stateMutability":"view","type":"function"},{"inputs":[],"name":"numGlobalCheckpoints","outputs":[{"internalType":"uint256","name":"","type":"uint256"}],"stateMutability":"view","type":"function"},{"inputs":[],"name":"owner","outputs":[{"internalType":"address","name":"","type":"address"}],"stateMutability":"view","type":"function"},{"inputs":[],"name":"proxiableUUID","outputs":[{"internalType":"bytes32","name":"","type":"bytes32"}],"stateMutability":"view","type":"function"},{"inputs":[],"name":"renounceOwnership","outputs":[],"stateMutability":"nonpayable","type":"function"},{"inputs":[{"internalType":"uint256","name":"","type":"uint256"}],"name":"slopeChanges","outputs":[{"internalType":"int128","name":"","type":"int128"}],"stateMutability":"view","type":"function"},{"inputs":[],"name":"symbol","outputs":[{"internalType":"string","name":"","type":"string"}],"stateMutability":"view","type":"function"},{"inputs":[],"name":"totalSupply","outputs":[{"internalType":"uint256","name":"","type":"uint256"}],"stateMutability":"view","type":"function"},{"inputs":[{"internalType":"uint256","name":"_blockNumber","type":"uint256"}],"name":"totalSupplyAt","outputs":[{"internalType":"uint256","name":"","type":"uint256"}],"stateMutability":"view","type":"function"},{"inputs":[{"internalType":"address","name":"newOwner","type":"address"}],"name":"transferOwnership","outputs":[],"stateMutability":"nonpayable","type":"function"},{"inputs":[{"internalType":"address","name":"newImplementation","type":"address"}],"name":"upgradeTo","outputs":[],"stateMutability":"nonpayable","type":"function"},{"inputs":[{"internalType":"address","name":"newImplementation","type":"address"},{"internalType":"bytes","name":"data","type":"bytes"}],"name":"upgradeToAndCall","outputs":[],"stateMutability":"payable","type":"function"},{"inputs":[{"internalType":"address","name":"","type":"address"}],"name":"userEpoch","outputs":[{"internalType":"uint256","name":"","type":"uint256"}],"stateMutability":"view","type":"function"},{"inputs":[],"name":"withdraw","outputs":[],"stateMutability":"nonpayable","type":"function"}],"bytecode":"60a0604052306080523480156200001557600080fd5b50600054610100900460ff16620000335760005460ff16156200003d565b6200003d620000e2565b620000a55760405162461bcd60e51b815260206004820152602e60248201527f496e697469616c697a61626c653a20636f6e747261637420697320616c72656160448201526d191e481a5b9a5d1a585b1a5e995960921b606482015260840160405180910390fd5b600054610100900460ff16158015620000c8576000805461ffff19166101011790555b8015620000db576000805461ff00191690555b506200010f565b6000620000fa306200010060201b62001ec61760201c565b15905090565b6001600160a01b03163b151590565b6080516139f162000147600039600081816108f20152818161093b01528181610fcf0152818161100f01526110a201526139f16000f3fe6080604052600436106102045760003560e01c8063715018a611610118578063c3cda520116100a0578063cb03623a1161006f578063cb03623a1461067a578063f1127ed8146106a7578063f2fde38b146106c7578063f52a36f7146106e7578063fa78668f1461072a57600080fd5b8063c3cda520146105d0578063c4d66de8146105f0578063c5e687d414610610578063c7b6d4321461062557600080fd5b806395d89b41116100e757806395d89b4114610546578063981b24d01461055b5780639ab24eb01461057b578063a8bb66961461059b578063c2c4c5c1146105bb57600080fd5b8063715018a6146104de5780638da5cb5b146104f35780638e539e8c1461051157806395b3aa191461053157600080fd5b80634f1ef2861161019b5780635c19a95c1161016a5780635c19a95c146103c557806367afd1cc146103e55780636909221d146104685780636fcfff451461048857806370a08231146104be57600080fd5b80634f1ef2861461034e57806352d1902d146103615780635719098b14610376578063587cde1e1461038c57600080fd5b80633659cfe6116101d75780633659cfe6146102d75780633a46b1a8146102f95780633ccfd60b146103195780634ee2cd7e1461032e57600080fd5b806306fdde031461020957806311cde2201461023457806318160ddd14610292578063313ce567146102b5575b600080fd5b34801561021557600080fd5b5061021e610742565b60405161022b919061319e565b60405180910390f35b34801561024057600080fd5b5061025461024f3660046131ed565b6107d4565b60405161022b919060006080820190508251600f0b82526020830151600f0b6020830152604083015160408301526060830151606083015292915050565b34801561029e57600080fd5b506102a7610863565b60405190815260200161022b565b3480156102c157600080fd5b5060cb5460405160ff909116815260200161022b565b3480156102e357600080fd5b506102f76102f23660046131ed565b6108e7565b005b34801561030557600080fd5b506102a7610314366004613208565b6109d0565b34801561032557600080fd5b506102f76109e5565b34801561033a57600080fd5b506102a7610349366004613208565b610bcb565b6102f761035c3660046132a1565b610fc4565b34801561036d57600080fd5b506102a7611095565b34801561038257600080fd5b506102a760cf5481565b34801561039857600080fd5b506103ad6103a73660046131ed565b50600090565b6040516001600160a01b03909116815260200161022b565b3480156103d157600080fd5b506102f76103e03660046131ed565b611148565b3480156103f157600080fd5b5061044a6104003660046131ed565b6040805180820190915260008082526020820152506001600160a01b0316600090815260d0602090815260409182902082518084019093528054600f0b8352600101549082015290565b604080518251600f0b8152602092830151928101929092520161022b565b34801561047457600080fd5b50610254610483366004613346565b611190565b34801561049457600080fd5b506102a76104a33660046131ed565b6001600160a01b0316600090815260cc602052604090205490565b3480156104ca57600080fd5b506102a76104d93660046131ed565b6111b1565b3480156104ea57600080fd5b506102f76112a4565b3480156104ff57600080fd5b506033546001600160a01b03166103ad565b34801561051d57600080fd5b506102a761052c366004613361565b6112da565b34801561053d57600080fd5b506102546112e5565b34801561055257600080fd5b5061021e61135d565b34801561056757600080fd5b506102a7610576366004613361565b61136c565b34801561058757600080fd5b506102a76105963660046131ed565b611611565b3480156105a757600080fd5b506102f76105b636600461337a565b61161c565b3480156105c757600080fd5b506102f7611984565b3480156105dc57600080fd5b506102f76105eb3660046133ab565b61198f565b3480156105fc57600080fd5b506102f761060b3660046131ed565b6119e8565b34801561061c57600080fd5b5060ce546102a7565b34801561063157600080fd5b506106606106403660046131ed565b60d06020526000908152604090208054600190910154600f9190910b9082565b60408051600f9390930b835260208301919091520161022b565b34801561068657600080fd5b506102a76106953660046131ed565b60cd6020526000908152604090205481565b3480156106b357600080fd5b506102546106c2366004613405565b611da3565b3480156106d357600080fd5b506102f76106e23660046131ed565b611e2e565b3480156106f357600080fd5b50610717610702366004613361565b60d160205260009081526040902054600f0b81565b604051600f9190910b815260200161022b565b34801561073657600080fd5b506102a7630784ce0081565b606060c9805461075190613438565b80601f016020809104026020016040519081016040528092919081815260200182805461077d90613438565b80156107ca5780601f1061079f576101008083540402835291602001916107ca565b820191906000526020600020905b8154815290600101906020018083116107ad57829003601f168201915b5050505050905090565b6107dc6130b4565b6001600160a01b038216600090815260cc60205260409020805461080290600190613489565b81548110610812576108126134a0565b60009182526020918290206040805160808101825260039093029091018054600f81810b8552600160801b909104900b93830193909352600183015490820152600290910154606082015292915050565b60ce546000906108735750600090565b600060ce60cf548154811061088a5761088a6134a0565b60009182526020918290206040805160808101825260039093029091018054600f81810b8552600160801b909104900b93830193909352600183015490820152600290910154606082015290506108e18142611ed5565b91505090565b306001600160a01b037f00000000000000000000000000000000000000000000000000000000000000001614156109395760405162461bcd60e51b8152600401610930906134b6565b60405180910390fd5b7f00000000000000000000000000000000000000000000000000000000000000006001600160a01b0316610982600080516020613975833981519152546001600160a01b031690565b6001600160a01b0316146109a85760405162461bcd60e51b815260040161093090613502565b6109b181611fb3565b604080516000808252602082019092526109cd91839190611fdd565b50565b60006109dc8383610bcb565b90505b92915050565b60408051808201825233600081815260d060208181528583208054600f0b86529390925281526001909101548183018181528451808601909552601285527102637b1b5bab81032bc3834b932b99030ba160751b928501929092529051919242919091101591610a549061214d565b60405180604001604052806009815260200168016103737bb9034b9960bd1b815250610a7f4261214d565b604051602001610a92949392919061354e565b60405160208183030381529060405290610abf5760405162461bcd60e51b8152600401610930919061319e565b5060008160000151600f0b13610b0e5760405162461bcd60e51b81526020600482015260146024820152734c6f636b757020686173206e6f20746f6b656e7360601b6044820152606401610930565b6040805180820182526000808252602080830182815233835260d0909152928120825181546001600160801b0319166001600160801b0390911617815592516001909301929092558251909190610b6790600f0b61224b565b60d254909150610b81906001600160a01b031633836122a1565b610b8c338484612304565b6040805182815242602082015233917ff279e6a1f5e320cca91135676d9cb6e44ca8a08c0b88342bcdb1144f6511b568910160405180910390a2505050565b600043821115610c1d5760405162461bcd60e51b815260206004820152601d60248201527f426c6f636b206e756d62657220697320696e20746865206675747572650000006044820152606401610930565b6001600160a01b038316600090815260cc602090815260408083208054825181850281018501909352808352610cd493859084015b82821015610cb057600084815260209081902060408051608081018252600386029092018054600f81810b8552600160801b909104900b83850152600180820154928401929092526002015460608301529083529092019101610c52565b5050506001600160a01b038716600090815260cd6020526040902054869150612644565b905080610ce55760009150506109df565b6001600160a01b038416600090815260cc60205260408120805483908110610d0f57610d0f6134a0565b600091825260208083206040805160808101825260039094029091018054600f81810b8652600160801b909104900b8484015260018101548483015260020154606084015260ce8054825181850281018501909352808352939550610de3939192909190859084015b82821015610dd657600084815260209081902060408051608081018252600386029092018054600f81810b8552600160801b909104900b83850152600180820154928401929092526002015460608301529083529092019101610d78565b505050508660cf54612644565b9050600060ce8281548110610dfa57610dfa6134a0565b600091825260208083206040805160808101825260039094029091018054600f81810b8652600160801b909104900b9284019290925260018201549083015260020154606082015260cf549092508190841015610eec57600060ce610e608660016135a5565b81548110610e7057610e706134a0565b60009182526020918290206040805160808101825260039093029091018054600f81810b8552600160801b909104900b938301939093526001830154908201526002909101546060808301829052860151919250610ece9190613489565b925083604001518160400151610ee49190613489565b915050610f10565b6060830151610efb9043613489565b9150826040015142610f0d9190613489565b90505b60408301518215610f4d578284606001518a610f2c9190613489565b610f3690846135bd565b610f4091906135f2565b610f4a90826135a5565b90505b610f65866040015182610f609190613489565b6126de565b8660200151610f749190613606565b86518790610f8390839061369b565b600f90810b90915287516000910b129050610fb4578551610fa690600f0b61224b565b9750505050505050506109df565b60009750505050505050506109df565b306001600160a01b037f000000000000000000000000000000000000000000000000000000000000000016141561100d5760405162461bcd60e51b8152600401610930906134b6565b7f00000000000000000000000000000000000000000000000000000000000000006001600160a01b0316611056600080516020613975833981519152546001600160a01b031690565b6001600160a01b03161461107c5760405162461bcd60e51b815260040161093090613502565b61108582611fb3565b61109182826001611fdd565b5050565b6000306001600160a01b037f000000000000000000000000000000000000000000000000000000000000000016146111355760405162461bcd60e51b815260206004820152603860248201527f555550535570677261646561626c653a206d757374206e6f742062652063616c60448201527f6c6564207468726f7567682064656c656761746563616c6c00000000000000006064820152608401610930565b5060008051602061397583398151915290565b60405162461bcd60e51b815260206004820152601b60248201527f44656c65676174696f6e206973206e6f7420737570706f7274656400000000006044820152606401610930565b6111986130b4565b60ce8263ffffffff1681548110610812576108126134a0565b6001600160a01b038116600090815260cd6020526040812054806111d85750600092915050565b6001600160a01b038316600090815260cc60205260408120805483908110611202576112026134a0565b60009182526020918290206040805160808101825260039093029091018054600f81810b8552600160801b909104900b9383019390935260018301549082018190526002909201546060820152915061125f90610f609042613489565b816020015161126e9190613606565b8151829061127d90839061369b565b600f0b905250805161129c9061129490600061275b565b600f0b61224b565b949350505050565b6033546001600160a01b031633146112ce5760405162461bcd60e51b8152600401610930906136eb565b6112d86000612778565b565b60006109df8261136c565b6112ed6130b4565b60ce80546112fd90600190613489565b8154811061130d5761130d6134a0565b60009182526020918290206040805160808101825260039093029091018054600f81810b8552600160801b909104900b938301939093526001830154908201526002909101546060820152919050565b606060ca805461075190613438565b6000438211156113be5760405162461bcd60e51b815260206004820152601d60248201527f426c6f636b206e756d62657220697320696e20746865206675747572650000006044820152606401610930565b600061145060ce805480602002602001604051908101604052809291908181526020016000905b8282101561144357600084815260209081902060408051608081018252600386029092018054600f81810b8552600160801b909104900b838501526001808201549284019290925260020154606083015290835290920191016113e5565b505050508460cf54612644565b9050600060ce8281548110611467576114676134a0565b60009182526020918290206040805160808101825260039093029091018054600f81810b8552600160801b909104900b93830193909352600183015490820152600290910154606082018190529091508410156114c8575060009392505050565b600060cf548310156115a057600060ce6114e38560016135a5565b815481106114f3576114f36134a0565b60009182526020918290206040805160808101825260039093029091018054600f81810b8552600160801b909104900b9383019390935260018301549082015260029091015460608083018290528501519192501461159a57826060015181606001516115609190613489565b836040015182604001516115749190613489565b60608501516115839089613489565b61158d91906135bd565b61159791906135f2565b91505b506115ef565b438260600151146115ef5760608201516115ba9043613489565b60408301516115c99042613489565b60608401516115d89088613489565b6115e291906135bd565b6115ec91906135f2565b90505b6116088282846040015161160391906135a5565b611ed5565b95945050505050565b60006109df826111b1565b611625816127ca565b33600090815260d0602090815260409182902082518084019093528054600f0b835260010154908201529091504282116116be5760405162461bcd60e51b815260206004820152603460248201527f456e64206d7573742062652067726561746572207468616e2074686520637572604482015273072656e7420626c6f636b2074696d657374616d760641b6064820152608401610930565b600081602001511180156116d55750806020015182105b1561173f5760405162461bcd60e51b815260206004820152603460248201527f456e64206d7573742062652067726561746572207468616e206f7220657175616044820152731b081d1bc81d1a194818dd5c9c995b9d08195b9960621b6064820152608401610930565b630784ce0061174e4284613489565b11156117ab5760405162461bcd60e51b815260206004820152602660248201527f456e64206d757374206265206265666f7265206d6178696d756d206c6f636b75604482015265702074696d6560d01b6064820152608401610930565b60006117b6846126de565b90508160000151600f0b81600f0b12156118315760405162461bcd60e51b815260206004820152603660248201527f416d6f756e74206d7573742062652067726561746572207468616e206f7220656044820152751c5d585b081d1bc818dd5c9c995b9d08185b5bdd5b9d60521b6064820152608401610930565b815160009061184490611294908461369b565b604080518082018252600f85900b8152602080820188815233600090815260d0909252929020815181546001600160801b0319166001600160801b03909116178155915160019092019190915590915081156118b25760d2546118b2906001600160a01b03163330856127e4565b60208401511561192457835160208086015183518483015160408051600f96870b815294850193909352930b90820152606081019190915242608082015233907f268a3d7ea661e9e2bd617021c94b431919691c0d21aa2eb3ea2b9644a5383d129060a00160405180910390a2611971565b805160208083015160408051600f9490940b845291830152429082015233907f7006565168b74edd823b144526503320d833b826edea3f82059ca1806a954fc39060600160405180910390a25b61197c338583612304565b505050505050565b6112d8600080612822565b60405162461bcd60e51b815260206004820152602860248201527f44656c65676174696f6e206279207369676e6174757265206973206e6f7420736044820152671d5c1c1bdc9d195960c21b6064820152608401610930565b600054610100900460ff16611a035760005460ff1615611a07565b303b155b611a6a5760405162461bcd60e51b815260206004820152602e60248201527f496e697469616c697a61626c653a20636f6e747261637420697320616c72656160448201526d191e481a5b9a5d1a585b1a5e995960921b6064820152608401610930565b600054610100900460ff16158015611a8c576000805461ffff19166101011790555b611a94612bf7565b611a9c612c26565b60d280546001600160a01b0319166001600160a01b038416908117909155604080518082018252600b81526a159bdd1948131bd8dad95960aa1b602082015281516306fdde0360e01b815291519092916306fdde039160048083019260009291908290030181865afa158015611b16573d6000803e3d6000fd5b505050506040513d6000823e601f3d908101601f19168201604052611b3e9190810190613720565b604051602001611b4f92919061378e565b60405160208183030381529060405260c99080519060200190611b739291906130e2565b50604051806040016040528060028152602001611d9b60f21b81525060d260009054906101000a90046001600160a01b03166001600160a01b03166395d89b416040518163ffffffff1660e01b8152600401600060405180830381865afa158015611be2573d6000803e3d6000fd5b505050506040513d6000823e601f3d908101601f19168201604052611c0a9190810190613720565b604051602001611c1b9291906137ca565b60405160208183030381529060405260ca9080519060200190611c3f9291906130e2565b5060d260009054906101000a90046001600160a01b03166001600160a01b031663313ce5676040518163ffffffff1660e01b8152600401602060405180830381865afa158015611c93573d6000803e3d6000fd5b505050506040513d601f19601f82011682018060405250810190611cb791906137f9565b60cb805460ff9290921660ff199092169190911790556040805160808101825260008082526020820181815242938301938452436060840190815260ce80546001810182559352925190516001600160801b03908116600160801b0291161760039091027fd36cd1c74ef8d7326d8021b776c18fb5a5724b7f7bc93c2f42e43e10ef27d12a81019190915591517fd36cd1c74ef8d7326d8021b776c18fb5a5724b7f7bc93c2f42e43e10ef27d12b830155517fd36cd1c74ef8d7326d8021b776c18fb5a5724b7f7bc93c2f42e43e10ef27d12c909101558015611091576000805461ff00191690555050565b611dab6130b4565b6001600160a01b038316600090815260cc60205260409020805463ffffffff8416908110611ddb57611ddb6134a0565b60009182526020918290206040805160808101825260039093029091018054600f81810b8552600160801b909104900b938301939093526001830154908201526002909101546060820152905092915050565b6033546001600160a01b03163314611e585760405162461bcd60e51b8152600401610930906136eb565b6001600160a01b038116611ebd5760405162461bcd60e51b815260206004820152602660248201527f4f776e61626c653a206e6577206f776e657220697320746865207a65726f206160448201526564647265737360d01b6064820152608401610930565b6109cd81612778565b6001600160a01b03163b151590565b6000808390506000611eea82604001516127ca565b905060005b60ff811015611fa057611f0562093a80836135a5565b9150600085831115611f1957859250611f2d565b50600082815260d16020526040902054600f0b5b611f40846040015184610f609190613489565b8460200151611f4f9190613606565b8451611f5b919061369b565b600f0b845282861415611f6e5750611fa0565b808460200151611f7e9190613816565b600f0b6020850152506040830182905280611f9881613865565b915050611eef565b506116086112948360000151600061275b565b6033546001600160a01b031633146109cd5760405162461bcd60e51b8152600401610930906136eb565b7f4910fdfa16fed3260ed0e7147f7cc6da11a60208b5b9406d12a635614ffd91435460ff16156120155761201083612c4d565b505050565b826001600160a01b03166352d1902d6040518163ffffffff1660e01b8152600401602060405180830381865afa92505050801561206f575060408051601f3d908101601f1916820190925261206c91810190613880565b60015b6120d25760405162461bcd60e51b815260206004820152602e60248201527f45524331393637557067726164653a206e657720696d706c656d656e7461746960448201526d6f6e206973206e6f74205555505360901b6064820152608401610930565b60008051602061397583398151915281146121415760405162461bcd60e51b815260206004820152602960248201527f45524331393637557067726164653a20756e737570706f727465642070726f786044820152681a58589b195555525160ba1b6064820152608401610930565b50612010838383612ce9565b6060816121715750506040805180820190915260018152600360fc1b602082015290565b8160005b811561219b578061218581613865565b91506121949050600a836135f2565b9150612175565b60008167ffffffffffffffff8111156121b6576121b6613232565b6040519080825280601f01601f1916602001820160405280156121e0576020820181803683370190505b5090505b841561129c576121f5600183613489565b9150612202600a86613899565b61220d9060306135a5565b60f81b818381518110612222576122226134a0565b60200101906001600160f81b031916908160001a905350612244600a866135f2565b94506121e4565b60008082121561229d5760405162461bcd60e51b815260206004820181905260248201527f53616665436173743a2076616c7565206d75737420626520706f7369746976656044820152606401610930565b5090565b6040516001600160a01b03831660248201526044810182905261201090849063a9059cbb60e01b906064015b60408051601f198184030181529190526020810180516001600160e01b03166001600160e01b031990931692909217909152612d0e565b61230c6130b4565b6123146130b4565b600080428660200151118015612331575060008660000151600f0b135b1561238257612343630784ce006126de565b865161234f91906138ad565b600f0b60208086019190915286015161236d90610f60904290613489565b846020015161237c9190613606565b600f0b84525b42856020015111801561239c575060008560000151600f0b135b156123ed576123ae630784ce006126de565b85516123ba91906138ad565b600f0b6020808501919091528501516123d890610f60904290613489565b83602001516123e79190613606565b600f0b83525b6001600160a01b038716600090815260cd602052604090205480612471576001600160a01b038816600090815260cc60209081526040808320805460018181018355918552938390208951938a01516001600160801b03908116600160801b0294169390931760039094029092019283558701519082015560608601516002909101555b4260408501524360608501526124888160016135a5565b6001600160a01b038916600090815260cd602090815260408083209390935560cc815282822080546001818101835591845282842089518a8501516001600160801b03908116600160801b029116176003909202019081558885015191810191909155606088015160029091015589810151825260d181529190205490870151600f9190910b9350156125485786602001518660200151141561252d57829150612548565b602080870151600090815260d19091526040902054600f0b91505b6125728560200151856020015161255f919061369b565b8651865161256d919061369b565b612822565b42876020015111156125df57602085015161258d9084613816565b92508660200151866020015114156125b15760208401516125ae908461369b565b92505b602087810151600090815260d19091526040902080546001600160801b0319166001600160801b0385161790555b428660200151111561263a5786602001518660200151111561263a57602084015161260a908361369b565b602087810151600090815260d19091526040902080546001600160801b0319166001600160801b03831617905591505b5050505050505050565b60008082815b60808110156126d15781831061265f576126d1565b6000600261266d84866135a5565b6126789060016135a5565b61268291906135f2565b905086888281518110612697576126976134a0565b602002602001015160600151116126b0578093506126be565b6126bb600182613489565b92505b50806126c981613865565b91505061264a565b50909150505b9392505050565b600060016001607f1b031982128015906126ff575060016001607f1b038213155b61229d5760405162461bcd60e51b815260206004820152602760248201527f53616665436173743a2076616c756520646f65736e27742066697420696e20316044820152663238206269747360c81b6064820152608401610930565b600081600f0b83600f0b121561277157816109dc565b5090919050565b603380546001600160a01b038381166001600160a01b0319831681179093556040519116919082907f8be0079c531659141344cd1fd0a4f28419497f9722a3daafe3b4186f6b6457e090600090a35050565b600062093a806127da81846135f2565b6109df91906135bd565b6040516001600160a01b038085166024830152831660448201526064810182905261281c9085906323b872dd60e01b906084016122cd565b50505050565b61282a6130b4565b60cf54156128995760ce60cf5481548110612847576128476134a0565b60009182526020918290206040805160808101825260039093029091018054600f81810b8552600160801b909104900b93830193909352600183015490820152600290910154606082015290506128bd565b50604080516080810182526000808252602082015242918101919091524360608201525b604080516080810182526000808252602082018190528383018051938301939093526060808501519083015291519091904211156129325760408301516129049042613489565b60608401516129139043613489565b61292590670de0b6b3a76400006135bd565b61292f91906135f2565b90505b60408301516000612942826127ca565b905060005b60ff81101561263a5761295d62093a80836135a5565b915060004283111561297157429250612985565b50600082815260d16020526040902054600f0b5b6000612994610f608686613489565b88602001516129a39190613606565b90506129bf8189600001516129b8919061369b565b600061275b565b600f0b885260208801516129d8906129b8908490613816565b600f0b602089015260408089018590528701519394508493670de0b6b3a764000090612a049086613489565b612a0e90886135bd565b612a1891906135f2565b8760600151612a2791906135a5565b606089015260cf805460019190600090612a429084906135a5565b909155505042841415612b38574360608901526020880151612a69906129b8908c90613816565b600f0b60208901528751612a82906129b8908b90613816565b600f0b8852505060ce8054600181018255600091909152865160208801516001600160801b03908116600160801b0291161760039091027fd36cd1c74ef8d7326d8021b776c18fb5a5724b7f7bc93c2f42e43e10ef27d12a81019190915560408701517fd36cd1c74ef8d7326d8021b776c18fb5a5724b7f7bc93c2f42e43e10ef27d12b82015560608701517fd36cd1c74ef8d7326d8021b776c18fb5a5724b7f7bc93c2f42e43e10ef27d12c9091015561263a565b60ce8054600181018255600091909152885160208a01516001600160801b03908116600160801b0291161760039091027fd36cd1c74ef8d7326d8021b776c18fb5a5724b7f7bc93c2f42e43e10ef27d12a81019190915560408901517fd36cd1c74ef8d7326d8021b776c18fb5a5724b7f7bc93c2f42e43e10ef27d12b82015560608901517fd36cd1c74ef8d7326d8021b776c18fb5a5724b7f7bc93c2f42e43e10ef27d12c9091015550508080612bef90613865565b915050612947565b600054610100900460ff16612c1e5760405162461bcd60e51b8152600401610930906138eb565b6112d8612de0565b600054610100900460ff166112d85760405162461bcd60e51b8152600401610930906138eb565b6001600160a01b0381163b612cba5760405162461bcd60e51b815260206004820152602d60248201527f455243313936373a206e657720696d706c656d656e746174696f6e206973206e60448201526c1bdd08184818dbdb9d1c9858dd609a1b6064820152608401610930565b60008051602061397583398151915280546001600160a01b0319166001600160a01b0392909216919091179055565b612cf283612e10565b600082511180612cff5750805b156120105761281c8383612e50565b6000612d63826040518060400160405280602081526020017f5361666545524332303a206c6f772d6c6576656c2063616c6c206661696c6564815250856001600160a01b0316612f3b9092919063ffffffff16565b8051909150156120105780806020019051810190612d819190613936565b6120105760405162461bcd60e51b815260206004820152602a60248201527f5361666545524332303a204552433230206f7065726174696f6e20646964206e6044820152691bdd081cdd58d8d9595960b21b6064820152608401610930565b600054610100900460ff16612e075760405162461bcd60e51b8152600401610930906138eb565b6112d833612778565b612e1981612c4d565b6040516001600160a01b038216907fbc7cd75a20ee27fd9adebab32041f755214dbc6bffa90cc0225b39da2e5c2d3b90600090a250565b60606001600160a01b0383163b612eb85760405162461bcd60e51b815260206004820152602660248201527f416464726573733a2064656c65676174652063616c6c20746f206e6f6e2d636f6044820152651b9d1c9858dd60d21b6064820152608401610930565b600080846001600160a01b031684604051612ed39190613958565b600060405180830381855af49150503d8060008114612f0e576040519150601f19603f3d011682016040523d82523d6000602084013e612f13565b606091505b5091509150611608828260405180606001604052806027815260200161399560279139612f4a565b606061129c8484600085612f83565b60608315612f595750816126d7565b825115612f695782518084602001fd5b8160405162461bcd60e51b8152600401610930919061319e565b606082471015612fe45760405162461bcd60e51b815260206004820152602660248201527f416464726573733a20696e73756666696369656e742062616c616e636520666f6044820152651c8818d85b1b60d21b6064820152608401610930565b6001600160a01b0385163b61303b5760405162461bcd60e51b815260206004820152601d60248201527f416464726573733a2063616c6c20746f206e6f6e2d636f6e74726163740000006044820152606401610930565b600080866001600160a01b031685876040516130579190613958565b60006040518083038185875af1925050503d8060008114613094576040519150601f19603f3d011682016040523d82523d6000602084013e613099565b606091505b50915091506130a9828286612f4a565b979650505050505050565b60405180608001604052806000600f0b81526020016000600f0b815260200160008152602001600081525090565b8280546130ee90613438565b90600052602060002090601f0160209004810192826131105760008555613156565b82601f1061312957805160ff1916838001178555613156565b82800160010185558215613156579182015b8281111561315657825182559160200191906001019061313b565b5061229d9291505b8082111561229d576000815560010161315e565b60005b8381101561318d578181015183820152602001613175565b8381111561281c5750506000910152565b60208152600082518060208401526131bd816040850160208701613172565b601f01601f19169190910160400192915050565b80356001600160a01b03811681146131e857600080fd5b919050565b6000602082840312156131ff57600080fd5b6109dc826131d1565b6000806040838503121561321b57600080fd5b613224836131d1565b946020939093013593505050565b634e487b7160e01b600052604160045260246000fd5b604051601f8201601f1916810167ffffffffffffffff8111828210171561327157613271613232565b604052919050565b600067ffffffffffffffff82111561329357613293613232565b50601f01601f191660200190565b600080604083850312156132b457600080fd5b6132bd836131d1565b9150602083013567ffffffffffffffff8111156132d957600080fd5b8301601f810185136132ea57600080fd5b80356132fd6132f882613279565b613248565b81815286602083850101111561331257600080fd5b816020840160208301376000602083830101528093505050509250929050565b803563ffffffff811681146131e857600080fd5b60006020828403121561335857600080fd5b6109dc82613332565b60006020828403121561337357600080fd5b5035919050565b6000806040838503121561338d57600080fd5b50508035926020909101359150565b60ff811681146109cd57600080fd5b60008060008060008060c087890312156133c457600080fd5b6133cd876131d1565b9550602087013594506040870135935060608701356133eb8161339c565b9598949750929560808101359460a0909101359350915050565b6000806040838503121561341857600080fd5b613421836131d1565b915061342f60208401613332565b90509250929050565b600181811c9082168061344c57607f821691505b6020821081141561346d57634e487b7160e01b600052602260045260246000fd5b50919050565b634e487b7160e01b600052601160045260246000fd5b60008282101561349b5761349b613473565b500390565b634e487b7160e01b600052603260045260246000fd5b6020808252602c908201527f46756e6374696f6e206d7573742062652063616c6c6564207468726f7567682060408201526b19195b1959d85d1958d85b1b60a21b606082015260800190565b6020808252602c908201527f46756e6374696f6e206d7573742062652063616c6c6564207468726f7567682060408201526b6163746976652070726f787960a01b606082015260800190565b60008551613560818460208a01613172565b855190830190613574818360208a01613172565b8551910190613587818360208901613172565b845191019061359a818360208801613172565b019695505050505050565b600082198211156135b8576135b8613473565b500190565b60008160001904831182151516156135d7576135d7613473565b500290565b634e487b7160e01b600052601260045260246000fd5b600082613601576136016135dc565b500490565b600081600f0b83600f0b60016001607f1b0360008213600084138383048511828216161561363657613636613473565b60016001607f1b0319600085128281168783058712161561365957613659613473565b6000871292508582058712848416161561367557613675613473565b8585058712818416161561368b5761368b613473565b5050509290910295945050505050565b600081600f0b83600f0b600081128160016001607f1b0319018312811516156136c6576136c6613473565b8160016001607f1b030183138116156136e1576136e1613473565b5090039392505050565b6020808252818101527f4f776e61626c653a2063616c6c6572206973206e6f7420746865206f776e6572604082015260600190565b60006020828403121561373257600080fd5b815167ffffffffffffffff81111561374957600080fd5b8201601f8101841361375a57600080fd5b80516137686132f882613279565b81815285602083850101111561377d57600080fd5b611608826020830160208601613172565b600083516137a0818460208801613172565b600160fd1b90830190815283516137be816001840160208801613172565b01600101949350505050565b600083516137dc818460208801613172565b8351908301906137f0818360208801613172565b01949350505050565b60006020828403121561380b57600080fd5b81516126d78161339c565b600081600f0b83600f0b600082128260016001607f1b030382138115161561384057613840613473565b8260016001607f1b031903821281161561385c5761385c613473565b50019392505050565b600060001982141561387957613879613473565b5060010190565b60006020828403121561389257600080fd5b5051919050565b6000826138a8576138a86135dc565b500690565b600081600f0b83600f0b806138c4576138c46135dc565b60016001607f1b03198214600019821416156138e2576138e2613473565b90059392505050565b6020808252602b908201527f496e697469616c697a61626c653a20636f6e7472616374206973206e6f74206960408201526a6e697469616c697a696e6760a81b606082015260800190565b60006020828403121561394857600080fd5b815180151581146126d757600080fd5b6000825161396a818460208701613172565b919091019291505056fe360894a13ba1a3210667c828492db98dca3e2076cc3735a920a3ca505d382bbc416464726573733a206c6f772d6c6576656c2064656c65676174652063616c6c206661696c6564a2646970667358221220a358dc30e03a5a3725f9008e852ef08d71c36c49e1d6a96121a586f4ef5da96e64736f6c634300080b0033","bytecodeSha1":"40a08699a26b6968fe2beb1861e7d27e3133ebb5","compiler":{"evm_version":"istanbul","optimizer":{"enabled":true,"runs":200},"version":"0.8.11+commit.d7f03943"},"contractName":"VoteLockerCurve","language":"Solidity","natspec":{"kind":"dev","methods":{"MAX_LOCK_TIME()":{"notice":"Maximum lock time"},"balanceOf(address)":{"details":"See {ERC20-balanceOf}."},"balanceOfAt(address,uint256)":{"details":"Gets a users votingWeight at a given blockNumber","params":{"_account":"User for which to return the balance","_blockNumber":"Block at which to calculate balance"},"returns":{"_0":"uint256 Balance of user"}},"checkpoint()":{"details":"Public function to trigger global checkpoint."},"checkpoints(address,uint32)":{"details":"Get the `pos`-th checkpoint for `_account`.","returns":{"_0":"Checkpoint memory"}},"constructor":{"custom:oz-upgrades-unsafe-allow":"constructor"},"decimals()":{"details":"Returns the number of decimals used to get its user representation. For example, if `decimals` equals `2`, a balance of `505` tokens should be displayed to a user as `5.05` (`505 / 10 ** 2`). Tokens usually opt for a value of 18, imitating the relationship between Ether and Wei. This is the value {ERC20} uses, unless this function is overridden;","returns":{"_0":"uint8 Token decimals"}},"delegate(address)":{"details":"Delegate votes from the sender to `delegatee`."},"delegateBySig(address,uint256,uint256,uint8,bytes32,bytes32)":{"details":"Delegates votes from signer to `delegatee`"},"delegates(address)":{"details":"Get the address `_account` is currently delegating to."},"getLastCheckpoint(address)":{"details":"Get last checkpoint for `_account`.","returns":{"_0":"Checkpoint memory"}},"getLastGlobalCheckpoint()":{"details":"Get the last global checkpoint.","returns":{"_0":"Checkpoint memory"}},"getLockup(address)":{"details":"Gets the current lockup for `_account`"},"getPastTotalSupply(uint256)":{"details":"Retrieve the `totalSupply` at the end of `blockNumber`. This method is required for compatibility with the OpenZeppelin governance ERC20Votes. Requirements: - `_blockNumber` must have been already mined","params":{"_blockNumber":"Block at which to calculate total supply"},"returns":{"_0":"uint256 Total supply at the given block"}},"getPastVotes(address,uint256)":{"details":"Retrieve the number of votes for `_account` at the end of `_blockNumber`. This method is required for compatibility with the OpenZeppelin governance ERC20Votes. Requirements: - `blockNumber` must have been already mined"},"getVotes(address)":{"details":"Gets the current votes balance for `_account` This method is required for compatibility with the OpenZeppelin governance ERC20Votes.","params":{"_account":"Account to get the votes balance for"},"returns":{"_0":"uint256 Current votes balance for `_account`"}},"globalCheckpoints(uint32)":{"details":"Get the `pos`-th global checkpoint.","returns":{"_0":"Checkpoint memory"}},"lockup(uint256,uint256)":{"details":"Deposits staking token and mints new veTokens according to the lockup length","params":{"_amount":"Amount of staking token to deposit","_end":"Lockup end time"}},"lockups(address)":{"notice":"Lockup mapping for each user"},"name()":{"details":"Returns the name of the token.","returns":{"_0":"string memory Token name"}},"numCheckpoints(address)":{"details":"Get number of checkpoints for `_account`.","returns":{"_0":"uint32"}},"numGlobalCheckpoints()":{"details":"Get number of global checkpoints.","returns":{"_0":"uint256"}},"owner()":{"details":"Returns the address of the current owner."},"proxiableUUID()":{"details":"Implementation of the ERC1822 {proxiableUUID} function. This returns the storage slot used by the implementation. It is used to validate that the this implementation remains valid after an upgrade. IMPORTANT: A proxy pointing at a proxiable contract should not be considered proxiable itself, because this risks bricking a proxy that upgrades to it, by delegating to itself until out of gas. Thus it is critical that this function revert if invoked through a proxy. This is guaranteed by the `notDelegated` modifier."},"renounceOwnership()":{"details":"Leaves the contract without owner. It will not be possible to call `onlyOwner` functions anymore. Can only be called by the current owner. NOTE: Renouncing ownership will leave the contract without an owner, thereby removing any functionality that is only available to the owner."},"symbol()":{"details":"Returns the symbol of the token, usually a shorter version of the name.","returns":{"_0":"string memory Token symbol"}},"totalSupply()":{"details":"See {ERC20-totalSupply}."},"totalSupplyAt(uint256)":{"details":"Calculates total supply of votingWeight at a given blockNumber","params":{"_blockNumber":"Block number at which to calculate total supply"},"returns":{"_0":"totalSupply of voting token weight at the given blockNumber"}},"transferOwnership(address)":{"details":"Transfers ownership of the contract to a new account (`newOwner`). Can only be called by the current owner."},"upgradeTo(address)":{"details":"Upgrade the implementation of the proxy to `newImplementation`. Calls {_authorizeUpgrade}. Emits an {Upgraded} event."},"upgradeToAndCall(address,bytes)":{"details":"Upgrade the implementation of the proxy to `newImplementation`, and subsequently execute the function call encoded in `data`. Calls {_authorizeUpgrade}. Emits an {Upgraded} event."},"withdraw()":{"details":"Withdraw all tokens from an expired lockup."}},"version":1},"opcodes":"PUSH1 0x80 PUSH1 0x40 MSTORE PUSH1 0x4 CALLDATASIZE LT PUSH2 0x204 JUMPI PUSH1 0x0 CALLDATALOAD PUSH1 0xE0 SHR DUP1 PUSH4 0x715018A6 GT PUSH2 0x118 JUMPI DUP1 PUSH4 0xC3CDA520 GT PUSH2 0xA0 JUMPI DUP1 PUSH4 0xCB03623A GT PUSH2 0x6F JUMPI DUP1 PUSH4 0xCB03623A EQ PUSH2 0x67A JUMPI DUP1 PUSH4 0xF1127ED8 EQ PUSH2 0x6A7 JUMPI DUP1 PUSH4 0xF2FDE38B EQ PUSH2 0x6C7 JUMPI DUP1 PUSH4 0xF52A36F7 EQ PUSH2 0x6E7 JUMPI DUP1 PUSH4 0xFA78668F EQ PUSH2 0x72A JUMPI PUSH1 0x0 DUP1 REVERT JUMPDEST DUP1 PUSH4 0xC3CDA520 EQ PUSH2 0x5D0 JUMPI DUP1 PUSH4 0xC4D66DE8 EQ PUSH2 0x5F0 JUMPI DUP1 PUSH4 0xC5E687D4 EQ PUSH2 0x610 JUMPI DUP1 PUSH4 0xC7B6D432 EQ PUSH2 0x625 JUMPI PUSH1 0x0 DUP1 REVERT JUMPDEST DUP1 PUSH4 0x95D89B41 GT PUSH2 0xE7 JUMPI DUP1 PUSH4 0x95D89B41 EQ PUSH2 0x546 JUMPI DUP1 PUSH4 0x981B24D0 EQ PUSH2 0x55B JUMPI DUP1 PUSH4 0x9AB24EB0 EQ PUSH2 0x57B JUMPI DUP1 PUSH4 0xA8BB6696 EQ PUSH2 0x59B JUMPI DUP1 PUSH4 0xC2C4C5C1 EQ PUSH2 0x5BB JUMPI PUSH1 0x0 DUP1 REVERT JUMPDEST DUP1 PUSH4 0x715018A6 EQ PUSH2 0x4DE JUMPI DUP1 PUSH4 0x8DA5CB5B EQ PUSH2 0x4F3 JUMPI DUP1 PUSH4 0x8E539E8C EQ PUSH2 0x511 JUMPI DUP1 PUSH4 0x95B3AA19 EQ PUSH2 0x531 JUMPI PUSH1 0x0 DUP1 REVERT JUMPDEST DUP1 PUSH4 0x4F1EF286 GT PUSH2 0x19B JUMPI DUP1 PUSH4 0x5C19A95C GT PUSH2 0x16A JUMPI DUP1 PUSH4 0x5C19A95C EQ PUSH2 0x3C5 JUMPI DUP1 PUSH4 0x67AFD1CC EQ PUSH2 0x3E5 JUMPI DUP1 PUSH4 0x6909221D EQ PUSH2 0x468 JUMPI DUP1 PUSH4 0x6FCFFF45 EQ PUSH2 0x488 JUMPI DUP1 PUSH4 0x70A08231 EQ PUSH2 0x4BE JUMPI PUSH1 0x0 DUP1 REVERT JUMPDEST DUP1 PUSH4 0x4F1EF286 EQ PUSH2 0x34E JUMPI DUP1 PUSH4 0x52D1902D EQ PUSH2 0x361 JUMPI DUP1 PUSH4 0x5719098B EQ PUSH2 0x376 JUMPI DUP1 PUSH4 0x587CDE1E EQ PUSH2 0x38C JUMPI PUSH1 0x0 DUP1 REVERT JUMPDEST DUP1 PUSH4 0x3659CFE6 GT PUSH2 0x1D7 JUMPI DUP1 PUSH4 0x3659CFE6 EQ PUSH2 0x2D7 JUMPI DUP1 PUSH4 0x3A46B1A8 EQ PUSH2 0x2F9 JUMPI DUP1 PUSH4 0x3CCFD60B EQ PUSH2 0x319 JUMPI DUP1 PUSH4 0x4EE2CD7E EQ PUSH2 0x32E JUMPI PUSH1 0x0 DUP1 REVERT JUMPDEST DUP1 PUSH4 0x6FDDE03 EQ PUSH2 0x209 JUMPI DUP1 PUSH4 0x11CDE220 EQ PUSH2 0x234 JUMPI DUP1 PUSH4 0x18160DDD EQ PUSH2 0x292 JUMPI DUP1 PUSH4 0x313CE567 EQ PUSH2 0x2B5 JUMPI JUMPDEST PUSH1 0x0 DUP1 REVERT JUMPDEST CALLVALUE DUP1 ISZERO PUSH2 0x215 JUMPI PUSH1 0x0 DUP1 REVERT JUMPDEST POP PUSH2 0x21E PUSH2 0x742 JUMP JUMPDEST PUSH1 0x40 MLOAD PUSH2 0x22B SWAP2 SWAP1 PUSH2 0x319E JUMP JUMPDEST PUSH1 0x40 MLOAD DUP1 SWAP2 SUB SWAP1 RETURN JUMPDEST CALLVALUE DUP1 ISZERO PUSH2 0x240 JUMPI PUSH1 0x0 DUP1 REVERT JUMPDEST POP PUSH2 0x254 PUSH2 0x24F CALLDATASIZE PUSH1 0x4 PUSH2 0x31ED JUMP JUMPDEST PUSH2 0x7D4 JUMP JUMPDEST PUSH1 0x40 MLOAD PUSH2 0x22B SWAP2 SWAP1 PUSH1 0x0 PUSH1 0x80 DUP3 ADD SWAP1 POP DUP3 MLOAD PUSH1 0xF SIGNEXTEND DUP3 MSTORE PUSH1 0x20 DUP4 ADD MLOAD PUSH1 0xF SIGNEXTEND PUSH1 0x20 DUP4 ADD MSTORE PUSH1 0x40 DUP4 ADD MLOAD PUSH1 0x40 DUP4 ADD MSTORE PUSH1 0x60 DUP4 ADD MLOAD PUSH1 0x60 DUP4 ADD MSTORE SWAP3 SWAP2 POP POP JUMP JUMPDEST CALLVALUE DUP1 ISZERO PUSH2 0x29E JUMPI PUSH1 0x0 DUP1 REVERT JUMPDEST POP PUSH2 0x2A7 PUSH2 0x863 JUMP JUMPDEST PUSH1 0x40 MLOAD SWAP1 DUP2 MSTORE PUSH1 0x20 ADD PUSH2 0x22B JUMP JUMPDEST CALLVALUE DUP1 ISZERO PUSH2 0x2C1 JUMPI PUSH1 0x0 DUP1 REVERT JUMPDEST POP PUSH1 0xCB SLOAD PUSH1 0x40 MLOAD PUSH1 0xFF SWAP1 SWAP2 AND DUP2 MSTORE PUSH1 0x20 ADD PUSH2 0x22B JUMP JUMPDEST CALLVALUE DUP1 ISZERO PUSH2 0x2E3 JUMPI PUSH1 0x0 DUP1 REVERT JUMPDEST POP PUSH2 0x2F7 PUSH2 0x2F2 CALLDATASIZE PUSH1 0x4 PUSH2 0x31ED JUMP JUMPDEST PUSH2 0x8E7 JUMP JUMPDEST STOP JUMPDEST CALLVALUE DUP1 ISZERO PUSH2 0x305 JUMPI PUSH1 0x0 DUP1 REVERT JUMPDEST POP PUSH2 0x2A7 PUSH2 0x314 CALLDATASIZE PUSH1 0x4 PUSH2 0x3208 JUMP JUMPDEST PUSH2 0x9D0 JUMP JUMPDEST CALLVALUE DUP1 ISZERO PUSH2 0x325 JUMPI PUSH1 0x0 DUP1 REVERT JUMPDEST POP PUSH2 0x2F7 PUSH2 0x9E5 JUMP JUMPDEST CALLVALUE DUP1 ISZERO PUSH2 0x33A JUMPI PUSH1 0x0 DUP1 REVERT JUMPDEST POP PUSH2 0x2A7 PUSH2 0x349 CALLDATASIZE PUSH1 0x4 PUSH2 0x3208 JUMP JUMPDEST PUSH2 0xBCB JUMP JUMPDEST PUSH2 0x2F7 PUSH2 0x35C CALLDATASIZE PUSH1 0x4 PUSH2 0x32A1 JUMP JUMPDEST PUSH2 0xFC4 JUMP JUMPDEST CALLVALUE DUP1 ISZERO PUSH2 0x36D JUMPI PUSH1 0x0 DUP1 REVERT JUMPDEST POP PUSH2 0x2A7 PUSH2 0x1095 JUMP JUMPDEST CALLVALUE DUP1 ISZERO PUSH2 0x382 JUMPI PUSH1 0x0 DUP1 REVERT JUMPDEST POP PUSH2 0x2A7 PUSH1 0xCF SLOAD DUP2 JUMP JUMPDEST CALLVALUE DUP1 ISZERO PUSH2 0x398 JUMPI PUSH1 0x0 DUP1 REVERT JUMPDEST POP PUSH2 0x3AD PUSH2 0x3A7 CALLDATASIZE PUSH1 0x4 PUSH2 0x31ED JUMP JUMPDEST POP PUSH1 0x0 SWAP1 JUMP JUMPDEST PUSH1 0x40 MLOAD PUSH1 0x1 PUSH1 0x1 PUSH1 0xA0 SHL SUB SWAP1 SWAP2 AND DUP2 MSTORE PUSH1 0x20 ADD PUSH2 0x22B JUMP JUMPDEST CALLVALUE DUP1 ISZERO PUSH2 0x3D1 JUMPI PUSH1 0x0 DUP1 REVERT JUMPDEST POP PUSH2 0x2F7 PUSH2 0x3E0 CALLDATASIZE PUSH1 0x4 PUSH2 0x31ED JUMP JUMPDEST PUSH2 0x1148 JUMP JUMPDEST CALLVALUE DUP1 ISZERO PUSH2 0x3F1 JUMPI PUSH1 0x0 DUP1 REVERT JUMPDEST POP PUSH2 0x44A PUSH2 0x400 CALLDATASIZE PUSH1 0x4 PUSH2 0x31ED JUMP JUMPDEST PUSH1 0x40 DUP1 MLOAD DUP1 DUP3 ADD SWAP1 SWAP2 MSTORE PUSH1 0x0 DUP1 DUP3 MSTORE PUSH1 0x20 DUP3 ADD MSTORE POP PUSH1 0x1 PUSH1 0x1 PUSH1 0xA0 SHL SUB AND PUSH1 0x0 SWAP1 DUP2 MSTORE PUSH1 0xD0 PUSH1 0x20 SWAP1 DUP2 MSTORE PUSH1 0x40 SWAP2 DUP3 SWAP1 KECCAK256 DUP3 MLOAD DUP1 DUP5 ADD SWAP1 SWAP4 MSTORE DUP1 SLOAD PUSH1 0xF SIGNEXTEND DUP4 MSTORE PUSH1 0x1 ADD SLOAD SWAP1 DUP3 ADD MSTORE SWAP1 JUMP JUMPDEST PUSH1 0x40 DUP1 MLOAD DUP3 MLOAD PUSH1 0xF SIGNEXTEND DUP2 MSTORE PUSH1 0x20 SWAP3 DUP4 ADD MLOAD SWAP3 DUP2 ADD SWAP3 SWAP1 SWAP3 MSTORE ADD PUSH2 0x22B JUMP JUMPDEST CALLVALUE DUP1 ISZERO PUSH2 0x474 JUMPI PUSH1 0x0 DUP1 REVERT JUMPDEST POP PUSH2 0x254 PUSH2 0x483 CALLDATASIZE PUSH1 0x4 PUSH2 0x3346 JUMP JUMPDEST PUSH2 0x1190 JUMP JUMPDEST CALLVALUE DUP1 ISZERO PUSH2 0x494 JUMPI PUSH1 0x0 DUP1 REVERT JUMPDEST POP PUSH2 0x2A7 PUSH2 0x4A3 CALLDATASIZE PUSH1 0x4 PUSH2 0x31ED JUMP JUMPDEST PUSH1 0x1 PUSH1 0x1 PUSH1 0xA0 SHL SUB AND PUSH1 0x0 SWAP1 DUP2 MSTORE PUSH1 0xCC PUSH1 0x20 MSTORE PUSH1 0x40 SWAP1 KECCAK256 SLOAD SWAP1 JUMP JUMPDEST CALLVALUE DUP1 ISZERO PUSH2 0x4CA JUMPI PUSH1 0x0 DUP1 REVERT JUMPDEST POP PUSH2 0x2A7 PUSH2 0x4D9 CALLDATASIZE PUSH1 0x4 PUSH2 0x31ED JUMP JUMPDEST PUSH2 0x11B1 JUMP JUMPDEST CALLVALUE DUP1 ISZERO PUSH2 0x4EA JUMPI PUSH1 0x0 DUP1 REVERT JUMPDEST POP PUSH2 0x2F7 PUSH2 0x12A4 JUMP JUMPDEST CALLVALUE DUP1 ISZERO PUSH2 0x4FF JUMPI PUSH1 0x0 DUP1 REVERT JUMPDEST POP PUSH1 0x33 SLOAD PUSH1 0x1 PUSH1 0x1 PUSH1 0xA0 SHL SUB AND PUSH2 0x3AD JUMP JUMPDEST CALLVALUE DUP1 ISZERO PUSH2 0x51D JUMPI PUSH1 0x0 DUP1 REVERT JUMPDEST POP PUSH2 0x2A7 PUSH2 0x52C CALLDATASIZE PUSH1 0x4 PUSH2 0x3361 JUMP JUMPDEST PUSH2 0x12DA JUMP JUMPDEST CALLVALUE DUP1 ISZERO PUSH2 0x53D JUMPI PUSH1 0x0 DUP1 REVERT JUMPDEST POP PUSH2 0x254 PUSH2 0x12E5 JUMP JUMPDEST CALLVALUE DUP1 ISZERO PUSH2 0x552 JUMPI PUSH1 0x0 DUP1 REVERT JUMPDEST POP PUSH2 0x21E PUSH2 0x135D JUMP JUMPDEST CALLVALUE DUP1 ISZERO PUSH2 0x567 JUMPI PUSH1 0x0 DUP1 REVERT JUMPDEST POP PUSH2 0x2A7 PUSH2 0x576 CALLDATASIZE PUSH1 0x4 PUSH2 0x3361 JUMP JUMPDEST PUSH2 0x136C JUMP JUMPDEST CALLVALUE DUP1 ISZERO PUSH2 0x587 JUMPI PUSH1 0x0 DUP1 REVERT JUMPDEST POP PUSH2 0x2A7 PUSH2 0x596 CALLDATASIZE PUSH1 0x4 PUSH2 0x31ED JUMP JUMPDEST PUSH2 0x1611 JUMP JUMPDEST CALLVALUE DUP1 ISZERO PUSH2 0x5A7 JUMPI PUSH1 0x0 DUP1 REVERT JUMPDEST POP PUSH2 0x2F7 PUSH2 0x5B6 CALLDATASIZE PUSH1 0x4 PUSH2 0x337A JUMP JUMPDEST PUSH2 0x161C JUMP JUMPDEST CALLVALUE DUP1 ISZERO PUSH2 0x5C7 JUMPI PUSH1 0x0 DUP1 REVERT JUMPDEST POP PUSH2 0x2F7 PUSH2 0x1984 JUMP JUMPDEST CALLVALUE DUP1 ISZERO PUSH2 0x5DC JUMPI PUSH1 0x0 DUP1 REVERT JUMPDEST POP PUSH2 0x2F7 PUSH2 0x5EB CALLDATASIZE PUSH1 0x4 PUSH2 0x33AB JUMP JUMPDEST PUSH2 0x198F JUMP JUMPDEST CALLVALUE DUP1 ISZERO PUSH2 0x5FC JUMPI PUSH1 0x0 DUP1 REVERT JUMPDEST POP PUSH2 0x2F7 PUSH2 0x60B CALLDATASIZE PUSH1 0x4 PUSH2 0x31ED JUMP JUMPDEST PUSH2 0x19E8 JUMP JUMPDEST CALLVALUE DUP1 ISZERO PUSH2 0x61C JUMPI PUSH1 0x0 DUP1 REVERT JUMPDEST POP PUSH1 0xCE SLOAD PUSH2 0x2A7 JUMP JUMPDEST CALLVALUE DUP1 ISZERO PUSH2 0x631 JUMPI PUSH1 0x0 DUP1 REVERT JUMPDEST POP PUSH2 0x660 PUSH2 0x640 CALLDATASIZE PUSH1 0x4 PUSH2 0x31ED JUMP JUMPDEST PUSH1 0xD0 PUSH1 0x20 MSTORE PUSH1 0x0 SWAP1 DUP2 MSTORE PUSH1 0x40 SWAP1 KECCAK256 DUP1 SLOAD PUSH1 0x1 SWAP1 SWAP2 ADD SLOAD PUSH1 0xF SWAP2 SWAP1 SWAP2 SIGNEXTEND SWAP1 DUP3 JUMP JUMPDEST PUSH1 0x40 DUP1 MLOAD PUSH1 0xF SWAP4 SWAP1 SWAP4 SIGNEXTEND DUP4 MSTORE PUSH1 0x20 DUP4 ADD SWAP2 SWAP1 SWAP2 MSTORE ADD PUSH2 0x22B JUMP JUMPDEST CALLVALUE DUP1 ISZERO PUSH2 0x686 JUMPI PUSH1 0x0 DUP1 REVERT JUMPDEST POP PUSH2 0x2A7 PUSH2 0x695 CALLDATASIZE PUSH1 0x4 PUSH2 0x31ED JUMP JUMPDEST PUSH1 0xCD PUSH1 0x20 MSTORE PUSH1 0x0 SWAP1 DUP2 MSTORE PUSH1 0x40 SWAP1 KECCAK256 SLOAD DUP2 JUMP JUMPDEST CALLVALUE DUP1 ISZERO PUSH2 0x6B3 JUMPI PUSH1 0x0 DUP1 REVERT JUMPDEST POP PUSH2 0x254 PUSH2 0x6C2 CALLDATASIZE PUSH1 0x4 PUSH2 0x3405 JUMP JUMPDEST PUSH2 0x1DA3 JUMP JUMPDEST CALLVALUE DUP1 ISZERO PUSH2 0x6D3 JUMPI PUSH1 0x0 DUP1 REVERT JUMPDEST POP PUSH2 0x2F7 PUSH2 0x6E2 CALLDATASIZE PUSH1 0x4 PUSH2 0x31ED JUMP JUMPDEST PUSH2 0x1E2E JUMP JUMPDEST CALLVALUE DUP1 ISZERO PUSH2 0x6F3 JUMPI PUSH1 0x0 DUP1 REVERT JUMPDEST POP PUSH2 0x717 PUSH2 0x702 CALLDATASIZE PUSH1 0x4 PUSH2 0x3361 JUMP JUMPDEST PUSH1 0xD1 PUSH1 0x20 MSTORE PUSH1 0x0 SWAP1 DUP2 MSTORE PUSH1 0x40 SWAP1 KECCAK256 SLOAD PUSH1 0xF SIGNEXTEND DUP2 JUMP JUMPDEST PUSH1 0x40 MLOAD PUSH1 0xF SWAP2 SWAP1 SWAP2 SIGNEXTEND DUP2 MSTORE PUSH1 0x20 ADD PUSH2 0x22B JUMP JUMPDEST CALLVALUE DUP1 ISZERO PUSH2 0x736 JUMPI PUSH1 0x0 DUP1 REVERT JUMPDEST POP PUSH2 0x2A7 PUSH4 0x784CE00 DUP2 JUMP JUMPDEST PUSH1 0x60 PUSH1 0xC9 DUP1 SLOAD PUSH2 0x751 SWAP1 PUSH2 0x3438 JUMP JUMPDEST DUP1 PUSH1 0x1F ADD PUSH1 0x20 DUP1 SWAP2 DIV MUL PUSH1 0x20 ADD PUSH1 0x40 MLOAD SWAP1 DUP2 ADD PUSH1 0x40 MSTORE DUP1 SWAP3 SWAP2 SWAP1 DUP2 DUP2 MSTORE PUSH1 0x20 ADD DUP3 DUP1 SLOAD PUSH2 0x77D SWAP1 PUSH2 0x3438 JUMP JUMPDEST DUP1 ISZERO PUSH2 0x7CA JUMPI DUP1 PUSH1 0x1F LT PUSH2 0x79F JUMPI PUSH2 0x100 DUP1 DUP4 SLOAD DIV MUL DUP4 MSTORE SWAP2 PUSH1 0x20 ADD SWAP2 PUSH2 0x7CA JUMP JUMPDEST DUP3 ADD SWAP2 SWAP1 PUSH1 0x0 MSTORE PUSH1 0x20 PUSH1 0x0 KECCAK256 SWAP1 JUMPDEST DUP2 SLOAD DUP2 MSTORE SWAP1 PUSH1 0x1 ADD SWAP1 PUSH1 0x20 ADD DUP1 DUP4 GT PUSH2 0x7AD JUMPI DUP3 SWAP1 SUB PUSH1 0x1F AND DUP3 ADD SWAP2 JUMPDEST POP POP POP POP POP SWAP1 POP SWAP1 JUMP JUMPDEST PUSH2 0x7DC PUSH2 0x30B4 JUMP JUMPDEST PUSH1 0x1 PUSH1 0x1 PUSH1 0xA0 SHL SUB DUP3 AND PUSH1 0x0 SWAP1 DUP2 MSTORE PUSH1 0xCC PUSH1 0x20 MSTORE PUSH1 0x40 SWAP1 KECCAK256 DUP1 SLOAD PUSH2 0x802 SWAP1 PUSH1 0x1 SWAP1 PUSH2 0x3489 JUMP JUMPDEST DUP2 SLOAD DUP2 LT PUSH2 0x812 JUMPI PUSH2 0x812 PUSH2 0x34A0 JUMP JUMPDEST PUSH1 0x0 SWAP2 DUP3 MSTORE PUSH1 0x20 SWAP2 DUP3 SWAP1 KECCAK256 PUSH1 0x40 DUP1 MLOAD PUSH1 0x80 DUP2 ADD DUP3 MSTORE PUSH1 0x3 SWAP1 SWAP4 MUL SWAP1 SWAP2 ADD DUP1 SLOAD PUSH1 0xF DUP2 DUP2 SIGNEXTEND DUP6 MSTORE PUSH1 0x1 PUSH1 0x80 SHL SWAP1 SWAP2 DIV SWAP1 SIGNEXTEND SWAP4 DUP4 ADD SWAP4 SWAP1 SWAP4 MSTORE PUSH1 0x1 DUP4 ADD SLOAD SWAP1 DUP3 ADD MSTORE PUSH1 0x2 SWAP1 SWAP2 ADD SLOAD PUSH1 0x60 DUP3 ADD MSTORE SWAP3 SWAP2 POP POP JUMP JUMPDEST PUSH1 0xCE SLOAD PUSH1 0x0 SWAP1 PUSH2 0x873 JUMPI POP PUSH1 0x0 SWAP1 JUMP JUMPDEST PUSH1 0x0 PUSH1 0xCE PUSH1 0xCF SLOAD DUP2 SLOAD DUP2 LT PUSH2 0x88A JUMPI PUSH2 0x88A PUSH2 0x34A0 JUMP JUMPDEST PUSH1 0x0 SWAP2 DUP3 MSTORE PUSH1 0x20 SWAP2 DUP3 SWAP1 KECCAK256 PUSH1 0x40 DUP1 MLOAD PUSH1 0x80 DUP2 ADD DUP3 MSTORE PUSH1 0x3 SWAP1 SWAP4 MUL SWAP1 SWAP2 ADD DUP1 SLOAD PUSH1 0xF DUP2 DUP2 SIGNEXTEND DUP6 MSTORE PUSH1 0x1 PUSH1 0x80 SHL SWAP1 SWAP2 DIV SWAP1 SIGNEXTEND SWAP4 DUP4 ADD SWAP4 SWAP1 SWAP4 MSTORE PUSH1 0x1 DUP4 ADD SLOAD SWAP1 DUP3 ADD MSTORE PUSH1 0x2 SWAP1 SWAP2 ADD SLOAD PUSH1 0x60 DUP3 ADD MSTORE SWAP1 POP PUSH2 0x8E1 DUP2 TIMESTAMP PUSH2 0x1ED5 JUMP JUMPDEST SWAP2 POP POP SWAP1 JUMP JUMPDEST ADDRESS PUSH1 0x1 PUSH1 0x1 PUSH1 0xA0 SHL SUB PUSH32 0x0 AND EQ ISZERO PUSH2 0x939 JUMPI PUSH1 0x40 MLOAD PUSH3 0x461BCD PUSH1 0xE5 SHL DUP2 MSTORE PUSH1 0x4 ADD PUSH2 0x930 SWAP1 PUSH2 0x34B6 JUMP JUMPDEST PUSH1 0x40 MLOAD DUP1 SWAP2 SUB SWAP1 REVERT JUMPDEST PUSH32 0x0 PUSH1 0x1 PUSH1 0x1 PUSH1 0xA0 SHL SUB AND PUSH2 0x982 PUSH1 0x0 DUP1 MLOAD PUSH1 0x20 PUSH2 0x3975 DUP4 CODECOPY DUP2 MLOAD SWAP2 MSTORE SLOAD PUSH1 0x1 PUSH1 0x1 PUSH1 0xA0 SHL SUB AND SWAP1 JUMP JUMPDEST PUSH1 0x1 PUSH1 0x1 PUSH1 0xA0 SHL SUB AND EQ PUSH2 0x9A8 JUMPI PUSH1 0x40 MLOAD PUSH3 0x461BCD PUSH1 0xE5 SHL DUP2 MSTORE PUSH1 0x4 ADD PUSH2 0x930 SWAP1 PUSH2 0x3502 JUMP JUMPDEST PUSH2 0x9B1 DUP2 PUSH2 0x1FB3 JUMP JUMPDEST PUSH1 0x40 DUP1 MLOAD PUSH1 0x0 DUP1 DUP3 MSTORE PUSH1 0x20 DUP3 ADD SWAP1 SWAP3 MSTORE PUSH2 0x9CD SWAP2 DUP4 SWAP2 SWAP1 PUSH2 0x1FDD JUMP JUMPDEST POP JUMP JUMPDEST PUSH1 0x0 PUSH2 0x9DC DUP4 DUP4 PUSH2 0xBCB JUMP JUMPDEST SWAP1 POP JUMPDEST SWAP3 SWAP2 POP POP JUMP JUMPDEST PUSH1 0x40 DUP1 MLOAD DUP1 DUP3 ADD DUP3 MSTORE CALLER PUSH1 0x0 DUP2 DUP2 MSTORE PUSH1 0xD0 PUSH1 0x20 DUP2 DUP2 MSTORE DUP6 DUP4 KECCAK256 DUP1 SLOAD PUSH1 0xF SIGNEXTEND DUP7 MSTORE SWAP4 SWAP1 SWAP3 MSTORE DUP2 MSTORE PUSH1 0x1 SWAP1 SWAP2 ADD SLOAD DUP2 DUP4 ADD DUP2 DUP2 MSTORE DUP5 MLOAD DUP1 DUP7 ADD SWAP1 SWAP6 MSTORE PUSH1 0x12 DUP6 MSTORE PUSH18 0x2637B1B5BAB81032BC3834B932B99030BA1 PUSH1 0x75 SHL SWAP3 DUP6 ADD SWAP3 SWAP1 SWAP3 MSTORE SWAP1 MLOAD SWAP2 SWAP3 TIMESTAMP SWAP2 SWAP1 SWAP2 LT ISZERO SWAP2 PUSH2 0xA54 SWAP1 PUSH2 0x214D JUMP JUMPDEST PUSH1 0x40 MLOAD DUP1 PUSH1 0x40 ADD PUSH1 0x40 MSTORE DUP1 PUSH1 0x9 DUP2 MSTORE PUSH1 0x20 ADD PUSH9 0x16103737BB9034B99 PUSH1 0xBD SHL DUP2 MSTORE POP PUSH2 0xA7F TIMESTAMP PUSH2 0x214D JUMP JUMPDEST PUSH1 0x40 MLOAD PUSH1 0x20 ADD PUSH2 0xA92 SWAP5 SWAP4 SWAP3 SWAP2 SWAP1 PUSH2 0x354E JUMP JUMPDEST PUSH1 0x40 MLOAD PUSH1 0x20 DUP2 DUP4 SUB SUB DUP2 MSTORE SWAP1 PUSH1 0x40 MSTORE SWAP1 PUSH2 0xABF JUMPI PUSH1 0x40 MLOAD PUSH3 0x461BCD PUSH1 0xE5 SHL DUP2 MSTORE PUSH1 0x4 ADD PUSH2 0x930 SWAP2 SWAP1 PUSH2 0x319E JUMP JUMPDEST POP PUSH1 0x0 DUP2 PUSH1 0x0 ADD MLOAD PUSH1 0xF SIGNEXTEND SGT PUSH2 0xB0E JUMPI PUSH1 0x40 MLOAD PUSH3 0x461BCD PUSH1 0xE5 SHL DUP2 MSTORE PUSH1 0x20 PUSH1 0x4 DUP3 ADD MSTORE PUSH1 0x14 PUSH1 0x24 DUP3 ADD MSTORE PUSH20 0x4C6F636B757020686173206E6F20746F6B656E73 PUSH1 0x60 SHL PUSH1 0x44 DUP3 ADD MSTORE PUSH1 0x64 ADD PUSH2 0x930 JUMP JUMPDEST PUSH1 0x40 DUP1 MLOAD DUP1 DUP3 ADD DUP3 MSTORE PUSH1 0x0 DUP1 DUP3 MSTORE PUSH1 0x20 DUP1 DUP4 ADD DUP3 DUP2 MSTORE CALLER DUP4 MSTORE PUSH1 0xD0 SWAP1 SWAP2 MSTORE SWAP3 DUP2 KECCAK256 DUP3 MLOAD DUP2 SLOAD PUSH1 0x1 PUSH1 0x1 PUSH1 0x80 SHL SUB NOT AND PUSH1 0x1 PUSH1 0x1 PUSH1 0x80 SHL SUB SWAP1 SWAP2 AND OR DUP2 SSTORE SWAP3 MLOAD PUSH1 0x1 SWAP1 SWAP4 ADD SWAP3 SWAP1 SWAP3 SSTORE DUP3 MLOAD SWAP1 SWAP2 SWAP1 PUSH2 0xB67 SWAP1 PUSH1 0xF SIGNEXTEND PUSH2 0x224B JUMP JUMPDEST PUSH1 0xD2 SLOAD SWAP1 SWAP2 POP PUSH2 0xB81 SWAP1 PUSH1 0x1 PUSH1 0x1 PUSH1 0xA0 SHL SUB AND CALLER DUP4 PUSH2 0x22A1 JUMP JUMPDEST PUSH2 0xB8C CALLER DUP5 DUP5 PUSH2 0x2304 JUMP JUMPDEST PUSH1 0x40 DUP1 MLOAD DUP3 DUP2 MSTORE TIMESTAMP PUSH1 0x20 DUP3 ADD MSTORE CALLER SWAP2 PUSH32 0xF279E6A1F5E320CCA91135676D9CB6E44CA8A08C0B88342BCDB1144F6511B568 SWAP2 ADD PUSH1 0x40 MLOAD DUP1 SWAP2 SUB SWAP1 LOG2 POP POP POP JUMP JUMPDEST PUSH1 0x0 NUMBER DUP3 GT ISZERO PUSH2 0xC1D JUMPI PUSH1 0x40 MLOAD PUSH3 0x461BCD PUSH1 0xE5 SHL DUP2 MSTORE PUSH1 0x20 PUSH1 0x4 DUP3 ADD MSTORE PUSH1 0x1D PUSH1 0x24 DUP3 ADD MSTORE PUSH32 0x426C6F636B206E756D62657220697320696E2074686520667574757265000000 PUSH1 0x44 DUP3 ADD MSTORE PUSH1 0x64 ADD PUSH2 0x930 JUMP JUMPDEST PUSH1 0x1 PUSH1 0x1 PUSH1 0xA0 SHL SUB DUP4 AND PUSH1 0x0 SWAP1 DUP2 MSTORE PUSH1 0xCC PUSH1 0x20 SWAP1 DUP2 MSTORE PUSH1 0x40 DUP1 DUP4 KECCAK256 DUP1 SLOAD DUP3 MLOAD DUP2 DUP6 MUL DUP2 ADD DUP6 ADD SWAP1 SWAP4 MSTORE DUP1 DUP4 MSTORE PUSH2 0xCD4 SWAP4 DUP6 SWAP1 DUP5 ADD JUMPDEST DUP3 DUP3 LT ISZERO PUSH2 0xCB0 JUMPI PUSH1 0x0 DUP5 DUP2 MSTORE PUSH1 0x20 SWAP1 DUP2 SWAP1 KECCAK256 PUSH1 0x40 DUP1 MLOAD PUSH1 0x80 DUP2 ADD DUP3 MSTORE PUSH1 0x3 DUP7 MUL SWAP1 SWAP3 ADD DUP1 SLOAD PUSH1 0xF DUP2 DUP2 SIGNEXTEND DUP6 MSTORE PUSH1 0x1 PUSH1 0x80 SHL SWAP1 SWAP2 DIV SWAP1 SIGNEXTEND DUP4 DUP6 ADD MSTORE PUSH1 0x1 DUP1 DUP3 ADD SLOAD SWAP3 DUP5 ADD SWAP3 SWAP1 SWAP3 MSTORE PUSH1 0x2 ADD SLOAD PUSH1 0x60 DUP4 ADD MSTORE SWAP1 DUP4 MSTORE SWAP1 SWAP3 ADD SWAP2 ADD PUSH2 0xC52 JUMP JUMPDEST POP POP POP PUSH1 0x1 PUSH1 0x1 PUSH1 0xA0 SHL SUB DUP8 AND PUSH1 0x0 SWAP1 DUP2 MSTORE PUSH1 0xCD PUSH1 0x20 MSTORE PUSH1 0x40 SWAP1 KECCAK256 SLOAD DUP7 SWAP2 POP PUSH2 0x2644 JUMP JUMPDEST SWAP1 POP DUP1 PUSH2 0xCE5 JUMPI PUSH1 0x0 SWAP2 POP POP PUSH2 0x9DF JUMP JUMPDEST PUSH1 0x1 PUSH1 0x1 PUSH1 0xA0 SHL SUB DUP5 AND PUSH1 0x0 SWAP1 DUP2 MSTORE PUSH1 0xCC PUSH1 0x20 MSTORE PUSH1 0x40 DUP2 KECCAK256 DUP1 SLOAD DUP4 SWAP1 DUP2 LT PUSH2 0xD0F JUMPI PUSH2 0xD0F PUSH2 0x34A0 JUMP JUMPDEST PUSH1 0x0 SWAP2 DUP3 MSTORE PUSH1 0x20 DUP1 DUP4 KECCAK256 PUSH1 0x40 DUP1 MLOAD PUSH1 0x80 DUP2 ADD DUP3 MSTORE PUSH1 0x3 SWAP1 SWAP5 MUL SWAP1 SWAP2 ADD DUP1 SLOAD PUSH1 0xF DUP2 DUP2 SIGNEXTEND DUP7 MSTORE PUSH1 0x1 PUSH1 0x80 SHL SWAP1 SWAP2 DIV SWAP1 SIGNEXTEND DUP5 DUP5 ADD MSTORE PUSH1 0x1 DUP2 ADD SLOAD DUP5 DUP4 ADD MSTORE PUSH1 0x2 ADD SLOAD PUSH1 0x60 DUP5 ADD MSTORE PUSH1 0xCE DUP1 SLOAD DUP3 MLOAD DUP2 DUP6 MUL DUP2 ADD DUP6 ADD SWAP1 SWAP4 MSTORE DUP1 DUP4 MSTORE SWAP4 SWAP6 POP PUSH2 0xDE3 SWAP4 SWAP2 SWAP3 SWAP1 SWAP2 SWAP1 DUP6 SWAP1 DUP5 ADD JUMPDEST DUP3 DUP3 LT ISZERO PUSH2 0xDD6 JUMPI PUSH1 0x0 DUP5 DUP2 MSTORE PUSH1 0x20 SWAP1 DUP2 SWAP1 KECCAK256 PUSH1 0x40 DUP1 MLOAD PUSH1 0x80 DUP2 ADD DUP3 MSTORE PUSH1 0x3 DUP7 MUL SWAP1 SWAP3 ADD DUP1 SLOAD PUSH1 0xF DUP2 DUP2 SIGNEXTEND DUP6 MSTORE PUSH1 0x1 PUSH1 0x80 SHL SWAP1 SWAP2 DIV SWAP1 SIGNEXTEND DUP4 DUP6 ADD MSTORE PUSH1 0x1 DUP1 DUP3 ADD SLOAD SWAP3 DUP5 ADD SWAP3 SWAP1 SWAP3 MSTORE PUSH1 0x2 ADD SLOAD PUSH1 0x60 DUP4 ADD MSTORE SWAP1 DUP4 MSTORE SWAP1 SWAP3 ADD SWAP2 ADD PUSH2 0xD78 JUMP JUMPDEST POP POP POP POP DUP7 PUSH1 0xCF SLOAD PUSH2 0x2644 JUMP JUMPDEST SWAP1 POP PUSH1 0x0 PUSH1 0xCE DUP3 DUP2 SLOAD DUP2 LT PUSH2 0xDFA JUMPI PUSH2 0xDFA PUSH2 0x34A0 JUMP JUMPDEST PUSH1 0x0 SWAP2 DUP3 MSTORE PUSH1 0x20 DUP1 DUP4 KECCAK256 PUSH1 0x40 DUP1 MLOAD PUSH1 0x80 DUP2 ADD DUP3 MSTORE PUSH1 0x3 SWAP1 SWAP5 MUL SWAP1 SWAP2 ADD DUP1 SLOAD PUSH1 0xF DUP2 DUP2 SIGNEXTEND DUP7 MSTORE PUSH1 0x1 PUSH1 0x80 SHL SWAP1 SWAP2 DIV SWAP1 SIGNEXTEND SWAP3 DUP5 ADD SWAP3 SWAP1 SWAP3 MSTORE PUSH1 0x1 DUP3 ADD SLOAD SWAP1 DUP4 ADD MSTORE PUSH1 0x2 ADD SLOAD PUSH1 0x60 DUP3 ADD MSTORE PUSH1 0xCF SLOAD SWAP1 SWAP3 POP DUP2 SWAP1 DUP5 LT ISZERO PUSH2 0xEEC JUMPI PUSH1 0x0 PUSH1 0xCE PUSH2 0xE60 DUP7 PUSH1 0x1 PUSH2 0x35A5 JUMP JUMPDEST DUP2 SLOAD DUP2 LT PUSH2 0xE70 JUMPI PUSH2 0xE70 PUSH2 0x34A0 JUMP JUMPDEST PUSH1 0x0 SWAP2 DUP3 MSTORE PUSH1 0x20 SWAP2 DUP3 SWAP1 KECCAK256 PUSH1 0x40 DUP1 MLOAD PUSH1 0x80 DUP2 ADD DUP3 MSTORE PUSH1 0x3 SWAP1 SWAP4 MUL SWAP1 SWAP2 ADD DUP1 SLOAD PUSH1 0xF DUP2 DUP2 SIGNEXTEND DUP6 MSTORE PUSH1 0x1 PUSH1 0x80 SHL SWAP1 SWAP2 DIV SWAP1 SIGNEXTEND SWAP4 DUP4 ADD SWAP4 SWAP1 SWAP4 MSTORE PUSH1 0x1 DUP4 ADD SLOAD SWAP1 DUP3 ADD MSTORE PUSH1 0x2 SWAP1 SWAP2 ADD SLOAD PUSH1 0x60 DUP1 DUP4 ADD DUP3 SWAP1 MSTORE DUP7 ADD MLOAD SWAP2 SWAP3 POP PUSH2 0xECE SWAP2 SWAP1 PUSH2 0x3489 JUMP JUMPDEST SWAP3 POP DUP4 PUSH1 0x40 ADD MLOAD DUP2 PUSH1 0x40 ADD MLOAD PUSH2 0xEE4 SWAP2 SWAP1 PUSH2 0x3489 JUMP JUMPDEST SWAP2 POP POP PUSH2 0xF10 JUMP JUMPDEST PUSH1 0x60 DUP4 ADD MLOAD PUSH2 0xEFB SWAP1 NUMBER PUSH2 0x3489 JUMP JUMPDEST SWAP2 POP DUP3 PUSH1 0x40 ADD MLOAD TIMESTAMP PUSH2 0xF0D SWAP2 SWAP1 PUSH2 0x3489 JUMP JUMPDEST SWAP1 POP JUMPDEST PUSH1 0x40 DUP4 ADD MLOAD DUP3 ISZERO PUSH2 0xF4D JUMPI DUP3 DUP5 PUSH1 0x60 ADD MLOAD DUP11 PUSH2 0xF2C SWAP2 SWAP1 PUSH2 0x3489 JUMP JUMPDEST PUSH2 0xF36 SWAP1 DUP5 PUSH2 0x35BD JUMP JUMPDEST PUSH2 0xF40 SWAP2 SWAP1 PUSH2 0x35F2 JUMP JUMPDEST PUSH2 0xF4A SWAP1 DUP3 PUSH2 0x35A5 JUMP JUMPDEST SWAP1 POP JUMPDEST PUSH2 0xF65 DUP7 PUSH1 0x40 ADD MLOAD DUP3 PUSH2 0xF60 SWAP2 SWAP1 PUSH2 0x3489 JUMP JUMPDEST PUSH2 0x26DE JUMP JUMPDEST DUP7 PUSH1 0x20 ADD MLOAD PUSH2 0xF74 SWAP2 SWAP1 PUSH2 0x3606 JUMP JUMPDEST DUP7 MLOAD DUP8 SWAP1 PUSH2 0xF83 SWAP1 DUP4 SWAP1 PUSH2 0x369B JUMP JUMPDEST PUSH1 0xF SWAP1 DUP2 SIGNEXTEND SWAP1 SWAP2 MSTORE DUP8 MLOAD PUSH1 0x0 SWAP2 SIGNEXTEND SLT SWAP1 POP PUSH2 0xFB4 JUMPI DUP6 MLOAD PUSH2 0xFA6 SWAP1 PUSH1 0xF SIGNEXTEND PUSH2 0x224B JUMP JUMPDEST SWAP8 POP POP POP POP POP POP POP POP PUSH2 0x9DF JUMP JUMPDEST PUSH1 0x0 SWAP8 POP POP POP POP POP POP POP POP PUSH2 0x9DF JUMP JUMPDEST ADDRESS PUSH1 0x1 PUSH1 0x1 PUSH1 0xA0 SHL SUB PUSH32 0x0 AND EQ ISZERO PUSH2 0x100D JUMPI PUSH1 0x40 MLOAD PUSH3 0x461BCD PUSH1 0xE5 SHL DUP2 MSTORE PUSH1 0x4 ADD PUSH2 0x930 SWAP1 PUSH2 0x34B6 JUMP JUMPDEST PUSH32 0x0 PUSH1 0x1 PUSH1 0x1 PUSH1 0xA0 SHL SUB AND PUSH2 0x1056 PUSH1 0x0 DUP1 MLOAD PUSH1 0x20 PUSH2 0x3975 DUP4 CODECOPY DUP2 MLOAD SWAP2 MSTORE SLOAD PUSH1 0x1 PUSH1 0x1 PUSH1 0xA0 SHL SUB AND SWAP1 JUMP JUMPDEST PUSH1 0x1 PUSH1 0x1 PUSH1 0xA0 SHL SUB AND EQ PUSH2 0x107C JUMPI PUSH1 0x40 MLOAD PUSH3 0x461BCD PUSH1 0xE5 SHL DUP2 MSTORE PUSH1 0x4 ADD PUSH2 0x930 SWAP1 PUSH2 0x3502 JUMP JUMPDEST PUSH2 0x1085 DUP3 PUSH2 0x1FB3 JUMP JUMPDEST PUSH2 0x1091 DUP3 DUP3 PUSH1 0x1 PUSH2 0x1FDD JUMP JUMPDEST POP POP JUMP JUMPDEST PUSH1 0x0 ADDRESS PUSH1 0x1 PUSH1 0x1 PUSH1 0xA0 SHL SUB PUSH32 0x0 AND EQ PUSH2 0x1135 JUMPI PUSH1 0x40 MLOAD PUSH3 0x461BCD PUSH1 0xE5 SHL DUP2 MSTORE PUSH1 0x20 PUSH1 0x4 DUP3 ADD MSTORE PUSH1 0x38 PUSH1 0x24 DUP3 ADD MSTORE PUSH32 0x555550535570677261646561626C653A206D757374206E6F742062652063616C PUSH1 0x44 DUP3 ADD MSTORE PUSH32 0x6C6564207468726F7567682064656C656761746563616C6C0000000000000000 PUSH1 0x64 DUP3 ADD MSTORE PUSH1 0x84 ADD PUSH2 0x930 JUMP JUMPDEST POP PUSH1 0x0 DUP1 MLOAD PUSH1 0x20 PUSH2 0x3975 DUP4 CODECOPY DUP2 MLOAD SWAP2 MSTORE SWAP1 JUMP JUMPDEST PUSH1 0x40 MLOAD PUSH3 0x461BCD PUSH1 0xE5 SHL DUP2 MSTORE PUSH1 0x20 PUSH1 0x4 DUP3 ADD MSTORE PUSH1 0x1B PUSH1 0x24 DUP3 ADD MSTORE PUSH32 0x44656C65676174696F6E206973206E6F7420737570706F727465640000000000 PUSH1 0x44 DUP3 ADD MSTORE PUSH1 0x64 ADD PUSH2 0x930 JUMP JUMPDEST PUSH2 0x1198 PUSH2 0x30B4 JUMP JUMPDEST PUSH1 0xCE DUP3 PUSH4 0xFFFFFFFF AND DUP2 SLOAD DUP2 LT PUSH2 0x812 JUMPI PUSH2 0x812 PUSH2 0x34A0 JUMP JUMPDEST PUSH1 0x1 PUSH1 0x1 PUSH1 0xA0 SHL SUB DUP2 AND PUSH1 0x0 SWAP1 DUP2 MSTORE PUSH1 0xCD PUSH1 0x20 MSTORE PUSH1 0x40 DUP2 KECCAK256 SLOAD DUP1 PUSH2 0x11D8 JUMPI POP PUSH1 0x0 SWAP3 SWAP2 POP POP JUMP JUMPDEST PUSH1 0x1 PUSH1 0x1 PUSH1 0xA0 SHL SUB DUP4 AND PUSH1 0x0 SWAP1 DUP2 MSTORE PUSH1 0xCC PUSH1 0x20 MSTORE PUSH1 0x40 DUP2 KECCAK256 DUP1 SLOAD DUP4 SWAP1 DUP2 LT PUSH2 0x1202 JUMPI PUSH2 0x1202 PUSH2 0x34A0 JUMP JUMPDEST PUSH1 0x0 SWAP2 DUP3 MSTORE PUSH1 0x20 SWAP2 DUP3 SWAP1 KECCAK256 PUSH1 0x40 DUP1 MLOAD PUSH1 0x80 DUP2 ADD DUP3 MSTORE PUSH1 0x3 SWAP1 SWAP4 MUL SWAP1 SWAP2 ADD DUP1 SLOAD PUSH1 0xF DUP2 DUP2 SIGNEXTEND DUP6 MSTORE PUSH1 0x1 PUSH1 0x80 SHL SWAP1 SWAP2 DIV SWAP1 SIGNEXTEND SWAP4 DUP4 ADD SWAP4 SWAP1 SWAP4 MSTORE PUSH1 0x1 DUP4 ADD SLOAD SWAP1 DUP3 ADD DUP2 SWAP1 MSTORE PUSH1 0x2 SWAP1 SWAP3 ADD SLOAD PUSH1 0x60 DUP3 ADD MSTORE SWAP2 POP PUSH2 0x125F SWAP1 PUSH2 0xF60 SWAP1 TIMESTAMP PUSH2 0x3489 JUMP JUMPDEST DUP2 PUSH1 0x20 ADD MLOAD PUSH2 0x126E SWAP2 SWAP1 PUSH2 0x3606 JUMP JUMPDEST DUP2 MLOAD DUP3 SWAP1 PUSH2 0x127D SWAP1 DUP4 SWAP1 PUSH2 0x369B JUMP JUMPDEST PUSH1 0xF SIGNEXTEND SWAP1 MSTORE POP DUP1 MLOAD PUSH2 0x129C SWAP1 PUSH2 0x1294 SWAP1 PUSH1 0x0 PUSH2 0x275B JUMP JUMPDEST PUSH1 0xF SIGNEXTEND PUSH2 0x224B JUMP JUMPDEST SWAP5 SWAP4 POP POP POP POP JUMP JUMPDEST PUSH1 0x33 SLOAD PUSH1 0x1 PUSH1 0x1 PUSH1 0xA0 SHL SUB AND CALLER EQ PUSH2 0x12CE JUMPI PUSH1 0x40 MLOAD PUSH3 0x461BCD PUSH1 0xE5 SHL DUP2 MSTORE PUSH1 0x4 ADD PUSH2 0x930 SWAP1 PUSH2 0x36EB JUMP JUMPDEST PUSH2 0x12D8 PUSH1 0x0 PUSH2 0x2778 JUMP JUMPDEST JUMP JUMPDEST PUSH1 0x0 PUSH2 0x9DF DUP3 PUSH2 0x136C JUMP JUMPDEST PUSH2 0x12ED PUSH2 0x30B4 JUMP JUMPDEST PUSH1 0xCE DUP1 SLOAD PUSH2 0x12FD SWAP1 PUSH1 0x1 SWAP1 PUSH2 0x3489 JUMP JUMPDEST DUP2 SLOAD DUP2 LT PUSH2 0x130D JUMPI PUSH2 0x130D PUSH2 0x34A0 JUMP JUMPDEST PUSH1 0x0 SWAP2 DUP3 MSTORE PUSH1 0x20 SWAP2 DUP3 SWAP1 KECCAK256 PUSH1 0x40 DUP1 MLOAD PUSH1 0x80 DUP2 ADD DUP3 MSTORE PUSH1 0x3 SWAP1 SWAP4 MUL SWAP1 SWAP2 ADD DUP1 SLOAD PUSH1 0xF DUP2 DUP2 SIGNEXTEND DUP6 MSTORE PUSH1 0x1 PUSH1 0x80 SHL SWAP1 SWAP2 DIV SWAP1 SIGNEXTEND SWAP4 DUP4 ADD SWAP4 SWAP1 SWAP4 MSTORE PUSH1 0x1 DUP4 ADD SLOAD SWAP1 DUP3 ADD MSTORE PUSH1 0x2 SWAP1 SWAP2 ADD SLOAD PUSH1 0x60 DUP3 ADD MSTORE SWAP2 SWAP1 POP JUMP JUMPDEST PUSH1 0x60 PUSH1 0xCA DUP1 SLOAD PUSH2 0x751 SWAP1 PUSH2 0x3438 JUMP JUMPDEST PUSH1 0x0 NUMBER DUP3 GT ISZERO PUSH2 0x13BE JUMPI PUSH1 0x40 MLOAD PUSH3 0x461BCD PUSH1 0xE5 SHL DUP2 MSTORE PUSH1 0x20 PUSH1 0x4 DUP3 ADD MSTORE PUSH1 0x1D PUSH1 0x24 DUP3 ADD MSTORE PUSH32 0x426C6F636B206E756D62657220697320696E2074686520667574757265000000 PUSH1 0x44 DUP3 ADD MSTORE PUSH1 0x64 ADD PUSH2 0x930 JUMP JUMPDEST PUSH1 0x0 PUSH2 0x1450 PUSH1 0xCE DUP1 SLOAD DUP1 PUSH1 0x20 MUL PUSH1 0x20 ADD PUSH1 0x40 MLOAD SWAP1 DUP2 ADD PUSH1 0x40 MSTORE DUP1 SWAP3 SWAP2 SWAP1 DUP2 DUP2 MSTORE PUSH1 0x20 ADD PUSH1 0x0 SWAP1 JUMPDEST DUP3 DUP3 LT ISZERO PUSH2 0x1443 JUMPI PUSH1 0x0 DUP5 DUP2 MSTORE PUSH1 0x20 SWAP1 DUP2 SWAP1 KECCAK256 PUSH1 0x40 DUP1 MLOAD PUSH1 0x80 DUP2 ADD DUP3 MSTORE PUSH1 0x3 DUP7 MUL SWAP1 SWAP3 ADD DUP1 SLOAD PUSH1 0xF DUP2 DUP2 SIGNEXTEND DUP6 MSTORE PUSH1 0x1 PUSH1 0x80 SHL SWAP1 SWAP2 DIV SWAP1 SIGNEXTEND DUP4 DUP6 ADD MSTORE PUSH1 0x1 DUP1 DUP3 ADD SLOAD SWAP3 DUP5 ADD SWAP3 SWAP1 SWAP3 MSTORE PUSH1 0x2 ADD SLOAD PUSH1 0x60 DUP4 ADD MSTORE SWAP1 DUP4 MSTORE SWAP1 SWAP3 ADD SWAP2 ADD PUSH2 0x13E5 JUMP JUMPDEST POP POP POP POP DUP5 PUSH1 0xCF SLOAD PUSH2 0x2644 JUMP JUMPDEST SWAP1 POP PUSH1 0x0 PUSH1 0xCE DUP3 DUP2 SLOAD DUP2 LT PUSH2 0x1467 JUMPI PUSH2 0x1467 PUSH2 0x34A0 JUMP JUMPDEST PUSH1 0x0 SWAP2 DUP3 MSTORE PUSH1 0x20 SWAP2 DUP3 SWAP1 KECCAK256 PUSH1 0x40 DUP1 MLOAD PUSH1 0x80 DUP2 ADD DUP3 MSTORE PUSH1 0x3 SWAP1 SWAP4 MUL SWAP1 SWAP2 ADD DUP1 SLOAD PUSH1 0xF DUP2 DUP2 SIGNEXTEND DUP6 MSTORE PUSH1 0x1 PUSH1 0x80 SHL SWAP1 SWAP2 DIV SWAP1 SIGNEXTEND SWAP4 DUP4 ADD SWAP4 SWAP1 SWAP4 MSTORE PUSH1 0x1 DUP4 ADD SLOAD SWAP1 DUP3 ADD MSTORE PUSH1 0x2 SWAP1 SWAP2 ADD SLOAD PUSH1 0x60 DUP3 ADD DUP2 SWAP1 MSTORE SWAP1 SWAP2 POP DUP5 LT ISZERO PUSH2 0x14C8 JUMPI POP PUSH1 0x0 SWAP4 SWAP3 POP POP POP JUMP JUMPDEST PUSH1 0x0 PUSH1 0xCF SLOAD DUP4 LT ISZERO PUSH2 0x15A0 JUMPI PUSH1 0x0 PUSH1 0xCE PUSH2 0x14E3 DUP6 PUSH1 0x1 PUSH2 0x35A5 JUMP JUMPDEST DUP2 SLOAD DUP2 LT PUSH2 0x14F3 JUMPI PUSH2 0x14F3 PUSH2 0x34A0 JUMP JUMPDEST PUSH1 0x0 SWAP2 DUP3 MSTORE PUSH1 0x20 SWAP2 DUP3 SWAP1 KECCAK256 PUSH1 0x40 DUP1 MLOAD PUSH1 0x80 DUP2 ADD DUP3 MSTORE PUSH1 0x3 SWAP1 SWAP4 MUL SWAP1 SWAP2 ADD DUP1 SLOAD PUSH1 0xF DUP2 DUP2 SIGNEXTEND DUP6 MSTORE PUSH1 0x1 PUSH1 0x80 SHL SWAP1 SWAP2 DIV SWAP1 SIGNEXTEND SWAP4 DUP4 ADD SWAP4 SWAP1 SWAP4 MSTORE PUSH1 0x1 DUP4 ADD SLOAD SWAP1 DUP3 ADD MSTORE PUSH1 0x2 SWAP1 SWAP2 ADD SLOAD PUSH1 0x60 DUP1 DUP4 ADD DUP3 SWAP1 MSTORE DUP6 ADD MLOAD SWAP2 SWAP3 POP EQ PUSH2 0x159A JUMPI DUP3 PUSH1 0x60 ADD MLOAD DUP2 PUSH1 0x60 ADD MLOAD PUSH2 0x1560 SWAP2 SWAP1 PUSH2 0x3489 JUMP JUMPDEST DUP4 PUSH1 0x40 ADD MLOAD DUP3 PUSH1 0x40 ADD MLOAD PUSH2 0x1574 SWAP2 SWAP1 PUSH2 0x3489 JUMP JUMPDEST PUSH1 0x60 DUP6 ADD MLOAD PUSH2 0x1583 SWAP1 DUP10 PUSH2 0x3489 JUMP JUMPDEST PUSH2 0x158D SWAP2 SWAP1 PUSH2 0x35BD JUMP JUMPDEST PUSH2 0x1597 SWAP2 SWAP1 PUSH2 0x35F2 JUMP JUMPDEST SWAP2 POP JUMPDEST POP PUSH2 0x15EF JUMP JUMPDEST NUMBER DUP3 PUSH1 0x60 ADD MLOAD EQ PUSH2 0x15EF JUMPI PUSH1 0x60 DUP3 ADD MLOAD PUSH2 0x15BA SWAP1 NUMBER PUSH2 0x3489 JUMP JUMPDEST PUSH1 0x40 DUP4 ADD MLOAD PUSH2 0x15C9 SWAP1 TIMESTAMP PUSH2 0x3489 JUMP JUMPDEST PUSH1 0x60 DUP5 ADD MLOAD PUSH2 0x15D8 SWAP1 DUP9 PUSH2 0x3489 JUMP JUMPDEST PUSH2 0x15E2 SWAP2 SWAP1 PUSH2 0x35BD JUMP JUMPDEST PUSH2 0x15EC SWAP2 SWAP1 PUSH2 0x35F2 JUMP JUMPDEST SWAP1 POP JUMPDEST PUSH2 0x1608 DUP3 DUP3 DUP5 PUSH1 0x40 ADD MLOAD PUSH2 0x1603 SWAP2 SWAP1 PUSH2 0x35A5 JUMP JUMPDEST PUSH2 0x1ED5 JUMP JUMPDEST SWAP6 SWAP5 POP POP POP POP POP JUMP JUMPDEST PUSH1 0x0 PUSH2 0x9DF DUP3 PUSH2 0x11B1 JUMP JUMPDEST PUSH2 0x1625 DUP2 PUSH2 0x27CA JUMP JUMPDEST CALLER PUSH1 0x0 SWAP1 DUP2 MSTORE PUSH1 0xD0 PUSH1 0x20 SWAP1 DUP2 MSTORE PUSH1 0x40 SWAP2 DUP3 SWAP1 KECCAK256 DUP3 MLOAD DUP1 DUP5 ADD SWAP1 SWAP4 MSTORE DUP1 SLOAD PUSH1 0xF SIGNEXTEND DUP4 MSTORE PUSH1 0x1 ADD SLOAD SWAP1 DUP3 ADD MSTORE SWAP1 SWAP2 POP TIMESTAMP DUP3 GT PUSH2 0x16BE JUMPI PUSH1 0x40 MLOAD PUSH3 0x461BCD PUSH1 0xE5 SHL DUP2 MSTORE PUSH1 0x20 PUSH1 0x4 DUP3 ADD MSTORE PUSH1 0x34 PUSH1 0x24 DUP3 ADD MSTORE PUSH32 0x456E64206D7573742062652067726561746572207468616E2074686520637572 PUSH1 0x44 DUP3 ADD MSTORE PUSH20 0x72656E7420626C6F636B2074696D657374616D7 PUSH1 0x64 SHL PUSH1 0x64 DUP3 ADD MSTORE PUSH1 0x84 ADD PUSH2 0x930 JUMP JUMPDEST PUSH1 0x0 DUP2 PUSH1 0x20 ADD MLOAD GT DUP1 ISZERO PUSH2 0x16D5 JUMPI POP DUP1 PUSH1 0x20 ADD MLOAD DUP3 LT JUMPDEST ISZERO PUSH2 0x173F JUMPI PUSH1 0x40 MLOAD PUSH3 0x461BCD PUSH1 0xE5 SHL DUP2 MSTORE PUSH1 0x20 PUSH1 0x4 DUP3 ADD MSTORE PUSH1 0x34 PUSH1 0x24 DUP3 ADD MSTORE PUSH32 0x456E64206D7573742062652067726561746572207468616E206F722065717561 PUSH1 0x44 DUP3 ADD MSTORE PUSH20 0x1B081D1BC81D1A194818DD5C9C995B9D08195B99 PUSH1 0x62 SHL PUSH1 0x64 DUP3 ADD MSTORE PUSH1 0x84 ADD PUSH2 0x930 JUMP JUMPDEST PUSH4 0x784CE00 PUSH2 0x174E TIMESTAMP DUP5 PUSH2 0x3489 JUMP JUMPDEST GT ISZERO PUSH2 0x17AB JUMPI PUSH1 0x40 MLOAD PUSH3 0x461BCD PUSH1 0xE5 SHL DUP2 MSTORE PUSH1 0x20 PUSH1 0x4 DUP3 ADD MSTORE PUSH1 0x26 PUSH1 0x24 DUP3 ADD MSTORE PUSH32 0x456E64206D757374206265206265666F7265206D6178696D756D206C6F636B75 PUSH1 0x44 DUP3 ADD MSTORE PUSH6 0x702074696D65 PUSH1 0xD0 SHL PUSH1 0x64 DUP3 ADD MSTORE PUSH1 0x84 ADD PUSH2 0x930 JUMP JUMPDEST PUSH1 0x0 PUSH2 0x17B6 DUP5 PUSH2 0x26DE JUMP JUMPDEST SWAP1 POP DUP2 PUSH1 0x0 ADD MLOAD PUSH1 0xF SIGNEXTEND DUP2 PUSH1 0xF SIGNEXTEND SLT ISZERO PUSH2 0x1831 JUMPI PUSH1 0x40 MLOAD PUSH3 0x461BCD PUSH1 0xE5 SHL DUP2 MSTORE PUSH1 0x20 PUSH1 0x4 DUP3 ADD MSTORE PUSH1 0x36 PUSH1 0x24 DUP3 ADD MSTORE PUSH32 0x416D6F756E74206D7573742062652067726561746572207468616E206F722065 PUSH1 0x44 DUP3 ADD MSTORE PUSH22 0x1C5D585B081D1BC818DD5C9C995B9D08185B5BDD5B9D PUSH1 0x52 SHL PUSH1 0x64 DUP3 ADD MSTORE PUSH1 0x84 ADD PUSH2 0x930 JUMP JUMPDEST DUP2 MLOAD PUSH1 0x0 SWAP1 PUSH2 0x1844 SWAP1 PUSH2 0x1294 SWAP1 DUP5 PUSH2 0x369B JUMP JUMPDEST PUSH1 0x40 DUP1 MLOAD DUP1 DUP3 ADD DUP3 MSTORE PUSH1 0xF DUP6 SWAP1 SIGNEXTEND DUP2 MSTORE PUSH1 0x20 DUP1 DUP3 ADD DUP9 DUP2 MSTORE CALLER PUSH1 0x0 SWAP1 DUP2 MSTORE PUSH1 0xD0 SWAP1 SWAP3 MSTORE SWAP3 SWAP1 KECCAK256 DUP2 MLOAD DUP2 SLOAD PUSH1 0x1 PUSH1 0x1 PUSH1 0x80 SHL SUB NOT AND PUSH1 0x1 PUSH1 0x1 PUSH1 0x80 SHL SUB SWAP1 SWAP2 AND OR DUP2 SSTORE SWAP2 MLOAD PUSH1 0x1 SWAP1 SWAP3 ADD SWAP2 SWAP1 SWAP2 SSTORE SWAP1 SWAP2 POP DUP2 ISZERO PUSH2 0x18B2 JUMPI PUSH1 0xD2 SLOAD PUSH2 0x18B2 SWAP1 PUSH1 0x1 PUSH1 0x1 PUSH1 0xA0 SHL SUB AND CALLER ADDRESS DUP6 PUSH2 0x27E4 JUMP JUMPDEST PUSH1 0x20 DUP5 ADD MLOAD ISZERO PUSH2 0x1924 JUMPI DUP4 MLOAD PUSH1 0x20 DUP1 DUP7 ADD MLOAD DUP4 MLOAD DUP5 DUP4 ADD MLOAD PUSH1 0x40 DUP1 MLOAD PUSH1 0xF SWAP7 DUP8 SIGNEXTEND DUP2 MSTORE SWAP5 DUP6 ADD SWAP4 SWAP1 SWAP4 MSTORE SWAP4 SIGNEXTEND SWAP1 DUP3 ADD MSTORE PUSH1 0x60 DUP2 ADD SWAP2 SWAP1 SWAP2 MSTORE TIMESTAMP PUSH1 0x80 DUP3 ADD MSTORE CALLER SWAP1 PUSH32 0x268A3D7EA661E9E2BD617021C94B431919691C0D21AA2EB3EA2B9644A5383D12 SWAP1 PUSH1 0xA0 ADD PUSH1 0x40 MLOAD DUP1 SWAP2 SUB SWAP1 LOG2 PUSH2 0x1971 JUMP JUMPDEST DUP1 MLOAD PUSH1 0x20 DUP1 DUP4 ADD MLOAD PUSH1 0x40 DUP1 MLOAD PUSH1 0xF SWAP5 SWAP1 SWAP5 SIGNEXTEND DUP5 MSTORE SWAP2 DUP4 ADD MSTORE TIMESTAMP SWAP1 DUP3 ADD MSTORE CALLER SWAP1 PUSH32 0x7006565168B74EDD823B144526503320D833B826EDEA3F82059CA1806A954FC3 SWAP1 PUSH1 0x60 ADD PUSH1 0x40 MLOAD DUP1 SWAP2 SUB SWAP1 LOG2 JUMPDEST PUSH2 0x197C CALLER DUP6 DUP4 PUSH2 0x2304 JUMP JUMPDEST POP POP POP POP POP POP JUMP JUMPDEST PUSH2 0x12D8 PUSH1 0x0 DUP1 PUSH2 0x2822 JUMP JUMPDEST PUSH1 0x40 MLOAD PUSH3 0x461BCD PUSH1 0xE5 SHL DUP2 MSTORE PUSH1 0x20 PUSH1 0x4 DUP3 ADD MSTORE PUSH1 0x28 PUSH1 0x24 DUP3 ADD MSTORE PUSH32 0x44656C65676174696F6E206279207369676E6174757265206973206E6F742073 PUSH1 0x44 DUP3 ADD MSTORE PUSH8 0x1D5C1C1BDC9D1959 PUSH1 0xC2 SHL PUSH1 0x64 DUP3 ADD MSTORE PUSH1 0x84 ADD PUSH2 0x930 JUMP JUMPDEST PUSH1 0x0 SLOAD PUSH2 0x100 SWAP1 DIV PUSH1 0xFF AND PUSH2 0x1A03 JUMPI PUSH1 0x0 SLOAD PUSH1 0xFF AND ISZERO PUSH2 0x1A07 JUMP JUMPDEST ADDRESS EXTCODESIZE ISZERO JUMPDEST PUSH2 0x1A6A JUMPI PUSH1 0x40 MLOAD PUSH3 0x461BCD PUSH1 0xE5 SHL DUP2 MSTORE PUSH1 0x20 PUSH1 0x4 DUP3 ADD MSTORE PUSH1 0x2E PUSH1 0x24 DUP3 ADD MSTORE PUSH32 0x496E697469616C697A61626C653A20636F6E747261637420697320616C726561 PUSH1 0x44 DUP3 ADD MSTORE PUSH14 0x191E481A5B9A5D1A585B1A5E9959 PUSH1 0x92 SHL PUSH1 0x64 DUP3 ADD MSTORE PUSH1 0x84 ADD PUSH2 0x930 JUMP JUMPDEST PUSH1 0x0 SLOAD PUSH2 0x100 SWAP1 DIV PUSH1 0xFF AND ISZERO DUP1 ISZERO PUSH2 0x1A8C JUMPI PUSH1 0x0 DUP1 SLOAD PUSH2 0xFFFF NOT AND PUSH2 0x101 OR SWAP1 SSTORE JUMPDEST PUSH2 0x1A94 PUSH2 0x2BF7 JUMP JUMPDEST PUSH2 0x1A9C PUSH2 0x2C26 JUMP JUMPDEST PUSH1 0xD2 DUP1 SLOAD PUSH1 0x1 PUSH1 0x1 PUSH1 0xA0 SHL SUB NOT AND PUSH1 0x1 PUSH1 0x1 PUSH1 0xA0 SHL SUB DUP5 AND SWAP1 DUP2 OR SWAP1 SWAP2 SSTORE PUSH1 0x40 DUP1 MLOAD DUP1 DUP3 ADD DUP3 MSTORE PUSH1 0xB DUP2 MSTORE PUSH11 0x159BDD1948131BD8DAD959 PUSH1 0xAA SHL PUSH1 0x20 DUP3 ADD MSTORE DUP2 MLOAD PUSH4 0x6FDDE03 PUSH1 0xE0 SHL DUP2 MSTORE SWAP2 MLOAD SWAP1 SWAP3 SWAP2 PUSH4 0x6FDDE03 SWAP2 PUSH1 0x4 DUP1 DUP4 ADD SWAP3 PUSH1 0x0 SWAP3 SWAP2 SWAP1 DUP3 SWAP1 SUB ADD DUP2 DUP7 GAS STATICCALL ISZERO DUP1 ISZERO PUSH2 0x1B16 JUMPI RETURNDATASIZE PUSH1 0x0 DUP1 RETURNDATACOPY RETURNDATASIZE PUSH1 0x0 REVERT JUMPDEST POP POP POP POP PUSH1 0x40 MLOAD RETURNDATASIZE PUSH1 0x0 DUP3 RETURNDATACOPY PUSH1 0x1F RETURNDATASIZE SWAP1 DUP2 ADD PUSH1 0x1F NOT AND DUP3 ADD PUSH1 0x40 MSTORE PUSH2 0x1B3E SWAP2 SWAP1 DUP2 ADD SWAP1 PUSH2 0x3720 JUMP JUMPDEST PUSH1 0x40 MLOAD PUSH1 0x20 ADD PUSH2 0x1B4F SWAP3 SWAP2 SWAP1 PUSH2 0x378E JUMP JUMPDEST PUSH1 0x40 MLOAD PUSH1 0x20 DUP2 DUP4 SUB SUB DUP2 MSTORE SWAP1 PUSH1 0x40 MSTORE PUSH1 0xC9 SWAP1 DUP1 MLOAD SWAP1 PUSH1 0x20 ADD SWAP1 PUSH2 0x1B73 SWAP3 SWAP2 SWAP1 PUSH2 0x30E2 JUMP JUMPDEST POP PUSH1 0x40 MLOAD DUP1 PUSH1 0x40 ADD PUSH1 0x40 MSTORE DUP1 PUSH1 0x2 DUP2 MSTORE PUSH1 0x20 ADD PUSH2 0x1D9B PUSH1 0xF2 SHL DUP2 MSTORE POP PUSH1 0xD2 PUSH1 0x0 SWAP1 SLOAD SWAP1 PUSH2 0x100 EXP SWAP1 DIV PUSH1 0x1 PUSH1 0x1 PUSH1 0xA0 SHL SUB AND PUSH1 0x1 PUSH1 0x1 PUSH1 0xA0 SHL SUB AND PUSH4 0x95D89B41 PUSH1 0x40 MLOAD DUP2 PUSH4 0xFFFFFFFF AND PUSH1 0xE0 SHL DUP2 MSTORE PUSH1 0x4 ADD PUSH1 0x0 PUSH1 0x40 MLOAD DUP1 DUP4 SUB DUP2 DUP7 GAS STATICCALL ISZERO DUP1 ISZERO PUSH2 0x1BE2 JUMPI RETURNDATASIZE PUSH1 0x0 DUP1 RETURNDATACOPY RETURNDATASIZE PUSH1 0x0 REVERT JUMPDEST POP POP POP POP PUSH1 0x40 MLOAD RETURNDATASIZE PUSH1 0x0 DUP3 RETURNDATACOPY PUSH1 0x1F RETURNDATASIZE SWAP1 DUP2 ADD PUSH1 0x1F NOT AND DUP3 ADD PUSH1 0x40 MSTORE PUSH2 0x1C0A SWAP2 SWAP1 DUP2 ADD SWAP1 PUSH2 0x3720 JUMP JUMPDEST PUSH1 0x40 MLOAD PUSH1 0x20 ADD PUSH2 0x1C1B SWAP3 SWAP2 SWAP1 PUSH2 0x37CA JUMP JUMPDEST PUSH1 0x40 MLOAD PUSH1 0x20 DUP2 DUP4 SUB SUB DUP2 MSTORE SWAP1 PUSH1 0x40 MSTORE PUSH1 0xCA SWAP1 DUP1 MLOAD SWAP1 PUSH1 0x20 ADD SWAP1 PUSH2 0x1C3F SWAP3 SWAP2 SWAP1 PUSH2 0x30E2 JUMP JUMPDEST POP PUSH1 0xD2 PUSH1 0x0 SWAP1 SLOAD SWAP1 PUSH2 0x100 EXP SWAP1 DIV PUSH1 0x1 PUSH1 0x1 PUSH1 0xA0 SHL SUB AND PUSH1 0x1 PUSH1 0x1 PUSH1 0xA0 SHL SUB AND PUSH4 0x313CE567 PUSH1 0x40 MLOAD DUP2 PUSH4 0xFFFFFFFF AND PUSH1 0xE0 SHL DUP2 MSTORE PUSH1 0x4 ADD PUSH1 0x20 PUSH1 0x40 MLOAD DUP1 DUP4 SUB DUP2 DUP7 GAS STATICCALL ISZERO DUP1 ISZERO PUSH2 0x1C93 JUMPI RETURNDATASIZE PUSH1 0x0 DUP1 RETURNDATACOPY RETURNDATASIZE PUSH1 0x0 REVERT JUMPDEST POP POP POP POP PUSH1 0x40 MLOAD RETURNDATASIZE PUSH1 0x1F NOT PUSH1 0x1F DUP3 ADD AND DUP3 ADD DUP1 PUSH1 0x40 MSTORE POP DUP2 ADD SWAP1 PUSH2 0x1CB7 SWAP2 SWAP1 PUSH2 0x37F9 JUMP JUMPDEST PUSH1 0xCB DUP1 SLOAD PUSH1 0xFF SWAP3 SWAP1 SWAP3 AND PUSH1 0xFF NOT SWAP1 SWAP3 AND SWAP2 SWAP1 SWAP2 OR SWAP1 SSTORE PUSH1 0x40 DUP1 MLOAD PUSH1 0x80 DUP2 ADD DUP3 MSTORE PUSH1 0x0 DUP1 DUP3 MSTORE PUSH1 0x20 DUP3 ADD DUP2 DUP2 MSTORE TIMESTAMP SWAP4 DUP4 ADD SWAP4 DUP5 MSTORE NUMBER PUSH1 0x60 DUP5 ADD SWAP1 DUP2 MSTORE PUSH1 0xCE DUP1 SLOAD PUSH1 0x1 DUP2 ADD DUP3 SSTORE SWAP4 MSTORE SWAP3 MLOAD SWAP1 MLOAD PUSH1 0x1 PUSH1 0x1 PUSH1 0x80 SHL SUB SWAP1 DUP2 AND PUSH1 0x1 PUSH1 0x80 SHL MUL SWAP2 AND OR PUSH1 0x3 SWAP1 SWAP2 MUL PUSH32 0xD36CD1C74EF8D7326D8021B776C18FB5A5724B7F7BC93C2F42E43E10EF27D12A DUP2 ADD SWAP2 SWAP1 SWAP2 SSTORE SWAP2 MLOAD PUSH32 0xD36CD1C74EF8D7326D8021B776C18FB5A5724B7F7BC93C2F42E43E10EF27D12B DUP4 ADD SSTORE MLOAD PUSH32 0xD36CD1C74EF8D7326D8021B776C18FB5A5724B7F7BC93C2F42E43E10EF27D12C SWAP1 SWAP2 ADD SSTORE DUP1 ISZERO PUSH2 0x1091 JUMPI PUSH1 0x0 DUP1 SLOAD PUSH2 0xFF00 NOT AND SWAP1 SSTORE POP POP JUMP JUMPDEST PUSH2 0x1DAB PUSH2 0x30B4 JUMP JUMPDEST PUSH1 0x1 PUSH1 0x1 PUSH1 0xA0 SHL SUB DUP4 AND PUSH1 0x0 SWAP1 DUP2 MSTORE PUSH1 0xCC PUSH1 0x20 MSTORE PUSH1 0x40 SWAP1 KECCAK256 DUP1 SLOAD PUSH4 0xFFFFFFFF DUP5 AND SWAP1 DUP2 LT PUSH2 0x1DDB JUMPI PUSH2 0x1DDB PUSH2 0x34A0 JUMP JUMPDEST PUSH1 0x0 SWAP2 DUP3 MSTORE PUSH1 0x20 SWAP2 DUP3 SWAP1 KECCAK256 PUSH1 0x40 DUP1 MLOAD PUSH1 0x80 DUP2 ADD DUP3 MSTORE PUSH1 0x3 SWAP1 SWAP4 MUL SWAP1 SWAP2 ADD DUP1 SLOAD PUSH1 0xF DUP2 DUP2 SIGNEXTEND DUP6 MSTORE PUSH1 0x1 PUSH1 0x80 SHL SWAP1 SWAP2 DIV SWAP1 SIGNEXTEND SWAP4 DUP4 ADD SWAP4 SWAP1 SWAP4 MSTORE PUSH1 0x1 DUP4 ADD SLOAD SWAP1 DUP3 ADD MSTORE PUSH1 0x2 SWAP1 SWAP2 ADD SLOAD PUSH1 0x60 DUP3 ADD MSTORE SWAP1 POP SWAP3 SWAP2 POP POP JUMP JUMPDEST PUSH1 0x33 SLOAD PUSH1 0x1 PUSH1 0x1 PUSH1 0xA0 SHL SUB AND CALLER EQ PUSH2 0x1E58 JUMPI PUSH1 0x40 MLOAD PUSH3 0x461BCD PUSH1 0xE5 SHL DUP2 MSTORE PUSH1 0x4 ADD PUSH2 0x930 SWAP1 PUSH2 0x36EB JUMP JUMPDEST PUSH1 0x1 PUSH1 0x1 PUSH1 0xA0 SHL SUB DUP2 AND PUSH2 0x1EBD JUMPI PUSH1 0x40 MLOAD PUSH3 0x461BCD PUSH1 0xE5 SHL DUP2 MSTORE PUSH1 0x20 PUSH1 0x4 DUP3 ADD MSTORE PUSH1 0x26 PUSH1 0x24 DUP3 ADD MSTORE PUSH32 0x4F776E61626C653A206E6577206F776E657220697320746865207A65726F2061 PUSH1 0x44 DUP3 ADD MSTORE PUSH6 0x646472657373 PUSH1 0xD0 SHL PUSH1 0x64 DUP3 ADD MSTORE PUSH1 0x84 ADD PUSH2 0x930 JUMP JUMPDEST PUSH2 0x9CD DUP2 PUSH2 0x2778 JUMP JUMPDEST PUSH1 0x1 PUSH1 0x1 PUSH1 0xA0 SHL SUB AND EXTCODESIZE ISZERO ISZERO SWAP1 JUMP JUMPDEST PUSH1 0x0 DUP1 DUP4 SWAP1 POP PUSH1 0x0 PUSH2 0x1EEA DUP3 PUSH1 0x40 ADD MLOAD PUSH2 0x27CA JUMP JUMPDEST SWAP1 POP PUSH1 0x0 JUMPDEST PUSH1 0xFF DUP2 LT ISZERO PUSH2 0x1FA0 JUMPI PUSH2 0x1F05 PUSH3 0x93A80 DUP4 PUSH2 0x35A5 JUMP JUMPDEST SWAP2 POP PUSH1 0x0 DUP6 DUP4 GT ISZERO PUSH2 0x1F19 JUMPI DUP6 SWAP3 POP PUSH2 0x1F2D JUMP JUMPDEST POP PUSH1 0x0 DUP3 DUP2 MSTORE PUSH1 0xD1 PUSH1 0x20 MSTORE PUSH1 0x40 SWAP1 KECCAK256 SLOAD PUSH1 0xF SIGNEXTEND JUMPDEST PUSH2 0x1F40 DUP5 PUSH1 0x40 ADD MLOAD DUP5 PUSH2 0xF60 SWAP2 SWAP1 PUSH2 0x3489 JUMP JUMPDEST DUP5 PUSH1 0x20 ADD MLOAD PUSH2 0x1F4F SWAP2 SWAP1 PUSH2 0x3606 JUMP JUMPDEST DUP5 MLOAD PUSH2 0x1F5B SWAP2 SWAP1 PUSH2 0x369B JUMP JUMPDEST PUSH1 0xF SIGNEXTEND DUP5 MSTORE DUP3 DUP7 EQ ISZERO PUSH2 0x1F6E JUMPI POP PUSH2 0x1FA0 JUMP JUMPDEST DUP1 DUP5 PUSH1 0x20 ADD MLOAD PUSH2 0x1F7E SWAP2 SWAP1 PUSH2 0x3816 JUMP JUMPDEST PUSH1 0xF SIGNEXTEND PUSH1 0x20 DUP6 ADD MSTORE POP PUSH1 0x40 DUP4 ADD DUP3 SWAP1 MSTORE DUP1 PUSH2 0x1F98 DUP2 PUSH2 0x3865 JUMP JUMPDEST SWAP2 POP POP PUSH2 0x1EEF JUMP JUMPDEST POP PUSH2 0x1608 PUSH2 0x1294 DUP4 PUSH1 0x0 ADD MLOAD PUSH1 0x0 PUSH2 0x275B JUMP JUMPDEST PUSH1 0x33 SLOAD PUSH1 0x1 PUSH1 0x1 PUSH1 0xA0 SHL SUB AND CALLER EQ PUSH2 0x9CD JUMPI PUSH1 0x40 MLOAD PUSH3 0x461BCD PUSH1 0xE5 SHL DUP2 MSTORE PUSH1 0x4 ADD PUSH2 0x930 SWAP1 PUSH2 0x36EB JUMP JUMPDEST PUSH32 0x4910FDFA16FED3260ED0E7147F7CC6DA11A60208B5B9406D12A635614FFD9143 SLOAD PUSH1 0xFF AND ISZERO PUSH2 0x2015 JUMPI PUSH2 0x2010 DUP4 PUSH2 0x2C4D JUMP JUMPDEST POP POP POP JUMP JUMPDEST DUP3 PUSH1 0x1 PUSH1 0x1 PUSH1 0xA0 SHL SUB AND PUSH4 0x52D1902D PUSH1 0x40 MLOAD DUP2 PUSH4 0xFFFFFFFF AND PUSH1 0xE0 SHL DUP2 MSTORE PUSH1 0x4 ADD PUSH1 0x20 PUSH1 0x40 MLOAD DUP1 DUP4 SUB DUP2 DUP7 GAS STATICCALL SWAP3 POP POP POP DUP1 ISZERO PUSH2 0x206F JUMPI POP PUSH1 0x40 DUP1 MLOAD PUSH1 0x1F RETURNDATASIZE SWAP1 DUP2 ADD PUSH1 0x1F NOT AND DUP3 ADD SWAP1 SWAP3 MSTORE PUSH2 0x206C SWAP2 DUP2 ADD SWAP1 PUSH2 0x3880 JUMP JUMPDEST PUSH1 0x1 JUMPDEST PUSH2 0x20D2 JUMPI PUSH1 0x40 MLOAD PUSH3 0x461BCD PUSH1 0xE5 SHL DUP2 MSTORE PUSH1 0x20 PUSH1 0x4 DUP3 ADD MSTORE PUSH1 0x2E PUSH1 0x24 DUP3 ADD MSTORE PUSH32 0x45524331393637557067726164653A206E657720696D706C656D656E74617469 PUSH1 0x44 DUP3 ADD MSTORE PUSH14 0x6F6E206973206E6F742055555053 PUSH1 0x90 SHL PUSH1 0x64 DUP3 ADD MSTORE PUSH1 0x84 ADD PUSH2 0x930 JUMP JUMPDEST PUSH1 0x0 DUP1 MLOAD PUSH1 0x20 PUSH2 0x3975 DUP4 CODECOPY DUP2 MLOAD SWAP2 MSTORE DUP2 EQ PUSH2 0x2141 JUMPI PUSH1 0x40 MLOAD PUSH3 0x461BCD PUSH1 0xE5 SHL DUP2 MSTORE PUSH1 0x20 PUSH1 0x4 DUP3 ADD MSTORE PUSH1 0x29 PUSH1 0x24 DUP3 ADD MSTORE PUSH32 0x45524331393637557067726164653A20756E737570706F727465642070726F78 PUSH1 0x44 DUP3 ADD MSTORE PUSH9 0x1A58589B1955555251 PUSH1 0xBA SHL PUSH1 0x64 DUP3 ADD MSTORE PUSH1 0x84 ADD PUSH2 0x930 JUMP JUMPDEST POP PUSH2 0x2010 DUP4 DUP4 DUP4 PUSH2 0x2CE9 JUMP JUMPDEST PUSH1 0x60 DUP2 PUSH2 0x2171 JUMPI POP POP PUSH1 0x40 DUP1 MLOAD DUP1 DUP3 ADD SWAP1 SWAP2 MSTORE PUSH1 0x1 DUP2 MSTORE PUSH1 0x3 PUSH1 0xFC SHL PUSH1 0x20 DUP3 ADD MSTORE SWAP1 JUMP JUMPDEST DUP2 PUSH1 0x0 JUMPDEST DUP2 ISZERO PUSH2 0x219B JUMPI DUP1 PUSH2 0x2185 DUP2 PUSH2 0x3865 JUMP JUMPDEST SWAP2 POP PUSH2 0x2194 SWAP1 POP PUSH1 0xA DUP4 PUSH2 0x35F2 JUMP JUMPDEST SWAP2 POP PUSH2 0x2175 JUMP JUMPDEST PUSH1 0x0 DUP2 PUSH8 0xFFFFFFFFFFFFFFFF DUP2 GT ISZERO PUSH2 0x21B6 JUMPI PUSH2 0x21B6 PUSH2 0x3232 JUMP JUMPDEST PUSH1 0x40 MLOAD SWAP1 DUP1 DUP3 MSTORE DUP1 PUSH1 0x1F ADD PUSH1 0x1F NOT AND PUSH1 0x20 ADD DUP3 ADD PUSH1 0x40 MSTORE DUP1 ISZERO PUSH2 0x21E0 JUMPI PUSH1 0x20 DUP3 ADD DUP2 DUP1 CALLDATASIZE DUP4 CALLDATACOPY ADD SWAP1 POP JUMPDEST POP SWAP1 POP JUMPDEST DUP5 ISZERO PUSH2 0x129C JUMPI PUSH2 0x21F5 PUSH1 0x1 DUP4 PUSH2 0x3489 JUMP JUMPDEST SWAP2 POP PUSH2 0x2202 PUSH1 0xA DUP7 PUSH2 0x3899 JUMP JUMPDEST PUSH2 0x220D SWAP1 PUSH1 0x30 PUSH2 0x35A5 JUMP JUMPDEST PUSH1 0xF8 SHL DUP2 DUP4 DUP2 MLOAD DUP2 LT PUSH2 0x2222 JUMPI PUSH2 0x2222 PUSH2 0x34A0 JUMP JUMPDEST PUSH1 0x20 ADD ADD SWAP1 PUSH1 0x1 PUSH1 0x1 PUSH1 0xF8 SHL SUB NOT AND SWAP1 DUP2 PUSH1 0x0 BYTE SWAP1 MSTORE8 POP PUSH2 0x2244 PUSH1 0xA DUP7 PUSH2 0x35F2 JUMP JUMPDEST SWAP5 POP PUSH2 0x21E4 JUMP JUMPDEST PUSH1 0x0 DUP1 DUP3 SLT ISZERO PUSH2 0x229D JUMPI PUSH1 0x40 MLOAD PUSH3 0x461BCD PUSH1 0xE5 SHL DUP2 MSTORE PUSH1 0x20 PUSH1 0x4 DUP3 ADD DUP2 SWAP1 MSTORE PUSH1 0x24 DUP3 ADD MSTORE PUSH32 0x53616665436173743A2076616C7565206D75737420626520706F736974697665 PUSH1 0x44 DUP3 ADD MSTORE PUSH1 0x64 ADD PUSH2 0x930 JUMP JUMPDEST POP SWAP1 JUMP JUMPDEST PUSH1 0x40 MLOAD PUSH1 0x1 PUSH1 0x1 PUSH1 0xA0 SHL SUB DUP4 AND PUSH1 0x24 DUP3 ADD MSTORE PUSH1 0x44 DUP2 ADD DUP3 SWAP1 MSTORE PUSH2 0x2010 SWAP1 DUP5 SWAP1 PUSH4 0xA9059CBB PUSH1 0xE0 SHL SWAP1 PUSH1 0x64 ADD JUMPDEST PUSH1 0x40 DUP1 MLOAD PUSH1 0x1F NOT DUP2 DUP5 SUB ADD DUP2 MSTORE SWAP2 SWAP1 MSTORE PUSH1 0x20 DUP2 ADD DUP1 MLOAD PUSH1 0x1 PUSH1 0x1 PUSH1 0xE0 SHL SUB AND PUSH1 0x1 PUSH1 0x1 PUSH1 0xE0 SHL SUB NOT SWAP1 SWAP4 AND SWAP3 SWAP1 SWAP3 OR SWAP1 SWAP2 MSTORE PUSH2 0x2D0E JUMP JUMPDEST PUSH2 0x230C PUSH2 0x30B4 JUMP JUMPDEST PUSH2 0x2314 PUSH2 0x30B4 JUMP JUMPDEST PUSH1 0x0 DUP1 TIMESTAMP DUP7 PUSH1 0x20 ADD MLOAD GT DUP1 ISZERO PUSH2 0x2331 JUMPI POP PUSH1 0x0 DUP7 PUSH1 0x0 ADD MLOAD PUSH1 0xF SIGNEXTEND SGT JUMPDEST ISZERO PUSH2 0x2382 JUMPI PUSH2 0x2343 PUSH4 0x784CE00 PUSH2 0x26DE JUMP JUMPDEST DUP7 MLOAD PUSH2 0x234F SWAP2 SWAP1 PUSH2 0x38AD JUMP JUMPDEST PUSH1 0xF SIGNEXTEND PUSH1 0x20 DUP1 DUP7 ADD SWAP2 SWAP1 SWAP2 MSTORE DUP7 ADD MLOAD PUSH2 0x236D SWAP1 PUSH2 0xF60 SWAP1 TIMESTAMP SWAP1 PUSH2 0x3489 JUMP JUMPDEST DUP5 PUSH1 0x20 ADD MLOAD PUSH2 0x237C SWAP2 SWAP1 PUSH2 0x3606 JUMP JUMPDEST PUSH1 0xF SIGNEXTEND DUP5 MSTORE JUMPDEST TIMESTAMP DUP6 PUSH1 0x20 ADD MLOAD GT DUP1 ISZERO PUSH2 0x239C JUMPI POP PUSH1 0x0 DUP6 PUSH1 0x0 ADD MLOAD PUSH1 0xF SIGNEXTEND SGT JUMPDEST ISZERO PUSH2 0x23ED JUMPI PUSH2 0x23AE PUSH4 0x784CE00 PUSH2 0x26DE JUMP JUMPDEST DUP6 MLOAD PUSH2 0x23BA SWAP2 SWAP1 PUSH2 0x38AD JUMP JUMPDEST PUSH1 0xF SIGNEXTEND PUSH1 0x20 DUP1 DUP6 ADD SWAP2 SWAP1 SWAP2 MSTORE DUP6 ADD MLOAD PUSH2 0x23D8 SWAP1 PUSH2 0xF60 SWAP1 TIMESTAMP SWAP1 PUSH2 0x3489 JUMP JUMPDEST DUP4 PUSH1 0x20 ADD MLOAD PUSH2 0x23E7 SWAP2 SWAP1 PUSH2 0x3606 JUMP JUMPDEST PUSH1 0xF SIGNEXTEND DUP4 MSTORE JUMPDEST PUSH1 0x1 PUSH1 0x1 PUSH1 0xA0 SHL SUB DUP8 AND PUSH1 0x0 SWAP1 DUP2 MSTORE PUSH1 0xCD PUSH1 0x20 MSTORE PUSH1 0x40 SWAP1 KECCAK256 SLOAD DUP1 PUSH2 0x2471 JUMPI PUSH1 0x1 PUSH1 0x1 PUSH1 0xA0 SHL SUB DUP9 AND PUSH1 0x0 SWAP1 DUP2 MSTORE PUSH1 0xCC PUSH1 0x20 SWAP1 DUP2 MSTORE PUSH1 0x40 DUP1 DUP4 KECCAK256 DUP1 SLOAD PUSH1 0x1 DUP2 DUP2 ADD DUP4 SSTORE SWAP2 DUP6 MSTORE SWAP4 DUP4 SWAP1 KECCAK256 DUP10 MLOAD SWAP4 DUP11 ADD MLOAD PUSH1 0x1 PUSH1 0x1 PUSH1 0x80 SHL SUB SWAP1 DUP2 AND PUSH1 0x1 PUSH1 0x80 SHL MUL SWAP5 AND SWAP4 SWAP1 SWAP4 OR PUSH1 0x3 SWAP1 SWAP5 MUL SWAP1 SWAP3 ADD SWAP3 DUP4 SSTORE DUP8 ADD MLOAD SWAP1 DUP3 ADD SSTORE PUSH1 0x60 DUP7 ADD MLOAD PUSH1 0x2 SWAP1 SWAP2 ADD SSTORE JUMPDEST TIMESTAMP PUSH1 0x40 DUP6 ADD MSTORE NUMBER PUSH1 0x60 DUP6 ADD MSTORE PUSH2 0x2488 DUP2 PUSH1 0x1 PUSH2 0x35A5 JUMP JUMPDEST PUSH1 0x1 PUSH1 0x1 PUSH1 0xA0 SHL SUB DUP10 AND PUSH1 0x0 SWAP1 DUP2 MSTORE PUSH1 0xCD PUSH1 0x20 SWAP1 DUP2 MSTORE PUSH1 0x40 DUP1 DUP4 KECCAK256 SWAP4 SWAP1 SWAP4 SSTORE PUSH1 0xCC DUP2 MSTORE DUP3 DUP3 KECCAK256 DUP1 SLOAD PUSH1 0x1 DUP2 DUP2 ADD DUP4 SSTORE SWAP2 DUP5 MSTORE DUP3 DUP5 KECCAK256 DUP10 MLOAD DUP11 DUP6 ADD MLOAD PUSH1 0x1 PUSH1 0x1 PUSH1 0x80 SHL SUB SWAP1 DUP2 AND PUSH1 0x1 PUSH1 0x80 SHL MUL SWAP2 AND OR PUSH1 0x3 SWAP1 SWAP3 MUL ADD SWAP1 DUP2 SSTORE DUP9 DUP6 ADD MLOAD SWAP2 DUP2 ADD SWAP2 SWAP1 SWAP2 SSTORE PUSH1 0x60 DUP9 ADD MLOAD PUSH1 0x2 SWAP1 SWAP2 ADD SSTORE DUP10 DUP2 ADD MLOAD DUP3 MSTORE PUSH1 0xD1 DUP2 MSTORE SWAP2 SWAP1 KECCAK256 SLOAD SWAP1 DUP8 ADD MLOAD PUSH1 0xF SWAP2 SWAP1 SWAP2 SIGNEXTEND SWAP4 POP ISZERO PUSH2 0x2548 JUMPI DUP7 PUSH1 0x20 ADD MLOAD DUP7 PUSH1 0x20 ADD MLOAD EQ ISZERO PUSH2 0x252D JUMPI DUP3 SWAP2 POP PUSH2 0x2548 JUMP JUMPDEST PUSH1 0x20 DUP1 DUP8 ADD MLOAD PUSH1 0x0 SWAP1 DUP2 MSTORE PUSH1 0xD1 SWAP1 SWAP2 MSTORE PUSH1 0x40 SWAP1 KECCAK256 SLOAD PUSH1 0xF SIGNEXTEND SWAP2 POP JUMPDEST PUSH2 0x2572 DUP6 PUSH1 0x20 ADD MLOAD DUP6 PUSH1 0x20 ADD MLOAD PUSH2 0x255F SWAP2 SWAP1 PUSH2 0x369B JUMP JUMPDEST DUP7 MLOAD DUP7 MLOAD PUSH2 0x256D SWAP2 SWAP1 PUSH2 0x369B JUMP JUMPDEST PUSH2 0x2822 JUMP JUMPDEST TIMESTAMP DUP8 PUSH1 0x20 ADD MLOAD GT ISZERO PUSH2 0x25DF JUMPI PUSH1 0x20 DUP6 ADD MLOAD PUSH2 0x258D SWAP1 DUP5 PUSH2 0x3816 JUMP JUMPDEST SWAP3 POP DUP7 PUSH1 0x20 ADD MLOAD DUP7 PUSH1 0x20 ADD MLOAD EQ ISZERO PUSH2 0x25B1 JUMPI PUSH1 0x20 DUP5 ADD MLOAD PUSH2 0x25AE SWAP1 DUP5 PUSH2 0x369B JUMP JUMPDEST SWAP3 POP JUMPDEST PUSH1 0x20 DUP8 DUP2 ADD MLOAD PUSH1 0x0 SWAP1 DUP2 MSTORE PUSH1 0xD1 SWAP1 SWAP2 MSTORE PUSH1 0x40 SWAP1 KECCAK256 DUP1 SLOAD PUSH1 0x1 PUSH1 0x1 PUSH1 0x80 SHL SUB NOT AND PUSH1 0x1 PUSH1 0x1 PUSH1 0x80 SHL SUB DUP6 AND OR SWAP1 SSTORE JUMPDEST TIMESTAMP DUP7 PUSH1 0x20 ADD MLOAD GT ISZERO PUSH2 0x263A JUMPI DUP7 PUSH1 0x20 ADD MLOAD DUP7 PUSH1 0x20 ADD MLOAD GT ISZERO PUSH2 0x263A JUMPI PUSH1 0x20 DUP5 ADD MLOAD PUSH2 0x260A SWAP1 DUP4 PUSH2 0x369B JUMP JUMPDEST PUSH1 0x20 DUP8 DUP2 ADD MLOAD PUSH1 0x0 SWAP1 DUP2 MSTORE PUSH1 0xD1 SWAP1 SWAP2 MSTORE PUSH1 0x40 SWAP1 KECCAK256 DUP1 SLOAD PUSH1 0x1 PUSH1 0x1 PUSH1 0x80 SHL SUB NOT AND PUSH1 0x1 PUSH1 0x1 PUSH1 0x80 SHL SUB DUP4 AND OR SWAP1 SSTORE SWAP2 POP JUMPDEST POP POP POP POP POP POP POP POP JUMP JUMPDEST PUSH1 0x0 DUP1 DUP3 DUP2 JUMPDEST PUSH1 0x80 DUP2 LT ISZERO PUSH2 0x26D1 JUMPI DUP2 DUP4 LT PUSH2 0x265F JUMPI PUSH2 0x26D1 JUMP JUMPDEST PUSH1 0x0 PUSH1 0x2 PUSH2 0x266D DUP5 DUP7 PUSH2 0x35A5 JUMP JUMPDEST PUSH2 0x2678 SWAP1 PUSH1 0x1 PUSH2 0x35A5 JUMP JUMPDEST PUSH2 0x2682 SWAP2 SWAP1 PUSH2 0x35F2 JUMP JUMPDEST SWAP1 POP DUP7 DUP9 DUP3 DUP2 MLOAD DUP2 LT PUSH2 0x2697 JUMPI PUSH2 0x2697 PUSH2 0x34A0 JUMP JUMPDEST PUSH1 0x20 MUL PUSH1 0x20 ADD ADD MLOAD PUSH1 0x60 ADD MLOAD GT PUSH2 0x26B0 JUMPI DUP1 SWAP4 POP PUSH2 0x26BE JUMP JUMPDEST PUSH2 0x26BB PUSH1 0x1 DUP3 PUSH2 0x3489 JUMP JUMPDEST SWAP3 POP JUMPDEST POP DUP1 PUSH2 0x26C9 DUP2 PUSH2 0x3865 JUMP JUMPDEST SWAP2 POP POP PUSH2 0x264A JUMP JUMPDEST POP SWAP1 SWAP2 POP POP JUMPDEST SWAP4 SWAP3 POP POP POP JUMP JUMPDEST PUSH1 0x0 PUSH1 0x1 PUSH1 0x1 PUSH1 0x7F SHL SUB NOT DUP3 SLT DUP1 ISZERO SWAP1 PUSH2 0x26FF JUMPI POP PUSH1 0x1 PUSH1 0x1 PUSH1 0x7F SHL SUB DUP3 SGT ISZERO JUMPDEST PUSH2 0x229D JUMPI PUSH1 0x40 MLOAD PUSH3 0x461BCD PUSH1 0xE5 SHL DUP2 MSTORE PUSH1 0x20 PUSH1 0x4 DUP3 ADD MSTORE PUSH1 0x27 PUSH1 0x24 DUP3 ADD MSTORE PUSH32 0x53616665436173743A2076616C756520646F65736E27742066697420696E2031 PUSH1 0x44 DUP3 ADD MSTORE PUSH7 0x32382062697473 PUSH1 0xC8 SHL PUSH1 0x64 DUP3 ADD MSTORE PUSH1 0x84 ADD PUSH2 0x930 JUMP JUMPDEST PUSH1 0x0 DUP2 PUSH1 0xF SIGNEXTEND DUP4 PUSH1 0xF SIGNEXTEND SLT ISZERO PUSH2 0x2771 JUMPI DUP2 PUSH2 0x9DC JUMP JUMPDEST POP SWAP1 SWAP2 SWAP1 POP JUMP JUMPDEST PUSH1 0x33 DUP1 SLOAD PUSH1 0x1 PUSH1 0x1 PUSH1 0xA0 SHL SUB DUP4 DUP2 AND PUSH1 0x1 PUSH1 0x1 PUSH1 0xA0 SHL SUB NOT DUP4 AND DUP2 OR SWAP1 SWAP4 SSTORE PUSH1 0x40 MLOAD SWAP2 AND SWAP2 SWAP1 DUP3 SWAP1 PUSH32 0x8BE0079C531659141344CD1FD0A4F28419497F9722A3DAAFE3B4186F6B6457E0 SWAP1 PUSH1 0x0 SWAP1 LOG3 POP POP JUMP JUMPDEST PUSH1 0x0 PUSH3 0x93A80 PUSH2 0x27DA DUP2 DUP5 PUSH2 0x35F2 JUMP JUMPDEST PUSH2 0x9DF SWAP2 SWAP1 PUSH2 0x35BD JUMP JUMPDEST PUSH1 0x40 MLOAD PUSH1 0x1 PUSH1 0x1 PUSH1 0xA0 SHL SUB DUP1 DUP6 AND PUSH1 0x24 DUP4 ADD MSTORE DUP4 AND PUSH1 0x44 DUP3 ADD MSTORE PUSH1 0x64 DUP2 ADD DUP3 SWAP1 MSTORE PUSH2 0x281C SWAP1 DUP6 SWAP1 PUSH4 0x23B872DD PUSH1 0xE0 SHL SWAP1 PUSH1 0x84 ADD PUSH2 0x22CD JUMP JUMPDEST POP POP POP POP JUMP JUMPDEST PUSH2 0x282A PUSH2 0x30B4 JUMP JUMPDEST PUSH1 0xCF SLOAD ISZERO PUSH2 0x2899 JUMPI PUSH1 0xCE PUSH1 0xCF SLOAD DUP2 SLOAD DUP2 LT PUSH2 0x2847 JUMPI PUSH2 0x2847 PUSH2 0x34A0 JUMP JUMPDEST PUSH1 0x0 SWAP2 DUP3 MSTORE PUSH1 0x20 SWAP2 DUP3 SWAP1 KECCAK256 PUSH1 0x40 DUP1 MLOAD PUSH1 0x80 DUP2 ADD DUP3 MSTORE PUSH1 0x3 SWAP1 SWAP4 MUL SWAP1 SWAP2 ADD DUP1 SLOAD PUSH1 0xF DUP2 DUP2 SIGNEXTEND DUP6 MSTORE PUSH1 0x1 PUSH1 0x80 SHL SWAP1 SWAP2 DIV SWAP1 SIGNEXTEND SWAP4 DUP4 ADD SWAP4 SWAP1 SWAP4 MSTORE PUSH1 0x1 DUP4 ADD SLOAD SWAP1 DUP3 ADD MSTORE PUSH1 0x2 SWAP1 SWAP2 ADD SLOAD PUSH1 0x60 DUP3 ADD MSTORE SWAP1 POP PUSH2 0x28BD JUMP JUMPDEST POP PUSH1 0x40 DUP1 MLOAD PUSH1 0x80 DUP2 ADD DUP3 MSTORE PUSH1 0x0 DUP1 DUP3 MSTORE PUSH1 0x20 DUP3 ADD MSTORE TIMESTAMP SWAP2 DUP2 ADD SWAP2 SWAP1 SWAP2 MSTORE NUMBER PUSH1 0x60 DUP3 ADD MSTORE JUMPDEST PUSH1 0x40 DUP1 MLOAD PUSH1 0x80 DUP2 ADD DUP3 MSTORE PUSH1 0x0 DUP1 DUP3 MSTORE PUSH1 0x20 DUP3 ADD DUP2 SWAP1 MSTORE DUP4 DUP4 ADD DUP1 MLOAD SWAP4 DUP4 ADD SWAP4 SWAP1 SWAP4 MSTORE PUSH1 0x60 DUP1 DUP6 ADD MLOAD SWAP1 DUP4 ADD MSTORE SWAP2 MLOAD SWAP1 SWAP2 SWAP1 TIMESTAMP GT ISZERO PUSH2 0x2932 JUMPI PUSH1 0x40 DUP4 ADD MLOAD PUSH2 0x2904 SWAP1 TIMESTAMP PUSH2 0x3489 JUMP JUMPDEST PUSH1 0x60 DUP5 ADD MLOAD PUSH2 0x2913 SWAP1 NUMBER PUSH2 0x3489 JUMP JUMPDEST PUSH2 0x2925 SWAP1 PUSH8 0xDE0B6B3A7640000 PUSH2 0x35BD JUMP JUMPDEST PUSH2 0x292F SWAP2 SWAP1 PUSH2 0x35F2 JUMP JUMPDEST SWAP1 POP JUMPDEST PUSH1 0x40 DUP4 ADD MLOAD PUSH1 0x0 PUSH2 0x2942 DUP3 PUSH2 0x27CA JUMP JUMPDEST SWAP1 POP PUSH1 0x0 JUMPDEST PUSH1 0xFF DUP2 LT ISZERO PUSH2 0x263A JUMPI PUSH2 0x295D PUSH3 0x93A80 DUP4 PUSH2 0x35A5 JUMP JUMPDEST SWAP2 POP PUSH1 0x0 TIMESTAMP DUP4 GT ISZERO PUSH2 0x2971 JUMPI TIMESTAMP SWAP3 POP PUSH2 0x2985 JUMP JUMPDEST POP PUSH1 0x0 DUP3 DUP2 MSTORE PUSH1 0xD1 PUSH1 0x20 MSTORE PUSH1 0x40 SWAP1 KECCAK256 SLOAD PUSH1 0xF SIGNEXTEND JUMPDEST PUSH1 0x0 PUSH2 0x2994 PUSH2 0xF60 DUP7 DUP7 PUSH2 0x3489 JUMP JUMPDEST DUP9 PUSH1 0x20 ADD MLOAD PUSH2 0x29A3 SWAP2 SWAP1 PUSH2 0x3606 JUMP JUMPDEST SWAP1 POP PUSH2 0x29BF DUP2 DUP10 PUSH1 0x0 ADD MLOAD PUSH2 0x29B8 SWAP2 SWAP1 PUSH2 0x369B JUMP JUMPDEST PUSH1 0x0 PUSH2 0x275B JUMP JUMPDEST PUSH1 0xF SIGNEXTEND DUP9 MSTORE PUSH1 0x20 DUP9 ADD MLOAD PUSH2 0x29D8 SWAP1 PUSH2 0x29B8 SWAP1 DUP5 SWAP1 PUSH2 0x3816 JUMP JUMPDEST PUSH1 0xF SIGNEXTEND PUSH1 0x20 DUP10 ADD MSTORE PUSH1 0x40 DUP1 DUP10 ADD DUP6 SWAP1 MSTORE DUP8 ADD MLOAD SWAP4 SWAP5 POP DUP5 SWAP4 PUSH8 0xDE0B6B3A7640000 SWAP1 PUSH2 0x2A04 SWAP1 DUP7 PUSH2 0x3489 JUMP JUMPDEST PUSH2 0x2A0E SWAP1 DUP9 PUSH2 0x35BD JUMP JUMPDEST PUSH2 0x2A18 SWAP2 SWAP1 PUSH2 0x35F2 JUMP JUMPDEST DUP8 PUSH1 0x60 ADD MLOAD PUSH2 0x2A27 SWAP2 SWAP1 PUSH2 0x35A5 JUMP JUMPDEST PUSH1 0x60 DUP10 ADD MSTORE PUSH1 0xCF DUP1 SLOAD PUSH1 0x1 SWAP2 SWAP1 PUSH1 0x0 SWAP1 PUSH2 0x2A42 SWAP1 DUP5 SWAP1 PUSH2 0x35A5 JUMP JUMPDEST SWAP1 SWAP2 SSTORE POP POP TIMESTAMP DUP5 EQ ISZERO PUSH2 0x2B38 JUMPI NUMBER PUSH1 0x60 DUP10 ADD MSTORE PUSH1 0x20 DUP9 ADD MLOAD PUSH2 0x2A69 SWAP1 PUSH2 0x29B8 SWAP1 DUP13 SWAP1 PUSH2 0x3816 JUMP JUMPDEST PUSH1 0xF SIGNEXTEND PUSH1 0x20 DUP10 ADD MSTORE DUP8 MLOAD PUSH2 0x2A82 SWAP1 PUSH2 0x29B8 SWAP1 DUP12 SWAP1 PUSH2 0x3816 JUMP JUMPDEST PUSH1 0xF SIGNEXTEND DUP9 MSTORE POP POP PUSH1 0xCE DUP1 SLOAD PUSH1 0x1 DUP2 ADD DUP3 SSTORE PUSH1 0x0 SWAP2 SWAP1 SWAP2 MSTORE DUP7 MLOAD PUSH1 0x20 DUP9 ADD MLOAD PUSH1 0x1 PUSH1 0x1 PUSH1 0x80 SHL SUB SWAP1 DUP2 AND PUSH1 0x1 PUSH1 0x80 SHL MUL SWAP2 AND OR PUSH1 0x3 SWAP1 SWAP2 MUL PUSH32 0xD36CD1C74EF8D7326D8021B776C18FB5A5724B7F7BC93C2F42E43E10EF27D12A DUP2 ADD SWAP2 SWAP1 SWAP2 SSTORE PUSH1 0x40 DUP8 ADD MLOAD PUSH32 0xD36CD1C74EF8D7326D8021B776C18FB5A5724B7F7BC93C2F42E43E10EF27D12B DUP3 ADD SSTORE PUSH1 0x60 DUP8 ADD MLOAD PUSH32 0xD36CD1C74EF8D7326D8021B776C18FB5A5724B7F7BC93C2F42E43E10EF27D12C SWAP1 SWAP2 ADD SSTORE PUSH2 0x263A JUMP JUMPDEST PUSH1 0xCE DUP1 SLOAD PUSH1 0x1 DUP2 ADD DUP3 SSTORE PUSH1 0x0 SWAP2 SWAP1 SWAP2 MSTORE DUP9 MLOAD PUSH1 0x20 DUP11 ADD MLOAD PUSH1 0x1 PUSH1 0x1 PUSH1 0x80 SHL SUB SWAP1 DUP2 AND PUSH1 0x1 PUSH1 0x80 SHL MUL SWAP2 AND OR PUSH1 0x3 SWAP1 SWAP2 MUL PUSH32 0xD36CD1C74EF8D7326D8021B776C18FB5A5724B7F7BC93C2F42E43E10EF27D12A DUP2 ADD SWAP2 SWAP1 SWAP2 SSTORE PUSH1 0x40 DUP10 ADD MLOAD PUSH32 0xD36CD1C74EF8D7326D8021B776C18FB5A5724B7F7BC93C2F42E43E10EF27D12B DUP3 ADD SSTORE PUSH1 0x60 DUP10 ADD MLOAD PUSH32 0xD36CD1C74EF8D7326D8021B776C18FB5A5724B7F7BC93C2F42E43E10EF27D12C SWAP1 SWAP2 ADD SSTORE POP POP DUP1 DUP1 PUSH2 0x2BEF SWAP1 PUSH2 0x3865 JUMP JUMPDEST SWAP2 POP POP PUSH2 0x2947 JUMP JUMPDEST PUSH1 0x0 SLOAD PUSH2 0x100 SWAP1 DIV PUSH1 0xFF AND PUSH2 0x2C1E JUMPI PUSH1 0x40 MLOAD PUSH3 0x461BCD PUSH1 0xE5 SHL DUP2 MSTORE PUSH1 0x4 ADD PUSH2 0x930 SWAP1 PUSH2 0x38EB JUMP JUMPDEST PUSH2 0x12D8 PUSH2 0x2DE0 JUMP JUMPDEST PUSH1 0x0 SLOAD PUSH2 0x100 SWAP1 DIV PUSH1 0xFF AND PUSH2 0x12D8 JUMPI PUSH1 0x40 MLOAD PUSH3 0x461BCD PUSH1 0xE5 SHL DUP2 MSTORE PUSH1 0x4 ADD PUSH2 0x930 SWAP1 PUSH2 0x38EB JUMP JUMPDEST PUSH1 0x1 PUSH1 0x1 PUSH1 0xA0 SHL SUB DUP2 AND EXTCODESIZE PUSH2 0x2CBA JUMPI PUSH1 0x40 MLOAD PUSH3 0x461BCD PUSH1 0xE5 SHL DUP2 MSTORE PUSH1 0x20 PUSH1 0x4 DUP3 ADD MSTORE PUSH1 0x2D PUSH1 0x24 DUP3 ADD MSTORE PUSH32 0x455243313936373A206E657720696D706C656D656E746174696F6E206973206E PUSH1 0x44 DUP3 ADD MSTORE PUSH13 0x1BDD08184818DBDB9D1C9858DD PUSH1 0x9A SHL PUSH1 0x64 DUP3 ADD MSTORE PUSH1 0x84 ADD PUSH2 0x930 JUMP JUMPDEST PUSH1 0x0 DUP1 MLOAD PUSH1 0x20 PUSH2 0x3975 DUP4 CODECOPY DUP2 MLOAD SWAP2 MSTORE DUP1 SLOAD PUSH1 0x1 PUSH1 0x1 PUSH1 0xA0 SHL SUB NOT AND PUSH1 0x1 PUSH1 0x1 PUSH1 0xA0 SHL SUB SWAP3 SWAP1 SWAP3 AND SWAP2 SWAP1 SWAP2 OR SWAP1 SSTORE JUMP JUMPDEST PUSH2 0x2CF2 DUP4 PUSH2 0x2E10 JUMP JUMPDEST PUSH1 0x0 DUP3 MLOAD GT DUP1 PUSH2 0x2CFF JUMPI POP DUP1 JUMPDEST ISZERO PUSH2 0x2010 JUMPI PUSH2 0x281C DUP4 DUP4 PUSH2 0x2E50 JUMP JUMPDEST PUSH1 0x0 PUSH2 0x2D63 DUP3 PUSH1 0x40 MLOAD DUP1 PUSH1 0x40 ADD PUSH1 0x40 MSTORE DUP1 PUSH1 0x20 DUP2 MSTORE PUSH1 0x20 ADD PUSH32 0x5361666545524332303A206C6F772D6C6576656C2063616C6C206661696C6564 DUP2 MSTORE POP DUP6 PUSH1 0x1 PUSH1 0x1 PUSH1 0xA0 SHL SUB AND PUSH2 0x2F3B SWAP1 SWAP3 SWAP2 SWAP1 PUSH4 0xFFFFFFFF AND JUMP JUMPDEST DUP1 MLOAD SWAP1 SWAP2 POP ISZERO PUSH2 0x2010 JUMPI DUP1 DUP1 PUSH1 0x20 ADD SWAP1 MLOAD DUP2 ADD SWAP1 PUSH2 0x2D81 SWAP2 SWAP1 PUSH2 0x3936 JUMP JUMPDEST PUSH2 0x2010 JUMPI PUSH1 0x40 MLOAD PUSH3 0x461BCD PUSH1 0xE5 SHL DUP2 MSTORE PUSH1 0x20 PUSH1 0x4 DUP3 ADD MSTORE PUSH1 0x2A PUSH1 0x24 DUP3 ADD MSTORE PUSH32 0x5361666545524332303A204552433230206F7065726174696F6E20646964206E PUSH1 0x44 DUP3 ADD MSTORE PUSH10 0x1BDD081CDD58D8D95959 PUSH1 0xB2 SHL PUSH1 0x64 DUP3 ADD MSTORE PUSH1 0x84 ADD PUSH2 0x930 JUMP JUMPDEST PUSH1 0x0 SLOAD PUSH2 0x100 SWAP1 DIV PUSH1 0xFF AND PUSH2 0x2E07 JUMPI PUSH1 0x40 MLOAD PUSH3 0x461BCD PUSH1 0xE5 SHL DUP2 MSTORE PUSH1 0x4 ADD PUSH2 0x930 SWAP1 PUSH2 0x38EB JUMP JUMPDEST PUSH2 0x12D8 CALLER PUSH2 0x2778 JUMP JUMPDEST PUSH2 0x2E19 DUP2 PUSH2 0x2C4D JUMP JUMPDEST PUSH1 0x40 MLOAD PUSH1 0x1 PUSH1 0x1 PUSH1 0xA0 SHL SUB DUP3 AND SWAP1 PUSH32 0xBC7CD75A20EE27FD9ADEBAB32041F755214DBC6BFFA90CC0225B39DA2E5C2D3B SWAP1 PUSH1 0x0 SWAP1 LOG2 POP JUMP JUMPDEST PUSH1 0x60 PUSH1 0x1 PUSH1 0x1 PUSH1 0xA0 SHL SUB DUP4 AND EXTCODESIZE PUSH2 0x2EB8 JUMPI PUSH1 0x40 MLOAD PUSH3 0x461BCD PUSH1 0xE5 SHL DUP2 MSTORE PUSH1 0x20 PUSH1 0x4 DUP3 ADD MSTORE PUSH1 0x26 PUSH1 0x24 DUP3 ADD MSTORE PUSH32 0x416464726573733A2064656C65676174652063616C6C20746F206E6F6E2D636F PUSH1 0x44 DUP3 ADD MSTORE PUSH6 0x1B9D1C9858DD PUSH1 0xD2 SHL PUSH1 0x64 DUP3 ADD MSTORE PUSH1 0x84 ADD PUSH2 0x930 JUMP JUMPDEST PUSH1 0x0 DUP1 DUP5 PUSH1 0x1 PUSH1 0x1 PUSH1 0xA0 SHL SUB AND DUP5 PUSH1 0x40 MLOAD PUSH2 0x2ED3 SWAP2 SWAP1 PUSH2 0x3958 JUMP JUMPDEST PUSH1 0x0 PUSH1 0x40 MLOAD DUP1 DUP4 SUB DUP2 DUP6 GAS DELEGATECALL SWAP2 POP POP RETURNDATASIZE DUP1 PUSH1 0x0 DUP2 EQ PUSH2 0x2F0E JUMPI PUSH1 0x40 MLOAD SWAP2 POP PUSH1 0x1F NOT PUSH1 0x3F RETURNDATASIZE ADD AND DUP3 ADD PUSH1 0x40 MSTORE RETURNDATASIZE DUP3 MSTORE RETURNDATASIZE PUSH1 0x0 PUSH1 0x20 DUP5 ADD RETURNDATACOPY PUSH2 0x2F13 JUMP JUMPDEST PUSH1 0x60 SWAP2 POP JUMPDEST POP SWAP2 POP SWAP2 POP PUSH2 0x1608 DUP3 DUP3 PUSH1 0x40 MLOAD DUP1 PUSH1 0x60 ADD PUSH1 0x40 MSTORE DUP1 PUSH1 0x27 DUP2 MSTORE PUSH1 0x20 ADD PUSH2 0x3995 PUSH1 0x27 SWAP2 CODECOPY PUSH2 0x2F4A JUMP JUMPDEST PUSH1 0x60 PUSH2 0x129C DUP5 DUP5 PUSH1 0x0 DUP6 PUSH2 0x2F83 JUMP JUMPDEST PUSH1 0x60 DUP4 ISZERO PUSH2 0x2F59 JUMPI POP DUP2 PUSH2 0x26D7 JUMP JUMPDEST DUP3 MLOAD ISZERO PUSH2 0x2F69 JUMPI DUP3 MLOAD DUP1 DUP5 PUSH1 0x20 ADD REVERT JUMPDEST DUP2 PUSH1 0x40 MLOAD PUSH3 0x461BCD PUSH1 0xE5 SHL DUP2 MSTORE PUSH1 0x4 ADD PUSH2 0x930 SWAP2 SWAP1 PUSH2 0x319E JUMP JUMPDEST PUSH1 0x60 DUP3 SELFBALANCE LT ISZERO PUSH2 0x2FE4 JUMPI PUSH1 0x40 MLOAD PUSH3 0x461BCD PUSH1 0xE5 SHL DUP2 MSTORE PUSH1 0x20 PUSH1 0x4 DUP3 ADD MSTORE PUSH1 0x26 PUSH1 0x24 DUP3 ADD MSTORE PUSH32 0x416464726573733A20696E73756666696369656E742062616C616E636520666F PUSH1 0x44 DUP3 ADD MSTORE PUSH6 0x1C8818D85B1B PUSH1 0xD2 SHL PUSH1 0x64 DUP3 ADD MSTORE PUSH1 0x84 ADD PUSH2 0x930 JUMP JUMPDEST PUSH1 0x1 PUSH1 0x1 PUSH1 0xA0 SHL SUB DUP6 AND EXTCODESIZE PUSH2 0x303B JUMPI PUSH1 0x40 MLOAD PUSH3 0x461BCD PUSH1 0xE5 SHL DUP2 MSTORE PUSH1 0x20 PUSH1 0x4 DUP3 ADD MSTORE PUSH1 0x1D PUSH1 0x24 DUP3 ADD MSTORE PUSH32 0x416464726573733A2063616C6C20746F206E6F6E2D636F6E7472616374000000 PUSH1 0x44 DUP3 ADD MSTORE PUSH1 0x64 ADD PUSH2 0x930 JUMP JUMPDEST PUSH1 0x0 DUP1 DUP7 PUSH1 0x1 PUSH1 0x1 PUSH1 0xA0 SHL SUB AND DUP6 DUP8 PUSH1 0x40 MLOAD PUSH2 0x3057 SWAP2 SWAP1 PUSH2 0x3958 JUMP JUMPDEST PUSH1 0x0 PUSH1 0x40 MLOAD DUP1 DUP4 SUB DUP2 DUP6 DUP8 GAS CALL SWAP3 POP POP POP RETURNDATASIZE DUP1 PUSH1 0x0 DUP2 EQ PUSH2 0x3094 JUMPI PUSH1 0x40 MLOAD SWAP2 POP PUSH1 0x1F NOT PUSH1 0x3F RETURNDATASIZE ADD AND DUP3 ADD PUSH1 0x40 MSTORE RETURNDATASIZE DUP3 MSTORE RETURNDATASIZE PUSH1 0x0 PUSH1 0x20 DUP5 ADD RETURNDATACOPY PUSH2 0x3099 JUMP JUMPDEST PUSH1 0x60 SWAP2 POP JUMPDEST POP SWAP2 POP SWAP2 POP PUSH2 0x30A9 DUP3 DUP3 DUP7 PUSH2 0x2F4A JUMP JUMPDEST SWAP8 SWAP7 POP POP POP POP POP POP POP JUMP JUMPDEST PUSH1 0x40 MLOAD DUP1 PUSH1 0x80 ADD PUSH1 0x40 MSTORE DUP1 PUSH1 0x0 PUSH1 0xF SIGNEXTEND DUP2 MSTORE PUSH1 0x20 ADD PUSH1 0x0 PUSH1 0xF SIGNEXTEND DUP2 MSTORE PUSH1 0x20 ADD PUSH1 0x0 DUP2 MSTORE PUSH1 0x20 ADD PUSH1 0x0 DUP2 MSTORE POP SWAP1 JUMP JUMPDEST DUP3 DUP1 SLOAD PUSH2 0x30EE SWAP1 PUSH2 0x3438 JUMP JUMPDEST SWAP1 PUSH1 0x0 MSTORE PUSH1 0x20 PUSH1 0x0 KECCAK256 SWAP1 PUSH1 0x1F ADD PUSH1 0x20 SWAP1 DIV DUP2 ADD SWAP3 DUP3 PUSH2 0x3110 JUMPI PUSH1 0x0 DUP6 SSTORE PUSH2 0x3156 JUMP JUMPDEST DUP3 PUSH1 0x1F LT PUSH2 0x3129 JUMPI DUP1 MLOAD PUSH1 0xFF NOT AND DUP4 DUP1 ADD OR DUP6 SSTORE PUSH2 0x3156 JUMP JUMPDEST DUP3 DUP1 ADD PUSH1 0x1 ADD DUP6 SSTORE DUP3 ISZERO PUSH2 0x3156 JUMPI SWAP2 DUP3 ADD JUMPDEST DUP3 DUP2 GT ISZERO PUSH2 0x3156 JUMPI DUP3 MLOAD DUP3 SSTORE SWAP2 PUSH1 0x20 ADD SWAP2 SWAP1 PUSH1 0x1 ADD SWAP1 PUSH2 0x313B JUMP JUMPDEST POP PUSH2 0x229D SWAP3 SWAP2 POP JUMPDEST DUP1 DUP3 GT ISZERO PUSH2 0x229D JUMPI PUSH1 0x0 DUP2 SSTORE PUSH1 0x1 ADD PUSH2 0x315E JUMP JUMPDEST PUSH1 0x0 JUMPDEST DUP4 DUP2 LT ISZERO PUSH2 0x318D JUMPI DUP2 DUP2 ADD MLOAD DUP4 DUP3 ADD MSTORE PUSH1 0x20 ADD PUSH2 0x3175 JUMP JUMPDEST DUP4 DUP2 GT ISZERO PUSH2 0x281C JUMPI POP POP PUSH1 0x0 SWAP2 ADD MSTORE JUMP JUMPDEST PUSH1 0x20 DUP2 MSTORE PUSH1 0x0 DUP3 MLOAD DUP1 PUSH1 0x20 DUP5 ADD MSTORE PUSH2 0x31BD DUP2 PUSH1 0x40 DUP6 ADD PUSH1 0x20 DUP8 ADD PUSH2 0x3172 JUMP JUMPDEST PUSH1 0x1F ADD PUSH1 0x1F NOT AND SWAP2 SWAP1 SWAP2 ADD PUSH1 0x40 ADD SWAP3 SWAP2 POP POP JUMP JUMPDEST DUP1 CALLDATALOAD PUSH1 0x1 PUSH1 0x1 PUSH1 0xA0 SHL SUB DUP2 AND DUP2 EQ PUSH2 0x31E8 JUMPI PUSH1 0x0 DUP1 REVERT JUMPDEST SWAP2 SWAP1 POP JUMP JUMPDEST PUSH1 0x0 PUSH1 0x20 DUP3 DUP5 SUB SLT ISZERO PUSH2 0x31FF JUMPI PUSH1 0x0 DUP1 REVERT JUMPDEST PUSH2 0x9DC DUP3 PUSH2 0x31D1 JUMP JUMPDEST PUSH1 0x0 DUP1 PUSH1 0x40 DUP4 DUP6 SUB SLT ISZERO PUSH2 0x321B JUMPI PUSH1 0x0 DUP1 REVERT JUMPDEST PUSH2 0x3224 DUP4 PUSH2 0x31D1 JUMP JUMPDEST SWAP5 PUSH1 0x20 SWAP4 SWAP1 SWAP4 ADD CALLDATALOAD SWAP4 POP POP POP JUMP JUMPDEST PUSH4 0x4E487B71 PUSH1 0xE0 SHL PUSH1 0x0 MSTORE PUSH1 0x41 PUSH1 0x4 MSTORE PUSH1 0x24 PUSH1 0x0 REVERT JUMPDEST PUSH1 0x40 MLOAD PUSH1 0x1F DUP3 ADD PUSH1 0x1F NOT AND DUP2 ADD PUSH8 0xFFFFFFFFFFFFFFFF DUP2 GT DUP3 DUP3 LT OR ISZERO PUSH2 0x3271 JUMPI PUSH2 0x3271 PUSH2 0x3232 JUMP JUMPDEST PUSH1 0x40 MSTORE SWAP2 SWAP1 POP JUMP JUMPDEST PUSH1 0x0 PUSH8 0xFFFFFFFFFFFFFFFF DUP3 GT ISZERO PUSH2 0x3293 JUMPI PUSH2 0x3293 PUSH2 0x3232 JUMP JUMPDEST POP PUSH1 0x1F ADD PUSH1 0x1F NOT AND PUSH1 0x20 ADD SWAP1 JUMP JUMPDEST PUSH1 0x0 DUP1 PUSH1 0x40 DUP4 DUP6 SUB SLT ISZERO PUSH2 0x32B4 JUMPI PUSH1 0x0 DUP1 REVERT JUMPDEST PUSH2 0x32BD DUP4 PUSH2 0x31D1 JUMP JUMPDEST SWAP2 POP PUSH1 0x20 DUP4 ADD CALLDATALOAD PUSH8 0xFFFFFFFFFFFFFFFF DUP2 GT ISZERO PUSH2 0x32D9 JUMPI PUSH1 0x0 DUP1 REVERT JUMPDEST DUP4 ADD PUSH1 0x1F DUP2 ADD DUP6 SGT PUSH2 0x32EA JUMPI PUSH1 0x0 DUP1 REVERT JUMPDEST DUP1 CALLDATALOAD PUSH2 0x32FD PUSH2 0x32F8 DUP3 PUSH2 0x3279 JUMP JUMPDEST PUSH2 0x3248 JUMP JUMPDEST DUP2 DUP2 MSTORE DUP7 PUSH1 0x20 DUP4 DUP6 ADD ADD GT ISZERO PUSH2 0x3312 JUMPI PUSH1 0x0 DUP1 REVERT JUMPDEST DUP2 PUSH1 0x20 DUP5 ADD PUSH1 0x20 DUP4 ADD CALLDATACOPY PUSH1 0x0 PUSH1 0x20 DUP4 DUP4 ADD ADD MSTORE DUP1 SWAP4 POP POP POP POP SWAP3 POP SWAP3 SWAP1 POP JUMP JUMPDEST DUP1 CALLDATALOAD PUSH4 0xFFFFFFFF DUP2 AND DUP2 EQ PUSH2 0x31E8 JUMPI PUSH1 0x0 DUP1 REVERT JUMPDEST PUSH1 0x0 PUSH1 0x20 DUP3 DUP5 SUB SLT ISZERO PUSH2 0x3358 JUMPI PUSH1 0x0 DUP1 REVERT JUMPDEST PUSH2 0x9DC DUP3 PUSH2 0x3332 JUMP JUMPDEST PUSH1 0x0 PUSH1 0x20 DUP3 DUP5 SUB SLT ISZERO PUSH2 0x3373 JUMPI PUSH1 0x0 DUP1 REVERT JUMPDEST POP CALLDATALOAD SWAP2 SWAP1 POP JUMP JUMPDEST PUSH1 0x0 DUP1 PUSH1 0x40 DUP4 DUP6 SUB SLT ISZERO PUSH2 0x338D JUMPI PUSH1 0x0 DUP1 REVERT JUMPDEST POP POP DUP1 CALLDATALOAD SWAP3 PUSH1 0x20 SWAP1 SWAP2 ADD CALLDATALOAD SWAP2 POP JUMP JUMPDEST PUSH1 0xFF DUP2 AND DUP2 EQ PUSH2 0x9CD JUMPI PUSH1 0x0 DUP1 REVERT JUMPDEST PUSH1 0x0 DUP1 PUSH1 0x0 DUP1 PUSH1 0x0 DUP1 PUSH1 0xC0 DUP8 DUP10 SUB SLT ISZERO PUSH2 0x33C4 JUMPI PUSH1 0x0 DUP1 REVERT JUMPDEST PUSH2 0x33CD DUP8 PUSH2 0x31D1 JUMP JUMPDEST SWAP6 POP PUSH1 0x20 DUP8 ADD CALLDATALOAD SWAP5 POP PUSH1 0x40 DUP8 ADD CALLDATALOAD SWAP4 POP PUSH1 0x60 DUP8 ADD CALLDATALOAD PUSH2 0x33EB DUP2 PUSH2 0x339C JUMP JUMPDEST SWAP6 SWAP9 SWAP5 SWAP8 POP SWAP3 SWAP6 PUSH1 0x80 DUP2 ADD CALLDATALOAD SWAP5 PUSH1 0xA0 SWAP1 SWAP2 ADD CALLDATALOAD SWAP4 POP SWAP2 POP POP JUMP JUMPDEST PUSH1 0x0 DUP1 PUSH1 0x40 DUP4 DUP6 SUB SLT ISZERO PUSH2 0x3418 JUMPI PUSH1 0x0 DUP1 REVERT JUMPDEST PUSH2 0x3421 DUP4 PUSH2 0x31D1 JUMP JUMPDEST SWAP2 POP PUSH2 0x342F PUSH1 0x20 DUP5 ADD PUSH2 0x3332 JUMP JUMPDEST SWAP1 POP SWAP3 POP SWAP3 SWAP1 POP JUMP JUMPDEST PUSH1 0x1 DUP2 DUP2 SHR SWAP1 DUP3 AND DUP1 PUSH2 0x344C JUMPI PUSH1 0x7F DUP3 AND SWAP2 POP JUMPDEST PUSH1 0x20 DUP3 LT DUP2 EQ ISZERO PUSH2 0x346D JUMPI PUSH4 0x4E487B71 PUSH1 0xE0 SHL PUSH1 0x0 MSTORE PUSH1 0x22 PUSH1 0x4 MSTORE PUSH1 0x24 PUSH1 0x0 REVERT JUMPDEST POP SWAP2 SWAP1 POP JUMP JUMPDEST PUSH4 0x4E487B71 PUSH1 0xE0 SHL PUSH1 0x0 MSTORE PUSH1 0x11 PUSH1 0x4 MSTORE PUSH1 0x24 PUSH1 0x0 REVERT JUMPDEST PUSH1 0x0 DUP3 DUP3 LT ISZERO PUSH2 0x349B JUMPI PUSH2 0x349B PUSH2 0x3473 JUMP JUMPDEST POP SUB SWAP1 JUMP JUMPDEST PUSH4 0x4E487B71 PUSH1 0xE0 SHL PUSH1 0x0 MSTORE PUSH1 0x32 PUSH1 0x4 MSTORE PUSH1 0x24 PUSH1 0x0 REVERT JUMPDEST PUSH1 0x20 DUP1 DUP3 MSTORE PUSH1 0x2C SWAP1 DUP3 ADD MSTORE PUSH32 0x46756E6374696F6E206D7573742062652063616C6C6564207468726F75676820 PUSH1 0x40 DUP3 ADD MSTORE PUSH12 0x19195B1959D85D1958D85B1B PUSH1 0xA2 SHL PUSH1 0x60 DUP3 ADD MSTORE PUSH1 0x80 ADD SWAP1 JUMP JUMPDEST PUSH1 0x20 DUP1 DUP3 MSTORE PUSH1 0x2C SWAP1 DUP3 ADD MSTORE PUSH32 0x46756E6374696F6E206D7573742062652063616C6C6564207468726F75676820 PUSH1 0x40 DUP3 ADD MSTORE PUSH12 0x6163746976652070726F7879 PUSH1 0xA0 SHL PUSH1 0x60 DUP3 ADD MSTORE PUSH1 0x80 ADD SWAP1 JUMP JUMPDEST PUSH1 0x0 DUP6 MLOAD PUSH2 0x3560 DUP2 DUP5 PUSH1 0x20 DUP11 ADD PUSH2 0x3172 JUMP JUMPDEST DUP6 MLOAD SWAP1 DUP4 ADD SWAP1 PUSH2 0x3574 DUP2 DUP4 PUSH1 0x20 DUP11 ADD PUSH2 0x3172 JUMP JUMPDEST DUP6 MLOAD SWAP2 ADD SWAP1 PUSH2 0x3587 DUP2 DUP4 PUSH1 0x20 DUP10 ADD PUSH2 0x3172 JUMP JUMPDEST DUP5 MLOAD SWAP2 ADD SWAP1 PUSH2 0x359A DUP2 DUP4 PUSH1 0x20 DUP9 ADD PUSH2 0x3172 JUMP JUMPDEST ADD SWAP7 SWAP6 POP POP POP POP POP POP JUMP JUMPDEST PUSH1 0x0 DUP3 NOT DUP3 GT ISZERO PUSH2 0x35B8 JUMPI PUSH2 0x35B8 PUSH2 0x3473 JUMP JUMPDEST POP ADD SWAP1 JUMP JUMPDEST PUSH1 0x0 DUP2 PUSH1 0x0 NOT DIV DUP4 GT DUP3 ISZERO ISZERO AND ISZERO PUSH2 0x35D7 JUMPI PUSH2 0x35D7 PUSH2 0x3473 JUMP JUMPDEST POP MUL SWAP1 JUMP JUMPDEST PUSH4 0x4E487B71 PUSH1 0xE0 SHL PUSH1 0x0 MSTORE PUSH1 0x12 PUSH1 0x4 MSTORE PUSH1 0x24 PUSH1 0x0 REVERT JUMPDEST PUSH1 0x0 DUP3 PUSH2 0x3601 JUMPI PUSH2 0x3601 PUSH2 0x35DC JUMP JUMPDEST POP DIV SWAP1 JUMP JUMPDEST PUSH1 0x0 DUP2 PUSH1 0xF SIGNEXTEND DUP4 PUSH1 0xF SIGNEXTEND PUSH1 0x1 PUSH1 0x1 PUSH1 0x7F SHL SUB PUSH1 0x0 DUP3 SGT PUSH1 0x0 DUP5 SGT DUP4 DUP4 DIV DUP6 GT DUP3 DUP3 AND AND ISZERO PUSH2 0x3636 JUMPI PUSH2 0x3636 PUSH2 0x3473 JUMP JUMPDEST PUSH1 0x1 PUSH1 0x1 PUSH1 0x7F SHL SUB NOT PUSH1 0x0 DUP6 SLT DUP3 DUP2 AND DUP8 DUP4 SDIV DUP8 SLT AND ISZERO PUSH2 0x3659 JUMPI PUSH2 0x3659 PUSH2 0x3473 JUMP JUMPDEST PUSH1 0x0 DUP8 SLT SWAP3 POP DUP6 DUP3 SDIV DUP8 SLT DUP5 DUP5 AND AND ISZERO PUSH2 0x3675 JUMPI PUSH2 0x3675 PUSH2 0x3473 JUMP JUMPDEST DUP6 DUP6 SDIV DUP8 SLT DUP2 DUP5 AND AND ISZERO PUSH2 0x368B JUMPI PUSH2 0x368B PUSH2 0x3473 JUMP JUMPDEST POP POP POP SWAP3 SWAP1 SWAP2 MUL SWAP6 SWAP5 POP POP POP POP POP JUMP JUMPDEST PUSH1 0x0 DUP2 PUSH1 0xF SIGNEXTEND DUP4 PUSH1 0xF SIGNEXTEND PUSH1 0x0 DUP2 SLT DUP2 PUSH1 0x1 PUSH1 0x1 PUSH1 0x7F SHL SUB NOT ADD DUP4 SLT DUP2 ISZERO AND ISZERO PUSH2 0x36C6 JUMPI PUSH2 0x36C6 PUSH2 0x3473 JUMP JUMPDEST DUP2 PUSH1 0x1 PUSH1 0x1 PUSH1 0x7F SHL SUB ADD DUP4 SGT DUP2 AND ISZERO PUSH2 0x36E1 JUMPI PUSH2 0x36E1 PUSH2 0x3473 JUMP JUMPDEST POP SWAP1 SUB SWAP4 SWAP3 POP POP POP JUMP JUMPDEST PUSH1 0x20 DUP1 DUP3 MSTORE DUP2 DUP2 ADD MSTORE PUSH32 0x4F776E61626C653A2063616C6C6572206973206E6F7420746865206F776E6572 PUSH1 0x40 DUP3 ADD MSTORE PUSH1 0x60 ADD SWAP1 JUMP JUMPDEST PUSH1 0x0 PUSH1 0x20 DUP3 DUP5 SUB SLT ISZERO PUSH2 0x3732 JUMPI PUSH1 0x0 DUP1 REVERT JUMPDEST DUP2 MLOAD PUSH8 0xFFFFFFFFFFFFFFFF DUP2 GT ISZERO PUSH2 0x3749 JUMPI PUSH1 0x0 DUP1 REVERT JUMPDEST DUP3 ADD PUSH1 0x1F DUP2 ADD DUP5 SGT PUSH2 0x375A JUMPI PUSH1 0x0 DUP1 REVERT JUMPDEST DUP1 MLOAD PUSH2 0x3768 PUSH2 0x32F8 DUP3 PUSH2 0x3279 JUMP JUMPDEST DUP2 DUP2 MSTORE DUP6 PUSH1 0x20 DUP4 DUP6 ADD ADD GT ISZERO PUSH2 0x377D JUMPI PUSH1 0x0 DUP1 REVERT JUMPDEST PUSH2 0x1608 DUP3 PUSH1 0x20 DUP4 ADD PUSH1 0x20 DUP7 ADD PUSH2 0x3172 JUMP JUMPDEST PUSH1 0x0 DUP4 MLOAD PUSH2 0x37A0 DUP2 DUP5 PUSH1 0x20 DUP9 ADD PUSH2 0x3172 JUMP JUMPDEST PUSH1 0x1 PUSH1 0xFD SHL SWAP1 DUP4 ADD SWAP1 DUP2 MSTORE DUP4 MLOAD PUSH2 0x37BE DUP2 PUSH1 0x1 DUP5 ADD PUSH1 0x20 DUP9 ADD PUSH2 0x3172 JUMP JUMPDEST ADD PUSH1 0x1 ADD SWAP5 SWAP4 POP POP POP POP JUMP JUMPDEST PUSH1 0x0 DUP4 MLOAD PUSH2 0x37DC DUP2 DUP5 PUSH1 0x20 DUP9 ADD PUSH2 0x3172 JUMP JUMPDEST DUP4 MLOAD SWAP1 DUP4 ADD SWAP1 PUSH2 0x37F0 DUP2 DUP4 PUSH1 0x20 DUP9 ADD PUSH2 0x3172 JUMP JUMPDEST ADD SWAP5 SWAP4 POP POP POP POP JUMP JUMPDEST PUSH1 0x0 PUSH1 0x20 DUP3 DUP5 SUB SLT ISZERO PUSH2 0x380B JUMPI PUSH1 0x0 DUP1 REVERT JUMPDEST DUP2 MLOAD PUSH2 0x26D7 DUP2 PUSH2 0x339C JUMP JUMPDEST PUSH1 0x0 DUP2 PUSH1 0xF SIGNEXTEND DUP4 PUSH1 0xF SIGNEXTEND PUSH1 0x0 DUP3 SLT DUP3 PUSH1 0x1 PUSH1 0x1 PUSH1 0x7F SHL SUB SUB DUP3 SGT DUP2 ISZERO AND ISZERO PUSH2 0x3840 JUMPI PUSH2 0x3840 PUSH2 0x3473 JUMP JUMPDEST DUP3 PUSH1 0x1 PUSH1 0x1 PUSH1 0x7F SHL SUB NOT SUB DUP3 SLT DUP2 AND ISZERO PUSH2 0x385C JUMPI PUSH2 0x385C PUSH2 0x3473 JUMP JUMPDEST POP ADD SWAP4 SWAP3 POP POP POP JUMP JUMPDEST PUSH1 0x0 PUSH1 0x0 NOT DUP3 EQ ISZERO PUSH2 0x3879 JUMPI PUSH2 0x3879 PUSH2 0x3473 JUMP JUMPDEST POP PUSH1 0x1 ADD SWAP1 JUMP JUMPDEST PUSH1 0x0 PUSH1 0x20 DUP3 DUP5 SUB SLT ISZERO PUSH2 0x3892 JUMPI PUSH1 0x0 DUP1 REVERT JUMPDEST POP MLOAD SWAP2 SWAP1 POP JUMP JUMPDEST PUSH1 0x0 DUP3 PUSH2 0x38A8 JUMPI PUSH2 0x38A8 PUSH2 0x35DC JUMP JUMPDEST POP MOD SWAP1 JUMP JUMPDEST PUSH1 0x0 DUP2 PUSH1 0xF SIGNEXTEND DUP4 PUSH1 0xF SIGNEXTEND DUP1 PUSH2 0x38C4 JUMPI PUSH2 0x38C4 PUSH2 0x35DC JUMP JUMPDEST PUSH1 0x1 PUSH1 0x1 PUSH1 0x7F SHL SUB NOT DUP3 EQ PUSH1 0x0 NOT DUP3 EQ AND ISZERO PUSH2 0x38E2 JUMPI PUSH2 0x38E2 PUSH2 0x3473 JUMP JUMPDEST SWAP1 SDIV SWAP4 SWAP3 POP POP POP JUMP JUMPDEST PUSH1 0x20 DUP1 DUP3 MSTORE PUSH1 0x2B SWAP1 DUP3 ADD MSTORE PUSH32 0x496E697469616C697A61626C653A20636F6E7472616374206973206E6F742069 PUSH1 0x40 DUP3 ADD MSTORE PUSH11 0x6E697469616C697A696E67 PUSH1 0xA8 SHL PUSH1 0x60 DUP3 ADD MSTORE PUSH1 0x80 ADD SWAP1 JUMP JUMPDEST PUSH1 0x0 PUSH1 0x20 DUP3 DUP5 SUB SLT ISZERO PUSH2 0x3948 JUMPI PUSH1 0x0 DUP1 REVERT JUMPDEST DUP2 MLOAD DUP1 ISZERO ISZERO DUP2 EQ PUSH2 0x26D7 JUMPI PUSH1 0x0 DUP1 REVERT JUMPDEST PUSH1 0x0 DUP3 MLOAD PUSH2 0x396A DUP2 DUP5 PUSH1 0x20 DUP8 ADD PUSH2 0x3172 JUMP JUMPDEST SWAP2 SWAP1 SWAP2 ADD SWAP3 SWAP2 POP POP JUMP INVALID CALLDATASIZE ADDMOD SWAP5 LOG1 EXTCODESIZE LOG1 LOG3 0x21 MOD PUSH8 0xC828492DB98DCA3E KECCAK256 PUSH23 0xCC3735A920A3CA505D382BBC416464726573733A206C6F PUSH24 0x2D6C6576656C2064656C65676174652063616C6C20666169 PUSH13 0x6564A2646970667358221220A3 PC 0xDC ADDRESS 0xE0 GASPRICE GAS CALLDATACOPY 0x25 0xF9 STOP DUP15 DUP6 0x2E CREATE DUP14 PUSH18 0xC36C49E1D6A96121A586F4EF5DA96E64736F PUSH13 0x634300080B0033000000000000 ","sha1":"911c71aa6a3c2e08fa7d46156879d07bc650e2ec","source":"// SPDX-License-Identifier: MIT\n\n// Inspired by the Curve.fi VotingEscrow contract and the mStable Solidity fork.\n//    - Adds compatability with the OpenZeppelin governance stack (4.5.0)\n//    - Removes the separate lockup amount and lockup duration extension functions info\n//      favour of a single function for create or update.\n//    - Adds an deprecate mechanism for removing all voting power and allowing users too\n//      withdraw lockups\n//\n// References:\n//   - https://github.com/curvefi/curve-dao-contracts/blob/master/contracts/VotingEscrow.vy\n//   - https://github.com/mstable/mStable-contracts/blob/master/contracts/governance/IncentivisedVotingLockup.sol\n\npragma solidity ^0.8.4;\n\nimport \"OpenZeppelin/openzeppelin-contracts@4.5.0/contracts/token/ERC20/ERC20.sol\";\nimport \"OpenZeppelin/openzeppelin-contracts@4.5.0/contracts/utils/math/SafeCast.sol\";\nimport \"OpenZeppelin/openzeppelin-contracts@4.5.0/contracts/token/ERC20/utils/SafeERC20.sol\";\nimport \"OpenZeppelin/openzeppelin-contracts@4.5.0/contracts/utils/Strings.sol\";\nimport \"OpenZeppelin/openzeppelin-contracts-upgradeable@4.5.0/contracts/access/OwnableUpgradeable.sol\";\nimport \"OpenZeppelin/openzeppelin-contracts-upgradeable@4.5.0/contracts/proxy/utils/Initializable.sol\";\nimport \"OpenZeppelin/openzeppelin-contracts-upgradeable@4.5.0/contracts/proxy/utils/UUPSUpgradeable.sol\";\n\ncontract VoteLockerCurve is Initializable, OwnableUpgradeable, UUPSUpgradeable {\n    using SafeERC20 for ERC20;\n\n    ///@notice Emitted when a lockup is created\n    event LockupCreated(\n        address indexed provider,\n        int128 amount,\n        uint256 end,\n        uint256 ts\n    );\n    ///@notice Emitted when an existing lockup is changed\n    event LockupUpdated(\n        address indexed provider,\n        int128 oldAmount,\n        uint256 oldEnd,\n        int128 amount,\n        uint256 end,\n        uint256 ts\n    );\n    ///@notice Emitted when a user withdraws from an expired lockup\n    event Withdraw(address indexed provider, uint256 value, uint256 ts);\n\n    ///@notice ERC20 parameters\n    string private _name;\n    string private _symbol;\n    uint8 private _decimals;\n\n    ///@notice Definition of a week\n    uint256 private constant WEEK = 7 days;\n    ///@notice Maximum lock time\n    uint256 public constant MAX_LOCK_TIME = 4 * 365 * 86400; // 4 years\n\n    ///@notice Checkpoints for each user\n    mapping(address => Checkpoint[]) private _userCheckpoints;\n    mapping(address => uint256) public userEpoch;\n\n    ///@notice Global checkpoints\n    Checkpoint[] private _globalCheckpoints;\n    uint256 public globalEpoch;\n\n    ///@notice Lockup mapping for each user\n    mapping(address => Lockup) public lockups;\n\n    ///@notice\n    mapping(uint256 => int128) public slopeChanges;\n\n    ///@notice Token that is locked up in return for vote escrowed token\n    ERC20 stakingToken;\n\n    struct Checkpoint {\n        int128 bias;\n        int128 slope;\n        uint256 ts;\n        uint256 blk;\n    }\n\n    ///@notice Stores token lockup details\n    struct Lockup {\n        int128 amount;\n        uint256 end;\n    }\n\n    ///@custom:oz-upgrades-unsafe-allow constructor\n    constructor() initializer {}\n\n    function initialize(address _stakingToken) public initializer {\n        __Ownable_init();\n        __UUPSUpgradeable_init();\n\n        stakingToken = ERC20(_stakingToken);\n\n        // Derive the name and symbol from the staking token\n        _name = string(\n            bytes.concat(bytes(\"Vote Locked\"), \" \", bytes(stakingToken.name()))\n        );\n        _symbol = string(\n            bytes.concat(bytes(\"vl\"), bytes(stakingToken.symbol()))\n        );\n        // Use the same decimals as the staking token\n        _decimals = stakingToken.decimals();\n\n        // Push an initial global checkpoint\n        _globalCheckpoints.push(\n            Checkpoint({\n                bias: 0,\n                slope: 0,\n                ts: block.timestamp,\n                blk: block.number\n            })\n        );\n    }\n\n    /**\n     * @dev Returns the name of the token.\n     * @return string memory Token name\n     */\n    function name() public view virtual returns (string memory) {\n        return _name;\n    }\n\n    /**\n     * @dev Returns the symbol of the token, usually a shorter version of the\n     * name.\n     * @return string memory Token symbol\n     */\n    function symbol() public view virtual returns (string memory) {\n        return _symbol;\n    }\n\n    /**\n     * @dev Returns the number of decimals used to get its user representation.\n     * For example, if `decimals` equals `2`, a balance of `505` tokens should\n     * be displayed to a user as `5.05` (`505 / 10 ** 2`).\n     *\n     * Tokens usually opt for a value of 18, imitating the relationship between\n     * Ether and Wei. This is the value {ERC20} uses, unless this function is\n     * overridden;\n     * @return uint8 Token decimals\n     */\n    function decimals() public view virtual returns (uint8) {\n        return _decimals;\n    }\n\n    /**\n     * @dev See {ERC20-balanceOf}.\n     */\n    function balanceOf(address _account) public view returns (uint256) {\n        uint256 currentUserEpoch = userEpoch[_account];\n        if (currentUserEpoch == 0) {\n            return 0;\n        }\n        Checkpoint memory lastCheckpoint = _userCheckpoints[_account][\n            currentUserEpoch\n        ];\n        // Calculate the bias based on the last bias and the slope over the difference\n        // in time between the last checkpint timestamp and the current block timestamp;\n        lastCheckpoint.bias -= (lastCheckpoint.slope *\n            SafeCast.toInt128(int256(block.timestamp - lastCheckpoint.ts)));\n        return SafeCast.toUint256(max(lastCheckpoint.bias, 0));\n    }\n\n    /**\n     * @dev See {ERC20-totalSupply}.\n     */\n    function totalSupply() public view returns (uint256) {\n        if (_globalCheckpoints.length == 0) {\n            return 0;\n        }\n        Checkpoint memory lastCheckpoint = _globalCheckpoints[globalEpoch];\n        return _supplyAt(lastCheckpoint, block.timestamp);\n    }\n\n    /**\n     * @dev Get the `pos`-th checkpoint for `_account`.\n     * @return Checkpoint memory\n     */\n    function checkpoints(address _account, uint32 _pos)\n        public\n        view\n        virtual\n        returns (Checkpoint memory)\n    {\n        return _userCheckpoints[_account][_pos];\n    }\n\n    /**\n     * @dev Get number of checkpoints for `_account`.\n     * @return uint32\n     */\n    function numCheckpoints(address _account)\n        public\n        view\n        virtual\n        returns (uint256)\n    {\n        return _userCheckpoints[_account].length;\n    }\n\n    /**\n     * @dev Get last checkpoint for `_account`.\n     * @return Checkpoint memory\n     */\n    function getLastCheckpoint(address _account)\n        public\n        view\n        returns (Checkpoint memory)\n    {\n        return\n            _userCheckpoints[_account][_userCheckpoints[_account].length - 1];\n    }\n\n    /**\n     * @dev Get the `pos`-th global checkpoint.\n     * @return Checkpoint memory\n     */\n    function globalCheckpoints(uint32 pos)\n        public\n        view\n        returns (Checkpoint memory)\n    {\n        return _globalCheckpoints[pos];\n    }\n\n    /**\n     * @dev Get number of global checkpoints.\n     * @return uint256\n     */\n    function numGlobalCheckpoints() public view returns (uint256) {\n        return _globalCheckpoints.length;\n    }\n\n    /**\n     * @dev Get the last global checkpoint.\n     * @return Checkpoint memory\n     */\n    function getLastGlobalCheckpoint() public view returns (Checkpoint memory) {\n        return _globalCheckpoints[_globalCheckpoints.length - 1];\n    }\n\n    /**\n     * @dev Gets the current votes balance for `_account`\n     * This method is required for compatibility with the OpenZeppelin governance ERC20Votes.\n     * @param _account Account to get the votes balance for\n     * @return uint256 Current votes balance for `_account`\n     */\n    function getVotes(address _account) public view returns (uint256) {\n        return balanceOf(_account);\n    }\n\n    /**\n     * @dev Gets the current lockup for `_account`\n     */\n    function getLockup(address _account) public view returns (Lockup memory) {\n        return lockups[_account];\n    }\n\n    /**\n     * @dev Get the address `_account` is currently delegating to.\n     */\n    function delegates(address _account)\n        public\n        view\n        virtual\n        returns (address)\n    {}\n\n    /**\n     * @dev Delegate votes from the sender to `delegatee`.\n     */\n    function delegate(address delegatee) public virtual {\n        // TODO a future upgrade may support delegation\n        revert(\"Delegation is not supported\");\n    }\n\n    /**\n     * @dev Delegates votes from signer to `delegatee`\n     */\n    function delegateBySig(\n        address delegatee,\n        uint256 nonce,\n        uint256 end,\n        uint8 v,\n        bytes32 r,\n        bytes32 s\n    ) public virtual {\n        revert(\"Delegation by signature is not supported\");\n    }\n\n    /**\n     * @dev Deposits staking token and mints new veTokens according to the lockup length\n     * @param _amount Amount of staking token to deposit\n     * @param _end Lockup end time\n     */\n    function lockup(uint256 _amount, uint256 _end) public virtual {\n        // end is rounded down to week\n        _end = _floorToWeek(_end);\n\n        Lockup memory oldLockup = lockups[msg.sender];\n\n        require(\n            _end > block.timestamp,\n            \"End must be greater than the current block timestamp\"\n        );\n        if (oldLockup.end > 0 && _end < oldLockup.end) {\n            revert(\"End must be greater than or equal to the current end\");\n        }\n        // This is not an extension of an existing lockup, validate end\n        require(\n            _end - block.timestamp <= MAX_LOCK_TIME,\n            \"End must be before maximum lockup time\"\n        );\n        int128 amount = SafeCast.toInt128(int256(_amount));\n        // Amount extensions\n        require(\n            amount >= oldLockup.amount,\n            \"Amount must be greater than or equal to current amount\"\n        );\n\n        // oldLockup.amount is 0 if no lockup, or something if this is an increase in locked\n        // amount\n        uint256 amountDelta = SafeCast.toUint256(amount - oldLockup.amount);\n\n        // Old lockup amount will be 0 if no existing lockup, if this is an increase of the\n        // lockup amount, then _amount can be 0\n        Lockup memory newLockup = Lockup({amount: amount, end: _end});\n\n        lockups[msg.sender] = newLockup;\n\n        if (amountDelta > 0) {\n            // Transfer the amount delta\n            stakingToken.safeTransferFrom(\n                msg.sender,\n                address(this),\n                amountDelta\n            );\n        }\n\n        if (oldLockup.end > 0) {\n            // This is an extension of an existing lockup\n            emit LockupUpdated(\n                msg.sender,\n                oldLockup.amount,\n                oldLockup.end,\n                newLockup.amount,\n                newLockup.end,\n                block.timestamp\n            );\n        } else {\n            emit LockupCreated(\n                msg.sender,\n                newLockup.amount,\n                newLockup.end,\n                block.timestamp\n            );\n        }\n\n        _writeUserCheckpoint(msg.sender, oldLockup, newLockup);\n    }\n\n    /**\n     * @dev Withdraw all tokens from an expired lockup.\n     */\n    function withdraw() public {\n        Lockup memory oldLockup = Lockup({\n            end: lockups[msg.sender].end,\n            amount: lockups[msg.sender].amount\n        });\n        require(\n            block.timestamp >= oldLockup.end,\n            string(\n                bytes.concat(\n                    bytes(\"Lockup expires at \"),\n                    bytes(Strings.toString(oldLockup.end)),\n                    bytes(\", now is \"),\n                    bytes(Strings.toString(block.timestamp))\n                )\n            )\n        );\n\n        require(oldLockup.amount > 0, \"Lockup has no tokens\");\n\n        Lockup memory newLockup = Lockup({end: 0, amount: 0});\n        lockups[msg.sender] = newLockup;\n\n        uint256 amount = SafeCast.toUint256(oldLockup.amount);\n\n        stakingToken.safeTransfer(msg.sender, amount);\n\n        _writeUserCheckpoint(msg.sender, oldLockup, newLockup);\n\n        emit Withdraw(msg.sender, amount, block.timestamp);\n    }\n\n    /**\n     * @dev Public function to trigger global checkpoint.\n     */\n    function checkpoint() external {\n        _writeGlobalCheckpoint(0, 0);\n    }\n\n    /**\n     * @dev Write user checkpoint. User checkpoints are used to calculate the\n     * users vote balance for current and historical blocks.\n     * @param _oldLockup Users lockup prior to the change that triggered the checkpoint\n     * @param _newLockup Users new lockup\n     */\n    function _writeUserCheckpoint(\n        address _account,\n        Lockup memory _oldLockup,\n        Lockup memory _newLockup\n    ) private {\n        Checkpoint memory oldCheckpoint;\n        Checkpoint memory newCheckpoint;\n\n        int128 oldSlopeDelta = 0;\n        int128 newSlopeDelta = 0;\n\n        if (_oldLockup.end > block.timestamp && _oldLockup.amount > 0) {\n            // Old checkpoint still active, calculates its slope and bias\n            oldCheckpoint.slope =\n                _oldLockup.amount /\n                SafeCast.toInt128(int256(MAX_LOCK_TIME));\n            oldCheckpoint.bias =\n                oldCheckpoint.slope *\n                SafeCast.toInt128(int256(_oldLockup.end - block.timestamp));\n        }\n        if (_newLockup.end > block.timestamp && _newLockup.amount > 0) {\n            // New lockup also active, calculate its slope and bias\n            newCheckpoint.slope =\n                _newLockup.amount /\n                SafeCast.toInt128(int256(MAX_LOCK_TIME));\n            newCheckpoint.bias =\n                newCheckpoint.slope *\n                SafeCast.toInt128(int256(_newLockup.end - block.timestamp));\n        }\n\n        uint256 userCurrentEpoch = userEpoch[_account];\n        if (userCurrentEpoch == 0) {\n            // First user epoch, push first checkpoint\n            _userCheckpoints[_account].push(oldCheckpoint);\n        }\n\n        newCheckpoint.ts = block.timestamp;\n        newCheckpoint.blk = block.number;\n        userEpoch[_account] = userCurrentEpoch + 1;\n        // Push second checkpoint\n        _userCheckpoints[_account].push(newCheckpoint);\n\n        oldSlopeDelta = slopeChanges[_oldLockup.end];\n        if (_newLockup.end != 0) {\n            if (_newLockup.end == _oldLockup.end) {\n                // Lockup dates are the same end time, slope delta is the same\n                newSlopeDelta = oldSlopeDelta;\n            } else {\n                newSlopeDelta = slopeChanges[_newLockup.end];\n            }\n        }\n\n        _writeGlobalCheckpoint(\n            newCheckpoint.slope - oldCheckpoint.slope,\n            newCheckpoint.bias - oldCheckpoint.bias\n        );\n\n        // Schedule the slope changes\n        if (_oldLockup.end > block.timestamp) {\n            // Old lockup has not expired yet, so this is an adjustment of the slope\n            // oldSlopeDelta was <something> - oldCheckpoint.slope, so we cancel that\n            oldSlopeDelta = oldSlopeDelta + oldCheckpoint.slope;\n            if (_newLockup.end == _oldLockup.end) {\n                // It was a new deposit, not extension\n                oldSlopeDelta = oldSlopeDelta - newCheckpoint.slope;\n            }\n            slopeChanges[_oldLockup.end] = oldSlopeDelta;\n        }\n        if (_newLockup.end > block.timestamp) {\n            if (_newLockup.end > _oldLockup.end) {\n                newSlopeDelta = newSlopeDelta - newCheckpoint.slope;\n                slopeChanges[_newLockup.end] = newSlopeDelta;\n            }\n        }\n    }\n\n    /**\n     * @dev Write a global checkpoints. Global checkpoints are used to calculate the\n     * total supply for current and historical blocks.\n     * @param userSlopeDelta Change in slope that triggered this checkpoint\n     * @param userBiasDelta Change in bias that triggered this checkpoint\n     */\n    function _writeGlobalCheckpoint(int128 userSlopeDelta, int128 userBiasDelta)\n        private\n    {\n        Checkpoint memory lastCheckpoint;\n        if (globalEpoch > 0) {\n            lastCheckpoint = _globalCheckpoints[globalEpoch];\n        } else {\n            lastCheckpoint = Checkpoint({\n                bias: 0,\n                slope: 0,\n                ts: block.timestamp,\n                blk: block.number\n            });\n        }\n\n        Checkpoint memory initialLastCheckpoint = Checkpoint({\n            bias: 0,\n            slope: 0,\n            ts: lastCheckpoint.ts,\n            blk: lastCheckpoint.blk\n        });\n\n        uint256 blockSlope = 0; // dblock/dt\n        if (block.timestamp > lastCheckpoint.ts) {\n            // Scaled up\n            blockSlope =\n                ((block.number - lastCheckpoint.blk) * 1e18) /\n                (block.timestamp - lastCheckpoint.ts);\n        }\n\n        uint256 lastCheckpointTimestamp = lastCheckpoint.ts;\n        uint256 iterativeTime = _floorToWeek(lastCheckpointTimestamp);\n\n        for (uint256 i = 0; i < 255; i++) {\n            // 5 years\n            iterativeTime = iterativeTime + WEEK;\n\n            int128 slopeDelta = 0;\n            if (iterativeTime > block.timestamp) {\n                // Current epoch\n                iterativeTime = block.timestamp;\n            } else {\n                slopeDelta = slopeChanges[iterativeTime];\n            }\n\n            // Calculate the change in bias for the current epoch\n            int128 biasDelta = lastCheckpoint.slope *\n                SafeCast.toInt128(\n                    int256((iterativeTime - lastCheckpointTimestamp))\n                );\n\n            // The bias can be below 0\n            lastCheckpoint.bias = max(lastCheckpoint.bias - biasDelta, 0);\n            // The slope should never be below 0 but added for safety\n            lastCheckpoint.slope = max(lastCheckpoint.slope + slopeDelta, 0);\n            lastCheckpoint.ts = iterativeTime;\n            lastCheckpointTimestamp = iterativeTime;\n            lastCheckpoint.blk =\n                initialLastCheckpoint.blk +\n                ((blockSlope * (iterativeTime - initialLastCheckpoint.ts)) /\n                    1e18); // Scale back down\n\n            globalEpoch += 1;\n\n            if (iterativeTime == block.timestamp) {\n                lastCheckpoint.blk = block.number;\n                // Adjust the last checkpoint for any delta from the user\n                lastCheckpoint.slope = max(\n                    lastCheckpoint.slope + userSlopeDelta,\n                    0\n                );\n                lastCheckpoint.bias = max(\n                    lastCheckpoint.bias + userBiasDelta,\n                    0\n                );\n                _globalCheckpoints.push(lastCheckpoint);\n                break;\n            } else {\n                _globalCheckpoints.push(lastCheckpoint);\n            }\n        }\n    }\n\n    /**\n     * @dev Binary search to find epoch closest to block.\n     * @param _block Find the most recent point history before this block\n     * @param _maxEpoch Maximum epoch\n     * @return uint256 The most recent epoch before the block\n     */\n    function _findEpoch(\n        Checkpoint[] memory _checkpoints,\n        uint256 _block,\n        uint256 _maxEpoch\n    ) internal view returns (uint256) {\n        uint256 minEpoch = 0;\n        uint256 maxEpoch = _maxEpoch;\n        for (uint256 i = 0; i < 128; i++) {\n            if (minEpoch >= maxEpoch) break;\n            uint256 mid = (minEpoch + maxEpoch + 1) / 2;\n            if (_checkpoints[mid].blk <= _block) {\n                minEpoch = mid;\n            } else {\n                maxEpoch = mid - 1;\n            }\n        }\n        return minEpoch;\n    }\n\n    /**\n     * @dev Retrieve the number of votes for `_account` at the end of `_blockNumber`.\n     *\n     * This method is required for compatibility with the OpenZeppelin governance ERC20Votes.\n     *\n     * Requirements:\n     *\n     * - `blockNumber` must have been already mined\n     */\n    function getPastVotes(address _account, uint256 _blockNumber)\n        public\n        view\n        returns (uint256)\n    {\n        return balanceOfAt(_account, _blockNumber);\n    }\n\n    /**\n     * @dev Gets a users votingWeight at a given blockNumber\n     * @param _account User for which to return the balance\n     * @param _blockNumber Block at which to calculate balance\n     * @return uint256 Balance of user\n     */\n    function balanceOfAt(address _account, uint256 _blockNumber)\n        public\n        view\n        returns (uint256)\n    {\n        require(_blockNumber <= block.number, \"Block number is in the future\");\n\n        // Get most recent user Checkpoint to block\n        uint256 recentUserEpoch = _findEpoch(\n            _userCheckpoints[_account],\n            _blockNumber,\n            userEpoch[_account] // Max epoch\n        );\n        if (recentUserEpoch == 0) {\n            return 0;\n        }\n        Checkpoint memory userPoint = _userCheckpoints[_account][\n            recentUserEpoch\n        ];\n\n        // Get most recent global Checkpoint to block\n        uint256 recentGlobalEpoch = _findEpoch(\n            _globalCheckpoints,\n            _blockNumber,\n            globalEpoch // Max epoch\n        );\n        Checkpoint memory checkpoint0 = _globalCheckpoints[recentGlobalEpoch];\n\n        // Calculate delta (block & time) between checkpoint and target block\n        // Allowing us to calculate the average seconds per block between\n        // the two points\n        uint256 dBlock = 0;\n        uint256 dTime = 0;\n        if (recentGlobalEpoch < globalEpoch) {\n            Checkpoint memory checkpoint1 = _globalCheckpoints[\n                recentGlobalEpoch + 1\n            ];\n            dBlock = checkpoint1.blk - checkpoint0.blk;\n            dTime = checkpoint1.ts - checkpoint0.ts;\n        } else {\n            dBlock = block.number - checkpoint0.blk;\n            dTime = block.timestamp - checkpoint0.ts;\n        }\n\n        // (Deterministically) Estimate the time at which block _blockNumber was mined\n        uint256 blockTime = checkpoint0.ts;\n        if (dBlock != 0) {\n            blockTime += (dTime * (_blockNumber - checkpoint0.blk)) / dBlock;\n        }\n\n        // Current Bias = most recent bias - (slope * time since update)\n        userPoint.bias -= (userPoint.slope *\n            SafeCast.toInt128(int256(blockTime - userPoint.ts)));\n        if (userPoint.bias >= 0) {\n            return SafeCast.toUint256(userPoint.bias);\n        } else {\n            return 0;\n        }\n    }\n\n    /**\n     * @dev Retrieve the `totalSupply` at the end of `blockNumber`.\n     *\n     * This method is required for compatibility with the OpenZeppelin governance ERC20Votes.\n     *\n     * Requirements:\n     *\n     * - `_blockNumber` must have been already mined\n     *\n     * @param _blockNumber Block at which to calculate total supply\n     * @return uint256 Total supply at the given block\n     */\n    function getPastTotalSupply(uint256 _blockNumber)\n        public\n        view\n        returns (uint256)\n    {\n        return totalSupplyAt(_blockNumber);\n    }\n\n    /**\n     * @dev Calculates total supply of votingWeight at a given blockNumber\n     * @param _blockNumber Block number at which to calculate total supply\n     * @return totalSupply of voting token weight at the given blockNumber\n     */\n    function totalSupplyAt(uint256 _blockNumber) public view returns (uint256) {\n        require(_blockNumber <= block.number, \"Block number is in the future\");\n\n        // Get most recent global Checkpoint to block\n        uint256 recentGlobalEpoch = _findEpoch(\n            _globalCheckpoints,\n            _blockNumber,\n            globalEpoch\n        );\n\n        Checkpoint memory checkpoint0 = _globalCheckpoints[recentGlobalEpoch];\n\n        if (checkpoint0.blk > _blockNumber) {\n            return 0;\n        }\n\n        uint256 dTime = 0;\n        if (recentGlobalEpoch < globalEpoch) {\n            Checkpoint memory checkpoint1 = _globalCheckpoints[\n                recentGlobalEpoch + 1\n            ];\n            if (checkpoint0.blk != checkpoint1.blk) {\n                dTime =\n                    ((_blockNumber - checkpoint0.blk) *\n                        (checkpoint1.ts - checkpoint0.ts)) /\n                    (checkpoint1.blk - checkpoint0.blk);\n            }\n        } else if (checkpoint0.blk != block.number) {\n            dTime =\n                ((_blockNumber - checkpoint0.blk) *\n                    (block.timestamp - checkpoint0.ts)) /\n                (block.number - checkpoint0.blk);\n        }\n        // Now dTime contains info on how far are we beyond point\n\n        return _supplyAt(checkpoint0, checkpoint0.ts + dTime);\n    }\n\n    /**\n     * @dev Calculates total supply of votingWeight at a given time _t\n     * @param _checkpoint Most recent point before time _t\n     * @param _time Time at which to calculate supply\n     * @return totalSupply at given time\n     */\n    function _supplyAt(Checkpoint memory _checkpoint, uint256 _time)\n        internal\n        view\n        returns (uint256)\n    {\n        Checkpoint memory lastCheckpoint = _checkpoint;\n\n        // Floor the timestamp to weekly interval\n        uint256 iterativeTime = _floorToWeek(lastCheckpoint.ts);\n        // Iterate through all weeks between _checkpoint & _time to account for slope changes\n        for (uint256 i = 0; i < 255; i++) {\n            iterativeTime = iterativeTime + WEEK;\n            int128 dSlope = 0;\n            // If week end is after timestamp, then truncate & leave dSlope to 0\n            if (iterativeTime > _time) {\n                iterativeTime = _time;\n            }\n            // else get most recent slope change\n            else {\n                dSlope = slopeChanges[iterativeTime];\n            }\n\n            lastCheckpoint.bias =\n                lastCheckpoint.bias -\n                (lastCheckpoint.slope *\n                    SafeCast.toInt128(\n                        int256(iterativeTime - lastCheckpoint.ts)\n                    ));\n\n            if (iterativeTime == _time) {\n                break;\n            }\n\n            lastCheckpoint.slope = lastCheckpoint.slope + dSlope;\n            lastCheckpoint.ts = iterativeTime;\n        }\n\n        return SafeCast.toUint256(max(lastCheckpoint.bias, 0));\n    }\n\n    /**\n     * @dev Floors a timestamp to the nearest weekly increment\n     * @param _t Timestamp to floor\n     * @return Timestamp floored to nearest weekly increment\n     */\n    function _floorToWeek(uint256 _t) internal pure returns (uint256) {\n        return (_t / WEEK) * WEEK;\n    }\n\n    /**\n     * @dev Returns the largest of two numbers.\n     * @param _a First number\n     * @param _b Second number\n     * @return Largest of _a and _b\n     */\n    function max(uint256 _a, uint256 _b) internal pure returns (uint256) {\n        return _a >= _b ? _a : _b;\n    }\n\n    /**\n     * @dev Returns the smallest of two numbers.\n     * @param _a First number\n     * @param _b Second number\n     * @return Smallest of _a and _b\n     */\n    function max(int128 _a, int128 _b) internal pure returns (int128) {\n        return _a >= _b ? _a : _b;\n    }\n\n    function _authorizeUpgrade(address newImplementation)\n        internal\n        override\n        onlyOwner\n    {}\n}\n","sourcePath":"contracts/VoteLockerCurve.sol","type":"contract","deployment":{"address":"0x4D16899f2C1f189B5B2703d682e820CDCa893e43","chainid":"4","blockHeight":10378988}}