{"abi":[{"inputs":[{"internalType":"address","name":"ogv_","type":"address"},{"internalType":"uint256","name":"epoch_","type":"uint256"},{"internalType":"address","name":"rewardsSource_","type":"address"}],"stateMutability":"nonpayable","type":"constructor","name":"constructor"},{"inputs":[{"internalType":"uint256","name":"x","type":"uint256"}],"name":"PRBMathUD60x18__Exp2InputTooBig","type":"error"},{"inputs":[{"internalType":"uint256","name":"x","type":"uint256"}],"name":"PRBMathUD60x18__LogInputTooSmall","type":"error"},{"inputs":[{"internalType":"uint256","name":"prod1","type":"uint256"}],"name":"PRBMath__MulDivFixedPointOverflow","type":"error"},{"anonymous":false,"inputs":[{"indexed":true,"internalType":"address","name":"owner","type":"address"},{"indexed":true,"internalType":"address","name":"spender","type":"address"},{"indexed":false,"internalType":"uint256","name":"value","type":"uint256"}],"name":"Approval","type":"event"},{"anonymous":false,"inputs":[{"indexed":true,"internalType":"address","name":"delegator","type":"address"},{"indexed":true,"internalType":"address","name":"fromDelegate","type":"address"},{"indexed":true,"internalType":"address","name":"toDelegate","type":"address"}],"name":"DelegateChanged","type":"event"},{"anonymous":false,"inputs":[{"indexed":true,"internalType":"address","name":"delegate","type":"address"},{"indexed":false,"internalType":"uint256","name":"previousBalance","type":"uint256"},{"indexed":false,"internalType":"uint256","name":"newBalance","type":"uint256"}],"name":"DelegateVotesChanged","type":"event"},{"anonymous":false,"inputs":[{"indexed":true,"internalType":"address","name":"user","type":"address"},{"indexed":false,"internalType":"uint256","name":"amount","type":"uint256"}],"name":"Reward","type":"event"},{"anonymous":false,"inputs":[{"indexed":true,"internalType":"address","name":"user","type":"address"},{"indexed":false,"internalType":"uint256","name":"lockupId","type":"uint256"},{"indexed":false,"internalType":"uint256","name":"amount","type":"uint256"},{"indexed":false,"internalType":"uint256","name":"end","type":"uint256"},{"indexed":false,"internalType":"uint256","name":"points","type":"uint256"}],"name":"Stake","type":"event"},{"anonymous":false,"inputs":[{"indexed":true,"internalType":"address","name":"from","type":"address"},{"indexed":true,"internalType":"address","name":"to","type":"address"},{"indexed":false,"internalType":"uint256","name":"value","type":"uint256"}],"name":"Transfer","type":"event"},{"anonymous":false,"inputs":[{"indexed":true,"internalType":"address","name":"user","type":"address"},{"indexed":false,"internalType":"uint256","name":"lockupId","type":"uint256"},{"indexed":false,"internalType":"uint256","name":"amount","type":"uint256"},{"indexed":false,"internalType":"uint256","name":"end","type":"uint256"},{"indexed":false,"internalType":"uint256","name":"points","type":"uint256"}],"name":"Unstake","type":"event"},{"inputs":[],"name":"DOMAIN_SEPARATOR","outputs":[{"internalType":"bytes32","name":"","type":"bytes32"}],"stateMutability":"view","type":"function"},{"inputs":[],"name":"accRewardPerShare","outputs":[{"internalType":"uint256","name":"","type":"uint256"}],"stateMutability":"view","type":"function"},{"inputs":[{"internalType":"address","name":"owner","type":"address"},{"internalType":"address","name":"spender","type":"address"}],"name":"allowance","outputs":[{"internalType":"uint256","name":"","type":"uint256"}],"stateMutability":"view","type":"function"},{"inputs":[{"internalType":"address","name":"spender","type":"address"},{"internalType":"uint256","name":"amount","type":"uint256"}],"name":"approve","outputs":[{"internalType":"bool","name":"","type":"bool"}],"stateMutability":"nonpayable","type":"function"},{"inputs":[{"internalType":"address","name":"account","type":"address"}],"name":"balanceOf","outputs":[{"internalType":"uint256","name":"","type":"uint256"}],"stateMutability":"view","type":"function"},{"inputs":[{"internalType":"address","name":"account","type":"address"},{"internalType":"uint32","name":"pos","type":"uint32"}],"name":"checkpoints","outputs":[{"components":[{"internalType":"uint32","name":"fromBlock","type":"uint32"},{"internalType":"uint224","name":"votes","type":"uint224"}],"internalType":"struct ERC20Votes.Checkpoint","name":"","type":"tuple"}],"stateMutability":"view","type":"function"},{"inputs":[],"name":"collectRewards","outputs":[],"stateMutability":"nonpayable","type":"function"},{"inputs":[],"name":"decimals","outputs":[{"internalType":"uint8","name":"","type":"uint8"}],"stateMutability":"view","type":"function"},{"inputs":[{"internalType":"address","name":"spender","type":"address"},{"internalType":"uint256","name":"subtractedValue","type":"uint256"}],"name":"decreaseAllowance","outputs":[{"internalType":"bool","name":"","type":"bool"}],"stateMutability":"nonpayable","type":"function"},{"inputs":[{"internalType":"address","name":"delegatee","type":"address"}],"name":"delegate","outputs":[],"stateMutability":"nonpayable","type":"function"},{"inputs":[{"internalType":"address","name":"delegatee","type":"address"},{"internalType":"uint256","name":"nonce","type":"uint256"},{"internalType":"uint256","name":"expiry","type":"uint256"},{"internalType":"uint8","name":"v","type":"uint8"},{"internalType":"bytes32","name":"r","type":"bytes32"},{"internalType":"bytes32","name":"s","type":"bytes32"}],"name":"delegateBySig","outputs":[],"stateMutability":"nonpayable","type":"function"},{"inputs":[{"internalType":"address","name":"account","type":"address"}],"name":"delegates","outputs":[{"internalType":"address","name":"","type":"address"}],"stateMutability":"view","type":"function"},{"inputs":[],"name":"epoch","outputs":[{"internalType":"uint256","name":"","type":"uint256"}],"stateMutability":"view","type":"function"},{"inputs":[{"internalType":"uint256","name":"lockupId","type":"uint256"},{"internalType":"uint256","name":"duration","type":"uint256"}],"name":"extend","outputs":[],"stateMutability":"nonpayable","type":"function"},{"inputs":[{"internalType":"uint256","name":"blockNumber","type":"uint256"}],"name":"getPastTotalSupply","outputs":[{"internalType":"uint256","name":"","type":"uint256"}],"stateMutability":"view","type":"function"},{"inputs":[{"internalType":"address","name":"account","type":"address"},{"internalType":"uint256","name":"blockNumber","type":"uint256"}],"name":"getPastVotes","outputs":[{"internalType":"uint256","name":"","type":"uint256"}],"stateMutability":"view","type":"function"},{"inputs":[{"internalType":"address","name":"account","type":"address"}],"name":"getVotes","outputs":[{"internalType":"uint256","name":"","type":"uint256"}],"stateMutability":"view","type":"function"},{"inputs":[{"internalType":"address","name":"spender","type":"address"},{"internalType":"uint256","name":"addedValue","type":"uint256"}],"name":"increaseAllowance","outputs":[{"internalType":"bool","name":"","type":"bool"}],"stateMutability":"nonpayable","type":"function"},{"inputs":[{"internalType":"address","name":"","type":"address"},{"internalType":"uint256","name":"","type":"uint256"}],"name":"lockups","outputs":[{"internalType":"uint128","name":"amount","type":"uint128"},{"internalType":"uint128","name":"end","type":"uint128"},{"internalType":"uint256","name":"points","type":"uint256"}],"stateMutability":"view","type":"function"},{"inputs":[],"name":"name","outputs":[{"internalType":"string","name":"","type":"string"}],"stateMutability":"pure","type":"function"},{"inputs":[{"internalType":"address","name":"owner","type":"address"}],"name":"nonces","outputs":[{"internalType":"uint256","name":"","type":"uint256"}],"stateMutability":"view","type":"function"},{"inputs":[{"internalType":"address","name":"account","type":"address"}],"name":"numCheckpoints","outputs":[{"internalType":"uint32","name":"","type":"uint32"}],"stateMutability":"view","type":"function"},{"inputs":[],"name":"ogv","outputs":[{"internalType":"contract ERC20","name":"","type":"address"}],"stateMutability":"view","type":"function"},{"inputs":[{"internalType":"address","name":"owner","type":"address"},{"internalType":"address","name":"spender","type":"address"},{"internalType":"uint256","name":"value","type":"uint256"},{"internalType":"uint256","name":"deadline","type":"uint256"},{"internalType":"uint8","name":"v","type":"uint8"},{"internalType":"bytes32","name":"r","type":"bytes32"},{"internalType":"bytes32","name":"s","type":"bytes32"}],"name":"permit","outputs":[],"stateMutability":"nonpayable","type":"function"},{"inputs":[{"internalType":"uint256","name":"amount","type":"uint256"},{"internalType":"uint256","name":"duration","type":"uint256"}],"name":"previewPoints","outputs":[{"internalType":"uint256","name":"","type":"uint256"},{"internalType":"uint256","name":"","type":"uint256"}],"stateMutability":"view","type":"function"},{"inputs":[{"internalType":"address","name":"user","type":"address"}],"name":"previewRewards","outputs":[{"internalType":"uint256","name":"","type":"uint256"}],"stateMutability":"view","type":"function"},{"inputs":[{"internalType":"address","name":"","type":"address"}],"name":"rewardDebtPerShare","outputs":[{"internalType":"uint256","name":"","type":"uint256"}],"stateMutability":"view","type":"function"},{"inputs":[],"name":"rewardsSource","outputs":[{"internalType":"contract RewardsSource","name":"","type":"address"}],"stateMutability":"view","type":"function"},{"inputs":[{"internalType":"uint256","name":"amount","type":"uint256"},{"internalType":"uint256","name":"duration","type":"uint256"},{"internalType":"address","name":"to","type":"address"}],"name":"stake","outputs":[],"stateMutability":"nonpayable","type":"function"},{"inputs":[{"internalType":"uint256","name":"amount","type":"uint256"},{"internalType":"uint256","name":"duration","type":"uint256"}],"name":"stake","outputs":[],"stateMutability":"nonpayable","type":"function"},{"inputs":[],"name":"symbol","outputs":[{"internalType":"string","name":"","type":"string"}],"stateMutability":"pure","type":"function"},{"inputs":[],"name":"totalSupply","outputs":[{"internalType":"uint256","name":"","type":"uint256"}],"stateMutability":"view","type":"function"},{"inputs":[{"internalType":"address","name":"","type":"address"},{"internalType":"uint256","name":"","type":"uint256"}],"name":"transfer","outputs":[{"internalType":"bool","name":"","type":"bool"}],"stateMutability":"nonpayable","type":"function"},{"inputs":[{"internalType":"address","name":"","type":"address"},{"internalType":"address","name":"","type":"address"},{"internalType":"uint256","name":"","type":"uint256"}],"name":"transferFrom","outputs":[{"internalType":"bool","name":"","type":"bool"}],"stateMutability":"nonpayable","type":"function"},{"inputs":[{"internalType":"uint256","name":"lockupId","type":"uint256"}],"name":"unstake","outputs":[],"stateMutability":"nonpayable","type":"function"}],"bytecode":"6101806040523480156200001257600080fd5b506040516200380538038062003805833981016040819052620000359162000245565b604051806040016040528060058152602001643b32a7a3ab60d91b81525080604051806040016040528060018152602001603160f81b81525060405180602001604052806000815250604051806020016040528060008152508160039080519060200190620000a692919062000182565b508051620000bc90600490602084019062000182565b5050825160208085019190912083518483012060e08290526101008190524660a0818152604080517f8b73c3c69bb8fe3d512ecc4cf759cc79239f7b179b0ffacaa9a75d522b39400f81880181905281830187905260608201869052608082019490945230818401528151808203909301835260c0019052805194019390932091935091906080523060c05261012052505050506001600160a01b03938416610160525061014091909152600b80546001600160a01b03191691909216179055620002c3565b828054620001909062000286565b90600052602060002090601f016020900481019282620001b45760008555620001ff565b82601f10620001cf57805160ff1916838001178555620001ff565b82800160010185558215620001ff579182015b82811115620001ff578251825591602001919060010190620001e2565b506200020d92915062000211565b5090565b5b808211156200020d576000815560010162000212565b80516001600160a01b03811681146200024057600080fd5b919050565b6000806000606084860312156200025b57600080fd5b620002668462000228565b9250602084015191506200027d6040850162000228565b90509250925092565b600181811c908216806200029b57607f821691505b60208210811415620002bd57634e487b7160e01b600052602260045260246000fd5b50919050565b60805160a05160c05160e051610100516101205161014051610160516134a4620003616000396000818161026e0152818161078c015281816114b0015281816115c3015281816117200152611d0101526000818161045001528181610996015281816109bd01526109ff0152600061187f015260006118ce015260006118a9015260006118020152600061182c0152600061185601526134a46000f3fe608060405234801561001057600080fd5b50600436106102115760003560e01c80637628a37d11610125578063a9059cbb116100ad578063d505accf1161007c578063d505accf1461050e578063dd62ed3e14610521578063f1127ed814610534578063f166e92014610571578063f7240d2f1461058457600080fd5b8063a9059cbb146104a1578063c3cda520146104af578063c89258db146104c2578063c93d0b1e146104d557600080fd5b8063900cf0cf116100f4578063900cf0cf1461044b578063939d62371461047257806395d89b41146102165780639ab24eb01461047b578063a457c2d71461048e57600080fd5b80637628a37d146103ff5780637b0472f0146104125780637ecebe00146104255780638e539e8c1461043857600080fd5b806339509351116101a8578063587cde1e11610177578063587cde1e146103675780635c19a95c146103935780636fcfff45146103a657806370a08231146103ce57806370bb45b3146103f757600080fd5b806339509351146102f95780633a46b1a81461030c5780634423bf571461031f5780634fd0e6481461033f57600080fd5b806323b872dd116101e457806323b872dd146102ba5780632e17de78146102cd578063313ce567146102e25780633644e515146102f157600080fd5b806306fdde0314610216578063095ea7b314610246578063142561cf1461026957806318160ddd146102a8575b600080fd5b60408051808201825260058152643b32a7a3ab60d91b6020820152905161023d91906130de565b60405180910390f35b61025961025436600461314a565b610597565b604051901515815260200161023d565b6102907f000000000000000000000000000000000000000000000000000000000000000081565b6040516001600160a01b03909116815260200161023d565b6002545b60405190815260200161023d565b6102596102c8366004613174565b6105b1565b6102e06102db3660046131b0565b610601565b005b6040516012815260200161023d565b6102ac610854565b61025961030736600461314a565b610863565b6102ac61031a36600461314a565b610885565b6102ac61032d3660046131c9565b600c6020526000908152604090205481565b61035261034d3660046131e4565b6108ff565b6040805192835260208301919091520161023d565b6102906103753660046131c9565b6001600160a01b039081166000908152600760205260409020541690565b6102e06103a13660046131c9565b610a83565b6103b96103b43660046131c9565b610a90565b60405163ffffffff909116815260200161023d565b6102ac6103dc3660046131c9565b6001600160a01b031660009081526020819052604090205490565b6102e0610ab2565b6102e061040d366004613206565b610abd565b6102e06104203660046131e4565b610acd565b6102ac6104333660046131c9565b610adc565b6102ac6104463660046131b0565b610afa565b6102ac7f000000000000000000000000000000000000000000000000000000000000000081565b6102ac600d5481565b6102ac6104893660046131c9565b610b56565b61025961049c36600461314a565b610bdc565b6102596102c836600461314a565b6102e06104bd36600461324c565b610c62565b6102e06104d03660046131e4565b610db6565b6104e86104e336600461314a565b610fc5565b604080516001600160801b0394851681529390921660208401529082015260600161023d565b6102e061051c3660046132a4565b611016565b6102ac61052f36600461330e565b611198565b610547610542366004613341565b6111c3565b60408051825163ffffffff1681526020928301516001600160e01b0316928101929092520161023d565b6102ac61057f3660046131c9565b611246565b600b54610290906001600160a01b031681565b6000336105a5818585611361565b60019150505b92915050565b60405162461bcd60e51b815260206004820152601b60248201527f5374616b696e673a205472616e73666572732064697361626c6564000000000060448201526000906064015b60405180910390fd5b336000908152600a6020526040812080548390811061062257610622613381565b600091825260209182902060408051606081018252600290930290910180546001600160801b03808216808652600160801b90920416948401859052600190910154918301829052919350909190428211156106cb5760405162461bcd60e51b815260206004820152602260248201527f5374616b696e673a20456e64206f66206c6f636b7570206e6f74207265616368604482015261195960f21b60648201526084016105f8565b816107265760405162461bcd60e51b815260206004820152602560248201527f5374616b696e673a20416c726561647920756e7374616b65642074686973206c60448201526406f636b75760dc1b60648201526084016105f8565b61072f33611485565b336000908152600a6020526040902080548690811061075057610750613381565b6000918252602082206002909102018181556001015561077033826117d7565b60405163a9059cbb60e01b8152336004820152602481018490527f00000000000000000000000000000000000000000000000000000000000000006001600160a01b03169063a9059cbb906044016020604051808303816000875af11580156107dd573d6000803e3d6000fd5b505050506040513d601f19601f820116820180604052508101906108019190613397565b5060408051868152602081018590529081018390526060810182905233907f05b744e3e9358bc00ba3cc0c6606a4d6536134dba00b2d2ee4b5de169acd6427906080015b60405180910390a25050505050565b600061085e6117f5565b905090565b6000336105a58185856108768383611198565b61088091906133cf565b611361565b60004382106108d65760405162461bcd60e51b815260206004820152601f60248201527f4552433230566f7465733a20626c6f636b206e6f7420796574206d696e65640060448201526064016105f8565b6001600160a01b03831660009081526008602052604090206108f8908361191c565b9392505050565b60008062093a8083101561094a5760405162461bcd60e51b815260206004820152601260248201527114dd185ada5b99ce88151bdbc81cda1bdc9d60721b60448201526064016105f8565b6307861f808311156109925760405162461bcd60e51b81526020600482015260116024820152705374616b696e673a20546f6f206c6f6e6760781b60448201526064016105f8565b60007f000000000000000000000000000000000000000000000000000000000000000042116109e1577f00000000000000000000000000000000000000000000000000000000000000006109e3565b425b905060006109f185836133cf565b905060006301e13380610a247f0000000000000000000000000000000000000000000000000000000000000000846133e7565b610a3690670de0b6b3a76400006133fe565b610a40919061341d565b90506000610a566718fae27693b40000836119d8565b9050670de0b6b3a7640000610a6b828a6133fe565b610a75919061341d565b989297509195505050505050565b610a8d3382611a17565b50565b6001600160a01b0381166000908152600860205260408120546105ab90611a90565b610abb33611485565b565b610ac8838383611af9565b505050565b610ad8828233611af9565b5050565b6001600160a01b0381166000908152600560205260408120546105ab565b6000438210610b4b5760405162461bcd60e51b815260206004820152601f60248201527f4552433230566f7465733a20626c6f636b206e6f7420796574206d696e65640060448201526064016105f8565b6105ab60098361191c565b6001600160a01b0381166000908152600860205260408120548015610bc9576001600160a01b0383166000908152600860205260409020610b986001836133e7565b81548110610ba857610ba8613381565b600091825260209091200154600160201b90046001600160e01b0316610bcc565b60005b6001600160e01b03169392505050565b60003381610bea8286611198565b905083811015610c4a5760405162461bcd60e51b815260206004820152602560248201527f45524332303a2064656372656173656420616c6c6f77616e63652062656c6f77604482015264207a65726f60d81b60648201526084016105f8565b610c578286868403611361565b506001949350505050565b83421115610cb25760405162461bcd60e51b815260206004820152601d60248201527f4552433230566f7465733a207369676e6174757265206578706972656400000060448201526064016105f8565b604080517fe48329057bfd03d55e49b547132e39cffd9c1820ad7b9d4c5307691425d15adf60208201526001600160a01b038816918101919091526060810186905260808101859052600090610d2c90610d249060a00160405160208183030381529060405280519060200120611de0565b858585611e2e565b9050610d55816001600160a01b0316600090815260056020526040902080546001810190915590565b8614610da35760405162461bcd60e51b815260206004820152601960248201527f4552433230566f7465733a20696e76616c6964206e6f6e63650000000000000060448201526064016105f8565b610dad8188611a17565b50505050505050565b610dbf33611485565b336000908152600a60205260408120805484908110610de057610de0613381565b6000918252602080832060408051606081018252600290940290910180546001600160801b03808216808752600160801b90920416938501849052600190910154918401829052929450919290919080610e3a85886108ff565b91509150838111610e985760405162461bcd60e51b815260206004820152602260248201527f5374616b696e673a204e6577206c6f636b7570206d757374206265206c6f6e6760448201526132b960f11b60648201526084016105f8565b6001600160801b0381166020808801919091526040808801849052336000908152600a909252902080548791908a908110610ed557610ed5613381565b60009182526020918290208351928401516001600160801b03908116600160801b029316929092176002909102909101908155604090910151600190910155610f2733610f2285856133e7565b611e56565b60408051898152602081018790529081018590526060810184905233907f05b744e3e9358bc00ba3cc0c6606a4d6536134dba00b2d2ee4b5de169acd64279060800160405180910390a260408051898152602081018790529081018290526060810183905233907f2720efa4b2dd4f3f8a347da3cbd290a522e9432da9072c5b8e6300496fdde2829060800160405180910390a25050505050505050565b600a6020528160005260406000208181548110610fe157600080fd5b6000918252602090912060029091020180546001909101546001600160801b038083169450600160801b909204909116915083565b834211156110665760405162461bcd60e51b815260206004820152601d60248201527f45524332305065726d69743a206578706972656420646561646c696e6500000060448201526064016105f8565b60007f6e71edae12b1b97f4d1f60370fef10105fa2faae0126114a169c64845d6126c98888886110b38c6001600160a01b0316600090815260056020526040902080546001810190915590565b6040805160208101969096526001600160a01b0394851690860152929091166060840152608083015260a082015260c0810186905260e001604051602081830303815290604052805190602001209050600061110e82611de0565b9050600061111e82878787611e2e565b9050896001600160a01b0316816001600160a01b0316146111815760405162461bcd60e51b815260206004820152601e60248201527f45524332305065726d69743a20696e76616c6964207369676e6174757265000060448201526064016105f8565b61118c8a8a8a611361565b50505050505050505050565b6001600160a01b03918216600090815260016020908152604080832093909416825291909152205490565b60408051808201909152600080825260208201526001600160a01b0383166000908152600860205260409020805463ffffffff841690811061120757611207613381565b60009182526020918290206040805180820190915291015463ffffffff81168252600160201b90046001600160e01b0316918101919091529392505050565b60008061125260025490565b9050806112625750600092915050565b600d54600b546040805163e0d801dd60e01b8152905184926001600160a01b03169163e0d801dd9160048083019260209291908290030181865afa1580156112ae573d6000803e3d6000fd5b505050506040513d601f19601f820116820180604052508101906112d2919061343f565b6112e19064e8d4a510006133fe565b6112eb919061341d565b6112f590826133cf565b6001600160a01b0385166000908152600c60205260408120549192509061131c90836133e7565b905064e8d4a5100081611344876001600160a01b031660009081526020819052604090205490565b61134e91906133fe565b611358919061341d565b95945050505050565b6001600160a01b0383166113c35760405162461bcd60e51b8152602060048201526024808201527f45524332303a20617070726f76652066726f6d20746865207a65726f206164646044820152637265737360e01b60648201526084016105f8565b6001600160a01b0382166114245760405162461bcd60e51b815260206004820152602260248201527f45524332303a20617070726f766520746f20746865207a65726f206164647265604482015261737360f01b60648201526084016105f8565b6001600160a01b0383811660008181526001602090815260408083209487168084529482529182902085905590518481527f8c5be1e5ebec7d5bd14f71427d1e84f3dd0314c0f7b2291e5b200ac8c7c3b925910160405180910390a3505050565b600061149060025490565b9050801561166d576040516370a0823160e01b81523060048201526000907f00000000000000000000000000000000000000000000000000000000000000006001600160a01b0316906370a0823190602401602060405180830381865afa1580156114ff573d6000803e3d6000fd5b505050506040513d601f19601f82011682018060405250810190611523919061343f565b9050600b60009054906101000a90046001600160a01b03166001600160a01b03166370bb45b36040518163ffffffff1660e01b81526004016020604051808303816000875af1925050508015611596575060408051601f3d908101601f191682019092526115939181019061343f565b60015b61159f576115a1565b505b6040516370a0823160e01b815230600482015260009082906001600160a01b037f000000000000000000000000000000000000000000000000000000000000000016906370a0823190602401602060405180830381865afa15801561160a573d6000803e3d6000fd5b505050506040513d601f19601f8201168201806040525081019061162e919061343f565b61163891906133e7565b90508261164a8264e8d4a510006133fe565b611654919061341d565b600d600082825461166591906133cf565b909155505050505b6001600160a01b0382166000908152600c6020526040812054600d5461169391906133e7565b9050600064e8d4a51000826116bd866001600160a01b031660009081526020819052604090205490565b6116c791906133fe565b6116d1919061341d565b600d546001600160a01b0386166000908152600c60205260409020559050806116fa5750505050565b60405163a9059cbb60e01b81526001600160a01b038581166004830152602482018390527f0000000000000000000000000000000000000000000000000000000000000000169063a9059cbb906044016020604051808303816000875af1158015611769573d6000803e3d6000fd5b505050506040513d601f19601f8201168201806040525081019061178d9190613397565b50836001600160a01b03167f619caafabdd75649b302ba8419e48cccf64f37f1983ac4727cfb38b57703ffc9826040516117c991815260200190565b60405180910390a250505050565b6117e18282611ee0565b6117ef600961203583612041565b50505050565b6000306001600160a01b037f00000000000000000000000000000000000000000000000000000000000000001614801561184e57507f000000000000000000000000000000000000000000000000000000000000000046145b1561187857507f000000000000000000000000000000000000000000000000000000000000000090565b50604080517f00000000000000000000000000000000000000000000000000000000000000006020808301919091527f0000000000000000000000000000000000000000000000000000000000000000828401527f000000000000000000000000000000000000000000000000000000000000000060608301524660808301523060a0808401919091528351808403909101815260c0909201909252805191012090565b8154600090815b8181101561198057600061193782846121b8565b90508486828154811061194c5761194c613381565b60009182526020909120015463ffffffff16111561196c5780925061197a565b6119778160016133cf565b91505b50611923565b81156119c357846119926001846133e7565b815481106119a2576119a2613381565b600091825260209091200154600160201b90046001600160e01b03166119c6565b60005b6001600160e01b031695945050505050565b6000826119fd5781156119ec5760006119f6565b670de0b6b3a76400005b90506105ab565b6108f8611a12611a0c856121d3565b84612283565b61228f565b6001600160a01b038281166000818152600760208181526040808420805485845282862054949093528787166001600160a01b03198416811790915590519190951694919391928592917f3134e8a2e6d97e929a7e54011ea5485d7d196dd5f0ba4d4ef95803e8e3fc257f9190a46117ef8284836122d5565b600063ffffffff821115611af55760405162461bcd60e51b815260206004820152602660248201527f53616665436173743a2076616c756520646f65736e27742066697420696e203360448201526532206269747360d01b60648201526084016105f8565b5090565b6001600160a01b038116611b4f5760405162461bcd60e51b815260206004820152601c60248201527f5374616b696e673a20546f20746865207a65726f20616464726573730000000060448201526064016105f8565b6001600160801b03831115611b9a5760405162461bcd60e51b81526020600482015260116024820152700a6e8c2d6d2dcce7440a8dede40daeac6d607b1b60448201526064016105f8565b60008311611be05760405162461bcd60e51b81526020600482015260136024820152720a6e8c2d6d2dcce74409cdee840cadcdeeaced606b1b60448201526064016105f8565b600080611bed85856108ff565b90925090506001600160c01b03611c0360025490565b611c0d90846133cf565b1115611c5b5760405162461bcd60e51b815260206004820152601c60248201527f5374616b696e673a204d617820706f696e74732065786365656465640000000060448201526064016105f8565b611c6483611485565b6001600160a01b0383166000908152600a6020908152604080832081516060810183526001600160801b03808b16825286811682860190815293820188815283546001818101865594885295909620915193518116600160801b0293169290921760029093029091019182559151910155611cdf8383611e56565b6040516323b872dd60e01b8152336004820152306024820152604481018690527f00000000000000000000000000000000000000000000000000000000000000006001600160a01b0316906323b872dd906064016020604051808303816000875af1158015611d52573d6000803e3d6000fd5b505050506040513d601f19601f82011682018060405250810190611d769190613397565b506001600160a01b0383166000818152600a60205260409020547f2720efa4b2dd4f3f8a347da3cbd290a522e9432da9072c5b8e6300496fdde28290611dbe906001906133e7565b6040805191825260208201899052810184905260608101859052608001610845565b60006105ab611ded6117f5565b8360405161190160f01b6020820152602281018390526042810182905260009060620160405160208183030381529060405280519060200120905092915050565b6000806000611e3f87878787612403565b91509150611e4c816124f0565b5095945050505050565b611e6082826126ab565b6002546001600160e01b031015611ed25760405162461bcd60e51b815260206004820152603060248201527f4552433230566f7465733a20746f74616c20737570706c79207269736b73206f60448201526f766572666c6f77696e6720766f74657360801b60648201526084016105f8565b6117ef600961279283612041565b6001600160a01b038216611f405760405162461bcd60e51b815260206004820152602160248201527f45524332303a206275726e2066726f6d20746865207a65726f206164647265736044820152607360f81b60648201526084016105f8565b6001600160a01b03821660009081526020819052604090205481811015611fb45760405162461bcd60e51b815260206004820152602260248201527f45524332303a206275726e20616d6f756e7420657863656564732062616c616e604482015261636560f01b60648201526084016105f8565b6001600160a01b0383166000908152602081905260408120838303905560028054849290611fe39084906133e7565b90915550506040518281526000906001600160a01b038516907fddf252ad1be2c89b69c2b068fc378daa952ba7f163c4a11628f55a4df523b3ef9060200160405180910390a3610ac88360008461279e565b60006108f882846133e7565b82546000908190801561208b578561205a6001836133e7565b8154811061206a5761206a613381565b600091825260209091200154600160201b90046001600160e01b031661208e565b60005b6001600160e01b031692506120a783858763ffffffff16565b91506000811180156120e5575043866120c16001846133e7565b815481106120d1576120d1613381565b60009182526020909120015463ffffffff16145b15612145576120f3826127d0565b866120ff6001846133e7565b8154811061210f5761210f613381565b9060005260206000200160000160046101000a8154816001600160e01b0302191690836001600160e01b031602179055506121af565b85604051806040016040528061215a43611a90565b63ffffffff16815260200161216e856127d0565b6001600160e01b039081169091528254600181018455600093845260209384902083519490930151909116600160201b0263ffffffff909316929092179101555b50935093915050565b60006121c7600284841861341d565b6108f8908484166133cf565b6000670de0b6b3a764000082101561220157604051633621413760e21b8152600481018390526024016105f8565b6000612216670de0b6b3a76400008404612839565b670de0b6b3a7640000808202935090915083821c90811415612239575050919050565b6706f05b59d3b200005b801561227b57670de0b6b3a7640000828002049150671bc16d674ec800008210612273579283019260019190911c905b60011c612243565b505050919050565b60006108f88383612921565b6000680a688906bd8b00000082106122bd57604051634a4f26f160e01b8152600481018390526024016105f8565b670de0b6b3a7640000604083901b046108f8816129e3565b816001600160a01b0316836001600160a01b0316141580156122f75750600081115b15610ac8576001600160a01b03831615612385576001600160a01b038316600090815260086020526040812081906123329061203585612041565b91509150846001600160a01b03167fdec2bacdd2f05b59de34da9b523dff8be42e5e38e818c82fdb0bae774387a724838360405161237a929190918252602082015260400190565b60405180910390a250505b6001600160a01b03821615610ac8576001600160a01b038216600090815260086020526040812081906123bb9061279285612041565b91509150836001600160a01b03167fdec2bacdd2f05b59de34da9b523dff8be42e5e38e818c82fdb0bae774387a7248383604051610845929190918252602082015260400190565b6000807f7fffffffffffffffffffffffffffffff5d576e7357a4501ddfe92f46681b20a083111561243a57506000905060036124e7565b8460ff16601b1415801561245257508460ff16601c14155b1561246357506000905060046124e7565b6040805160008082526020820180845289905260ff881692820192909252606081018690526080810185905260019060a0016020604051602081039080840390855afa1580156124b7573d6000803e3d6000fd5b5050604051601f1901519150506001600160a01b0381166124e0576000600192509250506124e7565b9150600090505b94509492505050565b600081600481111561250457612504613458565b141561250d5750565b600181600481111561252157612521613458565b141561256f5760405162461bcd60e51b815260206004820152601860248201527f45434453413a20696e76616c6964207369676e6174757265000000000000000060448201526064016105f8565b600281600481111561258357612583613458565b14156125d15760405162461bcd60e51b815260206004820152601f60248201527f45434453413a20696e76616c6964207369676e6174757265206c656e6774680060448201526064016105f8565b60038160048111156125e5576125e5613458565b141561263e5760405162461bcd60e51b815260206004820152602260248201527f45434453413a20696e76616c6964207369676e6174757265202773272076616c604482015261756560f01b60648201526084016105f8565b600481600481111561265257612652613458565b1415610a8d5760405162461bcd60e51b815260206004820152602260248201527f45434453413a20696e76616c6964207369676e6174757265202776272076616c604482015261756560f01b60648201526084016105f8565b6001600160a01b0382166127015760405162461bcd60e51b815260206004820152601f60248201527f45524332303a206d696e7420746f20746865207a65726f20616464726573730060448201526064016105f8565b806002600082825461271391906133cf565b90915550506001600160a01b038216600090815260208190526040812080548392906127409084906133cf565b90915550506040518181526001600160a01b038316906000907fddf252ad1be2c89b69c2b068fc378daa952ba7f163c4a11628f55a4df523b3ef9060200160405180910390a3610ad86000838361279e565b60006108f882846133cf565b6001600160a01b03838116600090815260076020526040808220548584168352912054610ac8929182169116836122d5565b60006001600160e01b03821115611af55760405162461bcd60e51b815260206004820152602760248201527f53616665436173743a2076616c756520646f65736e27742066697420696e20326044820152663234206269747360c81b60648201526084016105f8565b6000600160801b821061285957608091821c9161285690826133cf565b90505b68010000000000000000821061287c57604091821c9161287990826133cf565b90505b600160201b821061289a57602091821c9161289790826133cf565b90505b6201000082106128b757601091821c916128b490826133cf565b90505b61010082106128d357600891821c916128d090826133cf565b90505b601082106128ee57600491821c916128eb90826133cf565b90505b6004821061290957600291821c9161290690826133cf565b90505b6002821061291c576105ab6001826133cf565b919050565b60008080600019848609848602925082811083820303915050670de0b6b3a764000081106129655760405163698d9a0160e11b8152600481018290526024016105f8565b600080670de0b6b3a76400008688099150506706f05b59d3b1ffff81118261299f5780670de0b6b3a76400008504019450505050506105ab565b620400008285030493909111909103600160ee1b02919091177faccb18165bd6fe31ae1cf318dc5b51eee0e1ba569b88cd74c1773b91fac106690201905092915050565b600160bf1b678000000000000000821615612a075768016a09e667f3bcc9090260401c5b674000000000000000821615612a26576801306fe0a31b7152df0260401c5b672000000000000000821615612a45576801172b83c7d517adce0260401c5b671000000000000000821615612a645768010b5586cf9890f62a0260401c5b670800000000000000821615612a83576801059b0d31585743ae0260401c5b670400000000000000821615612aa257680102c9a3e778060ee70260401c5b670200000000000000821615612ac15768010163da9fb33356d80260401c5b670100000000000000821615612ae057680100b1afa5abcbed610260401c5b6680000000000000821615612afe5768010058c86da1c09ea20260401c5b6640000000000000821615612b1c576801002c605e2e8cec500260401c5b6620000000000000821615612b3a57680100162f3904051fa10260401c5b6610000000000000821615612b58576801000b175effdc76ba0260401c5b6608000000000000821615612b7657680100058ba01fb9f96d0260401c5b6604000000000000821615612b945768010002c5cc37da94920260401c5b6602000000000000821615612bb2576801000162e525ee05470260401c5b6601000000000000821615612bd05768010000b17255775c040260401c5b65800000000000821615612bed576801000058b91b5bc9ae0260401c5b65400000000000821615612c0a57680100002c5c89d5ec6d0260401c5b65200000000000821615612c275768010000162e43f4f8310260401c5b65100000000000821615612c4457680100000b1721bcfc9a0260401c5b65080000000000821615612c615768010000058b90cf1e6e0260401c5b65040000000000821615612c7e576801000002c5c863b73f0260401c5b65020000000000821615612c9b57680100000162e430e5a20260401c5b65010000000000821615612cb8576801000000b1721835510260401c5b648000000000821615612cd457680100000058b90c0b490260401c5b644000000000821615612cf05768010000002c5c8601cc0260401c5b642000000000821615612d0c576801000000162e42fff00260401c5b641000000000821615612d285768010000000b17217fbb0260401c5b640800000000821615612d44576801000000058b90bfce0260401c5b640400000000821615612d6057680100000002c5c85fe30260401c5b640200000000821615612d7c5768010000000162e42ff10260401c5b600160201b821615612d9757680100000000b17217f80260401c5b6380000000821615612db25768010000000058b90bfc0260401c5b6340000000821615612dcd576801000000002c5c85fe0260401c5b6320000000821615612de857680100000000162e42ff0260401c5b6310000000821615612e03576801000000000b17217f0260401c5b6308000000821615612e1e57680100000000058b90c00260401c5b6304000000821615612e395768010000000002c5c8600260401c5b6302000000821615612e54576801000000000162e4300260401c5b6301000000821615612e6f5768010000000000b172180260401c5b62800000821615612e89576801000000000058b90c0260401c5b62400000821615612ea357680100000000002c5c860260401c5b62200000821615612ebd5768010000000000162e430260401c5b62100000821615612ed757680100000000000b17210260401c5b62080000821615612ef15768010000000000058b910260401c5b62040000821615612f0b576801000000000002c5c80260401c5b62020000821615612f2557680100000000000162e40260401c5b62010000821615612f3f576801000000000000b1720260401c5b618000821615612f5857680100000000000058b90260401c5b614000821615612f715768010000000000002c5d0260401c5b612000821615612f8a576801000000000000162e0260401c5b611000821615612fa35768010000000000000b170260401c5b610800821615612fbc576801000000000000058c0260401c5b610400821615612fd557680100000000000002c60260401c5b610200821615612fee57680100000000000001630260401c5b61010082161561300757680100000000000000b10260401c5b608082161561301f57680100000000000000590260401c5b6040821615613037576801000000000000002c0260401c5b602082161561304f57680100000000000000160260401c5b6010821615613067576801000000000000000b0260401c5b600882161561307f57680100000000000000060260401c5b600482161561309757680100000000000000030260401c5b60028216156130af57680100000000000000010260401c5b60018216156130c757680100000000000000010260401c5b670de0b6b3a76400000260409190911c60bf031c90565b600060208083528351808285015260005b8181101561310b578581018301518582016040015282016130ef565b8181111561311d576000604083870101525b50601f01601f1916929092016040019392505050565b80356001600160a01b038116811461291c57600080fd5b6000806040838503121561315d57600080fd5b61316683613133565b946020939093013593505050565b60008060006060848603121561318957600080fd5b61319284613133565b92506131a060208501613133565b9150604084013590509250925092565b6000602082840312156131c257600080fd5b5035919050565b6000602082840312156131db57600080fd5b6108f882613133565b600080604083850312156131f757600080fd5b50508035926020909101359150565b60008060006060848603121561321b57600080fd5b833592506020840135915061323260408501613133565b90509250925092565b803560ff8116811461291c57600080fd5b60008060008060008060c0878903121561326557600080fd5b61326e87613133565b9550602087013594506040870135935061328a6060880161323b565b92506080870135915060a087013590509295509295509295565b600080600080600080600060e0888a0312156132bf57600080fd5b6132c888613133565b96506132d660208901613133565b955060408801359450606088013593506132f26080890161323b565b925060a0880135915060c0880135905092959891949750929550565b6000806040838503121561332157600080fd5b61332a83613133565b915061333860208401613133565b90509250929050565b6000806040838503121561335457600080fd5b61335d83613133565b9150602083013563ffffffff8116811461337657600080fd5b809150509250929050565b634e487b7160e01b600052603260045260246000fd5b6000602082840312156133a957600080fd5b815180151581146108f857600080fd5b634e487b7160e01b600052601160045260246000fd5b600082198211156133e2576133e26133b9565b500190565b6000828210156133f9576133f96133b9565b500390565b6000816000190483118215151615613418576134186133b9565b500290565b60008261343a57634e487b7160e01b600052601260045260246000fd5b500490565b60006020828403121561345157600080fd5b5051919050565b634e487b7160e01b600052602160045260246000fdfea264697066735822122019522ec2cf5f2e33397ce475fb21c80403385ba3be18a65bd943bad0a34d485864736f6c634300080a0033","bytecodeSha1":"85b7d28636c794423f6fd2b07c606ad76750b12a","compiler":{"evm_version":"istanbul","optimizer":{"enabled":true,"runs":200},"version":"0.8.10+commit.fc410830"},"contractName":"OgvStaking","language":"Solidity","natspec":{"author":"Daniel Von Fange","errors":{"PRBMathUD60x18__Exp2InputTooBig(uint256)":[{"notice":"Emitted when the input is greater than 192."}],"PRBMathUD60x18__LogInputTooSmall(uint256)":[{"notice":"Emitted when the input is less than 1."}],"PRBMath__MulDivFixedPointOverflow(uint256)":[{"notice":"Emitted when the result overflows uint256."}]},"kind":"dev","methods":{"DOMAIN_SEPARATOR()":{"details":"See {IERC20Permit-DOMAIN_SEPARATOR}."},"allowance(address,address)":{"details":"See {IERC20-allowance}."},"approve(address,uint256)":{"details":"See {IERC20-approve}. NOTE: If `amount` is the maximum `uint256`, the allowance is not updated on `transferFrom`. This is semantically equivalent to an infinite approval. Requirements: - `spender` cannot be the zero address."},"balanceOf(address)":{"details":"See {IERC20-balanceOf}."},"checkpoints(address,uint32)":{"details":"Get the `pos`-th checkpoint for `account`."},"collectRewards()":{"notice":"Collect all earned OGV rewards."},"decimals()":{"details":"Returns the number of decimals used to get its user representation. For example, if `decimals` equals `2`, a balance of `505` tokens should be displayed to a user as `5.05` (`505 / 10 ** 2`). Tokens usually opt for a value of 18, imitating the relationship between Ether and Wei. This is the value {ERC20} uses, unless this function is overridden; NOTE: This information is only used for _display_ purposes: it in no way affects any of the arithmetic of the contract, including {IERC20-balanceOf} and {IERC20-transfer}."},"decreaseAllowance(address,uint256)":{"details":"Atomically decreases the allowance granted to `spender` by the caller. This is an alternative to {approve} that can be used as a mitigation for problems described in {IERC20-approve}. Emits an {Approval} event indicating the updated allowance. Requirements: - `spender` cannot be the zero address. - `spender` must have allowance for the caller of at least `subtractedValue`."},"delegate(address)":{"details":"Delegate votes from the sender to `delegatee`."},"delegateBySig(address,uint256,uint256,uint8,bytes32,bytes32)":{"details":"Delegates votes from signer to `delegatee`"},"delegates(address)":{"details":"Get the address `account` is currently delegating to."},"extend(uint256,uint256)":{"notice":"Extend a stake lockup for additional points. The stake end time is computed from the current time + duration, just like it is for new stakes. So a new stake for seven days duration and an old stake extended with a seven days duration would have the same  end.  If an extend is made before the start of staking, the start time for the new stake is shifted forwards to the start of staking, which also shifts forward the end date.","params":{"duration":"number of seconds from now to stake for","lockupId":"the id of the old lockup to extend"}},"getPastTotalSupply(uint256)":{"details":"Retrieve the `totalSupply` at the end of `blockNumber`. Note, this value is the sum of all balances. It is but NOT the sum of all the delegated votes! Requirements: - `blockNumber` must have been already mined"},"getPastVotes(address,uint256)":{"details":"Retrieve the number of votes for `account` at the end of `blockNumber`. Requirements: - `blockNumber` must have been already mined"},"getVotes(address)":{"details":"Gets the current votes balance for `account`"},"increaseAllowance(address,uint256)":{"details":"Atomically increases the allowance granted to `spender` by the caller. This is an alternative to {approve} that can be used as a mitigation for problems described in {IERC20-approve}. Emits an {Approval} event indicating the updated allowance. Requirements: - `spender` cannot be the zero address."},"name()":{"details":"Returns the name of the token."},"nonces(address)":{"details":"See {IERC20Permit-nonces}."},"numCheckpoints(address)":{"details":"Get number of checkpoints for `account`."},"permit(address,address,uint256,uint256,uint8,bytes32,bytes32)":{"details":"See {IERC20Permit-permit}."},"previewPoints(uint256,uint256)":{"notice":"Preview the number of points that would be returned for the given amount and duration.","params":{"amount":"OGV to be staked","duration":"number of seconds to stake for"},"returns":{"_0":"points staking points that would be returned","_1":"end staking period end date"}},"previewRewards(address)":{"notice":"Shows the amount of OGV a user would receive if they collected rewards at this time.","params":{"user":"to preview rewards for"},"returns":{"_0":"OGV rewards amount "}},"stake(uint256,uint256)":{"notice":"Stake OGV If staking before the start of staking (epoch), then the lockup start and end dates are shifted forward so that the lockup starts at the epoch. Any rewards previously earned will be paid out. Stake OGV for myself.","params":{"amount":"OGV to lockup in the stake","duration":"in seconds for the stake"}},"stake(uint256,uint256,address)":{"notice":"Stake OGV to an address that may not be the same as the sender of the funds. This can be used to give staked funds to someone else. If staking before the start of staking (epoch), then the lockup start and end dates are shifted forward so that the lockup starts at the epoch. Any rewards previously earned will be paid out.","params":{"amount":"OGV to lockup in the stake","duration":"in seconds for the stake","to":"address to receive ownership of the stake"}},"symbol()":{"details":"Returns the symbol of the token, usually a shorter version of the name."},"totalSupply()":{"details":"See {IERC20-totalSupply}."},"unstake(uint256)":{"notice":"Collect staked OGV for a lockup and any earned rewards.","params":{"lockupId":"the id of the lockup to unstake"}}},"notice":"Provides staking, vote power history, vote delegation, and rewards distribution.  The balance received for staking (and thus the voting power and rewards distribution) goes up exponentially by the end of the staked period. ","title":"OGV Staking","version":1},"opcodes":"PUSH1 0x80 PUSH1 0x40 MSTORE CALLVALUE DUP1 ISZERO PUSH2 0x10 JUMPI PUSH1 0x0 DUP1 REVERT JUMPDEST POP PUSH1 0x4 CALLDATASIZE LT PUSH2 0x211 JUMPI PUSH1 0x0 CALLDATALOAD PUSH1 0xE0 SHR DUP1 PUSH4 0x7628A37D GT PUSH2 0x125 JUMPI DUP1 PUSH4 0xA9059CBB GT PUSH2 0xAD JUMPI DUP1 PUSH4 0xD505ACCF GT PUSH2 0x7C JUMPI DUP1 PUSH4 0xD505ACCF EQ PUSH2 0x50E JUMPI DUP1 PUSH4 0xDD62ED3E EQ PUSH2 0x521 JUMPI DUP1 PUSH4 0xF1127ED8 EQ PUSH2 0x534 JUMPI DUP1 PUSH4 0xF166E920 EQ PUSH2 0x571 JUMPI DUP1 PUSH4 0xF7240D2F EQ PUSH2 0x584 JUMPI PUSH1 0x0 DUP1 REVERT JUMPDEST DUP1 PUSH4 0xA9059CBB EQ PUSH2 0x4A1 JUMPI DUP1 PUSH4 0xC3CDA520 EQ PUSH2 0x4AF JUMPI DUP1 PUSH4 0xC89258DB EQ PUSH2 0x4C2 JUMPI DUP1 PUSH4 0xC93D0B1E EQ PUSH2 0x4D5 JUMPI PUSH1 0x0 DUP1 REVERT JUMPDEST DUP1 PUSH4 0x900CF0CF GT PUSH2 0xF4 JUMPI DUP1 PUSH4 0x900CF0CF EQ PUSH2 0x44B JUMPI DUP1 PUSH4 0x939D6237 EQ PUSH2 0x472 JUMPI DUP1 PUSH4 0x95D89B41 EQ PUSH2 0x216 JUMPI DUP1 PUSH4 0x9AB24EB0 EQ PUSH2 0x47B JUMPI DUP1 PUSH4 0xA457C2D7 EQ PUSH2 0x48E JUMPI PUSH1 0x0 DUP1 REVERT JUMPDEST DUP1 PUSH4 0x7628A37D EQ PUSH2 0x3FF JUMPI DUP1 PUSH4 0x7B0472F0 EQ PUSH2 0x412 JUMPI DUP1 PUSH4 0x7ECEBE00 EQ PUSH2 0x425 JUMPI DUP1 PUSH4 0x8E539E8C EQ PUSH2 0x438 JUMPI PUSH1 0x0 DUP1 REVERT JUMPDEST DUP1 PUSH4 0x39509351 GT PUSH2 0x1A8 JUMPI DUP1 PUSH4 0x587CDE1E GT PUSH2 0x177 JUMPI DUP1 PUSH4 0x587CDE1E EQ PUSH2 0x367 JUMPI DUP1 PUSH4 0x5C19A95C EQ PUSH2 0x393 JUMPI DUP1 PUSH4 0x6FCFFF45 EQ PUSH2 0x3A6 JUMPI DUP1 PUSH4 0x70A08231 EQ PUSH2 0x3CE JUMPI DUP1 PUSH4 0x70BB45B3 EQ PUSH2 0x3F7 JUMPI PUSH1 0x0 DUP1 REVERT JUMPDEST DUP1 PUSH4 0x39509351 EQ PUSH2 0x2F9 JUMPI DUP1 PUSH4 0x3A46B1A8 EQ PUSH2 0x30C JUMPI DUP1 PUSH4 0x4423BF57 EQ PUSH2 0x31F JUMPI DUP1 PUSH4 0x4FD0E648 EQ PUSH2 0x33F JUMPI PUSH1 0x0 DUP1 REVERT JUMPDEST DUP1 PUSH4 0x23B872DD GT PUSH2 0x1E4 JUMPI DUP1 PUSH4 0x23B872DD EQ PUSH2 0x2BA JUMPI DUP1 PUSH4 0x2E17DE78 EQ PUSH2 0x2CD JUMPI DUP1 PUSH4 0x313CE567 EQ PUSH2 0x2E2 JUMPI DUP1 PUSH4 0x3644E515 EQ PUSH2 0x2F1 JUMPI PUSH1 0x0 DUP1 REVERT JUMPDEST DUP1 PUSH4 0x6FDDE03 EQ PUSH2 0x216 JUMPI DUP1 PUSH4 0x95EA7B3 EQ PUSH2 0x246 JUMPI DUP1 PUSH4 0x142561CF EQ PUSH2 0x269 JUMPI DUP1 PUSH4 0x18160DDD EQ PUSH2 0x2A8 JUMPI JUMPDEST PUSH1 0x0 DUP1 REVERT JUMPDEST PUSH1 0x40 DUP1 MLOAD DUP1 DUP3 ADD DUP3 MSTORE PUSH1 0x5 DUP2 MSTORE PUSH5 0x3B32A7A3AB PUSH1 0xD9 SHL PUSH1 0x20 DUP3 ADD MSTORE SWAP1 MLOAD PUSH2 0x23D SWAP2 SWAP1 PUSH2 0x30DE JUMP JUMPDEST PUSH1 0x40 MLOAD DUP1 SWAP2 SUB SWAP1 RETURN JUMPDEST PUSH2 0x259 PUSH2 0x254 CALLDATASIZE PUSH1 0x4 PUSH2 0x314A JUMP JUMPDEST PUSH2 0x597 JUMP JUMPDEST PUSH1 0x40 MLOAD SWAP1 ISZERO ISZERO DUP2 MSTORE PUSH1 0x20 ADD PUSH2 0x23D JUMP JUMPDEST PUSH2 0x290 PUSH32 0x0 DUP2 JUMP JUMPDEST PUSH1 0x40 MLOAD PUSH1 0x1 PUSH1 0x1 PUSH1 0xA0 SHL SUB SWAP1 SWAP2 AND DUP2 MSTORE PUSH1 0x20 ADD PUSH2 0x23D JUMP JUMPDEST PUSH1 0x2 SLOAD JUMPDEST PUSH1 0x40 MLOAD SWAP1 DUP2 MSTORE PUSH1 0x20 ADD PUSH2 0x23D JUMP JUMPDEST PUSH2 0x259 PUSH2 0x2C8 CALLDATASIZE PUSH1 0x4 PUSH2 0x3174 JUMP JUMPDEST PUSH2 0x5B1 JUMP JUMPDEST PUSH2 0x2E0 PUSH2 0x2DB CALLDATASIZE PUSH1 0x4 PUSH2 0x31B0 JUMP JUMPDEST PUSH2 0x601 JUMP JUMPDEST STOP JUMPDEST PUSH1 0x40 MLOAD PUSH1 0x12 DUP2 MSTORE PUSH1 0x20 ADD PUSH2 0x23D JUMP JUMPDEST PUSH2 0x2AC PUSH2 0x854 JUMP JUMPDEST PUSH2 0x259 PUSH2 0x307 CALLDATASIZE PUSH1 0x4 PUSH2 0x314A JUMP JUMPDEST PUSH2 0x863 JUMP JUMPDEST PUSH2 0x2AC PUSH2 0x31A CALLDATASIZE PUSH1 0x4 PUSH2 0x314A JUMP JUMPDEST PUSH2 0x885 JUMP JUMPDEST PUSH2 0x2AC PUSH2 0x32D CALLDATASIZE PUSH1 0x4 PUSH2 0x31C9 JUMP JUMPDEST PUSH1 0xC PUSH1 0x20 MSTORE PUSH1 0x0 SWAP1 DUP2 MSTORE PUSH1 0x40 SWAP1 KECCAK256 SLOAD DUP2 JUMP JUMPDEST PUSH2 0x352 PUSH2 0x34D CALLDATASIZE PUSH1 0x4 PUSH2 0x31E4 JUMP JUMPDEST PUSH2 0x8FF JUMP JUMPDEST PUSH1 0x40 DUP1 MLOAD SWAP3 DUP4 MSTORE PUSH1 0x20 DUP4 ADD SWAP2 SWAP1 SWAP2 MSTORE ADD PUSH2 0x23D JUMP JUMPDEST PUSH2 0x290 PUSH2 0x375 CALLDATASIZE PUSH1 0x4 PUSH2 0x31C9 JUMP JUMPDEST PUSH1 0x1 PUSH1 0x1 PUSH1 0xA0 SHL SUB SWAP1 DUP2 AND PUSH1 0x0 SWAP1 DUP2 MSTORE PUSH1 0x7 PUSH1 0x20 MSTORE PUSH1 0x40 SWAP1 KECCAK256 SLOAD AND SWAP1 JUMP JUMPDEST PUSH2 0x2E0 PUSH2 0x3A1 CALLDATASIZE PUSH1 0x4 PUSH2 0x31C9 JUMP JUMPDEST PUSH2 0xA83 JUMP JUMPDEST PUSH2 0x3B9 PUSH2 0x3B4 CALLDATASIZE PUSH1 0x4 PUSH2 0x31C9 JUMP JUMPDEST PUSH2 0xA90 JUMP JUMPDEST PUSH1 0x40 MLOAD PUSH4 0xFFFFFFFF SWAP1 SWAP2 AND DUP2 MSTORE PUSH1 0x20 ADD PUSH2 0x23D JUMP JUMPDEST PUSH2 0x2AC PUSH2 0x3DC CALLDATASIZE PUSH1 0x4 PUSH2 0x31C9 JUMP JUMPDEST PUSH1 0x1 PUSH1 0x1 PUSH1 0xA0 SHL SUB AND PUSH1 0x0 SWAP1 DUP2 MSTORE PUSH1 0x20 DUP2 SWAP1 MSTORE PUSH1 0x40 SWAP1 KECCAK256 SLOAD SWAP1 JUMP JUMPDEST PUSH2 0x2E0 PUSH2 0xAB2 JUMP JUMPDEST PUSH2 0x2E0 PUSH2 0x40D CALLDATASIZE PUSH1 0x4 PUSH2 0x3206 JUMP JUMPDEST PUSH2 0xABD JUMP JUMPDEST PUSH2 0x2E0 PUSH2 0x420 CALLDATASIZE PUSH1 0x4 PUSH2 0x31E4 JUMP JUMPDEST PUSH2 0xACD JUMP JUMPDEST PUSH2 0x2AC PUSH2 0x433 CALLDATASIZE PUSH1 0x4 PUSH2 0x31C9 JUMP JUMPDEST PUSH2 0xADC JUMP JUMPDEST PUSH2 0x2AC PUSH2 0x446 CALLDATASIZE PUSH1 0x4 PUSH2 0x31B0 JUMP JUMPDEST PUSH2 0xAFA JUMP JUMPDEST PUSH2 0x2AC PUSH32 0x0 DUP2 JUMP JUMPDEST PUSH2 0x2AC PUSH1 0xD SLOAD DUP2 JUMP JUMPDEST PUSH2 0x2AC PUSH2 0x489 CALLDATASIZE PUSH1 0x4 PUSH2 0x31C9 JUMP JUMPDEST PUSH2 0xB56 JUMP JUMPDEST PUSH2 0x259 PUSH2 0x49C CALLDATASIZE PUSH1 0x4 PUSH2 0x314A JUMP JUMPDEST PUSH2 0xBDC JUMP JUMPDEST PUSH2 0x259 PUSH2 0x2C8 CALLDATASIZE PUSH1 0x4 PUSH2 0x314A JUMP JUMPDEST PUSH2 0x2E0 PUSH2 0x4BD CALLDATASIZE PUSH1 0x4 PUSH2 0x324C JUMP JUMPDEST PUSH2 0xC62 JUMP JUMPDEST PUSH2 0x2E0 PUSH2 0x4D0 CALLDATASIZE PUSH1 0x4 PUSH2 0x31E4 JUMP JUMPDEST PUSH2 0xDB6 JUMP JUMPDEST PUSH2 0x4E8 PUSH2 0x4E3 CALLDATASIZE PUSH1 0x4 PUSH2 0x314A JUMP JUMPDEST PUSH2 0xFC5 JUMP JUMPDEST PUSH1 0x40 DUP1 MLOAD PUSH1 0x1 PUSH1 0x1 PUSH1 0x80 SHL SUB SWAP5 DUP6 AND DUP2 MSTORE SWAP4 SWAP1 SWAP3 AND PUSH1 0x20 DUP5 ADD MSTORE SWAP1 DUP3 ADD MSTORE PUSH1 0x60 ADD PUSH2 0x23D JUMP JUMPDEST PUSH2 0x2E0 PUSH2 0x51C CALLDATASIZE PUSH1 0x4 PUSH2 0x32A4 JUMP JUMPDEST PUSH2 0x1016 JUMP JUMPDEST PUSH2 0x2AC PUSH2 0x52F CALLDATASIZE PUSH1 0x4 PUSH2 0x330E JUMP JUMPDEST PUSH2 0x1198 JUMP JUMPDEST PUSH2 0x547 PUSH2 0x542 CALLDATASIZE PUSH1 0x4 PUSH2 0x3341 JUMP JUMPDEST PUSH2 0x11C3 JUMP JUMPDEST PUSH1 0x40 DUP1 MLOAD DUP3 MLOAD PUSH4 0xFFFFFFFF AND DUP2 MSTORE PUSH1 0x20 SWAP3 DUP4 ADD MLOAD PUSH1 0x1 PUSH1 0x1 PUSH1 0xE0 SHL SUB AND SWAP3 DUP2 ADD SWAP3 SWAP1 SWAP3 MSTORE ADD PUSH2 0x23D JUMP JUMPDEST PUSH2 0x2AC PUSH2 0x57F CALLDATASIZE PUSH1 0x4 PUSH2 0x31C9 JUMP JUMPDEST PUSH2 0x1246 JUMP JUMPDEST PUSH1 0xB SLOAD PUSH2 0x290 SWAP1 PUSH1 0x1 PUSH1 0x1 PUSH1 0xA0 SHL SUB AND DUP2 JUMP JUMPDEST PUSH1 0x0 CALLER PUSH2 0x5A5 DUP2 DUP6 DUP6 PUSH2 0x1361 JUMP JUMPDEST PUSH1 0x1 SWAP2 POP POP JUMPDEST SWAP3 SWAP2 POP POP JUMP JUMPDEST PUSH1 0x40 MLOAD PUSH3 0x461BCD PUSH1 0xE5 SHL DUP2 MSTORE PUSH1 0x20 PUSH1 0x4 DUP3 ADD MSTORE PUSH1 0x1B PUSH1 0x24 DUP3 ADD MSTORE PUSH32 0x5374616B696E673A205472616E73666572732064697361626C65640000000000 PUSH1 0x44 DUP3 ADD MSTORE PUSH1 0x0 SWAP1 PUSH1 0x64 ADD JUMPDEST PUSH1 0x40 MLOAD DUP1 SWAP2 SUB SWAP1 REVERT JUMPDEST CALLER PUSH1 0x0 SWAP1 DUP2 MSTORE PUSH1 0xA PUSH1 0x20 MSTORE PUSH1 0x40 DUP2 KECCAK256 DUP1 SLOAD DUP4 SWAP1 DUP2 LT PUSH2 0x622 JUMPI PUSH2 0x622 PUSH2 0x3381 JUMP JUMPDEST PUSH1 0x0 SWAP2 DUP3 MSTORE PUSH1 0x20 SWAP2 DUP3 SWAP1 KECCAK256 PUSH1 0x40 DUP1 MLOAD PUSH1 0x60 DUP2 ADD DUP3 MSTORE PUSH1 0x2 SWAP1 SWAP4 MUL SWAP1 SWAP2 ADD DUP1 SLOAD PUSH1 0x1 PUSH1 0x1 PUSH1 0x80 SHL SUB DUP1 DUP3 AND DUP1 DUP7 MSTORE PUSH1 0x1 PUSH1 0x80 SHL SWAP1 SWAP3 DIV AND SWAP5 DUP5 ADD DUP6 SWAP1 MSTORE PUSH1 0x1 SWAP1 SWAP2 ADD SLOAD SWAP2 DUP4 ADD DUP3 SWAP1 MSTORE SWAP2 SWAP4 POP SWAP1 SWAP2 SWAP1 TIMESTAMP DUP3 GT ISZERO PUSH2 0x6CB JUMPI PUSH1 0x40 MLOAD PUSH3 0x461BCD PUSH1 0xE5 SHL DUP2 MSTORE PUSH1 0x20 PUSH1 0x4 DUP3 ADD MSTORE PUSH1 0x22 PUSH1 0x24 DUP3 ADD MSTORE PUSH32 0x5374616B696E673A20456E64206F66206C6F636B7570206E6F74207265616368 PUSH1 0x44 DUP3 ADD MSTORE PUSH2 0x1959 PUSH1 0xF2 SHL PUSH1 0x64 DUP3 ADD MSTORE PUSH1 0x84 ADD PUSH2 0x5F8 JUMP JUMPDEST DUP2 PUSH2 0x726 JUMPI PUSH1 0x40 MLOAD PUSH3 0x461BCD PUSH1 0xE5 SHL DUP2 MSTORE PUSH1 0x20 PUSH1 0x4 DUP3 ADD MSTORE PUSH1 0x25 PUSH1 0x24 DUP3 ADD MSTORE PUSH32 0x5374616B696E673A20416C726561647920756E7374616B65642074686973206C PUSH1 0x44 DUP3 ADD MSTORE PUSH5 0x6F636B757 PUSH1 0xDC SHL PUSH1 0x64 DUP3 ADD MSTORE PUSH1 0x84 ADD PUSH2 0x5F8 JUMP JUMPDEST PUSH2 0x72F CALLER PUSH2 0x1485 JUMP JUMPDEST CALLER PUSH1 0x0 SWAP1 DUP2 MSTORE PUSH1 0xA PUSH1 0x20 MSTORE PUSH1 0x40 SWAP1 KECCAK256 DUP1 SLOAD DUP7 SWAP1 DUP2 LT PUSH2 0x750 JUMPI PUSH2 0x750 PUSH2 0x3381 JUMP JUMPDEST PUSH1 0x0 SWAP2 DUP3 MSTORE PUSH1 0x20 DUP3 KECCAK256 PUSH1 0x2 SWAP1 SWAP2 MUL ADD DUP2 DUP2 SSTORE PUSH1 0x1 ADD SSTORE PUSH2 0x770 CALLER DUP3 PUSH2 0x17D7 JUMP JUMPDEST PUSH1 0x40 MLOAD PUSH4 0xA9059CBB PUSH1 0xE0 SHL DUP2 MSTORE CALLER PUSH1 0x4 DUP3 ADD MSTORE PUSH1 0x24 DUP2 ADD DUP5 SWAP1 MSTORE PUSH32 0x0 PUSH1 0x1 PUSH1 0x1 PUSH1 0xA0 SHL SUB AND SWAP1 PUSH4 0xA9059CBB SWAP1 PUSH1 0x44 ADD PUSH1 0x20 PUSH1 0x40 MLOAD DUP1 DUP4 SUB DUP2 PUSH1 0x0 DUP8 GAS CALL ISZERO DUP1 ISZERO PUSH2 0x7DD JUMPI RETURNDATASIZE PUSH1 0x0 DUP1 RETURNDATACOPY RETURNDATASIZE PUSH1 0x0 REVERT JUMPDEST POP POP POP POP PUSH1 0x40 MLOAD RETURNDATASIZE PUSH1 0x1F NOT PUSH1 0x1F DUP3 ADD AND DUP3 ADD DUP1 PUSH1 0x40 MSTORE POP DUP2 ADD SWAP1 PUSH2 0x801 SWAP2 SWAP1 PUSH2 0x3397 JUMP JUMPDEST POP PUSH1 0x40 DUP1 MLOAD DUP7 DUP2 MSTORE PUSH1 0x20 DUP2 ADD DUP6 SWAP1 MSTORE SWAP1 DUP2 ADD DUP4 SWAP1 MSTORE PUSH1 0x60 DUP2 ADD DUP3 SWAP1 MSTORE CALLER SWAP1 PUSH32 0x5B744E3E9358BC00BA3CC0C6606A4D6536134DBA00B2D2EE4B5DE169ACD6427 SWAP1 PUSH1 0x80 ADD JUMPDEST PUSH1 0x40 MLOAD DUP1 SWAP2 SUB SWAP1 LOG2 POP POP POP POP POP JUMP JUMPDEST PUSH1 0x0 PUSH2 0x85E PUSH2 0x17F5 JUMP JUMPDEST SWAP1 POP SWAP1 JUMP JUMPDEST PUSH1 0x0 CALLER PUSH2 0x5A5 DUP2 DUP6 DUP6 PUSH2 0x876 DUP4 DUP4 PUSH2 0x1198 JUMP JUMPDEST PUSH2 0x880 SWAP2 SWAP1 PUSH2 0x33CF JUMP JUMPDEST PUSH2 0x1361 JUMP JUMPDEST PUSH1 0x0 NUMBER DUP3 LT PUSH2 0x8D6 JUMPI PUSH1 0x40 MLOAD PUSH3 0x461BCD PUSH1 0xE5 SHL DUP2 MSTORE PUSH1 0x20 PUSH1 0x4 DUP3 ADD MSTORE PUSH1 0x1F PUSH1 0x24 DUP3 ADD MSTORE PUSH32 0x4552433230566F7465733A20626C6F636B206E6F7420796574206D696E656400 PUSH1 0x44 DUP3 ADD MSTORE PUSH1 0x64 ADD PUSH2 0x5F8 JUMP JUMPDEST PUSH1 0x1 PUSH1 0x1 PUSH1 0xA0 SHL SUB DUP4 AND PUSH1 0x0 SWAP1 DUP2 MSTORE PUSH1 0x8 PUSH1 0x20 MSTORE PUSH1 0x40 SWAP1 KECCAK256 PUSH2 0x8F8 SWAP1 DUP4 PUSH2 0x191C JUMP JUMPDEST SWAP4 SWAP3 POP POP POP JUMP JUMPDEST PUSH1 0x0 DUP1 PUSH3 0x93A80 DUP4 LT ISZERO PUSH2 0x94A JUMPI PUSH1 0x40 MLOAD PUSH3 0x461BCD PUSH1 0xE5 SHL DUP2 MSTORE PUSH1 0x20 PUSH1 0x4 DUP3 ADD MSTORE PUSH1 0x12 PUSH1 0x24 DUP3 ADD MSTORE PUSH18 0x14DD185ADA5B99CE88151BDBC81CDA1BDC9D PUSH1 0x72 SHL PUSH1 0x44 DUP3 ADD MSTORE PUSH1 0x64 ADD PUSH2 0x5F8 JUMP JUMPDEST PUSH4 0x7861F80 DUP4 GT ISZERO PUSH2 0x992 JUMPI PUSH1 0x40 MLOAD PUSH3 0x461BCD PUSH1 0xE5 SHL DUP2 MSTORE PUSH1 0x20 PUSH1 0x4 DUP3 ADD MSTORE PUSH1 0x11 PUSH1 0x24 DUP3 ADD MSTORE PUSH17 0x5374616B696E673A20546F6F206C6F6E67 PUSH1 0x78 SHL PUSH1 0x44 DUP3 ADD MSTORE PUSH1 0x64 ADD PUSH2 0x5F8 JUMP JUMPDEST PUSH1 0x0 PUSH32 0x0 TIMESTAMP GT PUSH2 0x9E1 JUMPI PUSH32 0x0 PUSH2 0x9E3 JUMP JUMPDEST TIMESTAMP JUMPDEST SWAP1 POP PUSH1 0x0 PUSH2 0x9F1 DUP6 DUP4 PUSH2 0x33CF JUMP JUMPDEST SWAP1 POP PUSH1 0x0 PUSH4 0x1E13380 PUSH2 0xA24 PUSH32 0x0 DUP5 PUSH2 0x33E7 JUMP JUMPDEST PUSH2 0xA36 SWAP1 PUSH8 0xDE0B6B3A7640000 PUSH2 0x33FE JUMP JUMPDEST PUSH2 0xA40 SWAP2 SWAP1 PUSH2 0x341D JUMP JUMPDEST SWAP1 POP PUSH1 0x0 PUSH2 0xA56 PUSH8 0x18FAE27693B40000 DUP4 PUSH2 0x19D8 JUMP JUMPDEST SWAP1 POP PUSH8 0xDE0B6B3A7640000 PUSH2 0xA6B DUP3 DUP11 PUSH2 0x33FE JUMP JUMPDEST PUSH2 0xA75 SWAP2 SWAP1 PUSH2 0x341D JUMP JUMPDEST SWAP9 SWAP3 SWAP8 POP SWAP2 SWAP6 POP POP POP POP POP POP JUMP JUMPDEST PUSH2 0xA8D CALLER DUP3 PUSH2 0x1A17 JUMP JUMPDEST POP JUMP JUMPDEST PUSH1 0x1 PUSH1 0x1 PUSH1 0xA0 SHL SUB DUP2 AND PUSH1 0x0 SWAP1 DUP2 MSTORE PUSH1 0x8 PUSH1 0x20 MSTORE PUSH1 0x40 DUP2 KECCAK256 SLOAD PUSH2 0x5AB SWAP1 PUSH2 0x1A90 JUMP JUMPDEST PUSH2 0xABB CALLER PUSH2 0x1485 JUMP JUMPDEST JUMP JUMPDEST PUSH2 0xAC8 DUP4 DUP4 DUP4 PUSH2 0x1AF9 JUMP JUMPDEST POP POP POP JUMP JUMPDEST PUSH2 0xAD8 DUP3 DUP3 CALLER PUSH2 0x1AF9 JUMP JUMPDEST POP POP JUMP JUMPDEST PUSH1 0x1 PUSH1 0x1 PUSH1 0xA0 SHL SUB DUP2 AND PUSH1 0x0 SWAP1 DUP2 MSTORE PUSH1 0x5 PUSH1 0x20 MSTORE PUSH1 0x40 DUP2 KECCAK256 SLOAD PUSH2 0x5AB JUMP JUMPDEST PUSH1 0x0 NUMBER DUP3 LT PUSH2 0xB4B JUMPI PUSH1 0x40 MLOAD PUSH3 0x461BCD PUSH1 0xE5 SHL DUP2 MSTORE PUSH1 0x20 PUSH1 0x4 DUP3 ADD MSTORE PUSH1 0x1F PUSH1 0x24 DUP3 ADD MSTORE PUSH32 0x4552433230566F7465733A20626C6F636B206E6F7420796574206D696E656400 PUSH1 0x44 DUP3 ADD MSTORE PUSH1 0x64 ADD PUSH2 0x5F8 JUMP JUMPDEST PUSH2 0x5AB PUSH1 0x9 DUP4 PUSH2 0x191C JUMP JUMPDEST PUSH1 0x1 PUSH1 0x1 PUSH1 0xA0 SHL SUB DUP2 AND PUSH1 0x0 SWAP1 DUP2 MSTORE PUSH1 0x8 PUSH1 0x20 MSTORE PUSH1 0x40 DUP2 KECCAK256 SLOAD DUP1 ISZERO PUSH2 0xBC9 JUMPI PUSH1 0x1 PUSH1 0x1 PUSH1 0xA0 SHL SUB DUP4 AND PUSH1 0x0 SWAP1 DUP2 MSTORE PUSH1 0x8 PUSH1 0x20 MSTORE PUSH1 0x40 SWAP1 KECCAK256 PUSH2 0xB98 PUSH1 0x1 DUP4 PUSH2 0x33E7 JUMP JUMPDEST DUP2 SLOAD DUP2 LT PUSH2 0xBA8 JUMPI PUSH2 0xBA8 PUSH2 0x3381 JUMP JUMPDEST PUSH1 0x0 SWAP2 DUP3 MSTORE PUSH1 0x20 SWAP1 SWAP2 KECCAK256 ADD SLOAD PUSH1 0x1 PUSH1 0x20 SHL SWAP1 DIV PUSH1 0x1 PUSH1 0x1 PUSH1 0xE0 SHL SUB AND PUSH2 0xBCC JUMP JUMPDEST PUSH1 0x0 JUMPDEST PUSH1 0x1 PUSH1 0x1 PUSH1 0xE0 SHL SUB AND SWAP4 SWAP3 POP POP POP JUMP JUMPDEST PUSH1 0x0 CALLER DUP2 PUSH2 0xBEA DUP3 DUP7 PUSH2 0x1198 JUMP JUMPDEST SWAP1 POP DUP4 DUP2 LT ISZERO PUSH2 0xC4A JUMPI PUSH1 0x40 MLOAD PUSH3 0x461BCD PUSH1 0xE5 SHL DUP2 MSTORE PUSH1 0x20 PUSH1 0x4 DUP3 ADD MSTORE PUSH1 0x25 PUSH1 0x24 DUP3 ADD MSTORE PUSH32 0x45524332303A2064656372656173656420616C6C6F77616E63652062656C6F77 PUSH1 0x44 DUP3 ADD MSTORE PUSH5 0x207A65726F PUSH1 0xD8 SHL PUSH1 0x64 DUP3 ADD MSTORE PUSH1 0x84 ADD PUSH2 0x5F8 JUMP JUMPDEST PUSH2 0xC57 DUP3 DUP7 DUP7 DUP5 SUB PUSH2 0x1361 JUMP JUMPDEST POP PUSH1 0x1 SWAP5 SWAP4 POP POP POP POP JUMP JUMPDEST DUP4 TIMESTAMP GT ISZERO PUSH2 0xCB2 JUMPI PUSH1 0x40 MLOAD PUSH3 0x461BCD PUSH1 0xE5 SHL DUP2 MSTORE PUSH1 0x20 PUSH1 0x4 DUP3 ADD MSTORE PUSH1 0x1D PUSH1 0x24 DUP3 ADD MSTORE PUSH32 0x4552433230566F7465733A207369676E61747572652065787069726564000000 PUSH1 0x44 DUP3 ADD MSTORE PUSH1 0x64 ADD PUSH2 0x5F8 JUMP JUMPDEST PUSH1 0x40 DUP1 MLOAD PUSH32 0xE48329057BFD03D55E49B547132E39CFFD9C1820AD7B9D4C5307691425D15ADF PUSH1 0x20 DUP3 ADD MSTORE PUSH1 0x1 PUSH1 0x1 PUSH1 0xA0 SHL SUB DUP9 AND SWAP2 DUP2 ADD SWAP2 SWAP1 SWAP2 MSTORE PUSH1 0x60 DUP2 ADD DUP7 SWAP1 MSTORE PUSH1 0x80 DUP2 ADD DUP6 SWAP1 MSTORE PUSH1 0x0 SWAP1 PUSH2 0xD2C SWAP1 PUSH2 0xD24 SWAP1 PUSH1 0xA0 ADD PUSH1 0x40 MLOAD PUSH1 0x20 DUP2 DUP4 SUB SUB DUP2 MSTORE SWAP1 PUSH1 0x40 MSTORE DUP1 MLOAD SWAP1 PUSH1 0x20 ADD KECCAK256 PUSH2 0x1DE0 JUMP JUMPDEST DUP6 DUP6 DUP6 PUSH2 0x1E2E JUMP JUMPDEST SWAP1 POP PUSH2 0xD55 DUP2 PUSH1 0x1 PUSH1 0x1 PUSH1 0xA0 SHL SUB AND PUSH1 0x0 SWAP1 DUP2 MSTORE PUSH1 0x5 PUSH1 0x20 MSTORE PUSH1 0x40 SWAP1 KECCAK256 DUP1 SLOAD PUSH1 0x1 DUP2 ADD SWAP1 SWAP2 SSTORE SWAP1 JUMP JUMPDEST DUP7 EQ PUSH2 0xDA3 JUMPI PUSH1 0x40 MLOAD PUSH3 0x461BCD PUSH1 0xE5 SHL DUP2 MSTORE PUSH1 0x20 PUSH1 0x4 DUP3 ADD MSTORE PUSH1 0x19 PUSH1 0x24 DUP3 ADD MSTORE PUSH32 0x4552433230566F7465733A20696E76616C6964206E6F6E636500000000000000 PUSH1 0x44 DUP3 ADD MSTORE PUSH1 0x64 ADD PUSH2 0x5F8 JUMP JUMPDEST PUSH2 0xDAD DUP2 DUP9 PUSH2 0x1A17 JUMP JUMPDEST POP POP POP POP POP POP POP JUMP JUMPDEST PUSH2 0xDBF CALLER PUSH2 0x1485 JUMP JUMPDEST CALLER PUSH1 0x0 SWAP1 DUP2 MSTORE PUSH1 0xA PUSH1 0x20 MSTORE PUSH1 0x40 DUP2 KECCAK256 DUP1 SLOAD DUP5 SWAP1 DUP2 LT PUSH2 0xDE0 JUMPI PUSH2 0xDE0 PUSH2 0x3381 JUMP JUMPDEST PUSH1 0x0 SWAP2 DUP3 MSTORE PUSH1 0x20 DUP1 DUP4 KECCAK256 PUSH1 0x40 DUP1 MLOAD PUSH1 0x60 DUP2 ADD DUP3 MSTORE PUSH1 0x2 SWAP1 SWAP5 MUL SWAP1 SWAP2 ADD DUP1 SLOAD PUSH1 0x1 PUSH1 0x1 PUSH1 0x80 SHL SUB DUP1 DUP3 AND DUP1 DUP8 MSTORE PUSH1 0x1 PUSH1 0x80 SHL SWAP1 SWAP3 DIV AND SWAP4 DUP6 ADD DUP5 SWAP1 MSTORE PUSH1 0x1 SWAP1 SWAP2 ADD SLOAD SWAP2 DUP5 ADD DUP3 SWAP1 MSTORE SWAP3 SWAP5 POP SWAP2 SWAP3 SWAP1 SWAP2 SWAP1 DUP1 PUSH2 0xE3A DUP6 DUP9 PUSH2 0x8FF JUMP JUMPDEST SWAP2 POP SWAP2 POP DUP4 DUP2 GT PUSH2 0xE98 JUMPI PUSH1 0x40 MLOAD PUSH3 0x461BCD PUSH1 0xE5 SHL DUP2 MSTORE PUSH1 0x20 PUSH1 0x4 DUP3 ADD MSTORE PUSH1 0x22 PUSH1 0x24 DUP3 ADD MSTORE PUSH32 0x5374616B696E673A204E6577206C6F636B7570206D757374206265206C6F6E67 PUSH1 0x44 DUP3 ADD MSTORE PUSH2 0x32B9 PUSH1 0xF1 SHL PUSH1 0x64 DUP3 ADD MSTORE PUSH1 0x84 ADD PUSH2 0x5F8 JUMP JUMPDEST PUSH1 0x1 PUSH1 0x1 PUSH1 0x80 SHL SUB DUP2 AND PUSH1 0x20 DUP1 DUP9 ADD SWAP2 SWAP1 SWAP2 MSTORE PUSH1 0x40 DUP1 DUP9 ADD DUP5 SWAP1 MSTORE CALLER PUSH1 0x0 SWAP1 DUP2 MSTORE PUSH1 0xA SWAP1 SWAP3 MSTORE SWAP1 KECCAK256 DUP1 SLOAD DUP8 SWAP2 SWAP1 DUP11 SWAP1 DUP2 LT PUSH2 0xED5 JUMPI PUSH2 0xED5 PUSH2 0x3381 JUMP JUMPDEST PUSH1 0x0 SWAP2 DUP3 MSTORE PUSH1 0x20 SWAP2 DUP3 SWAP1 KECCAK256 DUP4 MLOAD SWAP3 DUP5 ADD MLOAD PUSH1 0x1 PUSH1 0x1 PUSH1 0x80 SHL SUB SWAP1 DUP2 AND PUSH1 0x1 PUSH1 0x80 SHL MUL SWAP4 AND SWAP3 SWAP1 SWAP3 OR PUSH1 0x2 SWAP1 SWAP2 MUL SWAP1 SWAP2 ADD SWAP1 DUP2 SSTORE PUSH1 0x40 SWAP1 SWAP2 ADD MLOAD PUSH1 0x1 SWAP1 SWAP2 ADD SSTORE PUSH2 0xF27 CALLER PUSH2 0xF22 DUP6 DUP6 PUSH2 0x33E7 JUMP JUMPDEST PUSH2 0x1E56 JUMP JUMPDEST PUSH1 0x40 DUP1 MLOAD DUP10 DUP2 MSTORE PUSH1 0x20 DUP2 ADD DUP8 SWAP1 MSTORE SWAP1 DUP2 ADD DUP6 SWAP1 MSTORE PUSH1 0x60 DUP2 ADD DUP5 SWAP1 MSTORE CALLER SWAP1 PUSH32 0x5B744E3E9358BC00BA3CC0C6606A4D6536134DBA00B2D2EE4B5DE169ACD6427 SWAP1 PUSH1 0x80 ADD PUSH1 0x40 MLOAD DUP1 SWAP2 SUB SWAP1 LOG2 PUSH1 0x40 DUP1 MLOAD DUP10 DUP2 MSTORE PUSH1 0x20 DUP2 ADD DUP8 SWAP1 MSTORE SWAP1 DUP2 ADD DUP3 SWAP1 MSTORE PUSH1 0x60 DUP2 ADD DUP4 SWAP1 MSTORE CALLER SWAP1 PUSH32 0x2720EFA4B2DD4F3F8A347DA3CBD290A522E9432DA9072C5B8E6300496FDDE282 SWAP1 PUSH1 0x80 ADD PUSH1 0x40 MLOAD DUP1 SWAP2 SUB SWAP1 LOG2 POP POP POP POP POP POP POP POP JUMP JUMPDEST PUSH1 0xA PUSH1 0x20 MSTORE DUP2 PUSH1 0x0 MSTORE PUSH1 0x40 PUSH1 0x0 KECCAK256 DUP2 DUP2 SLOAD DUP2 LT PUSH2 0xFE1 JUMPI PUSH1 0x0 DUP1 REVERT JUMPDEST PUSH1 0x0 SWAP2 DUP3 MSTORE PUSH1 0x20 SWAP1 SWAP2 KECCAK256 PUSH1 0x2 SWAP1 SWAP2 MUL ADD DUP1 SLOAD PUSH1 0x1 SWAP1 SWAP2 ADD SLOAD PUSH1 0x1 PUSH1 0x1 PUSH1 0x80 SHL SUB DUP1 DUP4 AND SWAP5 POP PUSH1 0x1 PUSH1 0x80 SHL SWAP1 SWAP3 DIV SWAP1 SWAP2 AND SWAP2 POP DUP4 JUMP JUMPDEST DUP4 TIMESTAMP GT ISZERO PUSH2 0x1066 JUMPI PUSH1 0x40 MLOAD PUSH3 0x461BCD PUSH1 0xE5 SHL DUP2 MSTORE PUSH1 0x20 PUSH1 0x4 DUP3 ADD MSTORE PUSH1 0x1D PUSH1 0x24 DUP3 ADD MSTORE PUSH32 0x45524332305065726D69743A206578706972656420646561646C696E65000000 PUSH1 0x44 DUP3 ADD MSTORE PUSH1 0x64 ADD PUSH2 0x5F8 JUMP JUMPDEST PUSH1 0x0 PUSH32 0x6E71EDAE12B1B97F4D1F60370FEF10105FA2FAAE0126114A169C64845D6126C9 DUP9 DUP9 DUP9 PUSH2 0x10B3 DUP13 PUSH1 0x1 PUSH1 0x1 PUSH1 0xA0 SHL SUB AND PUSH1 0x0 SWAP1 DUP2 MSTORE PUSH1 0x5 PUSH1 0x20 MSTORE PUSH1 0x40 SWAP1 KECCAK256 DUP1 SLOAD PUSH1 0x1 DUP2 ADD SWAP1 SWAP2 SSTORE SWAP1 JUMP JUMPDEST PUSH1 0x40 DUP1 MLOAD PUSH1 0x20 DUP2 ADD SWAP7 SWAP1 SWAP7 MSTORE PUSH1 0x1 PUSH1 0x1 PUSH1 0xA0 SHL SUB SWAP5 DUP6 AND SWAP1 DUP7 ADD MSTORE SWAP3 SWAP1 SWAP2 AND PUSH1 0x60 DUP5 ADD MSTORE PUSH1 0x80 DUP4 ADD MSTORE PUSH1 0xA0 DUP3 ADD MSTORE PUSH1 0xC0 DUP2 ADD DUP7 SWAP1 MSTORE PUSH1 0xE0 ADD PUSH1 0x40 MLOAD PUSH1 0x20 DUP2 DUP4 SUB SUB DUP2 MSTORE SWAP1 PUSH1 0x40 MSTORE DUP1 MLOAD SWAP1 PUSH1 0x20 ADD KECCAK256 SWAP1 POP PUSH1 0x0 PUSH2 0x110E DUP3 PUSH2 0x1DE0 JUMP JUMPDEST SWAP1 POP PUSH1 0x0 PUSH2 0x111E DUP3 DUP8 DUP8 DUP8 PUSH2 0x1E2E JUMP JUMPDEST SWAP1 POP DUP10 PUSH1 0x1 PUSH1 0x1 PUSH1 0xA0 SHL SUB AND DUP2 PUSH1 0x1 PUSH1 0x1 PUSH1 0xA0 SHL SUB AND EQ PUSH2 0x1181 JUMPI PUSH1 0x40 MLOAD PUSH3 0x461BCD PUSH1 0xE5 SHL DUP2 MSTORE PUSH1 0x20 PUSH1 0x4 DUP3 ADD MSTORE PUSH1 0x1E PUSH1 0x24 DUP3 ADD MSTORE PUSH32 0x45524332305065726D69743A20696E76616C6964207369676E61747572650000 PUSH1 0x44 DUP3 ADD MSTORE PUSH1 0x64 ADD PUSH2 0x5F8 JUMP JUMPDEST PUSH2 0x118C DUP11 DUP11 DUP11 PUSH2 0x1361 JUMP JUMPDEST POP POP POP POP POP POP POP POP POP POP JUMP JUMPDEST PUSH1 0x1 PUSH1 0x1 PUSH1 0xA0 SHL SUB SWAP2 DUP3 AND PUSH1 0x0 SWAP1 DUP2 MSTORE PUSH1 0x1 PUSH1 0x20 SWAP1 DUP2 MSTORE PUSH1 0x40 DUP1 DUP4 KECCAK256 SWAP4 SWAP1 SWAP5 AND DUP3 MSTORE SWAP2 SWAP1 SWAP2 MSTORE KECCAK256 SLOAD SWAP1 JUMP JUMPDEST PUSH1 0x40 DUP1 MLOAD DUP1 DUP3 ADD SWAP1 SWAP2 MSTORE PUSH1 0x0 DUP1 DUP3 MSTORE PUSH1 0x20 DUP3 ADD MSTORE PUSH1 0x1 PUSH1 0x1 PUSH1 0xA0 SHL SUB DUP4 AND PUSH1 0x0 SWAP1 DUP2 MSTORE PUSH1 0x8 PUSH1 0x20 MSTORE PUSH1 0x40 SWAP1 KECCAK256 DUP1 SLOAD PUSH4 0xFFFFFFFF DUP5 AND SWAP1 DUP2 LT PUSH2 0x1207 JUMPI PUSH2 0x1207 PUSH2 0x3381 JUMP JUMPDEST PUSH1 0x0 SWAP2 DUP3 MSTORE PUSH1 0x20 SWAP2 DUP3 SWAP1 KECCAK256 PUSH1 0x40 DUP1 MLOAD DUP1 DUP3 ADD SWAP1 SWAP2 MSTORE SWAP2 ADD SLOAD PUSH4 0xFFFFFFFF DUP2 AND DUP3 MSTORE PUSH1 0x1 PUSH1 0x20 SHL SWAP1 DIV PUSH1 0x1 PUSH1 0x1 PUSH1 0xE0 SHL SUB AND SWAP2 DUP2 ADD SWAP2 SWAP1 SWAP2 MSTORE SWAP4 SWAP3 POP POP POP JUMP JUMPDEST PUSH1 0x0 DUP1 PUSH2 0x1252 PUSH1 0x2 SLOAD SWAP1 JUMP JUMPDEST SWAP1 POP DUP1 PUSH2 0x1262 JUMPI POP PUSH1 0x0 SWAP3 SWAP2 POP POP JUMP JUMPDEST PUSH1 0xD SLOAD PUSH1 0xB SLOAD PUSH1 0x40 DUP1 MLOAD PUSH4 0xE0D801DD PUSH1 0xE0 SHL DUP2 MSTORE SWAP1 MLOAD DUP5 SWAP3 PUSH1 0x1 PUSH1 0x1 PUSH1 0xA0 SHL SUB AND SWAP2 PUSH4 0xE0D801DD SWAP2 PUSH1 0x4 DUP1 DUP4 ADD SWAP3 PUSH1 0x20 SWAP3 SWAP2 SWAP1 DUP3 SWAP1 SUB ADD DUP2 DUP7 GAS STATICCALL ISZERO DUP1 ISZERO PUSH2 0x12AE JUMPI RETURNDATASIZE PUSH1 0x0 DUP1 RETURNDATACOPY RETURNDATASIZE PUSH1 0x0 REVERT JUMPDEST POP POP POP POP PUSH1 0x40 MLOAD RETURNDATASIZE PUSH1 0x1F NOT PUSH1 0x1F DUP3 ADD AND DUP3 ADD DUP1 PUSH1 0x40 MSTORE POP DUP2 ADD SWAP1 PUSH2 0x12D2 SWAP2 SWAP1 PUSH2 0x343F JUMP JUMPDEST PUSH2 0x12E1 SWAP1 PUSH5 0xE8D4A51000 PUSH2 0x33FE JUMP JUMPDEST PUSH2 0x12EB SWAP2 SWAP1 PUSH2 0x341D JUMP JUMPDEST PUSH2 0x12F5 SWAP1 DUP3 PUSH2 0x33CF JUMP JUMPDEST PUSH1 0x1 PUSH1 0x1 PUSH1 0xA0 SHL SUB DUP6 AND PUSH1 0x0 SWAP1 DUP2 MSTORE PUSH1 0xC PUSH1 0x20 MSTORE PUSH1 0x40 DUP2 KECCAK256 SLOAD SWAP2 SWAP3 POP SWAP1 PUSH2 0x131C SWAP1 DUP4 PUSH2 0x33E7 JUMP JUMPDEST SWAP1 POP PUSH5 0xE8D4A51000 DUP2 PUSH2 0x1344 DUP8 PUSH1 0x1 PUSH1 0x1 PUSH1 0xA0 SHL SUB AND PUSH1 0x0 SWAP1 DUP2 MSTORE PUSH1 0x20 DUP2 SWAP1 MSTORE PUSH1 0x40 SWAP1 KECCAK256 SLOAD SWAP1 JUMP JUMPDEST PUSH2 0x134E SWAP2 SWAP1 PUSH2 0x33FE JUMP JUMPDEST PUSH2 0x1358 SWAP2 SWAP1 PUSH2 0x341D JUMP JUMPDEST SWAP6 SWAP5 POP POP POP POP POP JUMP JUMPDEST PUSH1 0x1 PUSH1 0x1 PUSH1 0xA0 SHL SUB DUP4 AND PUSH2 0x13C3 JUMPI PUSH1 0x40 MLOAD PUSH3 0x461BCD PUSH1 0xE5 SHL DUP2 MSTORE PUSH1 0x20 PUSH1 0x4 DUP3 ADD MSTORE PUSH1 0x24 DUP1 DUP3 ADD MSTORE PUSH32 0x45524332303A20617070726F76652066726F6D20746865207A65726F20616464 PUSH1 0x44 DUP3 ADD MSTORE PUSH4 0x72657373 PUSH1 0xE0 SHL PUSH1 0x64 DUP3 ADD MSTORE PUSH1 0x84 ADD PUSH2 0x5F8 JUMP JUMPDEST PUSH1 0x1 PUSH1 0x1 PUSH1 0xA0 SHL SUB DUP3 AND PUSH2 0x1424 JUMPI PUSH1 0x40 MLOAD PUSH3 0x461BCD PUSH1 0xE5 SHL DUP2 MSTORE PUSH1 0x20 PUSH1 0x4 DUP3 ADD MSTORE PUSH1 0x22 PUSH1 0x24 DUP3 ADD MSTORE PUSH32 0x45524332303A20617070726F766520746F20746865207A65726F206164647265 PUSH1 0x44 DUP3 ADD MSTORE PUSH2 0x7373 PUSH1 0xF0 SHL PUSH1 0x64 DUP3 ADD MSTORE PUSH1 0x84 ADD PUSH2 0x5F8 JUMP JUMPDEST PUSH1 0x1 PUSH1 0x1 PUSH1 0xA0 SHL SUB DUP4 DUP2 AND PUSH1 0x0 DUP2 DUP2 MSTORE PUSH1 0x1 PUSH1 0x20 SWAP1 DUP2 MSTORE PUSH1 0x40 DUP1 DUP4 KECCAK256 SWAP5 DUP8 AND DUP1 DUP5 MSTORE SWAP5 DUP3 MSTORE SWAP2 DUP3 SWAP1 KECCAK256 DUP6 SWAP1 SSTORE SWAP1 MLOAD DUP5 DUP2 MSTORE PUSH32 0x8C5BE1E5EBEC7D5BD14F71427D1E84F3DD0314C0F7B2291E5B200AC8C7C3B925 SWAP2 ADD PUSH1 0x40 MLOAD DUP1 SWAP2 SUB SWAP1 LOG3 POP POP POP JUMP JUMPDEST PUSH1 0x0 PUSH2 0x1490 PUSH1 0x2 SLOAD SWAP1 JUMP JUMPDEST SWAP1 POP DUP1 ISZERO PUSH2 0x166D JUMPI PUSH1 0x40 MLOAD PUSH4 0x70A08231 PUSH1 0xE0 SHL DUP2 MSTORE ADDRESS PUSH1 0x4 DUP3 ADD MSTORE PUSH1 0x0 SWAP1 PUSH32 0x0 PUSH1 0x1 PUSH1 0x1 PUSH1 0xA0 SHL SUB AND SWAP1 PUSH4 0x70A08231 SWAP1 PUSH1 0x24 ADD PUSH1 0x20 PUSH1 0x40 MLOAD DUP1 DUP4 SUB DUP2 DUP7 GAS STATICCALL ISZERO DUP1 ISZERO PUSH2 0x14FF JUMPI RETURNDATASIZE PUSH1 0x0 DUP1 RETURNDATACOPY RETURNDATASIZE PUSH1 0x0 REVERT JUMPDEST POP POP POP POP PUSH1 0x40 MLOAD RETURNDATASIZE PUSH1 0x1F NOT PUSH1 0x1F DUP3 ADD AND DUP3 ADD DUP1 PUSH1 0x40 MSTORE POP DUP2 ADD SWAP1 PUSH2 0x1523 SWAP2 SWAP1 PUSH2 0x343F JUMP JUMPDEST SWAP1 POP PUSH1 0xB PUSH1 0x0 SWAP1 SLOAD SWAP1 PUSH2 0x100 EXP SWAP1 DIV PUSH1 0x1 PUSH1 0x1 PUSH1 0xA0 SHL SUB AND PUSH1 0x1 PUSH1 0x1 PUSH1 0xA0 SHL SUB AND PUSH4 0x70BB45B3 PUSH1 0x40 MLOAD DUP2 PUSH4 0xFFFFFFFF AND PUSH1 0xE0 SHL DUP2 MSTORE PUSH1 0x4 ADD PUSH1 0x20 PUSH1 0x40 MLOAD DUP1 DUP4 SUB DUP2 PUSH1 0x0 DUP8 GAS CALL SWAP3 POP POP POP DUP1 ISZERO PUSH2 0x1596 JUMPI POP PUSH1 0x40 DUP1 MLOAD PUSH1 0x1F RETURNDATASIZE SWAP1 DUP2 ADD PUSH1 0x1F NOT AND DUP3 ADD SWAP1 SWAP3 MSTORE PUSH2 0x1593 SWAP2 DUP2 ADD SWAP1 PUSH2 0x343F JUMP JUMPDEST PUSH1 0x1 JUMPDEST PUSH2 0x159F JUMPI PUSH2 0x15A1 JUMP JUMPDEST POP JUMPDEST PUSH1 0x40 MLOAD PUSH4 0x70A08231 PUSH1 0xE0 SHL DUP2 MSTORE ADDRESS PUSH1 0x4 DUP3 ADD MSTORE PUSH1 0x0 SWAP1 DUP3 SWAP1 PUSH1 0x1 PUSH1 0x1 PUSH1 0xA0 SHL SUB PUSH32 0x0 AND SWAP1 PUSH4 0x70A08231 SWAP1 PUSH1 0x24 ADD PUSH1 0x20 PUSH1 0x40 MLOAD DUP1 DUP4 SUB DUP2 DUP7 GAS STATICCALL ISZERO DUP1 ISZERO PUSH2 0x160A JUMPI RETURNDATASIZE PUSH1 0x0 DUP1 RETURNDATACOPY RETURNDATASIZE PUSH1 0x0 REVERT JUMPDEST POP POP POP POP PUSH1 0x40 MLOAD RETURNDATASIZE PUSH1 0x1F NOT PUSH1 0x1F DUP3 ADD AND DUP3 ADD DUP1 PUSH1 0x40 MSTORE POP DUP2 ADD SWAP1 PUSH2 0x162E SWAP2 SWAP1 PUSH2 0x343F JUMP JUMPDEST PUSH2 0x1638 SWAP2 SWAP1 PUSH2 0x33E7 JUMP JUMPDEST SWAP1 POP DUP3 PUSH2 0x164A DUP3 PUSH5 0xE8D4A51000 PUSH2 0x33FE JUMP JUMPDEST PUSH2 0x1654 SWAP2 SWAP1 PUSH2 0x341D JUMP JUMPDEST PUSH1 0xD PUSH1 0x0 DUP3 DUP3 SLOAD PUSH2 0x1665 SWAP2 SWAP1 PUSH2 0x33CF JUMP JUMPDEST SWAP1 SWAP2 SSTORE POP POP POP POP JUMPDEST PUSH1 0x1 PUSH1 0x1 PUSH1 0xA0 SHL SUB DUP3 AND PUSH1 0x0 SWAP1 DUP2 MSTORE PUSH1 0xC PUSH1 0x20 MSTORE PUSH1 0x40 DUP2 KECCAK256 SLOAD PUSH1 0xD SLOAD PUSH2 0x1693 SWAP2 SWAP1 PUSH2 0x33E7 JUMP JUMPDEST SWAP1 POP PUSH1 0x0 PUSH5 0xE8D4A51000 DUP3 PUSH2 0x16BD DUP7 PUSH1 0x1 PUSH1 0x1 PUSH1 0xA0 SHL SUB AND PUSH1 0x0 SWAP1 DUP2 MSTORE PUSH1 0x20 DUP2 SWAP1 MSTORE PUSH1 0x40 SWAP1 KECCAK256 SLOAD SWAP1 JUMP JUMPDEST PUSH2 0x16C7 SWAP2 SWAP1 PUSH2 0x33FE JUMP JUMPDEST PUSH2 0x16D1 SWAP2 SWAP1 PUSH2 0x341D JUMP JUMPDEST PUSH1 0xD SLOAD PUSH1 0x1 PUSH1 0x1 PUSH1 0xA0 SHL SUB DUP7 AND PUSH1 0x0 SWAP1 DUP2 MSTORE PUSH1 0xC PUSH1 0x20 MSTORE PUSH1 0x40 SWAP1 KECCAK256 SSTORE SWAP1 POP DUP1 PUSH2 0x16FA JUMPI POP POP POP POP JUMP JUMPDEST PUSH1 0x40 MLOAD PUSH4 0xA9059CBB PUSH1 0xE0 SHL DUP2 MSTORE PUSH1 0x1 PUSH1 0x1 PUSH1 0xA0 SHL SUB DUP6 DUP2 AND PUSH1 0x4 DUP4 ADD MSTORE PUSH1 0x24 DUP3 ADD DUP4 SWAP1 MSTORE PUSH32 0x0 AND SWAP1 PUSH4 0xA9059CBB SWAP1 PUSH1 0x44 ADD PUSH1 0x20 PUSH1 0x40 MLOAD DUP1 DUP4 SUB DUP2 PUSH1 0x0 DUP8 GAS CALL ISZERO DUP1 ISZERO PUSH2 0x1769 JUMPI RETURNDATASIZE PUSH1 0x0 DUP1 RETURNDATACOPY RETURNDATASIZE PUSH1 0x0 REVERT JUMPDEST POP POP POP POP PUSH1 0x40 MLOAD RETURNDATASIZE PUSH1 0x1F NOT PUSH1 0x1F DUP3 ADD AND DUP3 ADD DUP1 PUSH1 0x40 MSTORE POP DUP2 ADD SWAP1 PUSH2 0x178D SWAP2 SWAP1 PUSH2 0x3397 JUMP JUMPDEST POP DUP4 PUSH1 0x1 PUSH1 0x1 PUSH1 0xA0 SHL SUB AND PUSH32 0x619CAAFABDD75649B302BA8419E48CCCF64F37F1983AC4727CFB38B57703FFC9 DUP3 PUSH1 0x40 MLOAD PUSH2 0x17C9 SWAP2 DUP2 MSTORE PUSH1 0x20 ADD SWAP1 JUMP JUMPDEST PUSH1 0x40 MLOAD DUP1 SWAP2 SUB SWAP1 LOG2 POP POP POP POP JUMP JUMPDEST PUSH2 0x17E1 DUP3 DUP3 PUSH2 0x1EE0 JUMP JUMPDEST PUSH2 0x17EF PUSH1 0x9 PUSH2 0x2035 DUP4 PUSH2 0x2041 JUMP JUMPDEST POP POP POP POP JUMP JUMPDEST PUSH1 0x0 ADDRESS PUSH1 0x1 PUSH1 0x1 PUSH1 0xA0 SHL SUB PUSH32 0x0 AND EQ DUP1 ISZERO PUSH2 0x184E JUMPI POP PUSH32 0x0 CHAINID EQ JUMPDEST ISZERO PUSH2 0x1878 JUMPI POP PUSH32 0x0 SWAP1 JUMP JUMPDEST POP PUSH1 0x40 DUP1 MLOAD PUSH32 0x0 PUSH1 0x20 DUP1 DUP4 ADD SWAP2 SWAP1 SWAP2 MSTORE PUSH32 0x0 DUP3 DUP5 ADD MSTORE PUSH32 0x0 PUSH1 0x60 DUP4 ADD MSTORE CHAINID PUSH1 0x80 DUP4 ADD MSTORE ADDRESS PUSH1 0xA0 DUP1 DUP5 ADD SWAP2 SWAP1 SWAP2 MSTORE DUP4 MLOAD DUP1 DUP5 SUB SWAP1 SWAP2 ADD DUP2 MSTORE PUSH1 0xC0 SWAP1 SWAP3 ADD SWAP1 SWAP3 MSTORE DUP1 MLOAD SWAP2 ADD KECCAK256 SWAP1 JUMP JUMPDEST DUP2 SLOAD PUSH1 0x0 SWAP1 DUP2 JUMPDEST DUP2 DUP2 LT ISZERO PUSH2 0x1980 JUMPI PUSH1 0x0 PUSH2 0x1937 DUP3 DUP5 PUSH2 0x21B8 JUMP JUMPDEST SWAP1 POP DUP5 DUP7 DUP3 DUP2 SLOAD DUP2 LT PUSH2 0x194C JUMPI PUSH2 0x194C PUSH2 0x3381 JUMP JUMPDEST PUSH1 0x0 SWAP2 DUP3 MSTORE PUSH1 0x20 SWAP1 SWAP2 KECCAK256 ADD SLOAD PUSH4 0xFFFFFFFF AND GT ISZERO PUSH2 0x196C JUMPI DUP1 SWAP3 POP PUSH2 0x197A JUMP JUMPDEST PUSH2 0x1977 DUP2 PUSH1 0x1 PUSH2 0x33CF JUMP JUMPDEST SWAP2 POP JUMPDEST POP PUSH2 0x1923 JUMP JUMPDEST DUP2 ISZERO PUSH2 0x19C3 JUMPI DUP5 PUSH2 0x1992 PUSH1 0x1 DUP5 PUSH2 0x33E7 JUMP JUMPDEST DUP2 SLOAD DUP2 LT PUSH2 0x19A2 JUMPI PUSH2 0x19A2 PUSH2 0x3381 JUMP JUMPDEST PUSH1 0x0 SWAP2 DUP3 MSTORE PUSH1 0x20 SWAP1 SWAP2 KECCAK256 ADD SLOAD PUSH1 0x1 PUSH1 0x20 SHL SWAP1 DIV PUSH1 0x1 PUSH1 0x1 PUSH1 0xE0 SHL SUB AND PUSH2 0x19C6 JUMP JUMPDEST PUSH1 0x0 JUMPDEST PUSH1 0x1 PUSH1 0x1 PUSH1 0xE0 SHL SUB AND SWAP6 SWAP5 POP POP POP POP POP JUMP JUMPDEST PUSH1 0x0 DUP3 PUSH2 0x19FD JUMPI DUP2 ISZERO PUSH2 0x19EC JUMPI PUSH1 0x0 PUSH2 0x19F6 JUMP JUMPDEST PUSH8 0xDE0B6B3A7640000 JUMPDEST SWAP1 POP PUSH2 0x5AB JUMP JUMPDEST PUSH2 0x8F8 PUSH2 0x1A12 PUSH2 0x1A0C DUP6 PUSH2 0x21D3 JUMP JUMPDEST DUP5 PUSH2 0x2283 JUMP JUMPDEST PUSH2 0x228F JUMP JUMPDEST PUSH1 0x1 PUSH1 0x1 PUSH1 0xA0 SHL SUB DUP3 DUP2 AND PUSH1 0x0 DUP2 DUP2 MSTORE PUSH1 0x7 PUSH1 0x20 DUP2 DUP2 MSTORE PUSH1 0x40 DUP1 DUP5 KECCAK256 DUP1 SLOAD DUP6 DUP5 MSTORE DUP3 DUP7 KECCAK256 SLOAD SWAP5 SWAP1 SWAP4 MSTORE DUP8 DUP8 AND PUSH1 0x1 PUSH1 0x1 PUSH1 0xA0 SHL SUB NOT DUP5 AND DUP2 OR SWAP1 SWAP2 SSTORE SWAP1 MLOAD SWAP2 SWAP1 SWAP6 AND SWAP5 SWAP2 SWAP4 SWAP2 SWAP3 DUP6 SWAP3 SWAP2 PUSH32 0x3134E8A2E6D97E929A7E54011EA5485D7D196DD5F0BA4D4EF95803E8E3FC257F SWAP2 SWAP1 LOG4 PUSH2 0x17EF DUP3 DUP5 DUP4 PUSH2 0x22D5 JUMP JUMPDEST PUSH1 0x0 PUSH4 0xFFFFFFFF DUP3 GT ISZERO PUSH2 0x1AF5 JUMPI PUSH1 0x40 MLOAD PUSH3 0x461BCD PUSH1 0xE5 SHL DUP2 MSTORE PUSH1 0x20 PUSH1 0x4 DUP3 ADD MSTORE PUSH1 0x26 PUSH1 0x24 DUP3 ADD MSTORE PUSH32 0x53616665436173743A2076616C756520646F65736E27742066697420696E2033 PUSH1 0x44 DUP3 ADD MSTORE PUSH6 0x322062697473 PUSH1 0xD0 SHL PUSH1 0x64 DUP3 ADD MSTORE PUSH1 0x84 ADD PUSH2 0x5F8 JUMP JUMPDEST POP SWAP1 JUMP JUMPDEST PUSH1 0x1 PUSH1 0x1 PUSH1 0xA0 SHL SUB DUP2 AND PUSH2 0x1B4F JUMPI PUSH1 0x40 MLOAD PUSH3 0x461BCD PUSH1 0xE5 SHL DUP2 MSTORE PUSH1 0x20 PUSH1 0x4 DUP3 ADD MSTORE PUSH1 0x1C PUSH1 0x24 DUP3 ADD MSTORE PUSH32 0x5374616B696E673A20546F20746865207A65726F206164647265737300000000 PUSH1 0x44 DUP3 ADD MSTORE PUSH1 0x64 ADD PUSH2 0x5F8 JUMP JUMPDEST PUSH1 0x1 PUSH1 0x1 PUSH1 0x80 SHL SUB DUP4 GT ISZERO PUSH2 0x1B9A JUMPI PUSH1 0x40 MLOAD PUSH3 0x461BCD PUSH1 0xE5 SHL DUP2 MSTORE PUSH1 0x20 PUSH1 0x4 DUP3 ADD MSTORE PUSH1 0x11 PUSH1 0x24 DUP3 ADD MSTORE PUSH17 0xA6E8C2D6D2DCCE7440A8DEDE40DAEAC6D PUSH1 0x7B SHL PUSH1 0x44 DUP3 ADD MSTORE PUSH1 0x64 ADD PUSH2 0x5F8 JUMP JUMPDEST PUSH1 0x0 DUP4 GT PUSH2 0x1BE0 JUMPI PUSH1 0x40 MLOAD PUSH3 0x461BCD PUSH1 0xE5 SHL DUP2 MSTORE PUSH1 0x20 PUSH1 0x4 DUP3 ADD MSTORE PUSH1 0x13 PUSH1 0x24 DUP3 ADD MSTORE PUSH19 0xA6E8C2D6D2DCCE74409CDEE840CADCDEEACED PUSH1 0x6B SHL PUSH1 0x44 DUP3 ADD MSTORE PUSH1 0x64 ADD PUSH2 0x5F8 JUMP JUMPDEST PUSH1 0x0 DUP1 PUSH2 0x1BED DUP6 DUP6 PUSH2 0x8FF JUMP JUMPDEST SWAP1 SWAP3 POP SWAP1 POP PUSH1 0x1 PUSH1 0x1 PUSH1 0xC0 SHL SUB PUSH2 0x1C03 PUSH1 0x2 SLOAD SWAP1 JUMP JUMPDEST PUSH2 0x1C0D SWAP1 DUP5 PUSH2 0x33CF JUMP JUMPDEST GT ISZERO PUSH2 0x1C5B JUMPI PUSH1 0x40 MLOAD PUSH3 0x461BCD PUSH1 0xE5 SHL DUP2 MSTORE PUSH1 0x20 PUSH1 0x4 DUP3 ADD MSTORE PUSH1 0x1C PUSH1 0x24 DUP3 ADD MSTORE PUSH32 0x5374616B696E673A204D617820706F696E747320657863656564656400000000 PUSH1 0x44 DUP3 ADD MSTORE PUSH1 0x64 ADD PUSH2 0x5F8 JUMP JUMPDEST PUSH2 0x1C64 DUP4 PUSH2 0x1485 JUMP JUMPDEST PUSH1 0x1 PUSH1 0x1 PUSH1 0xA0 SHL SUB DUP4 AND PUSH1 0x0 SWAP1 DUP2 MSTORE PUSH1 0xA PUSH1 0x20 SWAP1 DUP2 MSTORE PUSH1 0x40 DUP1 DUP4 KECCAK256 DUP2 MLOAD PUSH1 0x60 DUP2 ADD DUP4 MSTORE PUSH1 0x1 PUSH1 0x1 PUSH1 0x80 SHL SUB DUP1 DUP12 AND DUP3 MSTORE DUP7 DUP2 AND DUP3 DUP7 ADD SWAP1 DUP2 MSTORE SWAP4 DUP3 ADD DUP9 DUP2 MSTORE DUP4 SLOAD PUSH1 0x1 DUP2 DUP2 ADD DUP7 SSTORE SWAP5 DUP9 MSTORE SWAP6 SWAP1 SWAP7 KECCAK256 SWAP2 MLOAD SWAP4 MLOAD DUP2 AND PUSH1 0x1 PUSH1 0x80 SHL MUL SWAP4 AND SWAP3 SWAP1 SWAP3 OR PUSH1 0x2 SWAP1 SWAP4 MUL SWAP1 SWAP2 ADD SWAP2 DUP3 SSTORE SWAP2 MLOAD SWAP2 ADD SSTORE PUSH2 0x1CDF DUP4 DUP4 PUSH2 0x1E56 JUMP JUMPDEST PUSH1 0x40 MLOAD PUSH4 0x23B872DD PUSH1 0xE0 SHL DUP2 MSTORE CALLER PUSH1 0x4 DUP3 ADD MSTORE ADDRESS PUSH1 0x24 DUP3 ADD MSTORE PUSH1 0x44 DUP2 ADD DUP7 SWAP1 MSTORE PUSH32 0x0 PUSH1 0x1 PUSH1 0x1 PUSH1 0xA0 SHL SUB AND SWAP1 PUSH4 0x23B872DD SWAP1 PUSH1 0x64 ADD PUSH1 0x20 PUSH1 0x40 MLOAD DUP1 DUP4 SUB DUP2 PUSH1 0x0 DUP8 GAS CALL ISZERO DUP1 ISZERO PUSH2 0x1D52 JUMPI RETURNDATASIZE PUSH1 0x0 DUP1 RETURNDATACOPY RETURNDATASIZE PUSH1 0x0 REVERT JUMPDEST POP POP POP POP PUSH1 0x40 MLOAD RETURNDATASIZE PUSH1 0x1F NOT PUSH1 0x1F DUP3 ADD AND DUP3 ADD DUP1 PUSH1 0x40 MSTORE POP DUP2 ADD SWAP1 PUSH2 0x1D76 SWAP2 SWAP1 PUSH2 0x3397 JUMP JUMPDEST POP PUSH1 0x1 PUSH1 0x1 PUSH1 0xA0 SHL SUB DUP4 AND PUSH1 0x0 DUP2 DUP2 MSTORE PUSH1 0xA PUSH1 0x20 MSTORE PUSH1 0x40 SWAP1 KECCAK256 SLOAD PUSH32 0x2720EFA4B2DD4F3F8A347DA3CBD290A522E9432DA9072C5B8E6300496FDDE282 SWAP1 PUSH2 0x1DBE SWAP1 PUSH1 0x1 SWAP1 PUSH2 0x33E7 JUMP JUMPDEST PUSH1 0x40 DUP1 MLOAD SWAP2 DUP3 MSTORE PUSH1 0x20 DUP3 ADD DUP10 SWAP1 MSTORE DUP2 ADD DUP5 SWAP1 MSTORE PUSH1 0x60 DUP2 ADD DUP6 SWAP1 MSTORE PUSH1 0x80 ADD PUSH2 0x845 JUMP JUMPDEST PUSH1 0x0 PUSH2 0x5AB PUSH2 0x1DED PUSH2 0x17F5 JUMP JUMPDEST DUP4 PUSH1 0x40 MLOAD PUSH2 0x1901 PUSH1 0xF0 SHL PUSH1 0x20 DUP3 ADD MSTORE PUSH1 0x22 DUP2 ADD DUP4 SWAP1 MSTORE PUSH1 0x42 DUP2 ADD DUP3 SWAP1 MSTORE PUSH1 0x0 SWAP1 PUSH1 0x62 ADD PUSH1 0x40 MLOAD PUSH1 0x20 DUP2 DUP4 SUB SUB DUP2 MSTORE SWAP1 PUSH1 0x40 MSTORE DUP1 MLOAD SWAP1 PUSH1 0x20 ADD KECCAK256 SWAP1 POP SWAP3 SWAP2 POP POP JUMP JUMPDEST PUSH1 0x0 DUP1 PUSH1 0x0 PUSH2 0x1E3F DUP8 DUP8 DUP8 DUP8 PUSH2 0x2403 JUMP JUMPDEST SWAP2 POP SWAP2 POP PUSH2 0x1E4C DUP2 PUSH2 0x24F0 JUMP JUMPDEST POP SWAP6 SWAP5 POP POP POP POP POP JUMP JUMPDEST PUSH2 0x1E60 DUP3 DUP3 PUSH2 0x26AB JUMP JUMPDEST PUSH1 0x2 SLOAD PUSH1 0x1 PUSH1 0x1 PUSH1 0xE0 SHL SUB LT ISZERO PUSH2 0x1ED2 JUMPI PUSH1 0x40 MLOAD PUSH3 0x461BCD PUSH1 0xE5 SHL DUP2 MSTORE PUSH1 0x20 PUSH1 0x4 DUP3 ADD MSTORE PUSH1 0x30 PUSH1 0x24 DUP3 ADD MSTORE PUSH32 0x4552433230566F7465733A20746F74616C20737570706C79207269736B73206F PUSH1 0x44 DUP3 ADD MSTORE PUSH16 0x766572666C6F77696E6720766F746573 PUSH1 0x80 SHL PUSH1 0x64 DUP3 ADD MSTORE PUSH1 0x84 ADD PUSH2 0x5F8 JUMP JUMPDEST PUSH2 0x17EF PUSH1 0x9 PUSH2 0x2792 DUP4 PUSH2 0x2041 JUMP JUMPDEST PUSH1 0x1 PUSH1 0x1 PUSH1 0xA0 SHL SUB DUP3 AND PUSH2 0x1F40 JUMPI PUSH1 0x40 MLOAD PUSH3 0x461BCD PUSH1 0xE5 SHL DUP2 MSTORE PUSH1 0x20 PUSH1 0x4 DUP3 ADD MSTORE PUSH1 0x21 PUSH1 0x24 DUP3 ADD MSTORE PUSH32 0x45524332303A206275726E2066726F6D20746865207A65726F20616464726573 PUSH1 0x44 DUP3 ADD MSTORE PUSH1 0x73 PUSH1 0xF8 SHL PUSH1 0x64 DUP3 ADD MSTORE PUSH1 0x84 ADD PUSH2 0x5F8 JUMP JUMPDEST PUSH1 0x1 PUSH1 0x1 PUSH1 0xA0 SHL SUB DUP3 AND PUSH1 0x0 SWAP1 DUP2 MSTORE PUSH1 0x20 DUP2 SWAP1 MSTORE PUSH1 0x40 SWAP1 KECCAK256 SLOAD DUP2 DUP2 LT ISZERO PUSH2 0x1FB4 JUMPI PUSH1 0x40 MLOAD PUSH3 0x461BCD PUSH1 0xE5 SHL DUP2 MSTORE PUSH1 0x20 PUSH1 0x4 DUP3 ADD MSTORE PUSH1 0x22 PUSH1 0x24 DUP3 ADD MSTORE PUSH32 0x45524332303A206275726E20616D6F756E7420657863656564732062616C616E PUSH1 0x44 DUP3 ADD MSTORE PUSH2 0x6365 PUSH1 0xF0 SHL PUSH1 0x64 DUP3 ADD MSTORE PUSH1 0x84 ADD PUSH2 0x5F8 JUMP JUMPDEST PUSH1 0x1 PUSH1 0x1 PUSH1 0xA0 SHL SUB DUP4 AND PUSH1 0x0 SWAP1 DUP2 MSTORE PUSH1 0x20 DUP2 SWAP1 MSTORE PUSH1 0x40 DUP2 KECCAK256 DUP4 DUP4 SUB SWAP1 SSTORE PUSH1 0x2 DUP1 SLOAD DUP5 SWAP3 SWAP1 PUSH2 0x1FE3 SWAP1 DUP5 SWAP1 PUSH2 0x33E7 JUMP JUMPDEST SWAP1 SWAP2 SSTORE POP POP PUSH1 0x40 MLOAD DUP3 DUP2 MSTORE PUSH1 0x0 SWAP1 PUSH1 0x1 PUSH1 0x1 PUSH1 0xA0 SHL SUB DUP6 AND SWAP1 PUSH32 0xDDF252AD1BE2C89B69C2B068FC378DAA952BA7F163C4A11628F55A4DF523B3EF SWAP1 PUSH1 0x20 ADD PUSH1 0x40 MLOAD DUP1 SWAP2 SUB SWAP1 LOG3 PUSH2 0xAC8 DUP4 PUSH1 0x0 DUP5 PUSH2 0x279E JUMP JUMPDEST PUSH1 0x0 PUSH2 0x8F8 DUP3 DUP5 PUSH2 0x33E7 JUMP JUMPDEST DUP3 SLOAD PUSH1 0x0 SWAP1 DUP2 SWAP1 DUP1 ISZERO PUSH2 0x208B JUMPI DUP6 PUSH2 0x205A PUSH1 0x1 DUP4 PUSH2 0x33E7 JUMP JUMPDEST DUP2 SLOAD DUP2 LT PUSH2 0x206A JUMPI PUSH2 0x206A PUSH2 0x3381 JUMP JUMPDEST PUSH1 0x0 SWAP2 DUP3 MSTORE PUSH1 0x20 SWAP1 SWAP2 KECCAK256 ADD SLOAD PUSH1 0x1 PUSH1 0x20 SHL SWAP1 DIV PUSH1 0x1 PUSH1 0x1 PUSH1 0xE0 SHL SUB AND PUSH2 0x208E JUMP JUMPDEST PUSH1 0x0 JUMPDEST PUSH1 0x1 PUSH1 0x1 PUSH1 0xE0 SHL SUB AND SWAP3 POP PUSH2 0x20A7 DUP4 DUP6 DUP8 PUSH4 0xFFFFFFFF AND JUMP JUMPDEST SWAP2 POP PUSH1 0x0 DUP2 GT DUP1 ISZERO PUSH2 0x20E5 JUMPI POP NUMBER DUP7 PUSH2 0x20C1 PUSH1 0x1 DUP5 PUSH2 0x33E7 JUMP JUMPDEST DUP2 SLOAD DUP2 LT PUSH2 0x20D1 JUMPI PUSH2 0x20D1 PUSH2 0x3381 JUMP JUMPDEST PUSH1 0x0 SWAP2 DUP3 MSTORE PUSH1 0x20 SWAP1 SWAP2 KECCAK256 ADD SLOAD PUSH4 0xFFFFFFFF AND EQ JUMPDEST ISZERO PUSH2 0x2145 JUMPI PUSH2 0x20F3 DUP3 PUSH2 0x27D0 JUMP JUMPDEST DUP7 PUSH2 0x20FF PUSH1 0x1 DUP5 PUSH2 0x33E7 JUMP JUMPDEST DUP2 SLOAD DUP2 LT PUSH2 0x210F JUMPI PUSH2 0x210F PUSH2 0x3381 JUMP JUMPDEST SWAP1 PUSH1 0x0 MSTORE PUSH1 0x20 PUSH1 0x0 KECCAK256 ADD PUSH1 0x0 ADD PUSH1 0x4 PUSH2 0x100 EXP DUP2 SLOAD DUP2 PUSH1 0x1 PUSH1 0x1 PUSH1 0xE0 SHL SUB MUL NOT AND SWAP1 DUP4 PUSH1 0x1 PUSH1 0x1 PUSH1 0xE0 SHL SUB AND MUL OR SWAP1 SSTORE POP PUSH2 0x21AF JUMP JUMPDEST DUP6 PUSH1 0x40 MLOAD DUP1 PUSH1 0x40 ADD PUSH1 0x40 MSTORE DUP1 PUSH2 0x215A NUMBER PUSH2 0x1A90 JUMP JUMPDEST PUSH4 0xFFFFFFFF AND DUP2 MSTORE PUSH1 0x20 ADD PUSH2 0x216E DUP6 PUSH2 0x27D0 JUMP JUMPDEST PUSH1 0x1 PUSH1 0x1 PUSH1 0xE0 SHL SUB SWAP1 DUP2 AND SWAP1 SWAP2 MSTORE DUP3 SLOAD PUSH1 0x1 DUP2 ADD DUP5 SSTORE PUSH1 0x0 SWAP4 DUP5 MSTORE PUSH1 0x20 SWAP4 DUP5 SWAP1 KECCAK256 DUP4 MLOAD SWAP5 SWAP1 SWAP4 ADD MLOAD SWAP1 SWAP2 AND PUSH1 0x1 PUSH1 0x20 SHL MUL PUSH4 0xFFFFFFFF SWAP1 SWAP4 AND SWAP3 SWAP1 SWAP3 OR SWAP2 ADD SSTORE JUMPDEST POP SWAP4 POP SWAP4 SWAP2 POP POP JUMP JUMPDEST PUSH1 0x0 PUSH2 0x21C7 PUSH1 0x2 DUP5 DUP5 XOR PUSH2 0x341D JUMP JUMPDEST PUSH2 0x8F8 SWAP1 DUP5 DUP5 AND PUSH2 0x33CF JUMP JUMPDEST PUSH1 0x0 PUSH8 0xDE0B6B3A7640000 DUP3 LT ISZERO PUSH2 0x2201 JUMPI PUSH1 0x40 MLOAD PUSH4 0x36214137 PUSH1 0xE2 SHL DUP2 MSTORE PUSH1 0x4 DUP2 ADD DUP4 SWAP1 MSTORE PUSH1 0x24 ADD PUSH2 0x5F8 JUMP JUMPDEST PUSH1 0x0 PUSH2 0x2216 PUSH8 0xDE0B6B3A7640000 DUP5 DIV PUSH2 0x2839 JUMP JUMPDEST PUSH8 0xDE0B6B3A7640000 DUP1 DUP3 MUL SWAP4 POP SWAP1 SWAP2 POP DUP4 DUP3 SHR SWAP1 DUP2 EQ ISZERO PUSH2 0x2239 JUMPI POP POP SWAP2 SWAP1 POP JUMP JUMPDEST PUSH8 0x6F05B59D3B20000 JUMPDEST DUP1 ISZERO PUSH2 0x227B JUMPI PUSH8 0xDE0B6B3A7640000 DUP3 DUP1 MUL DIV SWAP2 POP PUSH8 0x1BC16D674EC80000 DUP3 LT PUSH2 0x2273 JUMPI SWAP3 DUP4 ADD SWAP3 PUSH1 0x1 SWAP2 SWAP1 SWAP2 SHR SWAP1 JUMPDEST PUSH1 0x1 SHR PUSH2 0x2243 JUMP JUMPDEST POP POP POP SWAP2 SWAP1 POP JUMP JUMPDEST PUSH1 0x0 PUSH2 0x8F8 DUP4 DUP4 PUSH2 0x2921 JUMP JUMPDEST PUSH1 0x0 PUSH9 0xA688906BD8B000000 DUP3 LT PUSH2 0x22BD JUMPI PUSH1 0x40 MLOAD PUSH4 0x4A4F26F1 PUSH1 0xE0 SHL DUP2 MSTORE PUSH1 0x4 DUP2 ADD DUP4 SWAP1 MSTORE PUSH1 0x24 ADD PUSH2 0x5F8 JUMP JUMPDEST PUSH8 0xDE0B6B3A7640000 PUSH1 0x40 DUP4 SWAP1 SHL DIV PUSH2 0x8F8 DUP2 PUSH2 0x29E3 JUMP JUMPDEST DUP2 PUSH1 0x1 PUSH1 0x1 PUSH1 0xA0 SHL SUB AND DUP4 PUSH1 0x1 PUSH1 0x1 PUSH1 0xA0 SHL SUB AND EQ ISZERO DUP1 ISZERO PUSH2 0x22F7 JUMPI POP PUSH1 0x0 DUP2 GT JUMPDEST ISZERO PUSH2 0xAC8 JUMPI PUSH1 0x1 PUSH1 0x1 PUSH1 0xA0 SHL SUB DUP4 AND ISZERO PUSH2 0x2385 JUMPI PUSH1 0x1 PUSH1 0x1 PUSH1 0xA0 SHL SUB DUP4 AND PUSH1 0x0 SWAP1 DUP2 MSTORE PUSH1 0x8 PUSH1 0x20 MSTORE PUSH1 0x40 DUP2 KECCAK256 DUP2 SWAP1 PUSH2 0x2332 SWAP1 PUSH2 0x2035 DUP6 PUSH2 0x2041 JUMP JUMPDEST SWAP2 POP SWAP2 POP DUP5 PUSH1 0x1 PUSH1 0x1 PUSH1 0xA0 SHL SUB AND PUSH32 0xDEC2BACDD2F05B59DE34DA9B523DFF8BE42E5E38E818C82FDB0BAE774387A724 DUP4 DUP4 PUSH1 0x40 MLOAD PUSH2 0x237A SWAP3 SWAP2 SWAP1 SWAP2 DUP3 MSTORE PUSH1 0x20 DUP3 ADD MSTORE PUSH1 0x40 ADD SWAP1 JUMP JUMPDEST PUSH1 0x40 MLOAD DUP1 SWAP2 SUB SWAP1 LOG2 POP POP JUMPDEST PUSH1 0x1 PUSH1 0x1 PUSH1 0xA0 SHL SUB DUP3 AND ISZERO PUSH2 0xAC8 JUMPI PUSH1 0x1 PUSH1 0x1 PUSH1 0xA0 SHL SUB DUP3 AND PUSH1 0x0 SWAP1 DUP2 MSTORE PUSH1 0x8 PUSH1 0x20 MSTORE PUSH1 0x40 DUP2 KECCAK256 DUP2 SWAP1 PUSH2 0x23BB SWAP1 PUSH2 0x2792 DUP6 PUSH2 0x2041 JUMP JUMPDEST SWAP2 POP SWAP2 POP DUP4 PUSH1 0x1 PUSH1 0x1 PUSH1 0xA0 SHL SUB AND PUSH32 0xDEC2BACDD2F05B59DE34DA9B523DFF8BE42E5E38E818C82FDB0BAE774387A724 DUP4 DUP4 PUSH1 0x40 MLOAD PUSH2 0x845 SWAP3 SWAP2 SWAP1 SWAP2 DUP3 MSTORE PUSH1 0x20 DUP3 ADD MSTORE PUSH1 0x40 ADD SWAP1 JUMP JUMPDEST PUSH1 0x0 DUP1 PUSH32 0x7FFFFFFFFFFFFFFFFFFFFFFFFFFFFFFF5D576E7357A4501DDFE92F46681B20A0 DUP4 GT ISZERO PUSH2 0x243A JUMPI POP PUSH1 0x0 SWAP1 POP PUSH1 0x3 PUSH2 0x24E7 JUMP JUMPDEST DUP5 PUSH1 0xFF AND PUSH1 0x1B EQ ISZERO DUP1 ISZERO PUSH2 0x2452 JUMPI POP DUP5 PUSH1 0xFF AND PUSH1 0x1C EQ ISZERO JUMPDEST ISZERO PUSH2 0x2463 JUMPI POP PUSH1 0x0 SWAP1 POP PUSH1 0x4 PUSH2 0x24E7 JUMP JUMPDEST PUSH1 0x40 DUP1 MLOAD PUSH1 0x0 DUP1 DUP3 MSTORE PUSH1 0x20 DUP3 ADD DUP1 DUP5 MSTORE DUP10 SWAP1 MSTORE PUSH1 0xFF DUP9 AND SWAP3 DUP3 ADD SWAP3 SWAP1 SWAP3 MSTORE PUSH1 0x60 DUP2 ADD DUP7 SWAP1 MSTORE PUSH1 0x80 DUP2 ADD DUP6 SWAP1 MSTORE PUSH1 0x1 SWAP1 PUSH1 0xA0 ADD PUSH1 0x20 PUSH1 0x40 MLOAD PUSH1 0x20 DUP2 SUB SWAP1 DUP1 DUP5 SUB SWAP1 DUP6 GAS STATICCALL ISZERO DUP1 ISZERO PUSH2 0x24B7 JUMPI RETURNDATASIZE PUSH1 0x0 DUP1 RETURNDATACOPY RETURNDATASIZE PUSH1 0x0 REVERT JUMPDEST POP POP PUSH1 0x40 MLOAD PUSH1 0x1F NOT ADD MLOAD SWAP2 POP POP PUSH1 0x1 PUSH1 0x1 PUSH1 0xA0 SHL SUB DUP2 AND PUSH2 0x24E0 JUMPI PUSH1 0x0 PUSH1 0x1 SWAP3 POP SWAP3 POP POP PUSH2 0x24E7 JUMP JUMPDEST SWAP2 POP PUSH1 0x0 SWAP1 POP JUMPDEST SWAP5 POP SWAP5 SWAP3 POP POP POP JUMP JUMPDEST PUSH1 0x0 DUP2 PUSH1 0x4 DUP2 GT ISZERO PUSH2 0x2504 JUMPI PUSH2 0x2504 PUSH2 0x3458 JUMP JUMPDEST EQ ISZERO PUSH2 0x250D JUMPI POP JUMP JUMPDEST PUSH1 0x1 DUP2 PUSH1 0x4 DUP2 GT ISZERO PUSH2 0x2521 JUMPI PUSH2 0x2521 PUSH2 0x3458 JUMP JUMPDEST EQ ISZERO PUSH2 0x256F JUMPI PUSH1 0x40 MLOAD PUSH3 0x461BCD PUSH1 0xE5 SHL DUP2 MSTORE PUSH1 0x20 PUSH1 0x4 DUP3 ADD MSTORE PUSH1 0x18 PUSH1 0x24 DUP3 ADD MSTORE PUSH32 0x45434453413A20696E76616C6964207369676E61747572650000000000000000 PUSH1 0x44 DUP3 ADD MSTORE PUSH1 0x64 ADD PUSH2 0x5F8 JUMP JUMPDEST PUSH1 0x2 DUP2 PUSH1 0x4 DUP2 GT ISZERO PUSH2 0x2583 JUMPI PUSH2 0x2583 PUSH2 0x3458 JUMP JUMPDEST EQ ISZERO PUSH2 0x25D1 JUMPI PUSH1 0x40 MLOAD PUSH3 0x461BCD PUSH1 0xE5 SHL DUP2 MSTORE PUSH1 0x20 PUSH1 0x4 DUP3 ADD MSTORE PUSH1 0x1F PUSH1 0x24 DUP3 ADD MSTORE PUSH32 0x45434453413A20696E76616C6964207369676E6174757265206C656E67746800 PUSH1 0x44 DUP3 ADD MSTORE PUSH1 0x64 ADD PUSH2 0x5F8 JUMP JUMPDEST PUSH1 0x3 DUP2 PUSH1 0x4 DUP2 GT ISZERO PUSH2 0x25E5 JUMPI PUSH2 0x25E5 PUSH2 0x3458 JUMP JUMPDEST EQ ISZERO PUSH2 0x263E JUMPI PUSH1 0x40 MLOAD PUSH3 0x461BCD PUSH1 0xE5 SHL DUP2 MSTORE PUSH1 0x20 PUSH1 0x4 DUP3 ADD MSTORE PUSH1 0x22 PUSH1 0x24 DUP3 ADD MSTORE PUSH32 0x45434453413A20696E76616C6964207369676E6174757265202773272076616C PUSH1 0x44 DUP3 ADD MSTORE PUSH2 0x7565 PUSH1 0xF0 SHL PUSH1 0x64 DUP3 ADD MSTORE PUSH1 0x84 ADD PUSH2 0x5F8 JUMP JUMPDEST PUSH1 0x4 DUP2 PUSH1 0x4 DUP2 GT ISZERO PUSH2 0x2652 JUMPI PUSH2 0x2652 PUSH2 0x3458 JUMP JUMPDEST EQ ISZERO PUSH2 0xA8D JUMPI PUSH1 0x40 MLOAD PUSH3 0x461BCD PUSH1 0xE5 SHL DUP2 MSTORE PUSH1 0x20 PUSH1 0x4 DUP3 ADD MSTORE PUSH1 0x22 PUSH1 0x24 DUP3 ADD MSTORE PUSH32 0x45434453413A20696E76616C6964207369676E6174757265202776272076616C PUSH1 0x44 DUP3 ADD MSTORE PUSH2 0x7565 PUSH1 0xF0 SHL PUSH1 0x64 DUP3 ADD MSTORE PUSH1 0x84 ADD PUSH2 0x5F8 JUMP JUMPDEST PUSH1 0x1 PUSH1 0x1 PUSH1 0xA0 SHL SUB DUP3 AND PUSH2 0x2701 JUMPI PUSH1 0x40 MLOAD PUSH3 0x461BCD PUSH1 0xE5 SHL DUP2 MSTORE PUSH1 0x20 PUSH1 0x4 DUP3 ADD MSTORE PUSH1 0x1F PUSH1 0x24 DUP3 ADD MSTORE PUSH32 0x45524332303A206D696E7420746F20746865207A65726F206164647265737300 PUSH1 0x44 DUP3 ADD MSTORE PUSH1 0x64 ADD PUSH2 0x5F8 JUMP JUMPDEST DUP1 PUSH1 0x2 PUSH1 0x0 DUP3 DUP3 SLOAD PUSH2 0x2713 SWAP2 SWAP1 PUSH2 0x33CF JUMP JUMPDEST SWAP1 SWAP2 SSTORE POP POP PUSH1 0x1 PUSH1 0x1 PUSH1 0xA0 SHL SUB DUP3 AND PUSH1 0x0 SWAP1 DUP2 MSTORE PUSH1 0x20 DUP2 SWAP1 MSTORE PUSH1 0x40 DUP2 KECCAK256 DUP1 SLOAD DUP4 SWAP3 SWAP1 PUSH2 0x2740 SWAP1 DUP5 SWAP1 PUSH2 0x33CF JUMP JUMPDEST SWAP1 SWAP2 SSTORE POP POP PUSH1 0x40 MLOAD DUP2 DUP2 MSTORE PUSH1 0x1 PUSH1 0x1 PUSH1 0xA0 SHL SUB DUP4 AND SWAP1 PUSH1 0x0 SWAP1 PUSH32 0xDDF252AD1BE2C89B69C2B068FC378DAA952BA7F163C4A11628F55A4DF523B3EF SWAP1 PUSH1 0x20 ADD PUSH1 0x40 MLOAD DUP1 SWAP2 SUB SWAP1 LOG3 PUSH2 0xAD8 PUSH1 0x0 DUP4 DUP4 PUSH2 0x279E JUMP JUMPDEST PUSH1 0x0 PUSH2 0x8F8 DUP3 DUP5 PUSH2 0x33CF JUMP JUMPDEST PUSH1 0x1 PUSH1 0x1 PUSH1 0xA0 SHL SUB DUP4 DUP2 AND PUSH1 0x0 SWAP1 DUP2 MSTORE PUSH1 0x7 PUSH1 0x20 MSTORE PUSH1 0x40 DUP1 DUP3 KECCAK256 SLOAD DUP6 DUP5 AND DUP4 MSTORE SWAP2 KECCAK256 SLOAD PUSH2 0xAC8 SWAP3 SWAP2 DUP3 AND SWAP2 AND DUP4 PUSH2 0x22D5 JUMP JUMPDEST PUSH1 0x0 PUSH1 0x1 PUSH1 0x1 PUSH1 0xE0 SHL SUB DUP3 GT ISZERO PUSH2 0x1AF5 JUMPI PUSH1 0x40 MLOAD PUSH3 0x461BCD PUSH1 0xE5 SHL DUP2 MSTORE PUSH1 0x20 PUSH1 0x4 DUP3 ADD MSTORE PUSH1 0x27 PUSH1 0x24 DUP3 ADD MSTORE PUSH32 0x53616665436173743A2076616C756520646F65736E27742066697420696E2032 PUSH1 0x44 DUP3 ADD MSTORE PUSH7 0x32342062697473 PUSH1 0xC8 SHL PUSH1 0x64 DUP3 ADD MSTORE PUSH1 0x84 ADD PUSH2 0x5F8 JUMP JUMPDEST PUSH1 0x0 PUSH1 0x1 PUSH1 0x80 SHL DUP3 LT PUSH2 0x2859 JUMPI PUSH1 0x80 SWAP2 DUP3 SHR SWAP2 PUSH2 0x2856 SWAP1 DUP3 PUSH2 0x33CF JUMP JUMPDEST SWAP1 POP JUMPDEST PUSH9 0x10000000000000000 DUP3 LT PUSH2 0x287C JUMPI PUSH1 0x40 SWAP2 DUP3 SHR SWAP2 PUSH2 0x2879 SWAP1 DUP3 PUSH2 0x33CF JUMP JUMPDEST SWAP1 POP JUMPDEST PUSH1 0x1 PUSH1 0x20 SHL DUP3 LT PUSH2 0x289A JUMPI PUSH1 0x20 SWAP2 DUP3 SHR SWAP2 PUSH2 0x2897 SWAP1 DUP3 PUSH2 0x33CF JUMP JUMPDEST SWAP1 POP JUMPDEST PUSH3 0x10000 DUP3 LT PUSH2 0x28B7 JUMPI PUSH1 0x10 SWAP2 DUP3 SHR SWAP2 PUSH2 0x28B4 SWAP1 DUP3 PUSH2 0x33CF JUMP JUMPDEST SWAP1 POP JUMPDEST PUSH2 0x100 DUP3 LT PUSH2 0x28D3 JUMPI PUSH1 0x8 SWAP2 DUP3 SHR SWAP2 PUSH2 0x28D0 SWAP1 DUP3 PUSH2 0x33CF JUMP JUMPDEST SWAP1 POP JUMPDEST PUSH1 0x10 DUP3 LT PUSH2 0x28EE JUMPI PUSH1 0x4 SWAP2 DUP3 SHR SWAP2 PUSH2 0x28EB SWAP1 DUP3 PUSH2 0x33CF JUMP JUMPDEST SWAP1 POP JUMPDEST PUSH1 0x4 DUP3 LT PUSH2 0x2909 JUMPI PUSH1 0x2 SWAP2 DUP3 SHR SWAP2 PUSH2 0x2906 SWAP1 DUP3 PUSH2 0x33CF JUMP JUMPDEST SWAP1 POP JUMPDEST PUSH1 0x2 DUP3 LT PUSH2 0x291C JUMPI PUSH2 0x5AB PUSH1 0x1 DUP3 PUSH2 0x33CF JUMP JUMPDEST SWAP2 SWAP1 POP JUMP JUMPDEST PUSH1 0x0 DUP1 DUP1 PUSH1 0x0 NOT DUP5 DUP7 MULMOD DUP5 DUP7 MUL SWAP3 POP DUP3 DUP2 LT DUP4 DUP3 SUB SUB SWAP2 POP POP PUSH8 0xDE0B6B3A7640000 DUP2 LT PUSH2 0x2965 JUMPI PUSH1 0x40 MLOAD PUSH4 0x698D9A01 PUSH1 0xE1 SHL DUP2 MSTORE PUSH1 0x4 DUP2 ADD DUP3 SWAP1 MSTORE PUSH1 0x24 ADD PUSH2 0x5F8 JUMP JUMPDEST PUSH1 0x0 DUP1 PUSH8 0xDE0B6B3A7640000 DUP7 DUP9 MULMOD SWAP2 POP POP PUSH8 0x6F05B59D3B1FFFF DUP2 GT DUP3 PUSH2 0x299F JUMPI DUP1 PUSH8 0xDE0B6B3A7640000 DUP6 DIV ADD SWAP5 POP POP POP POP POP PUSH2 0x5AB JUMP JUMPDEST PUSH3 0x40000 DUP3 DUP6 SUB DIV SWAP4 SWAP1 SWAP2 GT SWAP1 SWAP2 SUB PUSH1 0x1 PUSH1 0xEE SHL MUL SWAP2 SWAP1 SWAP2 OR PUSH32 0xACCB18165BD6FE31AE1CF318DC5B51EEE0E1BA569B88CD74C1773B91FAC10669 MUL ADD SWAP1 POP SWAP3 SWAP2 POP POP JUMP JUMPDEST PUSH1 0x1 PUSH1 0xBF SHL PUSH8 0x8000000000000000 DUP3 AND ISZERO PUSH2 0x2A07 JUMPI PUSH9 0x16A09E667F3BCC909 MUL PUSH1 0x40 SHR JUMPDEST PUSH8 0x4000000000000000 DUP3 AND ISZERO PUSH2 0x2A26 JUMPI PUSH9 0x1306FE0A31B7152DF MUL PUSH1 0x40 SHR JUMPDEST PUSH8 0x2000000000000000 DUP3 AND ISZERO PUSH2 0x2A45 JUMPI PUSH9 0x1172B83C7D517ADCE MUL PUSH1 0x40 SHR JUMPDEST PUSH8 0x1000000000000000 DUP3 AND ISZERO PUSH2 0x2A64 JUMPI PUSH9 0x10B5586CF9890F62A MUL PUSH1 0x40 SHR JUMPDEST PUSH8 0x800000000000000 DUP3 AND ISZERO PUSH2 0x2A83 JUMPI PUSH9 0x1059B0D31585743AE MUL PUSH1 0x40 SHR JUMPDEST PUSH8 0x400000000000000 DUP3 AND ISZERO PUSH2 0x2AA2 JUMPI PUSH9 0x102C9A3E778060EE7 MUL PUSH1 0x40 SHR JUMPDEST PUSH8 0x200000000000000 DUP3 AND ISZERO PUSH2 0x2AC1 JUMPI PUSH9 0x10163DA9FB33356D8 MUL PUSH1 0x40 SHR JUMPDEST PUSH8 0x100000000000000 DUP3 AND ISZERO PUSH2 0x2AE0 JUMPI PUSH9 0x100B1AFA5ABCBED61 MUL PUSH1 0x40 SHR JUMPDEST PUSH7 0x80000000000000 DUP3 AND ISZERO PUSH2 0x2AFE JUMPI PUSH9 0x10058C86DA1C09EA2 MUL PUSH1 0x40 SHR JUMPDEST PUSH7 0x40000000000000 DUP3 AND ISZERO PUSH2 0x2B1C JUMPI PUSH9 0x1002C605E2E8CEC50 MUL PUSH1 0x40 SHR JUMPDEST PUSH7 0x20000000000000 DUP3 AND ISZERO PUSH2 0x2B3A JUMPI PUSH9 0x100162F3904051FA1 MUL PUSH1 0x40 SHR JUMPDEST PUSH7 0x10000000000000 DUP3 AND ISZERO PUSH2 0x2B58 JUMPI PUSH9 0x1000B175EFFDC76BA MUL PUSH1 0x40 SHR JUMPDEST PUSH7 0x8000000000000 DUP3 AND ISZERO PUSH2 0x2B76 JUMPI PUSH9 0x100058BA01FB9F96D MUL PUSH1 0x40 SHR JUMPDEST PUSH7 0x4000000000000 DUP3 AND ISZERO PUSH2 0x2B94 JUMPI PUSH9 0x10002C5CC37DA9492 MUL PUSH1 0x40 SHR JUMPDEST PUSH7 0x2000000000000 DUP3 AND ISZERO PUSH2 0x2BB2 JUMPI PUSH9 0x1000162E525EE0547 MUL PUSH1 0x40 SHR JUMPDEST PUSH7 0x1000000000000 DUP3 AND ISZERO PUSH2 0x2BD0 JUMPI PUSH9 0x10000B17255775C04 MUL PUSH1 0x40 SHR JUMPDEST PUSH6 0x800000000000 DUP3 AND ISZERO PUSH2 0x2BED JUMPI PUSH9 0x1000058B91B5BC9AE MUL PUSH1 0x40 SHR JUMPDEST PUSH6 0x400000000000 DUP3 AND ISZERO PUSH2 0x2C0A JUMPI PUSH9 0x100002C5C89D5EC6D MUL PUSH1 0x40 SHR JUMPDEST PUSH6 0x200000000000 DUP3 AND ISZERO PUSH2 0x2C27 JUMPI PUSH9 0x10000162E43F4F831 MUL PUSH1 0x40 SHR JUMPDEST PUSH6 0x100000000000 DUP3 AND ISZERO PUSH2 0x2C44 JUMPI PUSH9 0x100000B1721BCFC9A MUL PUSH1 0x40 SHR JUMPDEST PUSH6 0x80000000000 DUP3 AND ISZERO PUSH2 0x2C61 JUMPI PUSH9 0x10000058B90CF1E6E MUL PUSH1 0x40 SHR JUMPDEST PUSH6 0x40000000000 DUP3 AND ISZERO PUSH2 0x2C7E JUMPI PUSH9 0x1000002C5C863B73F MUL PUSH1 0x40 SHR JUMPDEST PUSH6 0x20000000000 DUP3 AND ISZERO PUSH2 0x2C9B JUMPI PUSH9 0x100000162E430E5A2 MUL PUSH1 0x40 SHR JUMPDEST PUSH6 0x10000000000 DUP3 AND ISZERO PUSH2 0x2CB8 JUMPI PUSH9 0x1000000B172183551 MUL PUSH1 0x40 SHR JUMPDEST PUSH5 0x8000000000 DUP3 AND ISZERO PUSH2 0x2CD4 JUMPI PUSH9 0x100000058B90C0B49 MUL PUSH1 0x40 SHR JUMPDEST PUSH5 0x4000000000 DUP3 AND ISZERO PUSH2 0x2CF0 JUMPI PUSH9 0x10000002C5C8601CC MUL PUSH1 0x40 SHR JUMPDEST PUSH5 0x2000000000 DUP3 AND ISZERO PUSH2 0x2D0C JUMPI PUSH9 0x1000000162E42FFF0 MUL PUSH1 0x40 SHR JUMPDEST PUSH5 0x1000000000 DUP3 AND ISZERO PUSH2 0x2D28 JUMPI PUSH9 0x10000000B17217FBB MUL PUSH1 0x40 SHR JUMPDEST PUSH5 0x800000000 DUP3 AND ISZERO PUSH2 0x2D44 JUMPI PUSH9 0x1000000058B90BFCE MUL PUSH1 0x40 SHR JUMPDEST PUSH5 0x400000000 DUP3 AND ISZERO PUSH2 0x2D60 JUMPI PUSH9 0x100000002C5C85FE3 MUL PUSH1 0x40 SHR JUMPDEST PUSH5 0x200000000 DUP3 AND ISZERO PUSH2 0x2D7C JUMPI PUSH9 0x10000000162E42FF1 MUL PUSH1 0x40 SHR JUMPDEST PUSH1 0x1 PUSH1 0x20 SHL DUP3 AND ISZERO PUSH2 0x2D97 JUMPI PUSH9 0x100000000B17217F8 MUL PUSH1 0x40 SHR JUMPDEST PUSH4 0x80000000 DUP3 AND ISZERO PUSH2 0x2DB2 JUMPI PUSH9 0x10000000058B90BFC MUL PUSH1 0x40 SHR JUMPDEST PUSH4 0x40000000 DUP3 AND ISZERO PUSH2 0x2DCD JUMPI PUSH9 0x1000000002C5C85FE MUL PUSH1 0x40 SHR JUMPDEST PUSH4 0x20000000 DUP3 AND ISZERO PUSH2 0x2DE8 JUMPI PUSH9 0x100000000162E42FF MUL PUSH1 0x40 SHR JUMPDEST PUSH4 0x10000000 DUP3 AND ISZERO PUSH2 0x2E03 JUMPI PUSH9 0x1000000000B17217F MUL PUSH1 0x40 SHR JUMPDEST PUSH4 0x8000000 DUP3 AND ISZERO PUSH2 0x2E1E JUMPI PUSH9 0x100000000058B90C0 MUL PUSH1 0x40 SHR JUMPDEST PUSH4 0x4000000 DUP3 AND ISZERO PUSH2 0x2E39 JUMPI PUSH9 0x10000000002C5C860 MUL PUSH1 0x40 SHR JUMPDEST PUSH4 0x2000000 DUP3 AND ISZERO PUSH2 0x2E54 JUMPI PUSH9 0x1000000000162E430 MUL PUSH1 0x40 SHR JUMPDEST PUSH4 0x1000000 DUP3 AND ISZERO PUSH2 0x2E6F JUMPI PUSH9 0x10000000000B17218 MUL PUSH1 0x40 SHR JUMPDEST PUSH3 0x800000 DUP3 AND ISZERO PUSH2 0x2E89 JUMPI PUSH9 0x1000000000058B90C MUL PUSH1 0x40 SHR JUMPDEST PUSH3 0x400000 DUP3 AND ISZERO PUSH2 0x2EA3 JUMPI PUSH9 0x100000000002C5C86 MUL PUSH1 0x40 SHR JUMPDEST PUSH3 0x200000 DUP3 AND ISZERO PUSH2 0x2EBD JUMPI PUSH9 0x10000000000162E43 MUL PUSH1 0x40 SHR JUMPDEST PUSH3 0x100000 DUP3 AND ISZERO PUSH2 0x2ED7 JUMPI PUSH9 0x100000000000B1721 MUL PUSH1 0x40 SHR JUMPDEST PUSH3 0x80000 DUP3 AND ISZERO PUSH2 0x2EF1 JUMPI PUSH9 0x10000000000058B91 MUL PUSH1 0x40 SHR JUMPDEST PUSH3 0x40000 DUP3 AND ISZERO PUSH2 0x2F0B JUMPI PUSH9 0x1000000000002C5C8 MUL PUSH1 0x40 SHR JUMPDEST PUSH3 0x20000 DUP3 AND ISZERO PUSH2 0x2F25 JUMPI PUSH9 0x100000000000162E4 MUL PUSH1 0x40 SHR JUMPDEST PUSH3 0x10000 DUP3 AND ISZERO PUSH2 0x2F3F JUMPI PUSH9 0x1000000000000B172 MUL PUSH1 0x40 SHR JUMPDEST PUSH2 0x8000 DUP3 AND ISZERO PUSH2 0x2F58 JUMPI PUSH9 0x100000000000058B9 MUL PUSH1 0x40 SHR JUMPDEST PUSH2 0x4000 DUP3 AND ISZERO PUSH2 0x2F71 JUMPI PUSH9 0x10000000000002C5D MUL PUSH1 0x40 SHR JUMPDEST PUSH2 0x2000 DUP3 AND ISZERO PUSH2 0x2F8A JUMPI PUSH9 0x1000000000000162E MUL PUSH1 0x40 SHR JUMPDEST PUSH2 0x1000 DUP3 AND ISZERO PUSH2 0x2FA3 JUMPI PUSH9 0x10000000000000B17 MUL PUSH1 0x40 SHR JUMPDEST PUSH2 0x800 DUP3 AND ISZERO PUSH2 0x2FBC JUMPI PUSH9 0x1000000000000058C MUL PUSH1 0x40 SHR JUMPDEST PUSH2 0x400 DUP3 AND ISZERO PUSH2 0x2FD5 JUMPI PUSH9 0x100000000000002C6 MUL PUSH1 0x40 SHR JUMPDEST PUSH2 0x200 DUP3 AND ISZERO PUSH2 0x2FEE JUMPI PUSH9 0x10000000000000163 MUL PUSH1 0x40 SHR JUMPDEST PUSH2 0x100 DUP3 AND ISZERO PUSH2 0x3007 JUMPI PUSH9 0x100000000000000B1 MUL PUSH1 0x40 SHR JUMPDEST PUSH1 0x80 DUP3 AND ISZERO PUSH2 0x301F JUMPI PUSH9 0x10000000000000059 MUL PUSH1 0x40 SHR JUMPDEST PUSH1 0x40 DUP3 AND ISZERO PUSH2 0x3037 JUMPI PUSH9 0x1000000000000002C MUL PUSH1 0x40 SHR JUMPDEST PUSH1 0x20 DUP3 AND ISZERO PUSH2 0x304F JUMPI PUSH9 0x10000000000000016 MUL PUSH1 0x40 SHR JUMPDEST PUSH1 0x10 DUP3 AND ISZERO PUSH2 0x3067 JUMPI PUSH9 0x1000000000000000B MUL PUSH1 0x40 SHR JUMPDEST PUSH1 0x8 DUP3 AND ISZERO PUSH2 0x307F JUMPI PUSH9 0x10000000000000006 MUL PUSH1 0x40 SHR JUMPDEST PUSH1 0x4 DUP3 AND ISZERO PUSH2 0x3097 JUMPI PUSH9 0x10000000000000003 MUL PUSH1 0x40 SHR JUMPDEST PUSH1 0x2 DUP3 AND ISZERO PUSH2 0x30AF JUMPI PUSH9 0x10000000000000001 MUL PUSH1 0x40 SHR JUMPDEST PUSH1 0x1 DUP3 AND ISZERO PUSH2 0x30C7 JUMPI PUSH9 0x10000000000000001 MUL PUSH1 0x40 SHR JUMPDEST PUSH8 0xDE0B6B3A7640000 MUL PUSH1 0x40 SWAP2 SWAP1 SWAP2 SHR PUSH1 0xBF SUB SHR SWAP1 JUMP JUMPDEST PUSH1 0x0 PUSH1 0x20 DUP1 DUP4 MSTORE DUP4 MLOAD DUP1 DUP3 DUP6 ADD MSTORE PUSH1 0x0 JUMPDEST DUP2 DUP2 LT ISZERO PUSH2 0x310B JUMPI DUP6 DUP2 ADD DUP4 ADD MLOAD DUP6 DUP3 ADD PUSH1 0x40 ADD MSTORE DUP3 ADD PUSH2 0x30EF JUMP JUMPDEST DUP2 DUP2 GT ISZERO PUSH2 0x311D JUMPI PUSH1 0x0 PUSH1 0x40 DUP4 DUP8 ADD ADD MSTORE JUMPDEST POP PUSH1 0x1F ADD PUSH1 0x1F NOT AND SWAP3 SWAP1 SWAP3 ADD PUSH1 0x40 ADD SWAP4 SWAP3 POP POP POP JUMP JUMPDEST DUP1 CALLDATALOAD PUSH1 0x1 PUSH1 0x1 PUSH1 0xA0 SHL SUB DUP2 AND DUP2 EQ PUSH2 0x291C JUMPI PUSH1 0x0 DUP1 REVERT JUMPDEST PUSH1 0x0 DUP1 PUSH1 0x40 DUP4 DUP6 SUB SLT ISZERO PUSH2 0x315D JUMPI PUSH1 0x0 DUP1 REVERT JUMPDEST PUSH2 0x3166 DUP4 PUSH2 0x3133 JUMP JUMPDEST SWAP5 PUSH1 0x20 SWAP4 SWAP1 SWAP4 ADD CALLDATALOAD SWAP4 POP POP POP JUMP JUMPDEST PUSH1 0x0 DUP1 PUSH1 0x0 PUSH1 0x60 DUP5 DUP7 SUB SLT ISZERO PUSH2 0x3189 JUMPI PUSH1 0x0 DUP1 REVERT JUMPDEST PUSH2 0x3192 DUP5 PUSH2 0x3133 JUMP JUMPDEST SWAP3 POP PUSH2 0x31A0 PUSH1 0x20 DUP6 ADD PUSH2 0x3133 JUMP JUMPDEST SWAP2 POP PUSH1 0x40 DUP5 ADD CALLDATALOAD SWAP1 POP SWAP3 POP SWAP3 POP SWAP3 JUMP JUMPDEST PUSH1 0x0 PUSH1 0x20 DUP3 DUP5 SUB SLT ISZERO PUSH2 0x31C2 JUMPI PUSH1 0x0 DUP1 REVERT JUMPDEST POP CALLDATALOAD SWAP2 SWAP1 POP JUMP JUMPDEST PUSH1 0x0 PUSH1 0x20 DUP3 DUP5 SUB SLT ISZERO PUSH2 0x31DB JUMPI PUSH1 0x0 DUP1 REVERT JUMPDEST PUSH2 0x8F8 DUP3 PUSH2 0x3133 JUMP JUMPDEST PUSH1 0x0 DUP1 PUSH1 0x40 DUP4 DUP6 SUB SLT ISZERO PUSH2 0x31F7 JUMPI PUSH1 0x0 DUP1 REVERT JUMPDEST POP POP DUP1 CALLDATALOAD SWAP3 PUSH1 0x20 SWAP1 SWAP2 ADD CALLDATALOAD SWAP2 POP JUMP JUMPDEST PUSH1 0x0 DUP1 PUSH1 0x0 PUSH1 0x60 DUP5 DUP7 SUB SLT ISZERO PUSH2 0x321B JUMPI PUSH1 0x0 DUP1 REVERT JUMPDEST DUP4 CALLDATALOAD SWAP3 POP PUSH1 0x20 DUP5 ADD CALLDATALOAD SWAP2 POP PUSH2 0x3232 PUSH1 0x40 DUP6 ADD PUSH2 0x3133 JUMP JUMPDEST SWAP1 POP SWAP3 POP SWAP3 POP SWAP3 JUMP JUMPDEST DUP1 CALLDATALOAD PUSH1 0xFF DUP2 AND DUP2 EQ PUSH2 0x291C JUMPI PUSH1 0x0 DUP1 REVERT JUMPDEST PUSH1 0x0 DUP1 PUSH1 0x0 DUP1 PUSH1 0x0 DUP1 PUSH1 0xC0 DUP8 DUP10 SUB SLT ISZERO PUSH2 0x3265 JUMPI PUSH1 0x0 DUP1 REVERT JUMPDEST PUSH2 0x326E DUP8 PUSH2 0x3133 JUMP JUMPDEST SWAP6 POP PUSH1 0x20 DUP8 ADD CALLDATALOAD SWAP5 POP PUSH1 0x40 DUP8 ADD CALLDATALOAD SWAP4 POP PUSH2 0x328A PUSH1 0x60 DUP9 ADD PUSH2 0x323B JUMP JUMPDEST SWAP3 POP PUSH1 0x80 DUP8 ADD CALLDATALOAD SWAP2 POP PUSH1 0xA0 DUP8 ADD CALLDATALOAD SWAP1 POP SWAP3 SWAP6 POP SWAP3 SWAP6 POP SWAP3 SWAP6 JUMP JUMPDEST PUSH1 0x0 DUP1 PUSH1 0x0 DUP1 PUSH1 0x0 DUP1 PUSH1 0x0 PUSH1 0xE0 DUP9 DUP11 SUB SLT ISZERO PUSH2 0x32BF JUMPI PUSH1 0x0 DUP1 REVERT JUMPDEST PUSH2 0x32C8 DUP9 PUSH2 0x3133 JUMP JUMPDEST SWAP7 POP PUSH2 0x32D6 PUSH1 0x20 DUP10 ADD PUSH2 0x3133 JUMP JUMPDEST SWAP6 POP PUSH1 0x40 DUP9 ADD CALLDATALOAD SWAP5 POP PUSH1 0x60 DUP9 ADD CALLDATALOAD SWAP4 POP PUSH2 0x32F2 PUSH1 0x80 DUP10 ADD PUSH2 0x323B JUMP JUMPDEST SWAP3 POP PUSH1 0xA0 DUP9 ADD CALLDATALOAD SWAP2 POP PUSH1 0xC0 DUP9 ADD CALLDATALOAD SWAP1 POP SWAP3 SWAP6 SWAP9 SWAP2 SWAP5 SWAP8 POP SWAP3 SWAP6 POP JUMP JUMPDEST PUSH1 0x0 DUP1 PUSH1 0x40 DUP4 DUP6 SUB SLT ISZERO PUSH2 0x3321 JUMPI PUSH1 0x0 DUP1 REVERT JUMPDEST PUSH2 0x332A DUP4 PUSH2 0x3133 JUMP JUMPDEST SWAP2 POP PUSH2 0x3338 PUSH1 0x20 DUP5 ADD PUSH2 0x3133 JUMP JUMPDEST SWAP1 POP SWAP3 POP SWAP3 SWAP1 POP JUMP JUMPDEST PUSH1 0x0 DUP1 PUSH1 0x40 DUP4 DUP6 SUB SLT ISZERO PUSH2 0x3354 JUMPI PUSH1 0x0 DUP1 REVERT JUMPDEST PUSH2 0x335D DUP4 PUSH2 0x3133 JUMP JUMPDEST SWAP2 POP PUSH1 0x20 DUP4 ADD CALLDATALOAD PUSH4 0xFFFFFFFF DUP2 AND DUP2 EQ PUSH2 0x3376 JUMPI PUSH1 0x0 DUP1 REVERT JUMPDEST DUP1 SWAP2 POP POP SWAP3 POP SWAP3 SWAP1 POP JUMP JUMPDEST PUSH4 0x4E487B71 PUSH1 0xE0 SHL PUSH1 0x0 MSTORE PUSH1 0x32 PUSH1 0x4 MSTORE PUSH1 0x24 PUSH1 0x0 REVERT JUMPDEST PUSH1 0x0 PUSH1 0x20 DUP3 DUP5 SUB SLT ISZERO PUSH2 0x33A9 JUMPI PUSH1 0x0 DUP1 REVERT JUMPDEST DUP2 MLOAD DUP1 ISZERO ISZERO DUP2 EQ PUSH2 0x8F8 JUMPI PUSH1 0x0 DUP1 REVERT JUMPDEST PUSH4 0x4E487B71 PUSH1 0xE0 SHL PUSH1 0x0 MSTORE PUSH1 0x11 PUSH1 0x4 MSTORE PUSH1 0x24 PUSH1 0x0 REVERT JUMPDEST PUSH1 0x0 DUP3 NOT DUP3 GT ISZERO PUSH2 0x33E2 JUMPI PUSH2 0x33E2 PUSH2 0x33B9 JUMP JUMPDEST POP ADD SWAP1 JUMP JUMPDEST PUSH1 0x0 DUP3 DUP3 LT ISZERO PUSH2 0x33F9 JUMPI PUSH2 0x33F9 PUSH2 0x33B9 JUMP JUMPDEST POP SUB SWAP1 JUMP JUMPDEST PUSH1 0x0 DUP2 PUSH1 0x0 NOT DIV DUP4 GT DUP3 ISZERO ISZERO AND ISZERO PUSH2 0x3418 JUMPI PUSH2 0x3418 PUSH2 0x33B9 JUMP JUMPDEST POP MUL SWAP1 JUMP JUMPDEST PUSH1 0x0 DUP3 PUSH2 0x343A JUMPI PUSH4 0x4E487B71 PUSH1 0xE0 SHL PUSH1 0x0 MSTORE PUSH1 0x12 PUSH1 0x4 MSTORE PUSH1 0x24 PUSH1 0x0 REVERT JUMPDEST POP DIV SWAP1 JUMP JUMPDEST PUSH1 0x0 PUSH1 0x20 DUP3 DUP5 SUB SLT ISZERO PUSH2 0x3451 JUMPI PUSH1 0x0 DUP1 REVERT JUMPDEST POP MLOAD SWAP2 SWAP1 POP JUMP JUMPDEST PUSH4 0x4E487B71 PUSH1 0xE0 SHL PUSH1 0x0 MSTORE PUSH1 0x21 PUSH1 0x4 MSTORE PUSH1 0x24 PUSH1 0x0 REVERT INVALID LOG2 PUSH5 0x6970667358 0x22 SLT KECCAK256 NOT MSTORE 0x2E 0xC2 0xCF 0x5F 0x2E CALLER CODECOPY PUSH29 0xE475FB21C80403385BA3BE18A65BD943BAD0A34D485864736F6C634300 ADDMOD EXP STOP CALLER ","sha1":"026bbbc15635bfffd750778cab235c61068976e9","source":"// SPDX-License-Identifier: MIT\npragma solidity 0.8.10;\nimport {ERC20Votes} from \"OpenZeppelin/openzeppelin-contracts@4.6.0/contracts/token/ERC20/extensions/ERC20Votes.sol\";\nimport {ERC20Permit} from \"OpenZeppelin/openzeppelin-contracts@4.6.0/contracts/token/ERC20/extensions/draft-ERC20Permit.sol\";\nimport {ERC20} from \"OpenZeppelin/openzeppelin-contracts@4.6.0/contracts/token/ERC20/ERC20.sol\";\nimport {PRBMathUD60x18} from \"paulrberg/prb-math@2.5.0/contracts/PRBMathUD60x18.sol\";\nimport {RewardsSource} from \"./RewardsSource.sol\";\n\n/// @title OGV Staking\n/// @author Daniel Von Fange\n/// @notice Provides staking, vote power history, vote delegation, and rewards\n/// distribution.\n/// \n/// The balance received for staking (and thus the voting power and rewards\n/// distribution) goes up exponentially by the end of the staked period. \ncontract OgvStaking is ERC20Votes {\n    // 1. Core Storage\n    uint256 public immutable epoch;\n\n    // 2. Staking and Lockup Storage\n    uint256 constant YEAR_BASE = 18e17;\n    struct Lockup {\n        uint128 amount;\n        uint128 end;\n        uint256 points;\n    }\n    mapping(address => Lockup[]) public lockups;\n\n    // 3. Reward Storage\n    ERC20 public immutable ogv; // Must not allow reentrancy\n    RewardsSource public rewardsSource;\n    mapping(address => uint256) public rewardDebtPerShare;\n    uint256 public accRewardPerShare; // As of the start of the block\n\n    // Events\n    event Stake(\n        address indexed user,\n        uint256 lockupId,\n        uint256 amount,\n        uint256 end,\n        uint256 points\n    );\n    event Unstake(\n        address indexed user,\n        uint256 lockupId,\n        uint256 amount,\n        uint256 end,\n        uint256 points\n    );\n    event Reward(address indexed user, uint256 amount);\n\n    // 1. Core Functions\n\n    constructor(\n        address ogv_,\n        uint256 epoch_,\n        address rewardsSource_\n    ) ERC20(\"\", \"\") ERC20Permit(\"veOGV\") {\n        ogv = ERC20(ogv_);\n        epoch = epoch_;\n        rewardsSource = RewardsSource(rewardsSource_);\n    }\n\n    function name() public pure override returns (string memory) {\n        return \"veOGV\";\n    }\n\n    function symbol() public pure override returns (string memory) {\n        return \"veOGV\";\n    }\n\n    function transfer(address, uint256) public override returns (bool) {\n        revert(\"Staking: Transfers disabled\");\n    }\n\n    function transferFrom(\n        address,\n        address,\n        uint256\n    ) public override returns (bool) {\n        revert(\"Staking: Transfers disabled\");\n    }\n\n    // 2. Staking and Lockup Functions\n\n    /// @notice Stake OGV to an address that may not be the same as the\n    /// sender of the funds. This can be used to give staked funds to someone\n    /// else.\n    ///\n    /// If staking before the start of staking (epoch), then the lockup start\n    /// and end dates are shifted forward so that the lockup starts at the\n    /// epoch.\n    ///\n    /// Any rewards previously earned will be paid out.\n    ///\n    /// @param amount OGV to lockup in the stake\n    /// @param duration in seconds for the stake\n    /// @param to address to receive ownership of the stake\n    function stake(\n        uint256 amount,\n        uint256 duration,\n        address to\n    ) external {\n        _stake(amount, duration, to);\n    }\n\n    /// @notice Stake OGV\n    ///\n    /// If staking before the start of staking (epoch), then the lockup start\n    /// and end dates are shifted forward so that the lockup starts at the\n    /// epoch.\n    ///\n    /// Any rewards previously earned will be paid out.\n    /// \n    /// @notice Stake OGV for myself.\n    /// @param amount OGV to lockup in the stake\n    /// @param duration in seconds for the stake\n    function stake(\n        uint256 amount,\n        uint256 duration\n    ) external {\n        _stake(amount, duration, msg.sender);\n    }\n\n    /// @dev Internal method used for public staking\n    /// @param amount OGV to lockup in the stake\n    /// @param duration in seconds for the stake\n    /// @param to address to receive ownership of the stake\n    function _stake(\n        uint256 amount,\n        uint256 duration,\n        address to\n    ) internal {\n        require(to != address(0), \"Staking: To the zero address\");\n        require(amount <= type(uint128).max, \"Staking: Too much\");\n        require(amount > 0, \"Staking: Not enough\");\n        // duration checked inside previewPoints\n        (uint256 points, uint256 end) = previewPoints(amount, duration);\n        require(\n            points + totalSupply() <= type(uint192).max,\n            \"Staking: Max points exceeded\"\n        );\n        _collectRewards(to);\n        lockups[to].push(\n            Lockup({\n                amount: uint128(amount), // max checked in require above\n                end: uint128(end),\n                points: points\n            })\n        );\n        _mint(to, points);\n        ogv.transferFrom(msg.sender, address(this), amount); // Important that it's sender\n        emit Stake(to, lockups[to].length - 1, amount, end, points);\n    }\n\n    /// @notice Collect staked OGV for a lockup and any earned rewards.\n    /// @param lockupId the id of the lockup to unstake\n    function unstake(uint256 lockupId) external {\n        Lockup memory lockup = lockups[msg.sender][lockupId];\n        uint256 amount = lockup.amount;\n        uint256 end = lockup.end;\n        uint256 points = lockup.points;\n        require(block.timestamp >= end, \"Staking: End of lockup not reached\");\n        require(end != 0, \"Staking: Already unstaked this lockup\");\n        _collectRewards(msg.sender);\n        delete lockups[msg.sender][lockupId]; // Keeps empty in array, so indexes are stable\n        _burn(msg.sender, points);\n        ogv.transfer(msg.sender, amount);\n        emit Unstake(msg.sender, lockupId, amount, end, points);\n    }\n\n    /// @notice Extend a stake lockup for additional points.\n    ///\n    /// The stake end time is computed from the current time + duration, just\n    /// like it is for new stakes. So a new stake for seven days duration and\n    /// an old stake extended with a seven days duration would have the same \n    /// end.\n    /// \n    /// If an extend is made before the start of staking, the start time for\n    /// the new stake is shifted forwards to the start of staking, which also\n    /// shifts forward the end date.\n    ///\n    /// @param lockupId the id of the old lockup to extend\n    /// @param duration number of seconds from now to stake for\n    function extend(uint256 lockupId, uint256 duration) external {\n        // duration checked inside previewPoints\n        _collectRewards(msg.sender);\n        Lockup memory lockup = lockups[msg.sender][lockupId];\n        uint256 oldAmount = lockup.amount;\n        uint256 oldEnd = lockup.end;\n        uint256 oldPoints = lockup.points;\n        (uint256 newPoints, uint256 newEnd) = previewPoints(\n            oldAmount,\n            duration\n        );\n        require(newEnd > oldEnd, \"Staking: New lockup must be longer\");\n        lockup.end = uint128(newEnd);\n        lockup.points = newPoints;\n        lockups[msg.sender][lockupId] = lockup;\n        _mint(msg.sender, newPoints - oldPoints);\n        emit Unstake(msg.sender, lockupId, oldAmount, oldEnd, oldPoints);\n        emit Stake(msg.sender, lockupId, oldAmount, newEnd, newPoints);\n    }\n\n    /// @notice Preview the number of points that would be returned for the\n    /// given amount and duration.\n    ///\n    /// @param amount OGV to be staked\n    /// @param duration number of seconds to stake for\n    /// @return points staking points that would be returned\n    /// @return end staking period end date\n    function previewPoints(uint256 amount, uint256 duration)\n        public\n        view\n        returns (uint256, uint256)\n    {\n        require(duration >= 7 days, \"Staking: Too short\");\n        require(duration <= 1461 days, \"Staking: Too long\");\n        uint256 start = block.timestamp > epoch ? block.timestamp : epoch;\n        uint256 end = start + duration;\n        uint256 endYearpoc = ((end - epoch) * 1e18) / 365 days;\n        uint256 multiplier = PRBMathUD60x18.pow(YEAR_BASE, endYearpoc);\n        return ((amount * multiplier) / 1e18, end);\n    }\n\n    // 3. Reward functions\n\n    /// @notice Collect all earned OGV rewards.\n    function collectRewards() external {\n        _collectRewards(msg.sender);\n    }\n\n    /// @notice Shows the amount of OGV a user would receive if they collected\n    /// rewards at this time.\n    ///\n    /// @param user to preview rewards for\n    /// @return OGV rewards amount \n    function previewRewards(address user) external view returns (uint256) {\n        uint256 supply = totalSupply();\n        if (supply == 0) {\n            return 0; // No one has any points to even get rewards\n        }\n        uint256 _accRewardPerShare = accRewardPerShare;\n        _accRewardPerShare += (rewardsSource.previewRewards() * 1e12) / supply;\n        uint256 netRewardsPerShare = _accRewardPerShare -\n            rewardDebtPerShare[user];\n        return (balanceOf(user) * netRewardsPerShare) / 1e12;\n    }\n\n    /// @dev Internal function to handle rewards accounting.\n    /// \n    /// 1. Collect new rewards for everyone\n    /// 2. Calculate this user's rewards and accounting\n    /// 3. Distribute this user's rewards\n    ///\n    /// This function *must* be called before any user balance changes.\n    ///\n    /// This will always update the user's rewardDebtPerShare to match\n    /// accRewardPerShare, which is essential to the accounting.\n    /// \n    /// @param user to collect rewards for\n    function _collectRewards(address user) internal {\n        uint256 supply = totalSupply();\n        if (supply > 0) {\n            uint256 preBalance = ogv.balanceOf(address(this));\n            try rewardsSource.collectRewards() {} catch {\n                // Governance staking should continue, even if rewards fail\n            }\n            uint256 collected = ogv.balanceOf(address(this)) - preBalance;\n            accRewardPerShare += (collected * 1e12) / supply;\n        }\n        uint256 netRewardsPerShare = accRewardPerShare -\n            rewardDebtPerShare[user];\n        uint256 netRewards = (balanceOf(user) * netRewardsPerShare) / 1e12;\n        rewardDebtPerShare[user] = accRewardPerShare;\n        if (netRewards == 0) {\n            return;\n        }\n        ogv.transfer(user, netRewards);\n        emit Reward(user, netRewards);\n    }\n}\n","sourcePath":"contracts/OgvStaking.sol","type":"contract","deployment":{"address":"0x50030D3bD1Ab51ec4a617387DC888671F7CAb25a","chainid":"4","blockHeight":10962268}}