{
  "abi": [
    {
      "inputs": [],
      "stateMutability": "nonpayable",
      "type": "constructor"
    },
    {
      "anonymous": false,
      "inputs": [
        {
          "indexed": false,
          "internalType": "address",
          "name": "previousAdmin",
          "type": "address"
        },
        {
          "indexed": false,
          "internalType": "address",
          "name": "newAdmin",
          "type": "address"
        }
      ],
      "name": "AdminChanged",
      "type": "event"
    },
    {
      "anonymous": false,
      "inputs": [
        {
          "indexed": true,
          "internalType": "address",
          "name": "beacon",
          "type": "address"
        }
      ],
      "name": "BeaconUpgraded",
      "type": "event"
    },
    {
      "anonymous": false,
      "inputs": [
        {
          "indexed": true,
          "internalType": "address",
          "name": "provider",
          "type": "address"
        },
        {
          "indexed": false,
          "internalType": "int128",
          "name": "amount",
          "type": "int128"
        },
        {
          "indexed": false,
          "internalType": "uint256",
          "name": "end",
          "type": "uint256"
        },
        {
          "indexed": false,
          "internalType": "uint256",
          "name": "ts",
          "type": "uint256"
        }
      ],
      "name": "LockupCreated",
      "type": "event"
    },
    {
      "anonymous": false,
      "inputs": [
        {
          "indexed": true,
          "internalType": "address",
          "name": "provider",
          "type": "address"
        },
        {
          "indexed": false,
          "internalType": "int128",
          "name": "oldAmount",
          "type": "int128"
        },
        {
          "indexed": false,
          "internalType": "uint256",
          "name": "oldEnd",
          "type": "uint256"
        },
        {
          "indexed": false,
          "internalType": "int128",
          "name": "amount",
          "type": "int128"
        },
        {
          "indexed": false,
          "internalType": "uint256",
          "name": "end",
          "type": "uint256"
        },
        {
          "indexed": false,
          "internalType": "uint256",
          "name": "ts",
          "type": "uint256"
        }
      ],
      "name": "LockupUpdated",
      "type": "event"
    },
    {
      "anonymous": false,
      "inputs": [
        {
          "indexed": true,
          "internalType": "address",
          "name": "previousOwner",
          "type": "address"
        },
        {
          "indexed": true,
          "internalType": "address",
          "name": "newOwner",
          "type": "address"
        }
      ],
      "name": "OwnershipTransferred",
      "type": "event"
    },
    {
      "anonymous": false,
      "inputs": [
        {
          "indexed": true,
          "internalType": "address",
          "name": "implementation",
          "type": "address"
        }
      ],
      "name": "Upgraded",
      "type": "event"
    },
    {
      "anonymous": false,
      "inputs": [
        {
          "indexed": true,
          "internalType": "address",
          "name": "provider",
          "type": "address"
        },
        {
          "indexed": false,
          "internalType": "uint256",
          "name": "value",
          "type": "uint256"
        },
        {
          "indexed": false,
          "internalType": "uint256",
          "name": "ts",
          "type": "uint256"
        }
      ],
      "name": "Withdraw",
      "type": "event"
    },
    {
      "inputs": [],
      "name": "MAX_LOCK_TIME",
      "outputs": [
        {
          "internalType": "uint256",
          "name": "",
          "type": "uint256"
        }
      ],
      "stateMutability": "view",
      "type": "function"
    },
    {
      "inputs": [],
      "name": "MAX_VOTE_MULTIPLE",
      "outputs": [
        {
          "internalType": "uint256",
          "name": "",
          "type": "uint256"
        }
      ],
      "stateMutability": "view",
      "type": "function"
    },
    {
      "inputs": [
        {
          "internalType": "address",
          "name": "_account",
          "type": "address"
        }
      ],
      "name": "balanceOf",
      "outputs": [
        {
          "internalType": "uint256",
          "name": "",
          "type": "uint256"
        }
      ],
      "stateMutability": "view",
      "type": "function"
    },
    {
      "inputs": [
        {
          "internalType": "address",
          "name": "_account",
          "type": "address"
        },
        {
          "internalType": "uint256",
          "name": "_blockNumber",
          "type": "uint256"
        }
      ],
      "name": "balanceOfAt",
      "outputs": [
        {
          "internalType": "uint256",
          "name": "",
          "type": "uint256"
        }
      ],
      "stateMutability": "view",
      "type": "function"
    },
    {
      "inputs": [],
      "name": "checkpoint",
      "outputs": [],
      "stateMutability": "nonpayable",
      "type": "function"
    },
    {
      "inputs": [
        {
          "internalType": "address",
          "name": "_account",
          "type": "address"
        },
        {
          "internalType": "uint32",
          "name": "_pos",
          "type": "uint32"
        }
      ],
      "name": "checkpoints",
      "outputs": [
        {
          "components": [
            {
              "internalType": "int128",
              "name": "bias",
              "type": "int128"
            },
            {
              "internalType": "int128",
              "name": "slope",
              "type": "int128"
            },
            {
              "internalType": "uint256",
              "name": "ts",
              "type": "uint256"
            },
            {
              "internalType": "uint256",
              "name": "blk",
              "type": "uint256"
            }
          ],
          "internalType": "struct VoteLockerCurve.Checkpoint",
          "name": "",
          "type": "tuple"
        }
      ],
      "stateMutability": "view",
      "type": "function"
    },
    {
      "inputs": [],
      "name": "decimals",
      "outputs": [
        {
          "internalType": "uint8",
          "name": "",
          "type": "uint8"
        }
      ],
      "stateMutability": "view",
      "type": "function"
    },
    {
      "inputs": [
        {
          "internalType": "address",
          "name": "delegatee",
          "type": "address"
        }
      ],
      "name": "delegate",
      "outputs": [],
      "stateMutability": "nonpayable",
      "type": "function"
    },
    {
      "inputs": [
        {
          "internalType": "address",
          "name": "delegatee",
          "type": "address"
        },
        {
          "internalType": "uint256",
          "name": "nonce",
          "type": "uint256"
        },
        {
          "internalType": "uint256",
          "name": "end",
          "type": "uint256"
        },
        {
          "internalType": "uint8",
          "name": "v",
          "type": "uint8"
        },
        {
          "internalType": "bytes32",
          "name": "r",
          "type": "bytes32"
        },
        {
          "internalType": "bytes32",
          "name": "s",
          "type": "bytes32"
        }
      ],
      "name": "delegateBySig",
      "outputs": [],
      "stateMutability": "nonpayable",
      "type": "function"
    },
    {
      "inputs": [
        {
          "internalType": "address",
          "name": "_account",
          "type": "address"
        }
      ],
      "name": "delegates",
      "outputs": [
        {
          "internalType": "address",
          "name": "",
          "type": "address"
        }
      ],
      "stateMutability": "view",
      "type": "function"
    },
    {
      "inputs": [
        {
          "internalType": "address",
          "name": "_account",
          "type": "address"
        }
      ],
      "name": "getLastCheckpoint",
      "outputs": [
        {
          "components": [
            {
              "internalType": "int128",
              "name": "bias",
              "type": "int128"
            },
            {
              "internalType": "int128",
              "name": "slope",
              "type": "int128"
            },
            {
              "internalType": "uint256",
              "name": "ts",
              "type": "uint256"
            },
            {
              "internalType": "uint256",
              "name": "blk",
              "type": "uint256"
            }
          ],
          "internalType": "struct VoteLockerCurve.Checkpoint",
          "name": "",
          "type": "tuple"
        }
      ],
      "stateMutability": "view",
      "type": "function"
    },
    {
      "inputs": [],
      "name": "getLastGlobalCheckpoint",
      "outputs": [
        {
          "components": [
            {
              "internalType": "int128",
              "name": "bias",
              "type": "int128"
            },
            {
              "internalType": "int128",
              "name": "slope",
              "type": "int128"
            },
            {
              "internalType": "uint256",
              "name": "ts",
              "type": "uint256"
            },
            {
              "internalType": "uint256",
              "name": "blk",
              "type": "uint256"
            }
          ],
          "internalType": "struct VoteLockerCurve.Checkpoint",
          "name": "",
          "type": "tuple"
        }
      ],
      "stateMutability": "view",
      "type": "function"
    },
    {
      "inputs": [
        {
          "internalType": "address",
          "name": "_account",
          "type": "address"
        }
      ],
      "name": "getLockup",
      "outputs": [
        {
          "components": [
            {
              "internalType": "int128",
              "name": "amount",
              "type": "int128"
            },
            {
              "internalType": "uint256",
              "name": "end",
              "type": "uint256"
            }
          ],
          "internalType": "struct VoteLockerCurve.Lockup",
          "name": "",
          "type": "tuple"
        }
      ],
      "stateMutability": "view",
      "type": "function"
    },
    {
      "inputs": [
        {
          "internalType": "uint256",
          "name": "_blockNumber",
          "type": "uint256"
        }
      ],
      "name": "getPastTotalSupply",
      "outputs": [
        {
          "internalType": "uint256",
          "name": "",
          "type": "uint256"
        }
      ],
      "stateMutability": "view",
      "type": "function"
    },
    {
      "inputs": [
        {
          "internalType": "address",
          "name": "_account",
          "type": "address"
        },
        {
          "internalType": "uint256",
          "name": "_blockNumber",
          "type": "uint256"
        }
      ],
      "name": "getPastVotes",
      "outputs": [
        {
          "internalType": "uint256",
          "name": "",
          "type": "uint256"
        }
      ],
      "stateMutability": "view",
      "type": "function"
    },
    {
      "inputs": [
        {
          "internalType": "address",
          "name": "_account",
          "type": "address"
        }
      ],
      "name": "getVotes",
      "outputs": [
        {
          "internalType": "uint256",
          "name": "",
          "type": "uint256"
        }
      ],
      "stateMutability": "view",
      "type": "function"
    },
    {
      "inputs": [
        {
          "internalType": "uint32",
          "name": "pos",
          "type": "uint32"
        }
      ],
      "name": "globalCheckpoints",
      "outputs": [
        {
          "components": [
            {
              "internalType": "int128",
              "name": "bias",
              "type": "int128"
            },
            {
              "internalType": "int128",
              "name": "slope",
              "type": "int128"
            },
            {
              "internalType": "uint256",
              "name": "ts",
              "type": "uint256"
            },
            {
              "internalType": "uint256",
              "name": "blk",
              "type": "uint256"
            }
          ],
          "internalType": "struct VoteLockerCurve.Checkpoint",
          "name": "",
          "type": "tuple"
        }
      ],
      "stateMutability": "view",
      "type": "function"
    },
    {
      "inputs": [],
      "name": "globalEpoch",
      "outputs": [
        {
          "internalType": "uint256",
          "name": "",
          "type": "uint256"
        }
      ],
      "stateMutability": "view",
      "type": "function"
    },
    {
      "inputs": [
        {
          "internalType": "address",
          "name": "_stakingToken",
          "type": "address"
        }
      ],
      "name": "initialize",
      "outputs": [],
      "stateMutability": "nonpayable",
      "type": "function"
    },
    {
      "inputs": [
        {
          "internalType": "uint256",
          "name": "_amount",
          "type": "uint256"
        },
        {
          "internalType": "uint256",
          "name": "_end",
          "type": "uint256"
        }
      ],
      "name": "lockup",
      "outputs": [],
      "stateMutability": "nonpayable",
      "type": "function"
    },
    {
      "inputs": [
        {
          "internalType": "address",
          "name": "",
          "type": "address"
        }
      ],
      "name": "lockups",
      "outputs": [
        {
          "internalType": "int128",
          "name": "amount",
          "type": "int128"
        },
        {
          "internalType": "uint256",
          "name": "end",
          "type": "uint256"
        }
      ],
      "stateMutability": "view",
      "type": "function"
    },
    {
      "inputs": [],
      "name": "name",
      "outputs": [
        {
          "internalType": "string",
          "name": "",
          "type": "string"
        }
      ],
      "stateMutability": "view",
      "type": "function"
    },
    {
      "inputs": [
        {
          "internalType": "address",
          "name": "_account",
          "type": "address"
        }
      ],
      "name": "numCheckpoints",
      "outputs": [
        {
          "internalType": "uint32",
          "name": "",
          "type": "uint32"
        }
      ],
      "stateMutability": "view",
      "type": "function"
    },
    {
      "inputs": [],
      "name": "numGlobalCheckpoints",
      "outputs": [
        {
          "internalType": "uint256",
          "name": "",
          "type": "uint256"
        }
      ],
      "stateMutability": "view",
      "type": "function"
    },
    {
      "inputs": [],
      "name": "owner",
      "outputs": [
        {
          "internalType": "address",
          "name": "",
          "type": "address"
        }
      ],
      "stateMutability": "view",
      "type": "function"
    },
    {
      "inputs": [],
      "name": "proxiableUUID",
      "outputs": [
        {
          "internalType": "bytes32",
          "name": "",
          "type": "bytes32"
        }
      ],
      "stateMutability": "view",
      "type": "function"
    },
    {
      "inputs": [],
      "name": "renounceOwnership",
      "outputs": [],
      "stateMutability": "nonpayable",
      "type": "function"
    },
    {
      "inputs": [
        {
          "internalType": "uint256",
          "name": "",
          "type": "uint256"
        }
      ],
      "name": "slopeChanges",
      "outputs": [
        {
          "internalType": "int128",
          "name": "",
          "type": "int128"
        }
      ],
      "stateMutability": "view",
      "type": "function"
    },
    {
      "inputs": [],
      "name": "symbol",
      "outputs": [
        {
          "internalType": "string",
          "name": "",
          "type": "string"
        }
      ],
      "stateMutability": "view",
      "type": "function"
    },
    {
      "inputs": [],
      "name": "totalSupply",
      "outputs": [
        {
          "internalType": "uint256",
          "name": "",
          "type": "uint256"
        }
      ],
      "stateMutability": "view",
      "type": "function"
    },
    {
      "inputs": [
        {
          "internalType": "uint256",
          "name": "_blockNumber",
          "type": "uint256"
        }
      ],
      "name": "totalSupplyAt",
      "outputs": [
        {
          "internalType": "uint256",
          "name": "",
          "type": "uint256"
        }
      ],
      "stateMutability": "view",
      "type": "function"
    },
    {
      "inputs": [
        {
          "internalType": "address",
          "name": "newOwner",
          "type": "address"
        }
      ],
      "name": "transferOwnership",
      "outputs": [],
      "stateMutability": "nonpayable",
      "type": "function"
    },
    {
      "inputs": [
        {
          "internalType": "address",
          "name": "newImplementation",
          "type": "address"
        }
      ],
      "name": "upgradeTo",
      "outputs": [],
      "stateMutability": "nonpayable",
      "type": "function"
    },
    {
      "inputs": [
        {
          "internalType": "address",
          "name": "newImplementation",
          "type": "address"
        },
        {
          "internalType": "bytes",
          "name": "data",
          "type": "bytes"
        }
      ],
      "name": "upgradeToAndCall",
      "outputs": [],
      "stateMutability": "payable",
      "type": "function"
    },
    {
      "inputs": [
        {
          "internalType": "address",
          "name": "",
          "type": "address"
        }
      ],
      "name": "userEpoch",
      "outputs": [
        {
          "internalType": "uint256",
          "name": "",
          "type": "uint256"
        }
      ],
      "stateMutability": "view",
      "type": "function"
    },
    {
      "inputs": [],
      "name": "withdraw",
      "outputs": [],
      "stateMutability": "nonpayable",
      "type": "function"
    }
  ],
  "bytecode": "60a0604052306080523480156200001557600080fd5b50600054610100900460ff16620000335760005460ff16156200003d565b6200003d620000e2565b620000a55760405162461bcd60e51b815260206004820152602e60248201527f496e697469616c697a61626c653a20636f6e747261637420697320616c72656160448201526d191e481a5b9a5d1a585b1a5e995960921b606482015260840160405180910390fd5b600054610100900460ff16158015620000c8576000805461ffff19166101011790555b8015620000db576000805461ff00191690555b506200010f565b6000620000fa306200010060201b62001f231760201c565b15905090565b6001600160a01b03163b151590565b608051613ac5620001476000396000818161092901528181610972015281816110080152818161104801526110db0152613ac56000f3fe60806040526004361061020f5760003560e01c80638da5cb5b11610118578063c3cda520116100a0578063cb03623a1161006f578063cb03623a146106b1578063f1127ed8146106de578063f2fde38b146106fe578063f52a36f71461071e578063fa78668f1461076157600080fd5b8063c3cda52014610607578063c4d66de814610627578063c5e687d414610647578063c7b6d4321461065c57600080fd5b806395d89b41116100e757806395d89b411461057d578063981b24d0146105925780639ab24eb0146105b2578063a8bb6696146105d2578063c2c4c5c1146105f257600080fd5b80638da5cb5b146105155780638e539e8c146105335780639497497a1461055357806395b3aa191461056857600080fd5b806352d1902d1161019b57806367afd1cc1161016a57806367afd1cc146104085780636909221d1461048b5780636fcfff45146104ab57806370a08231146104e0578063715018a61461050057600080fd5b806352d1902d1461036c5780635719098b14610381578063587cde1e146103975780635c19a95c146103e857600080fd5b80633659cfe6116101e25780633659cfe6146102e25780633a46b1a8146103045780633ccfd60b146103245780634ee2cd7e146103395780634f1ef2861461035957600080fd5b806306fdde031461021457806311cde2201461023f57806318160ddd1461029d578063313ce567146102c0575b600080fd5b34801561022057600080fd5b50610229610779565b6040516102369190613272565b60405180910390f35b34801561024b57600080fd5b5061025f61025a3660046132c1565b61080b565b604051610236919060006080820190508251600f0b82526020830151600f0b6020830152604083015160408301526060830151606083015292915050565b3480156102a957600080fd5b506102b261089a565b604051908152602001610236565b3480156102cc57600080fd5b5060cb5460405160ff9091168152602001610236565b3480156102ee57600080fd5b506103026102fd3660046132c1565b61091e565b005b34801561031057600080fd5b506102b261031f3660046132dc565b610a07565b34801561033057600080fd5b50610302610a1c565b34801561034557600080fd5b506102b26103543660046132dc565b610c04565b610302610367366004613375565b610ffd565b34801561037857600080fd5b506102b26110ce565b34801561038d57600080fd5b506102b260cf5481565b3480156103a357600080fd5b506103d06103b23660046132c1565b6001600160a01b03908116600090815260d260205260409020541690565b6040516001600160a01b039091168152602001610236565b3480156103f457600080fd5b506103026104033660046132c1565b611181565b34801561041457600080fd5b5061046d6104233660046132c1565b6040805180820190915260008082526020820152506001600160a01b0316600090815260d0602090815260409182902082518084019093528054600f0b8352600101549082015290565b604080518251600f0b81526020928301519281019290925201610236565b34801561049757600080fd5b5061025f6104a636600461341a565b6111c9565b3480156104b757600080fd5b506104cb6104c63660046132c1565b6111ea565b60405163ffffffff9091168152602001610236565b3480156104ec57600080fd5b506102b26104fb3660046132c1565b61120c565b34801561050c57600080fd5b506103026112ff565b34801561052157600080fd5b506033546001600160a01b03166103d0565b34801561053f57600080fd5b506102b261054e366004613435565b611335565b34801561055f57600080fd5b506102b2600481565b34801561057457600080fd5b5061025f611340565b34801561058957600080fd5b506102296113b8565b34801561059e57600080fd5b506102b26105ad366004613435565b6113c7565b3480156105be57600080fd5b506102b26105cd3660046132c1565b61166c565b3480156105de57600080fd5b506103026105ed36600461344e565b611677565b3480156105fe57600080fd5b506103026119e1565b34801561061357600080fd5b5061030261062236600461347f565b6119ec565b34801561063357600080fd5b506103026106423660046132c1565b611a45565b34801561065357600080fd5b5060ce546102b2565b34801561066857600080fd5b506106976106773660046132c1565b60d06020526000908152604090208054600190910154600f9190910b9082565b60408051600f9390930b8352602083019190915201610236565b3480156106bd57600080fd5b506102b26106cc3660046132c1565b60cd6020526000908152604090205481565b3480156106ea57600080fd5b5061025f6106f93660046134d9565b611e00565b34801561070a57600080fd5b506103026107193660046132c1565b611e8b565b34801561072a57600080fd5b5061074e610739366004613435565b60d160205260009081526040902054600f0b81565b604051600f9190910b8152602001610236565b34801561076d57600080fd5b506102b2630784ce0081565b606060c980546107889061350c565b80601f01602080910402602001604051908101604052809291908181526020018280546107b49061350c565b80156108015780601f106107d657610100808354040283529160200191610801565b820191906000526020600020905b8154815290600101906020018083116107e457829003601f168201915b5050505050905090565b610813613188565b6001600160a01b038216600090815260cc6020526040902080546108399060019061355d565b8154811061084957610849613574565b60009182526020918290206040805160808101825260039093029091018054600f81810b8552600160801b909104900b93830193909352600183015490820152600290910154606082015292915050565b60ce546000906108aa5750600090565b600060ce60cf54815481106108c1576108c1613574565b60009182526020918290206040805160808101825260039093029091018054600f81810b8552600160801b909104900b93830193909352600183015490820152600290910154606082015290506109188142611f32565b91505090565b306001600160a01b037f00000000000000000000000000000000000000000000000000000000000000001614156109705760405162461bcd60e51b81526004016109679061358a565b60405180910390fd5b7f00000000000000000000000000000000000000000000000000000000000000006001600160a01b03166109b9600080516020613a49833981519152546001600160a01b031690565b6001600160a01b0316146109df5760405162461bcd60e51b8152600401610967906135d6565b6109e881612010565b60408051600080825260208201909252610a049183919061203a565b50565b6000610a138383610c04565b90505b92915050565b60408051808201825233600081815260d060208181528583208054600f0b86529390925281526001909101548183018181528451808601909552601285527102637b1b5bab81032bc3834b932b99030ba160751b928501929092529051919242919091101591610a8b906121aa565b60405180604001604052806009815260200168016103737bb9034b9960bd1b815250610ab6426121aa565b604051602001610ac99493929190613622565b60405160208183030381529060405290610af65760405162461bcd60e51b81526004016109679190613272565b5060008160000151600f0b13610b455760405162461bcd60e51b81526020600482015260146024820152734c6f636b757020686173206e6f20746f6b656e7360601b6044820152606401610967565b6040805180820182526000808252602080830182815233835260d0909152928120825181546001600160801b0319166001600160801b0390911617815592516001909301929092558251909190610b9e90600f0b6122a8565b60d354909150610bb8906001600160a01b031633836122fe565b610bc3338484612361565b50506040805182815242602082015233917ff279e6a1f5e320cca91135676d9cb6e44ca8a08c0b88342bcdb1144f6511b568910160405180910390a2505050565b600043821115610c565760405162461bcd60e51b815260206004820152601d60248201527f426c6f636b206e756d62657220697320696e20746865206675747572650000006044820152606401610967565b6001600160a01b038316600090815260cc602090815260408083208054825181850281018501909352808352610d0d93859084015b82821015610ce957600084815260209081902060408051608081018252600386029092018054600f81810b8552600160801b909104900b83850152600180820154928401929092526002015460608301529083529092019101610c8b565b5050506001600160a01b038716600090815260cd60205260409020548691506126a8565b905080610d1e576000915050610a16565b6001600160a01b038416600090815260cc60205260408120805483908110610d4857610d48613574565b600091825260208083206040805160808101825260039094029091018054600f81810b8652600160801b909104900b8484015260018101548483015260020154606084015260ce8054825181850281018501909352808352939550610e1c939192909190859084015b82821015610e0f57600084815260209081902060408051608081018252600386029092018054600f81810b8552600160801b909104900b83850152600180820154928401929092526002015460608301529083529092019101610db1565b505050508660cf546126a8565b9050600060ce8281548110610e3357610e33613574565b600091825260208083206040805160808101825260039094029091018054600f81810b8652600160801b909104900b9284019290925260018201549083015260020154606082015260cf549092508190841015610f2557600060ce610e99866001613679565b81548110610ea957610ea9613574565b60009182526020918290206040805160808101825260039093029091018054600f81810b8552600160801b909104900b938301939093526001830154908201526002909101546060808301829052860151919250610f07919061355d565b925083604001518160400151610f1d919061355d565b915050610f49565b6060830151610f34904361355d565b9150826040015142610f46919061355d565b90505b60408301518215610f86578284606001518a610f65919061355d565b610f6f9084613691565b610f7991906136c6565b610f839082613679565b90505b610f9e866040015182610f99919061355d565b612742565b8660200151610fad91906136da565b86518790610fbc90839061376f565b600f90810b90915287516000910b129050610fed578551610fdf90600f0b6122a8565b975050505050505050610a16565b6000975050505050505050610a16565b306001600160a01b037f00000000000000000000000000000000000000000000000000000000000000001614156110465760405162461bcd60e51b81526004016109679061358a565b7f00000000000000000000000000000000000000000000000000000000000000006001600160a01b031661108f600080516020613a49833981519152546001600160a01b031690565b6001600160a01b0316146110b55760405162461bcd60e51b8152600401610967906135d6565b6110be82612010565b6110ca8282600161203a565b5050565b6000306001600160a01b037f0000000000000000000000000000000000000000000000000000000000000000161461116e5760405162461bcd60e51b815260206004820152603860248201527f555550535570677261646561626c653a206d757374206e6f742062652063616c60448201527f6c6564207468726f7567682064656c656761746563616c6c00000000000000006064820152608401610967565b50600080516020613a4983398151915290565b60405162461bcd60e51b815260206004820152601b60248201527f44656c65676174696f6e206973206e6f7420737570706f7274656400000000006044820152606401610967565b6111d1613188565b60ce8263ffffffff168154811061084957610849613574565b6001600160a01b038116600090815260cc6020526040812054610a16906127bf565b6001600160a01b038116600090815260cd6020526040812054806112335750600092915050565b6001600160a01b038316600090815260cc6020526040812080548390811061125d5761125d613574565b60009182526020918290206040805160808101825260039093029091018054600f81810b8552600160801b909104900b938301939093526001830154908201819052600290920154606082015291506112ba90610f99904261355d565b81602001516112c991906136da565b815182906112d890839061376f565b600f0b90525080516112f7906112ef906000612824565b600f0b6122a8565b949350505050565b6033546001600160a01b031633146113295760405162461bcd60e51b8152600401610967906137bf565b6113336000612841565b565b6000610a16826113c7565b611348613188565b60ce80546113589060019061355d565b8154811061136857611368613574565b60009182526020918290206040805160808101825260039093029091018054600f81810b8552600160801b909104900b938301939093526001830154908201526002909101546060820152919050565b606060ca80546107889061350c565b6000438211156114195760405162461bcd60e51b815260206004820152601d60248201527f426c6f636b206e756d62657220697320696e20746865206675747572650000006044820152606401610967565b60006114ab60ce805480602002602001604051908101604052809291908181526020016000905b8282101561149e57600084815260209081902060408051608081018252600386029092018054600f81810b8552600160801b909104900b83850152600180820154928401929092526002015460608301529083529092019101611440565b505050508460cf546126a8565b9050600060ce82815481106114c2576114c2613574565b60009182526020918290206040805160808101825260039093029091018054600f81810b8552600160801b909104900b9383019390935260018301549082015260029091015460608201819052909150841015611523575060009392505050565b600060cf548310156115fb57600060ce61153e856001613679565b8154811061154e5761154e613574565b60009182526020918290206040805160808101825260039093029091018054600f81810b8552600160801b909104900b938301939093526001830154908201526002909101546060808301829052850151919250146115f557826060015181606001516115bb919061355d565b836040015182604001516115cf919061355d565b60608501516115de908961355d565b6115e89190613691565b6115f291906136c6565b91505b5061164a565b4382606001511461164a576060820151611615904361355d565b6040830151611624904261355d565b6060840151611633908861355d565b61163d9190613691565b61164791906136c6565b90505b6116638282846040015161165e9190613679565b611f32565b95945050505050565b6000610a168261120c565b61168081612893565b33600090815260d0602090815260409182902082518084019093528054600f0b835260010154908201529091504282116117195760405162461bcd60e51b815260206004820152603460248201527f456e64206d7573742062652067726561746572207468616e2074686520637572604482015273072656e7420626c6f636b2074696d657374616d760641b6064820152608401610967565b600081602001511180156117305750806020015182105b1561179a5760405162461bcd60e51b815260206004820152603460248201527f456e64206d7573742062652067726561746572207468616e206f7220657175616044820152731b081d1bc81d1a194818dd5c9c995b9d08195b9960621b6064820152608401610967565b630784ce006117a9428461355d565b11156118065760405162461bcd60e51b815260206004820152602660248201527f456e64206d757374206265206265666f7265206d6178696d756d206c6f636b75604482015265702074696d6560d01b6064820152608401610967565b600061181184612742565b90508160000151600f0b81600f0b121561188c5760405162461bcd60e51b815260206004820152603660248201527f416d6f756e74206d7573742062652067726561746572207468616e206f7220656044820152751c5d585b081d1bc818dd5c9c995b9d08185b5bdd5b9d60521b6064820152608401610967565b815160009061189f906112ef908461376f565b604080518082018252600f85900b8152602080820188815233600090815260d0909252929020815181546001600160801b0319166001600160801b039091161781559151600190920191909155909150811561190d5760d35461190d906001600160a01b03163330856128ad565b60208401511561197f57835160208086015183518483015160408051600f96870b815294850193909352930b90820152606081019190915242608082015233907f268a3d7ea661e9e2bd617021c94b431919691c0d21aa2eb3ea2b9644a5383d129060a00160405180910390a26119cc565b805160208083015160408051600f9490940b845291830152429082015233907f7006565168b74edd823b144526503320d833b826edea3f82059ca1806a954fc39060600160405180910390a25b6119d7338583612361565b5050505050505050565b610a046000806128eb565b60405162461bcd60e51b815260206004820152602860248201527f44656c65676174696f6e206279207369676e6174757265206973206e6f7420736044820152671d5c1c1bdc9d195960c21b6064820152608401610967565b600054610100900460ff16611a605760005460ff1615611a64565b303b155b611ac75760405162461bcd60e51b815260206004820152602e60248201527f496e697469616c697a61626c653a20636f6e747261637420697320616c72656160448201526d191e481a5b9a5d1a585b1a5e995960921b6064820152608401610967565b600054610100900460ff16158015611ae9576000805461ffff19166101011790555b611af1612ccb565b611af9612cfa565b60d380546001600160a01b0319166001600160a01b038416908117909155604080518082018252600b81526a159bdd1948131bd8dad95960aa1b602082015281516306fdde0360e01b815291519092916306fdde039160048083019260009291908290030181865afa158015611b73573d6000803e3d6000fd5b505050506040513d6000823e601f3d908101601f19168201604052611b9b91908101906137f4565b604051602001611bac929190613862565b60405160208183030381529060405260c99080519060200190611bd09291906131b6565b50604051806040016040528060028152602001611d9b60f21b81525060d360009054906101000a90046001600160a01b03166001600160a01b03166395d89b416040518163ffffffff1660e01b8152600401600060405180830381865afa158015611c3f573d6000803e3d6000fd5b505050506040513d6000823e601f3d908101601f19168201604052611c6791908101906137f4565b604051602001611c7892919061389e565b60405160208183030381529060405260ca9080519060200190611c9c9291906131b6565b5060d360009054906101000a90046001600160a01b03166001600160a01b031663313ce5676040518163ffffffff1660e01b8152600401602060405180830381865afa158015611cf0573d6000803e3d6000fd5b505050506040513d601f19601f82011682018060405250810190611d1491906138cd565b60cb805460ff9290921660ff199092169190911790556040805160808101825260008082526020820181815242938301938452436060840190815260ce80546001810182559352925190516001600160801b03908116600160801b0291161760039091027fd36cd1c74ef8d7326d8021b776c18fb5a5724b7f7bc93c2f42e43e10ef27d12a81019190915591517fd36cd1c74ef8d7326d8021b776c18fb5a5724b7f7bc93c2f42e43e10ef27d12b830155517fd36cd1c74ef8d7326d8021b776c18fb5a5724b7f7bc93c2f42e43e10ef27d12c9091015580156110ca576000805461ff00191690555050565b611e08613188565b6001600160a01b038316600090815260cc60205260409020805463ffffffff8416908110611e3857611e38613574565b60009182526020918290206040805160808101825260039093029091018054600f81810b8552600160801b909104900b938301939093526001830154908201526002909101546060820152905092915050565b6033546001600160a01b03163314611eb55760405162461bcd60e51b8152600401610967906137bf565b6001600160a01b038116611f1a5760405162461bcd60e51b815260206004820152602660248201527f4f776e61626c653a206e6577206f776e657220697320746865207a65726f206160448201526564647265737360d01b6064820152608401610967565b610a0481612841565b6001600160a01b03163b151590565b6000808390506000611f478260400151612893565b905060005b60ff811015611ffd57611f6262093a8083613679565b9150600085831115611f7657859250611f8a565b50600082815260d16020526040902054600f0b5b611f9d846040015184610f99919061355d565b8460200151611fac91906136da565b8451611fb8919061376f565b600f0b845282861415611fcb5750611ffd565b808460200151611fdb91906138ea565b600f0b6020850152506040830182905280611ff581613939565b915050611f4c565b506116636112ef83600001516000612824565b6033546001600160a01b03163314610a045760405162461bcd60e51b8152600401610967906137bf565b7f4910fdfa16fed3260ed0e7147f7cc6da11a60208b5b9406d12a635614ffd91435460ff16156120725761206d83612d21565b505050565b826001600160a01b03166352d1902d6040518163ffffffff1660e01b8152600401602060405180830381865afa9250505080156120cc575060408051601f3d908101601f191682019092526120c991810190613954565b60015b61212f5760405162461bcd60e51b815260206004820152602e60248201527f45524331393637557067726164653a206e657720696d706c656d656e7461746960448201526d6f6e206973206e6f74205555505360901b6064820152608401610967565b600080516020613a49833981519152811461219e5760405162461bcd60e51b815260206004820152602960248201527f45524331393637557067726164653a20756e737570706f727465642070726f786044820152681a58589b195555525160ba1b6064820152608401610967565b5061206d838383612dbd565b6060816121ce5750506040805180820190915260018152600360fc1b602082015290565b8160005b81156121f857806121e281613939565b91506121f19050600a836136c6565b91506121d2565b60008167ffffffffffffffff81111561221357612213613306565b6040519080825280601f01601f19166020018201604052801561223d576020820181803683370190505b5090505b84156112f75761225260018361355d565b915061225f600a8661396d565b61226a906030613679565b60f81b81838151811061227f5761227f613574565b60200101906001600160f81b031916908160001a9053506122a1600a866136c6565b9450612241565b6000808212156122fa5760405162461bcd60e51b815260206004820181905260248201527f53616665436173743a2076616c7565206d75737420626520706f7369746976656044820152606401610967565b5090565b6040516001600160a01b03831660248201526044810182905261206d90849063a9059cbb60e01b906064015b60408051601f198184030181529190526020810180516001600160e01b03166001600160e01b031990931692909217909152612de2565b60008061236c613188565b612374613188565b600080428860200151118015612391575060008860000151600f0b135b156123e2576123a3630784ce00612742565b88516123af9190613981565b600f0b6020808601919091528801516123cd90610f9990429061355d565b84602001516123dc91906136da565b600f0b84525b4287602001511180156123fc575060008760000151600f0b135b1561244d5761240e630784ce00612742565b875161241a9190613981565b600f0b60208085019190915287015161243890610f9990429061355d565b836020015161244791906136da565b600f0b83525b6001600160a01b038916600090815260cd6020526040902054806124d1576001600160a01b038a16600090815260cc60209081526040808320805460018181018355918552938390208951938a01516001600160801b03908116600160801b0294169390931760039094029092019283558701519082015560608601516002909101555b4260408501524360608501526124e8816001613679565b6001600160a01b038b16600090815260cd602090815260408083209390935560cc815282822080546001818101835591845282842089518a8501516001600160801b03908116600160801b02911617600390920201908155888501519181019190915560608801516002909101558b810151825260d181529190205490890151600f9190910b9350156125a85788602001518860200151141561258d578291506125a8565b602080890151600090815260d19091526040902054600f0b91505b6125d2856020015185602001516125bf919061376f565b865186516125cd919061376f565b6128eb565b5042896020015111156126405760208501516125ee90846138ea565b925088602001518860200151141561261257602084015161260f908461376f565b92505b602089810151600090815260d19091526040902080546001600160801b0319166001600160801b0385161790555b428860200151111561269b5788602001518860200151111561269b57602084015161266b908361376f565b602089810151600090815260d19091526040902080546001600160801b0319166001600160801b03831617905591505b5050505050935093915050565b60008082815b6080811015612735578183106126c357612735565b600060026126d18486613679565b6126dc906001613679565b6126e691906136c6565b9050868882815181106126fb576126fb613574565b6020026020010151606001511161271457809350612722565b61271f60018261355d565b92505b508061272d81613939565b9150506126ae565b50909150505b9392505050565b600060016001607f1b03198212801590612763575060016001607f1b038213155b6122fa5760405162461bcd60e51b815260206004820152602760248201527f53616665436173743a2076616c756520646f65736e27742066697420696e20316044820152663238206269747360c81b6064820152608401610967565b600063ffffffff8211156122fa5760405162461bcd60e51b815260206004820152602660248201527f53616665436173743a2076616c756520646f65736e27742066697420696e203360448201526532206269747360d01b6064820152608401610967565b600081600f0b83600f0b121561283a5781610a13565b5090919050565b603380546001600160a01b038381166001600160a01b0319831681179093556040519116919082907f8be0079c531659141344cd1fd0a4f28419497f9722a3daafe3b4186f6b6457e090600090a35050565b600062093a806128a381846136c6565b610a169190613691565b6040516001600160a01b03808516602483015283166044820152606481018290526128e59085906323b872dd60e01b9060840161232a565b50505050565b6128f3613188565b60cf54156129625760ce60cf548154811061291057612910613574565b60009182526020918290206040805160808101825260039093029091018054600f81810b8552600160801b909104900b9383019390935260018301549082015260029091015460608201529050612986565b50604080516080810182526000808252602082015242918101919091524360608201525b604080516080810182526000808252602082018190528383018051938301939093526060808501519083015291519091904211156129fb5760408301516129cd904261355d565b60608401516129dc904361355d565b6129ee90670de0b6b3a7640000613691565b6129f891906136c6565b90505b60408301516000612a0b82612893565b905060005b60ff811015612cc057612a2662093a8083613679565b9150600042831115612a3a57429250612a4e565b50600082815260d16020526040902054600f0b5b6000612a5d610f99868661355d565b8860200151612a6c91906136da565b9050612a88818960000151612a81919061376f565b6000612824565b600f0b88526020880151612aa190612a819084906138ea565b600f0b602089015260408089018590528701519394508493670de0b6b3a764000090612acd908661355d565b612ad79088613691565b612ae191906136c6565b8760600151612af09190613679565b606089015260cf805460019190600090612b0b908490613679565b909155505042841415612c01574360608901526020880151612b3290612a81908c906138ea565b600f0b60208901528751612b4b90612a81908b906138ea565b600f0b8852505060ce8054600181018255600091909152865160208801516001600160801b03908116600160801b0291161760039091027fd36cd1c74ef8d7326d8021b776c18fb5a5724b7f7bc93c2f42e43e10ef27d12a81019190915560408701517fd36cd1c74ef8d7326d8021b776c18fb5a5724b7f7bc93c2f42e43e10ef27d12b82015560608701517fd36cd1c74ef8d7326d8021b776c18fb5a5724b7f7bc93c2f42e43e10ef27d12c90910155612cc0565b60ce8054600181018255600091909152885160208a01516001600160801b03908116600160801b0291161760039091027fd36cd1c74ef8d7326d8021b776c18fb5a5724b7f7bc93c2f42e43e10ef27d12a81019190915560408901517fd36cd1c74ef8d7326d8021b776c18fb5a5724b7f7bc93c2f42e43e10ef27d12b82015560608901517fd36cd1c74ef8d7326d8021b776c18fb5a5724b7f7bc93c2f42e43e10ef27d12c9091015550508080612cb890613939565b915050612a10565b505050505092915050565b600054610100900460ff16612cf25760405162461bcd60e51b8152600401610967906139bf565b611333612eb4565b600054610100900460ff166113335760405162461bcd60e51b8152600401610967906139bf565b6001600160a01b0381163b612d8e5760405162461bcd60e51b815260206004820152602d60248201527f455243313936373a206e657720696d706c656d656e746174696f6e206973206e60448201526c1bdd08184818dbdb9d1c9858dd609a1b6064820152608401610967565b600080516020613a4983398151915280546001600160a01b0319166001600160a01b0392909216919091179055565b612dc683612ee4565b600082511180612dd35750805b1561206d576128e58383612f24565b6000612e37826040518060400160405280602081526020017f5361666545524332303a206c6f772d6c6576656c2063616c6c206661696c6564815250856001600160a01b031661300f9092919063ffffffff16565b80519091501561206d5780806020019051810190612e559190613a0a565b61206d5760405162461bcd60e51b815260206004820152602a60248201527f5361666545524332303a204552433230206f7065726174696f6e20646964206e6044820152691bdd081cdd58d8d9595960b21b6064820152608401610967565b600054610100900460ff16612edb5760405162461bcd60e51b8152600401610967906139bf565b61133333612841565b612eed81612d21565b6040516001600160a01b038216907fbc7cd75a20ee27fd9adebab32041f755214dbc6bffa90cc0225b39da2e5c2d3b90600090a250565b60606001600160a01b0383163b612f8c5760405162461bcd60e51b815260206004820152602660248201527f416464726573733a2064656c65676174652063616c6c20746f206e6f6e2d636f6044820152651b9d1c9858dd60d21b6064820152608401610967565b600080846001600160a01b031684604051612fa79190613a2c565b600060405180830381855af49150503d8060008114612fe2576040519150601f19603f3d011682016040523d82523d6000602084013e612fe7565b606091505b50915091506116638282604051806060016040528060278152602001613a696027913961301e565b60606112f78484600085613057565b6060831561302d57508161273b565b82511561303d5782518084602001fd5b8160405162461bcd60e51b81526004016109679190613272565b6060824710156130b85760405162461bcd60e51b815260206004820152602660248201527f416464726573733a20696e73756666696369656e742062616c616e636520666f6044820152651c8818d85b1b60d21b6064820152608401610967565b6001600160a01b0385163b61310f5760405162461bcd60e51b815260206004820152601d60248201527f416464726573733a2063616c6c20746f206e6f6e2d636f6e74726163740000006044820152606401610967565b600080866001600160a01b0316858760405161312b9190613a2c565b60006040518083038185875af1925050503d8060008114613168576040519150601f19603f3d011682016040523d82523d6000602084013e61316d565b606091505b509150915061317d82828661301e565b979650505050505050565b60405180608001604052806000600f0b81526020016000600f0b815260200160008152602001600081525090565b8280546131c29061350c565b90600052602060002090601f0160209004810192826131e4576000855561322a565b82601f106131fd57805160ff191683800117855561322a565b8280016001018555821561322a579182015b8281111561322a57825182559160200191906001019061320f565b506122fa9291505b808211156122fa5760008155600101613232565b60005b83811015613261578181015183820152602001613249565b838111156128e55750506000910152565b6020815260008251806020840152613291816040850160208701613246565b601f01601f19169190910160400192915050565b80356001600160a01b03811681146132bc57600080fd5b919050565b6000602082840312156132d357600080fd5b610a13826132a5565b600080604083850312156132ef57600080fd5b6132f8836132a5565b946020939093013593505050565b634e487b7160e01b600052604160045260246000fd5b604051601f8201601f1916810167ffffffffffffffff8111828210171561334557613345613306565b604052919050565b600067ffffffffffffffff82111561336757613367613306565b50601f01601f191660200190565b6000806040838503121561338857600080fd5b613391836132a5565b9150602083013567ffffffffffffffff8111156133ad57600080fd5b8301601f810185136133be57600080fd5b80356133d16133cc8261334d565b61331c565b8181528660208385010111156133e657600080fd5b816020840160208301376000602083830101528093505050509250929050565b803563ffffffff811681146132bc57600080fd5b60006020828403121561342c57600080fd5b610a1382613406565b60006020828403121561344757600080fd5b5035919050565b6000806040838503121561346157600080fd5b50508035926020909101359150565b60ff81168114610a0457600080fd5b60008060008060008060c0878903121561349857600080fd5b6134a1876132a5565b9550602087013594506040870135935060608701356134bf81613470565b9598949750929560808101359460a0909101359350915050565b600080604083850312156134ec57600080fd5b6134f5836132a5565b915061350360208401613406565b90509250929050565b600181811c9082168061352057607f821691505b6020821081141561354157634e487b7160e01b600052602260045260246000fd5b50919050565b634e487b7160e01b600052601160045260246000fd5b60008282101561356f5761356f613547565b500390565b634e487b7160e01b600052603260045260246000fd5b6020808252602c908201527f46756e6374696f6e206d7573742062652063616c6c6564207468726f7567682060408201526b19195b1959d85d1958d85b1b60a21b606082015260800190565b6020808252602c908201527f46756e6374696f6e206d7573742062652063616c6c6564207468726f7567682060408201526b6163746976652070726f787960a01b606082015260800190565b60008551613634818460208a01613246565b855190830190613648818360208a01613246565b855191019061365b818360208901613246565b845191019061366e818360208801613246565b019695505050505050565b6000821982111561368c5761368c613547565b500190565b60008160001904831182151516156136ab576136ab613547565b500290565b634e487b7160e01b600052601260045260246000fd5b6000826136d5576136d56136b0565b500490565b600081600f0b83600f0b60016001607f1b0360008213600084138383048511828216161561370a5761370a613547565b60016001607f1b0319600085128281168783058712161561372d5761372d613547565b6000871292508582058712848416161561374957613749613547565b8585058712818416161561375f5761375f613547565b5050509290910295945050505050565b600081600f0b83600f0b600081128160016001607f1b03190183128115161561379a5761379a613547565b8160016001607f1b030183138116156137b5576137b5613547565b5090039392505050565b6020808252818101527f4f776e61626c653a2063616c6c6572206973206e6f7420746865206f776e6572604082015260600190565b60006020828403121561380657600080fd5b815167ffffffffffffffff81111561381d57600080fd5b8201601f8101841361382e57600080fd5b805161383c6133cc8261334d565b81815285602083850101111561385157600080fd5b611663826020830160208601613246565b60008351613874818460208801613246565b600160fd1b9083019081528351613892816001840160208801613246565b01600101949350505050565b600083516138b0818460208801613246565b8351908301906138c4818360208801613246565b01949350505050565b6000602082840312156138df57600080fd5b815161273b81613470565b600081600f0b83600f0b600082128260016001607f1b030382138115161561391457613914613547565b8260016001607f1b031903821281161561393057613930613547565b50019392505050565b600060001982141561394d5761394d613547565b5060010190565b60006020828403121561396657600080fd5b5051919050565b60008261397c5761397c6136b0565b500690565b600081600f0b83600f0b80613998576139986136b0565b60016001607f1b03198214600019821416156139b6576139b6613547565b90059392505050565b6020808252602b908201527f496e697469616c697a61626c653a20636f6e7472616374206973206e6f74206960408201526a6e697469616c697a696e6760a81b606082015260800190565b600060208284031215613a1c57600080fd5b8151801515811461273b57600080fd5b60008251613a3e818460208701613246565b919091019291505056fe360894a13ba1a3210667c828492db98dca3e2076cc3735a920a3ca505d382bbc416464726573733a206c6f772d6c6576656c2064656c65676174652063616c6c206661696c6564a2646970667358221220adb18dd97259d73b34b6ec13fea99a67d54a17f0037a541cca00a8ff64a84d2f64736f6c634300080b0033",
  "bytecodeSha1": "c76aa26ac9a129089e54765ee5581c3b9acad82e",
  "compiler": {
    "evm_version": "istanbul",
    "optimizer": {
      "enabled": true,
      "runs": 200
    },
    "version": "0.8.11+commit.d7f03943"
  },
  "contractName": "VoteLockerCurve",
  "language": "Solidity",
  "natspec": {
    "kind": "dev",
    "methods": {
      "MAX_LOCK_TIME()": {
        "notice": "Maximum lock time"
      },
      "MAX_VOTE_MULTIPLE()": {
        "notice": "Vote boost if locked for maximum duration"
      },
      "balanceOf(address)": {
        "details": "See {ERC20-balanceOf}."
      },
      "balanceOfAt(address,uint256)": {
        "details": "Gets a users votingWeight at a given blockNumber",
        "params": {
          "_account": "User for which to return the balance",
          "_blockNumber": "Block at which to calculate balance"
        },
        "returns": {
          "_0": "uint256 Balance of user"
        }
      },
      "checkpoint()": {
        "details": "Public function to trigger global checkpoint"
      },
      "checkpoints(address,uint32)": {
        "details": "Get the `pos`-th checkpoint for `_account`."
      },
      "constructor": {
        "custom:oz-upgrades-unsafe-allow": "constructor"
      },
      "decimals()": {
        "details": "Returns the number of decimals used to get its user representation. For example, if `decimals` equals `2`, a balance of `505` tokens should be displayed to a user as `5.05` (`505 / 10 ** 2`). Tokens usually opt for a value of 18, imitating the relationship between Ether and Wei. This is the value {ERC20} uses, unless this function is overridden;"
      },
      "delegate(address)": {
        "details": "Delegate votes from the sender to `delegatee`."
      },
      "delegateBySig(address,uint256,uint256,uint8,bytes32,bytes32)": {
        "details": "Delegates votes from signer to `delegatee`"
      },
      "delegates(address)": {
        "details": "Get the address `_account` is currently delegating to."
      },
      "getLastCheckpoint(address)": {
        "details": "Get last checkpoint for `_account`."
      },
      "getLastGlobalCheckpoint()": {
        "details": "Get the last global checkpoint."
      },
      "getLockup(address)": {
        "details": "Gets the current lockup for `_account`"
      },
      "getPastTotalSupply(uint256)": {
        "details": "Retrieve the `totalSupply` at the end of `blockNumber`. This method is required for compatibility with the OpenZeppelin governance ERC20Votes. Requirements: - `_blockNumber` must have been already mined",
        "params": {
          "_blockNumber": "Block at which to calculate total supply"
        },
        "returns": {
          "_0": "uint256 Total supply at the given block"
        }
      },
      "getPastVotes(address,uint256)": {
        "details": "Retrieve the number of votes for `_account` at the end of `_blockNumber`. This method is required for compatibility with the OpenZeppelin governance ERC20Votes. Requirements: - `blockNumber` must have been already mined"
      },
      "getVotes(address)": {
        "details": "Gets the current votes balance for `_account` This method is required for compatibility with the OpenZeppelin governance ERC20Votes.",
        "params": {
          "_account": "Account to get the votes balance for"
        },
        "returns": {
          "_0": "uint256 Current votes balance for `_account`"
        }
      },
      "globalCheckpoints(uint32)": {
        "details": "Get the `pos`-th global checkpoint."
      },
      "lockup(uint256,uint256)": {
        "details": "Deposits staking token and mints new tokens according to the MAX_VOTE_MULTIPLE and _end parameters."
      },
      "lockups(address)": {
        "notice": "Lockup mapping for each user"
      },
      "name()": {
        "details": "Returns the name of the token."
      },
      "numCheckpoints(address)": {
        "details": "Get number of checkpoints for `_account`."
      },
      "numGlobalCheckpoints()": {
        "details": "Get number of global checkpoints."
      },
      "owner()": {
        "details": "Returns the address of the current owner."
      },
      "proxiableUUID()": {
        "details": "Implementation of the ERC1822 {proxiableUUID} function. This returns the storage slot used by the implementation. It is used to validate that the this implementation remains valid after an upgrade. IMPORTANT: A proxy pointing at a proxiable contract should not be considered proxiable itself, because this risks bricking a proxy that upgrades to it, by delegating to itself until out of gas. Thus it is critical that this function revert if invoked through a proxy. This is guaranteed by the `notDelegated` modifier."
      },
      "renounceOwnership()": {
        "details": "Leaves the contract without owner. It will not be possible to call `onlyOwner` functions anymore. Can only be called by the current owner. NOTE: Renouncing ownership will leave the contract without an owner, thereby removing any functionality that is only available to the owner."
      },
      "symbol()": {
        "details": "Returns the symbol of the token, usually a shorter version of the name."
      },
      "totalSupply()": {
        "details": "See {ERC20-totalSupply}."
      },
      "totalSupplyAt(uint256)": {
        "details": "Calculates total supply of votingWeight at a given blockNumber",
        "params": {
          "_blockNumber": "Block number at which to calculate total supply"
        },
        "returns": {
          "_0": "totalSupply of voting token weight at the given blockNumber"
        }
      },
      "transferOwnership(address)": {
        "details": "Transfers ownership of the contract to a new account (`newOwner`). Can only be called by the current owner."
      },
      "upgradeTo(address)": {
        "details": "Upgrade the implementation of the proxy to `newImplementation`. Calls {_authorizeUpgrade}. Emits an {Upgraded} event."
      },
      "upgradeToAndCall(address,bytes)": {
        "details": "Upgrade the implementation of the proxy to `newImplementation`, and subsequently execute the function call encoded in `data`. Calls {_authorizeUpgrade}. Emits an {Upgraded} event."
      },
      "withdraw()": {
        "details": "Withdraw tokens from an expired lockup."
      }
    },
    "version": 1
  },
  "opcodes": "PUSH1 0x80 PUSH1 0x40 MSTORE PUSH1 0x4 CALLDATASIZE LT PUSH2 0x20F JUMPI PUSH1 0x0 CALLDATALOAD PUSH1 0xE0 SHR DUP1 PUSH4 0x8DA5CB5B GT PUSH2 0x118 JUMPI DUP1 PUSH4 0xC3CDA520 GT PUSH2 0xA0 JUMPI DUP1 PUSH4 0xCB03623A GT PUSH2 0x6F JUMPI DUP1 PUSH4 0xCB03623A EQ PUSH2 0x6B1 JUMPI DUP1 PUSH4 0xF1127ED8 EQ PUSH2 0x6DE JUMPI DUP1 PUSH4 0xF2FDE38B EQ PUSH2 0x6FE JUMPI DUP1 PUSH4 0xF52A36F7 EQ PUSH2 0x71E JUMPI DUP1 PUSH4 0xFA78668F EQ PUSH2 0x761 JUMPI PUSH1 0x0 DUP1 REVERT JUMPDEST DUP1 PUSH4 0xC3CDA520 EQ PUSH2 0x607 JUMPI DUP1 PUSH4 0xC4D66DE8 EQ PUSH2 0x627 JUMPI DUP1 PUSH4 0xC5E687D4 EQ PUSH2 0x647 JUMPI DUP1 PUSH4 0xC7B6D432 EQ PUSH2 0x65C JUMPI PUSH1 0x0 DUP1 REVERT JUMPDEST DUP1 PUSH4 0x95D89B41 GT PUSH2 0xE7 JUMPI DUP1 PUSH4 0x95D89B41 EQ PUSH2 0x57D JUMPI DUP1 PUSH4 0x981B24D0 EQ PUSH2 0x592 JUMPI DUP1 PUSH4 0x9AB24EB0 EQ PUSH2 0x5B2 JUMPI DUP1 PUSH4 0xA8BB6696 EQ PUSH2 0x5D2 JUMPI DUP1 PUSH4 0xC2C4C5C1 EQ PUSH2 0x5F2 JUMPI PUSH1 0x0 DUP1 REVERT JUMPDEST DUP1 PUSH4 0x8DA5CB5B EQ PUSH2 0x515 JUMPI DUP1 PUSH4 0x8E539E8C EQ PUSH2 0x533 JUMPI DUP1 PUSH4 0x9497497A EQ PUSH2 0x553 JUMPI DUP1 PUSH4 0x95B3AA19 EQ PUSH2 0x568 JUMPI PUSH1 0x0 DUP1 REVERT JUMPDEST DUP1 PUSH4 0x52D1902D GT PUSH2 0x19B JUMPI DUP1 PUSH4 0x67AFD1CC GT PUSH2 0x16A JUMPI DUP1 PUSH4 0x67AFD1CC EQ PUSH2 0x408 JUMPI DUP1 PUSH4 0x6909221D EQ PUSH2 0x48B JUMPI DUP1 PUSH4 0x6FCFFF45 EQ PUSH2 0x4AB JUMPI DUP1 PUSH4 0x70A08231 EQ PUSH2 0x4E0 JUMPI DUP1 PUSH4 0x715018A6 EQ PUSH2 0x500 JUMPI PUSH1 0x0 DUP1 REVERT JUMPDEST DUP1 PUSH4 0x52D1902D EQ PUSH2 0x36C JUMPI DUP1 PUSH4 0x5719098B EQ PUSH2 0x381 JUMPI DUP1 PUSH4 0x587CDE1E EQ PUSH2 0x397 JUMPI DUP1 PUSH4 0x5C19A95C EQ PUSH2 0x3E8 JUMPI PUSH1 0x0 DUP1 REVERT JUMPDEST DUP1 PUSH4 0x3659CFE6 GT PUSH2 0x1E2 JUMPI DUP1 PUSH4 0x3659CFE6 EQ PUSH2 0x2E2 JUMPI DUP1 PUSH4 0x3A46B1A8 EQ PUSH2 0x304 JUMPI DUP1 PUSH4 0x3CCFD60B EQ PUSH2 0x324 JUMPI DUP1 PUSH4 0x4EE2CD7E EQ PUSH2 0x339 JUMPI DUP1 PUSH4 0x4F1EF286 EQ PUSH2 0x359 JUMPI PUSH1 0x0 DUP1 REVERT JUMPDEST DUP1 PUSH4 0x6FDDE03 EQ PUSH2 0x214 JUMPI DUP1 PUSH4 0x11CDE220 EQ PUSH2 0x23F JUMPI DUP1 PUSH4 0x18160DDD EQ PUSH2 0x29D JUMPI DUP1 PUSH4 0x313CE567 EQ PUSH2 0x2C0 JUMPI JUMPDEST PUSH1 0x0 DUP1 REVERT JUMPDEST CALLVALUE DUP1 ISZERO PUSH2 0x220 JUMPI PUSH1 0x0 DUP1 REVERT JUMPDEST POP PUSH2 0x229 PUSH2 0x779 JUMP JUMPDEST PUSH1 0x40 MLOAD PUSH2 0x236 SWAP2 SWAP1 PUSH2 0x3272 JUMP JUMPDEST PUSH1 0x40 MLOAD DUP1 SWAP2 SUB SWAP1 RETURN JUMPDEST CALLVALUE DUP1 ISZERO PUSH2 0x24B JUMPI PUSH1 0x0 DUP1 REVERT JUMPDEST POP PUSH2 0x25F PUSH2 0x25A CALLDATASIZE PUSH1 0x4 PUSH2 0x32C1 JUMP JUMPDEST PUSH2 0x80B JUMP JUMPDEST PUSH1 0x40 MLOAD PUSH2 0x236 SWAP2 SWAP1 PUSH1 0x0 PUSH1 0x80 DUP3 ADD SWAP1 POP DUP3 MLOAD PUSH1 0xF SIGNEXTEND DUP3 MSTORE PUSH1 0x20 DUP4 ADD MLOAD PUSH1 0xF SIGNEXTEND PUSH1 0x20 DUP4 ADD MSTORE PUSH1 0x40 DUP4 ADD MLOAD PUSH1 0x40 DUP4 ADD MSTORE PUSH1 0x60 DUP4 ADD MLOAD PUSH1 0x60 DUP4 ADD MSTORE SWAP3 SWAP2 POP POP JUMP JUMPDEST CALLVALUE DUP1 ISZERO PUSH2 0x2A9 JUMPI PUSH1 0x0 DUP1 REVERT JUMPDEST POP PUSH2 0x2B2 PUSH2 0x89A JUMP JUMPDEST PUSH1 0x40 MLOAD SWAP1 DUP2 MSTORE PUSH1 0x20 ADD PUSH2 0x236 JUMP JUMPDEST CALLVALUE DUP1 ISZERO PUSH2 0x2CC JUMPI PUSH1 0x0 DUP1 REVERT JUMPDEST POP PUSH1 0xCB SLOAD PUSH1 0x40 MLOAD PUSH1 0xFF SWAP1 SWAP2 AND DUP2 MSTORE PUSH1 0x20 ADD PUSH2 0x236 JUMP JUMPDEST CALLVALUE DUP1 ISZERO PUSH2 0x2EE JUMPI PUSH1 0x0 DUP1 REVERT JUMPDEST POP PUSH2 0x302 PUSH2 0x2FD CALLDATASIZE PUSH1 0x4 PUSH2 0x32C1 JUMP JUMPDEST PUSH2 0x91E JUMP JUMPDEST STOP JUMPDEST CALLVALUE DUP1 ISZERO PUSH2 0x310 JUMPI PUSH1 0x0 DUP1 REVERT JUMPDEST POP PUSH2 0x2B2 PUSH2 0x31F CALLDATASIZE PUSH1 0x4 PUSH2 0x32DC JUMP JUMPDEST PUSH2 0xA07 JUMP JUMPDEST CALLVALUE DUP1 ISZERO PUSH2 0x330 JUMPI PUSH1 0x0 DUP1 REVERT JUMPDEST POP PUSH2 0x302 PUSH2 0xA1C JUMP JUMPDEST CALLVALUE DUP1 ISZERO PUSH2 0x345 JUMPI PUSH1 0x0 DUP1 REVERT JUMPDEST POP PUSH2 0x2B2 PUSH2 0x354 CALLDATASIZE PUSH1 0x4 PUSH2 0x32DC JUMP JUMPDEST PUSH2 0xC04 JUMP JUMPDEST PUSH2 0x302 PUSH2 0x367 CALLDATASIZE PUSH1 0x4 PUSH2 0x3375 JUMP JUMPDEST PUSH2 0xFFD JUMP JUMPDEST CALLVALUE DUP1 ISZERO PUSH2 0x378 JUMPI PUSH1 0x0 DUP1 REVERT JUMPDEST POP PUSH2 0x2B2 PUSH2 0x10CE JUMP JUMPDEST CALLVALUE DUP1 ISZERO PUSH2 0x38D JUMPI PUSH1 0x0 DUP1 REVERT JUMPDEST POP PUSH2 0x2B2 PUSH1 0xCF SLOAD DUP2 JUMP JUMPDEST CALLVALUE DUP1 ISZERO PUSH2 0x3A3 JUMPI PUSH1 0x0 DUP1 REVERT JUMPDEST POP PUSH2 0x3D0 PUSH2 0x3B2 CALLDATASIZE PUSH1 0x4 PUSH2 0x32C1 JUMP JUMPDEST PUSH1 0x1 PUSH1 0x1 PUSH1 0xA0 SHL SUB SWAP1 DUP2 AND PUSH1 0x0 SWAP1 DUP2 MSTORE PUSH1 0xD2 PUSH1 0x20 MSTORE PUSH1 0x40 SWAP1 KECCAK256 SLOAD AND SWAP1 JUMP JUMPDEST PUSH1 0x40 MLOAD PUSH1 0x1 PUSH1 0x1 PUSH1 0xA0 SHL SUB SWAP1 SWAP2 AND DUP2 MSTORE PUSH1 0x20 ADD PUSH2 0x236 JUMP JUMPDEST CALLVALUE DUP1 ISZERO PUSH2 0x3F4 JUMPI PUSH1 0x0 DUP1 REVERT JUMPDEST POP PUSH2 0x302 PUSH2 0x403 CALLDATASIZE PUSH1 0x4 PUSH2 0x32C1 JUMP JUMPDEST PUSH2 0x1181 JUMP JUMPDEST CALLVALUE DUP1 ISZERO PUSH2 0x414 JUMPI PUSH1 0x0 DUP1 REVERT JUMPDEST POP PUSH2 0x46D PUSH2 0x423 CALLDATASIZE PUSH1 0x4 PUSH2 0x32C1 JUMP JUMPDEST PUSH1 0x40 DUP1 MLOAD DUP1 DUP3 ADD SWAP1 SWAP2 MSTORE PUSH1 0x0 DUP1 DUP3 MSTORE PUSH1 0x20 DUP3 ADD MSTORE POP PUSH1 0x1 PUSH1 0x1 PUSH1 0xA0 SHL SUB AND PUSH1 0x0 SWAP1 DUP2 MSTORE PUSH1 0xD0 PUSH1 0x20 SWAP1 DUP2 MSTORE PUSH1 0x40 SWAP2 DUP3 SWAP1 KECCAK256 DUP3 MLOAD DUP1 DUP5 ADD SWAP1 SWAP4 MSTORE DUP1 SLOAD PUSH1 0xF SIGNEXTEND DUP4 MSTORE PUSH1 0x1 ADD SLOAD SWAP1 DUP3 ADD MSTORE SWAP1 JUMP JUMPDEST PUSH1 0x40 DUP1 MLOAD DUP3 MLOAD PUSH1 0xF SIGNEXTEND DUP2 MSTORE PUSH1 0x20 SWAP3 DUP4 ADD MLOAD SWAP3 DUP2 ADD SWAP3 SWAP1 SWAP3 MSTORE ADD PUSH2 0x236 JUMP JUMPDEST CALLVALUE DUP1 ISZERO PUSH2 0x497 JUMPI PUSH1 0x0 DUP1 REVERT JUMPDEST POP PUSH2 0x25F PUSH2 0x4A6 CALLDATASIZE PUSH1 0x4 PUSH2 0x341A JUMP JUMPDEST PUSH2 0x11C9 JUMP JUMPDEST CALLVALUE DUP1 ISZERO PUSH2 0x4B7 JUMPI PUSH1 0x0 DUP1 REVERT JUMPDEST POP PUSH2 0x4CB PUSH2 0x4C6 CALLDATASIZE PUSH1 0x4 PUSH2 0x32C1 JUMP JUMPDEST PUSH2 0x11EA JUMP JUMPDEST PUSH1 0x40 MLOAD PUSH4 0xFFFFFFFF SWAP1 SWAP2 AND DUP2 MSTORE PUSH1 0x20 ADD PUSH2 0x236 JUMP JUMPDEST CALLVALUE DUP1 ISZERO PUSH2 0x4EC JUMPI PUSH1 0x0 DUP1 REVERT JUMPDEST POP PUSH2 0x2B2 PUSH2 0x4FB CALLDATASIZE PUSH1 0x4 PUSH2 0x32C1 JUMP JUMPDEST PUSH2 0x120C JUMP JUMPDEST CALLVALUE DUP1 ISZERO PUSH2 0x50C JUMPI PUSH1 0x0 DUP1 REVERT JUMPDEST POP PUSH2 0x302 PUSH2 0x12FF JUMP JUMPDEST CALLVALUE DUP1 ISZERO PUSH2 0x521 JUMPI PUSH1 0x0 DUP1 REVERT JUMPDEST POP PUSH1 0x33 SLOAD PUSH1 0x1 PUSH1 0x1 PUSH1 0xA0 SHL SUB AND PUSH2 0x3D0 JUMP JUMPDEST CALLVALUE DUP1 ISZERO PUSH2 0x53F JUMPI PUSH1 0x0 DUP1 REVERT JUMPDEST POP PUSH2 0x2B2 PUSH2 0x54E CALLDATASIZE PUSH1 0x4 PUSH2 0x3435 JUMP JUMPDEST PUSH2 0x1335 JUMP JUMPDEST CALLVALUE DUP1 ISZERO PUSH2 0x55F JUMPI PUSH1 0x0 DUP1 REVERT JUMPDEST POP PUSH2 0x2B2 PUSH1 0x4 DUP2 JUMP JUMPDEST CALLVALUE DUP1 ISZERO PUSH2 0x574 JUMPI PUSH1 0x0 DUP1 REVERT JUMPDEST POP PUSH2 0x25F PUSH2 0x1340 JUMP JUMPDEST CALLVALUE DUP1 ISZERO PUSH2 0x589 JUMPI PUSH1 0x0 DUP1 REVERT JUMPDEST POP PUSH2 0x229 PUSH2 0x13B8 JUMP JUMPDEST CALLVALUE DUP1 ISZERO PUSH2 0x59E JUMPI PUSH1 0x0 DUP1 REVERT JUMPDEST POP PUSH2 0x2B2 PUSH2 0x5AD CALLDATASIZE PUSH1 0x4 PUSH2 0x3435 JUMP JUMPDEST PUSH2 0x13C7 JUMP JUMPDEST CALLVALUE DUP1 ISZERO PUSH2 0x5BE JUMPI PUSH1 0x0 DUP1 REVERT JUMPDEST POP PUSH2 0x2B2 PUSH2 0x5CD CALLDATASIZE PUSH1 0x4 PUSH2 0x32C1 JUMP JUMPDEST PUSH2 0x166C JUMP JUMPDEST CALLVALUE DUP1 ISZERO PUSH2 0x5DE JUMPI PUSH1 0x0 DUP1 REVERT JUMPDEST POP PUSH2 0x302 PUSH2 0x5ED CALLDATASIZE PUSH1 0x4 PUSH2 0x344E JUMP JUMPDEST PUSH2 0x1677 JUMP JUMPDEST CALLVALUE DUP1 ISZERO PUSH2 0x5FE JUMPI PUSH1 0x0 DUP1 REVERT JUMPDEST POP PUSH2 0x302 PUSH2 0x19E1 JUMP JUMPDEST CALLVALUE DUP1 ISZERO PUSH2 0x613 JUMPI PUSH1 0x0 DUP1 REVERT JUMPDEST POP PUSH2 0x302 PUSH2 0x622 CALLDATASIZE PUSH1 0x4 PUSH2 0x347F JUMP JUMPDEST PUSH2 0x19EC JUMP JUMPDEST CALLVALUE DUP1 ISZERO PUSH2 0x633 JUMPI PUSH1 0x0 DUP1 REVERT JUMPDEST POP PUSH2 0x302 PUSH2 0x642 CALLDATASIZE PUSH1 0x4 PUSH2 0x32C1 JUMP JUMPDEST PUSH2 0x1A45 JUMP JUMPDEST CALLVALUE DUP1 ISZERO PUSH2 0x653 JUMPI PUSH1 0x0 DUP1 REVERT JUMPDEST POP PUSH1 0xCE SLOAD PUSH2 0x2B2 JUMP JUMPDEST CALLVALUE DUP1 ISZERO PUSH2 0x668 JUMPI PUSH1 0x0 DUP1 REVERT JUMPDEST POP PUSH2 0x697 PUSH2 0x677 CALLDATASIZE PUSH1 0x4 PUSH2 0x32C1 JUMP JUMPDEST PUSH1 0xD0 PUSH1 0x20 MSTORE PUSH1 0x0 SWAP1 DUP2 MSTORE PUSH1 0x40 SWAP1 KECCAK256 DUP1 SLOAD PUSH1 0x1 SWAP1 SWAP2 ADD SLOAD PUSH1 0xF SWAP2 SWAP1 SWAP2 SIGNEXTEND SWAP1 DUP3 JUMP JUMPDEST PUSH1 0x40 DUP1 MLOAD PUSH1 0xF SWAP4 SWAP1 SWAP4 SIGNEXTEND DUP4 MSTORE PUSH1 0x20 DUP4 ADD SWAP2 SWAP1 SWAP2 MSTORE ADD PUSH2 0x236 JUMP JUMPDEST CALLVALUE DUP1 ISZERO PUSH2 0x6BD JUMPI PUSH1 0x0 DUP1 REVERT JUMPDEST POP PUSH2 0x2B2 PUSH2 0x6CC CALLDATASIZE PUSH1 0x4 PUSH2 0x32C1 JUMP JUMPDEST PUSH1 0xCD PUSH1 0x20 MSTORE PUSH1 0x0 SWAP1 DUP2 MSTORE PUSH1 0x40 SWAP1 KECCAK256 SLOAD DUP2 JUMP JUMPDEST CALLVALUE DUP1 ISZERO PUSH2 0x6EA JUMPI PUSH1 0x0 DUP1 REVERT JUMPDEST POP PUSH2 0x25F PUSH2 0x6F9 CALLDATASIZE PUSH1 0x4 PUSH2 0x34D9 JUMP JUMPDEST PUSH2 0x1E00 JUMP JUMPDEST CALLVALUE DUP1 ISZERO PUSH2 0x70A JUMPI PUSH1 0x0 DUP1 REVERT JUMPDEST POP PUSH2 0x302 PUSH2 0x719 CALLDATASIZE PUSH1 0x4 PUSH2 0x32C1 JUMP JUMPDEST PUSH2 0x1E8B JUMP JUMPDEST CALLVALUE DUP1 ISZERO PUSH2 0x72A JUMPI PUSH1 0x0 DUP1 REVERT JUMPDEST POP PUSH2 0x74E PUSH2 0x739 CALLDATASIZE PUSH1 0x4 PUSH2 0x3435 JUMP JUMPDEST PUSH1 0xD1 PUSH1 0x20 MSTORE PUSH1 0x0 SWAP1 DUP2 MSTORE PUSH1 0x40 SWAP1 KECCAK256 SLOAD PUSH1 0xF SIGNEXTEND DUP2 JUMP JUMPDEST PUSH1 0x40 MLOAD PUSH1 0xF SWAP2 SWAP1 SWAP2 SIGNEXTEND DUP2 MSTORE PUSH1 0x20 ADD PUSH2 0x236 JUMP JUMPDEST CALLVALUE DUP1 ISZERO PUSH2 0x76D JUMPI PUSH1 0x0 DUP1 REVERT JUMPDEST POP PUSH2 0x2B2 PUSH4 0x784CE00 DUP2 JUMP JUMPDEST PUSH1 0x60 PUSH1 0xC9 DUP1 SLOAD PUSH2 0x788 SWAP1 PUSH2 0x350C JUMP JUMPDEST DUP1 PUSH1 0x1F ADD PUSH1 0x20 DUP1 SWAP2 DIV MUL PUSH1 0x20 ADD PUSH1 0x40 MLOAD SWAP1 DUP2 ADD PUSH1 0x40 MSTORE DUP1 SWAP3 SWAP2 SWAP1 DUP2 DUP2 MSTORE PUSH1 0x20 ADD DUP3 DUP1 SLOAD PUSH2 0x7B4 SWAP1 PUSH2 0x350C JUMP JUMPDEST DUP1 ISZERO PUSH2 0x801 JUMPI DUP1 PUSH1 0x1F LT PUSH2 0x7D6 JUMPI PUSH2 0x100 DUP1 DUP4 SLOAD DIV MUL DUP4 MSTORE SWAP2 PUSH1 0x20 ADD SWAP2 PUSH2 0x801 JUMP JUMPDEST DUP3 ADD SWAP2 SWAP1 PUSH1 0x0 MSTORE PUSH1 0x20 PUSH1 0x0 KECCAK256 SWAP1 JUMPDEST DUP2 SLOAD DUP2 MSTORE SWAP1 PUSH1 0x1 ADD SWAP1 PUSH1 0x20 ADD DUP1 DUP4 GT PUSH2 0x7E4 JUMPI DUP3 SWAP1 SUB PUSH1 0x1F AND DUP3 ADD SWAP2 JUMPDEST POP POP POP POP POP SWAP1 POP SWAP1 JUMP JUMPDEST PUSH2 0x813 PUSH2 0x3188 JUMP JUMPDEST PUSH1 0x1 PUSH1 0x1 PUSH1 0xA0 SHL SUB DUP3 AND PUSH1 0x0 SWAP1 DUP2 MSTORE PUSH1 0xCC PUSH1 0x20 MSTORE PUSH1 0x40 SWAP1 KECCAK256 DUP1 SLOAD PUSH2 0x839 SWAP1 PUSH1 0x1 SWAP1 PUSH2 0x355D JUMP JUMPDEST DUP2 SLOAD DUP2 LT PUSH2 0x849 JUMPI PUSH2 0x849 PUSH2 0x3574 JUMP JUMPDEST PUSH1 0x0 SWAP2 DUP3 MSTORE PUSH1 0x20 SWAP2 DUP3 SWAP1 KECCAK256 PUSH1 0x40 DUP1 MLOAD PUSH1 0x80 DUP2 ADD DUP3 MSTORE PUSH1 0x3 SWAP1 SWAP4 MUL SWAP1 SWAP2 ADD DUP1 SLOAD PUSH1 0xF DUP2 DUP2 SIGNEXTEND DUP6 MSTORE PUSH1 0x1 PUSH1 0x80 SHL SWAP1 SWAP2 DIV SWAP1 SIGNEXTEND SWAP4 DUP4 ADD SWAP4 SWAP1 SWAP4 MSTORE PUSH1 0x1 DUP4 ADD SLOAD SWAP1 DUP3 ADD MSTORE PUSH1 0x2 SWAP1 SWAP2 ADD SLOAD PUSH1 0x60 DUP3 ADD MSTORE SWAP3 SWAP2 POP POP JUMP JUMPDEST PUSH1 0xCE SLOAD PUSH1 0x0 SWAP1 PUSH2 0x8AA JUMPI POP PUSH1 0x0 SWAP1 JUMP JUMPDEST PUSH1 0x0 PUSH1 0xCE PUSH1 0xCF SLOAD DUP2 SLOAD DUP2 LT PUSH2 0x8C1 JUMPI PUSH2 0x8C1 PUSH2 0x3574 JUMP JUMPDEST PUSH1 0x0 SWAP2 DUP3 MSTORE PUSH1 0x20 SWAP2 DUP3 SWAP1 KECCAK256 PUSH1 0x40 DUP1 MLOAD PUSH1 0x80 DUP2 ADD DUP3 MSTORE PUSH1 0x3 SWAP1 SWAP4 MUL SWAP1 SWAP2 ADD DUP1 SLOAD PUSH1 0xF DUP2 DUP2 SIGNEXTEND DUP6 MSTORE PUSH1 0x1 PUSH1 0x80 SHL SWAP1 SWAP2 DIV SWAP1 SIGNEXTEND SWAP4 DUP4 ADD SWAP4 SWAP1 SWAP4 MSTORE PUSH1 0x1 DUP4 ADD SLOAD SWAP1 DUP3 ADD MSTORE PUSH1 0x2 SWAP1 SWAP2 ADD SLOAD PUSH1 0x60 DUP3 ADD MSTORE SWAP1 POP PUSH2 0x918 DUP2 TIMESTAMP PUSH2 0x1F32 JUMP JUMPDEST SWAP2 POP POP SWAP1 JUMP JUMPDEST ADDRESS PUSH1 0x1 PUSH1 0x1 PUSH1 0xA0 SHL SUB PUSH32 0x0 AND EQ ISZERO PUSH2 0x970 JUMPI PUSH1 0x40 MLOAD PUSH3 0x461BCD PUSH1 0xE5 SHL DUP2 MSTORE PUSH1 0x4 ADD PUSH2 0x967 SWAP1 PUSH2 0x358A JUMP JUMPDEST PUSH1 0x40 MLOAD DUP1 SWAP2 SUB SWAP1 REVERT JUMPDEST PUSH32 0x0 PUSH1 0x1 PUSH1 0x1 PUSH1 0xA0 SHL SUB AND PUSH2 0x9B9 PUSH1 0x0 DUP1 MLOAD PUSH1 0x20 PUSH2 0x3A49 DUP4 CODECOPY DUP2 MLOAD SWAP2 MSTORE SLOAD PUSH1 0x1 PUSH1 0x1 PUSH1 0xA0 SHL SUB AND SWAP1 JUMP JUMPDEST PUSH1 0x1 PUSH1 0x1 PUSH1 0xA0 SHL SUB AND EQ PUSH2 0x9DF JUMPI PUSH1 0x40 MLOAD PUSH3 0x461BCD PUSH1 0xE5 SHL DUP2 MSTORE PUSH1 0x4 ADD PUSH2 0x967 SWAP1 PUSH2 0x35D6 JUMP JUMPDEST PUSH2 0x9E8 DUP2 PUSH2 0x2010 JUMP JUMPDEST PUSH1 0x40 DUP1 MLOAD PUSH1 0x0 DUP1 DUP3 MSTORE PUSH1 0x20 DUP3 ADD SWAP1 SWAP3 MSTORE PUSH2 0xA04 SWAP2 DUP4 SWAP2 SWAP1 PUSH2 0x203A JUMP JUMPDEST POP JUMP JUMPDEST PUSH1 0x0 PUSH2 0xA13 DUP4 DUP4 PUSH2 0xC04 JUMP JUMPDEST SWAP1 POP JUMPDEST SWAP3 SWAP2 POP POP JUMP JUMPDEST PUSH1 0x40 DUP1 MLOAD DUP1 DUP3 ADD DUP3 MSTORE CALLER PUSH1 0x0 DUP2 DUP2 MSTORE PUSH1 0xD0 PUSH1 0x20 DUP2 DUP2 MSTORE DUP6 DUP4 KECCAK256 DUP1 SLOAD PUSH1 0xF SIGNEXTEND DUP7 MSTORE SWAP4 SWAP1 SWAP3 MSTORE DUP2 MSTORE PUSH1 0x1 SWAP1 SWAP2 ADD SLOAD DUP2 DUP4 ADD DUP2 DUP2 MSTORE DUP5 MLOAD DUP1 DUP7 ADD SWAP1 SWAP6 MSTORE PUSH1 0x12 DUP6 MSTORE PUSH18 0x2637B1B5BAB81032BC3834B932B99030BA1 PUSH1 0x75 SHL SWAP3 DUP6 ADD SWAP3 SWAP1 SWAP3 MSTORE SWAP1 MLOAD SWAP2 SWAP3 TIMESTAMP SWAP2 SWAP1 SWAP2 LT ISZERO SWAP2 PUSH2 0xA8B SWAP1 PUSH2 0x21AA JUMP JUMPDEST PUSH1 0x40 MLOAD DUP1 PUSH1 0x40 ADD PUSH1 0x40 MSTORE DUP1 PUSH1 0x9 DUP2 MSTORE PUSH1 0x20 ADD PUSH9 0x16103737BB9034B99 PUSH1 0xBD SHL DUP2 MSTORE POP PUSH2 0xAB6 TIMESTAMP PUSH2 0x21AA JUMP JUMPDEST PUSH1 0x40 MLOAD PUSH1 0x20 ADD PUSH2 0xAC9 SWAP5 SWAP4 SWAP3 SWAP2 SWAP1 PUSH2 0x3622 JUMP JUMPDEST PUSH1 0x40 MLOAD PUSH1 0x20 DUP2 DUP4 SUB SUB DUP2 MSTORE SWAP1 PUSH1 0x40 MSTORE SWAP1 PUSH2 0xAF6 JUMPI PUSH1 0x40 MLOAD PUSH3 0x461BCD PUSH1 0xE5 SHL DUP2 MSTORE PUSH1 0x4 ADD PUSH2 0x967 SWAP2 SWAP1 PUSH2 0x3272 JUMP JUMPDEST POP PUSH1 0x0 DUP2 PUSH1 0x0 ADD MLOAD PUSH1 0xF SIGNEXTEND SGT PUSH2 0xB45 JUMPI PUSH1 0x40 MLOAD PUSH3 0x461BCD PUSH1 0xE5 SHL DUP2 MSTORE PUSH1 0x20 PUSH1 0x4 DUP3 ADD MSTORE PUSH1 0x14 PUSH1 0x24 DUP3 ADD MSTORE PUSH20 0x4C6F636B757020686173206E6F20746F6B656E73 PUSH1 0x60 SHL PUSH1 0x44 DUP3 ADD MSTORE PUSH1 0x64 ADD PUSH2 0x967 JUMP JUMPDEST PUSH1 0x40 DUP1 MLOAD DUP1 DUP3 ADD DUP3 MSTORE PUSH1 0x0 DUP1 DUP3 MSTORE PUSH1 0x20 DUP1 DUP4 ADD DUP3 DUP2 MSTORE CALLER DUP4 MSTORE PUSH1 0xD0 SWAP1 SWAP2 MSTORE SWAP3 DUP2 KECCAK256 DUP3 MLOAD DUP2 SLOAD PUSH1 0x1 PUSH1 0x1 PUSH1 0x80 SHL SUB NOT AND PUSH1 0x1 PUSH1 0x1 PUSH1 0x80 SHL SUB SWAP1 SWAP2 AND OR DUP2 SSTORE SWAP3 MLOAD PUSH1 0x1 SWAP1 SWAP4 ADD SWAP3 SWAP1 SWAP3 SSTORE DUP3 MLOAD SWAP1 SWAP2 SWAP1 PUSH2 0xB9E SWAP1 PUSH1 0xF SIGNEXTEND PUSH2 0x22A8 JUMP JUMPDEST PUSH1 0xD3 SLOAD SWAP1 SWAP2 POP PUSH2 0xBB8 SWAP1 PUSH1 0x1 PUSH1 0x1 PUSH1 0xA0 SHL SUB AND CALLER DUP4 PUSH2 0x22FE JUMP JUMPDEST PUSH2 0xBC3 CALLER DUP5 DUP5 PUSH2 0x2361 JUMP JUMPDEST POP POP PUSH1 0x40 DUP1 MLOAD DUP3 DUP2 MSTORE TIMESTAMP PUSH1 0x20 DUP3 ADD MSTORE CALLER SWAP2 PUSH32 0xF279E6A1F5E320CCA91135676D9CB6E44CA8A08C0B88342BCDB1144F6511B568 SWAP2 ADD PUSH1 0x40 MLOAD DUP1 SWAP2 SUB SWAP1 LOG2 POP POP POP JUMP JUMPDEST PUSH1 0x0 NUMBER DUP3 GT ISZERO PUSH2 0xC56 JUMPI PUSH1 0x40 MLOAD PUSH3 0x461BCD PUSH1 0xE5 SHL DUP2 MSTORE PUSH1 0x20 PUSH1 0x4 DUP3 ADD MSTORE PUSH1 0x1D PUSH1 0x24 DUP3 ADD MSTORE PUSH32 0x426C6F636B206E756D62657220697320696E2074686520667574757265000000 PUSH1 0x44 DUP3 ADD MSTORE PUSH1 0x64 ADD PUSH2 0x967 JUMP JUMPDEST PUSH1 0x1 PUSH1 0x1 PUSH1 0xA0 SHL SUB DUP4 AND PUSH1 0x0 SWAP1 DUP2 MSTORE PUSH1 0xCC PUSH1 0x20 SWAP1 DUP2 MSTORE PUSH1 0x40 DUP1 DUP4 KECCAK256 DUP1 SLOAD DUP3 MLOAD DUP2 DUP6 MUL DUP2 ADD DUP6 ADD SWAP1 SWAP4 MSTORE DUP1 DUP4 MSTORE PUSH2 0xD0D SWAP4 DUP6 SWAP1 DUP5 ADD JUMPDEST DUP3 DUP3 LT ISZERO PUSH2 0xCE9 JUMPI PUSH1 0x0 DUP5 DUP2 MSTORE PUSH1 0x20 SWAP1 DUP2 SWAP1 KECCAK256 PUSH1 0x40 DUP1 MLOAD PUSH1 0x80 DUP2 ADD DUP3 MSTORE PUSH1 0x3 DUP7 MUL SWAP1 SWAP3 ADD DUP1 SLOAD PUSH1 0xF DUP2 DUP2 SIGNEXTEND DUP6 MSTORE PUSH1 0x1 PUSH1 0x80 SHL SWAP1 SWAP2 DIV SWAP1 SIGNEXTEND DUP4 DUP6 ADD MSTORE PUSH1 0x1 DUP1 DUP3 ADD SLOAD SWAP3 DUP5 ADD SWAP3 SWAP1 SWAP3 MSTORE PUSH1 0x2 ADD SLOAD PUSH1 0x60 DUP4 ADD MSTORE SWAP1 DUP4 MSTORE SWAP1 SWAP3 ADD SWAP2 ADD PUSH2 0xC8B JUMP JUMPDEST POP POP POP PUSH1 0x1 PUSH1 0x1 PUSH1 0xA0 SHL SUB DUP8 AND PUSH1 0x0 SWAP1 DUP2 MSTORE PUSH1 0xCD PUSH1 0x20 MSTORE PUSH1 0x40 SWAP1 KECCAK256 SLOAD DUP7 SWAP2 POP PUSH2 0x26A8 JUMP JUMPDEST SWAP1 POP DUP1 PUSH2 0xD1E JUMPI PUSH1 0x0 SWAP2 POP POP PUSH2 0xA16 JUMP JUMPDEST PUSH1 0x1 PUSH1 0x1 PUSH1 0xA0 SHL SUB DUP5 AND PUSH1 0x0 SWAP1 DUP2 MSTORE PUSH1 0xCC PUSH1 0x20 MSTORE PUSH1 0x40 DUP2 KECCAK256 DUP1 SLOAD DUP4 SWAP1 DUP2 LT PUSH2 0xD48 JUMPI PUSH2 0xD48 PUSH2 0x3574 JUMP JUMPDEST PUSH1 0x0 SWAP2 DUP3 MSTORE PUSH1 0x20 DUP1 DUP4 KECCAK256 PUSH1 0x40 DUP1 MLOAD PUSH1 0x80 DUP2 ADD DUP3 MSTORE PUSH1 0x3 SWAP1 SWAP5 MUL SWAP1 SWAP2 ADD DUP1 SLOAD PUSH1 0xF DUP2 DUP2 SIGNEXTEND DUP7 MSTORE PUSH1 0x1 PUSH1 0x80 SHL SWAP1 SWAP2 DIV SWAP1 SIGNEXTEND DUP5 DUP5 ADD MSTORE PUSH1 0x1 DUP2 ADD SLOAD DUP5 DUP4 ADD MSTORE PUSH1 0x2 ADD SLOAD PUSH1 0x60 DUP5 ADD MSTORE PUSH1 0xCE DUP1 SLOAD DUP3 MLOAD DUP2 DUP6 MUL DUP2 ADD DUP6 ADD SWAP1 SWAP4 MSTORE DUP1 DUP4 MSTORE SWAP4 SWAP6 POP PUSH2 0xE1C SWAP4 SWAP2 SWAP3 SWAP1 SWAP2 SWAP1 DUP6 SWAP1 DUP5 ADD JUMPDEST DUP3 DUP3 LT ISZERO PUSH2 0xE0F JUMPI PUSH1 0x0 DUP5 DUP2 MSTORE PUSH1 0x20 SWAP1 DUP2 SWAP1 KECCAK256 PUSH1 0x40 DUP1 MLOAD PUSH1 0x80 DUP2 ADD DUP3 MSTORE PUSH1 0x3 DUP7 MUL SWAP1 SWAP3 ADD DUP1 SLOAD PUSH1 0xF DUP2 DUP2 SIGNEXTEND DUP6 MSTORE PUSH1 0x1 PUSH1 0x80 SHL SWAP1 SWAP2 DIV SWAP1 SIGNEXTEND DUP4 DUP6 ADD MSTORE PUSH1 0x1 DUP1 DUP3 ADD SLOAD SWAP3 DUP5 ADD SWAP3 SWAP1 SWAP3 MSTORE PUSH1 0x2 ADD SLOAD PUSH1 0x60 DUP4 ADD MSTORE SWAP1 DUP4 MSTORE SWAP1 SWAP3 ADD SWAP2 ADD PUSH2 0xDB1 JUMP JUMPDEST POP POP POP POP DUP7 PUSH1 0xCF SLOAD PUSH2 0x26A8 JUMP JUMPDEST SWAP1 POP PUSH1 0x0 PUSH1 0xCE DUP3 DUP2 SLOAD DUP2 LT PUSH2 0xE33 JUMPI PUSH2 0xE33 PUSH2 0x3574 JUMP JUMPDEST PUSH1 0x0 SWAP2 DUP3 MSTORE PUSH1 0x20 DUP1 DUP4 KECCAK256 PUSH1 0x40 DUP1 MLOAD PUSH1 0x80 DUP2 ADD DUP3 MSTORE PUSH1 0x3 SWAP1 SWAP5 MUL SWAP1 SWAP2 ADD DUP1 SLOAD PUSH1 0xF DUP2 DUP2 SIGNEXTEND DUP7 MSTORE PUSH1 0x1 PUSH1 0x80 SHL SWAP1 SWAP2 DIV SWAP1 SIGNEXTEND SWAP3 DUP5 ADD SWAP3 SWAP1 SWAP3 MSTORE PUSH1 0x1 DUP3 ADD SLOAD SWAP1 DUP4 ADD MSTORE PUSH1 0x2 ADD SLOAD PUSH1 0x60 DUP3 ADD MSTORE PUSH1 0xCF SLOAD SWAP1 SWAP3 POP DUP2 SWAP1 DUP5 LT ISZERO PUSH2 0xF25 JUMPI PUSH1 0x0 PUSH1 0xCE PUSH2 0xE99 DUP7 PUSH1 0x1 PUSH2 0x3679 JUMP JUMPDEST DUP2 SLOAD DUP2 LT PUSH2 0xEA9 JUMPI PUSH2 0xEA9 PUSH2 0x3574 JUMP JUMPDEST PUSH1 0x0 SWAP2 DUP3 MSTORE PUSH1 0x20 SWAP2 DUP3 SWAP1 KECCAK256 PUSH1 0x40 DUP1 MLOAD PUSH1 0x80 DUP2 ADD DUP3 MSTORE PUSH1 0x3 SWAP1 SWAP4 MUL SWAP1 SWAP2 ADD DUP1 SLOAD PUSH1 0xF DUP2 DUP2 SIGNEXTEND DUP6 MSTORE PUSH1 0x1 PUSH1 0x80 SHL SWAP1 SWAP2 DIV SWAP1 SIGNEXTEND SWAP4 DUP4 ADD SWAP4 SWAP1 SWAP4 MSTORE PUSH1 0x1 DUP4 ADD SLOAD SWAP1 DUP3 ADD MSTORE PUSH1 0x2 SWAP1 SWAP2 ADD SLOAD PUSH1 0x60 DUP1 DUP4 ADD DUP3 SWAP1 MSTORE DUP7 ADD MLOAD SWAP2 SWAP3 POP PUSH2 0xF07 SWAP2 SWAP1 PUSH2 0x355D JUMP JUMPDEST SWAP3 POP DUP4 PUSH1 0x40 ADD MLOAD DUP2 PUSH1 0x40 ADD MLOAD PUSH2 0xF1D SWAP2 SWAP1 PUSH2 0x355D JUMP JUMPDEST SWAP2 POP POP PUSH2 0xF49 JUMP JUMPDEST PUSH1 0x60 DUP4 ADD MLOAD PUSH2 0xF34 SWAP1 NUMBER PUSH2 0x355D JUMP JUMPDEST SWAP2 POP DUP3 PUSH1 0x40 ADD MLOAD TIMESTAMP PUSH2 0xF46 SWAP2 SWAP1 PUSH2 0x355D JUMP JUMPDEST SWAP1 POP JUMPDEST PUSH1 0x40 DUP4 ADD MLOAD DUP3 ISZERO PUSH2 0xF86 JUMPI DUP3 DUP5 PUSH1 0x60 ADD MLOAD DUP11 PUSH2 0xF65 SWAP2 SWAP1 PUSH2 0x355D JUMP JUMPDEST PUSH2 0xF6F SWAP1 DUP5 PUSH2 0x3691 JUMP JUMPDEST PUSH2 0xF79 SWAP2 SWAP1 PUSH2 0x36C6 JUMP JUMPDEST PUSH2 0xF83 SWAP1 DUP3 PUSH2 0x3679 JUMP JUMPDEST SWAP1 POP JUMPDEST PUSH2 0xF9E DUP7 PUSH1 0x40 ADD MLOAD DUP3 PUSH2 0xF99 SWAP2 SWAP1 PUSH2 0x355D JUMP JUMPDEST PUSH2 0x2742 JUMP JUMPDEST DUP7 PUSH1 0x20 ADD MLOAD PUSH2 0xFAD SWAP2 SWAP1 PUSH2 0x36DA JUMP JUMPDEST DUP7 MLOAD DUP8 SWAP1 PUSH2 0xFBC SWAP1 DUP4 SWAP1 PUSH2 0x376F JUMP JUMPDEST PUSH1 0xF SWAP1 DUP2 SIGNEXTEND SWAP1 SWAP2 MSTORE DUP8 MLOAD PUSH1 0x0 SWAP2 SIGNEXTEND SLT SWAP1 POP PUSH2 0xFED JUMPI DUP6 MLOAD PUSH2 0xFDF SWAP1 PUSH1 0xF SIGNEXTEND PUSH2 0x22A8 JUMP JUMPDEST SWAP8 POP POP POP POP POP POP POP POP PUSH2 0xA16 JUMP JUMPDEST PUSH1 0x0 SWAP8 POP POP POP POP POP POP POP POP PUSH2 0xA16 JUMP JUMPDEST ADDRESS PUSH1 0x1 PUSH1 0x1 PUSH1 0xA0 SHL SUB PUSH32 0x0 AND EQ ISZERO PUSH2 0x1046 JUMPI PUSH1 0x40 MLOAD PUSH3 0x461BCD PUSH1 0xE5 SHL DUP2 MSTORE PUSH1 0x4 ADD PUSH2 0x967 SWAP1 PUSH2 0x358A JUMP JUMPDEST PUSH32 0x0 PUSH1 0x1 PUSH1 0x1 PUSH1 0xA0 SHL SUB AND PUSH2 0x108F PUSH1 0x0 DUP1 MLOAD PUSH1 0x20 PUSH2 0x3A49 DUP4 CODECOPY DUP2 MLOAD SWAP2 MSTORE SLOAD PUSH1 0x1 PUSH1 0x1 PUSH1 0xA0 SHL SUB AND SWAP1 JUMP JUMPDEST PUSH1 0x1 PUSH1 0x1 PUSH1 0xA0 SHL SUB AND EQ PUSH2 0x10B5 JUMPI PUSH1 0x40 MLOAD PUSH3 0x461BCD PUSH1 0xE5 SHL DUP2 MSTORE PUSH1 0x4 ADD PUSH2 0x967 SWAP1 PUSH2 0x35D6 JUMP JUMPDEST PUSH2 0x10BE DUP3 PUSH2 0x2010 JUMP JUMPDEST PUSH2 0x10CA DUP3 DUP3 PUSH1 0x1 PUSH2 0x203A JUMP JUMPDEST POP POP JUMP JUMPDEST PUSH1 0x0 ADDRESS PUSH1 0x1 PUSH1 0x1 PUSH1 0xA0 SHL SUB PUSH32 0x0 AND EQ PUSH2 0x116E JUMPI PUSH1 0x40 MLOAD PUSH3 0x461BCD PUSH1 0xE5 SHL DUP2 MSTORE PUSH1 0x20 PUSH1 0x4 DUP3 ADD MSTORE PUSH1 0x38 PUSH1 0x24 DUP3 ADD MSTORE PUSH32 0x555550535570677261646561626C653A206D757374206E6F742062652063616C PUSH1 0x44 DUP3 ADD MSTORE PUSH32 0x6C6564207468726F7567682064656C656761746563616C6C0000000000000000 PUSH1 0x64 DUP3 ADD MSTORE PUSH1 0x84 ADD PUSH2 0x967 JUMP JUMPDEST POP PUSH1 0x0 DUP1 MLOAD PUSH1 0x20 PUSH2 0x3A49 DUP4 CODECOPY DUP2 MLOAD SWAP2 MSTORE SWAP1 JUMP JUMPDEST PUSH1 0x40 MLOAD PUSH3 0x461BCD PUSH1 0xE5 SHL DUP2 MSTORE PUSH1 0x20 PUSH1 0x4 DUP3 ADD MSTORE PUSH1 0x1B PUSH1 0x24 DUP3 ADD MSTORE PUSH32 0x44656C65676174696F6E206973206E6F7420737570706F727465640000000000 PUSH1 0x44 DUP3 ADD MSTORE PUSH1 0x64 ADD PUSH2 0x967 JUMP JUMPDEST PUSH2 0x11D1 PUSH2 0x3188 JUMP JUMPDEST PUSH1 0xCE DUP3 PUSH4 0xFFFFFFFF AND DUP2 SLOAD DUP2 LT PUSH2 0x849 JUMPI PUSH2 0x849 PUSH2 0x3574 JUMP JUMPDEST PUSH1 0x1 PUSH1 0x1 PUSH1 0xA0 SHL SUB DUP2 AND PUSH1 0x0 SWAP1 DUP2 MSTORE PUSH1 0xCC PUSH1 0x20 MSTORE PUSH1 0x40 DUP2 KECCAK256 SLOAD PUSH2 0xA16 SWAP1 PUSH2 0x27BF JUMP JUMPDEST PUSH1 0x1 PUSH1 0x1 PUSH1 0xA0 SHL SUB DUP2 AND PUSH1 0x0 SWAP1 DUP2 MSTORE PUSH1 0xCD PUSH1 0x20 MSTORE PUSH1 0x40 DUP2 KECCAK256 SLOAD DUP1 PUSH2 0x1233 JUMPI POP PUSH1 0x0 SWAP3 SWAP2 POP POP JUMP JUMPDEST PUSH1 0x1 PUSH1 0x1 PUSH1 0xA0 SHL SUB DUP4 AND PUSH1 0x0 SWAP1 DUP2 MSTORE PUSH1 0xCC PUSH1 0x20 MSTORE PUSH1 0x40 DUP2 KECCAK256 DUP1 SLOAD DUP4 SWAP1 DUP2 LT PUSH2 0x125D JUMPI PUSH2 0x125D PUSH2 0x3574 JUMP JUMPDEST PUSH1 0x0 SWAP2 DUP3 MSTORE PUSH1 0x20 SWAP2 DUP3 SWAP1 KECCAK256 PUSH1 0x40 DUP1 MLOAD PUSH1 0x80 DUP2 ADD DUP3 MSTORE PUSH1 0x3 SWAP1 SWAP4 MUL SWAP1 SWAP2 ADD DUP1 SLOAD PUSH1 0xF DUP2 DUP2 SIGNEXTEND DUP6 MSTORE PUSH1 0x1 PUSH1 0x80 SHL SWAP1 SWAP2 DIV SWAP1 SIGNEXTEND SWAP4 DUP4 ADD SWAP4 SWAP1 SWAP4 MSTORE PUSH1 0x1 DUP4 ADD SLOAD SWAP1 DUP3 ADD DUP2 SWAP1 MSTORE PUSH1 0x2 SWAP1 SWAP3 ADD SLOAD PUSH1 0x60 DUP3 ADD MSTORE SWAP2 POP PUSH2 0x12BA SWAP1 PUSH2 0xF99 SWAP1 TIMESTAMP PUSH2 0x355D JUMP JUMPDEST DUP2 PUSH1 0x20 ADD MLOAD PUSH2 0x12C9 SWAP2 SWAP1 PUSH2 0x36DA JUMP JUMPDEST DUP2 MLOAD DUP3 SWAP1 PUSH2 0x12D8 SWAP1 DUP4 SWAP1 PUSH2 0x376F JUMP JUMPDEST PUSH1 0xF SIGNEXTEND SWAP1 MSTORE POP DUP1 MLOAD PUSH2 0x12F7 SWAP1 PUSH2 0x12EF SWAP1 PUSH1 0x0 PUSH2 0x2824 JUMP JUMPDEST PUSH1 0xF SIGNEXTEND PUSH2 0x22A8 JUMP JUMPDEST SWAP5 SWAP4 POP POP POP POP JUMP JUMPDEST PUSH1 0x33 SLOAD PUSH1 0x1 PUSH1 0x1 PUSH1 0xA0 SHL SUB AND CALLER EQ PUSH2 0x1329 JUMPI PUSH1 0x40 MLOAD PUSH3 0x461BCD PUSH1 0xE5 SHL DUP2 MSTORE PUSH1 0x4 ADD PUSH2 0x967 SWAP1 PUSH2 0x37BF JUMP JUMPDEST PUSH2 0x1333 PUSH1 0x0 PUSH2 0x2841 JUMP JUMPDEST JUMP JUMPDEST PUSH1 0x0 PUSH2 0xA16 DUP3 PUSH2 0x13C7 JUMP JUMPDEST PUSH2 0x1348 PUSH2 0x3188 JUMP JUMPDEST PUSH1 0xCE DUP1 SLOAD PUSH2 0x1358 SWAP1 PUSH1 0x1 SWAP1 PUSH2 0x355D JUMP JUMPDEST DUP2 SLOAD DUP2 LT PUSH2 0x1368 JUMPI PUSH2 0x1368 PUSH2 0x3574 JUMP JUMPDEST PUSH1 0x0 SWAP2 DUP3 MSTORE PUSH1 0x20 SWAP2 DUP3 SWAP1 KECCAK256 PUSH1 0x40 DUP1 MLOAD PUSH1 0x80 DUP2 ADD DUP3 MSTORE PUSH1 0x3 SWAP1 SWAP4 MUL SWAP1 SWAP2 ADD DUP1 SLOAD PUSH1 0xF DUP2 DUP2 SIGNEXTEND DUP6 MSTORE PUSH1 0x1 PUSH1 0x80 SHL SWAP1 SWAP2 DIV SWAP1 SIGNEXTEND SWAP4 DUP4 ADD SWAP4 SWAP1 SWAP4 MSTORE PUSH1 0x1 DUP4 ADD SLOAD SWAP1 DUP3 ADD MSTORE PUSH1 0x2 SWAP1 SWAP2 ADD SLOAD PUSH1 0x60 DUP3 ADD MSTORE SWAP2 SWAP1 POP JUMP JUMPDEST PUSH1 0x60 PUSH1 0xCA DUP1 SLOAD PUSH2 0x788 SWAP1 PUSH2 0x350C JUMP JUMPDEST PUSH1 0x0 NUMBER DUP3 GT ISZERO PUSH2 0x1419 JUMPI PUSH1 0x40 MLOAD PUSH3 0x461BCD PUSH1 0xE5 SHL DUP2 MSTORE PUSH1 0x20 PUSH1 0x4 DUP3 ADD MSTORE PUSH1 0x1D PUSH1 0x24 DUP3 ADD MSTORE PUSH32 0x426C6F636B206E756D62657220697320696E2074686520667574757265000000 PUSH1 0x44 DUP3 ADD MSTORE PUSH1 0x64 ADD PUSH2 0x967 JUMP JUMPDEST PUSH1 0x0 PUSH2 0x14AB PUSH1 0xCE DUP1 SLOAD DUP1 PUSH1 0x20 MUL PUSH1 0x20 ADD PUSH1 0x40 MLOAD SWAP1 DUP2 ADD PUSH1 0x40 MSTORE DUP1 SWAP3 SWAP2 SWAP1 DUP2 DUP2 MSTORE PUSH1 0x20 ADD PUSH1 0x0 SWAP1 JUMPDEST DUP3 DUP3 LT ISZERO PUSH2 0x149E JUMPI PUSH1 0x0 DUP5 DUP2 MSTORE PUSH1 0x20 SWAP1 DUP2 SWAP1 KECCAK256 PUSH1 0x40 DUP1 MLOAD PUSH1 0x80 DUP2 ADD DUP3 MSTORE PUSH1 0x3 DUP7 MUL SWAP1 SWAP3 ADD DUP1 SLOAD PUSH1 0xF DUP2 DUP2 SIGNEXTEND DUP6 MSTORE PUSH1 0x1 PUSH1 0x80 SHL SWAP1 SWAP2 DIV SWAP1 SIGNEXTEND DUP4 DUP6 ADD MSTORE PUSH1 0x1 DUP1 DUP3 ADD SLOAD SWAP3 DUP5 ADD SWAP3 SWAP1 SWAP3 MSTORE PUSH1 0x2 ADD SLOAD PUSH1 0x60 DUP4 ADD MSTORE SWAP1 DUP4 MSTORE SWAP1 SWAP3 ADD SWAP2 ADD PUSH2 0x1440 JUMP JUMPDEST POP POP POP POP DUP5 PUSH1 0xCF SLOAD PUSH2 0x26A8 JUMP JUMPDEST SWAP1 POP PUSH1 0x0 PUSH1 0xCE DUP3 DUP2 SLOAD DUP2 LT PUSH2 0x14C2 JUMPI PUSH2 0x14C2 PUSH2 0x3574 JUMP JUMPDEST PUSH1 0x0 SWAP2 DUP3 MSTORE PUSH1 0x20 SWAP2 DUP3 SWAP1 KECCAK256 PUSH1 0x40 DUP1 MLOAD PUSH1 0x80 DUP2 ADD DUP3 MSTORE PUSH1 0x3 SWAP1 SWAP4 MUL SWAP1 SWAP2 ADD DUP1 SLOAD PUSH1 0xF DUP2 DUP2 SIGNEXTEND DUP6 MSTORE PUSH1 0x1 PUSH1 0x80 SHL SWAP1 SWAP2 DIV SWAP1 SIGNEXTEND SWAP4 DUP4 ADD SWAP4 SWAP1 SWAP4 MSTORE PUSH1 0x1 DUP4 ADD SLOAD SWAP1 DUP3 ADD MSTORE PUSH1 0x2 SWAP1 SWAP2 ADD SLOAD PUSH1 0x60 DUP3 ADD DUP2 SWAP1 MSTORE SWAP1 SWAP2 POP DUP5 LT ISZERO PUSH2 0x1523 JUMPI POP PUSH1 0x0 SWAP4 SWAP3 POP POP POP JUMP JUMPDEST PUSH1 0x0 PUSH1 0xCF SLOAD DUP4 LT ISZERO PUSH2 0x15FB JUMPI PUSH1 0x0 PUSH1 0xCE PUSH2 0x153E DUP6 PUSH1 0x1 PUSH2 0x3679 JUMP JUMPDEST DUP2 SLOAD DUP2 LT PUSH2 0x154E JUMPI PUSH2 0x154E PUSH2 0x3574 JUMP JUMPDEST PUSH1 0x0 SWAP2 DUP3 MSTORE PUSH1 0x20 SWAP2 DUP3 SWAP1 KECCAK256 PUSH1 0x40 DUP1 MLOAD PUSH1 0x80 DUP2 ADD DUP3 MSTORE PUSH1 0x3 SWAP1 SWAP4 MUL SWAP1 SWAP2 ADD DUP1 SLOAD PUSH1 0xF DUP2 DUP2 SIGNEXTEND DUP6 MSTORE PUSH1 0x1 PUSH1 0x80 SHL SWAP1 SWAP2 DIV SWAP1 SIGNEXTEND SWAP4 DUP4 ADD SWAP4 SWAP1 SWAP4 MSTORE PUSH1 0x1 DUP4 ADD SLOAD SWAP1 DUP3 ADD MSTORE PUSH1 0x2 SWAP1 SWAP2 ADD SLOAD PUSH1 0x60 DUP1 DUP4 ADD DUP3 SWAP1 MSTORE DUP6 ADD MLOAD SWAP2 SWAP3 POP EQ PUSH2 0x15F5 JUMPI DUP3 PUSH1 0x60 ADD MLOAD DUP2 PUSH1 0x60 ADD MLOAD PUSH2 0x15BB SWAP2 SWAP1 PUSH2 0x355D JUMP JUMPDEST DUP4 PUSH1 0x40 ADD MLOAD DUP3 PUSH1 0x40 ADD MLOAD PUSH2 0x15CF SWAP2 SWAP1 PUSH2 0x355D JUMP JUMPDEST PUSH1 0x60 DUP6 ADD MLOAD PUSH2 0x15DE SWAP1 DUP10 PUSH2 0x355D JUMP JUMPDEST PUSH2 0x15E8 SWAP2 SWAP1 PUSH2 0x3691 JUMP JUMPDEST PUSH2 0x15F2 SWAP2 SWAP1 PUSH2 0x36C6 JUMP JUMPDEST SWAP2 POP JUMPDEST POP PUSH2 0x164A JUMP JUMPDEST NUMBER DUP3 PUSH1 0x60 ADD MLOAD EQ PUSH2 0x164A JUMPI PUSH1 0x60 DUP3 ADD MLOAD PUSH2 0x1615 SWAP1 NUMBER PUSH2 0x355D JUMP JUMPDEST PUSH1 0x40 DUP4 ADD MLOAD PUSH2 0x1624 SWAP1 TIMESTAMP PUSH2 0x355D JUMP JUMPDEST PUSH1 0x60 DUP5 ADD MLOAD PUSH2 0x1633 SWAP1 DUP9 PUSH2 0x355D JUMP JUMPDEST PUSH2 0x163D SWAP2 SWAP1 PUSH2 0x3691 JUMP JUMPDEST PUSH2 0x1647 SWAP2 SWAP1 PUSH2 0x36C6 JUMP JUMPDEST SWAP1 POP JUMPDEST PUSH2 0x1663 DUP3 DUP3 DUP5 PUSH1 0x40 ADD MLOAD PUSH2 0x165E SWAP2 SWAP1 PUSH2 0x3679 JUMP JUMPDEST PUSH2 0x1F32 JUMP JUMPDEST SWAP6 SWAP5 POP POP POP POP POP JUMP JUMPDEST PUSH1 0x0 PUSH2 0xA16 DUP3 PUSH2 0x120C JUMP JUMPDEST PUSH2 0x1680 DUP2 PUSH2 0x2893 JUMP JUMPDEST CALLER PUSH1 0x0 SWAP1 DUP2 MSTORE PUSH1 0xD0 PUSH1 0x20 SWAP1 DUP2 MSTORE PUSH1 0x40 SWAP2 DUP3 SWAP1 KECCAK256 DUP3 MLOAD DUP1 DUP5 ADD SWAP1 SWAP4 MSTORE DUP1 SLOAD PUSH1 0xF SIGNEXTEND DUP4 MSTORE PUSH1 0x1 ADD SLOAD SWAP1 DUP3 ADD MSTORE SWAP1 SWAP2 POP TIMESTAMP DUP3 GT PUSH2 0x1719 JUMPI PUSH1 0x40 MLOAD PUSH3 0x461BCD PUSH1 0xE5 SHL DUP2 MSTORE PUSH1 0x20 PUSH1 0x4 DUP3 ADD MSTORE PUSH1 0x34 PUSH1 0x24 DUP3 ADD MSTORE PUSH32 0x456E64206D7573742062652067726561746572207468616E2074686520637572 PUSH1 0x44 DUP3 ADD MSTORE PUSH20 0x72656E7420626C6F636B2074696D657374616D7 PUSH1 0x64 SHL PUSH1 0x64 DUP3 ADD MSTORE PUSH1 0x84 ADD PUSH2 0x967 JUMP JUMPDEST PUSH1 0x0 DUP2 PUSH1 0x20 ADD MLOAD GT DUP1 ISZERO PUSH2 0x1730 JUMPI POP DUP1 PUSH1 0x20 ADD MLOAD DUP3 LT JUMPDEST ISZERO PUSH2 0x179A JUMPI PUSH1 0x40 MLOAD PUSH3 0x461BCD PUSH1 0xE5 SHL DUP2 MSTORE PUSH1 0x20 PUSH1 0x4 DUP3 ADD MSTORE PUSH1 0x34 PUSH1 0x24 DUP3 ADD MSTORE PUSH32 0x456E64206D7573742062652067726561746572207468616E206F722065717561 PUSH1 0x44 DUP3 ADD MSTORE PUSH20 0x1B081D1BC81D1A194818DD5C9C995B9D08195B99 PUSH1 0x62 SHL PUSH1 0x64 DUP3 ADD MSTORE PUSH1 0x84 ADD PUSH2 0x967 JUMP JUMPDEST PUSH4 0x784CE00 PUSH2 0x17A9 TIMESTAMP DUP5 PUSH2 0x355D JUMP JUMPDEST GT ISZERO PUSH2 0x1806 JUMPI PUSH1 0x40 MLOAD PUSH3 0x461BCD PUSH1 0xE5 SHL DUP2 MSTORE PUSH1 0x20 PUSH1 0x4 DUP3 ADD MSTORE PUSH1 0x26 PUSH1 0x24 DUP3 ADD MSTORE PUSH32 0x456E64206D757374206265206265666F7265206D6178696D756D206C6F636B75 PUSH1 0x44 DUP3 ADD MSTORE PUSH6 0x702074696D65 PUSH1 0xD0 SHL PUSH1 0x64 DUP3 ADD MSTORE PUSH1 0x84 ADD PUSH2 0x967 JUMP JUMPDEST PUSH1 0x0 PUSH2 0x1811 DUP5 PUSH2 0x2742 JUMP JUMPDEST SWAP1 POP DUP2 PUSH1 0x0 ADD MLOAD PUSH1 0xF SIGNEXTEND DUP2 PUSH1 0xF SIGNEXTEND SLT ISZERO PUSH2 0x188C JUMPI PUSH1 0x40 MLOAD PUSH3 0x461BCD PUSH1 0xE5 SHL DUP2 MSTORE PUSH1 0x20 PUSH1 0x4 DUP3 ADD MSTORE PUSH1 0x36 PUSH1 0x24 DUP3 ADD MSTORE PUSH32 0x416D6F756E74206D7573742062652067726561746572207468616E206F722065 PUSH1 0x44 DUP3 ADD MSTORE PUSH22 0x1C5D585B081D1BC818DD5C9C995B9D08185B5BDD5B9D PUSH1 0x52 SHL PUSH1 0x64 DUP3 ADD MSTORE PUSH1 0x84 ADD PUSH2 0x967 JUMP JUMPDEST DUP2 MLOAD PUSH1 0x0 SWAP1 PUSH2 0x189F SWAP1 PUSH2 0x12EF SWAP1 DUP5 PUSH2 0x376F JUMP JUMPDEST PUSH1 0x40 DUP1 MLOAD DUP1 DUP3 ADD DUP3 MSTORE PUSH1 0xF DUP6 SWAP1 SIGNEXTEND DUP2 MSTORE PUSH1 0x20 DUP1 DUP3 ADD DUP9 DUP2 MSTORE CALLER PUSH1 0x0 SWAP1 DUP2 MSTORE PUSH1 0xD0 SWAP1 SWAP3 MSTORE SWAP3 SWAP1 KECCAK256 DUP2 MLOAD DUP2 SLOAD PUSH1 0x1 PUSH1 0x1 PUSH1 0x80 SHL SUB NOT AND PUSH1 0x1 PUSH1 0x1 PUSH1 0x80 SHL SUB SWAP1 SWAP2 AND OR DUP2 SSTORE SWAP2 MLOAD PUSH1 0x1 SWAP1 SWAP3 ADD SWAP2 SWAP1 SWAP2 SSTORE SWAP1 SWAP2 POP DUP2 ISZERO PUSH2 0x190D JUMPI PUSH1 0xD3 SLOAD PUSH2 0x190D SWAP1 PUSH1 0x1 PUSH1 0x1 PUSH1 0xA0 SHL SUB AND CALLER ADDRESS DUP6 PUSH2 0x28AD JUMP JUMPDEST PUSH1 0x20 DUP5 ADD MLOAD ISZERO PUSH2 0x197F JUMPI DUP4 MLOAD PUSH1 0x20 DUP1 DUP7 ADD MLOAD DUP4 MLOAD DUP5 DUP4 ADD MLOAD PUSH1 0x40 DUP1 MLOAD PUSH1 0xF SWAP7 DUP8 SIGNEXTEND DUP2 MSTORE SWAP5 DUP6 ADD SWAP4 SWAP1 SWAP4 MSTORE SWAP4 SIGNEXTEND SWAP1 DUP3 ADD MSTORE PUSH1 0x60 DUP2 ADD SWAP2 SWAP1 SWAP2 MSTORE TIMESTAMP PUSH1 0x80 DUP3 ADD MSTORE CALLER SWAP1 PUSH32 0x268A3D7EA661E9E2BD617021C94B431919691C0D21AA2EB3EA2B9644A5383D12 SWAP1 PUSH1 0xA0 ADD PUSH1 0x40 MLOAD DUP1 SWAP2 SUB SWAP1 LOG2 PUSH2 0x19CC JUMP JUMPDEST DUP1 MLOAD PUSH1 0x20 DUP1 DUP4 ADD MLOAD PUSH1 0x40 DUP1 MLOAD PUSH1 0xF SWAP5 SWAP1 SWAP5 SIGNEXTEND DUP5 MSTORE SWAP2 DUP4 ADD MSTORE TIMESTAMP SWAP1 DUP3 ADD MSTORE CALLER SWAP1 PUSH32 0x7006565168B74EDD823B144526503320D833B826EDEA3F82059CA1806A954FC3 SWAP1 PUSH1 0x60 ADD PUSH1 0x40 MLOAD DUP1 SWAP2 SUB SWAP1 LOG2 JUMPDEST PUSH2 0x19D7 CALLER DUP6 DUP4 PUSH2 0x2361 JUMP JUMPDEST POP POP POP POP POP POP POP POP JUMP JUMPDEST PUSH2 0xA04 PUSH1 0x0 DUP1 PUSH2 0x28EB JUMP JUMPDEST PUSH1 0x40 MLOAD PUSH3 0x461BCD PUSH1 0xE5 SHL DUP2 MSTORE PUSH1 0x20 PUSH1 0x4 DUP3 ADD MSTORE PUSH1 0x28 PUSH1 0x24 DUP3 ADD MSTORE PUSH32 0x44656C65676174696F6E206279207369676E6174757265206973206E6F742073 PUSH1 0x44 DUP3 ADD MSTORE PUSH8 0x1D5C1C1BDC9D1959 PUSH1 0xC2 SHL PUSH1 0x64 DUP3 ADD MSTORE PUSH1 0x84 ADD PUSH2 0x967 JUMP JUMPDEST PUSH1 0x0 SLOAD PUSH2 0x100 SWAP1 DIV PUSH1 0xFF AND PUSH2 0x1A60 JUMPI PUSH1 0x0 SLOAD PUSH1 0xFF AND ISZERO PUSH2 0x1A64 JUMP JUMPDEST ADDRESS EXTCODESIZE ISZERO JUMPDEST PUSH2 0x1AC7 JUMPI PUSH1 0x40 MLOAD PUSH3 0x461BCD PUSH1 0xE5 SHL DUP2 MSTORE PUSH1 0x20 PUSH1 0x4 DUP3 ADD MSTORE PUSH1 0x2E PUSH1 0x24 DUP3 ADD MSTORE PUSH32 0x496E697469616C697A61626C653A20636F6E747261637420697320616C726561 PUSH1 0x44 DUP3 ADD MSTORE PUSH14 0x191E481A5B9A5D1A585B1A5E9959 PUSH1 0x92 SHL PUSH1 0x64 DUP3 ADD MSTORE PUSH1 0x84 ADD PUSH2 0x967 JUMP JUMPDEST PUSH1 0x0 SLOAD PUSH2 0x100 SWAP1 DIV PUSH1 0xFF AND ISZERO DUP1 ISZERO PUSH2 0x1AE9 JUMPI PUSH1 0x0 DUP1 SLOAD PUSH2 0xFFFF NOT AND PUSH2 0x101 OR SWAP1 SSTORE JUMPDEST PUSH2 0x1AF1 PUSH2 0x2CCB JUMP JUMPDEST PUSH2 0x1AF9 PUSH2 0x2CFA JUMP JUMPDEST PUSH1 0xD3 DUP1 SLOAD PUSH1 0x1 PUSH1 0x1 PUSH1 0xA0 SHL SUB NOT AND PUSH1 0x1 PUSH1 0x1 PUSH1 0xA0 SHL SUB DUP5 AND SWAP1 DUP2 OR SWAP1 SWAP2 SSTORE PUSH1 0x40 DUP1 MLOAD DUP1 DUP3 ADD DUP3 MSTORE PUSH1 0xB DUP2 MSTORE PUSH11 0x159BDD1948131BD8DAD959 PUSH1 0xAA SHL PUSH1 0x20 DUP3 ADD MSTORE DUP2 MLOAD PUSH4 0x6FDDE03 PUSH1 0xE0 SHL DUP2 MSTORE SWAP2 MLOAD SWAP1 SWAP3 SWAP2 PUSH4 0x6FDDE03 SWAP2 PUSH1 0x4 DUP1 DUP4 ADD SWAP3 PUSH1 0x0 SWAP3 SWAP2 SWAP1 DUP3 SWAP1 SUB ADD DUP2 DUP7 GAS STATICCALL ISZERO DUP1 ISZERO PUSH2 0x1B73 JUMPI RETURNDATASIZE PUSH1 0x0 DUP1 RETURNDATACOPY RETURNDATASIZE PUSH1 0x0 REVERT JUMPDEST POP POP POP POP PUSH1 0x40 MLOAD RETURNDATASIZE PUSH1 0x0 DUP3 RETURNDATACOPY PUSH1 0x1F RETURNDATASIZE SWAP1 DUP2 ADD PUSH1 0x1F NOT AND DUP3 ADD PUSH1 0x40 MSTORE PUSH2 0x1B9B SWAP2 SWAP1 DUP2 ADD SWAP1 PUSH2 0x37F4 JUMP JUMPDEST PUSH1 0x40 MLOAD PUSH1 0x20 ADD PUSH2 0x1BAC SWAP3 SWAP2 SWAP1 PUSH2 0x3862 JUMP JUMPDEST PUSH1 0x40 MLOAD PUSH1 0x20 DUP2 DUP4 SUB SUB DUP2 MSTORE SWAP1 PUSH1 0x40 MSTORE PUSH1 0xC9 SWAP1 DUP1 MLOAD SWAP1 PUSH1 0x20 ADD SWAP1 PUSH2 0x1BD0 SWAP3 SWAP2 SWAP1 PUSH2 0x31B6 JUMP JUMPDEST POP PUSH1 0x40 MLOAD DUP1 PUSH1 0x40 ADD PUSH1 0x40 MSTORE DUP1 PUSH1 0x2 DUP2 MSTORE PUSH1 0x20 ADD PUSH2 0x1D9B PUSH1 0xF2 SHL DUP2 MSTORE POP PUSH1 0xD3 PUSH1 0x0 SWAP1 SLOAD SWAP1 PUSH2 0x100 EXP SWAP1 DIV PUSH1 0x1 PUSH1 0x1 PUSH1 0xA0 SHL SUB AND PUSH1 0x1 PUSH1 0x1 PUSH1 0xA0 SHL SUB AND PUSH4 0x95D89B41 PUSH1 0x40 MLOAD DUP2 PUSH4 0xFFFFFFFF AND PUSH1 0xE0 SHL DUP2 MSTORE PUSH1 0x4 ADD PUSH1 0x0 PUSH1 0x40 MLOAD DUP1 DUP4 SUB DUP2 DUP7 GAS STATICCALL ISZERO DUP1 ISZERO PUSH2 0x1C3F JUMPI RETURNDATASIZE PUSH1 0x0 DUP1 RETURNDATACOPY RETURNDATASIZE PUSH1 0x0 REVERT JUMPDEST POP POP POP POP PUSH1 0x40 MLOAD RETURNDATASIZE PUSH1 0x0 DUP3 RETURNDATACOPY PUSH1 0x1F RETURNDATASIZE SWAP1 DUP2 ADD PUSH1 0x1F NOT AND DUP3 ADD PUSH1 0x40 MSTORE PUSH2 0x1C67 SWAP2 SWAP1 DUP2 ADD SWAP1 PUSH2 0x37F4 JUMP JUMPDEST PUSH1 0x40 MLOAD PUSH1 0x20 ADD PUSH2 0x1C78 SWAP3 SWAP2 SWAP1 PUSH2 0x389E JUMP JUMPDEST PUSH1 0x40 MLOAD PUSH1 0x20 DUP2 DUP4 SUB SUB DUP2 MSTORE SWAP1 PUSH1 0x40 MSTORE PUSH1 0xCA SWAP1 DUP1 MLOAD SWAP1 PUSH1 0x20 ADD SWAP1 PUSH2 0x1C9C SWAP3 SWAP2 SWAP1 PUSH2 0x31B6 JUMP JUMPDEST POP PUSH1 0xD3 PUSH1 0x0 SWAP1 SLOAD SWAP1 PUSH2 0x100 EXP SWAP1 DIV PUSH1 0x1 PUSH1 0x1 PUSH1 0xA0 SHL SUB AND PUSH1 0x1 PUSH1 0x1 PUSH1 0xA0 SHL SUB AND PUSH4 0x313CE567 PUSH1 0x40 MLOAD DUP2 PUSH4 0xFFFFFFFF AND PUSH1 0xE0 SHL DUP2 MSTORE PUSH1 0x4 ADD PUSH1 0x20 PUSH1 0x40 MLOAD DUP1 DUP4 SUB DUP2 DUP7 GAS STATICCALL ISZERO DUP1 ISZERO PUSH2 0x1CF0 JUMPI RETURNDATASIZE PUSH1 0x0 DUP1 RETURNDATACOPY RETURNDATASIZE PUSH1 0x0 REVERT JUMPDEST POP POP POP POP PUSH1 0x40 MLOAD RETURNDATASIZE PUSH1 0x1F NOT PUSH1 0x1F DUP3 ADD AND DUP3 ADD DUP1 PUSH1 0x40 MSTORE POP DUP2 ADD SWAP1 PUSH2 0x1D14 SWAP2 SWAP1 PUSH2 0x38CD JUMP JUMPDEST PUSH1 0xCB DUP1 SLOAD PUSH1 0xFF SWAP3 SWAP1 SWAP3 AND PUSH1 0xFF NOT SWAP1 SWAP3 AND SWAP2 SWAP1 SWAP2 OR SWAP1 SSTORE PUSH1 0x40 DUP1 MLOAD PUSH1 0x80 DUP2 ADD DUP3 MSTORE PUSH1 0x0 DUP1 DUP3 MSTORE PUSH1 0x20 DUP3 ADD DUP2 DUP2 MSTORE TIMESTAMP SWAP4 DUP4 ADD SWAP4 DUP5 MSTORE NUMBER PUSH1 0x60 DUP5 ADD SWAP1 DUP2 MSTORE PUSH1 0xCE DUP1 SLOAD PUSH1 0x1 DUP2 ADD DUP3 SSTORE SWAP4 MSTORE SWAP3 MLOAD SWAP1 MLOAD PUSH1 0x1 PUSH1 0x1 PUSH1 0x80 SHL SUB SWAP1 DUP2 AND PUSH1 0x1 PUSH1 0x80 SHL MUL SWAP2 AND OR PUSH1 0x3 SWAP1 SWAP2 MUL PUSH32 0xD36CD1C74EF8D7326D8021B776C18FB5A5724B7F7BC93C2F42E43E10EF27D12A DUP2 ADD SWAP2 SWAP1 SWAP2 SSTORE SWAP2 MLOAD PUSH32 0xD36CD1C74EF8D7326D8021B776C18FB5A5724B7F7BC93C2F42E43E10EF27D12B DUP4 ADD SSTORE MLOAD PUSH32 0xD36CD1C74EF8D7326D8021B776C18FB5A5724B7F7BC93C2F42E43E10EF27D12C SWAP1 SWAP2 ADD SSTORE DUP1 ISZERO PUSH2 0x10CA JUMPI PUSH1 0x0 DUP1 SLOAD PUSH2 0xFF00 NOT AND SWAP1 SSTORE POP POP JUMP JUMPDEST PUSH2 0x1E08 PUSH2 0x3188 JUMP JUMPDEST PUSH1 0x1 PUSH1 0x1 PUSH1 0xA0 SHL SUB DUP4 AND PUSH1 0x0 SWAP1 DUP2 MSTORE PUSH1 0xCC PUSH1 0x20 MSTORE PUSH1 0x40 SWAP1 KECCAK256 DUP1 SLOAD PUSH4 0xFFFFFFFF DUP5 AND SWAP1 DUP2 LT PUSH2 0x1E38 JUMPI PUSH2 0x1E38 PUSH2 0x3574 JUMP JUMPDEST PUSH1 0x0 SWAP2 DUP3 MSTORE PUSH1 0x20 SWAP2 DUP3 SWAP1 KECCAK256 PUSH1 0x40 DUP1 MLOAD PUSH1 0x80 DUP2 ADD DUP3 MSTORE PUSH1 0x3 SWAP1 SWAP4 MUL SWAP1 SWAP2 ADD DUP1 SLOAD PUSH1 0xF DUP2 DUP2 SIGNEXTEND DUP6 MSTORE PUSH1 0x1 PUSH1 0x80 SHL SWAP1 SWAP2 DIV SWAP1 SIGNEXTEND SWAP4 DUP4 ADD SWAP4 SWAP1 SWAP4 MSTORE PUSH1 0x1 DUP4 ADD SLOAD SWAP1 DUP3 ADD MSTORE PUSH1 0x2 SWAP1 SWAP2 ADD SLOAD PUSH1 0x60 DUP3 ADD MSTORE SWAP1 POP SWAP3 SWAP2 POP POP JUMP JUMPDEST PUSH1 0x33 SLOAD PUSH1 0x1 PUSH1 0x1 PUSH1 0xA0 SHL SUB AND CALLER EQ PUSH2 0x1EB5 JUMPI PUSH1 0x40 MLOAD PUSH3 0x461BCD PUSH1 0xE5 SHL DUP2 MSTORE PUSH1 0x4 ADD PUSH2 0x967 SWAP1 PUSH2 0x37BF JUMP JUMPDEST PUSH1 0x1 PUSH1 0x1 PUSH1 0xA0 SHL SUB DUP2 AND PUSH2 0x1F1A JUMPI PUSH1 0x40 MLOAD PUSH3 0x461BCD PUSH1 0xE5 SHL DUP2 MSTORE PUSH1 0x20 PUSH1 0x4 DUP3 ADD MSTORE PUSH1 0x26 PUSH1 0x24 DUP3 ADD MSTORE PUSH32 0x4F776E61626C653A206E6577206F776E657220697320746865207A65726F2061 PUSH1 0x44 DUP3 ADD MSTORE PUSH6 0x646472657373 PUSH1 0xD0 SHL PUSH1 0x64 DUP3 ADD MSTORE PUSH1 0x84 ADD PUSH2 0x967 JUMP JUMPDEST PUSH2 0xA04 DUP2 PUSH2 0x2841 JUMP JUMPDEST PUSH1 0x1 PUSH1 0x1 PUSH1 0xA0 SHL SUB AND EXTCODESIZE ISZERO ISZERO SWAP1 JUMP JUMPDEST PUSH1 0x0 DUP1 DUP4 SWAP1 POP PUSH1 0x0 PUSH2 0x1F47 DUP3 PUSH1 0x40 ADD MLOAD PUSH2 0x2893 JUMP JUMPDEST SWAP1 POP PUSH1 0x0 JUMPDEST PUSH1 0xFF DUP2 LT ISZERO PUSH2 0x1FFD JUMPI PUSH2 0x1F62 PUSH3 0x93A80 DUP4 PUSH2 0x3679 JUMP JUMPDEST SWAP2 POP PUSH1 0x0 DUP6 DUP4 GT ISZERO PUSH2 0x1F76 JUMPI DUP6 SWAP3 POP PUSH2 0x1F8A JUMP JUMPDEST POP PUSH1 0x0 DUP3 DUP2 MSTORE PUSH1 0xD1 PUSH1 0x20 MSTORE PUSH1 0x40 SWAP1 KECCAK256 SLOAD PUSH1 0xF SIGNEXTEND JUMPDEST PUSH2 0x1F9D DUP5 PUSH1 0x40 ADD MLOAD DUP5 PUSH2 0xF99 SWAP2 SWAP1 PUSH2 0x355D JUMP JUMPDEST DUP5 PUSH1 0x20 ADD MLOAD PUSH2 0x1FAC SWAP2 SWAP1 PUSH2 0x36DA JUMP JUMPDEST DUP5 MLOAD PUSH2 0x1FB8 SWAP2 SWAP1 PUSH2 0x376F JUMP JUMPDEST PUSH1 0xF SIGNEXTEND DUP5 MSTORE DUP3 DUP7 EQ ISZERO PUSH2 0x1FCB JUMPI POP PUSH2 0x1FFD JUMP JUMPDEST DUP1 DUP5 PUSH1 0x20 ADD MLOAD PUSH2 0x1FDB SWAP2 SWAP1 PUSH2 0x38EA JUMP JUMPDEST PUSH1 0xF SIGNEXTEND PUSH1 0x20 DUP6 ADD MSTORE POP PUSH1 0x40 DUP4 ADD DUP3 SWAP1 MSTORE DUP1 PUSH2 0x1FF5 DUP2 PUSH2 0x3939 JUMP JUMPDEST SWAP2 POP POP PUSH2 0x1F4C JUMP JUMPDEST POP PUSH2 0x1663 PUSH2 0x12EF DUP4 PUSH1 0x0 ADD MLOAD PUSH1 0x0 PUSH2 0x2824 JUMP JUMPDEST PUSH1 0x33 SLOAD PUSH1 0x1 PUSH1 0x1 PUSH1 0xA0 SHL SUB AND CALLER EQ PUSH2 0xA04 JUMPI PUSH1 0x40 MLOAD PUSH3 0x461BCD PUSH1 0xE5 SHL DUP2 MSTORE PUSH1 0x4 ADD PUSH2 0x967 SWAP1 PUSH2 0x37BF JUMP JUMPDEST PUSH32 0x4910FDFA16FED3260ED0E7147F7CC6DA11A60208B5B9406D12A635614FFD9143 SLOAD PUSH1 0xFF AND ISZERO PUSH2 0x2072 JUMPI PUSH2 0x206D DUP4 PUSH2 0x2D21 JUMP JUMPDEST POP POP POP JUMP JUMPDEST DUP3 PUSH1 0x1 PUSH1 0x1 PUSH1 0xA0 SHL SUB AND PUSH4 0x52D1902D PUSH1 0x40 MLOAD DUP2 PUSH4 0xFFFFFFFF AND PUSH1 0xE0 SHL DUP2 MSTORE PUSH1 0x4 ADD PUSH1 0x20 PUSH1 0x40 MLOAD DUP1 DUP4 SUB DUP2 DUP7 GAS STATICCALL SWAP3 POP POP POP DUP1 ISZERO PUSH2 0x20CC JUMPI POP PUSH1 0x40 DUP1 MLOAD PUSH1 0x1F RETURNDATASIZE SWAP1 DUP2 ADD PUSH1 0x1F NOT AND DUP3 ADD SWAP1 SWAP3 MSTORE PUSH2 0x20C9 SWAP2 DUP2 ADD SWAP1 PUSH2 0x3954 JUMP JUMPDEST PUSH1 0x1 JUMPDEST PUSH2 0x212F JUMPI PUSH1 0x40 MLOAD PUSH3 0x461BCD PUSH1 0xE5 SHL DUP2 MSTORE PUSH1 0x20 PUSH1 0x4 DUP3 ADD MSTORE PUSH1 0x2E PUSH1 0x24 DUP3 ADD MSTORE PUSH32 0x45524331393637557067726164653A206E657720696D706C656D656E74617469 PUSH1 0x44 DUP3 ADD MSTORE PUSH14 0x6F6E206973206E6F742055555053 PUSH1 0x90 SHL PUSH1 0x64 DUP3 ADD MSTORE PUSH1 0x84 ADD PUSH2 0x967 JUMP JUMPDEST PUSH1 0x0 DUP1 MLOAD PUSH1 0x20 PUSH2 0x3A49 DUP4 CODECOPY DUP2 MLOAD SWAP2 MSTORE DUP2 EQ PUSH2 0x219E JUMPI PUSH1 0x40 MLOAD PUSH3 0x461BCD PUSH1 0xE5 SHL DUP2 MSTORE PUSH1 0x20 PUSH1 0x4 DUP3 ADD MSTORE PUSH1 0x29 PUSH1 0x24 DUP3 ADD MSTORE PUSH32 0x45524331393637557067726164653A20756E737570706F727465642070726F78 PUSH1 0x44 DUP3 ADD MSTORE PUSH9 0x1A58589B1955555251 PUSH1 0xBA SHL PUSH1 0x64 DUP3 ADD MSTORE PUSH1 0x84 ADD PUSH2 0x967 JUMP JUMPDEST POP PUSH2 0x206D DUP4 DUP4 DUP4 PUSH2 0x2DBD JUMP JUMPDEST PUSH1 0x60 DUP2 PUSH2 0x21CE JUMPI POP POP PUSH1 0x40 DUP1 MLOAD DUP1 DUP3 ADD SWAP1 SWAP2 MSTORE PUSH1 0x1 DUP2 MSTORE PUSH1 0x3 PUSH1 0xFC SHL PUSH1 0x20 DUP3 ADD MSTORE SWAP1 JUMP JUMPDEST DUP2 PUSH1 0x0 JUMPDEST DUP2 ISZERO PUSH2 0x21F8 JUMPI DUP1 PUSH2 0x21E2 DUP2 PUSH2 0x3939 JUMP JUMPDEST SWAP2 POP PUSH2 0x21F1 SWAP1 POP PUSH1 0xA DUP4 PUSH2 0x36C6 JUMP JUMPDEST SWAP2 POP PUSH2 0x21D2 JUMP JUMPDEST PUSH1 0x0 DUP2 PUSH8 0xFFFFFFFFFFFFFFFF DUP2 GT ISZERO PUSH2 0x2213 JUMPI PUSH2 0x2213 PUSH2 0x3306 JUMP JUMPDEST PUSH1 0x40 MLOAD SWAP1 DUP1 DUP3 MSTORE DUP1 PUSH1 0x1F ADD PUSH1 0x1F NOT AND PUSH1 0x20 ADD DUP3 ADD PUSH1 0x40 MSTORE DUP1 ISZERO PUSH2 0x223D JUMPI PUSH1 0x20 DUP3 ADD DUP2 DUP1 CALLDATASIZE DUP4 CALLDATACOPY ADD SWAP1 POP JUMPDEST POP SWAP1 POP JUMPDEST DUP5 ISZERO PUSH2 0x12F7 JUMPI PUSH2 0x2252 PUSH1 0x1 DUP4 PUSH2 0x355D JUMP JUMPDEST SWAP2 POP PUSH2 0x225F PUSH1 0xA DUP7 PUSH2 0x396D JUMP JUMPDEST PUSH2 0x226A SWAP1 PUSH1 0x30 PUSH2 0x3679 JUMP JUMPDEST PUSH1 0xF8 SHL DUP2 DUP4 DUP2 MLOAD DUP2 LT PUSH2 0x227F JUMPI PUSH2 0x227F PUSH2 0x3574 JUMP JUMPDEST PUSH1 0x20 ADD ADD SWAP1 PUSH1 0x1 PUSH1 0x1 PUSH1 0xF8 SHL SUB NOT AND SWAP1 DUP2 PUSH1 0x0 BYTE SWAP1 MSTORE8 POP PUSH2 0x22A1 PUSH1 0xA DUP7 PUSH2 0x36C6 JUMP JUMPDEST SWAP5 POP PUSH2 0x2241 JUMP JUMPDEST PUSH1 0x0 DUP1 DUP3 SLT ISZERO PUSH2 0x22FA JUMPI PUSH1 0x40 MLOAD PUSH3 0x461BCD PUSH1 0xE5 SHL DUP2 MSTORE PUSH1 0x20 PUSH1 0x4 DUP3 ADD DUP2 SWAP1 MSTORE PUSH1 0x24 DUP3 ADD MSTORE PUSH32 0x53616665436173743A2076616C7565206D75737420626520706F736974697665 PUSH1 0x44 DUP3 ADD MSTORE PUSH1 0x64 ADD PUSH2 0x967 JUMP JUMPDEST POP SWAP1 JUMP JUMPDEST PUSH1 0x40 MLOAD PUSH1 0x1 PUSH1 0x1 PUSH1 0xA0 SHL SUB DUP4 AND PUSH1 0x24 DUP3 ADD MSTORE PUSH1 0x44 DUP2 ADD DUP3 SWAP1 MSTORE PUSH2 0x206D SWAP1 DUP5 SWAP1 PUSH4 0xA9059CBB PUSH1 0xE0 SHL SWAP1 PUSH1 0x64 ADD JUMPDEST PUSH1 0x40 DUP1 MLOAD PUSH1 0x1F NOT DUP2 DUP5 SUB ADD DUP2 MSTORE SWAP2 SWAP1 MSTORE PUSH1 0x20 DUP2 ADD DUP1 MLOAD PUSH1 0x1 PUSH1 0x1 PUSH1 0xE0 SHL SUB AND PUSH1 0x1 PUSH1 0x1 PUSH1 0xE0 SHL SUB NOT SWAP1 SWAP4 AND SWAP3 SWAP1 SWAP3 OR SWAP1 SWAP2 MSTORE PUSH2 0x2DE2 JUMP JUMPDEST PUSH1 0x0 DUP1 PUSH2 0x236C PUSH2 0x3188 JUMP JUMPDEST PUSH2 0x2374 PUSH2 0x3188 JUMP JUMPDEST PUSH1 0x0 DUP1 TIMESTAMP DUP9 PUSH1 0x20 ADD MLOAD GT DUP1 ISZERO PUSH2 0x2391 JUMPI POP PUSH1 0x0 DUP9 PUSH1 0x0 ADD MLOAD PUSH1 0xF SIGNEXTEND SGT JUMPDEST ISZERO PUSH2 0x23E2 JUMPI PUSH2 0x23A3 PUSH4 0x784CE00 PUSH2 0x2742 JUMP JUMPDEST DUP9 MLOAD PUSH2 0x23AF SWAP2 SWAP1 PUSH2 0x3981 JUMP JUMPDEST PUSH1 0xF SIGNEXTEND PUSH1 0x20 DUP1 DUP7 ADD SWAP2 SWAP1 SWAP2 MSTORE DUP9 ADD MLOAD PUSH2 0x23CD SWAP1 PUSH2 0xF99 SWAP1 TIMESTAMP SWAP1 PUSH2 0x355D JUMP JUMPDEST DUP5 PUSH1 0x20 ADD MLOAD PUSH2 0x23DC SWAP2 SWAP1 PUSH2 0x36DA JUMP JUMPDEST PUSH1 0xF SIGNEXTEND DUP5 MSTORE JUMPDEST TIMESTAMP DUP8 PUSH1 0x20 ADD MLOAD GT DUP1 ISZERO PUSH2 0x23FC JUMPI POP PUSH1 0x0 DUP8 PUSH1 0x0 ADD MLOAD PUSH1 0xF SIGNEXTEND SGT JUMPDEST ISZERO PUSH2 0x244D JUMPI PUSH2 0x240E PUSH4 0x784CE00 PUSH2 0x2742 JUMP JUMPDEST DUP8 MLOAD PUSH2 0x241A SWAP2 SWAP1 PUSH2 0x3981 JUMP JUMPDEST PUSH1 0xF SIGNEXTEND PUSH1 0x20 DUP1 DUP6 ADD SWAP2 SWAP1 SWAP2 MSTORE DUP8 ADD MLOAD PUSH2 0x2438 SWAP1 PUSH2 0xF99 SWAP1 TIMESTAMP SWAP1 PUSH2 0x355D JUMP JUMPDEST DUP4 PUSH1 0x20 ADD MLOAD PUSH2 0x2447 SWAP2 SWAP1 PUSH2 0x36DA JUMP JUMPDEST PUSH1 0xF SIGNEXTEND DUP4 MSTORE JUMPDEST PUSH1 0x1 PUSH1 0x1 PUSH1 0xA0 SHL SUB DUP10 AND PUSH1 0x0 SWAP1 DUP2 MSTORE PUSH1 0xCD PUSH1 0x20 MSTORE PUSH1 0x40 SWAP1 KECCAK256 SLOAD DUP1 PUSH2 0x24D1 JUMPI PUSH1 0x1 PUSH1 0x1 PUSH1 0xA0 SHL SUB DUP11 AND PUSH1 0x0 SWAP1 DUP2 MSTORE PUSH1 0xCC PUSH1 0x20 SWAP1 DUP2 MSTORE PUSH1 0x40 DUP1 DUP4 KECCAK256 DUP1 SLOAD PUSH1 0x1 DUP2 DUP2 ADD DUP4 SSTORE SWAP2 DUP6 MSTORE SWAP4 DUP4 SWAP1 KECCAK256 DUP10 MLOAD SWAP4 DUP11 ADD MLOAD PUSH1 0x1 PUSH1 0x1 PUSH1 0x80 SHL SUB SWAP1 DUP2 AND PUSH1 0x1 PUSH1 0x80 SHL MUL SWAP5 AND SWAP4 SWAP1 SWAP4 OR PUSH1 0x3 SWAP1 SWAP5 MUL SWAP1 SWAP3 ADD SWAP3 DUP4 SSTORE DUP8 ADD MLOAD SWAP1 DUP3 ADD SSTORE PUSH1 0x60 DUP7 ADD MLOAD PUSH1 0x2 SWAP1 SWAP2 ADD SSTORE JUMPDEST TIMESTAMP PUSH1 0x40 DUP6 ADD MSTORE NUMBER PUSH1 0x60 DUP6 ADD MSTORE PUSH2 0x24E8 DUP2 PUSH1 0x1 PUSH2 0x3679 JUMP JUMPDEST PUSH1 0x1 PUSH1 0x1 PUSH1 0xA0 SHL SUB DUP12 AND PUSH1 0x0 SWAP1 DUP2 MSTORE PUSH1 0xCD PUSH1 0x20 SWAP1 DUP2 MSTORE PUSH1 0x40 DUP1 DUP4 KECCAK256 SWAP4 SWAP1 SWAP4 SSTORE PUSH1 0xCC DUP2 MSTORE DUP3 DUP3 KECCAK256 DUP1 SLOAD PUSH1 0x1 DUP2 DUP2 ADD DUP4 SSTORE SWAP2 DUP5 MSTORE DUP3 DUP5 KECCAK256 DUP10 MLOAD DUP11 DUP6 ADD MLOAD PUSH1 0x1 PUSH1 0x1 PUSH1 0x80 SHL SUB SWAP1 DUP2 AND PUSH1 0x1 PUSH1 0x80 SHL MUL SWAP2 AND OR PUSH1 0x3 SWAP1 SWAP3 MUL ADD SWAP1 DUP2 SSTORE DUP9 DUP6 ADD MLOAD SWAP2 DUP2 ADD SWAP2 SWAP1 SWAP2 SSTORE PUSH1 0x60 DUP9 ADD MLOAD PUSH1 0x2 SWAP1 SWAP2 ADD SSTORE DUP12 DUP2 ADD MLOAD DUP3 MSTORE PUSH1 0xD1 DUP2 MSTORE SWAP2 SWAP1 KECCAK256 SLOAD SWAP1 DUP10 ADD MLOAD PUSH1 0xF SWAP2 SWAP1 SWAP2 SIGNEXTEND SWAP4 POP ISZERO PUSH2 0x25A8 JUMPI DUP9 PUSH1 0x20 ADD MLOAD DUP9 PUSH1 0x20 ADD MLOAD EQ ISZERO PUSH2 0x258D JUMPI DUP3 SWAP2 POP PUSH2 0x25A8 JUMP JUMPDEST PUSH1 0x20 DUP1 DUP10 ADD MLOAD PUSH1 0x0 SWAP1 DUP2 MSTORE PUSH1 0xD1 SWAP1 SWAP2 MSTORE PUSH1 0x40 SWAP1 KECCAK256 SLOAD PUSH1 0xF SIGNEXTEND SWAP2 POP JUMPDEST PUSH2 0x25D2 DUP6 PUSH1 0x20 ADD MLOAD DUP6 PUSH1 0x20 ADD MLOAD PUSH2 0x25BF SWAP2 SWAP1 PUSH2 0x376F JUMP JUMPDEST DUP7 MLOAD DUP7 MLOAD PUSH2 0x25CD SWAP2 SWAP1 PUSH2 0x376F JUMP JUMPDEST PUSH2 0x28EB JUMP JUMPDEST POP TIMESTAMP DUP10 PUSH1 0x20 ADD MLOAD GT ISZERO PUSH2 0x2640 JUMPI PUSH1 0x20 DUP6 ADD MLOAD PUSH2 0x25EE SWAP1 DUP5 PUSH2 0x38EA JUMP JUMPDEST SWAP3 POP DUP9 PUSH1 0x20 ADD MLOAD DUP9 PUSH1 0x20 ADD MLOAD EQ ISZERO PUSH2 0x2612 JUMPI PUSH1 0x20 DUP5 ADD MLOAD PUSH2 0x260F SWAP1 DUP5 PUSH2 0x376F JUMP JUMPDEST SWAP3 POP JUMPDEST PUSH1 0x20 DUP10 DUP2 ADD MLOAD PUSH1 0x0 SWAP1 DUP2 MSTORE PUSH1 0xD1 SWAP1 SWAP2 MSTORE PUSH1 0x40 SWAP1 KECCAK256 DUP1 SLOAD PUSH1 0x1 PUSH1 0x1 PUSH1 0x80 SHL SUB NOT AND PUSH1 0x1 PUSH1 0x1 PUSH1 0x80 SHL SUB DUP6 AND OR SWAP1 SSTORE JUMPDEST TIMESTAMP DUP9 PUSH1 0x20 ADD MLOAD GT ISZERO PUSH2 0x269B JUMPI DUP9 PUSH1 0x20 ADD MLOAD DUP9 PUSH1 0x20 ADD MLOAD GT ISZERO PUSH2 0x269B JUMPI PUSH1 0x20 DUP5 ADD MLOAD PUSH2 0x266B SWAP1 DUP4 PUSH2 0x376F JUMP JUMPDEST PUSH1 0x20 DUP10 DUP2 ADD MLOAD PUSH1 0x0 SWAP1 DUP2 MSTORE PUSH1 0xD1 SWAP1 SWAP2 MSTORE PUSH1 0x40 SWAP1 KECCAK256 DUP1 SLOAD PUSH1 0x1 PUSH1 0x1 PUSH1 0x80 SHL SUB NOT AND PUSH1 0x1 PUSH1 0x1 PUSH1 0x80 SHL SUB DUP4 AND OR SWAP1 SSTORE SWAP2 POP JUMPDEST POP POP POP POP POP SWAP4 POP SWAP4 SWAP2 POP POP JUMP JUMPDEST PUSH1 0x0 DUP1 DUP3 DUP2 JUMPDEST PUSH1 0x80 DUP2 LT ISZERO PUSH2 0x2735 JUMPI DUP2 DUP4 LT PUSH2 0x26C3 JUMPI PUSH2 0x2735 JUMP JUMPDEST PUSH1 0x0 PUSH1 0x2 PUSH2 0x26D1 DUP5 DUP7 PUSH2 0x3679 JUMP JUMPDEST PUSH2 0x26DC SWAP1 PUSH1 0x1 PUSH2 0x3679 JUMP JUMPDEST PUSH2 0x26E6 SWAP2 SWAP1 PUSH2 0x36C6 JUMP JUMPDEST SWAP1 POP DUP7 DUP9 DUP3 DUP2 MLOAD DUP2 LT PUSH2 0x26FB JUMPI PUSH2 0x26FB PUSH2 0x3574 JUMP JUMPDEST PUSH1 0x20 MUL PUSH1 0x20 ADD ADD MLOAD PUSH1 0x60 ADD MLOAD GT PUSH2 0x2714 JUMPI DUP1 SWAP4 POP PUSH2 0x2722 JUMP JUMPDEST PUSH2 0x271F PUSH1 0x1 DUP3 PUSH2 0x355D JUMP JUMPDEST SWAP3 POP JUMPDEST POP DUP1 PUSH2 0x272D DUP2 PUSH2 0x3939 JUMP JUMPDEST SWAP2 POP POP PUSH2 0x26AE JUMP JUMPDEST POP SWAP1 SWAP2 POP POP JUMPDEST SWAP4 SWAP3 POP POP POP JUMP JUMPDEST PUSH1 0x0 PUSH1 0x1 PUSH1 0x1 PUSH1 0x7F SHL SUB NOT DUP3 SLT DUP1 ISZERO SWAP1 PUSH2 0x2763 JUMPI POP PUSH1 0x1 PUSH1 0x1 PUSH1 0x7F SHL SUB DUP3 SGT ISZERO JUMPDEST PUSH2 0x22FA JUMPI PUSH1 0x40 MLOAD PUSH3 0x461BCD PUSH1 0xE5 SHL DUP2 MSTORE PUSH1 0x20 PUSH1 0x4 DUP3 ADD MSTORE PUSH1 0x27 PUSH1 0x24 DUP3 ADD MSTORE PUSH32 0x53616665436173743A2076616C756520646F65736E27742066697420696E2031 PUSH1 0x44 DUP3 ADD MSTORE PUSH7 0x32382062697473 PUSH1 0xC8 SHL PUSH1 0x64 DUP3 ADD MSTORE PUSH1 0x84 ADD PUSH2 0x967 JUMP JUMPDEST PUSH1 0x0 PUSH4 0xFFFFFFFF DUP3 GT ISZERO PUSH2 0x22FA JUMPI PUSH1 0x40 MLOAD PUSH3 0x461BCD PUSH1 0xE5 SHL DUP2 MSTORE PUSH1 0x20 PUSH1 0x4 DUP3 ADD MSTORE PUSH1 0x26 PUSH1 0x24 DUP3 ADD MSTORE PUSH32 0x53616665436173743A2076616C756520646F65736E27742066697420696E2033 PUSH1 0x44 DUP3 ADD MSTORE PUSH6 0x322062697473 PUSH1 0xD0 SHL PUSH1 0x64 DUP3 ADD MSTORE PUSH1 0x84 ADD PUSH2 0x967 JUMP JUMPDEST PUSH1 0x0 DUP2 PUSH1 0xF SIGNEXTEND DUP4 PUSH1 0xF SIGNEXTEND SLT ISZERO PUSH2 0x283A JUMPI DUP2 PUSH2 0xA13 JUMP JUMPDEST POP SWAP1 SWAP2 SWAP1 POP JUMP JUMPDEST PUSH1 0x33 DUP1 SLOAD PUSH1 0x1 PUSH1 0x1 PUSH1 0xA0 SHL SUB DUP4 DUP2 AND PUSH1 0x1 PUSH1 0x1 PUSH1 0xA0 SHL SUB NOT DUP4 AND DUP2 OR SWAP1 SWAP4 SSTORE PUSH1 0x40 MLOAD SWAP2 AND SWAP2 SWAP1 DUP3 SWAP1 PUSH32 0x8BE0079C531659141344CD1FD0A4F28419497F9722A3DAAFE3B4186F6B6457E0 SWAP1 PUSH1 0x0 SWAP1 LOG3 POP POP JUMP JUMPDEST PUSH1 0x0 PUSH3 0x93A80 PUSH2 0x28A3 DUP2 DUP5 PUSH2 0x36C6 JUMP JUMPDEST PUSH2 0xA16 SWAP2 SWAP1 PUSH2 0x3691 JUMP JUMPDEST PUSH1 0x40 MLOAD PUSH1 0x1 PUSH1 0x1 PUSH1 0xA0 SHL SUB DUP1 DUP6 AND PUSH1 0x24 DUP4 ADD MSTORE DUP4 AND PUSH1 0x44 DUP3 ADD MSTORE PUSH1 0x64 DUP2 ADD DUP3 SWAP1 MSTORE PUSH2 0x28E5 SWAP1 DUP6 SWAP1 PUSH4 0x23B872DD PUSH1 0xE0 SHL SWAP1 PUSH1 0x84 ADD PUSH2 0x232A JUMP JUMPDEST POP POP POP POP JUMP JUMPDEST PUSH2 0x28F3 PUSH2 0x3188 JUMP JUMPDEST PUSH1 0xCF SLOAD ISZERO PUSH2 0x2962 JUMPI PUSH1 0xCE PUSH1 0xCF SLOAD DUP2 SLOAD DUP2 LT PUSH2 0x2910 JUMPI PUSH2 0x2910 PUSH2 0x3574 JUMP JUMPDEST PUSH1 0x0 SWAP2 DUP3 MSTORE PUSH1 0x20 SWAP2 DUP3 SWAP1 KECCAK256 PUSH1 0x40 DUP1 MLOAD PUSH1 0x80 DUP2 ADD DUP3 MSTORE PUSH1 0x3 SWAP1 SWAP4 MUL SWAP1 SWAP2 ADD DUP1 SLOAD PUSH1 0xF DUP2 DUP2 SIGNEXTEND DUP6 MSTORE PUSH1 0x1 PUSH1 0x80 SHL SWAP1 SWAP2 DIV SWAP1 SIGNEXTEND SWAP4 DUP4 ADD SWAP4 SWAP1 SWAP4 MSTORE PUSH1 0x1 DUP4 ADD SLOAD SWAP1 DUP3 ADD MSTORE PUSH1 0x2 SWAP1 SWAP2 ADD SLOAD PUSH1 0x60 DUP3 ADD MSTORE SWAP1 POP PUSH2 0x2986 JUMP JUMPDEST POP PUSH1 0x40 DUP1 MLOAD PUSH1 0x80 DUP2 ADD DUP3 MSTORE PUSH1 0x0 DUP1 DUP3 MSTORE PUSH1 0x20 DUP3 ADD MSTORE TIMESTAMP SWAP2 DUP2 ADD SWAP2 SWAP1 SWAP2 MSTORE NUMBER PUSH1 0x60 DUP3 ADD MSTORE JUMPDEST PUSH1 0x40 DUP1 MLOAD PUSH1 0x80 DUP2 ADD DUP3 MSTORE PUSH1 0x0 DUP1 DUP3 MSTORE PUSH1 0x20 DUP3 ADD DUP2 SWAP1 MSTORE DUP4 DUP4 ADD DUP1 MLOAD SWAP4 DUP4 ADD SWAP4 SWAP1 SWAP4 MSTORE PUSH1 0x60 DUP1 DUP6 ADD MLOAD SWAP1 DUP4 ADD MSTORE SWAP2 MLOAD SWAP1 SWAP2 SWAP1 TIMESTAMP GT ISZERO PUSH2 0x29FB JUMPI PUSH1 0x40 DUP4 ADD MLOAD PUSH2 0x29CD SWAP1 TIMESTAMP PUSH2 0x355D JUMP JUMPDEST PUSH1 0x60 DUP5 ADD MLOAD PUSH2 0x29DC SWAP1 NUMBER PUSH2 0x355D JUMP JUMPDEST PUSH2 0x29EE SWAP1 PUSH8 0xDE0B6B3A7640000 PUSH2 0x3691 JUMP JUMPDEST PUSH2 0x29F8 SWAP2 SWAP1 PUSH2 0x36C6 JUMP JUMPDEST SWAP1 POP JUMPDEST PUSH1 0x40 DUP4 ADD MLOAD PUSH1 0x0 PUSH2 0x2A0B DUP3 PUSH2 0x2893 JUMP JUMPDEST SWAP1 POP PUSH1 0x0 JUMPDEST PUSH1 0xFF DUP2 LT ISZERO PUSH2 0x2CC0 JUMPI PUSH2 0x2A26 PUSH3 0x93A80 DUP4 PUSH2 0x3679 JUMP JUMPDEST SWAP2 POP PUSH1 0x0 TIMESTAMP DUP4 GT ISZERO PUSH2 0x2A3A JUMPI TIMESTAMP SWAP3 POP PUSH2 0x2A4E JUMP JUMPDEST POP PUSH1 0x0 DUP3 DUP2 MSTORE PUSH1 0xD1 PUSH1 0x20 MSTORE PUSH1 0x40 SWAP1 KECCAK256 SLOAD PUSH1 0xF SIGNEXTEND JUMPDEST PUSH1 0x0 PUSH2 0x2A5D PUSH2 0xF99 DUP7 DUP7 PUSH2 0x355D JUMP JUMPDEST DUP9 PUSH1 0x20 ADD MLOAD PUSH2 0x2A6C SWAP2 SWAP1 PUSH2 0x36DA JUMP JUMPDEST SWAP1 POP PUSH2 0x2A88 DUP2 DUP10 PUSH1 0x0 ADD MLOAD PUSH2 0x2A81 SWAP2 SWAP1 PUSH2 0x376F JUMP JUMPDEST PUSH1 0x0 PUSH2 0x2824 JUMP JUMPDEST PUSH1 0xF SIGNEXTEND DUP9 MSTORE PUSH1 0x20 DUP9 ADD MLOAD PUSH2 0x2AA1 SWAP1 PUSH2 0x2A81 SWAP1 DUP5 SWAP1 PUSH2 0x38EA JUMP JUMPDEST PUSH1 0xF SIGNEXTEND PUSH1 0x20 DUP10 ADD MSTORE PUSH1 0x40 DUP1 DUP10 ADD DUP6 SWAP1 MSTORE DUP8 ADD MLOAD SWAP4 SWAP5 POP DUP5 SWAP4 PUSH8 0xDE0B6B3A7640000 SWAP1 PUSH2 0x2ACD SWAP1 DUP7 PUSH2 0x355D JUMP JUMPDEST PUSH2 0x2AD7 SWAP1 DUP9 PUSH2 0x3691 JUMP JUMPDEST PUSH2 0x2AE1 SWAP2 SWAP1 PUSH2 0x36C6 JUMP JUMPDEST DUP8 PUSH1 0x60 ADD MLOAD PUSH2 0x2AF0 SWAP2 SWAP1 PUSH2 0x3679 JUMP JUMPDEST PUSH1 0x60 DUP10 ADD MSTORE PUSH1 0xCF DUP1 SLOAD PUSH1 0x1 SWAP2 SWAP1 PUSH1 0x0 SWAP1 PUSH2 0x2B0B SWAP1 DUP5 SWAP1 PUSH2 0x3679 JUMP JUMPDEST SWAP1 SWAP2 SSTORE POP POP TIMESTAMP DUP5 EQ ISZERO PUSH2 0x2C01 JUMPI NUMBER PUSH1 0x60 DUP10 ADD MSTORE PUSH1 0x20 DUP9 ADD MLOAD PUSH2 0x2B32 SWAP1 PUSH2 0x2A81 SWAP1 DUP13 SWAP1 PUSH2 0x38EA JUMP JUMPDEST PUSH1 0xF SIGNEXTEND PUSH1 0x20 DUP10 ADD MSTORE DUP8 MLOAD PUSH2 0x2B4B SWAP1 PUSH2 0x2A81 SWAP1 DUP12 SWAP1 PUSH2 0x38EA JUMP JUMPDEST PUSH1 0xF SIGNEXTEND DUP9 MSTORE POP POP PUSH1 0xCE DUP1 SLOAD PUSH1 0x1 DUP2 ADD DUP3 SSTORE PUSH1 0x0 SWAP2 SWAP1 SWAP2 MSTORE DUP7 MLOAD PUSH1 0x20 DUP9 ADD MLOAD PUSH1 0x1 PUSH1 0x1 PUSH1 0x80 SHL SUB SWAP1 DUP2 AND PUSH1 0x1 PUSH1 0x80 SHL MUL SWAP2 AND OR PUSH1 0x3 SWAP1 SWAP2 MUL PUSH32 0xD36CD1C74EF8D7326D8021B776C18FB5A5724B7F7BC93C2F42E43E10EF27D12A DUP2 ADD SWAP2 SWAP1 SWAP2 SSTORE PUSH1 0x40 DUP8 ADD MLOAD PUSH32 0xD36CD1C74EF8D7326D8021B776C18FB5A5724B7F7BC93C2F42E43E10EF27D12B DUP3 ADD SSTORE PUSH1 0x60 DUP8 ADD MLOAD PUSH32 0xD36CD1C74EF8D7326D8021B776C18FB5A5724B7F7BC93C2F42E43E10EF27D12C SWAP1 SWAP2 ADD SSTORE PUSH2 0x2CC0 JUMP JUMPDEST PUSH1 0xCE DUP1 SLOAD PUSH1 0x1 DUP2 ADD DUP3 SSTORE PUSH1 0x0 SWAP2 SWAP1 SWAP2 MSTORE DUP9 MLOAD PUSH1 0x20 DUP11 ADD MLOAD PUSH1 0x1 PUSH1 0x1 PUSH1 0x80 SHL SUB SWAP1 DUP2 AND PUSH1 0x1 PUSH1 0x80 SHL MUL SWAP2 AND OR PUSH1 0x3 SWAP1 SWAP2 MUL PUSH32 0xD36CD1C74EF8D7326D8021B776C18FB5A5724B7F7BC93C2F42E43E10EF27D12A DUP2 ADD SWAP2 SWAP1 SWAP2 SSTORE PUSH1 0x40 DUP10 ADD MLOAD PUSH32 0xD36CD1C74EF8D7326D8021B776C18FB5A5724B7F7BC93C2F42E43E10EF27D12B DUP3 ADD SSTORE PUSH1 0x60 DUP10 ADD MLOAD PUSH32 0xD36CD1C74EF8D7326D8021B776C18FB5A5724B7F7BC93C2F42E43E10EF27D12C SWAP1 SWAP2 ADD SSTORE POP POP DUP1 DUP1 PUSH2 0x2CB8 SWAP1 PUSH2 0x3939 JUMP JUMPDEST SWAP2 POP POP PUSH2 0x2A10 JUMP JUMPDEST POP POP POP POP POP SWAP3 SWAP2 POP POP JUMP JUMPDEST PUSH1 0x0 SLOAD PUSH2 0x100 SWAP1 DIV PUSH1 0xFF AND PUSH2 0x2CF2 JUMPI PUSH1 0x40 MLOAD PUSH3 0x461BCD PUSH1 0xE5 SHL DUP2 MSTORE PUSH1 0x4 ADD PUSH2 0x967 SWAP1 PUSH2 0x39BF JUMP JUMPDEST PUSH2 0x1333 PUSH2 0x2EB4 JUMP JUMPDEST PUSH1 0x0 SLOAD PUSH2 0x100 SWAP1 DIV PUSH1 0xFF AND PUSH2 0x1333 JUMPI PUSH1 0x40 MLOAD PUSH3 0x461BCD PUSH1 0xE5 SHL DUP2 MSTORE PUSH1 0x4 ADD PUSH2 0x967 SWAP1 PUSH2 0x39BF JUMP JUMPDEST PUSH1 0x1 PUSH1 0x1 PUSH1 0xA0 SHL SUB DUP2 AND EXTCODESIZE PUSH2 0x2D8E JUMPI PUSH1 0x40 MLOAD PUSH3 0x461BCD PUSH1 0xE5 SHL DUP2 MSTORE PUSH1 0x20 PUSH1 0x4 DUP3 ADD MSTORE PUSH1 0x2D PUSH1 0x24 DUP3 ADD MSTORE PUSH32 0x455243313936373A206E657720696D706C656D656E746174696F6E206973206E PUSH1 0x44 DUP3 ADD MSTORE PUSH13 0x1BDD08184818DBDB9D1C9858DD PUSH1 0x9A SHL PUSH1 0x64 DUP3 ADD MSTORE PUSH1 0x84 ADD PUSH2 0x967 JUMP JUMPDEST PUSH1 0x0 DUP1 MLOAD PUSH1 0x20 PUSH2 0x3A49 DUP4 CODECOPY DUP2 MLOAD SWAP2 MSTORE DUP1 SLOAD PUSH1 0x1 PUSH1 0x1 PUSH1 0xA0 SHL SUB NOT AND PUSH1 0x1 PUSH1 0x1 PUSH1 0xA0 SHL SUB SWAP3 SWAP1 SWAP3 AND SWAP2 SWAP1 SWAP2 OR SWAP1 SSTORE JUMP JUMPDEST PUSH2 0x2DC6 DUP4 PUSH2 0x2EE4 JUMP JUMPDEST PUSH1 0x0 DUP3 MLOAD GT DUP1 PUSH2 0x2DD3 JUMPI POP DUP1 JUMPDEST ISZERO PUSH2 0x206D JUMPI PUSH2 0x28E5 DUP4 DUP4 PUSH2 0x2F24 JUMP JUMPDEST PUSH1 0x0 PUSH2 0x2E37 DUP3 PUSH1 0x40 MLOAD DUP1 PUSH1 0x40 ADD PUSH1 0x40 MSTORE DUP1 PUSH1 0x20 DUP2 MSTORE PUSH1 0x20 ADD PUSH32 0x5361666545524332303A206C6F772D6C6576656C2063616C6C206661696C6564 DUP2 MSTORE POP DUP6 PUSH1 0x1 PUSH1 0x1 PUSH1 0xA0 SHL SUB AND PUSH2 0x300F SWAP1 SWAP3 SWAP2 SWAP1 PUSH4 0xFFFFFFFF AND JUMP JUMPDEST DUP1 MLOAD SWAP1 SWAP2 POP ISZERO PUSH2 0x206D JUMPI DUP1 DUP1 PUSH1 0x20 ADD SWAP1 MLOAD DUP2 ADD SWAP1 PUSH2 0x2E55 SWAP2 SWAP1 PUSH2 0x3A0A JUMP JUMPDEST PUSH2 0x206D JUMPI PUSH1 0x40 MLOAD PUSH3 0x461BCD PUSH1 0xE5 SHL DUP2 MSTORE PUSH1 0x20 PUSH1 0x4 DUP3 ADD MSTORE PUSH1 0x2A PUSH1 0x24 DUP3 ADD MSTORE PUSH32 0x5361666545524332303A204552433230206F7065726174696F6E20646964206E PUSH1 0x44 DUP3 ADD MSTORE PUSH10 0x1BDD081CDD58D8D95959 PUSH1 0xB2 SHL PUSH1 0x64 DUP3 ADD MSTORE PUSH1 0x84 ADD PUSH2 0x967 JUMP JUMPDEST PUSH1 0x0 SLOAD PUSH2 0x100 SWAP1 DIV PUSH1 0xFF AND PUSH2 0x2EDB JUMPI PUSH1 0x40 MLOAD PUSH3 0x461BCD PUSH1 0xE5 SHL DUP2 MSTORE PUSH1 0x4 ADD PUSH2 0x967 SWAP1 PUSH2 0x39BF JUMP JUMPDEST PUSH2 0x1333 CALLER PUSH2 0x2841 JUMP JUMPDEST PUSH2 0x2EED DUP2 PUSH2 0x2D21 JUMP JUMPDEST PUSH1 0x40 MLOAD PUSH1 0x1 PUSH1 0x1 PUSH1 0xA0 SHL SUB DUP3 AND SWAP1 PUSH32 0xBC7CD75A20EE27FD9ADEBAB32041F755214DBC6BFFA90CC0225B39DA2E5C2D3B SWAP1 PUSH1 0x0 SWAP1 LOG2 POP JUMP JUMPDEST PUSH1 0x60 PUSH1 0x1 PUSH1 0x1 PUSH1 0xA0 SHL SUB DUP4 AND EXTCODESIZE PUSH2 0x2F8C JUMPI PUSH1 0x40 MLOAD PUSH3 0x461BCD PUSH1 0xE5 SHL DUP2 MSTORE PUSH1 0x20 PUSH1 0x4 DUP3 ADD MSTORE PUSH1 0x26 PUSH1 0x24 DUP3 ADD MSTORE PUSH32 0x416464726573733A2064656C65676174652063616C6C20746F206E6F6E2D636F PUSH1 0x44 DUP3 ADD MSTORE PUSH6 0x1B9D1C9858DD PUSH1 0xD2 SHL PUSH1 0x64 DUP3 ADD MSTORE PUSH1 0x84 ADD PUSH2 0x967 JUMP JUMPDEST PUSH1 0x0 DUP1 DUP5 PUSH1 0x1 PUSH1 0x1 PUSH1 0xA0 SHL SUB AND DUP5 PUSH1 0x40 MLOAD PUSH2 0x2FA7 SWAP2 SWAP1 PUSH2 0x3A2C JUMP JUMPDEST PUSH1 0x0 PUSH1 0x40 MLOAD DUP1 DUP4 SUB DUP2 DUP6 GAS DELEGATECALL SWAP2 POP POP RETURNDATASIZE DUP1 PUSH1 0x0 DUP2 EQ PUSH2 0x2FE2 JUMPI PUSH1 0x40 MLOAD SWAP2 POP PUSH1 0x1F NOT PUSH1 0x3F RETURNDATASIZE ADD AND DUP3 ADD PUSH1 0x40 MSTORE RETURNDATASIZE DUP3 MSTORE RETURNDATASIZE PUSH1 0x0 PUSH1 0x20 DUP5 ADD RETURNDATACOPY PUSH2 0x2FE7 JUMP JUMPDEST PUSH1 0x60 SWAP2 POP JUMPDEST POP SWAP2 POP SWAP2 POP PUSH2 0x1663 DUP3 DUP3 PUSH1 0x40 MLOAD DUP1 PUSH1 0x60 ADD PUSH1 0x40 MSTORE DUP1 PUSH1 0x27 DUP2 MSTORE PUSH1 0x20 ADD PUSH2 0x3A69 PUSH1 0x27 SWAP2 CODECOPY PUSH2 0x301E JUMP JUMPDEST PUSH1 0x60 PUSH2 0x12F7 DUP5 DUP5 PUSH1 0x0 DUP6 PUSH2 0x3057 JUMP JUMPDEST PUSH1 0x60 DUP4 ISZERO PUSH2 0x302D JUMPI POP DUP2 PUSH2 0x273B JUMP JUMPDEST DUP3 MLOAD ISZERO PUSH2 0x303D JUMPI DUP3 MLOAD DUP1 DUP5 PUSH1 0x20 ADD REVERT JUMPDEST DUP2 PUSH1 0x40 MLOAD PUSH3 0x461BCD PUSH1 0xE5 SHL DUP2 MSTORE PUSH1 0x4 ADD PUSH2 0x967 SWAP2 SWAP1 PUSH2 0x3272 JUMP JUMPDEST PUSH1 0x60 DUP3 SELFBALANCE LT ISZERO PUSH2 0x30B8 JUMPI PUSH1 0x40 MLOAD PUSH3 0x461BCD PUSH1 0xE5 SHL DUP2 MSTORE PUSH1 0x20 PUSH1 0x4 DUP3 ADD MSTORE PUSH1 0x26 PUSH1 0x24 DUP3 ADD MSTORE PUSH32 0x416464726573733A20696E73756666696369656E742062616C616E636520666F PUSH1 0x44 DUP3 ADD MSTORE PUSH6 0x1C8818D85B1B PUSH1 0xD2 SHL PUSH1 0x64 DUP3 ADD MSTORE PUSH1 0x84 ADD PUSH2 0x967 JUMP JUMPDEST PUSH1 0x1 PUSH1 0x1 PUSH1 0xA0 SHL SUB DUP6 AND EXTCODESIZE PUSH2 0x310F JUMPI PUSH1 0x40 MLOAD PUSH3 0x461BCD PUSH1 0xE5 SHL DUP2 MSTORE PUSH1 0x20 PUSH1 0x4 DUP3 ADD MSTORE PUSH1 0x1D PUSH1 0x24 DUP3 ADD MSTORE PUSH32 0x416464726573733A2063616C6C20746F206E6F6E2D636F6E7472616374000000 PUSH1 0x44 DUP3 ADD MSTORE PUSH1 0x64 ADD PUSH2 0x967 JUMP JUMPDEST PUSH1 0x0 DUP1 DUP7 PUSH1 0x1 PUSH1 0x1 PUSH1 0xA0 SHL SUB AND DUP6 DUP8 PUSH1 0x40 MLOAD PUSH2 0x312B SWAP2 SWAP1 PUSH2 0x3A2C JUMP JUMPDEST PUSH1 0x0 PUSH1 0x40 MLOAD DUP1 DUP4 SUB DUP2 DUP6 DUP8 GAS CALL SWAP3 POP POP POP RETURNDATASIZE DUP1 PUSH1 0x0 DUP2 EQ PUSH2 0x3168 JUMPI PUSH1 0x40 MLOAD SWAP2 POP PUSH1 0x1F NOT PUSH1 0x3F RETURNDATASIZE ADD AND DUP3 ADD PUSH1 0x40 MSTORE RETURNDATASIZE DUP3 MSTORE RETURNDATASIZE PUSH1 0x0 PUSH1 0x20 DUP5 ADD RETURNDATACOPY PUSH2 0x316D JUMP JUMPDEST PUSH1 0x60 SWAP2 POP JUMPDEST POP SWAP2 POP SWAP2 POP PUSH2 0x317D DUP3 DUP3 DUP7 PUSH2 0x301E JUMP JUMPDEST SWAP8 SWAP7 POP POP POP POP POP POP POP JUMP JUMPDEST PUSH1 0x40 MLOAD DUP1 PUSH1 0x80 ADD PUSH1 0x40 MSTORE DUP1 PUSH1 0x0 PUSH1 0xF SIGNEXTEND DUP2 MSTORE PUSH1 0x20 ADD PUSH1 0x0 PUSH1 0xF SIGNEXTEND DUP2 MSTORE PUSH1 0x20 ADD PUSH1 0x0 DUP2 MSTORE PUSH1 0x20 ADD PUSH1 0x0 DUP2 MSTORE POP SWAP1 JUMP JUMPDEST DUP3 DUP1 SLOAD PUSH2 0x31C2 SWAP1 PUSH2 0x350C JUMP JUMPDEST SWAP1 PUSH1 0x0 MSTORE PUSH1 0x20 PUSH1 0x0 KECCAK256 SWAP1 PUSH1 0x1F ADD PUSH1 0x20 SWAP1 DIV DUP2 ADD SWAP3 DUP3 PUSH2 0x31E4 JUMPI PUSH1 0x0 DUP6 SSTORE PUSH2 0x322A JUMP JUMPDEST DUP3 PUSH1 0x1F LT PUSH2 0x31FD JUMPI DUP1 MLOAD PUSH1 0xFF NOT AND DUP4 DUP1 ADD OR DUP6 SSTORE PUSH2 0x322A JUMP JUMPDEST DUP3 DUP1 ADD PUSH1 0x1 ADD DUP6 SSTORE DUP3 ISZERO PUSH2 0x322A JUMPI SWAP2 DUP3 ADD JUMPDEST DUP3 DUP2 GT ISZERO PUSH2 0x322A JUMPI DUP3 MLOAD DUP3 SSTORE SWAP2 PUSH1 0x20 ADD SWAP2 SWAP1 PUSH1 0x1 ADD SWAP1 PUSH2 0x320F JUMP JUMPDEST POP PUSH2 0x22FA SWAP3 SWAP2 POP JUMPDEST DUP1 DUP3 GT ISZERO PUSH2 0x22FA JUMPI PUSH1 0x0 DUP2 SSTORE PUSH1 0x1 ADD PUSH2 0x3232 JUMP JUMPDEST PUSH1 0x0 JUMPDEST DUP4 DUP2 LT ISZERO PUSH2 0x3261 JUMPI DUP2 DUP2 ADD MLOAD DUP4 DUP3 ADD MSTORE PUSH1 0x20 ADD PUSH2 0x3249 JUMP JUMPDEST DUP4 DUP2 GT ISZERO PUSH2 0x28E5 JUMPI POP POP PUSH1 0x0 SWAP2 ADD MSTORE JUMP JUMPDEST PUSH1 0x20 DUP2 MSTORE PUSH1 0x0 DUP3 MLOAD DUP1 PUSH1 0x20 DUP5 ADD MSTORE PUSH2 0x3291 DUP2 PUSH1 0x40 DUP6 ADD PUSH1 0x20 DUP8 ADD PUSH2 0x3246 JUMP JUMPDEST PUSH1 0x1F ADD PUSH1 0x1F NOT AND SWAP2 SWAP1 SWAP2 ADD PUSH1 0x40 ADD SWAP3 SWAP2 POP POP JUMP JUMPDEST DUP1 CALLDATALOAD PUSH1 0x1 PUSH1 0x1 PUSH1 0xA0 SHL SUB DUP2 AND DUP2 EQ PUSH2 0x32BC JUMPI PUSH1 0x0 DUP1 REVERT JUMPDEST SWAP2 SWAP1 POP JUMP JUMPDEST PUSH1 0x0 PUSH1 0x20 DUP3 DUP5 SUB SLT ISZERO PUSH2 0x32D3 JUMPI PUSH1 0x0 DUP1 REVERT JUMPDEST PUSH2 0xA13 DUP3 PUSH2 0x32A5 JUMP JUMPDEST PUSH1 0x0 DUP1 PUSH1 0x40 DUP4 DUP6 SUB SLT ISZERO PUSH2 0x32EF JUMPI PUSH1 0x0 DUP1 REVERT JUMPDEST PUSH2 0x32F8 DUP4 PUSH2 0x32A5 JUMP JUMPDEST SWAP5 PUSH1 0x20 SWAP4 SWAP1 SWAP4 ADD CALLDATALOAD SWAP4 POP POP POP JUMP JUMPDEST PUSH4 0x4E487B71 PUSH1 0xE0 SHL PUSH1 0x0 MSTORE PUSH1 0x41 PUSH1 0x4 MSTORE PUSH1 0x24 PUSH1 0x0 REVERT JUMPDEST PUSH1 0x40 MLOAD PUSH1 0x1F DUP3 ADD PUSH1 0x1F NOT AND DUP2 ADD PUSH8 0xFFFFFFFFFFFFFFFF DUP2 GT DUP3 DUP3 LT OR ISZERO PUSH2 0x3345 JUMPI PUSH2 0x3345 PUSH2 0x3306 JUMP JUMPDEST PUSH1 0x40 MSTORE SWAP2 SWAP1 POP JUMP JUMPDEST PUSH1 0x0 PUSH8 0xFFFFFFFFFFFFFFFF DUP3 GT ISZERO PUSH2 0x3367 JUMPI PUSH2 0x3367 PUSH2 0x3306 JUMP JUMPDEST POP PUSH1 0x1F ADD PUSH1 0x1F NOT AND PUSH1 0x20 ADD SWAP1 JUMP JUMPDEST PUSH1 0x0 DUP1 PUSH1 0x40 DUP4 DUP6 SUB SLT ISZERO PUSH2 0x3388 JUMPI PUSH1 0x0 DUP1 REVERT JUMPDEST PUSH2 0x3391 DUP4 PUSH2 0x32A5 JUMP JUMPDEST SWAP2 POP PUSH1 0x20 DUP4 ADD CALLDATALOAD PUSH8 0xFFFFFFFFFFFFFFFF DUP2 GT ISZERO PUSH2 0x33AD JUMPI PUSH1 0x0 DUP1 REVERT JUMPDEST DUP4 ADD PUSH1 0x1F DUP2 ADD DUP6 SGT PUSH2 0x33BE JUMPI PUSH1 0x0 DUP1 REVERT JUMPDEST DUP1 CALLDATALOAD PUSH2 0x33D1 PUSH2 0x33CC DUP3 PUSH2 0x334D JUMP JUMPDEST PUSH2 0x331C JUMP JUMPDEST DUP2 DUP2 MSTORE DUP7 PUSH1 0x20 DUP4 DUP6 ADD ADD GT ISZERO PUSH2 0x33E6 JUMPI PUSH1 0x0 DUP1 REVERT JUMPDEST DUP2 PUSH1 0x20 DUP5 ADD PUSH1 0x20 DUP4 ADD CALLDATACOPY PUSH1 0x0 PUSH1 0x20 DUP4 DUP4 ADD ADD MSTORE DUP1 SWAP4 POP POP POP POP SWAP3 POP SWAP3 SWAP1 POP JUMP JUMPDEST DUP1 CALLDATALOAD PUSH4 0xFFFFFFFF DUP2 AND DUP2 EQ PUSH2 0x32BC JUMPI PUSH1 0x0 DUP1 REVERT JUMPDEST PUSH1 0x0 PUSH1 0x20 DUP3 DUP5 SUB SLT ISZERO PUSH2 0x342C JUMPI PUSH1 0x0 DUP1 REVERT JUMPDEST PUSH2 0xA13 DUP3 PUSH2 0x3406 JUMP JUMPDEST PUSH1 0x0 PUSH1 0x20 DUP3 DUP5 SUB SLT ISZERO PUSH2 0x3447 JUMPI PUSH1 0x0 DUP1 REVERT JUMPDEST POP CALLDATALOAD SWAP2 SWAP1 POP JUMP JUMPDEST PUSH1 0x0 DUP1 PUSH1 0x40 DUP4 DUP6 SUB SLT ISZERO PUSH2 0x3461 JUMPI PUSH1 0x0 DUP1 REVERT JUMPDEST POP POP DUP1 CALLDATALOAD SWAP3 PUSH1 0x20 SWAP1 SWAP2 ADD CALLDATALOAD SWAP2 POP JUMP JUMPDEST PUSH1 0xFF DUP2 AND DUP2 EQ PUSH2 0xA04 JUMPI PUSH1 0x0 DUP1 REVERT JUMPDEST PUSH1 0x0 DUP1 PUSH1 0x0 DUP1 PUSH1 0x0 DUP1 PUSH1 0xC0 DUP8 DUP10 SUB SLT ISZERO PUSH2 0x3498 JUMPI PUSH1 0x0 DUP1 REVERT JUMPDEST PUSH2 0x34A1 DUP8 PUSH2 0x32A5 JUMP JUMPDEST SWAP6 POP PUSH1 0x20 DUP8 ADD CALLDATALOAD SWAP5 POP PUSH1 0x40 DUP8 ADD CALLDATALOAD SWAP4 POP PUSH1 0x60 DUP8 ADD CALLDATALOAD PUSH2 0x34BF DUP2 PUSH2 0x3470 JUMP JUMPDEST SWAP6 SWAP9 SWAP5 SWAP8 POP SWAP3 SWAP6 PUSH1 0x80 DUP2 ADD CALLDATALOAD SWAP5 PUSH1 0xA0 SWAP1 SWAP2 ADD CALLDATALOAD SWAP4 POP SWAP2 POP POP JUMP JUMPDEST PUSH1 0x0 DUP1 PUSH1 0x40 DUP4 DUP6 SUB SLT ISZERO PUSH2 0x34EC JUMPI PUSH1 0x0 DUP1 REVERT JUMPDEST PUSH2 0x34F5 DUP4 PUSH2 0x32A5 JUMP JUMPDEST SWAP2 POP PUSH2 0x3503 PUSH1 0x20 DUP5 ADD PUSH2 0x3406 JUMP JUMPDEST SWAP1 POP SWAP3 POP SWAP3 SWAP1 POP JUMP JUMPDEST PUSH1 0x1 DUP2 DUP2 SHR SWAP1 DUP3 AND DUP1 PUSH2 0x3520 JUMPI PUSH1 0x7F DUP3 AND SWAP2 POP JUMPDEST PUSH1 0x20 DUP3 LT DUP2 EQ ISZERO PUSH2 0x3541 JUMPI PUSH4 0x4E487B71 PUSH1 0xE0 SHL PUSH1 0x0 MSTORE PUSH1 0x22 PUSH1 0x4 MSTORE PUSH1 0x24 PUSH1 0x0 REVERT JUMPDEST POP SWAP2 SWAP1 POP JUMP JUMPDEST PUSH4 0x4E487B71 PUSH1 0xE0 SHL PUSH1 0x0 MSTORE PUSH1 0x11 PUSH1 0x4 MSTORE PUSH1 0x24 PUSH1 0x0 REVERT JUMPDEST PUSH1 0x0 DUP3 DUP3 LT ISZERO PUSH2 0x356F JUMPI PUSH2 0x356F PUSH2 0x3547 JUMP JUMPDEST POP SUB SWAP1 JUMP JUMPDEST PUSH4 0x4E487B71 PUSH1 0xE0 SHL PUSH1 0x0 MSTORE PUSH1 0x32 PUSH1 0x4 MSTORE PUSH1 0x24 PUSH1 0x0 REVERT JUMPDEST PUSH1 0x20 DUP1 DUP3 MSTORE PUSH1 0x2C SWAP1 DUP3 ADD MSTORE PUSH32 0x46756E6374696F6E206D7573742062652063616C6C6564207468726F75676820 PUSH1 0x40 DUP3 ADD MSTORE PUSH12 0x19195B1959D85D1958D85B1B PUSH1 0xA2 SHL PUSH1 0x60 DUP3 ADD MSTORE PUSH1 0x80 ADD SWAP1 JUMP JUMPDEST PUSH1 0x20 DUP1 DUP3 MSTORE PUSH1 0x2C SWAP1 DUP3 ADD MSTORE PUSH32 0x46756E6374696F6E206D7573742062652063616C6C6564207468726F75676820 PUSH1 0x40 DUP3 ADD MSTORE PUSH12 0x6163746976652070726F7879 PUSH1 0xA0 SHL PUSH1 0x60 DUP3 ADD MSTORE PUSH1 0x80 ADD SWAP1 JUMP JUMPDEST PUSH1 0x0 DUP6 MLOAD PUSH2 0x3634 DUP2 DUP5 PUSH1 0x20 DUP11 ADD PUSH2 0x3246 JUMP JUMPDEST DUP6 MLOAD SWAP1 DUP4 ADD SWAP1 PUSH2 0x3648 DUP2 DUP4 PUSH1 0x20 DUP11 ADD PUSH2 0x3246 JUMP JUMPDEST DUP6 MLOAD SWAP2 ADD SWAP1 PUSH2 0x365B DUP2 DUP4 PUSH1 0x20 DUP10 ADD PUSH2 0x3246 JUMP JUMPDEST DUP5 MLOAD SWAP2 ADD SWAP1 PUSH2 0x366E DUP2 DUP4 PUSH1 0x20 DUP9 ADD PUSH2 0x3246 JUMP JUMPDEST ADD SWAP7 SWAP6 POP POP POP POP POP POP JUMP JUMPDEST PUSH1 0x0 DUP3 NOT DUP3 GT ISZERO PUSH2 0x368C JUMPI PUSH2 0x368C PUSH2 0x3547 JUMP JUMPDEST POP ADD SWAP1 JUMP JUMPDEST PUSH1 0x0 DUP2 PUSH1 0x0 NOT DIV DUP4 GT DUP3 ISZERO ISZERO AND ISZERO PUSH2 0x36AB JUMPI PUSH2 0x36AB PUSH2 0x3547 JUMP JUMPDEST POP MUL SWAP1 JUMP JUMPDEST PUSH4 0x4E487B71 PUSH1 0xE0 SHL PUSH1 0x0 MSTORE PUSH1 0x12 PUSH1 0x4 MSTORE PUSH1 0x24 PUSH1 0x0 REVERT JUMPDEST PUSH1 0x0 DUP3 PUSH2 0x36D5 JUMPI PUSH2 0x36D5 PUSH2 0x36B0 JUMP JUMPDEST POP DIV SWAP1 JUMP JUMPDEST PUSH1 0x0 DUP2 PUSH1 0xF SIGNEXTEND DUP4 PUSH1 0xF SIGNEXTEND PUSH1 0x1 PUSH1 0x1 PUSH1 0x7F SHL SUB PUSH1 0x0 DUP3 SGT PUSH1 0x0 DUP5 SGT DUP4 DUP4 DIV DUP6 GT DUP3 DUP3 AND AND ISZERO PUSH2 0x370A JUMPI PUSH2 0x370A PUSH2 0x3547 JUMP JUMPDEST PUSH1 0x1 PUSH1 0x1 PUSH1 0x7F SHL SUB NOT PUSH1 0x0 DUP6 SLT DUP3 DUP2 AND DUP8 DUP4 SDIV DUP8 SLT AND ISZERO PUSH2 0x372D JUMPI PUSH2 0x372D PUSH2 0x3547 JUMP JUMPDEST PUSH1 0x0 DUP8 SLT SWAP3 POP DUP6 DUP3 SDIV DUP8 SLT DUP5 DUP5 AND AND ISZERO PUSH2 0x3749 JUMPI PUSH2 0x3749 PUSH2 0x3547 JUMP JUMPDEST DUP6 DUP6 SDIV DUP8 SLT DUP2 DUP5 AND AND ISZERO PUSH2 0x375F JUMPI PUSH2 0x375F PUSH2 0x3547 JUMP JUMPDEST POP POP POP SWAP3 SWAP1 SWAP2 MUL SWAP6 SWAP5 POP POP POP POP POP JUMP JUMPDEST PUSH1 0x0 DUP2 PUSH1 0xF SIGNEXTEND DUP4 PUSH1 0xF SIGNEXTEND PUSH1 0x0 DUP2 SLT DUP2 PUSH1 0x1 PUSH1 0x1 PUSH1 0x7F SHL SUB NOT ADD DUP4 SLT DUP2 ISZERO AND ISZERO PUSH2 0x379A JUMPI PUSH2 0x379A PUSH2 0x3547 JUMP JUMPDEST DUP2 PUSH1 0x1 PUSH1 0x1 PUSH1 0x7F SHL SUB ADD DUP4 SGT DUP2 AND ISZERO PUSH2 0x37B5 JUMPI PUSH2 0x37B5 PUSH2 0x3547 JUMP JUMPDEST POP SWAP1 SUB SWAP4 SWAP3 POP POP POP JUMP JUMPDEST PUSH1 0x20 DUP1 DUP3 MSTORE DUP2 DUP2 ADD MSTORE PUSH32 0x4F776E61626C653A2063616C6C6572206973206E6F7420746865206F776E6572 PUSH1 0x40 DUP3 ADD MSTORE PUSH1 0x60 ADD SWAP1 JUMP JUMPDEST PUSH1 0x0 PUSH1 0x20 DUP3 DUP5 SUB SLT ISZERO PUSH2 0x3806 JUMPI PUSH1 0x0 DUP1 REVERT JUMPDEST DUP2 MLOAD PUSH8 0xFFFFFFFFFFFFFFFF DUP2 GT ISZERO PUSH2 0x381D JUMPI PUSH1 0x0 DUP1 REVERT JUMPDEST DUP3 ADD PUSH1 0x1F DUP2 ADD DUP5 SGT PUSH2 0x382E JUMPI PUSH1 0x0 DUP1 REVERT JUMPDEST DUP1 MLOAD PUSH2 0x383C PUSH2 0x33CC DUP3 PUSH2 0x334D JUMP JUMPDEST DUP2 DUP2 MSTORE DUP6 PUSH1 0x20 DUP4 DUP6 ADD ADD GT ISZERO PUSH2 0x3851 JUMPI PUSH1 0x0 DUP1 REVERT JUMPDEST PUSH2 0x1663 DUP3 PUSH1 0x20 DUP4 ADD PUSH1 0x20 DUP7 ADD PUSH2 0x3246 JUMP JUMPDEST PUSH1 0x0 DUP4 MLOAD PUSH2 0x3874 DUP2 DUP5 PUSH1 0x20 DUP9 ADD PUSH2 0x3246 JUMP JUMPDEST PUSH1 0x1 PUSH1 0xFD SHL SWAP1 DUP4 ADD SWAP1 DUP2 MSTORE DUP4 MLOAD PUSH2 0x3892 DUP2 PUSH1 0x1 DUP5 ADD PUSH1 0x20 DUP9 ADD PUSH2 0x3246 JUMP JUMPDEST ADD PUSH1 0x1 ADD SWAP5 SWAP4 POP POP POP POP JUMP JUMPDEST PUSH1 0x0 DUP4 MLOAD PUSH2 0x38B0 DUP2 DUP5 PUSH1 0x20 DUP9 ADD PUSH2 0x3246 JUMP JUMPDEST DUP4 MLOAD SWAP1 DUP4 ADD SWAP1 PUSH2 0x38C4 DUP2 DUP4 PUSH1 0x20 DUP9 ADD PUSH2 0x3246 JUMP JUMPDEST ADD SWAP5 SWAP4 POP POP POP POP JUMP JUMPDEST PUSH1 0x0 PUSH1 0x20 DUP3 DUP5 SUB SLT ISZERO PUSH2 0x38DF JUMPI PUSH1 0x0 DUP1 REVERT JUMPDEST DUP2 MLOAD PUSH2 0x273B DUP2 PUSH2 0x3470 JUMP JUMPDEST PUSH1 0x0 DUP2 PUSH1 0xF SIGNEXTEND DUP4 PUSH1 0xF SIGNEXTEND PUSH1 0x0 DUP3 SLT DUP3 PUSH1 0x1 PUSH1 0x1 PUSH1 0x7F SHL SUB SUB DUP3 SGT DUP2 ISZERO AND ISZERO PUSH2 0x3914 JUMPI PUSH2 0x3914 PUSH2 0x3547 JUMP JUMPDEST DUP3 PUSH1 0x1 PUSH1 0x1 PUSH1 0x7F SHL SUB NOT SUB DUP3 SLT DUP2 AND ISZERO PUSH2 0x3930 JUMPI PUSH2 0x3930 PUSH2 0x3547 JUMP JUMPDEST POP ADD SWAP4 SWAP3 POP POP POP JUMP JUMPDEST PUSH1 0x0 PUSH1 0x0 NOT DUP3 EQ ISZERO PUSH2 0x394D JUMPI PUSH2 0x394D PUSH2 0x3547 JUMP JUMPDEST POP PUSH1 0x1 ADD SWAP1 JUMP JUMPDEST PUSH1 0x0 PUSH1 0x20 DUP3 DUP5 SUB SLT ISZERO PUSH2 0x3966 JUMPI PUSH1 0x0 DUP1 REVERT JUMPDEST POP MLOAD SWAP2 SWAP1 POP JUMP JUMPDEST PUSH1 0x0 DUP3 PUSH2 0x397C JUMPI PUSH2 0x397C PUSH2 0x36B0 JUMP JUMPDEST POP MOD SWAP1 JUMP JUMPDEST PUSH1 0x0 DUP2 PUSH1 0xF SIGNEXTEND DUP4 PUSH1 0xF SIGNEXTEND DUP1 PUSH2 0x3998 JUMPI PUSH2 0x3998 PUSH2 0x36B0 JUMP JUMPDEST PUSH1 0x1 PUSH1 0x1 PUSH1 0x7F SHL SUB NOT DUP3 EQ PUSH1 0x0 NOT DUP3 EQ AND ISZERO PUSH2 0x39B6 JUMPI PUSH2 0x39B6 PUSH2 0x3547 JUMP JUMPDEST SWAP1 SDIV SWAP4 SWAP3 POP POP POP JUMP JUMPDEST PUSH1 0x20 DUP1 DUP3 MSTORE PUSH1 0x2B SWAP1 DUP3 ADD MSTORE PUSH32 0x496E697469616C697A61626C653A20636F6E7472616374206973206E6F742069 PUSH1 0x40 DUP3 ADD MSTORE PUSH11 0x6E697469616C697A696E67 PUSH1 0xA8 SHL PUSH1 0x60 DUP3 ADD MSTORE PUSH1 0x80 ADD SWAP1 JUMP JUMPDEST PUSH1 0x0 PUSH1 0x20 DUP3 DUP5 SUB SLT ISZERO PUSH2 0x3A1C JUMPI PUSH1 0x0 DUP1 REVERT JUMPDEST DUP2 MLOAD DUP1 ISZERO ISZERO DUP2 EQ PUSH2 0x273B JUMPI PUSH1 0x0 DUP1 REVERT JUMPDEST PUSH1 0x0 DUP3 MLOAD PUSH2 0x3A3E DUP2 DUP5 PUSH1 0x20 DUP8 ADD PUSH2 0x3246 JUMP JUMPDEST SWAP2 SWAP1 SWAP2 ADD SWAP3 SWAP2 POP POP JUMP INVALID CALLDATASIZE ADDMOD SWAP5 LOG1 EXTCODESIZE LOG1 LOG3 0x21 MOD PUSH8 0xC828492DB98DCA3E KECCAK256 PUSH23 0xCC3735A920A3CA505D382BBC416464726573733A206C6F PUSH24 0x2D6C6576656C2064656C65676174652063616C6C20666169 PUSH13 0x6564A2646970667358221220AD 0xB1 DUP14 0xD9 PUSH19 0x59D73B34B6EC13FEA99A67D54A17F0037A541C 0xCA STOP 0xA8 SELFDESTRUCT PUSH5 0xA84D2F6473 PUSH16 0x6C634300080B00330000000000000000 ",
  "sha1": "8d0518d3032c61e2e8982f55a3b251d744830d5a",
  "source": "// SPDX-License-Identifier: MIT\n\n// Inspired by the Curve.fi VotingEscrow contract and the mStable Solidity fork.\n//    - Adds compatability with the OpenZeppelin governance stack (4.5.0)\n//    - Removes the separate lockup amount and lockup duration extension functions info\n//      favour of a single function for create or update.\n//    - Adds an deprecate mechanism for removing all voting power and allowing users too\n//      withdraw lockups\n//\n// References:\n//   - https://github.com/curvefi/curve-dao-contracts/blob/master/contracts/VotingEscrow.vy\n//   - https://github.com/mstable/mStable-contracts/blob/master/contracts/governance/IncentivisedVotingLockup.sol\n\npragma solidity ^0.8.4;\n\nimport \"OpenZeppelin/openzeppelin-contracts@4.5.0/contracts/token/ERC20/ERC20.sol\";\nimport \"OpenZeppelin/openzeppelin-contracts@4.5.0/contracts/utils/math/SafeCast.sol\";\nimport \"OpenZeppelin/openzeppelin-contracts@4.5.0/contracts/token/ERC20/utils/SafeERC20.sol\";\nimport \"OpenZeppelin/openzeppelin-contracts@4.5.0/contracts/utils/Strings.sol\";\nimport \"OpenZeppelin/openzeppelin-contracts-upgradeable@4.5.0/contracts/access/OwnableUpgradeable.sol\";\nimport \"OpenZeppelin/openzeppelin-contracts-upgradeable@4.5.0/contracts/proxy/utils/Initializable.sol\";\nimport \"OpenZeppelin/openzeppelin-contracts-upgradeable@4.5.0/contracts/proxy/utils/UUPSUpgradeable.sol\";\n\ncontract VoteLockerCurve is Initializable, OwnableUpgradeable, UUPSUpgradeable {\n    using SafeERC20 for ERC20;\n\n    ///@notice Emitted when a lockup is created\n    event LockupCreated(\n        address indexed provider,\n        int128 amount,\n        uint256 end,\n        uint256 ts\n    );\n    ///@notice Emitted when an existing lockup is changed\n    event LockupUpdated(\n        address indexed provider,\n        int128 oldAmount,\n        uint256 oldEnd,\n        int128 amount,\n        uint256 end,\n        uint256 ts\n    );\n    ///@notice Emitted when a user withdraws from an expired lockup\n    event Withdraw(address indexed provider, uint256 value, uint256 ts);\n\n    ///@notice ERC20 parameters\n    string private _name;\n    string private _symbol;\n    uint8 private _decimals;\n\n    ///@notice Definition of a week\n    uint256 private constant WEEK = 7 days;\n    ///@notice Maximum lock time\n    uint256 public constant MAX_LOCK_TIME = 4 * 365 * 86400; // 4 years\n    ///@notice Vote boost if locked for maximum duration\n    uint256 public constant MAX_VOTE_MULTIPLE = 4;\n\n    ///@notice Checkpoints for each user\n    mapping(address => Checkpoint[]) private _userCheckpoints;\n    mapping(address => uint256) public userEpoch;\n\n    ///@notice Global checkpoints\n    Checkpoint[] private _globalCheckpoints;\n    uint256 public globalEpoch;\n\n    ///@notice Lockup mapping for each user\n    mapping(address => Lockup) public lockups;\n\n    ///@notice\n    mapping(uint256 => int128) public slopeChanges;\n\n    ///@notice Delegation mapping\n    mapping(address => address) private _delegations;\n\n    ///@notice Token that is locked up in return for vote escrowed token\n    ERC20 stakingToken;\n\n    struct Checkpoint {\n        int128 bias;\n        int128 slope;\n        uint256 ts;\n        uint256 blk;\n    }\n\n    struct Lockup {\n        int128 amount;\n        uint256 end;\n    }\n\n    ///@custom:oz-upgrades-unsafe-allow constructor\n    constructor() initializer {}\n\n    function initialize(address _stakingToken) public initializer {\n        __Ownable_init();\n        __UUPSUpgradeable_init();\n\n        stakingToken = ERC20(_stakingToken);\n\n        // Derive the name and symbol from the staking token\n        _name = string(\n            bytes.concat(bytes(\"Vote Locked\"), \" \", bytes(stakingToken.name()))\n        );\n        _symbol = string(\n            bytes.concat(bytes(\"vl\"), bytes(stakingToken.symbol()))\n        );\n        // Use the same decimals as the staking token\n        _decimals = stakingToken.decimals();\n\n        // Push an initial global checkpoint\n        _globalCheckpoints.push(\n            Checkpoint({\n                bias: 0,\n                slope: 0,\n                ts: block.timestamp,\n                blk: block.number\n            })\n        );\n    }\n\n    /**\n     * @dev Returns the name of the token.\n     */\n    function name() public view virtual returns (string memory) {\n        return _name;\n    }\n\n    /**\n     * @dev Returns the symbol of the token, usually a shorter version of the\n     * name.\n     */\n    function symbol() public view virtual returns (string memory) {\n        return _symbol;\n    }\n\n    /**\n     * @dev Returns the number of decimals used to get its user representation.\n     * For example, if `decimals` equals `2`, a balance of `505` tokens should\n     * be displayed to a user as `5.05` (`505 / 10 ** 2`).\n     *\n     * Tokens usually opt for a value of 18, imitating the relationship between\n     * Ether and Wei. This is the value {ERC20} uses, unless this function is\n     * overridden;\n     */\n    function decimals() public view virtual returns (uint8) {\n        return _decimals;\n    }\n\n    /**\n     * @dev See {ERC20-balanceOf}.\n     */\n    function balanceOf(address _account) public view returns (uint256) {\n        uint256 currentUserEpoch = userEpoch[_account];\n        if (currentUserEpoch == 0) {\n            return 0;\n        }\n        Checkpoint memory lastCheckpoint = _userCheckpoints[_account][\n            currentUserEpoch\n        ];\n        // Calculate the bias based on the last bias and the slope over the difference\n        // in time between the last checkpint timestamp and the current block timestamp;\n        lastCheckpoint.bias -= (lastCheckpoint.slope *\n            SafeCast.toInt128(int256(block.timestamp - lastCheckpoint.ts)));\n        return SafeCast.toUint256(max(lastCheckpoint.bias, 0));\n    }\n\n    /**\n     * @dev See {ERC20-totalSupply}.\n     */\n    function totalSupply() public view returns (uint256) {\n        if (_globalCheckpoints.length == 0) {\n            return 0;\n        }\n        Checkpoint memory lastCheckpoint = _globalCheckpoints[globalEpoch];\n        return _supplyAt(lastCheckpoint, block.timestamp);\n    }\n\n    /**\n     * @dev Get the `pos`-th checkpoint for `_account`.\n     */\n    function checkpoints(address _account, uint32 _pos)\n        public\n        view\n        virtual\n        returns (Checkpoint memory)\n    {\n        return _userCheckpoints[_account][_pos];\n    }\n\n    /**\n     * @dev Get number of checkpoints for `_account`.\n     */\n    function numCheckpoints(address _account)\n        public\n        view\n        virtual\n        returns (uint32)\n    {\n        return SafeCast.toUint32(_userCheckpoints[_account].length);\n    }\n\n    /**\n     * @dev Get last checkpoint for `_account`.\n     */\n    function getLastCheckpoint(address _account)\n        public\n        view\n        returns (Checkpoint memory)\n    {\n        return\n            _userCheckpoints[_account][_userCheckpoints[_account].length - 1];\n    }\n\n    /**\n     * @dev Get the `pos`-th global checkpoint.\n     */\n    function globalCheckpoints(uint32 pos)\n        public\n        view\n        returns (Checkpoint memory)\n    {\n        return _globalCheckpoints[pos];\n    }\n\n    /**\n     * @dev Get number of global checkpoints.\n     */\n    function numGlobalCheckpoints() public view returns (uint256) {\n        return _globalCheckpoints.length;\n    }\n\n    /**\n     * @dev Get the last global checkpoint.\n     */\n    function getLastGlobalCheckpoint() public view returns (Checkpoint memory) {\n        return _globalCheckpoints[_globalCheckpoints.length - 1];\n    }\n\n    /**\n     * @dev Gets the current votes balance for `_account`\n     * This method is required for compatibility with the OpenZeppelin governance ERC20Votes.\n     * @param _account Account to get the votes balance for\n     * @return uint256 Current votes balance for `_account`\n     */\n    function getVotes(address _account) public view returns (uint256) {\n        return balanceOf(_account);\n    }\n\n    /**\n     * @dev Gets the current lockup for `_account`\n     */\n    function getLockup(address _account) public view returns (Lockup memory) {\n        return lockups[_account];\n    }\n\n    /**\n     * @dev Get the address `_account` is currently delegating to.\n     */\n    function delegates(address _account) public view virtual returns (address) {\n        return _delegations[_account];\n    }\n\n    /**\n     * @dev Delegate votes from the sender to `delegatee`.\n     */\n    function delegate(address delegatee) public virtual {\n        // TODO\n        revert(\"Delegation is not supported\");\n    }\n\n    /**\n     * @dev Delegates votes from signer to `delegatee`\n     */\n    function delegateBySig(\n        address delegatee,\n        uint256 nonce,\n        uint256 end,\n        uint8 v,\n        bytes32 r,\n        bytes32 s\n    ) public virtual {\n        revert(\"Delegation by signature is not supported\");\n    }\n\n    /**\n     * @dev Deposits staking token and mints new tokens according to the MAX_VOTE_MULTIPLE and _end parameters.\n     */\n    function lockup(uint256 _amount, uint256 _end) public virtual {\n        // end is rounded down to week\n        _end = _floorToWeek(_end);\n\n        Lockup memory oldLockup = lockups[msg.sender];\n\n        require(\n            _end > block.timestamp,\n            \"End must be greater than the current block timestamp\"\n        );\n        if (oldLockup.end > 0 && _end < oldLockup.end) {\n            revert(\"End must be greater than or equal to the current end\");\n        }\n        // This is not an extension of an existing lockup, validate end\n        require(\n            _end - block.timestamp <= MAX_LOCK_TIME,\n            \"End must be before maximum lockup time\"\n        );\n        int128 amount = SafeCast.toInt128(int256(_amount));\n        // Amount extensions\n        require(\n            amount >= oldLockup.amount,\n            \"Amount must be greater than or equal to current amount\"\n        );\n\n        // oldLockup.amount is 0 if no lockup, or something if this is an increase in locked\n        // amount\n        uint256 amountDelta = SafeCast.toUint256(amount - oldLockup.amount);\n\n        // Old lockup amount will be 0 if no existing lockup, if this is an increase of the\n        // lockup amount, then _amount can be 0\n        Lockup memory newLockup = Lockup({amount: amount, end: _end});\n\n        lockups[msg.sender] = newLockup;\n\n        if (amountDelta > 0) {\n            // Transfer the amount delta\n            stakingToken.safeTransferFrom(\n                msg.sender,\n                address(this),\n                amountDelta\n            );\n        }\n\n        if (oldLockup.end > 0) {\n            // This is an extension of an existing lockup\n            emit LockupUpdated(\n                msg.sender,\n                oldLockup.amount,\n                oldLockup.end,\n                newLockup.amount,\n                newLockup.end,\n                block.timestamp\n            );\n        } else {\n            emit LockupCreated(\n                msg.sender,\n                newLockup.amount,\n                newLockup.end,\n                block.timestamp\n            );\n        }\n\n        _writeUserCheckpoint(msg.sender, oldLockup, newLockup);\n    }\n\n    /**\n     * @dev Withdraw tokens from an expired lockup.\n     */\n    function withdraw() public {\n        Lockup memory oldLockup = Lockup({\n            end: lockups[msg.sender].end,\n            amount: lockups[msg.sender].amount\n        });\n        require(\n            block.timestamp >= oldLockup.end,\n            string(\n                bytes.concat(\n                    bytes(\"Lockup expires at \"),\n                    bytes(Strings.toString(oldLockup.end)),\n                    bytes(\", now is \"),\n                    bytes(Strings.toString(block.timestamp))\n                )\n            )\n        );\n\n        require(oldLockup.amount > 0, \"Lockup has no tokens\");\n\n        Lockup memory newLockup = Lockup({end: 0, amount: 0});\n        lockups[msg.sender] = newLockup;\n\n        uint256 amount = SafeCast.toUint256(oldLockup.amount);\n\n        stakingToken.safeTransfer(msg.sender, amount);\n\n        _writeUserCheckpoint(msg.sender, oldLockup, newLockup);\n\n        emit Withdraw(msg.sender, amount, block.timestamp);\n    }\n\n    /**\n     * @dev Public function to trigger global checkpoint\n     */\n    function checkpoint() external {\n        _writeGlobalCheckpoint(0, 0);\n    }\n\n    /**\n     * @dev Write user checkpoint. User checkpoints are used to calculate the\n     * users vote balance for current and historical blocks.\n     * @param _oldLockup Users lockup prior to the change that triggered the checkpoint\n     * @param _newLockup Users new lockup\n     */\n    function _writeUserCheckpoint(\n        address _account,\n        Lockup memory _oldLockup,\n        Lockup memory _newLockup\n    ) private returns (uint256 oldWeight, uint256 newWeight) {\n        Checkpoint memory oldCheckpoint;\n        Checkpoint memory newCheckpoint;\n\n        int128 oldSlopeDelta = 0;\n        int128 newSlopeDelta = 0;\n\n        if (_oldLockup.end > block.timestamp && _oldLockup.amount > 0) {\n            // Old checkpoint still active, calculates its slope and bias\n            oldCheckpoint.slope =\n                _oldLockup.amount /\n                SafeCast.toInt128(int256(MAX_LOCK_TIME));\n            oldCheckpoint.bias =\n                oldCheckpoint.slope *\n                SafeCast.toInt128(int256(_oldLockup.end - block.timestamp));\n        }\n        if (_newLockup.end > block.timestamp && _newLockup.amount > 0) {\n            // New lockup also active, calculate its slope and bias\n            newCheckpoint.slope =\n                _newLockup.amount /\n                SafeCast.toInt128(int256(MAX_LOCK_TIME));\n            newCheckpoint.bias =\n                newCheckpoint.slope *\n                SafeCast.toInt128(int256(_newLockup.end - block.timestamp));\n        }\n\n        uint256 userCurrentEpoch = userEpoch[_account];\n        if (userCurrentEpoch == 0) {\n            // First user epoch, push first checkpoint\n            _userCheckpoints[_account].push(oldCheckpoint);\n        }\n\n        newCheckpoint.ts = block.timestamp;\n        newCheckpoint.blk = block.number;\n        userEpoch[_account] = userCurrentEpoch + 1;\n        // Push second checkpoint\n        _userCheckpoints[_account].push(newCheckpoint);\n\n        oldSlopeDelta = slopeChanges[_oldLockup.end];\n        if (_newLockup.end != 0) {\n            if (_newLockup.end == _oldLockup.end) {\n                // Lockup dates are the same end time, slope delta is the same\n                newSlopeDelta = oldSlopeDelta;\n            } else {\n                newSlopeDelta = slopeChanges[_newLockup.end];\n            }\n        }\n\n        _writeGlobalCheckpoint(\n            newCheckpoint.slope - oldCheckpoint.slope,\n            newCheckpoint.bias - oldCheckpoint.bias\n        );\n\n        // Schedule the slope changes\n        if (_oldLockup.end > block.timestamp) {\n            // Old lockup has not expired yet, so this is an adjustment of the slope\n            // oldSlopeDelta was <something> - oldCheckpoint.slope, so we cancel that\n            oldSlopeDelta = oldSlopeDelta + oldCheckpoint.slope;\n            if (_newLockup.end == _oldLockup.end) {\n                // It was a new deposit, not extension\n                oldSlopeDelta = oldSlopeDelta - newCheckpoint.slope;\n            }\n            slopeChanges[_oldLockup.end] = oldSlopeDelta;\n        }\n        if (_newLockup.end > block.timestamp) {\n            if (_newLockup.end > _oldLockup.end) {\n                newSlopeDelta = newSlopeDelta - newCheckpoint.slope;\n                slopeChanges[_newLockup.end] = newSlopeDelta;\n            }\n        }\n    }\n\n    /**\n     * @dev Write a global checkpoints. Global checkpoints are used to calculate the\n     * total supply for current and historical blocks.\n     * @param userSlopeDelta Change in slope that triggered this checkpoint\n     * @param userBiasDelta Change in bias that triggered this checkpoint\n     */\n    function _writeGlobalCheckpoint(int128 userSlopeDelta, int128 userBiasDelta)\n        private\n        returns (Checkpoint memory lastCheckpoint)\n    {\n        if (globalEpoch > 0) {\n            lastCheckpoint = _globalCheckpoints[globalEpoch];\n        } else {\n            lastCheckpoint = Checkpoint({\n                bias: 0,\n                slope: 0,\n                ts: block.timestamp,\n                blk: block.number\n            });\n        }\n\n        Checkpoint memory initialLastCheckpoint = Checkpoint({\n            bias: 0,\n            slope: 0,\n            ts: lastCheckpoint.ts,\n            blk: lastCheckpoint.blk\n        });\n\n        uint256 blockSlope = 0; // dblock/dt\n        if (block.timestamp > lastCheckpoint.ts) {\n            // Scaled up\n            blockSlope =\n                ((block.number - lastCheckpoint.blk) * 1e18) /\n                (block.timestamp - lastCheckpoint.ts);\n        }\n\n        uint256 lastCheckpointTimestamp = lastCheckpoint.ts;\n        uint256 iterativeTime = _floorToWeek(lastCheckpointTimestamp);\n\n        for (uint256 i = 0; i < 255; i++) {\n            // 5 years\n            iterativeTime = iterativeTime + WEEK;\n\n            int128 slopeDelta = 0;\n            if (iterativeTime > block.timestamp) {\n                // Current epoch\n                iterativeTime = block.timestamp;\n            } else {\n                slopeDelta = slopeChanges[iterativeTime];\n            }\n\n            // Calculate the change in bias for the current epoch\n            int128 biasDelta = lastCheckpoint.slope *\n                SafeCast.toInt128(\n                    int256((iterativeTime - lastCheckpointTimestamp))\n                );\n\n            // The bias can be below 0\n            lastCheckpoint.bias = max(lastCheckpoint.bias - biasDelta, 0);\n            // The slope should never be below 0 but added for safety\n            lastCheckpoint.slope = max(lastCheckpoint.slope + slopeDelta, 0);\n            lastCheckpoint.ts = iterativeTime;\n            lastCheckpointTimestamp = iterativeTime;\n            lastCheckpoint.blk =\n                initialLastCheckpoint.blk +\n                ((blockSlope * (iterativeTime - initialLastCheckpoint.ts)) /\n                    1e18); // Scale back down\n\n            globalEpoch += 1;\n\n            if (iterativeTime == block.timestamp) {\n                lastCheckpoint.blk = block.number;\n                // Adjust the last checkpoint for any delta from the user\n                lastCheckpoint.slope = max(\n                    lastCheckpoint.slope + userSlopeDelta,\n                    0\n                );\n                lastCheckpoint.bias = max(\n                    lastCheckpoint.bias + userBiasDelta,\n                    0\n                );\n                _globalCheckpoints.push(lastCheckpoint);\n                break;\n            } else {\n                _globalCheckpoints.push(lastCheckpoint);\n            }\n        }\n    }\n\n    /**\n     * @param _block Find the most recent point history before this block\n     * @param _maxEpoch Maximum epoch\n     * @return uint256 The most recent epoch before the block\n     */\n    function _findEpoch(\n        Checkpoint[] memory _checkpoints,\n        uint256 _block,\n        uint256 _maxEpoch\n    ) internal view returns (uint256) {\n        uint256 minEpoch = 0;\n        uint256 maxEpoch = _maxEpoch;\n        for (uint256 i = 0; i < 128; i++) {\n            if (minEpoch >= maxEpoch) break;\n            uint256 mid = (minEpoch + maxEpoch + 1) / 2;\n            if (_checkpoints[mid].blk <= _block) {\n                minEpoch = mid;\n            } else {\n                maxEpoch = mid - 1;\n            }\n        }\n        return minEpoch;\n    }\n\n    /**\n     * @dev Retrieve the number of votes for `_account` at the end of `_blockNumber`.\n     *\n     * This method is required for compatibility with the OpenZeppelin governance ERC20Votes.\n     *\n     * Requirements:\n     *\n     * - `blockNumber` must have been already mined\n     */\n    function getPastVotes(address _account, uint256 _blockNumber)\n        public\n        view\n        returns (uint256)\n    {\n        return balanceOfAt(_account, _blockNumber);\n    }\n\n    /**\n     * @dev Gets a users votingWeight at a given blockNumber\n     * @param _account User for which to return the balance\n     * @param _blockNumber Block at which to calculate balance\n     * @return uint256 Balance of user\n     */\n    function balanceOfAt(address _account, uint256 _blockNumber)\n        public\n        view\n        returns (uint256)\n    {\n        require(_blockNumber <= block.number, \"Block number is in the future\");\n\n        // Get most recent user Checkpoint to block\n        uint256 recentUserEpoch = _findEpoch(\n            _userCheckpoints[_account],\n            _blockNumber,\n            userEpoch[_account] // Max epoch\n        );\n        if (recentUserEpoch == 0) {\n            return 0;\n        }\n        Checkpoint memory userPoint = _userCheckpoints[_account][\n            recentUserEpoch\n        ];\n\n        // Get most recent global Checkpoint to block\n        uint256 recentGlobalEpoch = _findEpoch(\n            _globalCheckpoints,\n            _blockNumber,\n            globalEpoch // Max epoch\n        );\n        Checkpoint memory checkpoint0 = _globalCheckpoints[recentGlobalEpoch];\n\n        // Calculate delta (block & time) between checkpoint and target block\n        // Allowing us to calculate the average seconds per block between\n        // the two points\n        uint256 dBlock = 0;\n        uint256 dTime = 0;\n        if (recentGlobalEpoch < globalEpoch) {\n            Checkpoint memory checkpoint1 = _globalCheckpoints[\n                recentGlobalEpoch + 1\n            ];\n            dBlock = checkpoint1.blk - checkpoint0.blk;\n            dTime = checkpoint1.ts - checkpoint0.ts;\n        } else {\n            dBlock = block.number - checkpoint0.blk;\n            dTime = block.timestamp - checkpoint0.ts;\n        }\n\n        // (Deterministically) Estimate the time at which block _blockNumber was mined\n        uint256 blockTime = checkpoint0.ts;\n        if (dBlock != 0) {\n            blockTime += (dTime * (_blockNumber - checkpoint0.blk)) / dBlock;\n        }\n\n        // Current Bias = most recent bias - (slope * time since update)\n        userPoint.bias -= (userPoint.slope *\n            SafeCast.toInt128(int256(blockTime - userPoint.ts)));\n        if (userPoint.bias >= 0) {\n            return SafeCast.toUint256(userPoint.bias);\n        } else {\n            return 0;\n        }\n    }\n\n    /**\n     * @dev Retrieve the `totalSupply` at the end of `blockNumber`.\n     *\n     * This method is required for compatibility with the OpenZeppelin governance ERC20Votes.\n     *\n     * Requirements:\n     *\n     * - `_blockNumber` must have been already mined\n     *\n     * @param _blockNumber Block at which to calculate total supply\n     * @return uint256 Total supply at the given block\n     */\n    function getPastTotalSupply(uint256 _blockNumber)\n        public\n        view\n        returns (uint256)\n    {\n        return totalSupplyAt(_blockNumber);\n    }\n\n    /**\n     * @dev Calculates total supply of votingWeight at a given blockNumber\n     * @param _blockNumber Block number at which to calculate total supply\n     * @return totalSupply of voting token weight at the given blockNumber\n     */\n    function totalSupplyAt(uint256 _blockNumber) public view returns (uint256) {\n        require(_blockNumber <= block.number, \"Block number is in the future\");\n\n        // Get most recent global Checkpoint to block\n        uint256 recentGlobalEpoch = _findEpoch(\n            _globalCheckpoints,\n            _blockNumber,\n            globalEpoch\n        );\n\n        Checkpoint memory checkpoint0 = _globalCheckpoints[recentGlobalEpoch];\n\n        if (checkpoint0.blk > _blockNumber) {\n            return 0;\n        }\n\n        uint256 dTime = 0;\n        if (recentGlobalEpoch < globalEpoch) {\n            Checkpoint memory checkpoint1 = _globalCheckpoints[\n                recentGlobalEpoch + 1\n            ];\n            if (checkpoint0.blk != checkpoint1.blk) {\n                dTime =\n                    ((_blockNumber - checkpoint0.blk) *\n                        (checkpoint1.ts - checkpoint0.ts)) /\n                    (checkpoint1.blk - checkpoint0.blk);\n            }\n        } else if (checkpoint0.blk != block.number) {\n            dTime =\n                ((_blockNumber - checkpoint0.blk) *\n                    (block.timestamp - checkpoint0.ts)) /\n                (block.number - checkpoint0.blk);\n        }\n        // Now dTime contains info on how far are we beyond point\n\n        return _supplyAt(checkpoint0, checkpoint0.ts + dTime);\n    }\n\n    /**\n     * @dev Calculates total supply of votingWeight at a given time _t\n     * @param _checkpoint Most recent point before time _t\n     * @param _time Time at which to calculate supply\n     * @return totalSupply at given point in time\n     */\n    function _supplyAt(Checkpoint memory _checkpoint, uint256 _time)\n        internal\n        view\n        returns (uint256)\n    {\n        Checkpoint memory lastCheckpoint = _checkpoint;\n\n        // Floor the timestamp to weekly interval\n        uint256 iterativeTime = _floorToWeek(lastCheckpoint.ts);\n        // Iterate through all weeks between _checkpoint & _time to account for slope changes\n        for (uint256 i = 0; i < 255; i++) {\n            iterativeTime = iterativeTime + WEEK;\n            int128 dSlope = 0;\n            // If week end is after timestamp, then truncate & leave dSlope to 0\n            if (iterativeTime > _time) {\n                iterativeTime = _time;\n            }\n            // else get most recent slope change\n            else {\n                dSlope = slopeChanges[iterativeTime];\n            }\n\n            lastCheckpoint.bias =\n                lastCheckpoint.bias -\n                (lastCheckpoint.slope *\n                    SafeCast.toInt128(\n                        int256(iterativeTime - lastCheckpoint.ts)\n                    ));\n\n            if (iterativeTime == _time) {\n                break;\n            }\n\n            lastCheckpoint.slope = lastCheckpoint.slope + dSlope;\n            lastCheckpoint.ts = iterativeTime;\n        }\n\n        return SafeCast.toUint256(max(lastCheckpoint.bias, 0));\n    }\n\n    /**\n     * @dev Floors a timestamp to the nearest weekly increment\n     * @param _t Timestamp to floor\n     * @return uint256 Timestamp floored to nearest weekly increment\n     */\n    function _floorToWeek(uint256 _t) internal pure returns (uint256) {\n        return (_t / WEEK) * WEEK;\n    }\n\n    /**\n     * @dev Returns the largest of two numbers.\n     * @param _a First number\n     * @param _b Second number\n     * @return Largest of _a and _b\n     */\n    function max(uint256 _a, uint256 _b) internal pure returns (uint256) {\n        return _a >= _b ? _a : _b;\n    }\n\n    /**\n     * @dev Returns the smallest of two numbers.\n     * @param _a First number\n     * @param _b Second number\n     * @return Smallest of _a and _b\n     */\n    function max(int128 _a, int128 _b) internal pure returns (int128) {\n        return _a >= _b ? _a : _b;\n    }\n\n    function _authorizeUpgrade(address newImplementation)\n        internal\n        override\n        onlyOwner\n    {}\n}\n",
  "sourcePath": "contracts/VoteLockerCurve.sol",
  "type": "contract"
}