{
  "abi": [
    {
      "inputs": [
        {
          "internalType": "address",
          "name": "_stakingToken",
          "type": "address"
        }
      ],
      "stateMutability": "nonpayable",
      "type": "constructor"
    },
    {
      "anonymous": false,
      "inputs": [
        {
          "indexed": true,
          "internalType": "address",
          "name": "provider",
          "type": "address"
        },
        {
          "indexed": false,
          "internalType": "int128",
          "name": "amount",
          "type": "int128"
        },
        {
          "indexed": false,
          "internalType": "uint256",
          "name": "end",
          "type": "uint256"
        },
        {
          "indexed": false,
          "internalType": "uint256",
          "name": "ts",
          "type": "uint256"
        }
      ],
      "name": "LockupCreated",
      "type": "event"
    },
    {
      "anonymous": false,
      "inputs": [
        {
          "indexed": true,
          "internalType": "address",
          "name": "provider",
          "type": "address"
        },
        {
          "indexed": false,
          "internalType": "int128",
          "name": "oldAmount",
          "type": "int128"
        },
        {
          "indexed": false,
          "internalType": "uint256",
          "name": "oldEnd",
          "type": "uint256"
        },
        {
          "indexed": false,
          "internalType": "int128",
          "name": "amount",
          "type": "int128"
        },
        {
          "indexed": false,
          "internalType": "uint256",
          "name": "end",
          "type": "uint256"
        },
        {
          "indexed": false,
          "internalType": "uint256",
          "name": "ts",
          "type": "uint256"
        }
      ],
      "name": "LockupUpdated",
      "type": "event"
    },
    {
      "anonymous": false,
      "inputs": [
        {
          "indexed": true,
          "internalType": "address",
          "name": "provider",
          "type": "address"
        },
        {
          "indexed": false,
          "internalType": "uint256",
          "name": "value",
          "type": "uint256"
        },
        {
          "indexed": false,
          "internalType": "uint256",
          "name": "ts",
          "type": "uint256"
        }
      ],
      "name": "Withdraw",
      "type": "event"
    },
    {
      "inputs": [],
      "name": "MAX_LOCK_TIME",
      "outputs": [
        {
          "internalType": "uint256",
          "name": "",
          "type": "uint256"
        }
      ],
      "stateMutability": "view",
      "type": "function"
    },
    {
      "inputs": [],
      "name": "MAX_VOTE_MULTIPLE",
      "outputs": [
        {
          "internalType": "uint256",
          "name": "",
          "type": "uint256"
        }
      ],
      "stateMutability": "view",
      "type": "function"
    },
    {
      "inputs": [
        {
          "internalType": "address",
          "name": "_account",
          "type": "address"
        }
      ],
      "name": "balanceOf",
      "outputs": [
        {
          "internalType": "uint256",
          "name": "",
          "type": "uint256"
        }
      ],
      "stateMutability": "view",
      "type": "function"
    },
    {
      "inputs": [
        {
          "internalType": "address",
          "name": "_account",
          "type": "address"
        },
        {
          "internalType": "uint256",
          "name": "_blockNumber",
          "type": "uint256"
        }
      ],
      "name": "balanceOfAt",
      "outputs": [
        {
          "internalType": "uint256",
          "name": "",
          "type": "uint256"
        }
      ],
      "stateMutability": "view",
      "type": "function"
    },
    {
      "inputs": [],
      "name": "checkpoint",
      "outputs": [],
      "stateMutability": "nonpayable",
      "type": "function"
    },
    {
      "inputs": [
        {
          "internalType": "address",
          "name": "_account",
          "type": "address"
        },
        {
          "internalType": "uint32",
          "name": "_pos",
          "type": "uint32"
        }
      ],
      "name": "checkpoints",
      "outputs": [
        {
          "components": [
            {
              "internalType": "int128",
              "name": "bias",
              "type": "int128"
            },
            {
              "internalType": "int128",
              "name": "slope",
              "type": "int128"
            },
            {
              "internalType": "uint256",
              "name": "ts",
              "type": "uint256"
            },
            {
              "internalType": "uint256",
              "name": "blk",
              "type": "uint256"
            }
          ],
          "internalType": "struct VoteLockerCurve.Checkpoint",
          "name": "",
          "type": "tuple"
        }
      ],
      "stateMutability": "view",
      "type": "function"
    },
    {
      "inputs": [],
      "name": "decimals",
      "outputs": [
        {
          "internalType": "uint8",
          "name": "",
          "type": "uint8"
        }
      ],
      "stateMutability": "view",
      "type": "function"
    },
    {
      "inputs": [
        {
          "internalType": "address",
          "name": "delegatee",
          "type": "address"
        }
      ],
      "name": "delegate",
      "outputs": [],
      "stateMutability": "nonpayable",
      "type": "function"
    },
    {
      "inputs": [
        {
          "internalType": "address",
          "name": "delegatee",
          "type": "address"
        },
        {
          "internalType": "uint256",
          "name": "nonce",
          "type": "uint256"
        },
        {
          "internalType": "uint256",
          "name": "end",
          "type": "uint256"
        },
        {
          "internalType": "uint8",
          "name": "v",
          "type": "uint8"
        },
        {
          "internalType": "bytes32",
          "name": "r",
          "type": "bytes32"
        },
        {
          "internalType": "bytes32",
          "name": "s",
          "type": "bytes32"
        }
      ],
      "name": "delegateBySig",
      "outputs": [],
      "stateMutability": "nonpayable",
      "type": "function"
    },
    {
      "inputs": [
        {
          "internalType": "address",
          "name": "_account",
          "type": "address"
        }
      ],
      "name": "delegates",
      "outputs": [
        {
          "internalType": "address",
          "name": "",
          "type": "address"
        }
      ],
      "stateMutability": "view",
      "type": "function"
    },
    {
      "inputs": [
        {
          "internalType": "address",
          "name": "_account",
          "type": "address"
        }
      ],
      "name": "getLastCheckpoint",
      "outputs": [
        {
          "components": [
            {
              "internalType": "int128",
              "name": "bias",
              "type": "int128"
            },
            {
              "internalType": "int128",
              "name": "slope",
              "type": "int128"
            },
            {
              "internalType": "uint256",
              "name": "ts",
              "type": "uint256"
            },
            {
              "internalType": "uint256",
              "name": "blk",
              "type": "uint256"
            }
          ],
          "internalType": "struct VoteLockerCurve.Checkpoint",
          "name": "",
          "type": "tuple"
        }
      ],
      "stateMutability": "view",
      "type": "function"
    },
    {
      "inputs": [],
      "name": "getLastGlobalCheckpoint",
      "outputs": [
        {
          "components": [
            {
              "internalType": "int128",
              "name": "bias",
              "type": "int128"
            },
            {
              "internalType": "int128",
              "name": "slope",
              "type": "int128"
            },
            {
              "internalType": "uint256",
              "name": "ts",
              "type": "uint256"
            },
            {
              "internalType": "uint256",
              "name": "blk",
              "type": "uint256"
            }
          ],
          "internalType": "struct VoteLockerCurve.Checkpoint",
          "name": "",
          "type": "tuple"
        }
      ],
      "stateMutability": "view",
      "type": "function"
    },
    {
      "inputs": [
        {
          "internalType": "address",
          "name": "_account",
          "type": "address"
        }
      ],
      "name": "getLockup",
      "outputs": [
        {
          "components": [
            {
              "internalType": "int128",
              "name": "amount",
              "type": "int128"
            },
            {
              "internalType": "uint256",
              "name": "end",
              "type": "uint256"
            }
          ],
          "internalType": "struct VoteLockerCurve.Lockup",
          "name": "",
          "type": "tuple"
        }
      ],
      "stateMutability": "view",
      "type": "function"
    },
    {
      "inputs": [
        {
          "internalType": "uint256",
          "name": "_blockNumber",
          "type": "uint256"
        }
      ],
      "name": "getPastTotalSupply",
      "outputs": [
        {
          "internalType": "uint256",
          "name": "",
          "type": "uint256"
        }
      ],
      "stateMutability": "view",
      "type": "function"
    },
    {
      "inputs": [
        {
          "internalType": "address",
          "name": "_account",
          "type": "address"
        },
        {
          "internalType": "uint256",
          "name": "_blockNumber",
          "type": "uint256"
        }
      ],
      "name": "getPastVotes",
      "outputs": [
        {
          "internalType": "uint256",
          "name": "",
          "type": "uint256"
        }
      ],
      "stateMutability": "view",
      "type": "function"
    },
    {
      "inputs": [
        {
          "internalType": "address",
          "name": "_account",
          "type": "address"
        }
      ],
      "name": "getVotes",
      "outputs": [
        {
          "internalType": "uint256",
          "name": "",
          "type": "uint256"
        }
      ],
      "stateMutability": "view",
      "type": "function"
    },
    {
      "inputs": [
        {
          "internalType": "uint32",
          "name": "pos",
          "type": "uint32"
        }
      ],
      "name": "globalCheckpoints",
      "outputs": [
        {
          "components": [
            {
              "internalType": "int128",
              "name": "bias",
              "type": "int128"
            },
            {
              "internalType": "int128",
              "name": "slope",
              "type": "int128"
            },
            {
              "internalType": "uint256",
              "name": "ts",
              "type": "uint256"
            },
            {
              "internalType": "uint256",
              "name": "blk",
              "type": "uint256"
            }
          ],
          "internalType": "struct VoteLockerCurve.Checkpoint",
          "name": "",
          "type": "tuple"
        }
      ],
      "stateMutability": "view",
      "type": "function"
    },
    {
      "inputs": [],
      "name": "globalEpoch",
      "outputs": [
        {
          "internalType": "uint256",
          "name": "",
          "type": "uint256"
        }
      ],
      "stateMutability": "view",
      "type": "function"
    },
    {
      "inputs": [
        {
          "internalType": "uint256",
          "name": "_amount",
          "type": "uint256"
        },
        {
          "internalType": "uint256",
          "name": "_end",
          "type": "uint256"
        }
      ],
      "name": "lockup",
      "outputs": [],
      "stateMutability": "nonpayable",
      "type": "function"
    },
    {
      "inputs": [
        {
          "internalType": "address",
          "name": "",
          "type": "address"
        }
      ],
      "name": "lockups",
      "outputs": [
        {
          "internalType": "int128",
          "name": "amount",
          "type": "int128"
        },
        {
          "internalType": "uint256",
          "name": "end",
          "type": "uint256"
        }
      ],
      "stateMutability": "view",
      "type": "function"
    },
    {
      "inputs": [],
      "name": "name",
      "outputs": [
        {
          "internalType": "string",
          "name": "",
          "type": "string"
        }
      ],
      "stateMutability": "view",
      "type": "function"
    },
    {
      "inputs": [
        {
          "internalType": "address",
          "name": "_account",
          "type": "address"
        }
      ],
      "name": "numCheckpoints",
      "outputs": [
        {
          "internalType": "uint32",
          "name": "",
          "type": "uint32"
        }
      ],
      "stateMutability": "view",
      "type": "function"
    },
    {
      "inputs": [],
      "name": "numGlobalCheckpoints",
      "outputs": [
        {
          "internalType": "uint256",
          "name": "",
          "type": "uint256"
        }
      ],
      "stateMutability": "view",
      "type": "function"
    },
    {
      "inputs": [
        {
          "internalType": "uint256",
          "name": "",
          "type": "uint256"
        }
      ],
      "name": "slopeChanges",
      "outputs": [
        {
          "internalType": "int128",
          "name": "",
          "type": "int128"
        }
      ],
      "stateMutability": "view",
      "type": "function"
    },
    {
      "inputs": [],
      "name": "symbol",
      "outputs": [
        {
          "internalType": "string",
          "name": "",
          "type": "string"
        }
      ],
      "stateMutability": "view",
      "type": "function"
    },
    {
      "inputs": [],
      "name": "totalSupply",
      "outputs": [
        {
          "internalType": "uint256",
          "name": "",
          "type": "uint256"
        }
      ],
      "stateMutability": "view",
      "type": "function"
    },
    {
      "inputs": [
        {
          "internalType": "uint256",
          "name": "_blockNumber",
          "type": "uint256"
        }
      ],
      "name": "totalSupplyAt",
      "outputs": [
        {
          "internalType": "uint256",
          "name": "",
          "type": "uint256"
        }
      ],
      "stateMutability": "view",
      "type": "function"
    },
    {
      "inputs": [
        {
          "internalType": "address",
          "name": "",
          "type": "address"
        }
      ],
      "name": "userEpoch",
      "outputs": [
        {
          "internalType": "uint256",
          "name": "",
          "type": "uint256"
        }
      ],
      "stateMutability": "view",
      "type": "function"
    },
    {
      "inputs": [],
      "name": "withdraw",
      "outputs": [],
      "stateMutability": "nonpayable",
      "type": "function"
    }
  ],
  "bytecode": "60806040523480156200001157600080fd5b5060405162002ea338038062002ea38339810160408190526200003491620003e4565b600a80546001600160a01b0319166001600160a01b038316908117909155604080518082018252600b81526a159bdd1948131bd8dad95960aa1b602082015281516306fdde0360e01b815291519092916306fdde039160048083019260009291908290030181865afa158015620000af573d6000803e3d6000fd5b505050506040513d6000823e601f3d908101601f19168201604052620000d991908101906200045f565b604051602001620000ec92919062000517565b60405160208183030381529060405260009080519060200190620001129291906200033e565b50604051806040016040528060028152602001611d9b60f21b815250600a60009054906101000a90046001600160a01b03166001600160a01b03166395d89b416040518163ffffffff1660e01b8152600401600060405180830381865afa15801562000182573d6000803e3d6000fd5b505050506040513d6000823e601f3d908101601f19168201604052620001ac91908101906200045f565b604051602001620001bf92919062000557565b60405160208183030381529060405260019080519060200190620001e59291906200033e565b50600a60009054906101000a90046001600160a01b03166001600160a01b031663313ce5676040518163ffffffff1660e01b8152600401602060405180830381865afa1580156200023a573d6000803e3d6000fd5b505050506040513d601f19601f820116820180604052508101906200026091906200058a565b6002805460ff9290921660ff199092169190911790555060408051608081018252600080825260208201818152429383019384524360608401908152600580546001810182559352925190516001600160801b03908116600160801b0291161760039091027f036b6384b5eca791c62761152d0c79bb0604c104a5fb6f4eb0703f3154bb3db081019190915591517f036b6384b5eca791c62761152d0c79bb0604c104a5fb6f4eb0703f3154bb3db1830155517f036b6384b5eca791c62761152d0c79bb0604c104a5fb6f4eb0703f3154bb3db290910155620005ec565b8280546200034c90620005af565b90600052602060002090601f016020900481019282620003705760008555620003bb565b82601f106200038b57805160ff1916838001178555620003bb565b82800160010185558215620003bb579182015b82811115620003bb5782518255916020019190600101906200039e565b50620003c9929150620003cd565b5090565b5b80821115620003c95760008155600101620003ce565b600060208284031215620003f757600080fd5b81516001600160a01b03811681146200040f57600080fd5b9392505050565b634e487b7160e01b600052604160045260246000fd5b60005b83811015620004495781810151838201526020016200042f565b8381111562000459576000848401525b50505050565b6000602082840312156200047257600080fd5b81516001600160401b03808211156200048a57600080fd5b818401915084601f8301126200049f57600080fd5b815181811115620004b457620004b462000416565b604051601f8201601f19908116603f01168101908382118183101715620004df57620004df62000416565b81604052828152876020848701011115620004f957600080fd5b6200050c8360208301602088016200042c565b979650505050505050565b600083516200052b8184602088016200042c565b600160fd1b90830190815283516200054b8160018401602088016200042c565b01600101949350505050565b600083516200056b8184602088016200042c565b835190830190620005818183602088016200042c565b01949350505050565b6000602082840312156200059d57600080fd5b815160ff811681146200040f57600080fd5b600181811c90821680620005c457607f821691505b60208210811415620005e657634e487b7160e01b600052602260045260246000fd5b50919050565b6128a780620005fc6000396000f3fe608060405234801561001057600080fd5b50600436106101cf5760003560e01c80638e539e8c11610104578063c2c4c5c1116100a2578063cb03623a11610071578063cb03623a14610491578063f1127ed8146104b1578063f52a36f7146104c4578063fa78668f146104fa57600080fd5b8063c2c4c5c114610426578063c3cda5201461042e578063c5e687d414610441578063c7b6d4321461044957600080fd5b806395d89b41116100de57806395d89b41146103e5578063981b24d0146103ed5780639ab24eb014610400578063a8bb66961461041357600080fd5b80638e539e8c146103c25780639497497a146103d557806395b3aa19146103dd57600080fd5b80635719098b1161017157806367afd1cc1161014b57806367afd1cc146102fe5780636909221d146103745780636fcfff451461038757806370a08231146103af57600080fd5b80635719098b1461029e578063587cde1e146102a75780635c19a95c146102eb57600080fd5b8063313ce567116101ad578063313ce567146102595780633a46b1a81461026e5780633ccfd60b146102815780634ee2cd7e1461028b57600080fd5b806306fdde03146101d457806311cde220146101f257806318160ddd14610243575b600080fd5b6101dc610505565b6040516101e991906123b5565b60405180910390f35b610205610200366004612404565b610597565b6040516101e9919060006080820190508251600f0b82526020830151600f0b6020830152604083015160408301526060830151606083015292915050565b61024b610626565b6040519081526020016101e9565b60025460405160ff90911681526020016101e9565b61024b61027c36600461241f565b6106aa565b6102896106bf565b005b61024b61029936600461241f565b6108b0565b61024b60065481565b6102d36102b5366004612404565b6001600160a01b039081166000908152600960205260409020541690565b6040516001600160a01b0390911681526020016101e9565b6102896102f9366004612404565b610ca9565b61035661030c366004612404565b6040805180820190915260008082526020820152506001600160a01b031660009081526007602090815260409182902082518084019093528054600f0b8352600101549082015290565b604080518251600f0b815260209283015192810192909252016101e9565b61020561038236600461245d565b610cf1565b61039a610395366004612404565b610d12565b60405163ffffffff90911681526020016101e9565b61024b6103bd366004612404565b610d34565b61024b6103d0366004612478565b610e27565b61024b600481565b610205610e32565b6101dc610eaa565b61024b6103fb366004612478565b610eb9565b61024b61040e366004612404565b61115e565b610289610421366004612491565b611169565b6102896114d3565b61028961043c3660046124b3565b6114e1565b60055461024b565b610477610457366004612404565b60076020526000908152604090208054600190910154600f9190910b9082565b60408051600f9390930b83526020830191909152016101e9565b61024b61049f366004612404565b60046020526000908152604090205481565b6102056104bf366004612513565b61153a565b6104e76104d2366004612478565b600860205260009081526040902054600f0b81565b604051600f9190910b81526020016101e9565b61024b630784ce0081565b60606000805461051490612546565b80601f016020809104026020016040519081016040528092919081815260200182805461054090612546565b801561058d5780601f106105625761010080835404028352916020019161058d565b820191906000526020600020905b81548152906001019060200180831161057057829003601f168201915b5050505050905090565b61059f61235b565b6001600160a01b038216600090815260036020526040902080546105c590600190612597565b815481106105d5576105d56125ae565b60009182526020918290206040805160808101825260039093029091018054600f81810b8552600160801b909104900b93830193909352600183015490820152600290910154606082015292915050565b6005546000906106365750600090565b600060056006548154811061064d5761064d6125ae565b60009182526020918290206040805160808101825260039093029091018054600f81810b8552600160801b909104900b93830193909352600183015490820152600290910154606082015290506106a481426115c5565b91505090565b60006106b683836108b0565b90505b92915050565b604080518082018252336000818152600760208181528583208054600f0b86529390925281526001909101548183018181528451808601909552601285527102637b1b5bab81032bc3834b932b99030ba160751b92850192909252905191924291909110159161072e906116a3565b60405180604001604052806009815260200168016103737bb9034b9960bd1b815250610759426116a3565b60405160200161076c94939291906125c4565b604051602081830303815290604052906107a25760405162461bcd60e51b815260040161079991906123b5565b60405180910390fd5b5060008160000151600f0b136107f15760405162461bcd60e51b81526020600482015260146024820152734c6f636b757020686173206e6f20746f6b656e7360601b6044820152606401610799565b604080518082018252600080825260208083018281523383526007909152928120825181546001600160801b0319166001600160801b039091161781559251600190930192909255825190919061084a90600f0b6117a1565b600a54909150610864906001600160a01b031633836117f7565b61086f33848461185f565b50506040805182815242602082015233917ff279e6a1f5e320cca91135676d9cb6e44ca8a08c0b88342bcdb1144f6511b568910160405180910390a2505050565b6000438211156109025760405162461bcd60e51b815260206004820152601d60248201527f426c6f636b206e756d62657220697320696e20746865206675747572650000006044820152606401610799565b6001600160a01b038316600090815260036020908152604080832080548251818502810185019093528083526109b993859084015b8282101561099557600084815260209081902060408051608081018252600386029092018054600f81810b8552600160801b909104900b83850152600180820154928401929092526002015460608301529083529092019101610937565b5050506001600160a01b038716600090815260046020526040902054869150611ba4565b9050806109ca5760009150506106b9565b6001600160a01b03841660009081526003602052604081208054839081106109f4576109f46125ae565b600091825260208083206040805160808101825260039094029091018054600f81810b8652600160801b909104900b8484015260018101548483015260020154606084015260058054825181850281018501909352808352939550610ac8939192909190859084015b82821015610abb57600084815260209081902060408051608081018252600386029092018054600f81810b8552600160801b909104900b83850152600180820154928401929092526002015460608301529083529092019101610a5d565b5050505086600654611ba4565b9050600060058281548110610adf57610adf6125ae565b600091825260208083206040805160808101825260039094029091018054600f81810b8652600160801b909104900b928401929092526001820154908301526002015460608201526006549092508190841015610bd15760006005610b4586600161261b565b81548110610b5557610b556125ae565b60009182526020918290206040805160808101825260039093029091018054600f81810b8552600160801b909104900b938301939093526001830154908201526002909101546060808301829052860151919250610bb39190612597565b925083604001518160400151610bc99190612597565b915050610bf5565b6060830151610be09043612597565b9150826040015142610bf29190612597565b90505b60408301518215610c32578284606001518a610c119190612597565b610c1b9084612633565b610c259190612668565b610c2f908261261b565b90505b610c4a866040015182610c459190612597565b611c3e565b8660200151610c59919061267c565b86518790610c68908390612711565b600f90810b90915287516000910b129050610c99578551610c8b90600f0b6117a1565b9750505050505050506106b9565b60009750505050505050506106b9565b60405162461bcd60e51b815260206004820152601b60248201527f44656c65676174696f6e206973206e6f7420737570706f7274656400000000006044820152606401610799565b610cf961235b565b60058263ffffffff16815481106105d5576105d56125ae565b6001600160a01b0381166000908152600360205260408120546106b990611cbb565b6001600160a01b03811660009081526004602052604081205480610d5b5750600092915050565b6001600160a01b0383166000908152600360205260408120805483908110610d8557610d856125ae565b60009182526020918290206040805160808101825260039093029091018054600f81810b8552600160801b909104900b93830193909352600183015490820181905260029092015460608201529150610de290610c459042612597565b8160200151610df1919061267c565b81518290610e00908390612711565b600f0b9052508051610e1f90610e17906000611d20565b600f0b6117a1565b949350505050565b60006106b982610eb9565b610e3a61235b565b60058054610e4a90600190612597565b81548110610e5a57610e5a6125ae565b60009182526020918290206040805160808101825260039093029091018054600f81810b8552600160801b909104900b938301939093526001830154908201526002909101546060820152919050565b60606001805461051490612546565b600043821115610f0b5760405162461bcd60e51b815260206004820152601d60248201527f426c6f636b206e756d62657220697320696e20746865206675747572650000006044820152606401610799565b6000610f9d6005805480602002602001604051908101604052809291908181526020016000905b82821015610f9057600084815260209081902060408051608081018252600386029092018054600f81810b8552600160801b909104900b83850152600180820154928401929092526002015460608301529083529092019101610f32565b5050505084600654611ba4565b9050600060058281548110610fb457610fb46125ae565b60009182526020918290206040805160808101825260039093029091018054600f81810b8552600160801b909104900b9383019390935260018301549082015260029091015460608201819052909150841015611015575060009392505050565b60006006548310156110ed576000600561103085600161261b565b81548110611040576110406125ae565b60009182526020918290206040805160808101825260039093029091018054600f81810b8552600160801b909104900b938301939093526001830154908201526002909101546060808301829052850151919250146110e757826060015181606001516110ad9190612597565b836040015182604001516110c19190612597565b60608501516110d09089612597565b6110da9190612633565b6110e49190612668565b91505b5061113c565b4382606001511461113c5760608201516111079043612597565b60408301516111169042612597565b60608401516111259088612597565b61112f9190612633565b6111399190612668565b90505b61115582828460400151611150919061261b565b6115c5565b95945050505050565b60006106b982610d34565b61117281611d3d565b3360009081526007602090815260409182902082518084019093528054600f0b8352600101549082015290915042821161120b5760405162461bcd60e51b815260206004820152603460248201527f456e64206d7573742062652067726561746572207468616e2074686520637572604482015273072656e7420626c6f636b2074696d657374616d760641b6064820152608401610799565b600081602001511180156112225750806020015182105b1561128c5760405162461bcd60e51b815260206004820152603460248201527f456e64206d7573742062652067726561746572207468616e206f7220657175616044820152731b081d1bc81d1a194818dd5c9c995b9d08195b9960621b6064820152608401610799565b630784ce0061129b4284612597565b11156112f85760405162461bcd60e51b815260206004820152602660248201527f456e64206d757374206265206265666f7265206d6178696d756d206c6f636b75604482015265702074696d6560d01b6064820152608401610799565b600061130384611c3e565b90508160000151600f0b81600f0b121561137e5760405162461bcd60e51b815260206004820152603660248201527f416d6f756e74206d7573742062652067726561746572207468616e206f7220656044820152751c5d585b081d1bc818dd5c9c995b9d08185b5bdd5b9d60521b6064820152608401610799565b815160009061139190610e179084612711565b604080518082018252600f85900b815260208082018881523360009081526007909252929020815181546001600160801b0319166001600160801b03909116178155915160019092019190915590915081156113ff57600a546113ff906001600160a01b0316333085611d57565b60208401511561147157835160208086015183518483015160408051600f96870b815294850193909352930b90820152606081019190915242608082015233907f268a3d7ea661e9e2bd617021c94b431919691c0d21aa2eb3ea2b9644a5383d129060a00160405180910390a26114be565b805160208083015160408051600f9490940b845291830152429082015233907f7006565168b74edd823b144526503320d833b826edea3f82059ca1806a954fc39060600160405180910390a25b6114c933858361185f565b5050505050505050565b6114de600080611d95565b50565b60405162461bcd60e51b815260206004820152602860248201527f44656c65676174696f6e206279207369676e6174757265206973206e6f7420736044820152671d5c1c1bdc9d195960c21b6064820152608401610799565b61154261235b565b6001600160a01b0383166000908152600360205260409020805463ffffffff8416908110611572576115726125ae565b60009182526020918290206040805160808101825260039093029091018054600f81810b8552600160801b909104900b938301939093526001830154908201526002909101546060820152905092915050565b60008083905060006115da8260400151611d3d565b905060005b60ff811015611690576115f562093a808361261b565b91506000858311156116095785925061161d565b50600082815260086020526040902054600f0b5b611630846040015184610c459190612597565b846020015161163f919061267c565b845161164b9190612711565b600f0b84528286141561165e5750611690565b80846020015161166e9190612761565b600f0b6020850152506040830182905280611688816127b0565b9150506115df565b50611155610e1783600001516000611d20565b6060816116c75750506040805180820190915260018152600360fc1b602082015290565b8160005b81156116f157806116db816127b0565b91506116ea9050600a83612668565b91506116cb565b60008167ffffffffffffffff81111561170c5761170c6127cb565b6040519080825280601f01601f191660200182016040528015611736576020820181803683370190505b5090505b8415610e1f5761174b600183612597565b9150611758600a866127e1565b61176390603061261b565b60f81b818381518110611778576117786125ae565b60200101906001600160f81b031916908160001a90535061179a600a86612668565b945061173a565b6000808212156117f35760405162461bcd60e51b815260206004820181905260248201527f53616665436173743a2076616c7565206d75737420626520706f7369746976656044820152606401610799565b5090565b6040516001600160a01b03831660248201526044810182905261185a90849063a9059cbb60e01b906064015b60408051601f198184030181529190526020810180516001600160e01b03166001600160e01b031990931692909217909152612175565b505050565b60008061186a61235b565b61187261235b565b60008042886020015111801561188f575060008860000151600f0b135b156118e0576118a1630784ce00611c3e565b88516118ad91906127f5565b600f0b6020808601919091528801516118cb90610c45904290612597565b84602001516118da919061267c565b600f0b84525b4287602001511180156118fa575060008760000151600f0b135b1561194b5761190c630784ce00611c3e565b875161191891906127f5565b600f0b60208085019190915287015161193690610c45904290612597565b8360200151611945919061267c565b600f0b83525b6001600160a01b038916600090815260046020526040902054806119ce576001600160a01b038a166000908152600360208181526040808420805460018181018355918652948390208a51938b01516001600160801b03908116600160801b02941693909317949093029091019283558701519082015560608601516002909101555b4260408501524360608501526119e581600161261b565b6001600160a01b038b1660009081526004602090815260408083209390935560038082528383208054600181810183559185528385208a518b8601516001600160801b03908116600160801b0291161791909302909201918255888501519082015560608801516002909101558b8101518252600881529190205490890151600f9190910b935015611aa457886020015188602001511415611a8957829150611aa4565b602080890151600090815260089091526040902054600f0b91505b611ace85602001518560200151611abb9190612711565b86518651611ac99190612711565b611d95565b504289602001511115611b3c576020850151611aea9084612761565b9250886020015188602001511415611b0e576020840151611b0b9084612711565b92505b602089810151600090815260089091526040902080546001600160801b0319166001600160801b0385161790555b4288602001511115611b9757886020015188602001511115611b97576020840151611b679083612711565b602089810151600090815260089091526040902080546001600160801b0319166001600160801b03831617905591505b5050505050935093915050565b60008082815b6080811015611c3157818310611bbf57611c31565b60006002611bcd848661261b565b611bd890600161261b565b611be29190612668565b905086888281518110611bf757611bf76125ae565b60200260200101516060015111611c1057809350611c1e565b611c1b600182612597565b92505b5080611c29816127b0565b915050611baa565b50909150505b9392505050565b600060016001607f1b03198212801590611c5f575060016001607f1b038213155b6117f35760405162461bcd60e51b815260206004820152602760248201527f53616665436173743a2076616c756520646f65736e27742066697420696e20316044820152663238206269747360c81b6064820152608401610799565b600063ffffffff8211156117f35760405162461bcd60e51b815260206004820152602660248201527f53616665436173743a2076616c756520646f65736e27742066697420696e203360448201526532206269747360d01b6064820152608401610799565b600081600f0b83600f0b1215611d3657816106b6565b5090919050565b600062093a80611d4d8184612668565b6106b99190612633565b6040516001600160a01b0380851660248301528316604482015260648101829052611d8f9085906323b872dd60e01b90608401611823565b50505050565b611d9d61235b565b60065415611e0c57600560065481548110611dba57611dba6125ae565b60009182526020918290206040805160808101825260039093029091018054600f81810b8552600160801b909104900b9383019390935260018301549082015260029091015460608201529050611e30565b50604080516080810182526000808252602082015242918101919091524360608201525b60408051608081018252600080825260208201819052838301805193830193909352606080850151908301529151909190421115611ea5576040830151611e779042612597565b6060840151611e869043612597565b611e9890670de0b6b3a7640000612633565b611ea29190612668565b90505b60408301516000611eb582611d3d565b905060005b60ff81101561216a57611ed062093a808361261b565b9150600042831115611ee457429250611ef8565b50600082815260086020526040902054600f0b5b6000611f07610c458686612597565b8860200151611f16919061267c565b9050611f32818960000151611f2b9190612711565b6000611d20565b600f0b88526020880151611f4b90611f2b908490612761565b600f0b602089015260408089018590528701519394508493670de0b6b3a764000090611f779086612597565b611f819088612633565b611f8b9190612668565b8760600151611f9a919061261b565b60608901526006805460019190600090611fb590849061261b565b9091555050428414156120ab574360608901526020880151611fdc90611f2b908c90612761565b600f0b60208901528751611ff590611f2b908b90612761565b600f0b8852505060058054600181018255600091909152865160208801516001600160801b03908116600160801b0291161760039091027f036b6384b5eca791c62761152d0c79bb0604c104a5fb6f4eb0703f3154bb3db081019190915560408701517f036b6384b5eca791c62761152d0c79bb0604c104a5fb6f4eb0703f3154bb3db182015560608701517f036b6384b5eca791c62761152d0c79bb0604c104a5fb6f4eb0703f3154bb3db29091015561216a565b60058054600181018255600091909152885160208a01516001600160801b03908116600160801b0291161760039091027f036b6384b5eca791c62761152d0c79bb0604c104a5fb6f4eb0703f3154bb3db081019190915560408901517f036b6384b5eca791c62761152d0c79bb0604c104a5fb6f4eb0703f3154bb3db182015560608901517f036b6384b5eca791c62761152d0c79bb0604c104a5fb6f4eb0703f3154bb3db29091015550508080612162906127b0565b915050611eba565b505050505092915050565b60006121ca826040518060400160405280602081526020017f5361666545524332303a206c6f772d6c6576656c2063616c6c206661696c6564815250856001600160a01b03166122479092919063ffffffff16565b80519091501561185a57808060200190518101906121e89190612833565b61185a5760405162461bcd60e51b815260206004820152602a60248201527f5361666545524332303a204552433230206f7065726174696f6e20646964206e6044820152691bdd081cdd58d8d9595960b21b6064820152608401610799565b6060610e1f8484600085856001600160a01b0385163b6122a95760405162461bcd60e51b815260206004820152601d60248201527f416464726573733a2063616c6c20746f206e6f6e2d636f6e74726163740000006044820152606401610799565b600080866001600160a01b031685876040516122c59190612855565b60006040518083038185875af1925050503d8060008114612302576040519150601f19603f3d011682016040523d82523d6000602084013e612307565b606091505b5091509150612317828286612322565b979650505050505050565b60608315612331575081611c37565b8251156123415782518084602001fd5b8160405162461bcd60e51b815260040161079991906123b5565b60405180608001604052806000600f0b81526020016000600f0b815260200160008152602001600081525090565b60005b838110156123a457818101518382015260200161238c565b83811115611d8f5750506000910152565b60208152600082518060208401526123d4816040850160208701612389565b601f01601f19169190910160400192915050565b80356001600160a01b03811681146123ff57600080fd5b919050565b60006020828403121561241657600080fd5b6106b6826123e8565b6000806040838503121561243257600080fd5b61243b836123e8565b946020939093013593505050565b803563ffffffff811681146123ff57600080fd5b60006020828403121561246f57600080fd5b6106b682612449565b60006020828403121561248a57600080fd5b5035919050565b600080604083850312156124a457600080fd5b50508035926020909101359150565b60008060008060008060c087890312156124cc57600080fd5b6124d5876123e8565b95506020870135945060408701359350606087013560ff811681146124f957600080fd5b9598949750929560808101359460a0909101359350915050565b6000806040838503121561252657600080fd5b61252f836123e8565b915061253d60208401612449565b90509250929050565b600181811c9082168061255a57607f821691505b6020821081141561257b57634e487b7160e01b600052602260045260246000fd5b50919050565b634e487b7160e01b600052601160045260246000fd5b6000828210156125a9576125a9612581565b500390565b634e487b7160e01b600052603260045260246000fd5b600085516125d6818460208a01612389565b8551908301906125ea818360208a01612389565b85519101906125fd818360208901612389565b8451910190612610818360208801612389565b019695505050505050565b6000821982111561262e5761262e612581565b500190565b600081600019048311821515161561264d5761264d612581565b500290565b634e487b7160e01b600052601260045260246000fd5b60008261267757612677612652565b500490565b600081600f0b83600f0b60016001607f1b036000821360008413838304851182821616156126ac576126ac612581565b60016001607f1b031960008512828116878305871216156126cf576126cf612581565b600087129250858205871284841616156126eb576126eb612581565b8585058712818416161561270157612701612581565b5050509290910295945050505050565b600081600f0b83600f0b600081128160016001607f1b03190183128115161561273c5761273c612581565b8160016001607f1b0301831381161561275757612757612581565b5090039392505050565b600081600f0b83600f0b600082128260016001607f1b030382138115161561278b5761278b612581565b8260016001607f1b03190382128116156127a7576127a7612581565b50019392505050565b60006000198214156127c4576127c4612581565b5060010190565b634e487b7160e01b600052604160045260246000fd5b6000826127f0576127f0612652565b500690565b600081600f0b83600f0b8061280c5761280c612652565b60016001607f1b031982146000198214161561282a5761282a612581565b90059392505050565b60006020828403121561284557600080fd5b81518015158114611c3757600080fd5b60008251612867818460208701612389565b919091019291505056fea2646970667358221220176368bf61340fdf7fd97492315c08e823a5e11ce90f0f3e93af9cbe2185146964736f6c634300080b0033",
  "bytecodeSha1": "18d2543958cafd6bfc49e0ba6c465b275e1af387",
  "compiler": {
    "evm_version": "istanbul",
    "optimizer": {
      "enabled": true,
      "runs": 200
    },
    "version": "0.8.11+commit.d7f03943"
  },
  "contractName": "VoteLockerCurve",
  "language": "Solidity",
  "natspec": {
    "kind": "dev",
    "methods": {
      "MAX_LOCK_TIME()": {
        "notice": "Maximum lock time"
      },
      "MAX_VOTE_MULTIPLE()": {
        "notice": "Vote boost if locked for maximum duration"
      },
      "balanceOf(address)": {
        "details": "See {ERC20-balanceOf}."
      },
      "balanceOfAt(address,uint256)": {
        "details": "Gets a users votingWeight at a given blockNumber",
        "params": {
          "_account": "User for which to return the balance",
          "_blockNumber": "Block at which to calculate balance"
        },
        "returns": {
          "_0": "uint256 Balance of user"
        }
      },
      "checkpoint()": {
        "details": "Public function to trigger global checkpoint"
      },
      "checkpoints(address,uint32)": {
        "details": "Get the `pos`-th checkpoint for `_account`."
      },
      "decimals()": {
        "details": "Returns the number of decimals used to get its user representation. For example, if `decimals` equals `2`, a balance of `505` tokens should be displayed to a user as `5.05` (`505 / 10 ** 2`). Tokens usually opt for a value of 18, imitating the relationship between Ether and Wei. This is the value {ERC20} uses, unless this function is overridden;"
      },
      "delegate(address)": {
        "details": "Delegate votes from the sender to `delegatee`."
      },
      "delegateBySig(address,uint256,uint256,uint8,bytes32,bytes32)": {
        "details": "Delegates votes from signer to `delegatee`"
      },
      "delegates(address)": {
        "details": "Get the address `_account` is currently delegating to."
      },
      "getLastCheckpoint(address)": {
        "details": "Get last checkpoint for `_account`."
      },
      "getLastGlobalCheckpoint()": {
        "details": "Get the last global checkpoint."
      },
      "getLockup(address)": {
        "details": "Gets the current lockup for `_account`"
      },
      "getPastTotalSupply(uint256)": {
        "details": "Retrieve the `totalSupply` at the end of `blockNumber`. This method is required for compatibility with the OpenZeppelin governance ERC20Votes. Requirements: - `_blockNumber` must have been already mined",
        "params": {
          "_blockNumber": "Block at which to calculate total supply"
        },
        "returns": {
          "_0": "uint256 Total supply at the given block"
        }
      },
      "getPastVotes(address,uint256)": {
        "details": "Retrieve the number of votes for `_account` at the end of `_blockNumber`. This method is required for compatibility with the OpenZeppelin governance ERC20Votes. Requirements: - `blockNumber` must have been already mined"
      },
      "getVotes(address)": {
        "details": "Gets the current votes balance for `_account` This method is required for compatibility with the OpenZeppelin governance ERC20Votes.",
        "params": {
          "_account": "Account to get the votes balance for"
        },
        "returns": {
          "_0": "uint256 Current votes balance for `_account`"
        }
      },
      "globalCheckpoints(uint32)": {
        "details": "Get the `pos`-th global checkpoint."
      },
      "lockup(uint256,uint256)": {
        "details": "Deposits staking token and mints new tokens according to the MAX_VOTE_MULTIPLE and _end parameters."
      },
      "lockups(address)": {
        "notice": "Lockup mapping for each user"
      },
      "name()": {
        "details": "Returns the name of the token."
      },
      "numCheckpoints(address)": {
        "details": "Get number of checkpoints for `_account`."
      },
      "numGlobalCheckpoints()": {
        "details": "Get number of global checkpoints."
      },
      "symbol()": {
        "details": "Returns the symbol of the token, usually a shorter version of the name."
      },
      "totalSupply()": {
        "details": "See {ERC20-totalSupply}."
      },
      "totalSupplyAt(uint256)": {
        "details": "Calculates total supply of votingWeight at a given blockNumber",
        "params": {
          "_blockNumber": "Block number at which to calculate total supply"
        },
        "returns": {
          "_0": "totalSupply of voting token weight at the given blockNumber"
        }
      },
      "withdraw()": {
        "details": "Withdraw tokens from an expired lockup."
      }
    },
    "version": 1
  },
  "opcodes": "PUSH1 0x80 PUSH1 0x40 MSTORE CALLVALUE DUP1 ISZERO PUSH2 0x10 JUMPI PUSH1 0x0 DUP1 REVERT JUMPDEST POP PUSH1 0x4 CALLDATASIZE LT PUSH2 0x1CF JUMPI PUSH1 0x0 CALLDATALOAD PUSH1 0xE0 SHR DUP1 PUSH4 0x8E539E8C GT PUSH2 0x104 JUMPI DUP1 PUSH4 0xC2C4C5C1 GT PUSH2 0xA2 JUMPI DUP1 PUSH4 0xCB03623A GT PUSH2 0x71 JUMPI DUP1 PUSH4 0xCB03623A EQ PUSH2 0x491 JUMPI DUP1 PUSH4 0xF1127ED8 EQ PUSH2 0x4B1 JUMPI DUP1 PUSH4 0xF52A36F7 EQ PUSH2 0x4C4 JUMPI DUP1 PUSH4 0xFA78668F EQ PUSH2 0x4FA JUMPI PUSH1 0x0 DUP1 REVERT JUMPDEST DUP1 PUSH4 0xC2C4C5C1 EQ PUSH2 0x426 JUMPI DUP1 PUSH4 0xC3CDA520 EQ PUSH2 0x42E JUMPI DUP1 PUSH4 0xC5E687D4 EQ PUSH2 0x441 JUMPI DUP1 PUSH4 0xC7B6D432 EQ PUSH2 0x449 JUMPI PUSH1 0x0 DUP1 REVERT JUMPDEST DUP1 PUSH4 0x95D89B41 GT PUSH2 0xDE JUMPI DUP1 PUSH4 0x95D89B41 EQ PUSH2 0x3E5 JUMPI DUP1 PUSH4 0x981B24D0 EQ PUSH2 0x3ED JUMPI DUP1 PUSH4 0x9AB24EB0 EQ PUSH2 0x400 JUMPI DUP1 PUSH4 0xA8BB6696 EQ PUSH2 0x413 JUMPI PUSH1 0x0 DUP1 REVERT JUMPDEST DUP1 PUSH4 0x8E539E8C EQ PUSH2 0x3C2 JUMPI DUP1 PUSH4 0x9497497A EQ PUSH2 0x3D5 JUMPI DUP1 PUSH4 0x95B3AA19 EQ PUSH2 0x3DD JUMPI PUSH1 0x0 DUP1 REVERT JUMPDEST DUP1 PUSH4 0x5719098B GT PUSH2 0x171 JUMPI DUP1 PUSH4 0x67AFD1CC GT PUSH2 0x14B JUMPI DUP1 PUSH4 0x67AFD1CC EQ PUSH2 0x2FE JUMPI DUP1 PUSH4 0x6909221D EQ PUSH2 0x374 JUMPI DUP1 PUSH4 0x6FCFFF45 EQ PUSH2 0x387 JUMPI DUP1 PUSH4 0x70A08231 EQ PUSH2 0x3AF JUMPI PUSH1 0x0 DUP1 REVERT JUMPDEST DUP1 PUSH4 0x5719098B EQ PUSH2 0x29E JUMPI DUP1 PUSH4 0x587CDE1E EQ PUSH2 0x2A7 JUMPI DUP1 PUSH4 0x5C19A95C EQ PUSH2 0x2EB JUMPI PUSH1 0x0 DUP1 REVERT JUMPDEST DUP1 PUSH4 0x313CE567 GT PUSH2 0x1AD JUMPI DUP1 PUSH4 0x313CE567 EQ PUSH2 0x259 JUMPI DUP1 PUSH4 0x3A46B1A8 EQ PUSH2 0x26E JUMPI DUP1 PUSH4 0x3CCFD60B EQ PUSH2 0x281 JUMPI DUP1 PUSH4 0x4EE2CD7E EQ PUSH2 0x28B JUMPI PUSH1 0x0 DUP1 REVERT JUMPDEST DUP1 PUSH4 0x6FDDE03 EQ PUSH2 0x1D4 JUMPI DUP1 PUSH4 0x11CDE220 EQ PUSH2 0x1F2 JUMPI DUP1 PUSH4 0x18160DDD EQ PUSH2 0x243 JUMPI JUMPDEST PUSH1 0x0 DUP1 REVERT JUMPDEST PUSH2 0x1DC PUSH2 0x505 JUMP JUMPDEST PUSH1 0x40 MLOAD PUSH2 0x1E9 SWAP2 SWAP1 PUSH2 0x23B5 JUMP JUMPDEST PUSH1 0x40 MLOAD DUP1 SWAP2 SUB SWAP1 RETURN JUMPDEST PUSH2 0x205 PUSH2 0x200 CALLDATASIZE PUSH1 0x4 PUSH2 0x2404 JUMP JUMPDEST PUSH2 0x597 JUMP JUMPDEST PUSH1 0x40 MLOAD PUSH2 0x1E9 SWAP2 SWAP1 PUSH1 0x0 PUSH1 0x80 DUP3 ADD SWAP1 POP DUP3 MLOAD PUSH1 0xF SIGNEXTEND DUP3 MSTORE PUSH1 0x20 DUP4 ADD MLOAD PUSH1 0xF SIGNEXTEND PUSH1 0x20 DUP4 ADD MSTORE PUSH1 0x40 DUP4 ADD MLOAD PUSH1 0x40 DUP4 ADD MSTORE PUSH1 0x60 DUP4 ADD MLOAD PUSH1 0x60 DUP4 ADD MSTORE SWAP3 SWAP2 POP POP JUMP JUMPDEST PUSH2 0x24B PUSH2 0x626 JUMP JUMPDEST PUSH1 0x40 MLOAD SWAP1 DUP2 MSTORE PUSH1 0x20 ADD PUSH2 0x1E9 JUMP JUMPDEST PUSH1 0x2 SLOAD PUSH1 0x40 MLOAD PUSH1 0xFF SWAP1 SWAP2 AND DUP2 MSTORE PUSH1 0x20 ADD PUSH2 0x1E9 JUMP JUMPDEST PUSH2 0x24B PUSH2 0x27C CALLDATASIZE PUSH1 0x4 PUSH2 0x241F JUMP JUMPDEST PUSH2 0x6AA JUMP JUMPDEST PUSH2 0x289 PUSH2 0x6BF JUMP JUMPDEST STOP JUMPDEST PUSH2 0x24B PUSH2 0x299 CALLDATASIZE PUSH1 0x4 PUSH2 0x241F JUMP JUMPDEST PUSH2 0x8B0 JUMP JUMPDEST PUSH2 0x24B PUSH1 0x6 SLOAD DUP2 JUMP JUMPDEST PUSH2 0x2D3 PUSH2 0x2B5 CALLDATASIZE PUSH1 0x4 PUSH2 0x2404 JUMP JUMPDEST PUSH1 0x1 PUSH1 0x1 PUSH1 0xA0 SHL SUB SWAP1 DUP2 AND PUSH1 0x0 SWAP1 DUP2 MSTORE PUSH1 0x9 PUSH1 0x20 MSTORE PUSH1 0x40 SWAP1 KECCAK256 SLOAD AND SWAP1 JUMP JUMPDEST PUSH1 0x40 MLOAD PUSH1 0x1 PUSH1 0x1 PUSH1 0xA0 SHL SUB SWAP1 SWAP2 AND DUP2 MSTORE PUSH1 0x20 ADD PUSH2 0x1E9 JUMP JUMPDEST PUSH2 0x289 PUSH2 0x2F9 CALLDATASIZE PUSH1 0x4 PUSH2 0x2404 JUMP JUMPDEST PUSH2 0xCA9 JUMP JUMPDEST PUSH2 0x356 PUSH2 0x30C CALLDATASIZE PUSH1 0x4 PUSH2 0x2404 JUMP JUMPDEST PUSH1 0x40 DUP1 MLOAD DUP1 DUP3 ADD SWAP1 SWAP2 MSTORE PUSH1 0x0 DUP1 DUP3 MSTORE PUSH1 0x20 DUP3 ADD MSTORE POP PUSH1 0x1 PUSH1 0x1 PUSH1 0xA0 SHL SUB AND PUSH1 0x0 SWAP1 DUP2 MSTORE PUSH1 0x7 PUSH1 0x20 SWAP1 DUP2 MSTORE PUSH1 0x40 SWAP2 DUP3 SWAP1 KECCAK256 DUP3 MLOAD DUP1 DUP5 ADD SWAP1 SWAP4 MSTORE DUP1 SLOAD PUSH1 0xF SIGNEXTEND DUP4 MSTORE PUSH1 0x1 ADD SLOAD SWAP1 DUP3 ADD MSTORE SWAP1 JUMP JUMPDEST PUSH1 0x40 DUP1 MLOAD DUP3 MLOAD PUSH1 0xF SIGNEXTEND DUP2 MSTORE PUSH1 0x20 SWAP3 DUP4 ADD MLOAD SWAP3 DUP2 ADD SWAP3 SWAP1 SWAP3 MSTORE ADD PUSH2 0x1E9 JUMP JUMPDEST PUSH2 0x205 PUSH2 0x382 CALLDATASIZE PUSH1 0x4 PUSH2 0x245D JUMP JUMPDEST PUSH2 0xCF1 JUMP JUMPDEST PUSH2 0x39A PUSH2 0x395 CALLDATASIZE PUSH1 0x4 PUSH2 0x2404 JUMP JUMPDEST PUSH2 0xD12 JUMP JUMPDEST PUSH1 0x40 MLOAD PUSH4 0xFFFFFFFF SWAP1 SWAP2 AND DUP2 MSTORE PUSH1 0x20 ADD PUSH2 0x1E9 JUMP JUMPDEST PUSH2 0x24B PUSH2 0x3BD CALLDATASIZE PUSH1 0x4 PUSH2 0x2404 JUMP JUMPDEST PUSH2 0xD34 JUMP JUMPDEST PUSH2 0x24B PUSH2 0x3D0 CALLDATASIZE PUSH1 0x4 PUSH2 0x2478 JUMP JUMPDEST PUSH2 0xE27 JUMP JUMPDEST PUSH2 0x24B PUSH1 0x4 DUP2 JUMP JUMPDEST PUSH2 0x205 PUSH2 0xE32 JUMP JUMPDEST PUSH2 0x1DC PUSH2 0xEAA JUMP JUMPDEST PUSH2 0x24B PUSH2 0x3FB CALLDATASIZE PUSH1 0x4 PUSH2 0x2478 JUMP JUMPDEST PUSH2 0xEB9 JUMP JUMPDEST PUSH2 0x24B PUSH2 0x40E CALLDATASIZE PUSH1 0x4 PUSH2 0x2404 JUMP JUMPDEST PUSH2 0x115E JUMP JUMPDEST PUSH2 0x289 PUSH2 0x421 CALLDATASIZE PUSH1 0x4 PUSH2 0x2491 JUMP JUMPDEST PUSH2 0x1169 JUMP JUMPDEST PUSH2 0x289 PUSH2 0x14D3 JUMP JUMPDEST PUSH2 0x289 PUSH2 0x43C CALLDATASIZE PUSH1 0x4 PUSH2 0x24B3 JUMP JUMPDEST PUSH2 0x14E1 JUMP JUMPDEST PUSH1 0x5 SLOAD PUSH2 0x24B JUMP JUMPDEST PUSH2 0x477 PUSH2 0x457 CALLDATASIZE PUSH1 0x4 PUSH2 0x2404 JUMP JUMPDEST PUSH1 0x7 PUSH1 0x20 MSTORE PUSH1 0x0 SWAP1 DUP2 MSTORE PUSH1 0x40 SWAP1 KECCAK256 DUP1 SLOAD PUSH1 0x1 SWAP1 SWAP2 ADD SLOAD PUSH1 0xF SWAP2 SWAP1 SWAP2 SIGNEXTEND SWAP1 DUP3 JUMP JUMPDEST PUSH1 0x40 DUP1 MLOAD PUSH1 0xF SWAP4 SWAP1 SWAP4 SIGNEXTEND DUP4 MSTORE PUSH1 0x20 DUP4 ADD SWAP2 SWAP1 SWAP2 MSTORE ADD PUSH2 0x1E9 JUMP JUMPDEST PUSH2 0x24B PUSH2 0x49F CALLDATASIZE PUSH1 0x4 PUSH2 0x2404 JUMP JUMPDEST PUSH1 0x4 PUSH1 0x20 MSTORE PUSH1 0x0 SWAP1 DUP2 MSTORE PUSH1 0x40 SWAP1 KECCAK256 SLOAD DUP2 JUMP JUMPDEST PUSH2 0x205 PUSH2 0x4BF CALLDATASIZE PUSH1 0x4 PUSH2 0x2513 JUMP JUMPDEST PUSH2 0x153A JUMP JUMPDEST PUSH2 0x4E7 PUSH2 0x4D2 CALLDATASIZE PUSH1 0x4 PUSH2 0x2478 JUMP JUMPDEST PUSH1 0x8 PUSH1 0x20 MSTORE PUSH1 0x0 SWAP1 DUP2 MSTORE PUSH1 0x40 SWAP1 KECCAK256 SLOAD PUSH1 0xF SIGNEXTEND DUP2 JUMP JUMPDEST PUSH1 0x40 MLOAD PUSH1 0xF SWAP2 SWAP1 SWAP2 SIGNEXTEND DUP2 MSTORE PUSH1 0x20 ADD PUSH2 0x1E9 JUMP JUMPDEST PUSH2 0x24B PUSH4 0x784CE00 DUP2 JUMP JUMPDEST PUSH1 0x60 PUSH1 0x0 DUP1 SLOAD PUSH2 0x514 SWAP1 PUSH2 0x2546 JUMP JUMPDEST DUP1 PUSH1 0x1F ADD PUSH1 0x20 DUP1 SWAP2 DIV MUL PUSH1 0x20 ADD PUSH1 0x40 MLOAD SWAP1 DUP2 ADD PUSH1 0x40 MSTORE DUP1 SWAP3 SWAP2 SWAP1 DUP2 DUP2 MSTORE PUSH1 0x20 ADD DUP3 DUP1 SLOAD PUSH2 0x540 SWAP1 PUSH2 0x2546 JUMP JUMPDEST DUP1 ISZERO PUSH2 0x58D JUMPI DUP1 PUSH1 0x1F LT PUSH2 0x562 JUMPI PUSH2 0x100 DUP1 DUP4 SLOAD DIV MUL DUP4 MSTORE SWAP2 PUSH1 0x20 ADD SWAP2 PUSH2 0x58D JUMP JUMPDEST DUP3 ADD SWAP2 SWAP1 PUSH1 0x0 MSTORE PUSH1 0x20 PUSH1 0x0 KECCAK256 SWAP1 JUMPDEST DUP2 SLOAD DUP2 MSTORE SWAP1 PUSH1 0x1 ADD SWAP1 PUSH1 0x20 ADD DUP1 DUP4 GT PUSH2 0x570 JUMPI DUP3 SWAP1 SUB PUSH1 0x1F AND DUP3 ADD SWAP2 JUMPDEST POP POP POP POP POP SWAP1 POP SWAP1 JUMP JUMPDEST PUSH2 0x59F PUSH2 0x235B JUMP JUMPDEST PUSH1 0x1 PUSH1 0x1 PUSH1 0xA0 SHL SUB DUP3 AND PUSH1 0x0 SWAP1 DUP2 MSTORE PUSH1 0x3 PUSH1 0x20 MSTORE PUSH1 0x40 SWAP1 KECCAK256 DUP1 SLOAD PUSH2 0x5C5 SWAP1 PUSH1 0x1 SWAP1 PUSH2 0x2597 JUMP JUMPDEST DUP2 SLOAD DUP2 LT PUSH2 0x5D5 JUMPI PUSH2 0x5D5 PUSH2 0x25AE JUMP JUMPDEST PUSH1 0x0 SWAP2 DUP3 MSTORE PUSH1 0x20 SWAP2 DUP3 SWAP1 KECCAK256 PUSH1 0x40 DUP1 MLOAD PUSH1 0x80 DUP2 ADD DUP3 MSTORE PUSH1 0x3 SWAP1 SWAP4 MUL SWAP1 SWAP2 ADD DUP1 SLOAD PUSH1 0xF DUP2 DUP2 SIGNEXTEND DUP6 MSTORE PUSH1 0x1 PUSH1 0x80 SHL SWAP1 SWAP2 DIV SWAP1 SIGNEXTEND SWAP4 DUP4 ADD SWAP4 SWAP1 SWAP4 MSTORE PUSH1 0x1 DUP4 ADD SLOAD SWAP1 DUP3 ADD MSTORE PUSH1 0x2 SWAP1 SWAP2 ADD SLOAD PUSH1 0x60 DUP3 ADD MSTORE SWAP3 SWAP2 POP POP JUMP JUMPDEST PUSH1 0x5 SLOAD PUSH1 0x0 SWAP1 PUSH2 0x636 JUMPI POP PUSH1 0x0 SWAP1 JUMP JUMPDEST PUSH1 0x0 PUSH1 0x5 PUSH1 0x6 SLOAD DUP2 SLOAD DUP2 LT PUSH2 0x64D JUMPI PUSH2 0x64D PUSH2 0x25AE JUMP JUMPDEST PUSH1 0x0 SWAP2 DUP3 MSTORE PUSH1 0x20 SWAP2 DUP3 SWAP1 KECCAK256 PUSH1 0x40 DUP1 MLOAD PUSH1 0x80 DUP2 ADD DUP3 MSTORE PUSH1 0x3 SWAP1 SWAP4 MUL SWAP1 SWAP2 ADD DUP1 SLOAD PUSH1 0xF DUP2 DUP2 SIGNEXTEND DUP6 MSTORE PUSH1 0x1 PUSH1 0x80 SHL SWAP1 SWAP2 DIV SWAP1 SIGNEXTEND SWAP4 DUP4 ADD SWAP4 SWAP1 SWAP4 MSTORE PUSH1 0x1 DUP4 ADD SLOAD SWAP1 DUP3 ADD MSTORE PUSH1 0x2 SWAP1 SWAP2 ADD SLOAD PUSH1 0x60 DUP3 ADD MSTORE SWAP1 POP PUSH2 0x6A4 DUP2 TIMESTAMP PUSH2 0x15C5 JUMP JUMPDEST SWAP2 POP POP SWAP1 JUMP JUMPDEST PUSH1 0x0 PUSH2 0x6B6 DUP4 DUP4 PUSH2 0x8B0 JUMP JUMPDEST SWAP1 POP JUMPDEST SWAP3 SWAP2 POP POP JUMP JUMPDEST PUSH1 0x40 DUP1 MLOAD DUP1 DUP3 ADD DUP3 MSTORE CALLER PUSH1 0x0 DUP2 DUP2 MSTORE PUSH1 0x7 PUSH1 0x20 DUP2 DUP2 MSTORE DUP6 DUP4 KECCAK256 DUP1 SLOAD PUSH1 0xF SIGNEXTEND DUP7 MSTORE SWAP4 SWAP1 SWAP3 MSTORE DUP2 MSTORE PUSH1 0x1 SWAP1 SWAP2 ADD SLOAD DUP2 DUP4 ADD DUP2 DUP2 MSTORE DUP5 MLOAD DUP1 DUP7 ADD SWAP1 SWAP6 MSTORE PUSH1 0x12 DUP6 MSTORE PUSH18 0x2637B1B5BAB81032BC3834B932B99030BA1 PUSH1 0x75 SHL SWAP3 DUP6 ADD SWAP3 SWAP1 SWAP3 MSTORE SWAP1 MLOAD SWAP2 SWAP3 TIMESTAMP SWAP2 SWAP1 SWAP2 LT ISZERO SWAP2 PUSH2 0x72E SWAP1 PUSH2 0x16A3 JUMP JUMPDEST PUSH1 0x40 MLOAD DUP1 PUSH1 0x40 ADD PUSH1 0x40 MSTORE DUP1 PUSH1 0x9 DUP2 MSTORE PUSH1 0x20 ADD PUSH9 0x16103737BB9034B99 PUSH1 0xBD SHL DUP2 MSTORE POP PUSH2 0x759 TIMESTAMP PUSH2 0x16A3 JUMP JUMPDEST PUSH1 0x40 MLOAD PUSH1 0x20 ADD PUSH2 0x76C SWAP5 SWAP4 SWAP3 SWAP2 SWAP1 PUSH2 0x25C4 JUMP JUMPDEST PUSH1 0x40 MLOAD PUSH1 0x20 DUP2 DUP4 SUB SUB DUP2 MSTORE SWAP1 PUSH1 0x40 MSTORE SWAP1 PUSH2 0x7A2 JUMPI PUSH1 0x40 MLOAD PUSH3 0x461BCD PUSH1 0xE5 SHL DUP2 MSTORE PUSH1 0x4 ADD PUSH2 0x799 SWAP2 SWAP1 PUSH2 0x23B5 JUMP JUMPDEST PUSH1 0x40 MLOAD DUP1 SWAP2 SUB SWAP1 REVERT JUMPDEST POP PUSH1 0x0 DUP2 PUSH1 0x0 ADD MLOAD PUSH1 0xF SIGNEXTEND SGT PUSH2 0x7F1 JUMPI PUSH1 0x40 MLOAD PUSH3 0x461BCD PUSH1 0xE5 SHL DUP2 MSTORE PUSH1 0x20 PUSH1 0x4 DUP3 ADD MSTORE PUSH1 0x14 PUSH1 0x24 DUP3 ADD MSTORE PUSH20 0x4C6F636B757020686173206E6F20746F6B656E73 PUSH1 0x60 SHL PUSH1 0x44 DUP3 ADD MSTORE PUSH1 0x64 ADD PUSH2 0x799 JUMP JUMPDEST PUSH1 0x40 DUP1 MLOAD DUP1 DUP3 ADD DUP3 MSTORE PUSH1 0x0 DUP1 DUP3 MSTORE PUSH1 0x20 DUP1 DUP4 ADD DUP3 DUP2 MSTORE CALLER DUP4 MSTORE PUSH1 0x7 SWAP1 SWAP2 MSTORE SWAP3 DUP2 KECCAK256 DUP3 MLOAD DUP2 SLOAD PUSH1 0x1 PUSH1 0x1 PUSH1 0x80 SHL SUB NOT AND PUSH1 0x1 PUSH1 0x1 PUSH1 0x80 SHL SUB SWAP1 SWAP2 AND OR DUP2 SSTORE SWAP3 MLOAD PUSH1 0x1 SWAP1 SWAP4 ADD SWAP3 SWAP1 SWAP3 SSTORE DUP3 MLOAD SWAP1 SWAP2 SWAP1 PUSH2 0x84A SWAP1 PUSH1 0xF SIGNEXTEND PUSH2 0x17A1 JUMP JUMPDEST PUSH1 0xA SLOAD SWAP1 SWAP2 POP PUSH2 0x864 SWAP1 PUSH1 0x1 PUSH1 0x1 PUSH1 0xA0 SHL SUB AND CALLER DUP4 PUSH2 0x17F7 JUMP JUMPDEST PUSH2 0x86F CALLER DUP5 DUP5 PUSH2 0x185F JUMP JUMPDEST POP POP PUSH1 0x40 DUP1 MLOAD DUP3 DUP2 MSTORE TIMESTAMP PUSH1 0x20 DUP3 ADD MSTORE CALLER SWAP2 PUSH32 0xF279E6A1F5E320CCA91135676D9CB6E44CA8A08C0B88342BCDB1144F6511B568 SWAP2 ADD PUSH1 0x40 MLOAD DUP1 SWAP2 SUB SWAP1 LOG2 POP POP POP JUMP JUMPDEST PUSH1 0x0 NUMBER DUP3 GT ISZERO PUSH2 0x902 JUMPI PUSH1 0x40 MLOAD PUSH3 0x461BCD PUSH1 0xE5 SHL DUP2 MSTORE PUSH1 0x20 PUSH1 0x4 DUP3 ADD MSTORE PUSH1 0x1D PUSH1 0x24 DUP3 ADD MSTORE PUSH32 0x426C6F636B206E756D62657220697320696E2074686520667574757265000000 PUSH1 0x44 DUP3 ADD MSTORE PUSH1 0x64 ADD PUSH2 0x799 JUMP JUMPDEST PUSH1 0x1 PUSH1 0x1 PUSH1 0xA0 SHL SUB DUP4 AND PUSH1 0x0 SWAP1 DUP2 MSTORE PUSH1 0x3 PUSH1 0x20 SWAP1 DUP2 MSTORE PUSH1 0x40 DUP1 DUP4 KECCAK256 DUP1 SLOAD DUP3 MLOAD DUP2 DUP6 MUL DUP2 ADD DUP6 ADD SWAP1 SWAP4 MSTORE DUP1 DUP4 MSTORE PUSH2 0x9B9 SWAP4 DUP6 SWAP1 DUP5 ADD JUMPDEST DUP3 DUP3 LT ISZERO PUSH2 0x995 JUMPI PUSH1 0x0 DUP5 DUP2 MSTORE PUSH1 0x20 SWAP1 DUP2 SWAP1 KECCAK256 PUSH1 0x40 DUP1 MLOAD PUSH1 0x80 DUP2 ADD DUP3 MSTORE PUSH1 0x3 DUP7 MUL SWAP1 SWAP3 ADD DUP1 SLOAD PUSH1 0xF DUP2 DUP2 SIGNEXTEND DUP6 MSTORE PUSH1 0x1 PUSH1 0x80 SHL SWAP1 SWAP2 DIV SWAP1 SIGNEXTEND DUP4 DUP6 ADD MSTORE PUSH1 0x1 DUP1 DUP3 ADD SLOAD SWAP3 DUP5 ADD SWAP3 SWAP1 SWAP3 MSTORE PUSH1 0x2 ADD SLOAD PUSH1 0x60 DUP4 ADD MSTORE SWAP1 DUP4 MSTORE SWAP1 SWAP3 ADD SWAP2 ADD PUSH2 0x937 JUMP JUMPDEST POP POP POP PUSH1 0x1 PUSH1 0x1 PUSH1 0xA0 SHL SUB DUP8 AND PUSH1 0x0 SWAP1 DUP2 MSTORE PUSH1 0x4 PUSH1 0x20 MSTORE PUSH1 0x40 SWAP1 KECCAK256 SLOAD DUP7 SWAP2 POP PUSH2 0x1BA4 JUMP JUMPDEST SWAP1 POP DUP1 PUSH2 0x9CA JUMPI PUSH1 0x0 SWAP2 POP POP PUSH2 0x6B9 JUMP JUMPDEST PUSH1 0x1 PUSH1 0x1 PUSH1 0xA0 SHL SUB DUP5 AND PUSH1 0x0 SWAP1 DUP2 MSTORE PUSH1 0x3 PUSH1 0x20 MSTORE PUSH1 0x40 DUP2 KECCAK256 DUP1 SLOAD DUP4 SWAP1 DUP2 LT PUSH2 0x9F4 JUMPI PUSH2 0x9F4 PUSH2 0x25AE JUMP JUMPDEST PUSH1 0x0 SWAP2 DUP3 MSTORE PUSH1 0x20 DUP1 DUP4 KECCAK256 PUSH1 0x40 DUP1 MLOAD PUSH1 0x80 DUP2 ADD DUP3 MSTORE PUSH1 0x3 SWAP1 SWAP5 MUL SWAP1 SWAP2 ADD DUP1 SLOAD PUSH1 0xF DUP2 DUP2 SIGNEXTEND DUP7 MSTORE PUSH1 0x1 PUSH1 0x80 SHL SWAP1 SWAP2 DIV SWAP1 SIGNEXTEND DUP5 DUP5 ADD MSTORE PUSH1 0x1 DUP2 ADD SLOAD DUP5 DUP4 ADD MSTORE PUSH1 0x2 ADD SLOAD PUSH1 0x60 DUP5 ADD MSTORE PUSH1 0x5 DUP1 SLOAD DUP3 MLOAD DUP2 DUP6 MUL DUP2 ADD DUP6 ADD SWAP1 SWAP4 MSTORE DUP1 DUP4 MSTORE SWAP4 SWAP6 POP PUSH2 0xAC8 SWAP4 SWAP2 SWAP3 SWAP1 SWAP2 SWAP1 DUP6 SWAP1 DUP5 ADD JUMPDEST DUP3 DUP3 LT ISZERO PUSH2 0xABB JUMPI PUSH1 0x0 DUP5 DUP2 MSTORE PUSH1 0x20 SWAP1 DUP2 SWAP1 KECCAK256 PUSH1 0x40 DUP1 MLOAD PUSH1 0x80 DUP2 ADD DUP3 MSTORE PUSH1 0x3 DUP7 MUL SWAP1 SWAP3 ADD DUP1 SLOAD PUSH1 0xF DUP2 DUP2 SIGNEXTEND DUP6 MSTORE PUSH1 0x1 PUSH1 0x80 SHL SWAP1 SWAP2 DIV SWAP1 SIGNEXTEND DUP4 DUP6 ADD MSTORE PUSH1 0x1 DUP1 DUP3 ADD SLOAD SWAP3 DUP5 ADD SWAP3 SWAP1 SWAP3 MSTORE PUSH1 0x2 ADD SLOAD PUSH1 0x60 DUP4 ADD MSTORE SWAP1 DUP4 MSTORE SWAP1 SWAP3 ADD SWAP2 ADD PUSH2 0xA5D JUMP JUMPDEST POP POP POP POP DUP7 PUSH1 0x6 SLOAD PUSH2 0x1BA4 JUMP JUMPDEST SWAP1 POP PUSH1 0x0 PUSH1 0x5 DUP3 DUP2 SLOAD DUP2 LT PUSH2 0xADF JUMPI PUSH2 0xADF PUSH2 0x25AE JUMP JUMPDEST PUSH1 0x0 SWAP2 DUP3 MSTORE PUSH1 0x20 DUP1 DUP4 KECCAK256 PUSH1 0x40 DUP1 MLOAD PUSH1 0x80 DUP2 ADD DUP3 MSTORE PUSH1 0x3 SWAP1 SWAP5 MUL SWAP1 SWAP2 ADD DUP1 SLOAD PUSH1 0xF DUP2 DUP2 SIGNEXTEND DUP7 MSTORE PUSH1 0x1 PUSH1 0x80 SHL SWAP1 SWAP2 DIV SWAP1 SIGNEXTEND SWAP3 DUP5 ADD SWAP3 SWAP1 SWAP3 MSTORE PUSH1 0x1 DUP3 ADD SLOAD SWAP1 DUP4 ADD MSTORE PUSH1 0x2 ADD SLOAD PUSH1 0x60 DUP3 ADD MSTORE PUSH1 0x6 SLOAD SWAP1 SWAP3 POP DUP2 SWAP1 DUP5 LT ISZERO PUSH2 0xBD1 JUMPI PUSH1 0x0 PUSH1 0x5 PUSH2 0xB45 DUP7 PUSH1 0x1 PUSH2 0x261B JUMP JUMPDEST DUP2 SLOAD DUP2 LT PUSH2 0xB55 JUMPI PUSH2 0xB55 PUSH2 0x25AE JUMP JUMPDEST PUSH1 0x0 SWAP2 DUP3 MSTORE PUSH1 0x20 SWAP2 DUP3 SWAP1 KECCAK256 PUSH1 0x40 DUP1 MLOAD PUSH1 0x80 DUP2 ADD DUP3 MSTORE PUSH1 0x3 SWAP1 SWAP4 MUL SWAP1 SWAP2 ADD DUP1 SLOAD PUSH1 0xF DUP2 DUP2 SIGNEXTEND DUP6 MSTORE PUSH1 0x1 PUSH1 0x80 SHL SWAP1 SWAP2 DIV SWAP1 SIGNEXTEND SWAP4 DUP4 ADD SWAP4 SWAP1 SWAP4 MSTORE PUSH1 0x1 DUP4 ADD SLOAD SWAP1 DUP3 ADD MSTORE PUSH1 0x2 SWAP1 SWAP2 ADD SLOAD PUSH1 0x60 DUP1 DUP4 ADD DUP3 SWAP1 MSTORE DUP7 ADD MLOAD SWAP2 SWAP3 POP PUSH2 0xBB3 SWAP2 SWAP1 PUSH2 0x2597 JUMP JUMPDEST SWAP3 POP DUP4 PUSH1 0x40 ADD MLOAD DUP2 PUSH1 0x40 ADD MLOAD PUSH2 0xBC9 SWAP2 SWAP1 PUSH2 0x2597 JUMP JUMPDEST SWAP2 POP POP PUSH2 0xBF5 JUMP JUMPDEST PUSH1 0x60 DUP4 ADD MLOAD PUSH2 0xBE0 SWAP1 NUMBER PUSH2 0x2597 JUMP JUMPDEST SWAP2 POP DUP3 PUSH1 0x40 ADD MLOAD TIMESTAMP PUSH2 0xBF2 SWAP2 SWAP1 PUSH2 0x2597 JUMP JUMPDEST SWAP1 POP JUMPDEST PUSH1 0x40 DUP4 ADD MLOAD DUP3 ISZERO PUSH2 0xC32 JUMPI DUP3 DUP5 PUSH1 0x60 ADD MLOAD DUP11 PUSH2 0xC11 SWAP2 SWAP1 PUSH2 0x2597 JUMP JUMPDEST PUSH2 0xC1B SWAP1 DUP5 PUSH2 0x2633 JUMP JUMPDEST PUSH2 0xC25 SWAP2 SWAP1 PUSH2 0x2668 JUMP JUMPDEST PUSH2 0xC2F SWAP1 DUP3 PUSH2 0x261B JUMP JUMPDEST SWAP1 POP JUMPDEST PUSH2 0xC4A DUP7 PUSH1 0x40 ADD MLOAD DUP3 PUSH2 0xC45 SWAP2 SWAP1 PUSH2 0x2597 JUMP JUMPDEST PUSH2 0x1C3E JUMP JUMPDEST DUP7 PUSH1 0x20 ADD MLOAD PUSH2 0xC59 SWAP2 SWAP1 PUSH2 0x267C JUMP JUMPDEST DUP7 MLOAD DUP8 SWAP1 PUSH2 0xC68 SWAP1 DUP4 SWAP1 PUSH2 0x2711 JUMP JUMPDEST PUSH1 0xF SWAP1 DUP2 SIGNEXTEND SWAP1 SWAP2 MSTORE DUP8 MLOAD PUSH1 0x0 SWAP2 SIGNEXTEND SLT SWAP1 POP PUSH2 0xC99 JUMPI DUP6 MLOAD PUSH2 0xC8B SWAP1 PUSH1 0xF SIGNEXTEND PUSH2 0x17A1 JUMP JUMPDEST SWAP8 POP POP POP POP POP POP POP POP PUSH2 0x6B9 JUMP JUMPDEST PUSH1 0x0 SWAP8 POP POP POP POP POP POP POP POP PUSH2 0x6B9 JUMP JUMPDEST PUSH1 0x40 MLOAD PUSH3 0x461BCD PUSH1 0xE5 SHL DUP2 MSTORE PUSH1 0x20 PUSH1 0x4 DUP3 ADD MSTORE PUSH1 0x1B PUSH1 0x24 DUP3 ADD MSTORE PUSH32 0x44656C65676174696F6E206973206E6F7420737570706F727465640000000000 PUSH1 0x44 DUP3 ADD MSTORE PUSH1 0x64 ADD PUSH2 0x799 JUMP JUMPDEST PUSH2 0xCF9 PUSH2 0x235B JUMP JUMPDEST PUSH1 0x5 DUP3 PUSH4 0xFFFFFFFF AND DUP2 SLOAD DUP2 LT PUSH2 0x5D5 JUMPI PUSH2 0x5D5 PUSH2 0x25AE JUMP JUMPDEST PUSH1 0x1 PUSH1 0x1 PUSH1 0xA0 SHL SUB DUP2 AND PUSH1 0x0 SWAP1 DUP2 MSTORE PUSH1 0x3 PUSH1 0x20 MSTORE PUSH1 0x40 DUP2 KECCAK256 SLOAD PUSH2 0x6B9 SWAP1 PUSH2 0x1CBB JUMP JUMPDEST PUSH1 0x1 PUSH1 0x1 PUSH1 0xA0 SHL SUB DUP2 AND PUSH1 0x0 SWAP1 DUP2 MSTORE PUSH1 0x4 PUSH1 0x20 MSTORE PUSH1 0x40 DUP2 KECCAK256 SLOAD DUP1 PUSH2 0xD5B JUMPI POP PUSH1 0x0 SWAP3 SWAP2 POP POP JUMP JUMPDEST PUSH1 0x1 PUSH1 0x1 PUSH1 0xA0 SHL SUB DUP4 AND PUSH1 0x0 SWAP1 DUP2 MSTORE PUSH1 0x3 PUSH1 0x20 MSTORE PUSH1 0x40 DUP2 KECCAK256 DUP1 SLOAD DUP4 SWAP1 DUP2 LT PUSH2 0xD85 JUMPI PUSH2 0xD85 PUSH2 0x25AE JUMP JUMPDEST PUSH1 0x0 SWAP2 DUP3 MSTORE PUSH1 0x20 SWAP2 DUP3 SWAP1 KECCAK256 PUSH1 0x40 DUP1 MLOAD PUSH1 0x80 DUP2 ADD DUP3 MSTORE PUSH1 0x3 SWAP1 SWAP4 MUL SWAP1 SWAP2 ADD DUP1 SLOAD PUSH1 0xF DUP2 DUP2 SIGNEXTEND DUP6 MSTORE PUSH1 0x1 PUSH1 0x80 SHL SWAP1 SWAP2 DIV SWAP1 SIGNEXTEND SWAP4 DUP4 ADD SWAP4 SWAP1 SWAP4 MSTORE PUSH1 0x1 DUP4 ADD SLOAD SWAP1 DUP3 ADD DUP2 SWAP1 MSTORE PUSH1 0x2 SWAP1 SWAP3 ADD SLOAD PUSH1 0x60 DUP3 ADD MSTORE SWAP2 POP PUSH2 0xDE2 SWAP1 PUSH2 0xC45 SWAP1 TIMESTAMP PUSH2 0x2597 JUMP JUMPDEST DUP2 PUSH1 0x20 ADD MLOAD PUSH2 0xDF1 SWAP2 SWAP1 PUSH2 0x267C JUMP JUMPDEST DUP2 MLOAD DUP3 SWAP1 PUSH2 0xE00 SWAP1 DUP4 SWAP1 PUSH2 0x2711 JUMP JUMPDEST PUSH1 0xF SIGNEXTEND SWAP1 MSTORE POP DUP1 MLOAD PUSH2 0xE1F SWAP1 PUSH2 0xE17 SWAP1 PUSH1 0x0 PUSH2 0x1D20 JUMP JUMPDEST PUSH1 0xF SIGNEXTEND PUSH2 0x17A1 JUMP JUMPDEST SWAP5 SWAP4 POP POP POP POP JUMP JUMPDEST PUSH1 0x0 PUSH2 0x6B9 DUP3 PUSH2 0xEB9 JUMP JUMPDEST PUSH2 0xE3A PUSH2 0x235B JUMP JUMPDEST PUSH1 0x5 DUP1 SLOAD PUSH2 0xE4A SWAP1 PUSH1 0x1 SWAP1 PUSH2 0x2597 JUMP JUMPDEST DUP2 SLOAD DUP2 LT PUSH2 0xE5A JUMPI PUSH2 0xE5A PUSH2 0x25AE JUMP JUMPDEST PUSH1 0x0 SWAP2 DUP3 MSTORE PUSH1 0x20 SWAP2 DUP3 SWAP1 KECCAK256 PUSH1 0x40 DUP1 MLOAD PUSH1 0x80 DUP2 ADD DUP3 MSTORE PUSH1 0x3 SWAP1 SWAP4 MUL SWAP1 SWAP2 ADD DUP1 SLOAD PUSH1 0xF DUP2 DUP2 SIGNEXTEND DUP6 MSTORE PUSH1 0x1 PUSH1 0x80 SHL SWAP1 SWAP2 DIV SWAP1 SIGNEXTEND SWAP4 DUP4 ADD SWAP4 SWAP1 SWAP4 MSTORE PUSH1 0x1 DUP4 ADD SLOAD SWAP1 DUP3 ADD MSTORE PUSH1 0x2 SWAP1 SWAP2 ADD SLOAD PUSH1 0x60 DUP3 ADD MSTORE SWAP2 SWAP1 POP JUMP JUMPDEST PUSH1 0x60 PUSH1 0x1 DUP1 SLOAD PUSH2 0x514 SWAP1 PUSH2 0x2546 JUMP JUMPDEST PUSH1 0x0 NUMBER DUP3 GT ISZERO PUSH2 0xF0B JUMPI PUSH1 0x40 MLOAD PUSH3 0x461BCD PUSH1 0xE5 SHL DUP2 MSTORE PUSH1 0x20 PUSH1 0x4 DUP3 ADD MSTORE PUSH1 0x1D PUSH1 0x24 DUP3 ADD MSTORE PUSH32 0x426C6F636B206E756D62657220697320696E2074686520667574757265000000 PUSH1 0x44 DUP3 ADD MSTORE PUSH1 0x64 ADD PUSH2 0x799 JUMP JUMPDEST PUSH1 0x0 PUSH2 0xF9D PUSH1 0x5 DUP1 SLOAD DUP1 PUSH1 0x20 MUL PUSH1 0x20 ADD PUSH1 0x40 MLOAD SWAP1 DUP2 ADD PUSH1 0x40 MSTORE DUP1 SWAP3 SWAP2 SWAP1 DUP2 DUP2 MSTORE PUSH1 0x20 ADD PUSH1 0x0 SWAP1 JUMPDEST DUP3 DUP3 LT ISZERO PUSH2 0xF90 JUMPI PUSH1 0x0 DUP5 DUP2 MSTORE PUSH1 0x20 SWAP1 DUP2 SWAP1 KECCAK256 PUSH1 0x40 DUP1 MLOAD PUSH1 0x80 DUP2 ADD DUP3 MSTORE PUSH1 0x3 DUP7 MUL SWAP1 SWAP3 ADD DUP1 SLOAD PUSH1 0xF DUP2 DUP2 SIGNEXTEND DUP6 MSTORE PUSH1 0x1 PUSH1 0x80 SHL SWAP1 SWAP2 DIV SWAP1 SIGNEXTEND DUP4 DUP6 ADD MSTORE PUSH1 0x1 DUP1 DUP3 ADD SLOAD SWAP3 DUP5 ADD SWAP3 SWAP1 SWAP3 MSTORE PUSH1 0x2 ADD SLOAD PUSH1 0x60 DUP4 ADD MSTORE SWAP1 DUP4 MSTORE SWAP1 SWAP3 ADD SWAP2 ADD PUSH2 0xF32 JUMP JUMPDEST POP POP POP POP DUP5 PUSH1 0x6 SLOAD PUSH2 0x1BA4 JUMP JUMPDEST SWAP1 POP PUSH1 0x0 PUSH1 0x5 DUP3 DUP2 SLOAD DUP2 LT PUSH2 0xFB4 JUMPI PUSH2 0xFB4 PUSH2 0x25AE JUMP JUMPDEST PUSH1 0x0 SWAP2 DUP3 MSTORE PUSH1 0x20 SWAP2 DUP3 SWAP1 KECCAK256 PUSH1 0x40 DUP1 MLOAD PUSH1 0x80 DUP2 ADD DUP3 MSTORE PUSH1 0x3 SWAP1 SWAP4 MUL SWAP1 SWAP2 ADD DUP1 SLOAD PUSH1 0xF DUP2 DUP2 SIGNEXTEND DUP6 MSTORE PUSH1 0x1 PUSH1 0x80 SHL SWAP1 SWAP2 DIV SWAP1 SIGNEXTEND SWAP4 DUP4 ADD SWAP4 SWAP1 SWAP4 MSTORE PUSH1 0x1 DUP4 ADD SLOAD SWAP1 DUP3 ADD MSTORE PUSH1 0x2 SWAP1 SWAP2 ADD SLOAD PUSH1 0x60 DUP3 ADD DUP2 SWAP1 MSTORE SWAP1 SWAP2 POP DUP5 LT ISZERO PUSH2 0x1015 JUMPI POP PUSH1 0x0 SWAP4 SWAP3 POP POP POP JUMP JUMPDEST PUSH1 0x0 PUSH1 0x6 SLOAD DUP4 LT ISZERO PUSH2 0x10ED JUMPI PUSH1 0x0 PUSH1 0x5 PUSH2 0x1030 DUP6 PUSH1 0x1 PUSH2 0x261B JUMP JUMPDEST DUP2 SLOAD DUP2 LT PUSH2 0x1040 JUMPI PUSH2 0x1040 PUSH2 0x25AE JUMP JUMPDEST PUSH1 0x0 SWAP2 DUP3 MSTORE PUSH1 0x20 SWAP2 DUP3 SWAP1 KECCAK256 PUSH1 0x40 DUP1 MLOAD PUSH1 0x80 DUP2 ADD DUP3 MSTORE PUSH1 0x3 SWAP1 SWAP4 MUL SWAP1 SWAP2 ADD DUP1 SLOAD PUSH1 0xF DUP2 DUP2 SIGNEXTEND DUP6 MSTORE PUSH1 0x1 PUSH1 0x80 SHL SWAP1 SWAP2 DIV SWAP1 SIGNEXTEND SWAP4 DUP4 ADD SWAP4 SWAP1 SWAP4 MSTORE PUSH1 0x1 DUP4 ADD SLOAD SWAP1 DUP3 ADD MSTORE PUSH1 0x2 SWAP1 SWAP2 ADD SLOAD PUSH1 0x60 DUP1 DUP4 ADD DUP3 SWAP1 MSTORE DUP6 ADD MLOAD SWAP2 SWAP3 POP EQ PUSH2 0x10E7 JUMPI DUP3 PUSH1 0x60 ADD MLOAD DUP2 PUSH1 0x60 ADD MLOAD PUSH2 0x10AD SWAP2 SWAP1 PUSH2 0x2597 JUMP JUMPDEST DUP4 PUSH1 0x40 ADD MLOAD DUP3 PUSH1 0x40 ADD MLOAD PUSH2 0x10C1 SWAP2 SWAP1 PUSH2 0x2597 JUMP JUMPDEST PUSH1 0x60 DUP6 ADD MLOAD PUSH2 0x10D0 SWAP1 DUP10 PUSH2 0x2597 JUMP JUMPDEST PUSH2 0x10DA SWAP2 SWAP1 PUSH2 0x2633 JUMP JUMPDEST PUSH2 0x10E4 SWAP2 SWAP1 PUSH2 0x2668 JUMP JUMPDEST SWAP2 POP JUMPDEST POP PUSH2 0x113C JUMP JUMPDEST NUMBER DUP3 PUSH1 0x60 ADD MLOAD EQ PUSH2 0x113C JUMPI PUSH1 0x60 DUP3 ADD MLOAD PUSH2 0x1107 SWAP1 NUMBER PUSH2 0x2597 JUMP JUMPDEST PUSH1 0x40 DUP4 ADD MLOAD PUSH2 0x1116 SWAP1 TIMESTAMP PUSH2 0x2597 JUMP JUMPDEST PUSH1 0x60 DUP5 ADD MLOAD PUSH2 0x1125 SWAP1 DUP9 PUSH2 0x2597 JUMP JUMPDEST PUSH2 0x112F SWAP2 SWAP1 PUSH2 0x2633 JUMP JUMPDEST PUSH2 0x1139 SWAP2 SWAP1 PUSH2 0x2668 JUMP JUMPDEST SWAP1 POP JUMPDEST PUSH2 0x1155 DUP3 DUP3 DUP5 PUSH1 0x40 ADD MLOAD PUSH2 0x1150 SWAP2 SWAP1 PUSH2 0x261B JUMP JUMPDEST PUSH2 0x15C5 JUMP JUMPDEST SWAP6 SWAP5 POP POP POP POP POP JUMP JUMPDEST PUSH1 0x0 PUSH2 0x6B9 DUP3 PUSH2 0xD34 JUMP JUMPDEST PUSH2 0x1172 DUP2 PUSH2 0x1D3D JUMP JUMPDEST CALLER PUSH1 0x0 SWAP1 DUP2 MSTORE PUSH1 0x7 PUSH1 0x20 SWAP1 DUP2 MSTORE PUSH1 0x40 SWAP2 DUP3 SWAP1 KECCAK256 DUP3 MLOAD DUP1 DUP5 ADD SWAP1 SWAP4 MSTORE DUP1 SLOAD PUSH1 0xF SIGNEXTEND DUP4 MSTORE PUSH1 0x1 ADD SLOAD SWAP1 DUP3 ADD MSTORE SWAP1 SWAP2 POP TIMESTAMP DUP3 GT PUSH2 0x120B JUMPI PUSH1 0x40 MLOAD PUSH3 0x461BCD PUSH1 0xE5 SHL DUP2 MSTORE PUSH1 0x20 PUSH1 0x4 DUP3 ADD MSTORE PUSH1 0x34 PUSH1 0x24 DUP3 ADD MSTORE PUSH32 0x456E64206D7573742062652067726561746572207468616E2074686520637572 PUSH1 0x44 DUP3 ADD MSTORE PUSH20 0x72656E7420626C6F636B2074696D657374616D7 PUSH1 0x64 SHL PUSH1 0x64 DUP3 ADD MSTORE PUSH1 0x84 ADD PUSH2 0x799 JUMP JUMPDEST PUSH1 0x0 DUP2 PUSH1 0x20 ADD MLOAD GT DUP1 ISZERO PUSH2 0x1222 JUMPI POP DUP1 PUSH1 0x20 ADD MLOAD DUP3 LT JUMPDEST ISZERO PUSH2 0x128C JUMPI PUSH1 0x40 MLOAD PUSH3 0x461BCD PUSH1 0xE5 SHL DUP2 MSTORE PUSH1 0x20 PUSH1 0x4 DUP3 ADD MSTORE PUSH1 0x34 PUSH1 0x24 DUP3 ADD MSTORE PUSH32 0x456E64206D7573742062652067726561746572207468616E206F722065717561 PUSH1 0x44 DUP3 ADD MSTORE PUSH20 0x1B081D1BC81D1A194818DD5C9C995B9D08195B99 PUSH1 0x62 SHL PUSH1 0x64 DUP3 ADD MSTORE PUSH1 0x84 ADD PUSH2 0x799 JUMP JUMPDEST PUSH4 0x784CE00 PUSH2 0x129B TIMESTAMP DUP5 PUSH2 0x2597 JUMP JUMPDEST GT ISZERO PUSH2 0x12F8 JUMPI PUSH1 0x40 MLOAD PUSH3 0x461BCD PUSH1 0xE5 SHL DUP2 MSTORE PUSH1 0x20 PUSH1 0x4 DUP3 ADD MSTORE PUSH1 0x26 PUSH1 0x24 DUP3 ADD MSTORE PUSH32 0x456E64206D757374206265206265666F7265206D6178696D756D206C6F636B75 PUSH1 0x44 DUP3 ADD MSTORE PUSH6 0x702074696D65 PUSH1 0xD0 SHL PUSH1 0x64 DUP3 ADD MSTORE PUSH1 0x84 ADD PUSH2 0x799 JUMP JUMPDEST PUSH1 0x0 PUSH2 0x1303 DUP5 PUSH2 0x1C3E JUMP JUMPDEST SWAP1 POP DUP2 PUSH1 0x0 ADD MLOAD PUSH1 0xF SIGNEXTEND DUP2 PUSH1 0xF SIGNEXTEND SLT ISZERO PUSH2 0x137E JUMPI PUSH1 0x40 MLOAD PUSH3 0x461BCD PUSH1 0xE5 SHL DUP2 MSTORE PUSH1 0x20 PUSH1 0x4 DUP3 ADD MSTORE PUSH1 0x36 PUSH1 0x24 DUP3 ADD MSTORE PUSH32 0x416D6F756E74206D7573742062652067726561746572207468616E206F722065 PUSH1 0x44 DUP3 ADD MSTORE PUSH22 0x1C5D585B081D1BC818DD5C9C995B9D08185B5BDD5B9D PUSH1 0x52 SHL PUSH1 0x64 DUP3 ADD MSTORE PUSH1 0x84 ADD PUSH2 0x799 JUMP JUMPDEST DUP2 MLOAD PUSH1 0x0 SWAP1 PUSH2 0x1391 SWAP1 PUSH2 0xE17 SWAP1 DUP5 PUSH2 0x2711 JUMP JUMPDEST PUSH1 0x40 DUP1 MLOAD DUP1 DUP3 ADD DUP3 MSTORE PUSH1 0xF DUP6 SWAP1 SIGNEXTEND DUP2 MSTORE PUSH1 0x20 DUP1 DUP3 ADD DUP9 DUP2 MSTORE CALLER PUSH1 0x0 SWAP1 DUP2 MSTORE PUSH1 0x7 SWAP1 SWAP3 MSTORE SWAP3 SWAP1 KECCAK256 DUP2 MLOAD DUP2 SLOAD PUSH1 0x1 PUSH1 0x1 PUSH1 0x80 SHL SUB NOT AND PUSH1 0x1 PUSH1 0x1 PUSH1 0x80 SHL SUB SWAP1 SWAP2 AND OR DUP2 SSTORE SWAP2 MLOAD PUSH1 0x1 SWAP1 SWAP3 ADD SWAP2 SWAP1 SWAP2 SSTORE SWAP1 SWAP2 POP DUP2 ISZERO PUSH2 0x13FF JUMPI PUSH1 0xA SLOAD PUSH2 0x13FF SWAP1 PUSH1 0x1 PUSH1 0x1 PUSH1 0xA0 SHL SUB AND CALLER ADDRESS DUP6 PUSH2 0x1D57 JUMP JUMPDEST PUSH1 0x20 DUP5 ADD MLOAD ISZERO PUSH2 0x1471 JUMPI DUP4 MLOAD PUSH1 0x20 DUP1 DUP7 ADD MLOAD DUP4 MLOAD DUP5 DUP4 ADD MLOAD PUSH1 0x40 DUP1 MLOAD PUSH1 0xF SWAP7 DUP8 SIGNEXTEND DUP2 MSTORE SWAP5 DUP6 ADD SWAP4 SWAP1 SWAP4 MSTORE SWAP4 SIGNEXTEND SWAP1 DUP3 ADD MSTORE PUSH1 0x60 DUP2 ADD SWAP2 SWAP1 SWAP2 MSTORE TIMESTAMP PUSH1 0x80 DUP3 ADD MSTORE CALLER SWAP1 PUSH32 0x268A3D7EA661E9E2BD617021C94B431919691C0D21AA2EB3EA2B9644A5383D12 SWAP1 PUSH1 0xA0 ADD PUSH1 0x40 MLOAD DUP1 SWAP2 SUB SWAP1 LOG2 PUSH2 0x14BE JUMP JUMPDEST DUP1 MLOAD PUSH1 0x20 DUP1 DUP4 ADD MLOAD PUSH1 0x40 DUP1 MLOAD PUSH1 0xF SWAP5 SWAP1 SWAP5 SIGNEXTEND DUP5 MSTORE SWAP2 DUP4 ADD MSTORE TIMESTAMP SWAP1 DUP3 ADD MSTORE CALLER SWAP1 PUSH32 0x7006565168B74EDD823B144526503320D833B826EDEA3F82059CA1806A954FC3 SWAP1 PUSH1 0x60 ADD PUSH1 0x40 MLOAD DUP1 SWAP2 SUB SWAP1 LOG2 JUMPDEST PUSH2 0x14C9 CALLER DUP6 DUP4 PUSH2 0x185F JUMP JUMPDEST POP POP POP POP POP POP POP POP JUMP JUMPDEST PUSH2 0x14DE PUSH1 0x0 DUP1 PUSH2 0x1D95 JUMP JUMPDEST POP JUMP JUMPDEST PUSH1 0x40 MLOAD PUSH3 0x461BCD PUSH1 0xE5 SHL DUP2 MSTORE PUSH1 0x20 PUSH1 0x4 DUP3 ADD MSTORE PUSH1 0x28 PUSH1 0x24 DUP3 ADD MSTORE PUSH32 0x44656C65676174696F6E206279207369676E6174757265206973206E6F742073 PUSH1 0x44 DUP3 ADD MSTORE PUSH8 0x1D5C1C1BDC9D1959 PUSH1 0xC2 SHL PUSH1 0x64 DUP3 ADD MSTORE PUSH1 0x84 ADD PUSH2 0x799 JUMP JUMPDEST PUSH2 0x1542 PUSH2 0x235B JUMP JUMPDEST PUSH1 0x1 PUSH1 0x1 PUSH1 0xA0 SHL SUB DUP4 AND PUSH1 0x0 SWAP1 DUP2 MSTORE PUSH1 0x3 PUSH1 0x20 MSTORE PUSH1 0x40 SWAP1 KECCAK256 DUP1 SLOAD PUSH4 0xFFFFFFFF DUP5 AND SWAP1 DUP2 LT PUSH2 0x1572 JUMPI PUSH2 0x1572 PUSH2 0x25AE JUMP JUMPDEST PUSH1 0x0 SWAP2 DUP3 MSTORE PUSH1 0x20 SWAP2 DUP3 SWAP1 KECCAK256 PUSH1 0x40 DUP1 MLOAD PUSH1 0x80 DUP2 ADD DUP3 MSTORE PUSH1 0x3 SWAP1 SWAP4 MUL SWAP1 SWAP2 ADD DUP1 SLOAD PUSH1 0xF DUP2 DUP2 SIGNEXTEND DUP6 MSTORE PUSH1 0x1 PUSH1 0x80 SHL SWAP1 SWAP2 DIV SWAP1 SIGNEXTEND SWAP4 DUP4 ADD SWAP4 SWAP1 SWAP4 MSTORE PUSH1 0x1 DUP4 ADD SLOAD SWAP1 DUP3 ADD MSTORE PUSH1 0x2 SWAP1 SWAP2 ADD SLOAD PUSH1 0x60 DUP3 ADD MSTORE SWAP1 POP SWAP3 SWAP2 POP POP JUMP JUMPDEST PUSH1 0x0 DUP1 DUP4 SWAP1 POP PUSH1 0x0 PUSH2 0x15DA DUP3 PUSH1 0x40 ADD MLOAD PUSH2 0x1D3D JUMP JUMPDEST SWAP1 POP PUSH1 0x0 JUMPDEST PUSH1 0xFF DUP2 LT ISZERO PUSH2 0x1690 JUMPI PUSH2 0x15F5 PUSH3 0x93A80 DUP4 PUSH2 0x261B JUMP JUMPDEST SWAP2 POP PUSH1 0x0 DUP6 DUP4 GT ISZERO PUSH2 0x1609 JUMPI DUP6 SWAP3 POP PUSH2 0x161D JUMP JUMPDEST POP PUSH1 0x0 DUP3 DUP2 MSTORE PUSH1 0x8 PUSH1 0x20 MSTORE PUSH1 0x40 SWAP1 KECCAK256 SLOAD PUSH1 0xF SIGNEXTEND JUMPDEST PUSH2 0x1630 DUP5 PUSH1 0x40 ADD MLOAD DUP5 PUSH2 0xC45 SWAP2 SWAP1 PUSH2 0x2597 JUMP JUMPDEST DUP5 PUSH1 0x20 ADD MLOAD PUSH2 0x163F SWAP2 SWAP1 PUSH2 0x267C JUMP JUMPDEST DUP5 MLOAD PUSH2 0x164B SWAP2 SWAP1 PUSH2 0x2711 JUMP JUMPDEST PUSH1 0xF SIGNEXTEND DUP5 MSTORE DUP3 DUP7 EQ ISZERO PUSH2 0x165E JUMPI POP PUSH2 0x1690 JUMP JUMPDEST DUP1 DUP5 PUSH1 0x20 ADD MLOAD PUSH2 0x166E SWAP2 SWAP1 PUSH2 0x2761 JUMP JUMPDEST PUSH1 0xF SIGNEXTEND PUSH1 0x20 DUP6 ADD MSTORE POP PUSH1 0x40 DUP4 ADD DUP3 SWAP1 MSTORE DUP1 PUSH2 0x1688 DUP2 PUSH2 0x27B0 JUMP JUMPDEST SWAP2 POP POP PUSH2 0x15DF JUMP JUMPDEST POP PUSH2 0x1155 PUSH2 0xE17 DUP4 PUSH1 0x0 ADD MLOAD PUSH1 0x0 PUSH2 0x1D20 JUMP JUMPDEST PUSH1 0x60 DUP2 PUSH2 0x16C7 JUMPI POP POP PUSH1 0x40 DUP1 MLOAD DUP1 DUP3 ADD SWAP1 SWAP2 MSTORE PUSH1 0x1 DUP2 MSTORE PUSH1 0x3 PUSH1 0xFC SHL PUSH1 0x20 DUP3 ADD MSTORE SWAP1 JUMP JUMPDEST DUP2 PUSH1 0x0 JUMPDEST DUP2 ISZERO PUSH2 0x16F1 JUMPI DUP1 PUSH2 0x16DB DUP2 PUSH2 0x27B0 JUMP JUMPDEST SWAP2 POP PUSH2 0x16EA SWAP1 POP PUSH1 0xA DUP4 PUSH2 0x2668 JUMP JUMPDEST SWAP2 POP PUSH2 0x16CB JUMP JUMPDEST PUSH1 0x0 DUP2 PUSH8 0xFFFFFFFFFFFFFFFF DUP2 GT ISZERO PUSH2 0x170C JUMPI PUSH2 0x170C PUSH2 0x27CB JUMP JUMPDEST PUSH1 0x40 MLOAD SWAP1 DUP1 DUP3 MSTORE DUP1 PUSH1 0x1F ADD PUSH1 0x1F NOT AND PUSH1 0x20 ADD DUP3 ADD PUSH1 0x40 MSTORE DUP1 ISZERO PUSH2 0x1736 JUMPI PUSH1 0x20 DUP3 ADD DUP2 DUP1 CALLDATASIZE DUP4 CALLDATACOPY ADD SWAP1 POP JUMPDEST POP SWAP1 POP JUMPDEST DUP5 ISZERO PUSH2 0xE1F JUMPI PUSH2 0x174B PUSH1 0x1 DUP4 PUSH2 0x2597 JUMP JUMPDEST SWAP2 POP PUSH2 0x1758 PUSH1 0xA DUP7 PUSH2 0x27E1 JUMP JUMPDEST PUSH2 0x1763 SWAP1 PUSH1 0x30 PUSH2 0x261B JUMP JUMPDEST PUSH1 0xF8 SHL DUP2 DUP4 DUP2 MLOAD DUP2 LT PUSH2 0x1778 JUMPI PUSH2 0x1778 PUSH2 0x25AE JUMP JUMPDEST PUSH1 0x20 ADD ADD SWAP1 PUSH1 0x1 PUSH1 0x1 PUSH1 0xF8 SHL SUB NOT AND SWAP1 DUP2 PUSH1 0x0 BYTE SWAP1 MSTORE8 POP PUSH2 0x179A PUSH1 0xA DUP7 PUSH2 0x2668 JUMP JUMPDEST SWAP5 POP PUSH2 0x173A JUMP JUMPDEST PUSH1 0x0 DUP1 DUP3 SLT ISZERO PUSH2 0x17F3 JUMPI PUSH1 0x40 MLOAD PUSH3 0x461BCD PUSH1 0xE5 SHL DUP2 MSTORE PUSH1 0x20 PUSH1 0x4 DUP3 ADD DUP2 SWAP1 MSTORE PUSH1 0x24 DUP3 ADD MSTORE PUSH32 0x53616665436173743A2076616C7565206D75737420626520706F736974697665 PUSH1 0x44 DUP3 ADD MSTORE PUSH1 0x64 ADD PUSH2 0x799 JUMP JUMPDEST POP SWAP1 JUMP JUMPDEST PUSH1 0x40 MLOAD PUSH1 0x1 PUSH1 0x1 PUSH1 0xA0 SHL SUB DUP4 AND PUSH1 0x24 DUP3 ADD MSTORE PUSH1 0x44 DUP2 ADD DUP3 SWAP1 MSTORE PUSH2 0x185A SWAP1 DUP5 SWAP1 PUSH4 0xA9059CBB PUSH1 0xE0 SHL SWAP1 PUSH1 0x64 ADD JUMPDEST PUSH1 0x40 DUP1 MLOAD PUSH1 0x1F NOT DUP2 DUP5 SUB ADD DUP2 MSTORE SWAP2 SWAP1 MSTORE PUSH1 0x20 DUP2 ADD DUP1 MLOAD PUSH1 0x1 PUSH1 0x1 PUSH1 0xE0 SHL SUB AND PUSH1 0x1 PUSH1 0x1 PUSH1 0xE0 SHL SUB NOT SWAP1 SWAP4 AND SWAP3 SWAP1 SWAP3 OR SWAP1 SWAP2 MSTORE PUSH2 0x2175 JUMP JUMPDEST POP POP POP JUMP JUMPDEST PUSH1 0x0 DUP1 PUSH2 0x186A PUSH2 0x235B JUMP JUMPDEST PUSH2 0x1872 PUSH2 0x235B JUMP JUMPDEST PUSH1 0x0 DUP1 TIMESTAMP DUP9 PUSH1 0x20 ADD MLOAD GT DUP1 ISZERO PUSH2 0x188F JUMPI POP PUSH1 0x0 DUP9 PUSH1 0x0 ADD MLOAD PUSH1 0xF SIGNEXTEND SGT JUMPDEST ISZERO PUSH2 0x18E0 JUMPI PUSH2 0x18A1 PUSH4 0x784CE00 PUSH2 0x1C3E JUMP JUMPDEST DUP9 MLOAD PUSH2 0x18AD SWAP2 SWAP1 PUSH2 0x27F5 JUMP JUMPDEST PUSH1 0xF SIGNEXTEND PUSH1 0x20 DUP1 DUP7 ADD SWAP2 SWAP1 SWAP2 MSTORE DUP9 ADD MLOAD PUSH2 0x18CB SWAP1 PUSH2 0xC45 SWAP1 TIMESTAMP SWAP1 PUSH2 0x2597 JUMP JUMPDEST DUP5 PUSH1 0x20 ADD MLOAD PUSH2 0x18DA SWAP2 SWAP1 PUSH2 0x267C JUMP JUMPDEST PUSH1 0xF SIGNEXTEND DUP5 MSTORE JUMPDEST TIMESTAMP DUP8 PUSH1 0x20 ADD MLOAD GT DUP1 ISZERO PUSH2 0x18FA JUMPI POP PUSH1 0x0 DUP8 PUSH1 0x0 ADD MLOAD PUSH1 0xF SIGNEXTEND SGT JUMPDEST ISZERO PUSH2 0x194B JUMPI PUSH2 0x190C PUSH4 0x784CE00 PUSH2 0x1C3E JUMP JUMPDEST DUP8 MLOAD PUSH2 0x1918 SWAP2 SWAP1 PUSH2 0x27F5 JUMP JUMPDEST PUSH1 0xF SIGNEXTEND PUSH1 0x20 DUP1 DUP6 ADD SWAP2 SWAP1 SWAP2 MSTORE DUP8 ADD MLOAD PUSH2 0x1936 SWAP1 PUSH2 0xC45 SWAP1 TIMESTAMP SWAP1 PUSH2 0x2597 JUMP JUMPDEST DUP4 PUSH1 0x20 ADD MLOAD PUSH2 0x1945 SWAP2 SWAP1 PUSH2 0x267C JUMP JUMPDEST PUSH1 0xF SIGNEXTEND DUP4 MSTORE JUMPDEST PUSH1 0x1 PUSH1 0x1 PUSH1 0xA0 SHL SUB DUP10 AND PUSH1 0x0 SWAP1 DUP2 MSTORE PUSH1 0x4 PUSH1 0x20 MSTORE PUSH1 0x40 SWAP1 KECCAK256 SLOAD DUP1 PUSH2 0x19CE JUMPI PUSH1 0x1 PUSH1 0x1 PUSH1 0xA0 SHL SUB DUP11 AND PUSH1 0x0 SWAP1 DUP2 MSTORE PUSH1 0x3 PUSH1 0x20 DUP2 DUP2 MSTORE PUSH1 0x40 DUP1 DUP5 KECCAK256 DUP1 SLOAD PUSH1 0x1 DUP2 DUP2 ADD DUP4 SSTORE SWAP2 DUP7 MSTORE SWAP5 DUP4 SWAP1 KECCAK256 DUP11 MLOAD SWAP4 DUP12 ADD MLOAD PUSH1 0x1 PUSH1 0x1 PUSH1 0x80 SHL SUB SWAP1 DUP2 AND PUSH1 0x1 PUSH1 0x80 SHL MUL SWAP5 AND SWAP4 SWAP1 SWAP4 OR SWAP5 SWAP1 SWAP4 MUL SWAP1 SWAP2 ADD SWAP3 DUP4 SSTORE DUP8 ADD MLOAD SWAP1 DUP3 ADD SSTORE PUSH1 0x60 DUP7 ADD MLOAD PUSH1 0x2 SWAP1 SWAP2 ADD SSTORE JUMPDEST TIMESTAMP PUSH1 0x40 DUP6 ADD MSTORE NUMBER PUSH1 0x60 DUP6 ADD MSTORE PUSH2 0x19E5 DUP2 PUSH1 0x1 PUSH2 0x261B JUMP JUMPDEST PUSH1 0x1 PUSH1 0x1 PUSH1 0xA0 SHL SUB DUP12 AND PUSH1 0x0 SWAP1 DUP2 MSTORE PUSH1 0x4 PUSH1 0x20 SWAP1 DUP2 MSTORE PUSH1 0x40 DUP1 DUP4 KECCAK256 SWAP4 SWAP1 SWAP4 SSTORE PUSH1 0x3 DUP1 DUP3 MSTORE DUP4 DUP4 KECCAK256 DUP1 SLOAD PUSH1 0x1 DUP2 DUP2 ADD DUP4 SSTORE SWAP2 DUP6 MSTORE DUP4 DUP6 KECCAK256 DUP11 MLOAD DUP12 DUP7 ADD MLOAD PUSH1 0x1 PUSH1 0x1 PUSH1 0x80 SHL SUB SWAP1 DUP2 AND PUSH1 0x1 PUSH1 0x80 SHL MUL SWAP2 AND OR SWAP2 SWAP1 SWAP4 MUL SWAP1 SWAP3 ADD SWAP2 DUP3 SSTORE DUP9 DUP6 ADD MLOAD SWAP1 DUP3 ADD SSTORE PUSH1 0x60 DUP9 ADD MLOAD PUSH1 0x2 SWAP1 SWAP2 ADD SSTORE DUP12 DUP2 ADD MLOAD DUP3 MSTORE PUSH1 0x8 DUP2 MSTORE SWAP2 SWAP1 KECCAK256 SLOAD SWAP1 DUP10 ADD MLOAD PUSH1 0xF SWAP2 SWAP1 SWAP2 SIGNEXTEND SWAP4 POP ISZERO PUSH2 0x1AA4 JUMPI DUP9 PUSH1 0x20 ADD MLOAD DUP9 PUSH1 0x20 ADD MLOAD EQ ISZERO PUSH2 0x1A89 JUMPI DUP3 SWAP2 POP PUSH2 0x1AA4 JUMP JUMPDEST PUSH1 0x20 DUP1 DUP10 ADD MLOAD PUSH1 0x0 SWAP1 DUP2 MSTORE PUSH1 0x8 SWAP1 SWAP2 MSTORE PUSH1 0x40 SWAP1 KECCAK256 SLOAD PUSH1 0xF SIGNEXTEND SWAP2 POP JUMPDEST PUSH2 0x1ACE DUP6 PUSH1 0x20 ADD MLOAD DUP6 PUSH1 0x20 ADD MLOAD PUSH2 0x1ABB SWAP2 SWAP1 PUSH2 0x2711 JUMP JUMPDEST DUP7 MLOAD DUP7 MLOAD PUSH2 0x1AC9 SWAP2 SWAP1 PUSH2 0x2711 JUMP JUMPDEST PUSH2 0x1D95 JUMP JUMPDEST POP TIMESTAMP DUP10 PUSH1 0x20 ADD MLOAD GT ISZERO PUSH2 0x1B3C JUMPI PUSH1 0x20 DUP6 ADD MLOAD PUSH2 0x1AEA SWAP1 DUP5 PUSH2 0x2761 JUMP JUMPDEST SWAP3 POP DUP9 PUSH1 0x20 ADD MLOAD DUP9 PUSH1 0x20 ADD MLOAD EQ ISZERO PUSH2 0x1B0E JUMPI PUSH1 0x20 DUP5 ADD MLOAD PUSH2 0x1B0B SWAP1 DUP5 PUSH2 0x2711 JUMP JUMPDEST SWAP3 POP JUMPDEST PUSH1 0x20 DUP10 DUP2 ADD MLOAD PUSH1 0x0 SWAP1 DUP2 MSTORE PUSH1 0x8 SWAP1 SWAP2 MSTORE PUSH1 0x40 SWAP1 KECCAK256 DUP1 SLOAD PUSH1 0x1 PUSH1 0x1 PUSH1 0x80 SHL SUB NOT AND PUSH1 0x1 PUSH1 0x1 PUSH1 0x80 SHL SUB DUP6 AND OR SWAP1 SSTORE JUMPDEST TIMESTAMP DUP9 PUSH1 0x20 ADD MLOAD GT ISZERO PUSH2 0x1B97 JUMPI DUP9 PUSH1 0x20 ADD MLOAD DUP9 PUSH1 0x20 ADD MLOAD GT ISZERO PUSH2 0x1B97 JUMPI PUSH1 0x20 DUP5 ADD MLOAD PUSH2 0x1B67 SWAP1 DUP4 PUSH2 0x2711 JUMP JUMPDEST PUSH1 0x20 DUP10 DUP2 ADD MLOAD PUSH1 0x0 SWAP1 DUP2 MSTORE PUSH1 0x8 SWAP1 SWAP2 MSTORE PUSH1 0x40 SWAP1 KECCAK256 DUP1 SLOAD PUSH1 0x1 PUSH1 0x1 PUSH1 0x80 SHL SUB NOT AND PUSH1 0x1 PUSH1 0x1 PUSH1 0x80 SHL SUB DUP4 AND OR SWAP1 SSTORE SWAP2 POP JUMPDEST POP POP POP POP POP SWAP4 POP SWAP4 SWAP2 POP POP JUMP JUMPDEST PUSH1 0x0 DUP1 DUP3 DUP2 JUMPDEST PUSH1 0x80 DUP2 LT ISZERO PUSH2 0x1C31 JUMPI DUP2 DUP4 LT PUSH2 0x1BBF JUMPI PUSH2 0x1C31 JUMP JUMPDEST PUSH1 0x0 PUSH1 0x2 PUSH2 0x1BCD DUP5 DUP7 PUSH2 0x261B JUMP JUMPDEST PUSH2 0x1BD8 SWAP1 PUSH1 0x1 PUSH2 0x261B JUMP JUMPDEST PUSH2 0x1BE2 SWAP2 SWAP1 PUSH2 0x2668 JUMP JUMPDEST SWAP1 POP DUP7 DUP9 DUP3 DUP2 MLOAD DUP2 LT PUSH2 0x1BF7 JUMPI PUSH2 0x1BF7 PUSH2 0x25AE JUMP JUMPDEST PUSH1 0x20 MUL PUSH1 0x20 ADD ADD MLOAD PUSH1 0x60 ADD MLOAD GT PUSH2 0x1C10 JUMPI DUP1 SWAP4 POP PUSH2 0x1C1E JUMP JUMPDEST PUSH2 0x1C1B PUSH1 0x1 DUP3 PUSH2 0x2597 JUMP JUMPDEST SWAP3 POP JUMPDEST POP DUP1 PUSH2 0x1C29 DUP2 PUSH2 0x27B0 JUMP JUMPDEST SWAP2 POP POP PUSH2 0x1BAA JUMP JUMPDEST POP SWAP1 SWAP2 POP POP JUMPDEST SWAP4 SWAP3 POP POP POP JUMP JUMPDEST PUSH1 0x0 PUSH1 0x1 PUSH1 0x1 PUSH1 0x7F SHL SUB NOT DUP3 SLT DUP1 ISZERO SWAP1 PUSH2 0x1C5F JUMPI POP PUSH1 0x1 PUSH1 0x1 PUSH1 0x7F SHL SUB DUP3 SGT ISZERO JUMPDEST PUSH2 0x17F3 JUMPI PUSH1 0x40 MLOAD PUSH3 0x461BCD PUSH1 0xE5 SHL DUP2 MSTORE PUSH1 0x20 PUSH1 0x4 DUP3 ADD MSTORE PUSH1 0x27 PUSH1 0x24 DUP3 ADD MSTORE PUSH32 0x53616665436173743A2076616C756520646F65736E27742066697420696E2031 PUSH1 0x44 DUP3 ADD MSTORE PUSH7 0x32382062697473 PUSH1 0xC8 SHL PUSH1 0x64 DUP3 ADD MSTORE PUSH1 0x84 ADD PUSH2 0x799 JUMP JUMPDEST PUSH1 0x0 PUSH4 0xFFFFFFFF DUP3 GT ISZERO PUSH2 0x17F3 JUMPI PUSH1 0x40 MLOAD PUSH3 0x461BCD PUSH1 0xE5 SHL DUP2 MSTORE PUSH1 0x20 PUSH1 0x4 DUP3 ADD MSTORE PUSH1 0x26 PUSH1 0x24 DUP3 ADD MSTORE PUSH32 0x53616665436173743A2076616C756520646F65736E27742066697420696E2033 PUSH1 0x44 DUP3 ADD MSTORE PUSH6 0x322062697473 PUSH1 0xD0 SHL PUSH1 0x64 DUP3 ADD MSTORE PUSH1 0x84 ADD PUSH2 0x799 JUMP JUMPDEST PUSH1 0x0 DUP2 PUSH1 0xF SIGNEXTEND DUP4 PUSH1 0xF SIGNEXTEND SLT ISZERO PUSH2 0x1D36 JUMPI DUP2 PUSH2 0x6B6 JUMP JUMPDEST POP SWAP1 SWAP2 SWAP1 POP JUMP JUMPDEST PUSH1 0x0 PUSH3 0x93A80 PUSH2 0x1D4D DUP2 DUP5 PUSH2 0x2668 JUMP JUMPDEST PUSH2 0x6B9 SWAP2 SWAP1 PUSH2 0x2633 JUMP JUMPDEST PUSH1 0x40 MLOAD PUSH1 0x1 PUSH1 0x1 PUSH1 0xA0 SHL SUB DUP1 DUP6 AND PUSH1 0x24 DUP4 ADD MSTORE DUP4 AND PUSH1 0x44 DUP3 ADD MSTORE PUSH1 0x64 DUP2 ADD DUP3 SWAP1 MSTORE PUSH2 0x1D8F SWAP1 DUP6 SWAP1 PUSH4 0x23B872DD PUSH1 0xE0 SHL SWAP1 PUSH1 0x84 ADD PUSH2 0x1823 JUMP JUMPDEST POP POP POP POP JUMP JUMPDEST PUSH2 0x1D9D PUSH2 0x235B JUMP JUMPDEST PUSH1 0x6 SLOAD ISZERO PUSH2 0x1E0C JUMPI PUSH1 0x5 PUSH1 0x6 SLOAD DUP2 SLOAD DUP2 LT PUSH2 0x1DBA JUMPI PUSH2 0x1DBA PUSH2 0x25AE JUMP JUMPDEST PUSH1 0x0 SWAP2 DUP3 MSTORE PUSH1 0x20 SWAP2 DUP3 SWAP1 KECCAK256 PUSH1 0x40 DUP1 MLOAD PUSH1 0x80 DUP2 ADD DUP3 MSTORE PUSH1 0x3 SWAP1 SWAP4 MUL SWAP1 SWAP2 ADD DUP1 SLOAD PUSH1 0xF DUP2 DUP2 SIGNEXTEND DUP6 MSTORE PUSH1 0x1 PUSH1 0x80 SHL SWAP1 SWAP2 DIV SWAP1 SIGNEXTEND SWAP4 DUP4 ADD SWAP4 SWAP1 SWAP4 MSTORE PUSH1 0x1 DUP4 ADD SLOAD SWAP1 DUP3 ADD MSTORE PUSH1 0x2 SWAP1 SWAP2 ADD SLOAD PUSH1 0x60 DUP3 ADD MSTORE SWAP1 POP PUSH2 0x1E30 JUMP JUMPDEST POP PUSH1 0x40 DUP1 MLOAD PUSH1 0x80 DUP2 ADD DUP3 MSTORE PUSH1 0x0 DUP1 DUP3 MSTORE PUSH1 0x20 DUP3 ADD MSTORE TIMESTAMP SWAP2 DUP2 ADD SWAP2 SWAP1 SWAP2 MSTORE NUMBER PUSH1 0x60 DUP3 ADD MSTORE JUMPDEST PUSH1 0x40 DUP1 MLOAD PUSH1 0x80 DUP2 ADD DUP3 MSTORE PUSH1 0x0 DUP1 DUP3 MSTORE PUSH1 0x20 DUP3 ADD DUP2 SWAP1 MSTORE DUP4 DUP4 ADD DUP1 MLOAD SWAP4 DUP4 ADD SWAP4 SWAP1 SWAP4 MSTORE PUSH1 0x60 DUP1 DUP6 ADD MLOAD SWAP1 DUP4 ADD MSTORE SWAP2 MLOAD SWAP1 SWAP2 SWAP1 TIMESTAMP GT ISZERO PUSH2 0x1EA5 JUMPI PUSH1 0x40 DUP4 ADD MLOAD PUSH2 0x1E77 SWAP1 TIMESTAMP PUSH2 0x2597 JUMP JUMPDEST PUSH1 0x60 DUP5 ADD MLOAD PUSH2 0x1E86 SWAP1 NUMBER PUSH2 0x2597 JUMP JUMPDEST PUSH2 0x1E98 SWAP1 PUSH8 0xDE0B6B3A7640000 PUSH2 0x2633 JUMP JUMPDEST PUSH2 0x1EA2 SWAP2 SWAP1 PUSH2 0x2668 JUMP JUMPDEST SWAP1 POP JUMPDEST PUSH1 0x40 DUP4 ADD MLOAD PUSH1 0x0 PUSH2 0x1EB5 DUP3 PUSH2 0x1D3D JUMP JUMPDEST SWAP1 POP PUSH1 0x0 JUMPDEST PUSH1 0xFF DUP2 LT ISZERO PUSH2 0x216A JUMPI PUSH2 0x1ED0 PUSH3 0x93A80 DUP4 PUSH2 0x261B JUMP JUMPDEST SWAP2 POP PUSH1 0x0 TIMESTAMP DUP4 GT ISZERO PUSH2 0x1EE4 JUMPI TIMESTAMP SWAP3 POP PUSH2 0x1EF8 JUMP JUMPDEST POP PUSH1 0x0 DUP3 DUP2 MSTORE PUSH1 0x8 PUSH1 0x20 MSTORE PUSH1 0x40 SWAP1 KECCAK256 SLOAD PUSH1 0xF SIGNEXTEND JUMPDEST PUSH1 0x0 PUSH2 0x1F07 PUSH2 0xC45 DUP7 DUP7 PUSH2 0x2597 JUMP JUMPDEST DUP9 PUSH1 0x20 ADD MLOAD PUSH2 0x1F16 SWAP2 SWAP1 PUSH2 0x267C JUMP JUMPDEST SWAP1 POP PUSH2 0x1F32 DUP2 DUP10 PUSH1 0x0 ADD MLOAD PUSH2 0x1F2B SWAP2 SWAP1 PUSH2 0x2711 JUMP JUMPDEST PUSH1 0x0 PUSH2 0x1D20 JUMP JUMPDEST PUSH1 0xF SIGNEXTEND DUP9 MSTORE PUSH1 0x20 DUP9 ADD MLOAD PUSH2 0x1F4B SWAP1 PUSH2 0x1F2B SWAP1 DUP5 SWAP1 PUSH2 0x2761 JUMP JUMPDEST PUSH1 0xF SIGNEXTEND PUSH1 0x20 DUP10 ADD MSTORE PUSH1 0x40 DUP1 DUP10 ADD DUP6 SWAP1 MSTORE DUP8 ADD MLOAD SWAP4 SWAP5 POP DUP5 SWAP4 PUSH8 0xDE0B6B3A7640000 SWAP1 PUSH2 0x1F77 SWAP1 DUP7 PUSH2 0x2597 JUMP JUMPDEST PUSH2 0x1F81 SWAP1 DUP9 PUSH2 0x2633 JUMP JUMPDEST PUSH2 0x1F8B SWAP2 SWAP1 PUSH2 0x2668 JUMP JUMPDEST DUP8 PUSH1 0x60 ADD MLOAD PUSH2 0x1F9A SWAP2 SWAP1 PUSH2 0x261B JUMP JUMPDEST PUSH1 0x60 DUP10 ADD MSTORE PUSH1 0x6 DUP1 SLOAD PUSH1 0x1 SWAP2 SWAP1 PUSH1 0x0 SWAP1 PUSH2 0x1FB5 SWAP1 DUP5 SWAP1 PUSH2 0x261B JUMP JUMPDEST SWAP1 SWAP2 SSTORE POP POP TIMESTAMP DUP5 EQ ISZERO PUSH2 0x20AB JUMPI NUMBER PUSH1 0x60 DUP10 ADD MSTORE PUSH1 0x20 DUP9 ADD MLOAD PUSH2 0x1FDC SWAP1 PUSH2 0x1F2B SWAP1 DUP13 SWAP1 PUSH2 0x2761 JUMP JUMPDEST PUSH1 0xF SIGNEXTEND PUSH1 0x20 DUP10 ADD MSTORE DUP8 MLOAD PUSH2 0x1FF5 SWAP1 PUSH2 0x1F2B SWAP1 DUP12 SWAP1 PUSH2 0x2761 JUMP JUMPDEST PUSH1 0xF SIGNEXTEND DUP9 MSTORE POP POP PUSH1 0x5 DUP1 SLOAD PUSH1 0x1 DUP2 ADD DUP3 SSTORE PUSH1 0x0 SWAP2 SWAP1 SWAP2 MSTORE DUP7 MLOAD PUSH1 0x20 DUP9 ADD MLOAD PUSH1 0x1 PUSH1 0x1 PUSH1 0x80 SHL SUB SWAP1 DUP2 AND PUSH1 0x1 PUSH1 0x80 SHL MUL SWAP2 AND OR PUSH1 0x3 SWAP1 SWAP2 MUL PUSH32 0x36B6384B5ECA791C62761152D0C79BB0604C104A5FB6F4EB0703F3154BB3DB0 DUP2 ADD SWAP2 SWAP1 SWAP2 SSTORE PUSH1 0x40 DUP8 ADD MLOAD PUSH32 0x36B6384B5ECA791C62761152D0C79BB0604C104A5FB6F4EB0703F3154BB3DB1 DUP3 ADD SSTORE PUSH1 0x60 DUP8 ADD MLOAD PUSH32 0x36B6384B5ECA791C62761152D0C79BB0604C104A5FB6F4EB0703F3154BB3DB2 SWAP1 SWAP2 ADD SSTORE PUSH2 0x216A JUMP JUMPDEST PUSH1 0x5 DUP1 SLOAD PUSH1 0x1 DUP2 ADD DUP3 SSTORE PUSH1 0x0 SWAP2 SWAP1 SWAP2 MSTORE DUP9 MLOAD PUSH1 0x20 DUP11 ADD MLOAD PUSH1 0x1 PUSH1 0x1 PUSH1 0x80 SHL SUB SWAP1 DUP2 AND PUSH1 0x1 PUSH1 0x80 SHL MUL SWAP2 AND OR PUSH1 0x3 SWAP1 SWAP2 MUL PUSH32 0x36B6384B5ECA791C62761152D0C79BB0604C104A5FB6F4EB0703F3154BB3DB0 DUP2 ADD SWAP2 SWAP1 SWAP2 SSTORE PUSH1 0x40 DUP10 ADD MLOAD PUSH32 0x36B6384B5ECA791C62761152D0C79BB0604C104A5FB6F4EB0703F3154BB3DB1 DUP3 ADD SSTORE PUSH1 0x60 DUP10 ADD MLOAD PUSH32 0x36B6384B5ECA791C62761152D0C79BB0604C104A5FB6F4EB0703F3154BB3DB2 SWAP1 SWAP2 ADD SSTORE POP POP DUP1 DUP1 PUSH2 0x2162 SWAP1 PUSH2 0x27B0 JUMP JUMPDEST SWAP2 POP POP PUSH2 0x1EBA JUMP JUMPDEST POP POP POP POP POP SWAP3 SWAP2 POP POP JUMP JUMPDEST PUSH1 0x0 PUSH2 0x21CA DUP3 PUSH1 0x40 MLOAD DUP1 PUSH1 0x40 ADD PUSH1 0x40 MSTORE DUP1 PUSH1 0x20 DUP2 MSTORE PUSH1 0x20 ADD PUSH32 0x5361666545524332303A206C6F772D6C6576656C2063616C6C206661696C6564 DUP2 MSTORE POP DUP6 PUSH1 0x1 PUSH1 0x1 PUSH1 0xA0 SHL SUB AND PUSH2 0x2247 SWAP1 SWAP3 SWAP2 SWAP1 PUSH4 0xFFFFFFFF AND JUMP JUMPDEST DUP1 MLOAD SWAP1 SWAP2 POP ISZERO PUSH2 0x185A JUMPI DUP1 DUP1 PUSH1 0x20 ADD SWAP1 MLOAD DUP2 ADD SWAP1 PUSH2 0x21E8 SWAP2 SWAP1 PUSH2 0x2833 JUMP JUMPDEST PUSH2 0x185A JUMPI PUSH1 0x40 MLOAD PUSH3 0x461BCD PUSH1 0xE5 SHL DUP2 MSTORE PUSH1 0x20 PUSH1 0x4 DUP3 ADD MSTORE PUSH1 0x2A PUSH1 0x24 DUP3 ADD MSTORE PUSH32 0x5361666545524332303A204552433230206F7065726174696F6E20646964206E PUSH1 0x44 DUP3 ADD MSTORE PUSH10 0x1BDD081CDD58D8D95959 PUSH1 0xB2 SHL PUSH1 0x64 DUP3 ADD MSTORE PUSH1 0x84 ADD PUSH2 0x799 JUMP JUMPDEST PUSH1 0x60 PUSH2 0xE1F DUP5 DUP5 PUSH1 0x0 DUP6 DUP6 PUSH1 0x1 PUSH1 0x1 PUSH1 0xA0 SHL SUB DUP6 AND EXTCODESIZE PUSH2 0x22A9 JUMPI PUSH1 0x40 MLOAD PUSH3 0x461BCD PUSH1 0xE5 SHL DUP2 MSTORE PUSH1 0x20 PUSH1 0x4 DUP3 ADD MSTORE PUSH1 0x1D PUSH1 0x24 DUP3 ADD MSTORE PUSH32 0x416464726573733A2063616C6C20746F206E6F6E2D636F6E7472616374000000 PUSH1 0x44 DUP3 ADD MSTORE PUSH1 0x64 ADD PUSH2 0x799 JUMP JUMPDEST PUSH1 0x0 DUP1 DUP7 PUSH1 0x1 PUSH1 0x1 PUSH1 0xA0 SHL SUB AND DUP6 DUP8 PUSH1 0x40 MLOAD PUSH2 0x22C5 SWAP2 SWAP1 PUSH2 0x2855 JUMP JUMPDEST PUSH1 0x0 PUSH1 0x40 MLOAD DUP1 DUP4 SUB DUP2 DUP6 DUP8 GAS CALL SWAP3 POP POP POP RETURNDATASIZE DUP1 PUSH1 0x0 DUP2 EQ PUSH2 0x2302 JUMPI PUSH1 0x40 MLOAD SWAP2 POP PUSH1 0x1F NOT PUSH1 0x3F RETURNDATASIZE ADD AND DUP3 ADD PUSH1 0x40 MSTORE RETURNDATASIZE DUP3 MSTORE RETURNDATASIZE PUSH1 0x0 PUSH1 0x20 DUP5 ADD RETURNDATACOPY PUSH2 0x2307 JUMP JUMPDEST PUSH1 0x60 SWAP2 POP JUMPDEST POP SWAP2 POP SWAP2 POP PUSH2 0x2317 DUP3 DUP3 DUP7 PUSH2 0x2322 JUMP JUMPDEST SWAP8 SWAP7 POP POP POP POP POP POP POP JUMP JUMPDEST PUSH1 0x60 DUP4 ISZERO PUSH2 0x2331 JUMPI POP DUP2 PUSH2 0x1C37 JUMP JUMPDEST DUP3 MLOAD ISZERO PUSH2 0x2341 JUMPI DUP3 MLOAD DUP1 DUP5 PUSH1 0x20 ADD REVERT JUMPDEST DUP2 PUSH1 0x40 MLOAD PUSH3 0x461BCD PUSH1 0xE5 SHL DUP2 MSTORE PUSH1 0x4 ADD PUSH2 0x799 SWAP2 SWAP1 PUSH2 0x23B5 JUMP JUMPDEST PUSH1 0x40 MLOAD DUP1 PUSH1 0x80 ADD PUSH1 0x40 MSTORE DUP1 PUSH1 0x0 PUSH1 0xF SIGNEXTEND DUP2 MSTORE PUSH1 0x20 ADD PUSH1 0x0 PUSH1 0xF SIGNEXTEND DUP2 MSTORE PUSH1 0x20 ADD PUSH1 0x0 DUP2 MSTORE PUSH1 0x20 ADD PUSH1 0x0 DUP2 MSTORE POP SWAP1 JUMP JUMPDEST PUSH1 0x0 JUMPDEST DUP4 DUP2 LT ISZERO PUSH2 0x23A4 JUMPI DUP2 DUP2 ADD MLOAD DUP4 DUP3 ADD MSTORE PUSH1 0x20 ADD PUSH2 0x238C JUMP JUMPDEST DUP4 DUP2 GT ISZERO PUSH2 0x1D8F JUMPI POP POP PUSH1 0x0 SWAP2 ADD MSTORE JUMP JUMPDEST PUSH1 0x20 DUP2 MSTORE PUSH1 0x0 DUP3 MLOAD DUP1 PUSH1 0x20 DUP5 ADD MSTORE PUSH2 0x23D4 DUP2 PUSH1 0x40 DUP6 ADD PUSH1 0x20 DUP8 ADD PUSH2 0x2389 JUMP JUMPDEST PUSH1 0x1F ADD PUSH1 0x1F NOT AND SWAP2 SWAP1 SWAP2 ADD PUSH1 0x40 ADD SWAP3 SWAP2 POP POP JUMP JUMPDEST DUP1 CALLDATALOAD PUSH1 0x1 PUSH1 0x1 PUSH1 0xA0 SHL SUB DUP2 AND DUP2 EQ PUSH2 0x23FF JUMPI PUSH1 0x0 DUP1 REVERT JUMPDEST SWAP2 SWAP1 POP JUMP JUMPDEST PUSH1 0x0 PUSH1 0x20 DUP3 DUP5 SUB SLT ISZERO PUSH2 0x2416 JUMPI PUSH1 0x0 DUP1 REVERT JUMPDEST PUSH2 0x6B6 DUP3 PUSH2 0x23E8 JUMP JUMPDEST PUSH1 0x0 DUP1 PUSH1 0x40 DUP4 DUP6 SUB SLT ISZERO PUSH2 0x2432 JUMPI PUSH1 0x0 DUP1 REVERT JUMPDEST PUSH2 0x243B DUP4 PUSH2 0x23E8 JUMP JUMPDEST SWAP5 PUSH1 0x20 SWAP4 SWAP1 SWAP4 ADD CALLDATALOAD SWAP4 POP POP POP JUMP JUMPDEST DUP1 CALLDATALOAD PUSH4 0xFFFFFFFF DUP2 AND DUP2 EQ PUSH2 0x23FF JUMPI PUSH1 0x0 DUP1 REVERT JUMPDEST PUSH1 0x0 PUSH1 0x20 DUP3 DUP5 SUB SLT ISZERO PUSH2 0x246F JUMPI PUSH1 0x0 DUP1 REVERT JUMPDEST PUSH2 0x6B6 DUP3 PUSH2 0x2449 JUMP JUMPDEST PUSH1 0x0 PUSH1 0x20 DUP3 DUP5 SUB SLT ISZERO PUSH2 0x248A JUMPI PUSH1 0x0 DUP1 REVERT JUMPDEST POP CALLDATALOAD SWAP2 SWAP1 POP JUMP JUMPDEST PUSH1 0x0 DUP1 PUSH1 0x40 DUP4 DUP6 SUB SLT ISZERO PUSH2 0x24A4 JUMPI PUSH1 0x0 DUP1 REVERT JUMPDEST POP POP DUP1 CALLDATALOAD SWAP3 PUSH1 0x20 SWAP1 SWAP2 ADD CALLDATALOAD SWAP2 POP JUMP JUMPDEST PUSH1 0x0 DUP1 PUSH1 0x0 DUP1 PUSH1 0x0 DUP1 PUSH1 0xC0 DUP8 DUP10 SUB SLT ISZERO PUSH2 0x24CC JUMPI PUSH1 0x0 DUP1 REVERT JUMPDEST PUSH2 0x24D5 DUP8 PUSH2 0x23E8 JUMP JUMPDEST SWAP6 POP PUSH1 0x20 DUP8 ADD CALLDATALOAD SWAP5 POP PUSH1 0x40 DUP8 ADD CALLDATALOAD SWAP4 POP PUSH1 0x60 DUP8 ADD CALLDATALOAD PUSH1 0xFF DUP2 AND DUP2 EQ PUSH2 0x24F9 JUMPI PUSH1 0x0 DUP1 REVERT JUMPDEST SWAP6 SWAP9 SWAP5 SWAP8 POP SWAP3 SWAP6 PUSH1 0x80 DUP2 ADD CALLDATALOAD SWAP5 PUSH1 0xA0 SWAP1 SWAP2 ADD CALLDATALOAD SWAP4 POP SWAP2 POP POP JUMP JUMPDEST PUSH1 0x0 DUP1 PUSH1 0x40 DUP4 DUP6 SUB SLT ISZERO PUSH2 0x2526 JUMPI PUSH1 0x0 DUP1 REVERT JUMPDEST PUSH2 0x252F DUP4 PUSH2 0x23E8 JUMP JUMPDEST SWAP2 POP PUSH2 0x253D PUSH1 0x20 DUP5 ADD PUSH2 0x2449 JUMP JUMPDEST SWAP1 POP SWAP3 POP SWAP3 SWAP1 POP JUMP JUMPDEST PUSH1 0x1 DUP2 DUP2 SHR SWAP1 DUP3 AND DUP1 PUSH2 0x255A JUMPI PUSH1 0x7F DUP3 AND SWAP2 POP JUMPDEST PUSH1 0x20 DUP3 LT DUP2 EQ ISZERO PUSH2 0x257B JUMPI PUSH4 0x4E487B71 PUSH1 0xE0 SHL PUSH1 0x0 MSTORE PUSH1 0x22 PUSH1 0x4 MSTORE PUSH1 0x24 PUSH1 0x0 REVERT JUMPDEST POP SWAP2 SWAP1 POP JUMP JUMPDEST PUSH4 0x4E487B71 PUSH1 0xE0 SHL PUSH1 0x0 MSTORE PUSH1 0x11 PUSH1 0x4 MSTORE PUSH1 0x24 PUSH1 0x0 REVERT JUMPDEST PUSH1 0x0 DUP3 DUP3 LT ISZERO PUSH2 0x25A9 JUMPI PUSH2 0x25A9 PUSH2 0x2581 JUMP JUMPDEST POP SUB SWAP1 JUMP JUMPDEST PUSH4 0x4E487B71 PUSH1 0xE0 SHL PUSH1 0x0 MSTORE PUSH1 0x32 PUSH1 0x4 MSTORE PUSH1 0x24 PUSH1 0x0 REVERT JUMPDEST PUSH1 0x0 DUP6 MLOAD PUSH2 0x25D6 DUP2 DUP5 PUSH1 0x20 DUP11 ADD PUSH2 0x2389 JUMP JUMPDEST DUP6 MLOAD SWAP1 DUP4 ADD SWAP1 PUSH2 0x25EA DUP2 DUP4 PUSH1 0x20 DUP11 ADD PUSH2 0x2389 JUMP JUMPDEST DUP6 MLOAD SWAP2 ADD SWAP1 PUSH2 0x25FD DUP2 DUP4 PUSH1 0x20 DUP10 ADD PUSH2 0x2389 JUMP JUMPDEST DUP5 MLOAD SWAP2 ADD SWAP1 PUSH2 0x2610 DUP2 DUP4 PUSH1 0x20 DUP9 ADD PUSH2 0x2389 JUMP JUMPDEST ADD SWAP7 SWAP6 POP POP POP POP POP POP JUMP JUMPDEST PUSH1 0x0 DUP3 NOT DUP3 GT ISZERO PUSH2 0x262E JUMPI PUSH2 0x262E PUSH2 0x2581 JUMP JUMPDEST POP ADD SWAP1 JUMP JUMPDEST PUSH1 0x0 DUP2 PUSH1 0x0 NOT DIV DUP4 GT DUP3 ISZERO ISZERO AND ISZERO PUSH2 0x264D JUMPI PUSH2 0x264D PUSH2 0x2581 JUMP JUMPDEST POP MUL SWAP1 JUMP JUMPDEST PUSH4 0x4E487B71 PUSH1 0xE0 SHL PUSH1 0x0 MSTORE PUSH1 0x12 PUSH1 0x4 MSTORE PUSH1 0x24 PUSH1 0x0 REVERT JUMPDEST PUSH1 0x0 DUP3 PUSH2 0x2677 JUMPI PUSH2 0x2677 PUSH2 0x2652 JUMP JUMPDEST POP DIV SWAP1 JUMP JUMPDEST PUSH1 0x0 DUP2 PUSH1 0xF SIGNEXTEND DUP4 PUSH1 0xF SIGNEXTEND PUSH1 0x1 PUSH1 0x1 PUSH1 0x7F SHL SUB PUSH1 0x0 DUP3 SGT PUSH1 0x0 DUP5 SGT DUP4 DUP4 DIV DUP6 GT DUP3 DUP3 AND AND ISZERO PUSH2 0x26AC JUMPI PUSH2 0x26AC PUSH2 0x2581 JUMP JUMPDEST PUSH1 0x1 PUSH1 0x1 PUSH1 0x7F SHL SUB NOT PUSH1 0x0 DUP6 SLT DUP3 DUP2 AND DUP8 DUP4 SDIV DUP8 SLT AND ISZERO PUSH2 0x26CF JUMPI PUSH2 0x26CF PUSH2 0x2581 JUMP JUMPDEST PUSH1 0x0 DUP8 SLT SWAP3 POP DUP6 DUP3 SDIV DUP8 SLT DUP5 DUP5 AND AND ISZERO PUSH2 0x26EB JUMPI PUSH2 0x26EB PUSH2 0x2581 JUMP JUMPDEST DUP6 DUP6 SDIV DUP8 SLT DUP2 DUP5 AND AND ISZERO PUSH2 0x2701 JUMPI PUSH2 0x2701 PUSH2 0x2581 JUMP JUMPDEST POP POP POP SWAP3 SWAP1 SWAP2 MUL SWAP6 SWAP5 POP POP POP POP POP JUMP JUMPDEST PUSH1 0x0 DUP2 PUSH1 0xF SIGNEXTEND DUP4 PUSH1 0xF SIGNEXTEND PUSH1 0x0 DUP2 SLT DUP2 PUSH1 0x1 PUSH1 0x1 PUSH1 0x7F SHL SUB NOT ADD DUP4 SLT DUP2 ISZERO AND ISZERO PUSH2 0x273C JUMPI PUSH2 0x273C PUSH2 0x2581 JUMP JUMPDEST DUP2 PUSH1 0x1 PUSH1 0x1 PUSH1 0x7F SHL SUB ADD DUP4 SGT DUP2 AND ISZERO PUSH2 0x2757 JUMPI PUSH2 0x2757 PUSH2 0x2581 JUMP JUMPDEST POP SWAP1 SUB SWAP4 SWAP3 POP POP POP JUMP JUMPDEST PUSH1 0x0 DUP2 PUSH1 0xF SIGNEXTEND DUP4 PUSH1 0xF SIGNEXTEND PUSH1 0x0 DUP3 SLT DUP3 PUSH1 0x1 PUSH1 0x1 PUSH1 0x7F SHL SUB SUB DUP3 SGT DUP2 ISZERO AND ISZERO PUSH2 0x278B JUMPI PUSH2 0x278B PUSH2 0x2581 JUMP JUMPDEST DUP3 PUSH1 0x1 PUSH1 0x1 PUSH1 0x7F SHL SUB NOT SUB DUP3 SLT DUP2 AND ISZERO PUSH2 0x27A7 JUMPI PUSH2 0x27A7 PUSH2 0x2581 JUMP JUMPDEST POP ADD SWAP4 SWAP3 POP POP POP JUMP JUMPDEST PUSH1 0x0 PUSH1 0x0 NOT DUP3 EQ ISZERO PUSH2 0x27C4 JUMPI PUSH2 0x27C4 PUSH2 0x2581 JUMP JUMPDEST POP PUSH1 0x1 ADD SWAP1 JUMP JUMPDEST PUSH4 0x4E487B71 PUSH1 0xE0 SHL PUSH1 0x0 MSTORE PUSH1 0x41 PUSH1 0x4 MSTORE PUSH1 0x24 PUSH1 0x0 REVERT JUMPDEST PUSH1 0x0 DUP3 PUSH2 0x27F0 JUMPI PUSH2 0x27F0 PUSH2 0x2652 JUMP JUMPDEST POP MOD SWAP1 JUMP JUMPDEST PUSH1 0x0 DUP2 PUSH1 0xF SIGNEXTEND DUP4 PUSH1 0xF SIGNEXTEND DUP1 PUSH2 0x280C JUMPI PUSH2 0x280C PUSH2 0x2652 JUMP JUMPDEST PUSH1 0x1 PUSH1 0x1 PUSH1 0x7F SHL SUB NOT DUP3 EQ PUSH1 0x0 NOT DUP3 EQ AND ISZERO PUSH2 0x282A JUMPI PUSH2 0x282A PUSH2 0x2581 JUMP JUMPDEST SWAP1 SDIV SWAP4 SWAP3 POP POP POP JUMP JUMPDEST PUSH1 0x0 PUSH1 0x20 DUP3 DUP5 SUB SLT ISZERO PUSH2 0x2845 JUMPI PUSH1 0x0 DUP1 REVERT JUMPDEST DUP2 MLOAD DUP1 ISZERO ISZERO DUP2 EQ PUSH2 0x1C37 JUMPI PUSH1 0x0 DUP1 REVERT JUMPDEST PUSH1 0x0 DUP3 MLOAD PUSH2 0x2867 DUP2 DUP5 PUSH1 0x20 DUP8 ADD PUSH2 0x2389 JUMP JUMPDEST SWAP2 SWAP1 SWAP2 ADD SWAP3 SWAP2 POP POP JUMP INVALID LOG2 PUSH5 0x6970667358 0x22 SLT KECCAK256 OR PUSH4 0x68BF6134 0xF 0xDF PUSH32 0xD97492315C08E823A5E11CE90F0F3E93AF9CBE2185146964736F6C634300080B STOP CALLER ",
  "sha1": "c6c04fe7f0e96cebc8902131f970e8f5c73104f6",
  "source": "// SPDX-License-Identifier: MIT\n\n// Inspired by the Curve.fi VotingEscrow contract and the mStable Solidity fork.\n//    - Adds compatability with the OpenZeppelin governance stack (4.5.0)\n//    - Removes the separate lockup amount and lockup duration extension functions info\n//      favour of a single function for create or update.\n//    - Adds an deprecate mechanism for removing all voting power and allowing users too\n//      withdraw lockups\n//\n// References:\n//   - https://github.com/curvefi/curve-dao-contracts/blob/master/contracts/VotingEscrow.vy\n//   - https://github.com/mstable/mStable-contracts/blob/master/contracts/governance/IncentivisedVotingLockup.sol\n\npragma solidity ^0.8.2;\n\nimport \"OpenZeppelin/openzeppelin-contracts@4.5.0/contracts/token/ERC20/ERC20.sol\";\nimport \"OpenZeppelin/openzeppelin-contracts@4.5.0/contracts/utils/math/SafeCast.sol\";\nimport \"OpenZeppelin/openzeppelin-contracts@4.5.0/contracts/token/ERC20/utils/SafeERC20.sol\";\nimport \"OpenZeppelin/openzeppelin-contracts@4.5.0/contracts/utils/Strings.sol\";\n\ncontract VoteLockerCurve {\n    using SafeERC20 for ERC20;\n\n    ///@notice Emitted when a lockup is created\n    event LockupCreated(\n        address indexed provider,\n        int128 amount,\n        uint256 end,\n        uint256 ts\n    );\n    ///@notice Emitted when an existing lockup is changed\n    event LockupUpdated(\n        address indexed provider,\n        int128 oldAmount,\n        uint256 oldEnd,\n        int128 amount,\n        uint256 end,\n        uint256 ts\n    );\n    ///@notice Emitted when a user withdraws from an expired lockup\n    event Withdraw(address indexed provider, uint256 value, uint256 ts);\n\n    ///@notice ERC20 parameters\n    string private _name;\n    string private _symbol;\n    uint8 private _decimals;\n\n    uint256 private constant WEEK = 7 days;\n    /// @notice Maximum lock time\n    uint256 public constant MAX_LOCK_TIME = 4 * 365 * 86400; // 4 years\n    /// @notice Vote boost if locked for maximum duration\n    uint256 public constant MAX_VOTE_MULTIPLE = 4;\n\n    /// @notice Checkpoints for each user\n    mapping(address => Checkpoint[]) private _userCheckpoints;\n    mapping(address => uint256) public userEpoch;\n\n    /// @notice Global checkpoints\n    Checkpoint[] private _globalCheckpoints;\n    uint256 public globalEpoch;\n\n    /// @notice Lockup mapping for each user\n    mapping(address => Lockup) public lockups;\n\n    /// @notice\n    mapping(uint256 => int128) public slopeChanges;\n\n    /// @notice Delegation mapping\n    mapping(address => address) private _delegations;\n\n    /// @notice Token that is locked up in return for vote escrowed token\n    ERC20 stakingToken;\n\n    struct Checkpoint {\n        int128 bias;\n        int128 slope;\n        uint256 ts;\n        uint256 blk;\n    }\n\n    struct Lockup {\n        int128 amount;\n        uint256 end;\n    }\n\n    constructor(address _stakingToken) {\n        stakingToken = ERC20(_stakingToken);\n        _name = string(\n            bytes.concat(bytes(\"Vote Locked\"), \" \", bytes(stakingToken.name()))\n        );\n        _symbol = string(\n            bytes.concat(bytes(\"vl\"), bytes(stakingToken.symbol()))\n        );\n        _decimals = stakingToken.decimals();\n        // Push an initial global checkpoint\n        _globalCheckpoints.push(\n            Checkpoint({\n                bias: 0,\n                slope: 0,\n                ts: block.timestamp,\n                blk: block.number\n            })\n        );\n    }\n\n    /**\n     * @dev Returns the name of the token.\n     */\n    function name() public view virtual returns (string memory) {\n        return _name;\n    }\n\n    /**\n     * @dev Returns the symbol of the token, usually a shorter version of the\n     * name.\n     */\n    function symbol() public view virtual returns (string memory) {\n        return _symbol;\n    }\n\n    /**\n     * @dev Returns the number of decimals used to get its user representation.\n     * For example, if `decimals` equals `2`, a balance of `505` tokens should\n     * be displayed to a user as `5.05` (`505 / 10 ** 2`).\n     *\n     * Tokens usually opt for a value of 18, imitating the relationship between\n     * Ether and Wei. This is the value {ERC20} uses, unless this function is\n     * overridden;\n     */\n    function decimals() public view virtual returns (uint8) {\n        return _decimals;\n    }\n\n    /**\n     * @dev See {ERC20-balanceOf}.\n     */\n    function balanceOf(address _account) public view returns (uint256) {\n        uint256 currentUserEpoch = userEpoch[_account];\n        if (currentUserEpoch == 0) {\n            return 0;\n        }\n        Checkpoint memory lastCheckpoint = _userCheckpoints[_account][\n            currentUserEpoch\n        ];\n        // Calculate the bias based on the last bias and the slope over the difference\n        // in time between the last checkpint timestamp and the current block timestamp;\n        lastCheckpoint.bias -= (lastCheckpoint.slope *\n            SafeCast.toInt128(int256(block.timestamp - lastCheckpoint.ts)));\n        return SafeCast.toUint256(max(lastCheckpoint.bias, 0));\n    }\n\n    /**\n     * @dev See {ERC20-totalSupply}.\n     */\n    function totalSupply() public view returns (uint256) {\n        if (_globalCheckpoints.length == 0) {\n            return 0;\n        }\n        Checkpoint memory lastCheckpoint = _globalCheckpoints[globalEpoch];\n        return _supplyAt(lastCheckpoint, block.timestamp);\n    }\n\n    /**\n     * @dev Get the `pos`-th checkpoint for `_account`.\n     */\n    function checkpoints(address _account, uint32 _pos)\n        public\n        view\n        virtual\n        returns (Checkpoint memory)\n    {\n        return _userCheckpoints[_account][_pos];\n    }\n\n    /**\n     * @dev Get number of checkpoints for `_account`.\n     */\n    function numCheckpoints(address _account)\n        public\n        view\n        virtual\n        returns (uint32)\n    {\n        return SafeCast.toUint32(_userCheckpoints[_account].length);\n    }\n\n    /**\n     * @dev Get last checkpoint for `_account`.\n     */\n    function getLastCheckpoint(address _account)\n        public\n        view\n        returns (Checkpoint memory)\n    {\n        return\n            _userCheckpoints[_account][_userCheckpoints[_account].length - 1];\n    }\n\n    /**\n     * @dev Get the `pos`-th global checkpoint.\n     */\n    function globalCheckpoints(uint32 pos)\n        public\n        view\n        returns (Checkpoint memory)\n    {\n        return _globalCheckpoints[pos];\n    }\n\n    /**\n     * @dev Get number of global checkpoints.\n     */\n    function numGlobalCheckpoints() public view returns (uint256) {\n        return _globalCheckpoints.length;\n    }\n\n    /**\n     * @dev Get the last global checkpoint.\n     */\n    function getLastGlobalCheckpoint() public view returns (Checkpoint memory) {\n        return _globalCheckpoints[_globalCheckpoints.length - 1];\n    }\n\n    /**\n     * @dev Gets the current votes balance for `_account`\n     * This method is required for compatibility with the OpenZeppelin governance ERC20Votes.\n     * @param _account Account to get the votes balance for\n     * @return uint256 Current votes balance for `_account`\n     */\n    function getVotes(address _account) public view returns (uint256) {\n        return balanceOf(_account);\n    }\n\n    /**\n     * @dev Gets the current lockup for `_account`\n     */\n    function getLockup(address _account) public view returns (Lockup memory) {\n        return lockups[_account];\n    }\n\n    /**\n     * @dev Get the address `_account` is currently delegating to.\n     */\n    function delegates(address _account) public view virtual returns (address) {\n        return _delegations[_account];\n    }\n\n    /**\n     * @dev Delegate votes from the sender to `delegatee`.\n     */\n    function delegate(address delegatee) public virtual {\n        // TODO\n        revert(\"Delegation is not supported\");\n    }\n\n    /**\n     * @dev Delegates votes from signer to `delegatee`\n     */\n    function delegateBySig(\n        address delegatee,\n        uint256 nonce,\n        uint256 end,\n        uint8 v,\n        bytes32 r,\n        bytes32 s\n    ) public virtual {\n        revert(\"Delegation by signature is not supported\");\n    }\n\n    /**\n     * @dev Deposits staking token and mints new tokens according to the MAX_VOTE_MULTIPLE and _end parameters.\n     */\n    function lockup(uint256 _amount, uint256 _end) public virtual {\n        // end is rounded down to week\n        _end = _floorToWeek(_end);\n\n        Lockup memory oldLockup = lockups[msg.sender];\n\n        require(\n            _end > block.timestamp,\n            \"End must be greater than the current block timestamp\"\n        );\n        if (oldLockup.end > 0 && _end < oldLockup.end) {\n            revert(\"End must be greater than or equal to the current end\");\n        }\n        // This is not an extension of an existing lockup, validate end\n        require(\n            _end - block.timestamp <= MAX_LOCK_TIME,\n            \"End must be before maximum lockup time\"\n        );\n        int128 amount = SafeCast.toInt128(int256(_amount));\n        // Amount extensions\n        require(\n            amount >= oldLockup.amount,\n            \"Amount must be greater than or equal to current amount\"\n        );\n\n        // oldLockup.amount is 0 if no lockup, or something if this is an increase in locked\n        // amount\n        uint256 amountDelta = SafeCast.toUint256(amount - oldLockup.amount);\n\n        // Old lockup amount will be 0 if no existing lockup, if this is an increase of the\n        // lockup amount, then _amount can be 0\n        Lockup memory newLockup = Lockup({amount: amount, end: _end});\n\n        lockups[msg.sender] = newLockup;\n\n        if (amountDelta > 0) {\n            // Transfer the amount delta\n            stakingToken.safeTransferFrom(\n                msg.sender,\n                address(this),\n                amountDelta\n            );\n        }\n\n        if (oldLockup.end > 0) {\n            // This is an extension of an existing lockup\n            emit LockupUpdated(\n                msg.sender,\n                oldLockup.amount,\n                oldLockup.end,\n                newLockup.amount,\n                newLockup.end,\n                block.timestamp\n            );\n        } else {\n            emit LockupCreated(\n                msg.sender,\n                newLockup.amount,\n                newLockup.end,\n                block.timestamp\n            );\n        }\n\n        _writeUserCheckpoint(msg.sender, oldLockup, newLockup);\n    }\n\n    /**\n     * @dev Withdraw tokens from an expired lockup.\n     */\n    function withdraw() public {\n        Lockup memory oldLockup = Lockup({\n            end: lockups[msg.sender].end,\n            amount: lockups[msg.sender].amount\n        });\n        require(\n            block.timestamp >= oldLockup.end,\n            string(\n                bytes.concat(\n                    bytes(\"Lockup expires at \"),\n                    bytes(Strings.toString(oldLockup.end)),\n                    bytes(\", now is \"),\n                    bytes(Strings.toString(block.timestamp))\n                )\n            )\n        );\n\n        require(oldLockup.amount > 0, \"Lockup has no tokens\");\n\n        Lockup memory newLockup = Lockup({end: 0, amount: 0});\n        lockups[msg.sender] = newLockup;\n\n        uint256 amount = SafeCast.toUint256(oldLockup.amount);\n\n        stakingToken.safeTransfer(msg.sender, amount);\n\n        _writeUserCheckpoint(msg.sender, oldLockup, newLockup);\n\n        emit Withdraw(msg.sender, amount, block.timestamp);\n    }\n\n    /**\n     * @dev Public function to trigger global checkpoint\n     */\n    function checkpoint() external {\n        _writeGlobalCheckpoint(0, 0);\n    }\n\n    /**\n     * @dev Write user checkpoint. User checkpoints are used to calculate the\n     * users vote balance for current and historical blocks.\n     * @param _oldLockup Users lockup prior to the change that triggered the checkpoint\n     * @param _newLockup Users new lockup\n     */\n    function _writeUserCheckpoint(\n        address _account,\n        Lockup memory _oldLockup,\n        Lockup memory _newLockup\n    ) private returns (uint256 oldWeight, uint256 newWeight) {\n        Checkpoint memory oldCheckpoint;\n        Checkpoint memory newCheckpoint;\n\n        int128 oldSlopeDelta = 0;\n        int128 newSlopeDelta = 0;\n\n        if (_oldLockup.end > block.timestamp && _oldLockup.amount > 0) {\n            // Old checkpoint still active, calculates its slope and bias\n            oldCheckpoint.slope =\n                _oldLockup.amount /\n                SafeCast.toInt128(int256(MAX_LOCK_TIME));\n            oldCheckpoint.bias =\n                oldCheckpoint.slope *\n                SafeCast.toInt128(int256(_oldLockup.end - block.timestamp));\n        }\n        if (_newLockup.end > block.timestamp && _newLockup.amount > 0) {\n            // New lockup also active, calculate its slope and bias\n            newCheckpoint.slope =\n                _newLockup.amount /\n                SafeCast.toInt128(int256(MAX_LOCK_TIME));\n            newCheckpoint.bias =\n                newCheckpoint.slope *\n                SafeCast.toInt128(int256(_newLockup.end - block.timestamp));\n        }\n\n        uint256 userCurrentEpoch = userEpoch[_account];\n        if (userCurrentEpoch == 0) {\n            // First user epoch, push first checkpoint\n            _userCheckpoints[_account].push(oldCheckpoint);\n        }\n\n        newCheckpoint.ts = block.timestamp;\n        newCheckpoint.blk = block.number;\n        userEpoch[_account] = userCurrentEpoch + 1;\n        // Push second checkpoint\n        _userCheckpoints[_account].push(newCheckpoint);\n\n        oldSlopeDelta = slopeChanges[_oldLockup.end];\n        if (_newLockup.end != 0) {\n            if (_newLockup.end == _oldLockup.end) {\n                // Lockup dates are the same end time, slope delta is the same\n                newSlopeDelta = oldSlopeDelta;\n            } else {\n                newSlopeDelta = slopeChanges[_newLockup.end];\n            }\n        }\n\n        _writeGlobalCheckpoint(\n            newCheckpoint.slope - oldCheckpoint.slope,\n            newCheckpoint.bias - oldCheckpoint.bias\n        );\n\n        // Schedule the slope changes\n        if (_oldLockup.end > block.timestamp) {\n            // Old lockup has not expired yet, so this is an adjustment of the slope\n            // oldSlopeDelta was <something> - oldCheckpoint.slope, so we cancel that\n            oldSlopeDelta = oldSlopeDelta + oldCheckpoint.slope;\n            if (_newLockup.end == _oldLockup.end) {\n                // It was a new deposit, not extension\n                oldSlopeDelta = oldSlopeDelta - newCheckpoint.slope;\n            }\n            slopeChanges[_oldLockup.end] = oldSlopeDelta;\n        }\n        if (_newLockup.end > block.timestamp) {\n            if (_newLockup.end > _oldLockup.end) {\n                newSlopeDelta = newSlopeDelta - newCheckpoint.slope;\n                slopeChanges[_newLockup.end] = newSlopeDelta;\n            }\n        }\n    }\n\n    /**\n     * @dev Write a global checkpoints. Global checkpoints are used to calculate the\n     * total supply for current and historical blocks.\n     * @param userSlopeDelta Change in slope that triggered this checkpoint\n     * @param userBiasDelta Change in bias that triggered this checkpoint\n     */\n    function _writeGlobalCheckpoint(int128 userSlopeDelta, int128 userBiasDelta)\n        private\n        returns (Checkpoint memory lastCheckpoint)\n    {\n        if (globalEpoch > 0) {\n            lastCheckpoint = _globalCheckpoints[globalEpoch];\n        } else {\n            lastCheckpoint = Checkpoint({\n                bias: 0,\n                slope: 0,\n                ts: block.timestamp,\n                blk: block.number\n            });\n        }\n\n        Checkpoint memory initialLastCheckpoint = Checkpoint({\n            bias: 0,\n            slope: 0,\n            ts: lastCheckpoint.ts,\n            blk: lastCheckpoint.blk\n        });\n\n        uint256 blockSlope = 0; // dblock/dt\n        if (block.timestamp > lastCheckpoint.ts) {\n            // Scaled up\n            blockSlope =\n                ((block.number - lastCheckpoint.blk) * 1e18) /\n                (block.timestamp - lastCheckpoint.ts);\n        }\n\n        uint256 lastCheckpointTimestamp = lastCheckpoint.ts;\n        uint256 iterativeTime = _floorToWeek(lastCheckpointTimestamp);\n\n        for (uint256 i = 0; i < 255; i++) {\n            // 5 years\n            iterativeTime = iterativeTime + WEEK;\n\n            int128 slopeDelta = 0;\n            if (iterativeTime > block.timestamp) {\n                // Current epoch\n                iterativeTime = block.timestamp;\n            } else {\n                slopeDelta = slopeChanges[iterativeTime];\n            }\n\n            // Calculate the change in bias for the current epoch\n            int128 biasDelta = lastCheckpoint.slope *\n                SafeCast.toInt128(\n                    int256((iterativeTime - lastCheckpointTimestamp))\n                );\n\n            // The bias can be below 0\n            lastCheckpoint.bias = max(lastCheckpoint.bias - biasDelta, 0);\n            // The slope should never be below 0 but added for safety\n            lastCheckpoint.slope = max(lastCheckpoint.slope + slopeDelta, 0);\n            lastCheckpoint.ts = iterativeTime;\n            lastCheckpointTimestamp = iterativeTime;\n            lastCheckpoint.blk =\n                initialLastCheckpoint.blk +\n                ((blockSlope * (iterativeTime - initialLastCheckpoint.ts)) /\n                    1e18); // Scale back down\n\n            globalEpoch += 1;\n\n            if (iterativeTime == block.timestamp) {\n                lastCheckpoint.blk = block.number;\n                // Adjust the last checkpoint for any delta from the user\n                lastCheckpoint.slope = max(\n                    lastCheckpoint.slope + userSlopeDelta,\n                    0\n                );\n                lastCheckpoint.bias = max(\n                    lastCheckpoint.bias + userBiasDelta,\n                    0\n                );\n                _globalCheckpoints.push(lastCheckpoint);\n                break;\n            } else {\n                _globalCheckpoints.push(lastCheckpoint);\n            }\n        }\n    }\n\n    /**\n     * @param _block Find the most recent point history before this block\n     * @param _maxEpoch Maximum epoch\n     * @return uint256 The most recent epoch before the block\n     */\n    function _findEpoch(\n        Checkpoint[] memory _checkpoints,\n        uint256 _block,\n        uint256 _maxEpoch\n    ) internal view returns (uint256) {\n        uint256 minEpoch = 0;\n        uint256 maxEpoch = _maxEpoch;\n        for (uint256 i = 0; i < 128; i++) {\n            if (minEpoch >= maxEpoch) break;\n            uint256 mid = (minEpoch + maxEpoch + 1) / 2;\n            if (_checkpoints[mid].blk <= _block) {\n                minEpoch = mid;\n            } else {\n                maxEpoch = mid - 1;\n            }\n        }\n        return minEpoch;\n    }\n\n    /**\n     * @dev Retrieve the number of votes for `_account` at the end of `_blockNumber`.\n     *\n     * This method is required for compatibility with the OpenZeppelin governance ERC20Votes.\n     *\n     * Requirements:\n     *\n     * - `blockNumber` must have been already mined\n     */\n    function getPastVotes(address _account, uint256 _blockNumber)\n        public\n        view\n        returns (uint256)\n    {\n        return balanceOfAt(_account, _blockNumber);\n    }\n\n    /**\n     * @dev Gets a users votingWeight at a given blockNumber\n     * @param _account User for which to return the balance\n     * @param _blockNumber Block at which to calculate balance\n     * @return uint256 Balance of user\n     */\n    function balanceOfAt(address _account, uint256 _blockNumber)\n        public\n        view\n        returns (uint256)\n    {\n        require(_blockNumber <= block.number, \"Block number is in the future\");\n\n        // Get most recent user Checkpoint to block\n        uint256 recentUserEpoch = _findEpoch(\n            _userCheckpoints[_account],\n            _blockNumber,\n            userEpoch[_account] // Max epoch\n        );\n        if (recentUserEpoch == 0) {\n            return 0;\n        }\n        Checkpoint memory userPoint = _userCheckpoints[_account][\n            recentUserEpoch\n        ];\n\n        // Get most recent global Checkpoint to block\n        uint256 recentGlobalEpoch = _findEpoch(\n            _globalCheckpoints,\n            _blockNumber,\n            globalEpoch // Max epoch\n        );\n        Checkpoint memory checkpoint0 = _globalCheckpoints[recentGlobalEpoch];\n\n        // Calculate delta (block & time) between checkpoint and target block\n        // Allowing us to calculate the average seconds per block between\n        // the two points\n        uint256 dBlock = 0;\n        uint256 dTime = 0;\n        if (recentGlobalEpoch < globalEpoch) {\n            Checkpoint memory checkpoint1 = _globalCheckpoints[\n                recentGlobalEpoch + 1\n            ];\n            dBlock = checkpoint1.blk - checkpoint0.blk;\n            dTime = checkpoint1.ts - checkpoint0.ts;\n        } else {\n            dBlock = block.number - checkpoint0.blk;\n            dTime = block.timestamp - checkpoint0.ts;\n        }\n\n        // (Deterministically) Estimate the time at which block _blockNumber was mined\n        uint256 blockTime = checkpoint0.ts;\n        if (dBlock != 0) {\n            blockTime += (dTime * (_blockNumber - checkpoint0.blk)) / dBlock;\n        }\n\n        // Current Bias = most recent bias - (slope * time since update)\n        userPoint.bias -= (userPoint.slope *\n            SafeCast.toInt128(int256(blockTime - userPoint.ts)));\n        if (userPoint.bias >= 0) {\n            return SafeCast.toUint256(userPoint.bias);\n        } else {\n            return 0;\n        }\n    }\n\n    /**\n     * @dev Retrieve the `totalSupply` at the end of `blockNumber`.\n     *\n     * This method is required for compatibility with the OpenZeppelin governance ERC20Votes.\n     *\n     * Requirements:\n     *\n     * - `_blockNumber` must have been already mined\n     *\n     * @param _blockNumber Block at which to calculate total supply\n     * @return uint256 Total supply at the given block\n     */\n    function getPastTotalSupply(uint256 _blockNumber)\n        public\n        view\n        returns (uint256)\n    {\n        return totalSupplyAt(_blockNumber);\n    }\n\n    /**\n     * @dev Calculates total supply of votingWeight at a given blockNumber\n     * @param _blockNumber Block number at which to calculate total supply\n     * @return totalSupply of voting token weight at the given blockNumber\n     */\n    function totalSupplyAt(uint256 _blockNumber) public view returns (uint256) {\n        require(_blockNumber <= block.number, \"Block number is in the future\");\n\n        // Get most recent global Checkpoint to block\n        uint256 recentGlobalEpoch = _findEpoch(\n            _globalCheckpoints,\n            _blockNumber,\n            globalEpoch\n        );\n\n        Checkpoint memory checkpoint0 = _globalCheckpoints[recentGlobalEpoch];\n\n        if (checkpoint0.blk > _blockNumber) {\n            return 0;\n        }\n\n        uint256 dTime = 0;\n        if (recentGlobalEpoch < globalEpoch) {\n            Checkpoint memory checkpoint1 = _globalCheckpoints[\n                recentGlobalEpoch + 1\n            ];\n            if (checkpoint0.blk != checkpoint1.blk) {\n                dTime =\n                    ((_blockNumber - checkpoint0.blk) *\n                        (checkpoint1.ts - checkpoint0.ts)) /\n                    (checkpoint1.blk - checkpoint0.blk);\n            }\n        } else if (checkpoint0.blk != block.number) {\n            dTime =\n                ((_blockNumber - checkpoint0.blk) *\n                    (block.timestamp - checkpoint0.ts)) /\n                (block.number - checkpoint0.blk);\n        }\n        // Now dTime contains info on how far are we beyond point\n\n        return _supplyAt(checkpoint0, checkpoint0.ts + dTime);\n    }\n\n    /**\n     * @dev Calculates total supply of votingWeight at a given time _t\n     * @param _checkpoint Most recent point before time _t\n     * @param _time Time at which to calculate supply\n     * @return totalSupply at given point in time\n     */\n    function _supplyAt(Checkpoint memory _checkpoint, uint256 _time)\n        internal\n        view\n        returns (uint256)\n    {\n        Checkpoint memory lastCheckpoint = _checkpoint;\n\n        // Floor the timestamp to weekly interval\n        uint256 iterativeTime = _floorToWeek(lastCheckpoint.ts);\n        // Iterate through all weeks between _checkpoint & _time to account for slope changes\n        for (uint256 i = 0; i < 255; i++) {\n            iterativeTime = iterativeTime + WEEK;\n            int128 dSlope = 0;\n            // If week end is after timestamp, then truncate & leave dSlope to 0\n            if (iterativeTime > _time) {\n                iterativeTime = _time;\n            }\n            // else get most recent slope change\n            else {\n                dSlope = slopeChanges[iterativeTime];\n            }\n\n            lastCheckpoint.bias =\n                lastCheckpoint.bias -\n                (lastCheckpoint.slope *\n                    SafeCast.toInt128(\n                        int256(iterativeTime - lastCheckpoint.ts)\n                    ));\n\n            if (iterativeTime == _time) {\n                break;\n            }\n\n            lastCheckpoint.slope = lastCheckpoint.slope + dSlope;\n            lastCheckpoint.ts = iterativeTime;\n        }\n\n        return SafeCast.toUint256(max(lastCheckpoint.bias, 0));\n    }\n\n    /**\n     * @dev Floors a timestamp to the nearest weekly increment\n     * @param _t Timestamp to floor\n     * @return uint256 Timestamp floored to nearest weekly increment\n     */\n    function _floorToWeek(uint256 _t) internal pure returns (uint256) {\n        return (_t / WEEK) * WEEK;\n    }\n\n    /**\n     * @dev Returns the largest of two numbers.\n     * @param _a First number\n     * @param _b Second number\n     * @return Largest of _a and _b\n     */\n    function max(uint256 _a, uint256 _b) internal pure returns (uint256) {\n        return _a >= _b ? _a : _b;\n    }\n\n    /**\n     * @dev Returns the smallest of two numbers.\n     * @param _a First number\n     * @param _b Second number\n     * @return Smallest of _a and _b\n     */\n    function max(int128 _a, int128 _b) internal pure returns (int128) {\n        return _a >= _b ? _a : _b;\n    }\n}\n",
  "sourcePath": "contracts/VoteLockerCurve.sol",
  "type": "contract"
}