{
  "abi": [
    {
      "inputs": [
        {
          "internalType": "address",
          "name": "_stakingToken",
          "type": "address"
        }
      ],
      "stateMutability": "nonpayable",
      "type": "constructor"
    },
    {
      "inputs": [],
      "name": "MAX_LOCK_TIME",
      "outputs": [
        {
          "internalType": "uint256",
          "name": "",
          "type": "uint256"
        }
      ],
      "stateMutability": "view",
      "type": "function"
    },
    {
      "inputs": [],
      "name": "MAX_VOTE_MULTIPLE",
      "outputs": [
        {
          "internalType": "uint256",
          "name": "",
          "type": "uint256"
        }
      ],
      "stateMutability": "view",
      "type": "function"
    },
    {
      "inputs": [],
      "name": "MIN_LOCK_TIME",
      "outputs": [
        {
          "internalType": "uint256",
          "name": "",
          "type": "uint256"
        }
      ],
      "stateMutability": "view",
      "type": "function"
    },
    {
      "inputs": [
        {
          "internalType": "address",
          "name": "_account",
          "type": "address"
        }
      ],
      "name": "balanceOf",
      "outputs": [
        {
          "internalType": "uint256",
          "name": "",
          "type": "uint256"
        }
      ],
      "stateMutability": "view",
      "type": "function"
    },
    {
      "inputs": [
        {
          "internalType": "address",
          "name": "account",
          "type": "address"
        },
        {
          "internalType": "uint32",
          "name": "pos",
          "type": "uint32"
        }
      ],
      "name": "checkpoints",
      "outputs": [
        {
          "components": [
            {
              "internalType": "uint32",
              "name": "fromBlock",
              "type": "uint32"
            },
            {
              "internalType": "uint224",
              "name": "votes",
              "type": "uint224"
            }
          ],
          "internalType": "struct VoteLocker.Checkpoint",
          "name": "",
          "type": "tuple"
        }
      ],
      "stateMutability": "view",
      "type": "function"
    },
    {
      "inputs": [],
      "name": "decimals",
      "outputs": [
        {
          "internalType": "uint8",
          "name": "",
          "type": "uint8"
        }
      ],
      "stateMutability": "view",
      "type": "function"
    },
    {
      "inputs": [
        {
          "internalType": "address",
          "name": "delegatee",
          "type": "address"
        }
      ],
      "name": "delegate",
      "outputs": [],
      "stateMutability": "nonpayable",
      "type": "function"
    },
    {
      "inputs": [
        {
          "internalType": "address",
          "name": "delegatee",
          "type": "address"
        },
        {
          "internalType": "uint256",
          "name": "nonce",
          "type": "uint256"
        },
        {
          "internalType": "uint256",
          "name": "expiry",
          "type": "uint256"
        },
        {
          "internalType": "uint8",
          "name": "v",
          "type": "uint8"
        },
        {
          "internalType": "bytes32",
          "name": "r",
          "type": "bytes32"
        },
        {
          "internalType": "bytes32",
          "name": "s",
          "type": "bytes32"
        }
      ],
      "name": "delegateBySig",
      "outputs": [],
      "stateMutability": "nonpayable",
      "type": "function"
    },
    {
      "inputs": [
        {
          "internalType": "address",
          "name": "account",
          "type": "address"
        }
      ],
      "name": "delegates",
      "outputs": [
        {
          "internalType": "address",
          "name": "",
          "type": "address"
        }
      ],
      "stateMutability": "view",
      "type": "function"
    },
    {
      "inputs": [
        {
          "internalType": "uint256",
          "name": "amount",
          "type": "uint256"
        },
        {
          "internalType": "uint256",
          "name": "expiry",
          "type": "uint256"
        }
      ],
      "name": "deposit",
      "outputs": [],
      "stateMutability": "nonpayable",
      "type": "function"
    },
    {
      "inputs": [
        {
          "internalType": "uint256",
          "name": "blockNumber",
          "type": "uint256"
        }
      ],
      "name": "getPastTotalSupply",
      "outputs": [
        {
          "internalType": "uint256",
          "name": "",
          "type": "uint256"
        }
      ],
      "stateMutability": "view",
      "type": "function"
    },
    {
      "inputs": [
        {
          "internalType": "address",
          "name": "account",
          "type": "address"
        },
        {
          "internalType": "uint256",
          "name": "blockNumber",
          "type": "uint256"
        }
      ],
      "name": "getPastVotes",
      "outputs": [
        {
          "internalType": "uint256",
          "name": "",
          "type": "uint256"
        }
      ],
      "stateMutability": "view",
      "type": "function"
    },
    {
      "inputs": [
        {
          "internalType": "address",
          "name": "account",
          "type": "address"
        }
      ],
      "name": "getVotes",
      "outputs": [
        {
          "internalType": "uint256",
          "name": "",
          "type": "uint256"
        }
      ],
      "stateMutability": "view",
      "type": "function"
    },
    {
      "inputs": [],
      "name": "name",
      "outputs": [
        {
          "internalType": "string",
          "name": "",
          "type": "string"
        }
      ],
      "stateMutability": "view",
      "type": "function"
    },
    {
      "inputs": [
        {
          "internalType": "address",
          "name": "account",
          "type": "address"
        }
      ],
      "name": "numCheckpoints",
      "outputs": [
        {
          "internalType": "uint32",
          "name": "",
          "type": "uint32"
        }
      ],
      "stateMutability": "view",
      "type": "function"
    },
    {
      "inputs": [],
      "name": "stakingToken",
      "outputs": [
        {
          "internalType": "contract ERC20",
          "name": "",
          "type": "address"
        }
      ],
      "stateMutability": "view",
      "type": "function"
    },
    {
      "inputs": [],
      "name": "symbol",
      "outputs": [
        {
          "internalType": "string",
          "name": "",
          "type": "string"
        }
      ],
      "stateMutability": "view",
      "type": "function"
    },
    {
      "inputs": [],
      "name": "totalSupply",
      "outputs": [
        {
          "internalType": "uint256",
          "name": "",
          "type": "uint256"
        }
      ],
      "stateMutability": "view",
      "type": "function"
    },
    {
      "inputs": [
        {
          "internalType": "uint256",
          "name": "amount",
          "type": "uint256"
        }
      ],
      "name": "withdraw",
      "outputs": [],
      "stateMutability": "nonpayable",
      "type": "function"
    }
  ],
  "bytecode": "60806040523480156200001157600080fd5b506040516200184e3803806200184e833981016040819052620000349162000321565b600680546001600160a01b0319166001600160a01b038316908117909155604080518082018252600b81526a159bdd1948131bd8dad95960aa1b602082015281516306fdde0360e01b815291519092916306fdde039160048083019260009291908290030181865afa158015620000af573d6000803e3d6000fd5b505050506040513d6000823e601f3d908101601f19168201604052620000d991908101906200039c565b604051602001620000ec92919062000454565b60405160208183030381529060405260009080519060200190620001129291906200027b565b50604051806040016040528060028152602001611d9b60f21b815250600660009054906101000a90046001600160a01b03166001600160a01b03166395d89b416040518163ffffffff1660e01b8152600401600060405180830381865afa15801562000182573d6000803e3d6000fd5b505050506040513d6000823e601f3d908101601f19168201604052620001ac91908101906200039c565b604051602001620001bf92919062000494565b60405160208183030381529060405260019080519060200190620001e59291906200027b565b50600660009054906101000a90046001600160a01b03166001600160a01b031663313ce5676040518163ffffffff1660e01b8152600401602060405180830381865afa1580156200023a573d6000803e3d6000fd5b505050506040513d601f19601f82011682018060405250810190620002609190620004c7565b6002805460ff191660ff929092169190911790555062000529565b8280546200028990620004ec565b90600052602060002090601f016020900481019282620002ad5760008555620002f8565b82601f10620002c857805160ff1916838001178555620002f8565b82800160010185558215620002f8579182015b82811115620002f8578251825591602001919060010190620002db565b50620003069291506200030a565b5090565b5b808211156200030657600081556001016200030b565b6000602082840312156200033457600080fd5b81516001600160a01b03811681146200034c57600080fd5b9392505050565b634e487b7160e01b600052604160045260246000fd5b60005b83811015620003865781810151838201526020016200036c565b8381111562000396576000848401525b50505050565b600060208284031215620003af57600080fd5b81516001600160401b0380821115620003c757600080fd5b818401915084601f830112620003dc57600080fd5b815181811115620003f157620003f162000353565b604051601f8201601f19908116603f011681019083821181831017156200041c576200041c62000353565b816040528281528760208487010111156200043657600080fd5b6200044983602083016020880162000369565b979650505050505050565b600083516200046881846020880162000369565b600160fd1b90830190815283516200048881600184016020880162000369565b01600101949350505050565b60008351620004a881846020880162000369565b835190830190620004be81836020880162000369565b01949350505050565b600060208284031215620004da57600080fd5b815160ff811681146200034c57600080fd5b600181811c908216806200050157607f821691505b602082108114156200052357634e487b7160e01b600052602260045260246000fd5b50919050565b61131580620005396000396000f3fe608060405234801561001057600080fd5b50600436106101215760003560e01c806370a08231116100ad5780639ab24eb0116100715780639ab24eb014610251578063c3cda52014610264578063e2bbb15814610277578063f1127ed81461028a578063fa78668f146102c757600080fd5b806370a082311461020857806372f702f31461021b5780638e539e8c1461022e5780639497497a1461024157806395d89b411461024957600080fd5b80633a46b1a8116100f45780633a46b1a8146101845780633ff0320714610197578063587cde1e146101a15780635c19a95c146101cd5780636fcfff45146101e057600080fd5b806306fdde031461012657806318160ddd146101445780632e1a7d4d1461015a578063313ce5671461016f575b600080fd5b61012e6102d2565b60405161013b9190611002565b60405180910390f35b61014c610364565b60405190815260200161013b565b61016d610168366004611057565b6103b6565b005b60025460405160ff909116815260200161013b565b61014c61019236600461108c565b610628565b61014c62093a8081565b6101b56101af3660046110b6565b50600090565b6040516001600160a01b03909116815260200161013b565b61016d6101db3660046110b6565b6106a2565b6101f36101ee3660046110b6565b6106ea565b60405163ffffffff909116815260200161013b565b61014c6102163660046110b6565b610712565b6006546101b5906001600160a01b031681565b61014c61023c366004611057565b61071d565b61014c600481565b61012e610779565b61014c61025f3660046110b6565b610788565b61016d6102723660046110d1565b61080f565b61016d610285366004611131565b610868565b61029d610298366004611153565b610b60565b60408051825163ffffffff1681526020928301516001600160e01b0316928101929092520161013b565b61014c630784ce0081565b6060600080546102e190611193565b80601f016020809104026020016040519081016040528092919081815260200182805461030d90611193565b801561035a5780601f1061032f5761010080835404028352916020019161035a565b820191906000526020600020905b81548152906001019060200180831161033d57829003601f168201915b5050505050905090565b6005546000906103745750600090565b60058054610384906001906111e4565b81548110610394576103946111fb565b60009182526020909120015464010000000090046001600160e01b0316919050565b6000811161040b5760405162461bcd60e51b815260206004820152601d60248201527f416d6f756e74206d7573742062652067726561746572207468616e203000000060448201526064015b60405180910390fd5b336000908152600460209081526040918290208251608081018452815460ff16151581526001820154928101929092526002810154928201929092526003909101546001600160e01b0316606082018190526104a05760405162461bcd60e51b81526020600482015260146024820152734e6f207374616b6520746f20776974686472617760601b6044820152606401610402565b42816040015111156104e95760405162461bcd60e51b8152602060048201526012602482015271131bd8dadd5c081b9bdd08195e1c1a5c995960721b6044820152606401610402565b600061050b82606001516001600160e01b031683604001518460200151610be4565b9050600061054261051b85610c34565b846060015161052a9190611211565b6001600160e01b031684604001518560200151610be4565b905061054d84610c34565b8360600181815161055e9190611211565b6001600160e01b031690525083156105e75760065460405163a9059cbb60e01b8152336004820152602481018690526001600160a01b039091169063a9059cbb906044016020604051808303816000875af11580156105c1573d6000803e3d6000fd5b505050506040513d601f19601f820116820180604052508101906105e59190611239565b505b33600090815260036020526040902061060c90610ca161060784866111e4565b610cad565b5061062290503361061d83856111e4565b610e26565b50505050565b60004382106106795760405162461bcd60e51b815260206004820152601f60248201527f566f74654c6f636b65723a20626c6f636b206e6f7420796574206d696e6564006044820152606401610402565b6001600160a01b038316600090815260036020526040902061069b9083610e34565b9392505050565b60405162461bcd60e51b815260206004820152601b60248201527f44656c65676174696f6e206973206e6f7420737570706f7274656400000000006044820152606401610402565b6001600160a01b03811660009081526003602052604081205461070c90610ef1565b92915050565b600061070c82610788565b600043821061076e5760405162461bcd60e51b815260206004820152601f60248201527f566f74654c6f636b65723a20626c6f636b206e6f7420796574206d696e6564006044820152606401610402565b61070c600583610e34565b6060600180546102e190611193565b6001600160a01b03811660009081526003602052604081205480156107fc576001600160a01b03831660009081526003602052604090206107ca6001836111e4565b815481106107da576107da6111fb565b60009182526020909120015464010000000090046001600160e01b03166107ff565b60005b6001600160e01b03169392505050565b60405162461bcd60e51b815260206004820152602860248201527f44656c65676174696f6e206279207369676e6174757265206973206e6f7420736044820152671d5c1c1bdc9d195960c21b6064820152608401610402565b4281116108b75760405162461bcd60e51b815260206004820152601c60248201527f457870697279206d75737420626520696e2074686520667574757265000000006044820152606401610402565b6108c5630784ce004261125b565b8111156109265760405162461bcd60e51b815260206004820152602960248201527f457870697279206d757374206265206265666f7265206d6178696d756d206c6f604482015268636b75702074696d6560b81b6064820152608401610402565b61093362093a804261125b565b8110156109935760405162461bcd60e51b815260206004820152602860248201527f457870697279206d757374206265206166746572206d696e696d756d206c6f636044820152676b75702074696d6560c01b6064820152608401610402565b3360009081526004602052604081205460ff166109b15760006109e6565b336000908152600460205260409020600381015460028201546001909201546109e6926001600160e01b039092169190610be4565b90506040518060800160405280600115158152602001428152602001838152602001610a1185610c34565b33600090815260046020526040902060030154610a3791906001600160e01b0316611273565b6001600160e01b039081169091523360009081526004602090815260408083208551815460ff191690151517815591850151600183015584015160028201819055606090940151600390910180546001600160e01b0319169190931690811790925591610aa5919042610be4565b90508315610b2a576006546040516323b872dd60e01b8152336004820152306024820152604481018690526001600160a01b03909116906323b872dd906064016020604051808303816000875af1158015610b04573d6000803e3d6000fd5b505050506040513d601f19601f82011682018060405250810190610b289190611239565b505b336000908152600360205260409020610b4a90610ca161060785856111e4565b50610622905033610b5b84846111e4565b610f56565b60408051808201909152600080825260208201526001600160a01b0383166000908152600360205260409020805463ffffffff8416908110610ba457610ba46111fb565b60009182526020918290206040805180820190915291015463ffffffff8116825264010000000090046001600160e01b0316918101919091529392505050565b600080630784ce0085610bf9600160046111e4565b610c0386886111e4565b610c0d919061129e565b610c17919061129e565b610c2191906112bd565b610c2b908661125b565b95945050505050565b60006001600160e01b03821115610c9d5760405162461bcd60e51b815260206004820152602760248201527f53616665436173743a2076616c756520646f65736e27742066697420696e20326044820152663234206269747360c81b6064820152608401610402565b5090565b600061069b828461125b565b825460009081908015610cf85785610cc66001836111e4565b81548110610cd657610cd66111fb565b60009182526020909120015464010000000090046001600160e01b0316610cfb565b60005b6001600160e01b03169250610d1483858763ffffffff16565b9150600081118015610d5257504386610d2e6001846111e4565b81548110610d3e57610d3e6111fb565b60009182526020909120015463ffffffff16145b15610db257610d6082610c34565b86610d6c6001846111e4565b81548110610d7c57610d7c6111fb565b9060005260206000200160000160046101000a8154816001600160e01b0302191690836001600160e01b03160217905550610e1d565b856040518060400160405280610dc743610ef1565b63ffffffff168152602001610ddb85610c34565b6001600160e01b0390811690915282546001810184556000938452602093849020835194909301519091166401000000000263ffffffff909316929092179101555b50935093915050565b6106226005610fdb83610cad565b8154600090815b81811015610e98576000610e4f8284610fe7565b905084868281548110610e6457610e646111fb565b60009182526020909120015463ffffffff161115610e8457809250610e92565b610e8f81600161125b565b91505b50610e3b565b8115610edc5784610eaa6001846111e4565b81548110610eba57610eba6111fb565b60009182526020909120015464010000000090046001600160e01b0316610edf565b60005b6001600160e01b031695945050505050565b600063ffffffff821115610c9d5760405162461bcd60e51b815260206004820152602660248201527f53616665436173743a2076616c756520646f65736e27742066697420696e203360448201526532206269747360d01b6064820152608401610402565b6001600160e01b03610f66610364565b1115610fcd5760405162461bcd60e51b815260206004820152603060248201527f566f74654c6f636b65723a20746f74616c20737570706c79207269736b73206f60448201526f766572666c6f77696e6720766f74657360801b6064820152608401610402565b6106226005610ca183610cad565b600061069b82846111e4565b6000610ff660028484186112bd565b61069b9084841661125b565b600060208083528351808285015260005b8181101561102f57858101830151858201604001528201611013565b81811115611041576000604083870101525b50601f01601f1916929092016040019392505050565b60006020828403121561106957600080fd5b5035919050565b80356001600160a01b038116811461108757600080fd5b919050565b6000806040838503121561109f57600080fd5b6110a883611070565b946020939093013593505050565b6000602082840312156110c857600080fd5b61069b82611070565b60008060008060008060c087890312156110ea57600080fd5b6110f387611070565b95506020870135945060408701359350606087013560ff8116811461111757600080fd5b9598949750929560808101359460a0909101359350915050565b6000806040838503121561114457600080fd5b50508035926020909101359150565b6000806040838503121561116657600080fd5b61116f83611070565b9150602083013563ffffffff8116811461118857600080fd5b809150509250929050565b600181811c908216806111a757607f821691505b602082108114156111c857634e487b7160e01b600052602260045260246000fd5b50919050565b634e487b7160e01b600052601160045260246000fd5b6000828210156111f6576111f66111ce565b500390565b634e487b7160e01b600052603260045260246000fd5b60006001600160e01b0383811690831681811015611231576112316111ce565b039392505050565b60006020828403121561124b57600080fd5b8151801515811461069b57600080fd5b6000821982111561126e5761126e6111ce565b500190565b60006001600160e01b03828116848216808303821115611295576112956111ce565b01949350505050565b60008160001904831182151516156112b8576112b86111ce565b500290565b6000826112da57634e487b7160e01b600052601260045260246000fd5b50049056fea264697066735822122079d1ade328cd8def03261e6b1e6e07799f4124acf5daebe0d2c82d690ceefcf964736f6c634300080b0033",
  "bytecodeSha1": "2404997de819999c62a4a99e26abc22de48b6c67",
  "compiler": {
    "evm_version": "istanbul",
    "optimizer": {
      "enabled": true,
      "runs": 200
    },
    "version": "0.8.11+commit.d7f03943"
  },
  "contractName": "VoteLocker",
  "language": "Solidity",
  "natspec": {
    "kind": "dev",
    "methods": {
      "MAX_LOCK_TIME()": {
        "notice": "Maximum lock time"
      },
      "MAX_VOTE_MULTIPLE()": {
        "notice": "Vote boost if locked for maximum duration"
      },
      "MIN_LOCK_TIME()": {
        "notice": "Minimum lock time"
      },
      "balanceOf(address)": {
        "details": "See {ERC20-balanceOf}."
      },
      "checkpoints(address,uint32)": {
        "details": "Get the `pos`-th checkpoint for `account`."
      },
      "decimals()": {
        "details": "Returns the number of decimals used to get its user representation. For example, if `decimals` equals `2`, a balance of `505` tokens should be displayed to a user as `5.05` (`505 / 10 ** 2`). Tokens usually opt for a value of 18, imitating the relationship between Ether and Wei. This is the value {ERC20} uses, unless this function is overridden;"
      },
      "delegate(address)": {
        "details": "Delegate votes from the sender to `delegatee`."
      },
      "delegateBySig(address,uint256,uint256,uint8,bytes32,bytes32)": {
        "details": "Delegates votes from signer to `delegatee`"
      },
      "delegates(address)": {
        "details": "Get the address `account` is currently delegating to."
      },
      "deposit(uint256,uint256)": {
        "details": "Deposits staking token and mints new tokens according to the MAX_VOTE_MULTIPLE and _expiry parameters."
      },
      "getPastTotalSupply(uint256)": {
        "details": "Retrieve the `totalSupply` at the end of `blockNumber`. Note, this value is the sum of all balances. Requirements: - `blockNumber` must have been already mined"
      },
      "getPastVotes(address,uint256)": {
        "details": "Retrieve the number of votes for `account` at the end of `blockNumber`. Requirements: - `blockNumber` must have been already mined"
      },
      "getVotes(address)": {
        "details": "Gets the current votes balance for `account`"
      },
      "name()": {
        "details": "Returns the name of the token."
      },
      "numCheckpoints(address)": {
        "details": "Get number of checkpoints for `account`."
      },
      "stakingToken()": {
        "notice": "Token used for creating lockups"
      },
      "symbol()": {
        "details": "Returns the symbol of the token, usually a shorter version of the name."
      },
      "totalSupply()": {
        "details": "See {ERC20-totalSupply}."
      },
      "withdraw(uint256)": {
        "details": "Withdraw tokens from an expired lockup."
      }
    },
    "notice": "VoteLocker is smart contract that supports locking up of a staking token for increased         governance voting power. It is largely based on the ERC20Votes contract from openzeppelin         with some modificaitons to allow it to support lockups/vote boosting. - Voting power is determined by stake amount and lockup duration. - Implements a subset of the ERC20 standard (no transfers, allowance, etc.) - Implements the interfaces required by OpenZeppelin 4.x governance (VoteLocker) stack and exposes   the amount of votes a user has and total votes through standard ERC20 balanceOf/totalSupply   getters. - Removes vote delegation. TODO resolve issues with extending lockup expiry and fromTimestamp TODO vote boost never goes away after expiry ;(",
    "title": "VoteLocker",
    "version": 1
  },
  "opcodes": "PUSH1 0x80 PUSH1 0x40 MSTORE CALLVALUE DUP1 ISZERO PUSH2 0x10 JUMPI PUSH1 0x0 DUP1 REVERT JUMPDEST POP PUSH1 0x4 CALLDATASIZE LT PUSH2 0x121 JUMPI PUSH1 0x0 CALLDATALOAD PUSH1 0xE0 SHR DUP1 PUSH4 0x70A08231 GT PUSH2 0xAD JUMPI DUP1 PUSH4 0x9AB24EB0 GT PUSH2 0x71 JUMPI DUP1 PUSH4 0x9AB24EB0 EQ PUSH2 0x251 JUMPI DUP1 PUSH4 0xC3CDA520 EQ PUSH2 0x264 JUMPI DUP1 PUSH4 0xE2BBB158 EQ PUSH2 0x277 JUMPI DUP1 PUSH4 0xF1127ED8 EQ PUSH2 0x28A JUMPI DUP1 PUSH4 0xFA78668F EQ PUSH2 0x2C7 JUMPI PUSH1 0x0 DUP1 REVERT JUMPDEST DUP1 PUSH4 0x70A08231 EQ PUSH2 0x208 JUMPI DUP1 PUSH4 0x72F702F3 EQ PUSH2 0x21B JUMPI DUP1 PUSH4 0x8E539E8C EQ PUSH2 0x22E JUMPI DUP1 PUSH4 0x9497497A EQ PUSH2 0x241 JUMPI DUP1 PUSH4 0x95D89B41 EQ PUSH2 0x249 JUMPI PUSH1 0x0 DUP1 REVERT JUMPDEST DUP1 PUSH4 0x3A46B1A8 GT PUSH2 0xF4 JUMPI DUP1 PUSH4 0x3A46B1A8 EQ PUSH2 0x184 JUMPI DUP1 PUSH4 0x3FF03207 EQ PUSH2 0x197 JUMPI DUP1 PUSH4 0x587CDE1E EQ PUSH2 0x1A1 JUMPI DUP1 PUSH4 0x5C19A95C EQ PUSH2 0x1CD JUMPI DUP1 PUSH4 0x6FCFFF45 EQ PUSH2 0x1E0 JUMPI PUSH1 0x0 DUP1 REVERT JUMPDEST DUP1 PUSH4 0x6FDDE03 EQ PUSH2 0x126 JUMPI DUP1 PUSH4 0x18160DDD EQ PUSH2 0x144 JUMPI DUP1 PUSH4 0x2E1A7D4D EQ PUSH2 0x15A JUMPI DUP1 PUSH4 0x313CE567 EQ PUSH2 0x16F JUMPI JUMPDEST PUSH1 0x0 DUP1 REVERT JUMPDEST PUSH2 0x12E PUSH2 0x2D2 JUMP JUMPDEST PUSH1 0x40 MLOAD PUSH2 0x13B SWAP2 SWAP1 PUSH2 0x1002 JUMP JUMPDEST PUSH1 0x40 MLOAD DUP1 SWAP2 SUB SWAP1 RETURN JUMPDEST PUSH2 0x14C PUSH2 0x364 JUMP JUMPDEST PUSH1 0x40 MLOAD SWAP1 DUP2 MSTORE PUSH1 0x20 ADD PUSH2 0x13B JUMP JUMPDEST PUSH2 0x16D PUSH2 0x168 CALLDATASIZE PUSH1 0x4 PUSH2 0x1057 JUMP JUMPDEST PUSH2 0x3B6 JUMP JUMPDEST STOP JUMPDEST PUSH1 0x2 SLOAD PUSH1 0x40 MLOAD PUSH1 0xFF SWAP1 SWAP2 AND DUP2 MSTORE PUSH1 0x20 ADD PUSH2 0x13B JUMP JUMPDEST PUSH2 0x14C PUSH2 0x192 CALLDATASIZE PUSH1 0x4 PUSH2 0x108C JUMP JUMPDEST PUSH2 0x628 JUMP JUMPDEST PUSH2 0x14C PUSH3 0x93A80 DUP2 JUMP JUMPDEST PUSH2 0x1B5 PUSH2 0x1AF CALLDATASIZE PUSH1 0x4 PUSH2 0x10B6 JUMP JUMPDEST POP PUSH1 0x0 SWAP1 JUMP JUMPDEST PUSH1 0x40 MLOAD PUSH1 0x1 PUSH1 0x1 PUSH1 0xA0 SHL SUB SWAP1 SWAP2 AND DUP2 MSTORE PUSH1 0x20 ADD PUSH2 0x13B JUMP JUMPDEST PUSH2 0x16D PUSH2 0x1DB CALLDATASIZE PUSH1 0x4 PUSH2 0x10B6 JUMP JUMPDEST PUSH2 0x6A2 JUMP JUMPDEST PUSH2 0x1F3 PUSH2 0x1EE CALLDATASIZE PUSH1 0x4 PUSH2 0x10B6 JUMP JUMPDEST PUSH2 0x6EA JUMP JUMPDEST PUSH1 0x40 MLOAD PUSH4 0xFFFFFFFF SWAP1 SWAP2 AND DUP2 MSTORE PUSH1 0x20 ADD PUSH2 0x13B JUMP JUMPDEST PUSH2 0x14C PUSH2 0x216 CALLDATASIZE PUSH1 0x4 PUSH2 0x10B6 JUMP JUMPDEST PUSH2 0x712 JUMP JUMPDEST PUSH1 0x6 SLOAD PUSH2 0x1B5 SWAP1 PUSH1 0x1 PUSH1 0x1 PUSH1 0xA0 SHL SUB AND DUP2 JUMP JUMPDEST PUSH2 0x14C PUSH2 0x23C CALLDATASIZE PUSH1 0x4 PUSH2 0x1057 JUMP JUMPDEST PUSH2 0x71D JUMP JUMPDEST PUSH2 0x14C PUSH1 0x4 DUP2 JUMP JUMPDEST PUSH2 0x12E PUSH2 0x779 JUMP JUMPDEST PUSH2 0x14C PUSH2 0x25F CALLDATASIZE PUSH1 0x4 PUSH2 0x10B6 JUMP JUMPDEST PUSH2 0x788 JUMP JUMPDEST PUSH2 0x16D PUSH2 0x272 CALLDATASIZE PUSH1 0x4 PUSH2 0x10D1 JUMP JUMPDEST PUSH2 0x80F JUMP JUMPDEST PUSH2 0x16D PUSH2 0x285 CALLDATASIZE PUSH1 0x4 PUSH2 0x1131 JUMP JUMPDEST PUSH2 0x868 JUMP JUMPDEST PUSH2 0x29D PUSH2 0x298 CALLDATASIZE PUSH1 0x4 PUSH2 0x1153 JUMP JUMPDEST PUSH2 0xB60 JUMP JUMPDEST PUSH1 0x40 DUP1 MLOAD DUP3 MLOAD PUSH4 0xFFFFFFFF AND DUP2 MSTORE PUSH1 0x20 SWAP3 DUP4 ADD MLOAD PUSH1 0x1 PUSH1 0x1 PUSH1 0xE0 SHL SUB AND SWAP3 DUP2 ADD SWAP3 SWAP1 SWAP3 MSTORE ADD PUSH2 0x13B JUMP JUMPDEST PUSH2 0x14C PUSH4 0x784CE00 DUP2 JUMP JUMPDEST PUSH1 0x60 PUSH1 0x0 DUP1 SLOAD PUSH2 0x2E1 SWAP1 PUSH2 0x1193 JUMP JUMPDEST DUP1 PUSH1 0x1F ADD PUSH1 0x20 DUP1 SWAP2 DIV MUL PUSH1 0x20 ADD PUSH1 0x40 MLOAD SWAP1 DUP2 ADD PUSH1 0x40 MSTORE DUP1 SWAP3 SWAP2 SWAP1 DUP2 DUP2 MSTORE PUSH1 0x20 ADD DUP3 DUP1 SLOAD PUSH2 0x30D SWAP1 PUSH2 0x1193 JUMP JUMPDEST DUP1 ISZERO PUSH2 0x35A JUMPI DUP1 PUSH1 0x1F LT PUSH2 0x32F JUMPI PUSH2 0x100 DUP1 DUP4 SLOAD DIV MUL DUP4 MSTORE SWAP2 PUSH1 0x20 ADD SWAP2 PUSH2 0x35A JUMP JUMPDEST DUP3 ADD SWAP2 SWAP1 PUSH1 0x0 MSTORE PUSH1 0x20 PUSH1 0x0 KECCAK256 SWAP1 JUMPDEST DUP2 SLOAD DUP2 MSTORE SWAP1 PUSH1 0x1 ADD SWAP1 PUSH1 0x20 ADD DUP1 DUP4 GT PUSH2 0x33D JUMPI DUP3 SWAP1 SUB PUSH1 0x1F AND DUP3 ADD SWAP2 JUMPDEST POP POP POP POP POP SWAP1 POP SWAP1 JUMP JUMPDEST PUSH1 0x5 SLOAD PUSH1 0x0 SWAP1 PUSH2 0x374 JUMPI POP PUSH1 0x0 SWAP1 JUMP JUMPDEST PUSH1 0x5 DUP1 SLOAD PUSH2 0x384 SWAP1 PUSH1 0x1 SWAP1 PUSH2 0x11E4 JUMP JUMPDEST DUP2 SLOAD DUP2 LT PUSH2 0x394 JUMPI PUSH2 0x394 PUSH2 0x11FB JUMP JUMPDEST PUSH1 0x0 SWAP2 DUP3 MSTORE PUSH1 0x20 SWAP1 SWAP2 KECCAK256 ADD SLOAD PUSH5 0x100000000 SWAP1 DIV PUSH1 0x1 PUSH1 0x1 PUSH1 0xE0 SHL SUB AND SWAP2 SWAP1 POP JUMP JUMPDEST PUSH1 0x0 DUP2 GT PUSH2 0x40B JUMPI PUSH1 0x40 MLOAD PUSH3 0x461BCD PUSH1 0xE5 SHL DUP2 MSTORE PUSH1 0x20 PUSH1 0x4 DUP3 ADD MSTORE PUSH1 0x1D PUSH1 0x24 DUP3 ADD MSTORE PUSH32 0x416D6F756E74206D7573742062652067726561746572207468616E2030000000 PUSH1 0x44 DUP3 ADD MSTORE PUSH1 0x64 ADD JUMPDEST PUSH1 0x40 MLOAD DUP1 SWAP2 SUB SWAP1 REVERT JUMPDEST CALLER PUSH1 0x0 SWAP1 DUP2 MSTORE PUSH1 0x4 PUSH1 0x20 SWAP1 DUP2 MSTORE PUSH1 0x40 SWAP2 DUP3 SWAP1 KECCAK256 DUP3 MLOAD PUSH1 0x80 DUP2 ADD DUP5 MSTORE DUP2 SLOAD PUSH1 0xFF AND ISZERO ISZERO DUP2 MSTORE PUSH1 0x1 DUP3 ADD SLOAD SWAP3 DUP2 ADD SWAP3 SWAP1 SWAP3 MSTORE PUSH1 0x2 DUP2 ADD SLOAD SWAP3 DUP3 ADD SWAP3 SWAP1 SWAP3 MSTORE PUSH1 0x3 SWAP1 SWAP2 ADD SLOAD PUSH1 0x1 PUSH1 0x1 PUSH1 0xE0 SHL SUB AND PUSH1 0x60 DUP3 ADD DUP2 SWAP1 MSTORE PUSH2 0x4A0 JUMPI PUSH1 0x40 MLOAD PUSH3 0x461BCD PUSH1 0xE5 SHL DUP2 MSTORE PUSH1 0x20 PUSH1 0x4 DUP3 ADD MSTORE PUSH1 0x14 PUSH1 0x24 DUP3 ADD MSTORE PUSH20 0x4E6F207374616B6520746F207769746864726177 PUSH1 0x60 SHL PUSH1 0x44 DUP3 ADD MSTORE PUSH1 0x64 ADD PUSH2 0x402 JUMP JUMPDEST TIMESTAMP DUP2 PUSH1 0x40 ADD MLOAD GT ISZERO PUSH2 0x4E9 JUMPI PUSH1 0x40 MLOAD PUSH3 0x461BCD PUSH1 0xE5 SHL DUP2 MSTORE PUSH1 0x20 PUSH1 0x4 DUP3 ADD MSTORE PUSH1 0x12 PUSH1 0x24 DUP3 ADD MSTORE PUSH18 0x131BD8DADD5C081B9BDD08195E1C1A5C9959 PUSH1 0x72 SHL PUSH1 0x44 DUP3 ADD MSTORE PUSH1 0x64 ADD PUSH2 0x402 JUMP JUMPDEST PUSH1 0x0 PUSH2 0x50B DUP3 PUSH1 0x60 ADD MLOAD PUSH1 0x1 PUSH1 0x1 PUSH1 0xE0 SHL SUB AND DUP4 PUSH1 0x40 ADD MLOAD DUP5 PUSH1 0x20 ADD MLOAD PUSH2 0xBE4 JUMP JUMPDEST SWAP1 POP PUSH1 0x0 PUSH2 0x542 PUSH2 0x51B DUP6 PUSH2 0xC34 JUMP JUMPDEST DUP5 PUSH1 0x60 ADD MLOAD PUSH2 0x52A SWAP2 SWAP1 PUSH2 0x1211 JUMP JUMPDEST PUSH1 0x1 PUSH1 0x1 PUSH1 0xE0 SHL SUB AND DUP5 PUSH1 0x40 ADD MLOAD DUP6 PUSH1 0x20 ADD MLOAD PUSH2 0xBE4 JUMP JUMPDEST SWAP1 POP PUSH2 0x54D DUP5 PUSH2 0xC34 JUMP JUMPDEST DUP4 PUSH1 0x60 ADD DUP2 DUP2 MLOAD PUSH2 0x55E SWAP2 SWAP1 PUSH2 0x1211 JUMP JUMPDEST PUSH1 0x1 PUSH1 0x1 PUSH1 0xE0 SHL SUB AND SWAP1 MSTORE POP DUP4 ISZERO PUSH2 0x5E7 JUMPI PUSH1 0x6 SLOAD PUSH1 0x40 MLOAD PUSH4 0xA9059CBB PUSH1 0xE0 SHL DUP2 MSTORE CALLER PUSH1 0x4 DUP3 ADD MSTORE PUSH1 0x24 DUP2 ADD DUP7 SWAP1 MSTORE PUSH1 0x1 PUSH1 0x1 PUSH1 0xA0 SHL SUB SWAP1 SWAP2 AND SWAP1 PUSH4 0xA9059CBB SWAP1 PUSH1 0x44 ADD PUSH1 0x20 PUSH1 0x40 MLOAD DUP1 DUP4 SUB DUP2 PUSH1 0x0 DUP8 GAS CALL ISZERO DUP1 ISZERO PUSH2 0x5C1 JUMPI RETURNDATASIZE PUSH1 0x0 DUP1 RETURNDATACOPY RETURNDATASIZE PUSH1 0x0 REVERT JUMPDEST POP POP POP POP PUSH1 0x40 MLOAD RETURNDATASIZE PUSH1 0x1F NOT PUSH1 0x1F DUP3 ADD AND DUP3 ADD DUP1 PUSH1 0x40 MSTORE POP DUP2 ADD SWAP1 PUSH2 0x5E5 SWAP2 SWAP1 PUSH2 0x1239 JUMP JUMPDEST POP JUMPDEST CALLER PUSH1 0x0 SWAP1 DUP2 MSTORE PUSH1 0x3 PUSH1 0x20 MSTORE PUSH1 0x40 SWAP1 KECCAK256 PUSH2 0x60C SWAP1 PUSH2 0xCA1 PUSH2 0x607 DUP5 DUP7 PUSH2 0x11E4 JUMP JUMPDEST PUSH2 0xCAD JUMP JUMPDEST POP PUSH2 0x622 SWAP1 POP CALLER PUSH2 0x61D DUP4 DUP6 PUSH2 0x11E4 JUMP JUMPDEST PUSH2 0xE26 JUMP JUMPDEST POP POP POP POP JUMP JUMPDEST PUSH1 0x0 NUMBER DUP3 LT PUSH2 0x679 JUMPI PUSH1 0x40 MLOAD PUSH3 0x461BCD PUSH1 0xE5 SHL DUP2 MSTORE PUSH1 0x20 PUSH1 0x4 DUP3 ADD MSTORE PUSH1 0x1F PUSH1 0x24 DUP3 ADD MSTORE PUSH32 0x566F74654C6F636B65723A20626C6F636B206E6F7420796574206D696E656400 PUSH1 0x44 DUP3 ADD MSTORE PUSH1 0x64 ADD PUSH2 0x402 JUMP JUMPDEST PUSH1 0x1 PUSH1 0x1 PUSH1 0xA0 SHL SUB DUP4 AND PUSH1 0x0 SWAP1 DUP2 MSTORE PUSH1 0x3 PUSH1 0x20 MSTORE PUSH1 0x40 SWAP1 KECCAK256 PUSH2 0x69B SWAP1 DUP4 PUSH2 0xE34 JUMP JUMPDEST SWAP4 SWAP3 POP POP POP JUMP JUMPDEST PUSH1 0x40 MLOAD PUSH3 0x461BCD PUSH1 0xE5 SHL DUP2 MSTORE PUSH1 0x20 PUSH1 0x4 DUP3 ADD MSTORE PUSH1 0x1B PUSH1 0x24 DUP3 ADD MSTORE PUSH32 0x44656C65676174696F6E206973206E6F7420737570706F727465640000000000 PUSH1 0x44 DUP3 ADD MSTORE PUSH1 0x64 ADD PUSH2 0x402 JUMP JUMPDEST PUSH1 0x1 PUSH1 0x1 PUSH1 0xA0 SHL SUB DUP2 AND PUSH1 0x0 SWAP1 DUP2 MSTORE PUSH1 0x3 PUSH1 0x20 MSTORE PUSH1 0x40 DUP2 KECCAK256 SLOAD PUSH2 0x70C SWAP1 PUSH2 0xEF1 JUMP JUMPDEST SWAP3 SWAP2 POP POP JUMP JUMPDEST PUSH1 0x0 PUSH2 0x70C DUP3 PUSH2 0x788 JUMP JUMPDEST PUSH1 0x0 NUMBER DUP3 LT PUSH2 0x76E JUMPI PUSH1 0x40 MLOAD PUSH3 0x461BCD PUSH1 0xE5 SHL DUP2 MSTORE PUSH1 0x20 PUSH1 0x4 DUP3 ADD MSTORE PUSH1 0x1F PUSH1 0x24 DUP3 ADD MSTORE PUSH32 0x566F74654C6F636B65723A20626C6F636B206E6F7420796574206D696E656400 PUSH1 0x44 DUP3 ADD MSTORE PUSH1 0x64 ADD PUSH2 0x402 JUMP JUMPDEST PUSH2 0x70C PUSH1 0x5 DUP4 PUSH2 0xE34 JUMP JUMPDEST PUSH1 0x60 PUSH1 0x1 DUP1 SLOAD PUSH2 0x2E1 SWAP1 PUSH2 0x1193 JUMP JUMPDEST PUSH1 0x1 PUSH1 0x1 PUSH1 0xA0 SHL SUB DUP2 AND PUSH1 0x0 SWAP1 DUP2 MSTORE PUSH1 0x3 PUSH1 0x20 MSTORE PUSH1 0x40 DUP2 KECCAK256 SLOAD DUP1 ISZERO PUSH2 0x7FC JUMPI PUSH1 0x1 PUSH1 0x1 PUSH1 0xA0 SHL SUB DUP4 AND PUSH1 0x0 SWAP1 DUP2 MSTORE PUSH1 0x3 PUSH1 0x20 MSTORE PUSH1 0x40 SWAP1 KECCAK256 PUSH2 0x7CA PUSH1 0x1 DUP4 PUSH2 0x11E4 JUMP JUMPDEST DUP2 SLOAD DUP2 LT PUSH2 0x7DA JUMPI PUSH2 0x7DA PUSH2 0x11FB JUMP JUMPDEST PUSH1 0x0 SWAP2 DUP3 MSTORE PUSH1 0x20 SWAP1 SWAP2 KECCAK256 ADD SLOAD PUSH5 0x100000000 SWAP1 DIV PUSH1 0x1 PUSH1 0x1 PUSH1 0xE0 SHL SUB AND PUSH2 0x7FF JUMP JUMPDEST PUSH1 0x0 JUMPDEST PUSH1 0x1 PUSH1 0x1 PUSH1 0xE0 SHL SUB AND SWAP4 SWAP3 POP POP POP JUMP JUMPDEST PUSH1 0x40 MLOAD PUSH3 0x461BCD PUSH1 0xE5 SHL DUP2 MSTORE PUSH1 0x20 PUSH1 0x4 DUP3 ADD MSTORE PUSH1 0x28 PUSH1 0x24 DUP3 ADD MSTORE PUSH32 0x44656C65676174696F6E206279207369676E6174757265206973206E6F742073 PUSH1 0x44 DUP3 ADD MSTORE PUSH8 0x1D5C1C1BDC9D1959 PUSH1 0xC2 SHL PUSH1 0x64 DUP3 ADD MSTORE PUSH1 0x84 ADD PUSH2 0x402 JUMP JUMPDEST TIMESTAMP DUP2 GT PUSH2 0x8B7 JUMPI PUSH1 0x40 MLOAD PUSH3 0x461BCD PUSH1 0xE5 SHL DUP2 MSTORE PUSH1 0x20 PUSH1 0x4 DUP3 ADD MSTORE PUSH1 0x1C PUSH1 0x24 DUP3 ADD MSTORE PUSH32 0x457870697279206D75737420626520696E207468652066757475726500000000 PUSH1 0x44 DUP3 ADD MSTORE PUSH1 0x64 ADD PUSH2 0x402 JUMP JUMPDEST PUSH2 0x8C5 PUSH4 0x784CE00 TIMESTAMP PUSH2 0x125B JUMP JUMPDEST DUP2 GT ISZERO PUSH2 0x926 JUMPI PUSH1 0x40 MLOAD PUSH3 0x461BCD PUSH1 0xE5 SHL DUP2 MSTORE PUSH1 0x20 PUSH1 0x4 DUP3 ADD MSTORE PUSH1 0x29 PUSH1 0x24 DUP3 ADD MSTORE PUSH32 0x457870697279206D757374206265206265666F7265206D6178696D756D206C6F PUSH1 0x44 DUP3 ADD MSTORE PUSH9 0x636B75702074696D65 PUSH1 0xB8 SHL PUSH1 0x64 DUP3 ADD MSTORE PUSH1 0x84 ADD PUSH2 0x402 JUMP JUMPDEST PUSH2 0x933 PUSH3 0x93A80 TIMESTAMP PUSH2 0x125B JUMP JUMPDEST DUP2 LT ISZERO PUSH2 0x993 JUMPI PUSH1 0x40 MLOAD PUSH3 0x461BCD PUSH1 0xE5 SHL DUP2 MSTORE PUSH1 0x20 PUSH1 0x4 DUP3 ADD MSTORE PUSH1 0x28 PUSH1 0x24 DUP3 ADD MSTORE PUSH32 0x457870697279206D757374206265206166746572206D696E696D756D206C6F63 PUSH1 0x44 DUP3 ADD MSTORE PUSH8 0x6B75702074696D65 PUSH1 0xC0 SHL PUSH1 0x64 DUP3 ADD MSTORE PUSH1 0x84 ADD PUSH2 0x402 JUMP JUMPDEST CALLER PUSH1 0x0 SWAP1 DUP2 MSTORE PUSH1 0x4 PUSH1 0x20 MSTORE PUSH1 0x40 DUP2 KECCAK256 SLOAD PUSH1 0xFF AND PUSH2 0x9B1 JUMPI PUSH1 0x0 PUSH2 0x9E6 JUMP JUMPDEST CALLER PUSH1 0x0 SWAP1 DUP2 MSTORE PUSH1 0x4 PUSH1 0x20 MSTORE PUSH1 0x40 SWAP1 KECCAK256 PUSH1 0x3 DUP2 ADD SLOAD PUSH1 0x2 DUP3 ADD SLOAD PUSH1 0x1 SWAP1 SWAP3 ADD SLOAD PUSH2 0x9E6 SWAP3 PUSH1 0x1 PUSH1 0x1 PUSH1 0xE0 SHL SUB SWAP1 SWAP3 AND SWAP2 SWAP1 PUSH2 0xBE4 JUMP JUMPDEST SWAP1 POP PUSH1 0x40 MLOAD DUP1 PUSH1 0x80 ADD PUSH1 0x40 MSTORE DUP1 PUSH1 0x1 ISZERO ISZERO DUP2 MSTORE PUSH1 0x20 ADD TIMESTAMP DUP2 MSTORE PUSH1 0x20 ADD DUP4 DUP2 MSTORE PUSH1 0x20 ADD PUSH2 0xA11 DUP6 PUSH2 0xC34 JUMP JUMPDEST CALLER PUSH1 0x0 SWAP1 DUP2 MSTORE PUSH1 0x4 PUSH1 0x20 MSTORE PUSH1 0x40 SWAP1 KECCAK256 PUSH1 0x3 ADD SLOAD PUSH2 0xA37 SWAP2 SWAP1 PUSH1 0x1 PUSH1 0x1 PUSH1 0xE0 SHL SUB AND PUSH2 0x1273 JUMP JUMPDEST PUSH1 0x1 PUSH1 0x1 PUSH1 0xE0 SHL SUB SWAP1 DUP2 AND SWAP1 SWAP2 MSTORE CALLER PUSH1 0x0 SWAP1 DUP2 MSTORE PUSH1 0x4 PUSH1 0x20 SWAP1 DUP2 MSTORE PUSH1 0x40 DUP1 DUP4 KECCAK256 DUP6 MLOAD DUP2 SLOAD PUSH1 0xFF NOT AND SWAP1 ISZERO ISZERO OR DUP2 SSTORE SWAP2 DUP6 ADD MLOAD PUSH1 0x1 DUP4 ADD SSTORE DUP5 ADD MLOAD PUSH1 0x2 DUP3 ADD DUP2 SWAP1 SSTORE PUSH1 0x60 SWAP1 SWAP5 ADD MLOAD PUSH1 0x3 SWAP1 SWAP2 ADD DUP1 SLOAD PUSH1 0x1 PUSH1 0x1 PUSH1 0xE0 SHL SUB NOT AND SWAP2 SWAP1 SWAP4 AND SWAP1 DUP2 OR SWAP1 SWAP3 SSTORE SWAP2 PUSH2 0xAA5 SWAP2 SWAP1 TIMESTAMP PUSH2 0xBE4 JUMP JUMPDEST SWAP1 POP DUP4 ISZERO PUSH2 0xB2A JUMPI PUSH1 0x6 SLOAD PUSH1 0x40 MLOAD PUSH4 0x23B872DD PUSH1 0xE0 SHL DUP2 MSTORE CALLER PUSH1 0x4 DUP3 ADD MSTORE ADDRESS PUSH1 0x24 DUP3 ADD MSTORE PUSH1 0x44 DUP2 ADD DUP7 SWAP1 MSTORE PUSH1 0x1 PUSH1 0x1 PUSH1 0xA0 SHL SUB SWAP1 SWAP2 AND SWAP1 PUSH4 0x23B872DD SWAP1 PUSH1 0x64 ADD PUSH1 0x20 PUSH1 0x40 MLOAD DUP1 DUP4 SUB DUP2 PUSH1 0x0 DUP8 GAS CALL ISZERO DUP1 ISZERO PUSH2 0xB04 JUMPI RETURNDATASIZE PUSH1 0x0 DUP1 RETURNDATACOPY RETURNDATASIZE PUSH1 0x0 REVERT JUMPDEST POP POP POP POP PUSH1 0x40 MLOAD RETURNDATASIZE PUSH1 0x1F NOT PUSH1 0x1F DUP3 ADD AND DUP3 ADD DUP1 PUSH1 0x40 MSTORE POP DUP2 ADD SWAP1 PUSH2 0xB28 SWAP2 SWAP1 PUSH2 0x1239 JUMP JUMPDEST POP JUMPDEST CALLER PUSH1 0x0 SWAP1 DUP2 MSTORE PUSH1 0x3 PUSH1 0x20 MSTORE PUSH1 0x40 SWAP1 KECCAK256 PUSH2 0xB4A SWAP1 PUSH2 0xCA1 PUSH2 0x607 DUP6 DUP6 PUSH2 0x11E4 JUMP JUMPDEST POP PUSH2 0x622 SWAP1 POP CALLER PUSH2 0xB5B DUP5 DUP5 PUSH2 0x11E4 JUMP JUMPDEST PUSH2 0xF56 JUMP JUMPDEST PUSH1 0x40 DUP1 MLOAD DUP1 DUP3 ADD SWAP1 SWAP2 MSTORE PUSH1 0x0 DUP1 DUP3 MSTORE PUSH1 0x20 DUP3 ADD MSTORE PUSH1 0x1 PUSH1 0x1 PUSH1 0xA0 SHL SUB DUP4 AND PUSH1 0x0 SWAP1 DUP2 MSTORE PUSH1 0x3 PUSH1 0x20 MSTORE PUSH1 0x40 SWAP1 KECCAK256 DUP1 SLOAD PUSH4 0xFFFFFFFF DUP5 AND SWAP1 DUP2 LT PUSH2 0xBA4 JUMPI PUSH2 0xBA4 PUSH2 0x11FB JUMP JUMPDEST PUSH1 0x0 SWAP2 DUP3 MSTORE PUSH1 0x20 SWAP2 DUP3 SWAP1 KECCAK256 PUSH1 0x40 DUP1 MLOAD DUP1 DUP3 ADD SWAP1 SWAP2 MSTORE SWAP2 ADD SLOAD PUSH4 0xFFFFFFFF DUP2 AND DUP3 MSTORE PUSH5 0x100000000 SWAP1 DIV PUSH1 0x1 PUSH1 0x1 PUSH1 0xE0 SHL SUB AND SWAP2 DUP2 ADD SWAP2 SWAP1 SWAP2 MSTORE SWAP4 SWAP3 POP POP POP JUMP JUMPDEST PUSH1 0x0 DUP1 PUSH4 0x784CE00 DUP6 PUSH2 0xBF9 PUSH1 0x1 PUSH1 0x4 PUSH2 0x11E4 JUMP JUMPDEST PUSH2 0xC03 DUP7 DUP9 PUSH2 0x11E4 JUMP JUMPDEST PUSH2 0xC0D SWAP2 SWAP1 PUSH2 0x129E JUMP JUMPDEST PUSH2 0xC17 SWAP2 SWAP1 PUSH2 0x129E JUMP JUMPDEST PUSH2 0xC21 SWAP2 SWAP1 PUSH2 0x12BD JUMP JUMPDEST PUSH2 0xC2B SWAP1 DUP7 PUSH2 0x125B JUMP JUMPDEST SWAP6 SWAP5 POP POP POP POP POP JUMP JUMPDEST PUSH1 0x0 PUSH1 0x1 PUSH1 0x1 PUSH1 0xE0 SHL SUB DUP3 GT ISZERO PUSH2 0xC9D JUMPI PUSH1 0x40 MLOAD PUSH3 0x461BCD PUSH1 0xE5 SHL DUP2 MSTORE PUSH1 0x20 PUSH1 0x4 DUP3 ADD MSTORE PUSH1 0x27 PUSH1 0x24 DUP3 ADD MSTORE PUSH32 0x53616665436173743A2076616C756520646F65736E27742066697420696E2032 PUSH1 0x44 DUP3 ADD MSTORE PUSH7 0x32342062697473 PUSH1 0xC8 SHL PUSH1 0x64 DUP3 ADD MSTORE PUSH1 0x84 ADD PUSH2 0x402 JUMP JUMPDEST POP SWAP1 JUMP JUMPDEST PUSH1 0x0 PUSH2 0x69B DUP3 DUP5 PUSH2 0x125B JUMP JUMPDEST DUP3 SLOAD PUSH1 0x0 SWAP1 DUP2 SWAP1 DUP1 ISZERO PUSH2 0xCF8 JUMPI DUP6 PUSH2 0xCC6 PUSH1 0x1 DUP4 PUSH2 0x11E4 JUMP JUMPDEST DUP2 SLOAD DUP2 LT PUSH2 0xCD6 JUMPI PUSH2 0xCD6 PUSH2 0x11FB JUMP JUMPDEST PUSH1 0x0 SWAP2 DUP3 MSTORE PUSH1 0x20 SWAP1 SWAP2 KECCAK256 ADD SLOAD PUSH5 0x100000000 SWAP1 DIV PUSH1 0x1 PUSH1 0x1 PUSH1 0xE0 SHL SUB AND PUSH2 0xCFB JUMP JUMPDEST PUSH1 0x0 JUMPDEST PUSH1 0x1 PUSH1 0x1 PUSH1 0xE0 SHL SUB AND SWAP3 POP PUSH2 0xD14 DUP4 DUP6 DUP8 PUSH4 0xFFFFFFFF AND JUMP JUMPDEST SWAP2 POP PUSH1 0x0 DUP2 GT DUP1 ISZERO PUSH2 0xD52 JUMPI POP NUMBER DUP7 PUSH2 0xD2E PUSH1 0x1 DUP5 PUSH2 0x11E4 JUMP JUMPDEST DUP2 SLOAD DUP2 LT PUSH2 0xD3E JUMPI PUSH2 0xD3E PUSH2 0x11FB JUMP JUMPDEST PUSH1 0x0 SWAP2 DUP3 MSTORE PUSH1 0x20 SWAP1 SWAP2 KECCAK256 ADD SLOAD PUSH4 0xFFFFFFFF AND EQ JUMPDEST ISZERO PUSH2 0xDB2 JUMPI PUSH2 0xD60 DUP3 PUSH2 0xC34 JUMP JUMPDEST DUP7 PUSH2 0xD6C PUSH1 0x1 DUP5 PUSH2 0x11E4 JUMP JUMPDEST DUP2 SLOAD DUP2 LT PUSH2 0xD7C JUMPI PUSH2 0xD7C PUSH2 0x11FB JUMP JUMPDEST SWAP1 PUSH1 0x0 MSTORE PUSH1 0x20 PUSH1 0x0 KECCAK256 ADD PUSH1 0x0 ADD PUSH1 0x4 PUSH2 0x100 EXP DUP2 SLOAD DUP2 PUSH1 0x1 PUSH1 0x1 PUSH1 0xE0 SHL SUB MUL NOT AND SWAP1 DUP4 PUSH1 0x1 PUSH1 0x1 PUSH1 0xE0 SHL SUB AND MUL OR SWAP1 SSTORE POP PUSH2 0xE1D JUMP JUMPDEST DUP6 PUSH1 0x40 MLOAD DUP1 PUSH1 0x40 ADD PUSH1 0x40 MSTORE DUP1 PUSH2 0xDC7 NUMBER PUSH2 0xEF1 JUMP JUMPDEST PUSH4 0xFFFFFFFF AND DUP2 MSTORE PUSH1 0x20 ADD PUSH2 0xDDB DUP6 PUSH2 0xC34 JUMP JUMPDEST PUSH1 0x1 PUSH1 0x1 PUSH1 0xE0 SHL SUB SWAP1 DUP2 AND SWAP1 SWAP2 MSTORE DUP3 SLOAD PUSH1 0x1 DUP2 ADD DUP5 SSTORE PUSH1 0x0 SWAP4 DUP5 MSTORE PUSH1 0x20 SWAP4 DUP5 SWAP1 KECCAK256 DUP4 MLOAD SWAP5 SWAP1 SWAP4 ADD MLOAD SWAP1 SWAP2 AND PUSH5 0x100000000 MUL PUSH4 0xFFFFFFFF SWAP1 SWAP4 AND SWAP3 SWAP1 SWAP3 OR SWAP2 ADD SSTORE JUMPDEST POP SWAP4 POP SWAP4 SWAP2 POP POP JUMP JUMPDEST PUSH2 0x622 PUSH1 0x5 PUSH2 0xFDB DUP4 PUSH2 0xCAD JUMP JUMPDEST DUP2 SLOAD PUSH1 0x0 SWAP1 DUP2 JUMPDEST DUP2 DUP2 LT ISZERO PUSH2 0xE98 JUMPI PUSH1 0x0 PUSH2 0xE4F DUP3 DUP5 PUSH2 0xFE7 JUMP JUMPDEST SWAP1 POP DUP5 DUP7 DUP3 DUP2 SLOAD DUP2 LT PUSH2 0xE64 JUMPI PUSH2 0xE64 PUSH2 0x11FB JUMP JUMPDEST PUSH1 0x0 SWAP2 DUP3 MSTORE PUSH1 0x20 SWAP1 SWAP2 KECCAK256 ADD SLOAD PUSH4 0xFFFFFFFF AND GT ISZERO PUSH2 0xE84 JUMPI DUP1 SWAP3 POP PUSH2 0xE92 JUMP JUMPDEST PUSH2 0xE8F DUP2 PUSH1 0x1 PUSH2 0x125B JUMP JUMPDEST SWAP2 POP JUMPDEST POP PUSH2 0xE3B JUMP JUMPDEST DUP2 ISZERO PUSH2 0xEDC JUMPI DUP5 PUSH2 0xEAA PUSH1 0x1 DUP5 PUSH2 0x11E4 JUMP JUMPDEST DUP2 SLOAD DUP2 LT PUSH2 0xEBA JUMPI PUSH2 0xEBA PUSH2 0x11FB JUMP JUMPDEST PUSH1 0x0 SWAP2 DUP3 MSTORE PUSH1 0x20 SWAP1 SWAP2 KECCAK256 ADD SLOAD PUSH5 0x100000000 SWAP1 DIV PUSH1 0x1 PUSH1 0x1 PUSH1 0xE0 SHL SUB AND PUSH2 0xEDF JUMP JUMPDEST PUSH1 0x0 JUMPDEST PUSH1 0x1 PUSH1 0x1 PUSH1 0xE0 SHL SUB AND SWAP6 SWAP5 POP POP POP POP POP JUMP JUMPDEST PUSH1 0x0 PUSH4 0xFFFFFFFF DUP3 GT ISZERO PUSH2 0xC9D JUMPI PUSH1 0x40 MLOAD PUSH3 0x461BCD PUSH1 0xE5 SHL DUP2 MSTORE PUSH1 0x20 PUSH1 0x4 DUP3 ADD MSTORE PUSH1 0x26 PUSH1 0x24 DUP3 ADD MSTORE PUSH32 0x53616665436173743A2076616C756520646F65736E27742066697420696E2033 PUSH1 0x44 DUP3 ADD MSTORE PUSH6 0x322062697473 PUSH1 0xD0 SHL PUSH1 0x64 DUP3 ADD MSTORE PUSH1 0x84 ADD PUSH2 0x402 JUMP JUMPDEST PUSH1 0x1 PUSH1 0x1 PUSH1 0xE0 SHL SUB PUSH2 0xF66 PUSH2 0x364 JUMP JUMPDEST GT ISZERO PUSH2 0xFCD JUMPI PUSH1 0x40 MLOAD PUSH3 0x461BCD PUSH1 0xE5 SHL DUP2 MSTORE PUSH1 0x20 PUSH1 0x4 DUP3 ADD MSTORE PUSH1 0x30 PUSH1 0x24 DUP3 ADD MSTORE PUSH32 0x566F74654C6F636B65723A20746F74616C20737570706C79207269736B73206F PUSH1 0x44 DUP3 ADD MSTORE PUSH16 0x766572666C6F77696E6720766F746573 PUSH1 0x80 SHL PUSH1 0x64 DUP3 ADD MSTORE PUSH1 0x84 ADD PUSH2 0x402 JUMP JUMPDEST PUSH2 0x622 PUSH1 0x5 PUSH2 0xCA1 DUP4 PUSH2 0xCAD JUMP JUMPDEST PUSH1 0x0 PUSH2 0x69B DUP3 DUP5 PUSH2 0x11E4 JUMP JUMPDEST PUSH1 0x0 PUSH2 0xFF6 PUSH1 0x2 DUP5 DUP5 XOR PUSH2 0x12BD JUMP JUMPDEST PUSH2 0x69B SWAP1 DUP5 DUP5 AND PUSH2 0x125B JUMP JUMPDEST PUSH1 0x0 PUSH1 0x20 DUP1 DUP4 MSTORE DUP4 MLOAD DUP1 DUP3 DUP6 ADD MSTORE PUSH1 0x0 JUMPDEST DUP2 DUP2 LT ISZERO PUSH2 0x102F JUMPI DUP6 DUP2 ADD DUP4 ADD MLOAD DUP6 DUP3 ADD PUSH1 0x40 ADD MSTORE DUP3 ADD PUSH2 0x1013 JUMP JUMPDEST DUP2 DUP2 GT ISZERO PUSH2 0x1041 JUMPI PUSH1 0x0 PUSH1 0x40 DUP4 DUP8 ADD ADD MSTORE JUMPDEST POP PUSH1 0x1F ADD PUSH1 0x1F NOT AND SWAP3 SWAP1 SWAP3 ADD PUSH1 0x40 ADD SWAP4 SWAP3 POP POP POP JUMP JUMPDEST PUSH1 0x0 PUSH1 0x20 DUP3 DUP5 SUB SLT ISZERO PUSH2 0x1069 JUMPI PUSH1 0x0 DUP1 REVERT JUMPDEST POP CALLDATALOAD SWAP2 SWAP1 POP JUMP JUMPDEST DUP1 CALLDATALOAD PUSH1 0x1 PUSH1 0x1 PUSH1 0xA0 SHL SUB DUP2 AND DUP2 EQ PUSH2 0x1087 JUMPI PUSH1 0x0 DUP1 REVERT JUMPDEST SWAP2 SWAP1 POP JUMP JUMPDEST PUSH1 0x0 DUP1 PUSH1 0x40 DUP4 DUP6 SUB SLT ISZERO PUSH2 0x109F JUMPI PUSH1 0x0 DUP1 REVERT JUMPDEST PUSH2 0x10A8 DUP4 PUSH2 0x1070 JUMP JUMPDEST SWAP5 PUSH1 0x20 SWAP4 SWAP1 SWAP4 ADD CALLDATALOAD SWAP4 POP POP POP JUMP JUMPDEST PUSH1 0x0 PUSH1 0x20 DUP3 DUP5 SUB SLT ISZERO PUSH2 0x10C8 JUMPI PUSH1 0x0 DUP1 REVERT JUMPDEST PUSH2 0x69B DUP3 PUSH2 0x1070 JUMP JUMPDEST PUSH1 0x0 DUP1 PUSH1 0x0 DUP1 PUSH1 0x0 DUP1 PUSH1 0xC0 DUP8 DUP10 SUB SLT ISZERO PUSH2 0x10EA JUMPI PUSH1 0x0 DUP1 REVERT JUMPDEST PUSH2 0x10F3 DUP8 PUSH2 0x1070 JUMP JUMPDEST SWAP6 POP PUSH1 0x20 DUP8 ADD CALLDATALOAD SWAP5 POP PUSH1 0x40 DUP8 ADD CALLDATALOAD SWAP4 POP PUSH1 0x60 DUP8 ADD CALLDATALOAD PUSH1 0xFF DUP2 AND DUP2 EQ PUSH2 0x1117 JUMPI PUSH1 0x0 DUP1 REVERT JUMPDEST SWAP6 SWAP9 SWAP5 SWAP8 POP SWAP3 SWAP6 PUSH1 0x80 DUP2 ADD CALLDATALOAD SWAP5 PUSH1 0xA0 SWAP1 SWAP2 ADD CALLDATALOAD SWAP4 POP SWAP2 POP POP JUMP JUMPDEST PUSH1 0x0 DUP1 PUSH1 0x40 DUP4 DUP6 SUB SLT ISZERO PUSH2 0x1144 JUMPI PUSH1 0x0 DUP1 REVERT JUMPDEST POP POP DUP1 CALLDATALOAD SWAP3 PUSH1 0x20 SWAP1 SWAP2 ADD CALLDATALOAD SWAP2 POP JUMP JUMPDEST PUSH1 0x0 DUP1 PUSH1 0x40 DUP4 DUP6 SUB SLT ISZERO PUSH2 0x1166 JUMPI PUSH1 0x0 DUP1 REVERT JUMPDEST PUSH2 0x116F DUP4 PUSH2 0x1070 JUMP JUMPDEST SWAP2 POP PUSH1 0x20 DUP4 ADD CALLDATALOAD PUSH4 0xFFFFFFFF DUP2 AND DUP2 EQ PUSH2 0x1188 JUMPI PUSH1 0x0 DUP1 REVERT JUMPDEST DUP1 SWAP2 POP POP SWAP3 POP SWAP3 SWAP1 POP JUMP JUMPDEST PUSH1 0x1 DUP2 DUP2 SHR SWAP1 DUP3 AND DUP1 PUSH2 0x11A7 JUMPI PUSH1 0x7F DUP3 AND SWAP2 POP JUMPDEST PUSH1 0x20 DUP3 LT DUP2 EQ ISZERO PUSH2 0x11C8 JUMPI PUSH4 0x4E487B71 PUSH1 0xE0 SHL PUSH1 0x0 MSTORE PUSH1 0x22 PUSH1 0x4 MSTORE PUSH1 0x24 PUSH1 0x0 REVERT JUMPDEST POP SWAP2 SWAP1 POP JUMP JUMPDEST PUSH4 0x4E487B71 PUSH1 0xE0 SHL PUSH1 0x0 MSTORE PUSH1 0x11 PUSH1 0x4 MSTORE PUSH1 0x24 PUSH1 0x0 REVERT JUMPDEST PUSH1 0x0 DUP3 DUP3 LT ISZERO PUSH2 0x11F6 JUMPI PUSH2 0x11F6 PUSH2 0x11CE JUMP JUMPDEST POP SUB SWAP1 JUMP JUMPDEST PUSH4 0x4E487B71 PUSH1 0xE0 SHL PUSH1 0x0 MSTORE PUSH1 0x32 PUSH1 0x4 MSTORE PUSH1 0x24 PUSH1 0x0 REVERT JUMPDEST PUSH1 0x0 PUSH1 0x1 PUSH1 0x1 PUSH1 0xE0 SHL SUB DUP4 DUP2 AND SWAP1 DUP4 AND DUP2 DUP2 LT ISZERO PUSH2 0x1231 JUMPI PUSH2 0x1231 PUSH2 0x11CE JUMP JUMPDEST SUB SWAP4 SWAP3 POP POP POP JUMP JUMPDEST PUSH1 0x0 PUSH1 0x20 DUP3 DUP5 SUB SLT ISZERO PUSH2 0x124B JUMPI PUSH1 0x0 DUP1 REVERT JUMPDEST DUP2 MLOAD DUP1 ISZERO ISZERO DUP2 EQ PUSH2 0x69B JUMPI PUSH1 0x0 DUP1 REVERT JUMPDEST PUSH1 0x0 DUP3 NOT DUP3 GT ISZERO PUSH2 0x126E JUMPI PUSH2 0x126E PUSH2 0x11CE JUMP JUMPDEST POP ADD SWAP1 JUMP JUMPDEST PUSH1 0x0 PUSH1 0x1 PUSH1 0x1 PUSH1 0xE0 SHL SUB DUP3 DUP2 AND DUP5 DUP3 AND DUP1 DUP4 SUB DUP3 GT ISZERO PUSH2 0x1295 JUMPI PUSH2 0x1295 PUSH2 0x11CE JUMP JUMPDEST ADD SWAP5 SWAP4 POP POP POP POP JUMP JUMPDEST PUSH1 0x0 DUP2 PUSH1 0x0 NOT DIV DUP4 GT DUP3 ISZERO ISZERO AND ISZERO PUSH2 0x12B8 JUMPI PUSH2 0x12B8 PUSH2 0x11CE JUMP JUMPDEST POP MUL SWAP1 JUMP JUMPDEST PUSH1 0x0 DUP3 PUSH2 0x12DA JUMPI PUSH4 0x4E487B71 PUSH1 0xE0 SHL PUSH1 0x0 MSTORE PUSH1 0x12 PUSH1 0x4 MSTORE PUSH1 0x24 PUSH1 0x0 REVERT JUMPDEST POP DIV SWAP1 JUMP INVALID LOG2 PUSH5 0x6970667358 0x22 SLT KECCAK256 PUSH26 0xD1ADE328CD8DEF03261E6B1E6E07799F4124ACF5DAEBE0D2C82D PUSH10 0xCEEFCF964736F6C6343 STOP ADDMOD SIGNEXTEND STOP CALLER ",
  "sha1": "77e725537a4f6431632b55f9480b85d242741b74",
  "source": "// SPDX-License-Identifier: MIT\n\npragma solidity ^0.8.2;\n\nimport \"OpenZeppelin/openzeppelin-contracts@4.4.2/contracts/utils/math/Math.sol\";\nimport \"OpenZeppelin/openzeppelin-contracts@4.4.2/contracts/token/ERC20/ERC20.sol\";\nimport \"OpenZeppelin/openzeppelin-contracts@4.4.2/contracts/utils/math/SafeCast.sol\";\nimport \"OpenZeppelin/openzeppelin-contracts@4.4.2/contracts/utils/cryptography/ECDSA.sol\";\n\n/**\n * @title VoteLocker\n * @notice VoteLocker is smart contract that supports locking up of a staking token for increased\n *         governance voting power. It is largely based on the ERC20Votes contract from openzeppelin\n *         with some modificaitons to allow it to support lockups/vote boosting.\n *\n * - Voting power is determined by stake amount and lockup duration.\n * - Implements a subset of the ERC20 standard (no transfers, allowance, etc.)\n * - Implements the interfaces required by OpenZeppelin 4.x governance (VoteLocker) stack and exposes\n *   the amount of votes a user has and total votes through standard ERC20 balanceOf/totalSupply\n *   getters.\n * - Removes vote delegation.\n *\n * TODO resolve issues with extending lockup expiry and fromTimestamp\n * TODO vote boost never goes away after expiry ;(\n */\n\ncontract VoteLocker {\n    ///@notice ERC20 parameters\n    string private _name;\n    string private _symbol;\n    uint8 private _decimals;\n\n    struct Stake {\n        bool initialised;\n        uint256 fromTimestamp;\n        uint256 expiry; // Timestamp of lockup expiry\n        uint224 amount; // Amount of staked tokens user has\n    }\n\n    struct Checkpoint {\n        uint32 fromBlock;\n        uint224 votes;\n    }\n\n    /// @notice Maximum lock time\n    uint256 public constant MAX_LOCK_TIME = 4 * 365 * 86400; // 4 years\n    /// @notice Minimum lock time\n    uint256 public constant MIN_LOCK_TIME = 7 * 86400; // 7 days\n    /// @notice Vote boost if locked for maximum duration\n    uint256 public constant MAX_VOTE_MULTIPLE = 4;\n    /// @notice Checkpoints for each user\n    mapping(address => Checkpoint[]) private _checkpoints;\n    /// @notice Stake for each user\n    mapping(address => Stake) private _stakes;\n    /// @notice Global checkpoints\n    Checkpoint[] private _totalSupplyCheckpoints;\n    /// @notice Token used for creating lockups\n    ERC20 public stakingToken;\n\n    constructor(address _stakingToken) {\n        stakingToken = ERC20(_stakingToken);\n        _name = string(\n            bytes.concat(bytes(\"Vote Locked\"), \" \", bytes(stakingToken.name()))\n        );\n        _symbol = string(\n            bytes.concat(bytes(\"vl\"), bytes(stakingToken.symbol()))\n        );\n        _decimals = stakingToken.decimals();\n    }\n\n    /**\n     * @dev Returns the name of the token.\n     */\n    function name() public view virtual returns (string memory) {\n        return _name;\n    }\n\n    /**\n     * @dev Returns the symbol of the token, usually a shorter version of the\n     * name.\n     */\n    function symbol() public view virtual returns (string memory) {\n        return _symbol;\n    }\n\n    /**\n     * @dev Returns the number of decimals used to get its user representation.\n     * For example, if `decimals` equals `2`, a balance of `505` tokens should\n     * be displayed to a user as `5.05` (`505 / 10 ** 2`).\n     *\n     * Tokens usually opt for a value of 18, imitating the relationship between\n     * Ether and Wei. This is the value {ERC20} uses, unless this function is\n     * overridden;\n     */\n    function decimals() public view virtual returns (uint8) {\n        return _decimals;\n    }\n\n    /**\n     * @dev See {ERC20-totalSupply}.\n     */\n    function totalSupply() public view virtual returns (uint256) {\n        if (_totalSupplyCheckpoints.length == 0) {\n            return 0;\n        }\n        return\n            _totalSupplyCheckpoints[_totalSupplyCheckpoints.length - 1].votes;\n    }\n\n    /**\n     * @dev See {ERC20-balanceOf}.\n     */\n    function balanceOf(address _account) public view virtual returns (uint256) {\n        return getVotes(_account);\n    }\n\n    /**\n     * @dev Get the `pos`-th checkpoint for `account`.\n     */\n    function checkpoints(address account, uint32 pos)\n        public\n        view\n        virtual\n        returns (Checkpoint memory)\n    {\n        return _checkpoints[account][pos];\n    }\n\n    /**\n     * @dev Get number of checkpoints for `account`.\n     */\n    function numCheckpoints(address account)\n        public\n        view\n        virtual\n        returns (uint32)\n    {\n        return SafeCast.toUint32(_checkpoints[account].length);\n    }\n\n    /**\n     * @dev Get the address `account` is currently delegating to.\n     */\n    function delegates(address account) public view virtual returns (address) {}\n\n    /**\n     * @dev Gets the current votes balance for `account`\n     */\n    function getVotes(address account) public view returns (uint256) {\n        uint256 pos = _checkpoints[account].length;\n        return pos == 0 ? 0 : _checkpoints[account][pos - 1].votes;\n    }\n\n    /**\n     * @dev Retrieve the number of votes for `account` at the end of `blockNumber`.\n     *\n     * Requirements:\n     *\n     * - `blockNumber` must have been already mined\n     */\n    function getPastVotes(address account, uint256 blockNumber)\n        public\n        view\n        returns (uint256)\n    {\n        require(blockNumber < block.number, \"VoteLocker: block not yet mined\");\n        return _checkpointsLookup(_checkpoints[account], blockNumber);\n    }\n\n    /**\n     * @dev Retrieve the `totalSupply` at the end of `blockNumber`. Note, this value is the sum of all balances.\n     *\n     * Requirements:\n     *\n     * - `blockNumber` must have been already mined\n     */\n    function getPastTotalSupply(uint256 blockNumber)\n        public\n        view\n        returns (uint256)\n    {\n        require(blockNumber < block.number, \"VoteLocker: block not yet mined\");\n        return _checkpointsLookup(_totalSupplyCheckpoints, blockNumber);\n    }\n\n    /**\n     * @dev Lookup a value in a list of (sorted) checkpoints.\n     */\n    function _checkpointsLookup(Checkpoint[] storage ckpts, uint256 blockNumber)\n        private\n        view\n        returns (uint256)\n    {\n        // We run a binary search to look for the earliest checkpoint taken after `blockNumber`.\n        //\n        // During the loop, the index of the wanted checkpoint remains in the range [low-1, high).\n        // With each iteration, either `low` or `high` is moved towards the middle of the range to maintain the invariant.\n        // - If the middle checkpoint is after `blockNumber`, we look in [low, mid)\n        // - If the middle checkpoint is before or equal to `blockNumber`, we look in [mid+1, high)\n        // Once we reach a single value (when low == high), we've found the right checkpoint at the index high-1, if not\n        // out of bounds (in which case we're looking too far in the past and the result is 0).\n        // Note that if the latest checkpoint available is exactly for `blockNumber`, we end up with an index that is\n        // past the end of the array, so we technically don't find a checkpoint after `blockNumber`, but it works out\n        // the same.\n        uint256 high = ckpts.length;\n        uint256 low = 0;\n        while (low < high) {\n            uint256 mid = Math.average(low, high);\n            if (ckpts[mid].fromBlock > blockNumber) {\n                high = mid;\n            } else {\n                low = mid + 1;\n            }\n        }\n        return high == 0 ? 0 : ckpts[high - 1].votes;\n    }\n\n    /**\n     * @dev Calculate the votes from a stake and expiry in a checkpoint.\n     */\n    function _calculateVotesFromStake(\n        uint256 amount,\n        uint256 expiry,\n        uint256 fromTimestamp\n    ) private view returns (uint256) {\n        uint256 votes =\n            amount + ((expiry - fromTimestamp) * (MAX_VOTE_MULTIPLE - 1) * amount) /\n            MAX_LOCK_TIME;\n        return votes;\n    }\n\n    /**\n     * @dev Delegate votes from the sender to `delegatee`.\n     */\n    function delegate(address delegatee) public virtual {\n        revert(\"Delegation is not supported\");\n    }\n\n    /**\n     * @dev Delegates votes from signer to `delegatee`\n     */\n    function delegateBySig(\n        address delegatee,\n        uint256 nonce,\n        uint256 expiry,\n        uint8 v,\n        bytes32 r,\n        bytes32 s\n    ) public virtual {\n        revert(\"Delegation by signature is not supported\");\n    }\n\n    /**\n     * @dev Maximum token supply. Defaults to `type(uint224).max` (2^224^ - 1).\n     */\n    function _maxSupply() internal view virtual returns (uint224) {\n        return type(uint224).max;\n    }\n\n    /**\n     * @dev Deposits staking token and mints new tokens according to the MAX_VOTE_MULTIPLE and _expiry parameters.\n     */\n    function deposit(uint256 amount, uint256 expiry) public virtual {\n        require(expiry > block.timestamp, \"Expiry must be in the future\");\n        require(\n            expiry <= block.timestamp + MAX_LOCK_TIME,\n            \"Expiry must be before maximum lockup time\"\n        );\n        require(\n            expiry >= block.timestamp + MIN_LOCK_TIME,\n            \"Expiry must be after minimum lockup time\"\n        );\n\n        // Calculate old votes if user has an initialised stake\n        uint256 oldVotes = _stakes[msg.sender].initialised ? _calculateVotesFromStake(\n            _stakes[msg.sender].amount,\n            _stakes[msg.sender].expiry,\n            _stakes[msg.sender].fromTimestamp\n        ) : 0;\n\n        // Update the stake, amount could be 0 and expiry could be the same\n        _stakes[msg.sender] = Stake({\n            initialised: true,\n            fromTimestamp: block.timestamp,\n            amount: _stakes[msg.sender].amount + SafeCast.toUint224(amount),\n            expiry: expiry\n        });\n\n        // Calculate new votes for updated stake\n        uint256 newVotes = _calculateVotesFromStake(\n            _stakes[msg.sender].amount,\n            _stakes[msg.sender].expiry,\n            block.timestamp\n        );\n\n        if (amount > 0) {\n            // If amount is 0, this might just be an expiry change\n            stakingToken.transferFrom(msg.sender, address(this), amount);\n        }\n\n        _writeCheckpoint(_checkpoints[msg.sender], _add, newVotes - oldVotes);\n\n        // Mint the vote delta\n        _mint(msg.sender, newVotes - oldVotes);\n    }\n\n    /**\n     * @dev Snapshots the totalSupply after it has been increased.\n     */\n    function _mint(address account, uint256 amount) internal virtual {\n        require(\n            totalSupply() <= _maxSupply(),\n            \"VoteLocker: total supply risks overflowing votes\"\n        );\n        _writeCheckpoint(_totalSupplyCheckpoints, _add, amount);\n    }\n\n    /**\n     * @dev Withdraw tokens from an expired lockup.\n     */\n    function withdraw(uint256 amount) public {\n        require(amount > 0, \"Amount must be greater than 0\");\n\n        Stake memory existingStake = _stakes[msg.sender];\n        require(existingStake.amount > 0, \"No stake to withdraw\");\n        require(existingStake.expiry <= block.timestamp, \"Lockup not expired\");\n\n        uint256 oldVotes = _calculateVotesFromStake(\n            existingStake.amount,\n            existingStake.expiry,\n            existingStake.fromTimestamp\n        );\n\n        uint256 newVotes = _calculateVotesFromStake(\n            existingStake.amount - SafeCast.toUint224(amount),\n            existingStake.expiry,\n            existingStake.fromTimestamp\n        );\n\n        existingStake.amount -= SafeCast.toUint224(amount);\n\n        if (amount > 0) {\n            // Transfer staking token back to sender\n            stakingToken.transfer(msg.sender, amount);\n        }\n\n        _writeCheckpoint(_checkpoints[msg.sender], _add, oldVotes - newVotes);\n\n        // Burn the vote delta\n        _burn(msg.sender, oldVotes - newVotes);\n    }\n\n    /**\n     * @dev Snapshots the totalSupply after it has been decreased.\n     */\n    function _burn(address account, uint256 amount) internal virtual {\n        _writeCheckpoint(_totalSupplyCheckpoints, _subtract, amount);\n    }\n\n    /**\n     * @dev Withdraws all tokens from the account.\n     */\n    function _writeCheckpoint(\n        Checkpoint[] storage ckpts,\n        function(uint256, uint256) view returns (uint256) op,\n        uint256 delta\n    ) private returns (uint256 oldWeight, uint256 newWeight) {\n        uint256 pos = ckpts.length;\n        oldWeight = pos == 0 ? 0 : ckpts[pos - 1].votes;\n        newWeight = op(oldWeight, delta);\n\n        if (pos > 0 && ckpts[pos - 1].fromBlock == block.number) {\n            ckpts[pos - 1].votes = SafeCast.toUint224(newWeight);\n        } else {\n            ckpts.push(\n                Checkpoint({\n                    fromBlock: SafeCast.toUint32(block.number),\n                    votes: SafeCast.toUint224(newWeight)\n                })\n            );\n        }\n    }\n\n    /**\n     * @dev Helper addition function for passing to checkpointing functions.\n     */\n    function _add(uint256 a, uint256 b) private pure returns (uint256) {\n        return a + b;\n    }\n\n    /**\n     * @dev Helper subtraction function for passing to checkpointing functions.\n     */\n    function _subtract(uint256 a, uint256 b) private pure returns (uint256) {\n        return a - b;\n    }\n}\n",
  "sourcePath": "contracts/VoteLocker.sol",
  "type": "contract"
}